{
  "_format": "hh-sol-artifact-1",
  "contractName": "TestNft",
  "sourceName": "contracts/TestNft.sol",
  "abi": [
    {
      "inputs": [],
      "stateMutability": "nonpayable",
      "type": "constructor"
    },
    {
      "anonymous": false,
      "inputs": [
        {
          "indexed": true,
          "internalType": "address",
          "name": "owner",
          "type": "address"
        },
        {
          "indexed": true,
          "internalType": "address",
          "name": "approved",
          "type": "address"
        },
        {
          "indexed": true,
          "internalType": "uint256",
          "name": "tokenId",
          "type": "uint256"
        }
      ],
      "name": "Approval",
      "type": "event"
    },
    {
      "anonymous": false,
      "inputs": [
        {
          "indexed": true,
          "internalType": "address",
          "name": "owner",
          "type": "address"
        },
        {
          "indexed": true,
          "internalType": "address",
          "name": "operator",
          "type": "address"
        },
        {
          "indexed": false,
          "internalType": "bool",
          "name": "approved",
          "type": "bool"
        }
      ],
      "name": "ApprovalForAll",
      "type": "event"
    },
    {
      "anonymous": false,
      "inputs": [
        {
          "indexed": true,
          "internalType": "address",
          "name": "previousOwner",
          "type": "address"
        },
        {
          "indexed": true,
          "internalType": "address",
          "name": "newOwner",
          "type": "address"
        }
      ],
      "name": "OwnershipTransferred",
      "type": "event"
    },
    {
      "anonymous": false,
      "inputs": [
        {
          "indexed": true,
          "internalType": "address",
          "name": "from",
          "type": "address"
        },
        {
          "indexed": true,
          "internalType": "address",
          "name": "to",
          "type": "address"
        },
        {
          "indexed": true,
          "internalType": "uint256",
          "name": "tokenId",
          "type": "uint256"
        }
      ],
      "name": "Transfer",
      "type": "event"
    },
    {
      "inputs": [
        {
          "internalType": "address",
          "name": "to",
          "type": "address"
        },
        {
          "internalType": "uint256",
          "name": "tokenId",
          "type": "uint256"
        }
      ],
      "name": "approve",
      "outputs": [],
      "stateMutability": "nonpayable",
      "type": "function"
    },
    {
      "inputs": [
        {
          "internalType": "address",
          "name": "owner",
          "type": "address"
        }
      ],
      "name": "balanceOf",
      "outputs": [
        {
          "internalType": "uint256",
          "name": "",
          "type": "uint256"
        }
      ],
      "stateMutability": "view",
      "type": "function"
    },
    {
      "inputs": [
        {
          "internalType": "uint256",
          "name": "tokenId",
          "type": "uint256"
        }
      ],
      "name": "burn",
      "outputs": [],
      "stateMutability": "nonpayable",
      "type": "function"
    },
    {
      "inputs": [
        {
          "internalType": "uint256",
          "name": "tokenId",
          "type": "uint256"
        }
      ],
      "name": "getApproved",
      "outputs": [
        {
          "internalType": "address",
          "name": "",
          "type": "address"
        }
      ],
      "stateMutability": "view",
      "type": "function"
    },
    {
      "inputs": [
        {
          "internalType": "address",
          "name": "owner",
          "type": "address"
        },
        {
          "internalType": "address",
          "name": "operator",
          "type": "address"
        }
      ],
      "name": "isApprovedForAll",
      "outputs": [
        {
          "internalType": "bool",
          "name": "",
          "type": "bool"
        }
      ],
      "stateMutability": "view",
      "type": "function"
    },
    {
      "inputs": [],
      "name": "name",
      "outputs": [
        {
          "internalType": "string",
          "name": "",
          "type": "string"
        }
      ],
      "stateMutability": "view",
      "type": "function"
    },
    {
      "inputs": [],
      "name": "owner",
      "outputs": [
        {
          "internalType": "address",
          "name": "",
          "type": "address"
        }
      ],
      "stateMutability": "view",
      "type": "function"
    },
    {
      "inputs": [
        {
          "internalType": "uint256",
          "name": "tokenId",
          "type": "uint256"
        }
      ],
      "name": "ownerOf",
      "outputs": [
        {
          "internalType": "address",
          "name": "",
          "type": "address"
        }
      ],
      "stateMutability": "view",
      "type": "function"
    },
    {
      "inputs": [],
      "name": "renounceOwnership",
      "outputs": [],
      "stateMutability": "nonpayable",
      "type": "function"
    },
    {
      "inputs": [
        {
          "internalType": "address",
          "name": "to",
          "type": "address"
        },
        {
          "internalType": "string",
          "name": "uri",
          "type": "string"
        }
      ],
      "name": "safeMint",
      "outputs": [],
      "stateMutability": "nonpayable",
      "type": "function"
    },
    {
      "inputs": [
        {
          "internalType": "address",
          "name": "from",
          "type": "address"
        },
        {
          "internalType": "address",
          "name": "to",
          "type": "address"
        },
        {
          "internalType": "uint256",
          "name": "tokenId",
          "type": "uint256"
        }
      ],
      "name": "safeTransferFrom",
      "outputs": [],
      "stateMutability": "nonpayable",
      "type": "function"
    },
    {
      "inputs": [
        {
          "internalType": "address",
          "name": "from",
          "type": "address"
        },
        {
          "internalType": "address",
          "name": "to",
          "type": "address"
        },
        {
          "internalType": "uint256",
          "name": "tokenId",
          "type": "uint256"
        },
        {
          "internalType": "bytes",
          "name": "_data",
          "type": "bytes"
        }
      ],
      "name": "safeTransferFrom",
      "outputs": [],
      "stateMutability": "nonpayable",
      "type": "function"
    },
    {
      "inputs": [
        {
          "internalType": "address",
          "name": "operator",
          "type": "address"
        },
        {
          "internalType": "bool",
          "name": "approved",
          "type": "bool"
        }
      ],
      "name": "setApprovalForAll",
      "outputs": [],
      "stateMutability": "nonpayable",
      "type": "function"
    },
    {
      "inputs": [
        {
          "internalType": "bytes4",
          "name": "interfaceId",
          "type": "bytes4"
        }
      ],
      "name": "supportsInterface",
      "outputs": [
        {
          "internalType": "bool",
          "name": "",
          "type": "bool"
        }
      ],
      "stateMutability": "view",
      "type": "function"
    },
    {
      "inputs": [],
      "name": "symbol",
      "outputs": [
        {
          "internalType": "string",
          "name": "",
          "type": "string"
        }
      ],
      "stateMutability": "view",
      "type": "function"
    },
    {
      "inputs": [
        {
          "internalType": "uint256",
          "name": "tokenId",
          "type": "uint256"
        }
      ],
      "name": "tokenURI",
      "outputs": [
        {
          "internalType": "string",
          "name": "",
          "type": "string"
        }
      ],
      "stateMutability": "view",
      "type": "function"
    },
    {
      "inputs": [
        {
          "internalType": "address",
          "name": "from",
          "type": "address"
        },
        {
          "internalType": "address",
          "name": "to",
          "type": "address"
        },
        {
          "internalType": "uint256",
          "name": "tokenId",
          "type": "uint256"
        }
      ],
      "name": "transferFrom",
      "outputs": [],
      "stateMutability": "nonpayable",
      "type": "function"
    },
    {
      "inputs": [
        {
          "internalType": "address",
          "name": "newOwner",
          "type": "address"
        }
      ],
      "name": "transferOwnership",
      "outputs": [],
      "stateMutability": "nonpayable",
      "type": "function"
    }
  ],
  "bytecode": "0x60806040523480156200001157600080fd5b506040518060400160405280600881526020017f57696c644e4654730000000000000000000000000000000000000000000000008152506040518060400160405280600281526020017f5746000000000000000000000000000000000000000000000000000000000000815250816000908051906020019062000096929190620001a6565b508060019080519060200190620000af929190620001a6565b505050620000d2620000c6620000d860201b60201c565b620000e060201b60201c565b620002bb565b600033905090565b6000600760009054906101000a900473ffffffffffffffffffffffffffffffffffffffff16905081600760006101000a81548173ffffffffffffffffffffffffffffffffffffffff021916908373ffffffffffffffffffffffffffffffffffffffff1602179055508173ffffffffffffffffffffffffffffffffffffffff168173ffffffffffffffffffffffffffffffffffffffff167f8be0079c531659141344cd1fd0a4f28419497f9722a3daafe3b4186f6b6457e060405160405180910390a35050565b828054620001b49062000256565b90600052602060002090601f016020900481019282620001d8576000855562000224565b82601f10620001f357805160ff191683800117855562000224565b8280016001018555821562000224579182015b828111156200022357825182559160200191906001019062000206565b5b50905062000233919062000237565b5090565b5b808211156200025257600081600090555060010162000238565b5090565b600060028204905060018216806200026f57607f821691505b602082108114156200028657620002856200028c565b5b50919050565b7f4e487b7100000000000000000000000000000000000000000000000000000000600052602260045260246000fd5b61332a80620002cb6000396000f3fe608060405234801561001057600080fd5b50600436106101165760003560e01c8063715018a6116100a2578063b88d4fde11610071578063b88d4fde146102cb578063c87b56dd146102e7578063d204c45e14610317578063e985e9c514610333578063f2fde38b1461036357610116565b8063715018a6146102695780638da5cb5b1461027357806395d89b4114610291578063a22cb465146102af57610116565b806323b872dd116100e957806323b872dd146101b557806342842e0e146101d157806342966c68146101ed5780636352211e1461020957806370a082311461023957610116565b806301ffc9a71461011b57806306fdde031461014b578063081812fc14610169578063095ea7b314610199575b600080fd5b61013560048036038101906101309190612247565b61037f565b60405161014291906126b6565b60405180910390f35b610153610461565b60405161016091906126d1565b60405180910390f35b610183600480360381019061017e9190612299565b6104f3565b604051610190919061264f565b60405180910390f35b6101b360048036038101906101ae919061220b565b610578565b005b6101cf60048036038101906101ca91906120b1565b610690565b005b6101eb60048036038101906101e691906120b1565b6106f0565b005b61020760048036038101906102029190612299565b610710565b005b610223600480360381019061021e9190612299565b61076c565b604051610230919061264f565b60405180910390f35b610253600480360381019061024e919061204c565b61081e565b6040516102609190612953565b60405180910390f35b6102716108d6565b005b61027b61095e565b604051610288919061264f565b60405180910390f35b610299610988565b6040516102a691906126d1565b60405180910390f35b6102c960048036038101906102c4919061217b565b610a1a565b005b6102e560048036038101906102e09190612100565b610a30565b005b61030160048036038101906102fc9190612299565b610a92565b60405161030e91906126d1565b60405180910390f35b610331600480360381019061032c91906121b7565b610aa4565b005b61034d60048036038101906103489190612075565b610b51565b60405161035a91906126b6565b60405180910390f35b61037d6004803603810190610378919061204c565b610be5565b005b60007f80ac58cd000000000000000000000000000000000000000000000000000000007bffffffffffffffffffffffffffffffffffffffffffffffffffffffff1916827bffffffffffffffffffffffffffffffffffffffffffffffffffffffff1916148061044a57507f5b5e139f000000000000000000000000000000000000000000000000000000007bffffffffffffffffffffffffffffffffffffffffffffffffffffffff1916827bffffffffffffffffffffffffffffffffffffffffffffffffffffffff1916145b8061045a575061045982610cdd565b5b9050919050565b60606000805461047090612ba9565b80601f016020809104026020016040519081016040528092919081815260200182805461049c90612ba9565b80156104e95780601f106104be576101008083540402835291602001916104e9565b820191906000526020600020905b8154815290600101906020018083116104cc57829003601f168201915b5050505050905090565b60006104fe82610d47565b61053d576040517f08c379a000000000000000000000000000000000000000000000000000000000815260040161053490612893565b60405180910390fd5b6004600083815260200190815260200160002060009054906101000a900473ffffffffffffffffffffffffffffffffffffffff169050919050565b60006105838261076c565b90508073ffffffffffffffffffffffffffffffffffffffff168373ffffffffffffffffffffffffffffffffffffffff1614156105f4576040517f08c379a00000000000000000000000000000000000000000000000000000000081526004016105eb906128f3565b60405180910390fd5b8073ffffffffffffffffffffffffffffffffffffffff16610613610db3565b73ffffffffffffffffffffffffffffffffffffffff16148061064257506106418161063c610db3565b610b51565b5b610681576040517f08c379a0000000000000000000000000000000000000000000000000000000008152600401610678906127d3565b60405180910390fd5b61068b8383610dbb565b505050565b6106a161069b610db3565b82610e74565b6106e0576040517f08c379a00000000000000000000000000000000000000000000000000000000081526004016106d790612913565b60405180910390fd5b6106eb838383610f52565b505050565b61070b83838360405180602001604052806000815250610a30565b505050565b61072161071b610db3565b82610e74565b610760576040517f08c379a000000000000000000000000000000000000000000000000000000000815260040161075790612933565b60405180910390fd5b610769816111b9565b50565b6000806002600084815260200190815260200160002060009054906101000a900473ffffffffffffffffffffffffffffffffffffffff169050600073ffffffffffffffffffffffffffffffffffffffff168173ffffffffffffffffffffffffffffffffffffffff161415610815576040517f08c379a000000000000000000000000000000000000000000000000000000000815260040161080c90612813565b60405180910390fd5b80915050919050565b60008073ffffffffffffffffffffffffffffffffffffffff168273ffffffffffffffffffffffffffffffffffffffff16141561088f576040517f08c379a0000000000000000000000000000000000000000000000000000000008152600401610886906127f3565b60405180910390fd5b600360008373ffffffffffffffffffffffffffffffffffffffff1673ffffffffffffffffffffffffffffffffffffffff168152602001908152602001600020549050919050565b6108de610db3565b73ffffffffffffffffffffffffffffffffffffffff166108fc61095e565b73ffffffffffffffffffffffffffffffffffffffff1614610952576040517f08c379a0000000000000000000000000000000000000000000000000000000008152600401610949906128b3565b60405180910390fd5b61095c60006111c5565b565b6000600760009054906101000a900473ffffffffffffffffffffffffffffffffffffffff16905090565b60606001805461099790612ba9565b80601f01602080910402602001604051908101604052809291908181526020018280546109c390612ba9565b8015610a105780601f106109e557610100808354040283529160200191610a10565b820191906000526020600020905b8154815290600101906020018083116109f357829003601f168201915b5050505050905090565b610a2c610a25610db3565b838361128b565b5050565b610a41610a3b610db3565b83610e74565b610a80576040517f08c379a0000000000000000000000000000000000000000000000000000000008152600401610a7790612913565b60405180910390fd5b610a8c848484846113f8565b50505050565b6060610a9d82611454565b9050919050565b610aac610db3565b73ffffffffffffffffffffffffffffffffffffffff16610aca61095e565b73ffffffffffffffffffffffffffffffffffffffff1614610b20576040517f08c379a0000000000000000000000000000000000000000000000000000000008152600401610b17906128b3565b60405180910390fd5b6000610b2c60086115a6565b9050610b3860086115b4565b610b4283826115ca565b610b4c81836115e8565b505050565b6000600560008473ffffffffffffffffffffffffffffffffffffffff1673ffffffffffffffffffffffffffffffffffffffff16815260200190815260200160002060008373ffffffffffffffffffffffffffffffffffffffff1673ffffffffffffffffffffffffffffffffffffffff16815260200190815260200160002060009054906101000a900460ff16905092915050565b610bed610db3565b73ffffffffffffffffffffffffffffffffffffffff16610c0b61095e565b73ffffffffffffffffffffffffffffffffffffffff1614610c61576040517f08c379a0000000000000000000000000000000000000000000000000000000008152600401610c58906128b3565b60405180910390fd5b600073ffffffffffffffffffffffffffffffffffffffff168173ffffffffffffffffffffffffffffffffffffffff161415610cd1576040517f08c379a0000000000000000000000000000000000000000000000000000000008152600401610cc890612713565b60405180910390fd5b610cda816111c5565b50565b60007f01ffc9a7000000000000000000000000000000000000000000000000000000007bffffffffffffffffffffffffffffffffffffffffffffffffffffffff1916827bffffffffffffffffffffffffffffffffffffffffffffffffffffffff1916149050919050565b60008073ffffffffffffffffffffffffffffffffffffffff166002600084815260200190815260200160002060009054906101000a900473ffffffffffffffffffffffffffffffffffffffff1673ffffffffffffffffffffffffffffffffffffffff1614159050919050565b600033905090565b816004600083815260200190815260200160002060006101000a81548173ffffffffffffffffffffffffffffffffffffffff021916908373ffffffffffffffffffffffffffffffffffffffff160217905550808273ffffffffffffffffffffffffffffffffffffffff16610e2e8361076c565b73ffffffffffffffffffffffffffffffffffffffff167f8c5be1e5ebec7d5bd14f71427d1e84f3dd0314c0f7b2291e5b200ac8c7c3b92560405160405180910390a45050565b6000610e7f82610d47565b610ebe576040517f08c379a0000000000000000000000000000000000000000000000000000000008152600401610eb5906127b3565b60405180910390fd5b6000610ec98361076c565b90508073ffffffffffffffffffffffffffffffffffffffff168473ffffffffffffffffffffffffffffffffffffffff161480610f3857508373ffffffffffffffffffffffffffffffffffffffff16610f20846104f3565b73ffffffffffffffffffffffffffffffffffffffff16145b80610f495750610f488185610b51565b5b91505092915050565b8273ffffffffffffffffffffffffffffffffffffffff16610f728261076c565b73ffffffffffffffffffffffffffffffffffffffff1614610fc8576040517f08c379a0000000000000000000000000000000000000000000000000000000008152600401610fbf90612733565b60405180910390fd5b600073ffffffffffffffffffffffffffffffffffffffff168273ffffffffffffffffffffffffffffffffffffffff161415611038576040517f08c379a000000000000000000000000000000000000000000000000000000000815260040161102f90612773565b60405180910390fd5b61104383838361165c565b61104e600082610dbb565b6001600360008573ffffffffffffffffffffffffffffffffffffffff1673ffffffffffffffffffffffffffffffffffffffff168152602001908152602001600020600082825461109e9190612abf565b925050819055506001600360008473ffffffffffffffffffffffffffffffffffffffff1673ffffffffffffffffffffffffffffffffffffffff16815260200190815260200160002060008282546110f59190612a38565b92505081905550816002600083815260200190815260200160002060006101000a81548173ffffffffffffffffffffffffffffffffffffffff021916908373ffffffffffffffffffffffffffffffffffffffff160217905550808273ffffffffffffffffffffffffffffffffffffffff168473ffffffffffffffffffffffffffffffffffffffff167fddf252ad1be2c89b69c2b068fc378daa952ba7f163c4a11628f55a4df523b3ef60405160405180910390a46111b4838383611661565b505050565b6111c281611666565b50565b6000600760009054906101000a900473ffffffffffffffffffffffffffffffffffffffff16905081600760006101000a81548173ffffffffffffffffffffffffffffffffffffffff021916908373ffffffffffffffffffffffffffffffffffffffff1602179055508173ffffffffffffffffffffffffffffffffffffffff168173ffffffffffffffffffffffffffffffffffffffff167f8be0079c531659141344cd1fd0a4f28419497f9722a3daafe3b4186f6b6457e060405160405180910390a35050565b8173ffffffffffffffffffffffffffffffffffffffff168373ffffffffffffffffffffffffffffffffffffffff1614156112fa576040517f08c379a00000000000000000000000000000000000000000000000000000000081526004016112f190612793565b60405180910390fd5b80600560008573ffffffffffffffffffffffffffffffffffffffff1673ffffffffffffffffffffffffffffffffffffffff16815260200190815260200160002060008473ffffffffffffffffffffffffffffffffffffffff1673ffffffffffffffffffffffffffffffffffffffff16815260200190815260200160002060006101000a81548160ff0219169083151502179055508173ffffffffffffffffffffffffffffffffffffffff168373ffffffffffffffffffffffffffffffffffffffff167f17307eab39ab6107e8899845ad3d59bd9653f200f220920489ca2b5937696c31836040516113eb91906126b6565b60405180910390a3505050565b611403848484610f52565b61140f848484846116b9565b61144e576040517f08c379a0000000000000000000000000000000000000000000000000000000008152600401611445906126f3565b60405180910390fd5b50505050565b606061145f82610d47565b61149e576040517f08c379a000000000000000000000000000000000000000000000000000000000815260040161149590612873565b60405180910390fd5b60006006600084815260200190815260200160002080546114be90612ba9565b80601f01602080910402602001604051908101604052809291908181526020018280546114ea90612ba9565b80156115375780601f1061150c57610100808354040283529160200191611537565b820191906000526020600020905b81548152906001019060200180831161151a57829003601f168201915b505050505090506000611548611850565b905060008151141561155e5781925050506115a1565b60008251111561159357808260405160200161157b92919061262b565b604051602081830303815290604052925050506115a1565b61159c84611867565b925050505b919050565b600081600001549050919050565b6001816000016000828254019250508190555050565b6115e482826040518060200160405280600081525061190e565b5050565b6115f182610d47565b611630576040517f08c379a000000000000000000000000000000000000000000000000000000000815260040161162790612833565b60405180910390fd5b80600660008481526020019081526020016000209080519060200190611657929190611e30565b505050565b505050565b505050565b61166f81611969565b600060066000838152602001908152602001600020805461168f90612ba9565b9050146116b6576006600082815260200190815260200160002060006116b59190611eb6565b5b50565b60006116da8473ffffffffffffffffffffffffffffffffffffffff16611a86565b15611843578373ffffffffffffffffffffffffffffffffffffffff1663150b7a02611703610db3565b8786866040518563ffffffff1660e01b8152600401611725949392919061266a565b602060405180830381600087803b15801561173f57600080fd5b505af192505050801561177057506040513d601f19601f8201168201806040525081019061176d9190612270565b60015b6117f3573d80600081146117a0576040519150601f19603f3d011682016040523d82523d6000602084013e6117a5565b606091505b506000815114156117eb576040517f08c379a00000000000000000000000000000000000000000000000000000000081526004016117e2906126f3565b60405180910390fd5b805181602001fd5b63150b7a0260e01b7bffffffffffffffffffffffffffffffffffffffffffffffffffffffff1916817bffffffffffffffffffffffffffffffffffffffffffffffffffffffff191614915050611848565b600190505b949350505050565b606060405180602001604052806000815250905090565b606061187282610d47565b6118b1576040517f08c379a00000000000000000000000000000000000000000000000000000000081526004016118a8906128d3565b60405180910390fd5b60006118bb611850565b905060008151116118db5760405180602001604052806000815250611906565b806118e584611aa9565b6040516020016118f692919061262b565b6040516020818303038152906040525b915050919050565b6119188383611c56565b61192560008484846116b9565b611964576040517f08c379a000000000000000000000000000000000000000000000000000000000815260040161195b906126f3565b60405180910390fd5b505050565b60006119748261076c565b90506119828160008461165c565b61198d600083610dbb565b6001600360008373ffffffffffffffffffffffffffffffffffffffff1673ffffffffffffffffffffffffffffffffffffffff16815260200190815260200160002060008282546119dd9190612abf565b925050819055506002600083815260200190815260200160002060006101000a81549073ffffffffffffffffffffffffffffffffffffffff021916905581600073ffffffffffffffffffffffffffffffffffffffff168273ffffffffffffffffffffffffffffffffffffffff167fddf252ad1be2c89b69c2b068fc378daa952ba7f163c4a11628f55a4df523b3ef60405160405180910390a4611a8281600084611661565b5050565b6000808273ffffffffffffffffffffffffffffffffffffffff163b119050919050565b60606000821415611af1576040518060400160405280600181526020017f30000000000000000000000000000000000000000000000000000000000000008152509050611c51565b600082905060005b60008214611b23578080611b0c90612c0c565b915050600a82611b1c9190612a8e565b9150611af9565b60008167ffffffffffffffff811115611b65577f4e487b7100000000000000000000000000000000000000000000000000000000600052604160045260246000fd5b6040519080825280601f01601f191660200182016040528015611b975781602001600182028036833780820191505090505b5090505b60008514611c4a57600182611bb09190612abf565b9150600a85611bbf9190612c55565b6030611bcb9190612a38565b60f81b818381518110611c07577f4e487b7100000000000000000000000000000000000000000000000000000000600052603260045260246000fd5b60200101907effffffffffffffffffffffffffffffffffffffffffffffffffffffffffffff1916908160001a905350600a85611c439190612a8e565b9450611b9b565b8093505050505b919050565b600073ffffffffffffffffffffffffffffffffffffffff168273ffffffffffffffffffffffffffffffffffffffff161415611cc6576040517f08c379a0000000000000000000000000000000000000000000000000000000008152600401611cbd90612853565b60405180910390fd5b611ccf81610d47565b15611d0f576040517f08c379a0000000000000000000000000000000000000000000000000000000008152600401611d0690612753565b60405180910390fd5b611d1b6000838361165c565b6001600360008473ffffffffffffffffffffffffffffffffffffffff1673ffffffffffffffffffffffffffffffffffffffff1681526020019081526020016000206000828254611d6b9190612a38565b92505081905550816002600083815260200190815260200160002060006101000a81548173ffffffffffffffffffffffffffffffffffffffff021916908373ffffffffffffffffffffffffffffffffffffffff160217905550808273ffffffffffffffffffffffffffffffffffffffff16600073ffffffffffffffffffffffffffffffffffffffff167fddf252ad1be2c89b69c2b068fc378daa952ba7f163c4a11628f55a4df523b3ef60405160405180910390a4611e2c60008383611661565b5050565b828054611e3c90612ba9565b90600052602060002090601f016020900481019282611e5e5760008555611ea5565b82601f10611e7757805160ff1916838001178555611ea5565b82800160010185558215611ea5579182015b82811115611ea4578251825591602001919060010190611e89565b5b509050611eb29190611ef6565b5090565b508054611ec290612ba9565b6000825580601f10611ed45750611ef3565b601f016020900490600052602060002090810190611ef29190611ef6565b5b50565b5b80821115611f0f576000816000905550600101611ef7565b5090565b6000611f26611f2184612993565b61296e565b905082815260208101848484011115611f3e57600080fd5b611f49848285612b67565b509392505050565b6000611f64611f5f846129c4565b61296e565b905082815260208101848484011115611f7c57600080fd5b611f87848285612b67565b509392505050565b600081359050611f9e81613298565b92915050565b600081359050611fb3816132af565b92915050565b600081359050611fc8816132c6565b92915050565b600081519050611fdd816132c6565b92915050565b600082601f830112611ff457600080fd5b8135612004848260208601611f13565b91505092915050565b600082601f83011261201e57600080fd5b813561202e848260208601611f51565b91505092915050565b600081359050612046816132dd565b92915050565b60006020828403121561205e57600080fd5b600061206c84828501611f8f565b91505092915050565b6000806040838503121561208857600080fd5b600061209685828601611f8f565b92505060206120a785828601611f8f565b9150509250929050565b6000806000606084860312156120c657600080fd5b60006120d486828701611f8f565b93505060206120e586828701611f8f565b92505060406120f686828701612037565b9150509250925092565b6000806000806080858703121561211657600080fd5b600061212487828801611f8f565b945050602061213587828801611f8f565b935050604061214687828801612037565b925050606085013567ffffffffffffffff81111561216357600080fd5b61216f87828801611fe3565b91505092959194509250565b6000806040838503121561218e57600080fd5b600061219c85828601611f8f565b92505060206121ad85828601611fa4565b9150509250929050565b600080604083850312156121ca57600080fd5b60006121d885828601611f8f565b925050602083013567ffffffffffffffff8111156121f557600080fd5b6122018582860161200d565b9150509250929050565b6000806040838503121561221e57600080fd5b600061222c85828601611f8f565b925050602061223d85828601612037565b9150509250929050565b60006020828403121561225957600080fd5b600061226784828501611fb9565b91505092915050565b60006020828403121561228257600080fd5b600061229084828501611fce565b91505092915050565b6000602082840312156122ab57600080fd5b60006122b984828501612037565b91505092915050565b6122cb81612af3565b82525050565b6122da81612b05565b82525050565b60006122eb826129f5565b6122f58185612a0b565b9350612305818560208601612b76565b61230e81612d42565b840191505092915050565b600061232482612a00565b61232e8185612a1c565b935061233e818560208601612b76565b61234781612d42565b840191505092915050565b600061235d82612a00565b6123678185612a2d565b9350612377818560208601612b76565b80840191505092915050565b6000612390603283612a1c565b915061239b82612d53565b604082019050919050565b60006123b3602683612a1c565b91506123be82612da2565b604082019050919050565b60006123d6602583612a1c565b91506123e182612df1565b604082019050919050565b60006123f9601c83612a1c565b915061240482612e40565b602082019050919050565b600061241c602483612a1c565b915061242782612e69565b604082019050919050565b600061243f601983612a1c565b915061244a82612eb8565b602082019050919050565b6000612462602c83612a1c565b915061246d82612ee1565b604082019050919050565b6000612485603883612a1c565b915061249082612f30565b604082019050919050565b60006124a8602a83612a1c565b91506124b382612f7f565b604082019050919050565b60006124cb602983612a1c565b91506124d682612fce565b604082019050919050565b60006124ee602e83612a1c565b91506124f98261301d565b604082019050919050565b6000612511602083612a1c565b915061251c8261306c565b602082019050919050565b6000612534603183612a1c565b915061253f82613095565b604082019050919050565b6000612557602c83612a1c565b9150612562826130e4565b604082019050919050565b600061257a602083612a1c565b915061258582613133565b602082019050919050565b600061259d602f83612a1c565b91506125a88261315c565b604082019050919050565b60006125c0602183612a1c565b91506125cb826131ab565b604082019050919050565b60006125e3603183612a1c565b91506125ee826131fa565b604082019050919050565b6000612606603083612a1c565b915061261182613249565b604082019050919050565b61262581612b5d565b82525050565b60006126378285612352565b91506126438284612352565b91508190509392505050565b600060208201905061266460008301846122c2565b92915050565b600060808201905061267f60008301876122c2565b61268c60208301866122c2565b612699604083018561261c565b81810360608301526126ab81846122e0565b905095945050505050565b60006020820190506126cb60008301846122d1565b92915050565b600060208201905081810360008301526126eb8184612319565b905092915050565b6000602082019050818103600083015261270c81612383565b9050919050565b6000602082019050818103600083015261272c816123a6565b9050919050565b6000602082019050818103600083015261274c816123c9565b9050919050565b6000602082019050818103600083015261276c816123ec565b9050919050565b6000602082019050818103600083015261278c8161240f565b9050919050565b600060208201905081810360008301526127ac81612432565b9050919050565b600060208201905081810360008301526127cc81612455565b9050919050565b600060208201905081810360008301526127ec81612478565b9050919050565b6000602082019050818103600083015261280c8161249b565b9050919050565b6000602082019050818103600083015261282c816124be565b9050919050565b6000602082019050818103600083015261284c816124e1565b9050919050565b6000602082019050818103600083015261286c81612504565b9050919050565b6000602082019050818103600083015261288c81612527565b9050919050565b600060208201905081810360008301526128ac8161254a565b9050919050565b600060208201905081810360008301526128cc8161256d565b9050919050565b600060208201905081810360008301526128ec81612590565b9050919050565b6000602082019050818103600083015261290c816125b3565b9050919050565b6000602082019050818103600083015261292c816125d6565b9050919050565b6000602082019050818103600083015261294c816125f9565b9050919050565b6000602082019050612968600083018461261c565b92915050565b6000612978612989565b90506129848282612bdb565b919050565b6000604051905090565b600067ffffffffffffffff8211156129ae576129ad612d13565b5b6129b782612d42565b9050602081019050919050565b600067ffffffffffffffff8211156129df576129de612d13565b5b6129e882612d42565b9050602081019050919050565b600081519050919050565b600081519050919050565b600082825260208201905092915050565b600082825260208201905092915050565b600081905092915050565b6000612a4382612b5d565b9150612a4e83612b5d565b9250827fffffffffffffffffffffffffffffffffffffffffffffffffffffffffffffffff03821115612a8357612a82612c86565b5b828201905092915050565b6000612a9982612b5d565b9150612aa483612b5d565b925082612ab457612ab3612cb5565b5b828204905092915050565b6000612aca82612b5d565b9150612ad583612b5d565b925082821015612ae857612ae7612c86565b5b828203905092915050565b6000612afe82612b3d565b9050919050565b60008115159050919050565b60007fffffffff0000000000000000000000000000000000000000000000000000000082169050919050565b600073ffffffffffffffffffffffffffffffffffffffff82169050919050565b6000819050919050565b82818337600083830152505050565b60005b83811015612b94578082015181840152602081019050612b79565b83811115612ba3576000848401525b50505050565b60006002820490506001821680612bc157607f821691505b60208210811415612bd557612bd4612ce4565b5b50919050565b612be482612d42565b810181811067ffffffffffffffff82111715612c0357612c02612d13565b5b80604052505050565b6000612c1782612b5d565b91507fffffffffffffffffffffffffffffffffffffffffffffffffffffffffffffffff821415612c4a57612c49612c86565b5b600182019050919050565b6000612c6082612b5d565b9150612c6b83612b5d565b925082612c7b57612c7a612cb5565b5b828206905092915050565b7f4e487b7100000000000000000000000000000000000000000000000000000000600052601160045260246000fd5b7f4e487b7100000000000000000000000000000000000000000000000000000000600052601260045260246000fd5b7f4e487b7100000000000000000000000000000000000000000000000000000000600052602260045260246000fd5b7f4e487b7100000000000000000000000000000000000000000000000000000000600052604160045260246000fd5b6000601f19601f8301169050919050565b7f4552433732313a207472616e7366657220746f206e6f6e20455243373231526560008201527f63656976657220696d706c656d656e7465720000000000000000000000000000602082015250565b7f4f776e61626c653a206e6577206f776e657220697320746865207a65726f206160008201527f6464726573730000000000000000000000000000000000000000000000000000602082015250565b7f4552433732313a207472616e736665722066726f6d20696e636f72726563742060008201527f6f776e6572000000000000000000000000000000000000000000000000000000602082015250565b7f4552433732313a20746f6b656e20616c7265616479206d696e74656400000000600082015250565b7f4552433732313a207472616e7366657220746f20746865207a65726f2061646460008201527f7265737300000000000000000000000000000000000000000000000000000000602082015250565b7f4552433732313a20617070726f766520746f2063616c6c657200000000000000600082015250565b7f4552433732313a206f70657261746f7220717565727920666f72206e6f6e657860008201527f697374656e7420746f6b656e0000000000000000000000000000000000000000602082015250565b7f4552433732313a20617070726f76652063616c6c6572206973206e6f74206f7760008201527f6e6572206e6f7220617070726f76656420666f7220616c6c0000000000000000602082015250565b7f4552433732313a2062616c616e636520717565727920666f7220746865207a6560008201527f726f206164647265737300000000000000000000000000000000000000000000602082015250565b7f4552433732313a206f776e657220717565727920666f72206e6f6e657869737460008201527f656e7420746f6b656e0000000000000000000000000000000000000000000000602082015250565b7f45524337323155524953746f726167653a2055524920736574206f66206e6f6e60008201527f6578697374656e7420746f6b656e000000000000000000000000000000000000602082015250565b7f4552433732313a206d696e7420746f20746865207a65726f2061646472657373600082015250565b7f45524337323155524953746f726167653a2055524920717565727920666f722060008201527f6e6f6e6578697374656e7420746f6b656e000000000000000000000000000000602082015250565b7f4552433732313a20617070726f76656420717565727920666f72206e6f6e657860008201527f697374656e7420746f6b656e0000000000000000000000000000000000000000602082015250565b7f4f776e61626c653a2063616c6c6572206973206e6f7420746865206f776e6572600082015250565b7f4552433732314d657461646174613a2055524920717565727920666f72206e6f60008201527f6e6578697374656e7420746f6b656e0000000000000000000000000000000000602082015250565b7f4552433732313a20617070726f76616c20746f2063757272656e74206f776e6560008201527f7200000000000000000000000000000000000000000000000000000000000000602082015250565b7f4552433732313a207472616e736665722063616c6c6572206973206e6f74206f60008201527f776e6572206e6f7220617070726f766564000000000000000000000000000000602082015250565b7f4552433732314275726e61626c653a2063616c6c6572206973206e6f74206f7760008201527f6e6572206e6f7220617070726f76656400000000000000000000000000000000602082015250565b6132a181612af3565b81146132ac57600080fd5b50565b6132b881612b05565b81146132c357600080fd5b50565b6132cf81612b11565b81146132da57600080fd5b50565b6132e681612b5d565b81146132f157600080fd5b5056fea2646970667358221220af109efd8899bde3dc81b11643e67e1f6539305f00dee817ec091b94324b69f964736f6c63430008040033",
  "linkReferences": {},
  "deployedLinkReferences": {}
}