{
	"contracts/TestMarketplace.sol": {
		"TestMarketplace": {
			"abi": [
				{
					"inputs": [
						{
							"internalType": "address",
							"name": "_nftContract",
							"type": "address"
						},
						{
							"internalType": "address",
							"name": "_acceptedTokenAddress",
							"type": "address"
						}
					],
					"stateMutability": "nonpayable",
					"type": "constructor"
				},
				{
					"anonymous": false,
					"inputs": [
						{
							"indexed": true,
							"internalType": "uint256",
							"name": "itemId",
							"type": "uint256"
						},
						{
							"indexed": true,
							"internalType": "uint256",
							"name": "tokenId",
							"type": "uint256"
						},
						{
							"indexed": false,
							"internalType": "address",
							"name": "seller",
							"type": "address"
						},
						{
							"indexed": false,
							"internalType": "address",
							"name": "owner",
							"type": "address"
						},
						{
							"indexed": false,
							"internalType": "uint256",
							"name": "price",
							"type": "uint256"
						}
					],
					"name": "MarketItemCreated",
					"type": "event"
				},
				{
					"anonymous": false,
					"inputs": [
						{
							"indexed": true,
							"internalType": "uint256",
							"name": "itemId",
							"type": "uint256"
						},
						{
							"indexed": true,
							"internalType": "uint256",
							"name": "tokenId",
							"type": "uint256"
						},
						{
							"indexed": false,
							"internalType": "address",
							"name": "seller",
							"type": "address"
						},
						{
							"indexed": false,
							"internalType": "address",
							"name": "owner",
							"type": "address"
						},
						{
							"indexed": false,
							"internalType": "uint256",
							"name": "price",
							"type": "uint256"
						}
					],
					"name": "MarketItemUpForSale",
					"type": "event"
				},
				{
					"anonymous": false,
					"inputs": [
						{
							"indexed": true,
							"internalType": "address",
							"name": "previousOwner",
							"type": "address"
						},
						{
							"indexed": true,
							"internalType": "address",
							"name": "newOwner",
							"type": "address"
						}
					],
					"name": "OwnershipTransferred",
					"type": "event"
				},
				{
					"inputs": [],
					"name": "acceptedTokenAddress",
					"outputs": [
						{
							"internalType": "address",
							"name": "",
							"type": "address"
						}
					],
					"stateMutability": "view",
					"type": "function"
				},
				{
					"inputs": [
						{
							"internalType": "uint256",
							"name": "tokenId",
							"type": "uint256"
						},
						{
							"internalType": "uint256",
							"name": "price",
							"type": "uint256"
						}
					],
					"name": "addItemToMarket",
					"outputs": [],
					"stateMutability": "nonpayable",
					"type": "function"
				},
				{
					"inputs": [
						{
							"internalType": "uint256",
							"name": "itemId",
							"type": "uint256"
						},
						{
							"internalType": "uint256",
							"name": "itemPrice",
							"type": "uint256"
						}
					],
					"name": "buyItem",
					"outputs": [],
					"stateMutability": "nonpayable",
					"type": "function"
				},
				{
					"inputs": [
						{
							"internalType": "uint256",
							"name": "itemId",
							"type": "uint256"
						}
					],
					"name": "createSale",
					"outputs": [],
					"stateMutability": "nonpayable",
					"type": "function"
				},
				{
					"inputs": [
						{
							"internalType": "uint256",
							"name": "marketItemId",
							"type": "uint256"
						}
					],
					"name": "getMarketItemById",
					"outputs": [
						{
							"components": [
								{
									"internalType": "uint256",
									"name": "itemId",
									"type": "uint256"
								},
								{
									"internalType": "uint256",
									"name": "tokenId",
									"type": "uint256"
								},
								{
									"internalType": "address",
									"name": "seller",
									"type": "address"
								},
								{
									"internalType": "address",
									"name": "owner",
									"type": "address"
								},
								{
									"internalType": "uint256",
									"name": "price",
									"type": "uint256"
								},
								{
									"internalType": "bool",
									"name": "isSold",
									"type": "bool"
								},
								{
									"internalType": "bool",
									"name": "isUpForSale",
									"type": "bool"
								},
								{
									"internalType": "bool",
									"name": "exists",
									"type": "bool"
								}
							],
							"internalType": "struct TestMarketplace.MarketItem",
							"name": "",
							"type": "tuple"
						}
					],
					"stateMutability": "view",
					"type": "function"
				},
				{
					"inputs": [],
					"name": "getUnsoldItems",
					"outputs": [
						{
							"components": [
								{
									"internalType": "uint256",
									"name": "itemId",
									"type": "uint256"
								},
								{
									"internalType": "uint256",
									"name": "tokenId",
									"type": "uint256"
								},
								{
									"internalType": "address",
									"name": "seller",
									"type": "address"
								},
								{
									"internalType": "address",
									"name": "owner",
									"type": "address"
								},
								{
									"internalType": "uint256",
									"name": "price",
									"type": "uint256"
								},
								{
									"internalType": "bool",
									"name": "isSold",
									"type": "bool"
								},
								{
									"internalType": "bool",
									"name": "isUpForSale",
									"type": "bool"
								},
								{
									"internalType": "bool",
									"name": "exists",
									"type": "bool"
								}
							],
							"internalType": "struct TestMarketplace.MarketItem[]",
							"name": "",
							"type": "tuple[]"
						}
					],
					"stateMutability": "view",
					"type": "function"
				},
				{
					"inputs": [
						{
							"internalType": "uint256",
							"name": "",
							"type": "uint256"
						}
					],
					"name": "idToMarketItem",
					"outputs": [
						{
							"internalType": "uint256",
							"name": "itemId",
							"type": "uint256"
						},
						{
							"internalType": "uint256",
							"name": "tokenId",
							"type": "uint256"
						},
						{
							"internalType": "address",
							"name": "seller",
							"type": "address"
						},
						{
							"internalType": "address",
							"name": "owner",
							"type": "address"
						},
						{
							"internalType": "uint256",
							"name": "price",
							"type": "uint256"
						},
						{
							"internalType": "bool",
							"name": "isSold",
							"type": "bool"
						},
						{
							"internalType": "bool",
							"name": "isUpForSale",
							"type": "bool"
						},
						{
							"internalType": "bool",
							"name": "exists",
							"type": "bool"
						}
					],
					"stateMutability": "view",
					"type": "function"
				},
				{
					"inputs": [],
					"name": "listingPrice",
					"outputs": [
						{
							"internalType": "uint256",
							"name": "",
							"type": "uint256"
						}
					],
					"stateMutability": "view",
					"type": "function"
				},
				{
					"inputs": [],
					"name": "nftContract",
					"outputs": [
						{
							"internalType": "address",
							"name": "",
							"type": "address"
						}
					],
					"stateMutability": "view",
					"type": "function"
				},
				{
					"inputs": [
						{
							"internalType": "address",
							"name": "operator",
							"type": "address"
						},
						{
							"internalType": "address",
							"name": "from",
							"type": "address"
						},
						{
							"internalType": "uint256",
							"name": "tokenId",
							"type": "uint256"
						},
						{
							"internalType": "bytes",
							"name": "data",
							"type": "bytes"
						}
					],
					"name": "onERC721Received",
					"outputs": [
						{
							"internalType": "bytes4",
							"name": "",
							"type": "bytes4"
						}
					],
					"stateMutability": "nonpayable",
					"type": "function"
				},
				{
					"inputs": [],
					"name": "owner",
					"outputs": [
						{
							"internalType": "address",
							"name": "",
							"type": "address"
						}
					],
					"stateMutability": "view",
					"type": "function"
				},
				{
					"inputs": [],
					"name": "renounceOwnership",
					"outputs": [],
					"stateMutability": "nonpayable",
					"type": "function"
				},
				{
					"inputs": [
						{
							"internalType": "address",
							"name": "newOwner",
							"type": "address"
						}
					],
					"name": "transferOwnership",
					"outputs": [],
					"stateMutability": "nonpayable",
					"type": "function"
				}
			],
			"devdoc": {
				"kind": "dev",
				"methods": {
					"onERC721Received(address,address,uint256,bytes)": {
						"details": "Whenever an {IERC721} `tokenId` token is transferred to this contract via {IERC721-safeTransferFrom} by `operator` from `from`, this function is called. It must return its Solidity selector to confirm the token transfer. If any other value is returned or the interface is not implemented by the recipient, the transfer will be reverted. The selector can be obtained in Solidity with `IERC721.onERC721Received.selector`."
					},
					"owner()": {
						"details": "Returns the address of the current owner."
					},
					"renounceOwnership()": {
						"details": "Leaves the contract without owner. It will not be possible to call `onlyOwner` functions anymore. Can only be called by the current owner. NOTE: Renouncing ownership will leave the contract without an owner, thereby removing any functionality that is only available to the owner."
					},
					"transferOwnership(address)": {
						"details": "Transfers ownership of the contract to a new account (`newOwner`). Can only be called by the current owner."
					}
				},
				"version": 1
			},
			"evm": {
				"assembly": "    /* \"contracts/TestMarketplace.sol\":438:4489  contract TestMarketplace is Ownable, ReentrancyGuard, IERC721Receiver {... */\n  mstore(0x40, 0x80)\n    /* \"contracts/TestMarketplace.sol\":764:773  0.1 ether */\n  0x016345785d8a0000\n    /* \"contracts/TestMarketplace.sol\":734:773  uint256 public listingPrice = 0.1 ether */\n  0x07\n  sstore\n    /* \"contracts/TestMarketplace.sol\":1306:1458  constructor(address _nftContract, address _acceptedTokenAddress) {... */\n  callvalue\n  dup1\n  iszero\n  tag_1\n  jumpi\n  0x00\n  dup1\n  revert\ntag_1:\n  pop\n  mload(0x40)\n  sub(codesize, bytecodeSize)\n  dup1\n  bytecodeSize\n  dup4\n  codecopy\n  dup2\n  dup2\n  add\n  0x40\n  mstore\n  dup2\n  add\n  swap1\n  tag_2\n  swap2\n  swap1\n  tag_3\n  jump\t// in\ntag_2:\n    /* \"@openzeppelin/contracts/access/Ownable.sol\":921:953  _transferOwnership(_msgSender()) */\n  tag_8\n    /* \"@openzeppelin/contracts/access/Ownable.sol\":940:952  _msgSender() */\n  tag_9\n    /* \"@openzeppelin/contracts/access/Ownable.sol\":940:950  _msgSender */\n  shl(0x20, tag_10)\n    /* \"@openzeppelin/contracts/access/Ownable.sol\":940:952  _msgSender() */\n  0x20\n  shr\n  jump\t// in\ntag_9:\n    /* \"@openzeppelin/contracts/access/Ownable.sol\":921:939  _transferOwnership */\n  shl(0x20, tag_11)\n    /* \"@openzeppelin/contracts/access/Ownable.sol\":921:953  _transferOwnership(_msgSender()) */\n  0x20\n  shr\n  jump\t// in\ntag_8:\n    /* \"@openzeppelin/contracts/security/ReentrancyGuard.sol\":1701:1702  1 */\n  0x01\n    /* \"@openzeppelin/contracts/security/ReentrancyGuard.sol\":1806:1813  _status */\n  dup1\n    /* \"@openzeppelin/contracts/security/ReentrancyGuard.sol\":1806:1828  _status = _NOT_ENTERED */\n  dup2\n  swap1\n  sstore\n  pop\n    /* \"contracts/TestMarketplace.sol\":1391:1403  _nftContract */\n  dup2\n    /* \"contracts/TestMarketplace.sol\":1377:1388  nftContract */\n  0x05\n  0x00\n    /* \"contracts/TestMarketplace.sol\":1377:1403  nftContract = _nftContract */\n  0x0100\n  exp\n  dup2\n  sload\n  dup2\n  0xffffffffffffffffffffffffffffffffffffffff\n  mul\n  not\n  and\n  swap1\n  dup4\n  0xffffffffffffffffffffffffffffffffffffffff\n  and\n  mul\n  or\n  swap1\n  sstore\n  pop\n    /* \"contracts/TestMarketplace.sol\":1432:1453  _acceptedTokenAddress */\n  dup1\n    /* \"contracts/TestMarketplace.sol\":1409:1429  acceptedTokenAddress */\n  0x06\n  0x00\n    /* \"contracts/TestMarketplace.sol\":1409:1453  acceptedTokenAddress = _acceptedTokenAddress */\n  0x0100\n  exp\n  dup2\n  sload\n  dup2\n  0xffffffffffffffffffffffffffffffffffffffff\n  mul\n  not\n  and\n  swap1\n  dup4\n  0xffffffffffffffffffffffffffffffffffffffff\n  and\n  mul\n  or\n  swap1\n  sstore\n  pop\n    /* \"contracts/TestMarketplace.sol\":1306:1458  constructor(address _nftContract, address _acceptedTokenAddress) {... */\n  pop\n  pop\n    /* \"contracts/TestMarketplace.sol\":438:4489  contract TestMarketplace is Ownable, ReentrancyGuard, IERC721Receiver {... */\n  jump(tag_14)\n    /* \"@openzeppelin/contracts/utils/Context.sol\":640:736  function _msgSender() internal view virtual returns (address) {... */\ntag_10:\n    /* \"@openzeppelin/contracts/utils/Context.sol\":693:700  address */\n  0x00\n    /* \"@openzeppelin/contracts/utils/Context.sol\":719:729  msg.sender */\n  caller\n    /* \"@openzeppelin/contracts/utils/Context.sol\":712:729  return msg.sender */\n  swap1\n  pop\n    /* \"@openzeppelin/contracts/utils/Context.sol\":640:736  function _msgSender() internal view virtual returns (address) {... */\n  swap1\n  jump\t// out\n    /* \"@openzeppelin/contracts/access/Ownable.sol\":2270:2457  function _transferOwnership(address newOwner) internal virtual {... */\ntag_11:\n    /* \"@openzeppelin/contracts/access/Ownable.sol\":2343:2359  address oldOwner */\n  0x00\n    /* \"@openzeppelin/contracts/access/Ownable.sol\":2362:2368  _owner */\n  dup1\n  0x00\n  swap1\n  sload\n  swap1\n  0x0100\n  exp\n  swap1\n  div\n  0xffffffffffffffffffffffffffffffffffffffff\n  and\n    /* \"@openzeppelin/contracts/access/Ownable.sol\":2343:2368  address oldOwner = _owner */\n  swap1\n  pop\n    /* \"@openzeppelin/contracts/access/Ownable.sol\":2387:2395  newOwner */\n  dup2\n    /* \"@openzeppelin/contracts/access/Ownable.sol\":2378:2384  _owner */\n  0x00\n  dup1\n    /* \"@openzeppelin/contracts/access/Ownable.sol\":2378:2395  _owner = newOwner */\n  0x0100\n  exp\n  dup2\n  sload\n  dup2\n  0xffffffffffffffffffffffffffffffffffffffff\n  mul\n  not\n  and\n  swap1\n  dup4\n  0xffffffffffffffffffffffffffffffffffffffff\n  and\n  mul\n  or\n  swap1\n  sstore\n  pop\n    /* \"@openzeppelin/contracts/access/Ownable.sol\":2441:2449  newOwner */\n  dup2\n    /* \"@openzeppelin/contracts/access/Ownable.sol\":2410:2450  OwnershipTransferred(oldOwner, newOwner) */\n  0xffffffffffffffffffffffffffffffffffffffff\n  and\n    /* \"@openzeppelin/contracts/access/Ownable.sol\":2431:2439  oldOwner */\n  dup2\n    /* \"@openzeppelin/contracts/access/Ownable.sol\":2410:2450  OwnershipTransferred(oldOwner, newOwner) */\n  0xffffffffffffffffffffffffffffffffffffffff\n  and\n  0x8be0079c531659141344cd1fd0a4f28419497f9722a3daafe3b4186f6b6457e0\n  mload(0x40)\n  mload(0x40)\n  dup1\n  swap2\n  sub\n  swap1\n  log3\n    /* \"@openzeppelin/contracts/access/Ownable.sol\":2333:2457  {... */\n  pop\n    /* \"@openzeppelin/contracts/access/Ownable.sol\":2270:2457  function _transferOwnership(address newOwner) internal virtual {... */\n  pop\n  jump\t// out\n    /* \"#utility.yul\":7:150   */\ntag_18:\n    /* \"#utility.yul\":64:69   */\n  0x00\n    /* \"#utility.yul\":95:101   */\n  dup2\n    /* \"#utility.yul\":89:102   */\n  mload\n    /* \"#utility.yul\":80:102   */\n  swap1\n  pop\n    /* \"#utility.yul\":111:144   */\n  tag_20\n    /* \"#utility.yul\":138:143   */\n  dup2\n    /* \"#utility.yul\":111:144   */\n  tag_21\n  jump\t// in\ntag_20:\n    /* \"#utility.yul\":7:150   */\n  swap3\n  swap2\n  pop\n  pop\n  jump\t// out\n    /* \"#utility.yul\":156:663   */\ntag_3:\n    /* \"#utility.yul\":235:241   */\n  0x00\n    /* \"#utility.yul\":243:249   */\n  dup1\n    /* \"#utility.yul\":292:294   */\n  0x40\n    /* \"#utility.yul\":280:289   */\n  dup4\n    /* \"#utility.yul\":271:278   */\n  dup6\n    /* \"#utility.yul\":267:290   */\n  sub\n    /* \"#utility.yul\":263:295   */\n  slt\n    /* \"#utility.yul\":260:379   */\n  iszero\n  tag_23\n  jumpi\n    /* \"#utility.yul\":298:377   */\n  tag_24\n  tag_25\n  jump\t// in\ntag_24:\n    /* \"#utility.yul\":260:379   */\ntag_23:\n    /* \"#utility.yul\":418:419   */\n  0x00\n    /* \"#utility.yul\":443:507   */\n  tag_26\n    /* \"#utility.yul\":499:506   */\n  dup6\n    /* \"#utility.yul\":490:496   */\n  dup3\n    /* \"#utility.yul\":479:488   */\n  dup7\n    /* \"#utility.yul\":475:497   */\n  add\n    /* \"#utility.yul\":443:507   */\n  tag_18\n  jump\t// in\ntag_26:\n    /* \"#utility.yul\":433:507   */\n  swap3\n  pop\n    /* \"#utility.yul\":389:517   */\n  pop\n    /* \"#utility.yul\":556:558   */\n  0x20\n    /* \"#utility.yul\":582:646   */\n  tag_27\n    /* \"#utility.yul\":638:645   */\n  dup6\n    /* \"#utility.yul\":629:635   */\n  dup3\n    /* \"#utility.yul\":618:627   */\n  dup7\n    /* \"#utility.yul\":614:636   */\n  add\n    /* \"#utility.yul\":582:646   */\n  tag_18\n  jump\t// in\ntag_27:\n    /* \"#utility.yul\":572:646   */\n  swap2\n  pop\n    /* \"#utility.yul\":527:656   */\n  pop\n    /* \"#utility.yul\":156:663   */\n  swap3\n  pop\n  swap3\n  swap1\n  pop\n  jump\t// out\n    /* \"#utility.yul\":750:846   */\ntag_30:\n    /* \"#utility.yul\":787:794   */\n  0x00\n    /* \"#utility.yul\":816:840   */\n  tag_32\n    /* \"#utility.yul\":834:839   */\n  dup3\n    /* \"#utility.yul\":816:840   */\n  tag_33\n  jump\t// in\ntag_32:\n    /* \"#utility.yul\":805:840   */\n  swap1\n  pop\n    /* \"#utility.yul\":750:846   */\n  swap2\n  swap1\n  pop\n  jump\t// out\n    /* \"#utility.yul\":852:978   */\ntag_33:\n    /* \"#utility.yul\":889:896   */\n  0x00\n    /* \"#utility.yul\":929:971   */\n  0xffffffffffffffffffffffffffffffffffffffff\n    /* \"#utility.yul\":922:927   */\n  dup3\n    /* \"#utility.yul\":918:972   */\n  and\n    /* \"#utility.yul\":907:972   */\n  swap1\n  pop\n    /* \"#utility.yul\":852:978   */\n  swap2\n  swap1\n  pop\n  jump\t// out\n    /* \"#utility.yul\":1107:1224   */\ntag_25:\n    /* \"#utility.yul\":1216:1217   */\n  0x00\n    /* \"#utility.yul\":1213:1214   */\n  dup1\n    /* \"#utility.yul\":1206:1218   */\n  revert\n    /* \"#utility.yul\":1230:1352   */\ntag_21:\n    /* \"#utility.yul\":1303:1327   */\n  tag_39\n    /* \"#utility.yul\":1321:1326   */\n  dup2\n    /* \"#utility.yul\":1303:1327   */\n  tag_30\n  jump\t// in\ntag_39:\n    /* \"#utility.yul\":1296:1301   */\n  dup2\n    /* \"#utility.yul\":1293:1328   */\n  eq\n    /* \"#utility.yul\":1283:1346   */\n  tag_40\n  jumpi\n    /* \"#utility.yul\":1342:1343   */\n  0x00\n    /* \"#utility.yul\":1339:1340   */\n  dup1\n    /* \"#utility.yul\":1332:1344   */\n  revert\n    /* \"#utility.yul\":1283:1346   */\ntag_40:\n    /* \"#utility.yul\":1230:1352   */\n  pop\n  jump\t// out\n    /* \"contracts/TestMarketplace.sol\":438:4489  contract TestMarketplace is Ownable, ReentrancyGuard, IERC721Receiver {... */\ntag_14:\n  dataSize(sub_0)\n  dup1\n  dataOffset(sub_0)\n  0x00\n  codecopy\n  0x00\n  return\nstop\n\nsub_0: assembly {\n        /* \"contracts/TestMarketplace.sol\":438:4489  contract TestMarketplace is Ownable, ReentrancyGuard, IERC721Receiver {... */\n      mstore(0x40, 0x80)\n      callvalue\n      dup1\n      iszero\n      tag_1\n      jumpi\n      0x00\n      dup1\n      revert\n    tag_1:\n      pop\n      jumpi(tag_2, lt(calldatasize, 0x04))\n      shr(0xe0, calldataload(0x00))\n      dup1\n      0x9979c009\n      gt\n      tag_16\n      jumpi\n      dup1\n      0xc78f19f9\n      gt\n      tag_17\n      jumpi\n      dup1\n      0xc78f19f9\n      eq\n      tag_12\n      jumpi\n      dup1\n      0xd56d229d\n      eq\n      tag_13\n      jumpi\n      dup1\n      0xe61a70c0\n      eq\n      tag_14\n      jumpi\n      dup1\n      0xf2fde38b\n      eq\n      tag_15\n      jumpi\n      jump(tag_2)\n    tag_17:\n      dup1\n      0x9979c009\n      eq\n      tag_9\n      jumpi\n      dup1\n      0x9b8bc127\n      eq\n      tag_10\n      jumpi\n      dup1\n      0x9da1b02a\n      eq\n      tag_11\n      jumpi\n      jump(tag_2)\n    tag_16:\n      dup1\n      0x150b7a02\n      eq\n      tag_3\n      jumpi\n      dup1\n      0x53dbceb1\n      eq\n      tag_4\n      jumpi\n      dup1\n      0x715018a6\n      eq\n      tag_5\n      jumpi\n      dup1\n      0x889e2cd5\n      eq\n      tag_6\n      jumpi\n      dup1\n      0x8da5cb5b\n      eq\n      tag_7\n      jumpi\n      dup1\n      0x91066da8\n      eq\n      tag_8\n      jumpi\n    tag_2:\n      0x00\n      dup1\n      revert\n        /* \"contracts/TestMarketplace.sol\":1462:1682  function onERC721Received(... */\n    tag_3:\n      tag_18\n      0x04\n      dup1\n      calldatasize\n      sub\n      dup2\n      add\n      swap1\n      tag_19\n      swap2\n      swap1\n      tag_20\n      jump\t// in\n    tag_19:\n      tag_21\n      jump\t// in\n    tag_18:\n      mload(0x40)\n      tag_22\n      swap2\n      swap1\n      tag_23\n      jump\t// in\n    tag_22:\n      mload(0x40)\n      dup1\n      swap2\n      sub\n      swap1\n      return\n        /* \"contracts/TestMarketplace.sol\":3743:3913  function getMarketItemById(uint256 marketItemId) public view returns (MarketItem memory) {... */\n    tag_4:\n      tag_24\n      0x04\n      dup1\n      calldatasize\n      sub\n      dup2\n      add\n      swap1\n      tag_25\n      swap2\n      swap1\n      tag_26\n      jump\t// in\n    tag_25:\n      tag_27\n      jump\t// in\n    tag_24:\n      mload(0x40)\n      tag_28\n      swap2\n      swap1\n      tag_29\n      jump\t// in\n    tag_28:\n      mload(0x40)\n      dup1\n      swap2\n      sub\n      swap1\n      return\n        /* \"@openzeppelin/contracts/access/Ownable.sol\":1668:1769  function renounceOwnership() public virtual onlyOwner {... */\n    tag_5:\n      tag_30\n      tag_31\n      jump\t// in\n    tag_30:\n      stop\n        /* \"contracts/TestMarketplace.sol\":695:730  address public acceptedTokenAddress */\n    tag_6:\n      tag_32\n      tag_33\n      jump\t// in\n    tag_32:\n      mload(0x40)\n      tag_34\n      swap2\n      swap1\n      tag_35\n      jump\t// in\n    tag_34:\n      mload(0x40)\n      dup1\n      swap2\n      sub\n      swap1\n      return\n        /* \"@openzeppelin/contracts/access/Ownable.sol\":1036:1121  function owner() public view virtual returns (address) {... */\n    tag_7:\n      tag_36\n      tag_37\n      jump\t// in\n    tag_36:\n      mload(0x40)\n      tag_38\n      swap2\n      swap1\n      tag_35\n      jump\t// in\n    tag_38:\n      mload(0x40)\n      dup1\n      swap2\n      sub\n      swap1\n      return\n        /* \"contracts/TestMarketplace.sol\":1686:2477  function addItemToMarket(... */\n    tag_8:\n      tag_39\n      0x04\n      dup1\n      calldatasize\n      sub\n      dup2\n      add\n      swap1\n      tag_40\n      swap2\n      swap1\n      tag_41\n      jump\t// in\n    tag_40:\n      tag_42\n      jump\t// in\n    tag_39:\n      stop\n        /* \"contracts/TestMarketplace.sol\":2935:3739  function buyItem(... */\n    tag_9:\n      tag_43\n      0x04\n      dup1\n      calldatasize\n      sub\n      dup2\n      add\n      swap1\n      tag_44\n      swap2\n      swap1\n      tag_41\n      jump\t// in\n    tag_44:\n      tag_45\n      jump\t// in\n    tag_43:\n      stop\n        /* \"contracts/TestMarketplace.sol\":3917:4487  function getUnsoldItems() public view returns (MarketItem[] memory) {... */\n    tag_10:\n      tag_46\n      tag_47\n      jump\t// in\n    tag_46:\n      mload(0x40)\n      tag_48\n      swap2\n      swap1\n      tag_49\n      jump\t// in\n    tag_48:\n      mload(0x40)\n      dup1\n      swap2\n      sub\n      swap1\n      return\n        /* \"contracts/TestMarketplace.sol\":2483:2931  function createSale(... */\n    tag_11:\n      tag_50\n      0x04\n      dup1\n      calldatasize\n      sub\n      dup2\n      add\n      swap1\n      tag_51\n      swap2\n      swap1\n      tag_26\n      jump\t// in\n    tag_51:\n      tag_52\n      jump\t// in\n    tag_50:\n      stop\n        /* \"contracts/TestMarketplace.sol\":734:773  uint256 public listingPrice = 0.1 ether */\n    tag_12:\n      tag_53\n      tag_54\n      jump\t// in\n    tag_53:\n      mload(0x40)\n      tag_55\n      swap2\n      swap1\n      tag_56\n      jump\t// in\n    tag_55:\n      mload(0x40)\n      dup1\n      swap2\n      sub\n      swap1\n      return\n        /* \"contracts/TestMarketplace.sol\":665:691  address public nftContract */\n    tag_13:\n      tag_57\n      tag_58\n      jump\t// in\n    tag_57:\n      mload(0x40)\n      tag_59\n      swap2\n      swap1\n      tag_35\n      jump\t// in\n    tag_59:\n      mload(0x40)\n      dup1\n      swap2\n      sub\n      swap1\n      return\n        /* \"contracts/TestMarketplace.sol\":957:1009  mapping(uint256 => MarketItem) public idToMarketItem */\n    tag_14:\n      tag_60\n      0x04\n      dup1\n      calldatasize\n      sub\n      dup2\n      add\n      swap1\n      tag_61\n      swap2\n      swap1\n      tag_26\n      jump\t// in\n    tag_61:\n      tag_62\n      jump\t// in\n    tag_60:\n      mload(0x40)\n      tag_63\n      swap9\n      swap8\n      swap7\n      swap6\n      swap5\n      swap4\n      swap3\n      swap2\n      swap1\n      tag_64\n      jump\t// in\n    tag_63:\n      mload(0x40)\n      dup1\n      swap2\n      sub\n      swap1\n      return\n        /* \"@openzeppelin/contracts/access/Ownable.sol\":1918:2116  function transferOwnership(address newOwner) public virtual onlyOwner {... */\n    tag_15:\n      tag_65\n      0x04\n      dup1\n      calldatasize\n      sub\n      dup2\n      add\n      swap1\n      tag_66\n      swap2\n      swap1\n      tag_67\n      jump\t// in\n    tag_66:\n      tag_68\n      jump\t// in\n    tag_65:\n      stop\n        /* \"contracts/TestMarketplace.sol\":1462:1682  function onERC721Received(... */\n    tag_21:\n        /* \"contracts/TestMarketplace.sol\":1623:1629  bytes4 */\n      0x00\n        /* \"contracts/TestMarketplace.sol\":1645:1675  this.onERC721Received.selector */\n      shl(0xe0, 0x150b7a02)\n        /* \"contracts/TestMarketplace.sol\":1638:1675  return this.onERC721Received.selector */\n      swap1\n      pop\n        /* \"contracts/TestMarketplace.sol\":1462:1682  function onERC721Received(... */\n      swap6\n      swap5\n      pop\n      pop\n      pop\n      pop\n      pop\n      jump\t// out\n        /* \"contracts/TestMarketplace.sol\":3743:3913  function getMarketItemById(uint256 marketItemId) public view returns (MarketItem memory) {... */\n    tag_27:\n        /* \"contracts/TestMarketplace.sol\":3813:3830  MarketItem memory */\n      tag_70\n      tag_71\n      jump\t// in\n    tag_70:\n        /* \"contracts/TestMarketplace.sol\":3838:3860  MarketItem memory item */\n      0x00\n        /* \"contracts/TestMarketplace.sol\":3863:3877  idToMarketItem */\n      0x08\n        /* \"contracts/TestMarketplace.sol\":3863:3891  idToMarketItem[marketItemId] */\n      0x00\n        /* \"contracts/TestMarketplace.sol\":3878:3890  marketItemId */\n      dup5\n        /* \"contracts/TestMarketplace.sol\":3863:3891  idToMarketItem[marketItemId] */\n      dup2\n      mstore\n      0x20\n      add\n      swap1\n      dup2\n      mstore\n      0x20\n      add\n      0x00\n      keccak256\n        /* \"contracts/TestMarketplace.sol\":3838:3891  MarketItem memory item = idToMarketItem[marketItemId] */\n      mload(0x40)\n      dup1\n      0x0100\n      add\n      0x40\n      mstore\n      swap1\n      dup2\n      0x00\n      dup3\n      add\n      sload\n      dup2\n      mstore\n      0x20\n      add\n      0x01\n      dup3\n      add\n      sload\n      dup2\n      mstore\n      0x20\n      add\n      0x02\n      dup3\n      add\n      0x00\n      swap1\n      sload\n      swap1\n      0x0100\n      exp\n      swap1\n      div\n      0xffffffffffffffffffffffffffffffffffffffff\n      and\n      0xffffffffffffffffffffffffffffffffffffffff\n      and\n      0xffffffffffffffffffffffffffffffffffffffff\n      and\n      dup2\n      mstore\n      0x20\n      add\n      0x03\n      dup3\n      add\n      0x00\n      swap1\n      sload\n      swap1\n      0x0100\n      exp\n      swap1\n      div\n      0xffffffffffffffffffffffffffffffffffffffff\n      and\n      0xffffffffffffffffffffffffffffffffffffffff\n      and\n      0xffffffffffffffffffffffffffffffffffffffff\n      and\n      dup2\n      mstore\n      0x20\n      add\n      0x04\n      dup3\n      add\n      sload\n      dup2\n      mstore\n      0x20\n      add\n      0x05\n      dup3\n      add\n      0x00\n      swap1\n      sload\n      swap1\n      0x0100\n      exp\n      swap1\n      div\n      0xff\n      and\n      iszero\n      iszero\n      iszero\n      iszero\n      dup2\n      mstore\n      0x20\n      add\n      0x05\n      dup3\n      add\n      0x01\n      swap1\n      sload\n      swap1\n      0x0100\n      exp\n      swap1\n      div\n      0xff\n      and\n      iszero\n      iszero\n      iszero\n      iszero\n      dup2\n      mstore\n      0x20\n      add\n      0x05\n      dup3\n      add\n      0x02\n      swap1\n      sload\n      swap1\n      0x0100\n      exp\n      swap1\n      div\n      0xff\n      and\n      iszero\n      iszero\n      iszero\n      iszero\n      dup2\n      mstore\n      pop\n      pop\n      swap1\n      pop\n        /* \"contracts/TestMarketplace.sol\":3904:3908  item */\n      dup1\n        /* \"contracts/TestMarketplace.sol\":3897:3908  return item */\n      swap2\n      pop\n      pop\n        /* \"contracts/TestMarketplace.sol\":3743:3913  function getMarketItemById(uint256 marketItemId) public view returns (MarketItem memory) {... */\n      swap2\n      swap1\n      pop\n      jump\t// out\n        /* \"@openzeppelin/contracts/access/Ownable.sol\":1668:1769  function renounceOwnership() public virtual onlyOwner {... */\n    tag_31:\n        /* \"@openzeppelin/contracts/access/Ownable.sol\":1259:1271  _msgSender() */\n      tag_74\n        /* \"@openzeppelin/contracts/access/Ownable.sol\":1259:1269  _msgSender */\n      tag_75\n        /* \"@openzeppelin/contracts/access/Ownable.sol\":1259:1271  _msgSender() */\n      jump\t// in\n    tag_74:\n        /* \"@openzeppelin/contracts/access/Ownable.sol\":1248:1271  owner() == _msgSender() */\n      0xffffffffffffffffffffffffffffffffffffffff\n      and\n        /* \"@openzeppelin/contracts/access/Ownable.sol\":1248:1255  owner() */\n      tag_76\n        /* \"@openzeppelin/contracts/access/Ownable.sol\":1248:1253  owner */\n      tag_37\n        /* \"@openzeppelin/contracts/access/Ownable.sol\":1248:1255  owner() */\n      jump\t// in\n    tag_76:\n        /* \"@openzeppelin/contracts/access/Ownable.sol\":1248:1271  owner() == _msgSender() */\n      0xffffffffffffffffffffffffffffffffffffffff\n      and\n      eq\n        /* \"@openzeppelin/contracts/access/Ownable.sol\":1240:1308  require(owner() == _msgSender(), \"Ownable: caller is not the owner\") */\n      tag_77\n      jumpi\n      mload(0x40)\n      0x08c379a000000000000000000000000000000000000000000000000000000000\n      dup2\n      mstore\n      0x04\n      add\n      tag_78\n      swap1\n      tag_79\n      jump\t// in\n    tag_78:\n      mload(0x40)\n      dup1\n      swap2\n      sub\n      swap1\n      revert\n    tag_77:\n        /* \"@openzeppelin/contracts/access/Ownable.sol\":1732:1762  _transferOwnership(address(0)) */\n      tag_81\n        /* \"@openzeppelin/contracts/access/Ownable.sol\":1759:1760  0 */\n      0x00\n        /* \"@openzeppelin/contracts/access/Ownable.sol\":1732:1750  _transferOwnership */\n      tag_82\n        /* \"@openzeppelin/contracts/access/Ownable.sol\":1732:1762  _transferOwnership(address(0)) */\n      jump\t// in\n    tag_81:\n        /* \"@openzeppelin/contracts/access/Ownable.sol\":1668:1769  function renounceOwnership() public virtual onlyOwner {... */\n      jump\t// out\n        /* \"contracts/TestMarketplace.sol\":695:730  address public acceptedTokenAddress */\n    tag_33:\n      0x06\n      0x00\n      swap1\n      sload\n      swap1\n      0x0100\n      exp\n      swap1\n      div\n      0xffffffffffffffffffffffffffffffffffffffff\n      and\n      dup2\n      jump\t// out\n        /* \"@openzeppelin/contracts/access/Ownable.sol\":1036:1121  function owner() public view virtual returns (address) {... */\n    tag_37:\n        /* \"@openzeppelin/contracts/access/Ownable.sol\":1082:1089  address */\n      0x00\n        /* \"@openzeppelin/contracts/access/Ownable.sol\":1108:1114  _owner */\n      dup1\n      0x00\n      swap1\n      sload\n      swap1\n      0x0100\n      exp\n      swap1\n      div\n      0xffffffffffffffffffffffffffffffffffffffff\n      and\n        /* \"@openzeppelin/contracts/access/Ownable.sol\":1101:1114  return _owner */\n      swap1\n      pop\n        /* \"@openzeppelin/contracts/access/Ownable.sol\":1036:1121  function owner() public view virtual returns (address) {... */\n      swap1\n      jump\t// out\n        /* \"contracts/TestMarketplace.sol\":1686:2477  function addItemToMarket(... */\n    tag_42:\n        /* \"@openzeppelin/contracts/security/ReentrancyGuard.sol\":1744:1745  2 */\n      0x02\n        /* \"@openzeppelin/contracts/security/ReentrancyGuard.sol\":2325:2332  _status */\n      sload(0x01)\n        /* \"@openzeppelin/contracts/security/ReentrancyGuard.sol\":2325:2344  _status != _ENTERED */\n      eq\n      iszero\n        /* \"@openzeppelin/contracts/security/ReentrancyGuard.sol\":2317:2380  require(_status != _ENTERED, \"ReentrancyGuard: reentrant call\") */\n      tag_85\n      jumpi\n      mload(0x40)\n      0x08c379a000000000000000000000000000000000000000000000000000000000\n      dup2\n      mstore\n      0x04\n      add\n      tag_86\n      swap1\n      tag_87\n      jump\t// in\n    tag_86:\n      mload(0x40)\n      dup1\n      swap2\n      sub\n      swap1\n      revert\n    tag_85:\n        /* \"@openzeppelin/contracts/security/ReentrancyGuard.sol\":1744:1745  2 */\n      0x02\n        /* \"@openzeppelin/contracts/security/ReentrancyGuard.sol\":2455:2462  _status */\n      0x01\n        /* \"@openzeppelin/contracts/security/ReentrancyGuard.sol\":2455:2473  _status = _ENTERED */\n      dup2\n      swap1\n      sstore\n      pop\n        /* \"contracts/TestMarketplace.sol\":1797:1798  0 */\n      0x00\n        /* \"contracts/TestMarketplace.sol\":1789:1794  price */\n      dup2\n        /* \"contracts/TestMarketplace.sol\":1789:1798  price > 0 */\n      gt\n        /* \"contracts/TestMarketplace.sol\":1781:1831  require(price > 0, \"Price must be at least 1 wei\") */\n      tag_89\n      jumpi\n      mload(0x40)\n      0x08c379a000000000000000000000000000000000000000000000000000000000\n      dup2\n      mstore\n      0x04\n      add\n      tag_90\n      swap1\n      tag_91\n      jump\t// in\n    tag_90:\n      mload(0x40)\n      dup1\n      swap2\n      sub\n      swap1\n      revert\n    tag_89:\n        /* \"contracts/TestMarketplace.sol\":1854:1866  listingPrice */\n      sload(0x07)\n        /* \"contracts/TestMarketplace.sol\":1845:1850  price */\n      dup2\n        /* \"contracts/TestMarketplace.sol\":1845:1866  price >= listingPrice */\n      lt\n      iszero\n        /* \"contracts/TestMarketplace.sol\":1837:1917  require(price >= listingPrice, \"Price should be at least same as listing price\") */\n      tag_92\n      jumpi\n      mload(0x40)\n      0x08c379a000000000000000000000000000000000000000000000000000000000\n      dup2\n      mstore\n      0x04\n      add\n      tag_93\n      swap1\n      tag_94\n      jump\t// in\n    tag_93:\n      mload(0x40)\n      dup1\n      swap2\n      sub\n      swap1\n      revert\n    tag_92:\n        /* \"contracts/TestMarketplace.sol\":1924:1944  _itemIds.increment() */\n      tag_95\n        /* \"contracts/TestMarketplace.sol\":1924:1932  _itemIds */\n      0x02\n        /* \"contracts/TestMarketplace.sol\":1924:1942  _itemIds.increment */\n      tag_96\n        /* \"contracts/TestMarketplace.sol\":1924:1944  _itemIds.increment() */\n      jump\t// in\n    tag_95:\n        /* \"contracts/TestMarketplace.sol\":1950:1964  uint256 itemId */\n      0x00\n        /* \"contracts/TestMarketplace.sol\":1967:1985  _itemIds.current() */\n      tag_97\n        /* \"contracts/TestMarketplace.sol\":1967:1975  _itemIds */\n      0x02\n        /* \"contracts/TestMarketplace.sol\":1967:1983  _itemIds.current */\n      tag_98\n        /* \"contracts/TestMarketplace.sol\":1967:1985  _itemIds.current() */\n      jump\t// in\n    tag_97:\n        /* \"contracts/TestMarketplace.sol\":1950:1985  uint256 itemId = _itemIds.current() */\n      swap1\n      pop\n        /* \"contracts/TestMarketplace.sol\":2020:2152  MarketItem(... */\n      mload(0x40)\n      dup1\n      0x0100\n      add\n      0x40\n      mstore\n      dup1\n        /* \"contracts/TestMarketplace.sol\":2038:2044  itemId */\n      dup3\n        /* \"contracts/TestMarketplace.sol\":2020:2152  MarketItem(... */\n      dup2\n      mstore\n      0x20\n      add\n        /* \"contracts/TestMarketplace.sol\":2052:2059  tokenId */\n      dup5\n        /* \"contracts/TestMarketplace.sol\":2020:2152  MarketItem(... */\n      dup2\n      mstore\n      0x20\n      add\n        /* \"contracts/TestMarketplace.sol\":2067:2077  msg.sender */\n      caller\n        /* \"contracts/TestMarketplace.sol\":2020:2152  MarketItem(... */\n      0xffffffffffffffffffffffffffffffffffffffff\n      and\n      dup2\n      mstore\n      0x20\n      add\n        /* \"contracts/TestMarketplace.sol\":2093:2094  0 */\n      0x00\n        /* \"contracts/TestMarketplace.sol\":2020:2152  MarketItem(... */\n      0xffffffffffffffffffffffffffffffffffffffff\n      and\n      dup2\n      mstore\n      0x20\n      add\n        /* \"contracts/TestMarketplace.sol\":2103:2108  price */\n      dup4\n        /* \"contracts/TestMarketplace.sol\":2020:2152  MarketItem(... */\n      dup2\n      mstore\n      0x20\n      add\n        /* \"contracts/TestMarketplace.sol\":2116:2121  false */\n      0x00\n        /* \"contracts/TestMarketplace.sol\":2020:2152  MarketItem(... */\n      iszero\n      iszero\n      dup2\n      mstore\n      0x20\n      add\n        /* \"contracts/TestMarketplace.sol\":2129:2134  false */\n      0x00\n        /* \"contracts/TestMarketplace.sol\":2020:2152  MarketItem(... */\n      iszero\n      iszero\n      dup2\n      mstore\n      0x20\n      add\n        /* \"contracts/TestMarketplace.sol\":2142:2146  true */\n      0x01\n        /* \"contracts/TestMarketplace.sol\":2020:2152  MarketItem(... */\n      iszero\n      iszero\n      dup2\n      mstore\n      pop\n        /* \"contracts/TestMarketplace.sol\":1994:2008  idToMarketItem */\n      0x08\n        /* \"contracts/TestMarketplace.sol\":1994:2016  idToMarketItem[itemId] */\n      0x00\n        /* \"contracts/TestMarketplace.sol\":2009:2015  itemId */\n      dup4\n        /* \"contracts/TestMarketplace.sol\":1994:2016  idToMarketItem[itemId] */\n      dup2\n      mstore\n      0x20\n      add\n      swap1\n      dup2\n      mstore\n      0x20\n      add\n      0x00\n      keccak256\n        /* \"contracts/TestMarketplace.sol\":1994:2152  idToMarketItem[itemId] =  MarketItem(... */\n      0x00\n      dup3\n      add\n      mload\n      dup2\n      0x00\n      add\n      sstore\n      0x20\n      dup3\n      add\n      mload\n      dup2\n      0x01\n      add\n      sstore\n      0x40\n      dup3\n      add\n      mload\n      dup2\n      0x02\n      add\n      exp(0x0100, 0x00)\n      dup2\n      sload\n      dup2\n      0xffffffffffffffffffffffffffffffffffffffff\n      mul\n      not\n      and\n      swap1\n      dup4\n      0xffffffffffffffffffffffffffffffffffffffff\n      and\n      mul\n      or\n      swap1\n      sstore\n      pop\n      0x60\n      dup3\n      add\n      mload\n      dup2\n      0x03\n      add\n      exp(0x0100, 0x00)\n      dup2\n      sload\n      dup2\n      0xffffffffffffffffffffffffffffffffffffffff\n      mul\n      not\n      and\n      swap1\n      dup4\n      0xffffffffffffffffffffffffffffffffffffffff\n      and\n      mul\n      or\n      swap1\n      sstore\n      pop\n      0x80\n      dup3\n      add\n      mload\n      dup2\n      0x04\n      add\n      sstore\n      0xa0\n      dup3\n      add\n      mload\n      dup2\n      0x05\n      add\n      exp(0x0100, 0x00)\n      dup2\n      sload\n      dup2\n      0xff\n      mul\n      not\n      and\n      swap1\n      dup4\n      iszero\n      iszero\n      mul\n      or\n      swap1\n      sstore\n      pop\n      0xc0\n      dup3\n      add\n      mload\n      dup2\n      0x05\n      add\n      exp(0x0100, 0x01)\n      dup2\n      sload\n      dup2\n      0xff\n      mul\n      not\n      and\n      swap1\n      dup4\n      iszero\n      iszero\n      mul\n      or\n      swap1\n      sstore\n      pop\n      0xe0\n      dup3\n      add\n      mload\n      dup2\n      0x05\n      add\n      exp(0x0100, 0x02)\n      dup2\n      sload\n      dup2\n      0xff\n      mul\n      not\n      and\n      swap1\n      dup4\n      iszero\n      iszero\n      mul\n      or\n      swap1\n      sstore\n      pop\n      swap1\n      pop\n      pop\n        /* \"contracts/TestMarketplace.sol\":2166:2186  acceptedTokenAddress */\n      0x06\n      0x00\n      swap1\n      sload\n      swap1\n      0x0100\n      exp\n      swap1\n      div\n      0xffffffffffffffffffffffffffffffffffffffff\n      and\n        /* \"contracts/TestMarketplace.sol\":2159:2200  IERC20(acceptedTokenAddress).transferFrom */\n      0xffffffffffffffffffffffffffffffffffffffff\n      and\n      0x23b872dd\n        /* \"contracts/TestMarketplace.sol\":2201:2211  msg.sender */\n      caller\n        /* \"contracts/TestMarketplace.sol\":2221:2225  this */\n      address\n        /* \"contracts/TestMarketplace.sol\":2228:2240  listingPrice */\n      sload(0x07)\n        /* \"contracts/TestMarketplace.sol\":2159:2241  IERC20(acceptedTokenAddress).transferFrom(msg.sender, address(this), listingPrice) */\n      mload(0x40)\n      dup5\n      0xffffffff\n      and\n      0xe0\n      shl\n      dup2\n      mstore\n      0x04\n      add\n      tag_99\n      swap4\n      swap3\n      swap2\n      swap1\n      tag_100\n      jump\t// in\n    tag_99:\n      0x20\n      mload(0x40)\n      dup1\n      dup4\n      sub\n      dup2\n      0x00\n      dup8\n      dup1\n      extcodesize\n      iszero\n      dup1\n      iszero\n      tag_101\n      jumpi\n      0x00\n      dup1\n      revert\n    tag_101:\n      pop\n      gas\n      call\n      iszero\n      dup1\n      iszero\n      tag_103\n      jumpi\n      returndatasize\n      0x00\n      dup1\n      returndatacopy\n      revert(0x00, returndatasize)\n    tag_103:\n      pop\n      pop\n      pop\n      pop\n      mload(0x40)\n      returndatasize\n      not(0x1f)\n      0x1f\n      dup3\n      add\n      and\n      dup3\n      add\n      dup1\n      0x40\n      mstore\n      pop\n      dup2\n      add\n      swap1\n      tag_104\n      swap2\n      swap1\n      tag_105\n      jump\t// in\n    tag_104:\n      pop\n        /* \"contracts/TestMarketplace.sol\":2255:2266  nftContract */\n      0x05\n      0x00\n      swap1\n      sload\n      swap1\n      0x0100\n      exp\n      swap1\n      div\n      0xffffffffffffffffffffffffffffffffffffffff\n      and\n        /* \"contracts/TestMarketplace.sol\":2247:2284  IERC721(nftContract).safeTransferFrom */\n      0xffffffffffffffffffffffffffffffffffffffff\n      and\n      0x42842e0e\n        /* \"contracts/TestMarketplace.sol\":2285:2295  msg.sender */\n      caller\n        /* \"contracts/TestMarketplace.sol\":2305:2309  this */\n      address\n        /* \"contracts/TestMarketplace.sol\":2312:2319  tokenId */\n      dup7\n        /* \"contracts/TestMarketplace.sol\":2247:2320  IERC721(nftContract).safeTransferFrom(msg.sender, address(this), tokenId) */\n      mload(0x40)\n      dup5\n      0xffffffff\n      and\n      0xe0\n      shl\n      dup2\n      mstore\n      0x04\n      add\n      tag_106\n      swap4\n      swap3\n      swap2\n      swap1\n      tag_100\n      jump\t// in\n    tag_106:\n      0x00\n      mload(0x40)\n      dup1\n      dup4\n      sub\n      dup2\n      0x00\n      dup8\n      dup1\n      extcodesize\n      iszero\n      dup1\n      iszero\n      tag_107\n      jumpi\n      0x00\n      dup1\n      revert\n    tag_107:\n      pop\n      gas\n      call\n      iszero\n      dup1\n      iszero\n      tag_109\n      jumpi\n      returndatasize\n      0x00\n      dup1\n      returndatacopy\n      revert(0x00, returndatasize)\n    tag_109:\n      pop\n      pop\n      pop\n      pop\n        /* \"contracts/TestMarketplace.sol\":2347:2359  listingPrice */\n      sload(0x07)\n        /* \"contracts/TestMarketplace.sol\":2327:2343  _amountCollected */\n      0x04\n      0x00\n        /* \"contracts/TestMarketplace.sol\":2327:2359  _amountCollected += listingPrice */\n      dup3\n      dup3\n      sload\n      tag_110\n      swap2\n      swap1\n      tag_111\n      jump\t// in\n    tag_110:\n      swap3\n      pop\n      pop\n      dup2\n      swap1\n      sstore\n      pop\n        /* \"contracts/TestMarketplace.sol\":2410:2417  tokenId */\n      dup3\n        /* \"contracts/TestMarketplace.sol\":2396:2402  itemId */\n      dup2\n        /* \"contracts/TestMarketplace.sol\":2371:2472  MarketItemCreated(... */\n      0x38690a554ffbc44eb6a75016e47d517d0db8e6c37494adc68d6d0b2c66f0ab21\n        /* \"contracts/TestMarketplace.sol\":2425:2435  msg.sender */\n      caller\n        /* \"contracts/TestMarketplace.sol\":2451:2452  0 */\n      0x00\n        /* \"contracts/TestMarketplace.sol\":2461:2466  price */\n      dup7\n        /* \"contracts/TestMarketplace.sol\":2371:2472  MarketItemCreated(... */\n      mload(0x40)\n      tag_112\n      swap4\n      swap3\n      swap2\n      swap1\n      tag_100\n      jump\t// in\n    tag_112:\n      mload(0x40)\n      dup1\n      swap2\n      sub\n      swap1\n      log3\n        /* \"contracts/TestMarketplace.sol\":1775:2477  {... */\n      pop\n        /* \"@openzeppelin/contracts/security/ReentrancyGuard.sol\":1701:1702  1 */\n      0x01\n        /* \"@openzeppelin/contracts/security/ReentrancyGuard.sol\":2628:2635  _status */\n      dup1\n        /* \"@openzeppelin/contracts/security/ReentrancyGuard.sol\":2628:2650  _status = _NOT_ENTERED */\n      dup2\n      swap1\n      sstore\n      pop\n        /* \"contracts/TestMarketplace.sol\":1686:2477  function addItemToMarket(... */\n      pop\n      pop\n      jump\t// out\n        /* \"contracts/TestMarketplace.sol\":2935:3739  function buyItem(... */\n    tag_45:\n        /* \"@openzeppelin/contracts/security/ReentrancyGuard.sol\":1744:1745  2 */\n      0x02\n        /* \"@openzeppelin/contracts/security/ReentrancyGuard.sol\":2325:2332  _status */\n      sload(0x01)\n        /* \"@openzeppelin/contracts/security/ReentrancyGuard.sol\":2325:2344  _status != _ENTERED */\n      eq\n      iszero\n        /* \"@openzeppelin/contracts/security/ReentrancyGuard.sol\":2317:2380  require(_status != _ENTERED, \"ReentrancyGuard: reentrant call\") */\n      tag_114\n      jumpi\n      mload(0x40)\n      0x08c379a000000000000000000000000000000000000000000000000000000000\n      dup2\n      mstore\n      0x04\n      add\n      tag_115\n      swap1\n      tag_87\n      jump\t// in\n    tag_115:\n      mload(0x40)\n      dup1\n      swap2\n      sub\n      swap1\n      revert\n    tag_114:\n        /* \"@openzeppelin/contracts/security/ReentrancyGuard.sol\":1744:1745  2 */\n      0x02\n        /* \"@openzeppelin/contracts/security/ReentrancyGuard.sol\":2455:2462  _status */\n      0x01\n        /* \"@openzeppelin/contracts/security/ReentrancyGuard.sol\":2455:2473  _status = _ENTERED */\n      dup2\n      swap1\n      sstore\n      pop\n        /* \"contracts/TestMarketplace.sol\":3027:3037  uint price */\n      0x00\n        /* \"contracts/TestMarketplace.sol\":3040:3054  idToMarketItem */\n      0x08\n        /* \"contracts/TestMarketplace.sol\":3040:3062  idToMarketItem[itemId] */\n      0x00\n        /* \"contracts/TestMarketplace.sol\":3055:3061  itemId */\n      dup5\n        /* \"contracts/TestMarketplace.sol\":3040:3062  idToMarketItem[itemId] */\n      dup2\n      mstore\n      0x20\n      add\n      swap1\n      dup2\n      mstore\n      0x20\n      add\n      0x00\n      keccak256\n        /* \"contracts/TestMarketplace.sol\":3040:3068  idToMarketItem[itemId].price */\n      0x04\n      add\n      sload\n        /* \"contracts/TestMarketplace.sol\":3027:3068  uint price = idToMarketItem[itemId].price */\n      swap1\n      pop\n        /* \"contracts/TestMarketplace.sol\":3074:3086  uint tokenId */\n      0x00\n        /* \"contracts/TestMarketplace.sol\":3089:3103  idToMarketItem */\n      0x08\n        /* \"contracts/TestMarketplace.sol\":3089:3111  idToMarketItem[itemId] */\n      0x00\n        /* \"contracts/TestMarketplace.sol\":3104:3110  itemId */\n      dup6\n        /* \"contracts/TestMarketplace.sol\":3089:3111  idToMarketItem[itemId] */\n      dup2\n      mstore\n      0x20\n      add\n      swap1\n      dup2\n      mstore\n      0x20\n      add\n      0x00\n      keccak256\n        /* \"contracts/TestMarketplace.sol\":3089:3119  idToMarketItem[itemId].tokenId */\n      0x01\n      add\n      sload\n        /* \"contracts/TestMarketplace.sol\":3074:3119  uint tokenId = idToMarketItem[itemId].tokenId */\n      swap1\n      pop\n        /* \"contracts/TestMarketplace.sol\":3125:3141  bool isUpForSale */\n      0x00\n        /* \"contracts/TestMarketplace.sol\":3144:3158  idToMarketItem */\n      0x08\n        /* \"contracts/TestMarketplace.sol\":3144:3166  idToMarketItem[itemId] */\n      0x00\n        /* \"contracts/TestMarketplace.sol\":3159:3165  itemId */\n      dup7\n        /* \"contracts/TestMarketplace.sol\":3144:3166  idToMarketItem[itemId] */\n      dup2\n      mstore\n      0x20\n      add\n      swap1\n      dup2\n      mstore\n      0x20\n      add\n      0x00\n      keccak256\n        /* \"contracts/TestMarketplace.sol\":3144:3178  idToMarketItem[itemId].isUpForSale */\n      0x05\n      add\n      0x01\n      swap1\n      sload\n      swap1\n      0x0100\n      exp\n      swap1\n      div\n      0xff\n      and\n        /* \"contracts/TestMarketplace.sol\":3125:3178  bool isUpForSale = idToMarketItem[itemId].isUpForSale */\n      swap1\n      pop\n        /* \"contracts/TestMarketplace.sol\":3205:3210  price */\n      dup3\n        /* \"contracts/TestMarketplace.sol\":3192:3201  itemPrice */\n      dup5\n        /* \"contracts/TestMarketplace.sol\":3192:3210  itemPrice >= price */\n      lt\n      iszero\n        /* \"contracts/TestMarketplace.sol\":3184:3242  require(itemPrice >= price, \"Asking Price not satisfied!\") */\n      tag_117\n      jumpi\n      mload(0x40)\n      0x08c379a000000000000000000000000000000000000000000000000000000000\n      dup2\n      mstore\n      0x04\n      add\n      tag_118\n      swap1\n      tag_119\n      jump\t// in\n    tag_118:\n      mload(0x40)\n      dup1\n      swap2\n      sub\n      swap1\n      revert\n    tag_117:\n        /* \"contracts/TestMarketplace.sol\":3271:3275  true */\n      0x01\n        /* \"contracts/TestMarketplace.sol\":3256:3275  isUpForSale == true */\n      iszero\n      iszero\n        /* \"contracts/TestMarketplace.sol\":3256:3267  isUpForSale */\n      dup2\n        /* \"contracts/TestMarketplace.sol\":3256:3275  isUpForSale == true */\n      iszero\n      iszero\n      eq\n        /* \"contracts/TestMarketplace.sol\":3248:3297  require(isUpForSale == true, \"NFT not for sale.\") */\n      tag_120\n      jumpi\n      mload(0x40)\n      0x08c379a000000000000000000000000000000000000000000000000000000000\n      dup2\n      mstore\n      0x04\n      add\n      tag_121\n      swap1\n      tag_122\n      jump\t// in\n    tag_121:\n      mload(0x40)\n      dup1\n      swap2\n      sub\n      swap1\n      revert\n    tag_120:\n        /* \"contracts/TestMarketplace.sol\":3304:3322  address prevSeller */\n      0x00\n        /* \"contracts/TestMarketplace.sol\":3325:3339  idToMarketItem */\n      0x08\n        /* \"contracts/TestMarketplace.sol\":3325:3347  idToMarketItem[itemId] */\n      0x00\n        /* \"contracts/TestMarketplace.sol\":3340:3346  itemId */\n      dup8\n        /* \"contracts/TestMarketplace.sol\":3325:3347  idToMarketItem[itemId] */\n      dup2\n      mstore\n      0x20\n      add\n      swap1\n      dup2\n      mstore\n      0x20\n      add\n      0x00\n      keccak256\n        /* \"contracts/TestMarketplace.sol\":3325:3354  idToMarketItem[itemId].seller */\n      0x02\n      add\n      0x00\n      swap1\n      sload\n      swap1\n      0x0100\n      exp\n      swap1\n      div\n      0xffffffffffffffffffffffffffffffffffffffff\n      and\n        /* \"contracts/TestMarketplace.sol\":3304:3354  address prevSeller = idToMarketItem[itemId].seller */\n      swap1\n      pop\n        /* \"contracts/TestMarketplace.sol\":3392:3402  msg.sender */\n      caller\n        /* \"contracts/TestMarketplace.sol\":3361:3375  idToMarketItem */\n      0x08\n        /* \"contracts/TestMarketplace.sol\":3361:3383  idToMarketItem[itemId] */\n      0x00\n        /* \"contracts/TestMarketplace.sol\":3376:3382  itemId */\n      dup9\n        /* \"contracts/TestMarketplace.sol\":3361:3383  idToMarketItem[itemId] */\n      dup2\n      mstore\n      0x20\n      add\n      swap1\n      dup2\n      mstore\n      0x20\n      add\n      0x00\n      keccak256\n        /* \"contracts/TestMarketplace.sol\":3361:3389  idToMarketItem[itemId].owner */\n      0x03\n      add\n      0x00\n        /* \"contracts/TestMarketplace.sol\":3361:3402  idToMarketItem[itemId].owner = msg.sender */\n      0x0100\n      exp\n      dup2\n      sload\n      dup2\n      0xffffffffffffffffffffffffffffffffffffffff\n      mul\n      not\n      and\n      swap1\n      dup4\n      0xffffffffffffffffffffffffffffffffffffffff\n      and\n      mul\n      or\n      swap1\n      sstore\n      pop\n        /* \"contracts/TestMarketplace.sol\":3440:3450  msg.sender */\n      caller\n        /* \"contracts/TestMarketplace.sol\":3408:3422  idToMarketItem */\n      0x08\n        /* \"contracts/TestMarketplace.sol\":3408:3430  idToMarketItem[itemId] */\n      0x00\n        /* \"contracts/TestMarketplace.sol\":3423:3429  itemId */\n      dup9\n        /* \"contracts/TestMarketplace.sol\":3408:3430  idToMarketItem[itemId] */\n      dup2\n      mstore\n      0x20\n      add\n      swap1\n      dup2\n      mstore\n      0x20\n      add\n      0x00\n      keccak256\n        /* \"contracts/TestMarketplace.sol\":3408:3437  idToMarketItem[itemId].seller */\n      0x02\n      add\n      0x00\n        /* \"contracts/TestMarketplace.sol\":3408:3450  idToMarketItem[itemId].seller = msg.sender */\n      0x0100\n      exp\n      dup2\n      sload\n      dup2\n      0xffffffffffffffffffffffffffffffffffffffff\n      mul\n      not\n      and\n      swap1\n      dup4\n      0xffffffffffffffffffffffffffffffffffffffff\n      and\n      mul\n      or\n      swap1\n      sstore\n      pop\n        /* \"contracts/TestMarketplace.sol\":3488:3492  true */\n      0x01\n        /* \"contracts/TestMarketplace.sol\":3456:3470  idToMarketItem */\n      0x08\n        /* \"contracts/TestMarketplace.sol\":3456:3478  idToMarketItem[itemId] */\n      0x00\n        /* \"contracts/TestMarketplace.sol\":3471:3477  itemId */\n      dup9\n        /* \"contracts/TestMarketplace.sol\":3456:3478  idToMarketItem[itemId] */\n      dup2\n      mstore\n      0x20\n      add\n      swap1\n      dup2\n      mstore\n      0x20\n      add\n      0x00\n      keccak256\n        /* \"contracts/TestMarketplace.sol\":3456:3485  idToMarketItem[itemId].isSold */\n      0x05\n      add\n      0x00\n        /* \"contracts/TestMarketplace.sol\":3456:3492  idToMarketItem[itemId].isSold = true */\n      0x0100\n      exp\n      dup2\n      sload\n      dup2\n      0xff\n      mul\n      not\n      and\n      swap1\n      dup4\n      iszero\n      iszero\n      mul\n      or\n      swap1\n      sstore\n      pop\n        /* \"contracts/TestMarketplace.sol\":3535:3540  false */\n      0x00\n        /* \"contracts/TestMarketplace.sol\":3498:3512  idToMarketItem */\n      0x08\n        /* \"contracts/TestMarketplace.sol\":3498:3520  idToMarketItem[itemId] */\n      0x00\n        /* \"contracts/TestMarketplace.sol\":3513:3519  itemId */\n      dup9\n        /* \"contracts/TestMarketplace.sol\":3498:3520  idToMarketItem[itemId] */\n      dup2\n      mstore\n      0x20\n      add\n      swap1\n      dup2\n      mstore\n      0x20\n      add\n      0x00\n      keccak256\n        /* \"contracts/TestMarketplace.sol\":3498:3532  idToMarketItem[itemId].isUpForSale */\n      0x05\n      add\n      0x01\n        /* \"contracts/TestMarketplace.sol\":3498:3540  idToMarketItem[itemId].isUpForSale = false */\n      0x0100\n      exp\n      dup2\n      sload\n      dup2\n      0xff\n      mul\n      not\n      and\n      swap1\n      dup4\n      iszero\n      iszero\n      mul\n      or\n      swap1\n      sstore\n      pop\n        /* \"contracts/TestMarketplace.sol\":3555:3566  nftContract */\n      0x05\n      0x00\n      swap1\n      sload\n      swap1\n      0x0100\n      exp\n      swap1\n      div\n      0xffffffffffffffffffffffffffffffffffffffff\n      and\n        /* \"contracts/TestMarketplace.sol\":3547:3580  IERC721(nftContract).transferFrom */\n      0xffffffffffffffffffffffffffffffffffffffff\n      and\n      0x23b872dd\n        /* \"contracts/TestMarketplace.sol\":3581:3591  prevSeller */\n      dup3\n        /* \"contracts/TestMarketplace.sol\":3593:3603  msg.sender */\n      caller\n        /* \"contracts/TestMarketplace.sol\":3605:3612  tokenId */\n      dup7\n        /* \"contracts/TestMarketplace.sol\":3547:3613  IERC721(nftContract).transferFrom(prevSeller, msg.sender, tokenId) */\n      mload(0x40)\n      dup5\n      0xffffffff\n      and\n      0xe0\n      shl\n      dup2\n      mstore\n      0x04\n      add\n      tag_123\n      swap4\n      swap3\n      swap2\n      swap1\n      tag_100\n      jump\t// in\n    tag_123:\n      0x00\n      mload(0x40)\n      dup1\n      dup4\n      sub\n      dup2\n      0x00\n      dup8\n      dup1\n      extcodesize\n      iszero\n      dup1\n      iszero\n      tag_124\n      jumpi\n      0x00\n      dup1\n      revert\n    tag_124:\n      pop\n      gas\n      call\n      iszero\n      dup1\n      iszero\n      tag_126\n      jumpi\n      returndatasize\n      0x00\n      dup1\n      returndatacopy\n      revert(0x00, returndatasize)\n    tag_126:\n      pop\n      pop\n      pop\n      pop\n        /* \"contracts/TestMarketplace.sol\":3631:3651  acceptedTokenAddress */\n      0x06\n      0x00\n      swap1\n      sload\n      swap1\n      0x0100\n      exp\n      swap1\n      div\n      0xffffffffffffffffffffffffffffffffffffffff\n      and\n        /* \"contracts/TestMarketplace.sol\":3624:3665  IERC20(acceptedTokenAddress).transferFrom */\n      0xffffffffffffffffffffffffffffffffffffffff\n      and\n      0x23b872dd\n        /* \"contracts/TestMarketplace.sol\":3666:3676  msg.sender */\n      caller\n        /* \"contracts/TestMarketplace.sol\":3678:3688  prevSeller */\n      dup4\n        /* \"contracts/TestMarketplace.sol\":3690:3699  itemPrice */\n      dup9\n        /* \"contracts/TestMarketplace.sol\":3624:3700  IERC20(acceptedTokenAddress).transferFrom(msg.sender, prevSeller, itemPrice) */\n      mload(0x40)\n      dup5\n      0xffffffff\n      and\n      0xe0\n      shl\n      dup2\n      mstore\n      0x04\n      add\n      tag_127\n      swap4\n      swap3\n      swap2\n      swap1\n      tag_100\n      jump\t// in\n    tag_127:\n      0x20\n      mload(0x40)\n      dup1\n      dup4\n      sub\n      dup2\n      0x00\n      dup8\n      dup1\n      extcodesize\n      iszero\n      dup1\n      iszero\n      tag_128\n      jumpi\n      0x00\n      dup1\n      revert\n    tag_128:\n      pop\n      gas\n      call\n      iszero\n      dup1\n      iszero\n      tag_130\n      jumpi\n      returndatasize\n      0x00\n      dup1\n      returndatacopy\n      revert(0x00, returndatasize)\n    tag_130:\n      pop\n      pop\n      pop\n      pop\n      mload(0x40)\n      returndatasize\n      not(0x1f)\n      0x1f\n      dup3\n      add\n      and\n      dup3\n      add\n      dup1\n      0x40\n      mstore\n      pop\n      dup2\n      add\n      swap1\n      tag_131\n      swap2\n      swap1\n      tag_105\n      jump\t// in\n    tag_131:\n      pop\n        /* \"contracts/TestMarketplace.sol\":3711:3733  _itemsSold.increment() */\n      tag_132\n        /* \"contracts/TestMarketplace.sol\":3711:3721  _itemsSold */\n      0x03\n        /* \"contracts/TestMarketplace.sol\":3711:3731  _itemsSold.increment */\n      tag_96\n        /* \"contracts/TestMarketplace.sol\":3711:3733  _itemsSold.increment() */\n      jump\t// in\n    tag_132:\n        /* \"contracts/TestMarketplace.sol\":3021:3739  {... */\n      pop\n      pop\n      pop\n      pop\n        /* \"@openzeppelin/contracts/security/ReentrancyGuard.sol\":1701:1702  1 */\n      0x01\n        /* \"@openzeppelin/contracts/security/ReentrancyGuard.sol\":2628:2635  _status */\n      dup1\n        /* \"@openzeppelin/contracts/security/ReentrancyGuard.sol\":2628:2650  _status = _NOT_ENTERED */\n      dup2\n      swap1\n      sstore\n      pop\n        /* \"contracts/TestMarketplace.sol\":2935:3739  function buyItem(... */\n      pop\n      pop\n      jump\t// out\n        /* \"contracts/TestMarketplace.sol\":3917:4487  function getUnsoldItems() public view returns (MarketItem[] memory) {... */\n    tag_47:\n        /* \"contracts/TestMarketplace.sol\":3964:3983  MarketItem[] memory */\n      0x60\n        /* \"contracts/TestMarketplace.sol\":3991:4005  uint itemCount */\n      0x00\n        /* \"contracts/TestMarketplace.sol\":4008:4026  _itemIds.current() */\n      tag_134\n        /* \"contracts/TestMarketplace.sol\":4008:4016  _itemIds */\n      0x02\n        /* \"contracts/TestMarketplace.sol\":4008:4024  _itemIds.current */\n      tag_98\n        /* \"contracts/TestMarketplace.sol\":4008:4026  _itemIds.current() */\n      jump\t// in\n    tag_134:\n        /* \"contracts/TestMarketplace.sol\":3991:4026  uint itemCount = _itemIds.current() */\n      swap1\n      pop\n        /* \"contracts/TestMarketplace.sol\":4032:4052  uint unsoldItemCount */\n      0x00\n        /* \"contracts/TestMarketplace.sol\":4076:4096  _itemsSold.current() */\n      tag_135\n        /* \"contracts/TestMarketplace.sol\":4076:4086  _itemsSold */\n      0x03\n        /* \"contracts/TestMarketplace.sol\":4076:4094  _itemsSold.current */\n      tag_98\n        /* \"contracts/TestMarketplace.sol\":4076:4096  _itemsSold.current() */\n      jump\t// in\n    tag_135:\n        /* \"contracts/TestMarketplace.sol\":4055:4073  _itemIds.current() */\n      tag_136\n        /* \"contracts/TestMarketplace.sol\":4055:4063  _itemIds */\n      0x02\n        /* \"contracts/TestMarketplace.sol\":4055:4071  _itemIds.current */\n      tag_98\n        /* \"contracts/TestMarketplace.sol\":4055:4073  _itemIds.current() */\n      jump\t// in\n    tag_136:\n        /* \"contracts/TestMarketplace.sol\":4055:4096  _itemIds.current() - _itemsSold.current() */\n      tag_137\n      swap2\n      swap1\n      tag_138\n      jump\t// in\n    tag_137:\n        /* \"contracts/TestMarketplace.sol\":4032:4096  uint unsoldItemCount = _itemIds.current() - _itemsSold.current() */\n      swap1\n      pop\n        /* \"contracts/TestMarketplace.sol\":4102:4119  uint currentIndex */\n      0x00\n        /* \"contracts/TestMarketplace.sol\":4130:4155  MarketItem[] memory items */\n      dup1\n        /* \"contracts/TestMarketplace.sol\":4175:4190  unsoldItemCount */\n      dup3\n        /* \"contracts/TestMarketplace.sol\":4158:4191  new MarketItem[](unsoldItemCount) */\n      0xffffffffffffffff\n      dup2\n      gt\n      iszero\n      tag_139\n      jumpi\n      tag_140\n      tag_141\n      jump\t// in\n    tag_140:\n    tag_139:\n      mload(0x40)\n      swap1\n      dup1\n      dup3\n      mstore\n      dup1\n      0x20\n      mul\n      0x20\n      add\n      dup3\n      add\n      0x40\n      mstore\n      dup1\n      iszero\n      tag_142\n      jumpi\n      dup2\n      0x20\n      add\n    tag_143:\n      tag_144\n      tag_71\n      jump\t// in\n    tag_144:\n      dup2\n      mstore\n      0x20\n      add\n      swap1\n      0x01\n      swap1\n      sub\n      swap1\n      dup2\n      tag_143\n      jumpi\n      swap1\n      pop\n    tag_142:\n      pop\n        /* \"contracts/TestMarketplace.sol\":4130:4191  MarketItem[] memory items = new MarketItem[](unsoldItemCount) */\n      swap1\n      pop\n        /* \"contracts/TestMarketplace.sol\":4202:4208  uint i */\n      0x00\n        /* \"contracts/TestMarketplace.sol\":4197:4461  for (uint i = 0; i < itemCount; i++) {... */\n    tag_145:\n        /* \"contracts/TestMarketplace.sol\":4218:4227  itemCount */\n      dup5\n        /* \"contracts/TestMarketplace.sol\":4214:4215  i */\n      dup2\n        /* \"contracts/TestMarketplace.sol\":4214:4227  i < itemCount */\n      lt\n        /* \"contracts/TestMarketplace.sol\":4197:4461  for (uint i = 0; i < itemCount; i++) {... */\n      iszero\n      tag_146\n      jumpi\n        /* \"contracts/TestMarketplace.sol\":4247:4261  idToMarketItem */\n      0x08\n        /* \"contracts/TestMarketplace.sol\":4247:4268  idToMarketItem[i + 1] */\n      0x00\n        /* \"contracts/TestMarketplace.sol\":4266:4267  1 */\n      0x01\n        /* \"contracts/TestMarketplace.sol\":4262:4263  i */\n      dup4\n        /* \"contracts/TestMarketplace.sol\":4262:4267  i + 1 */\n      tag_148\n      swap2\n      swap1\n      tag_111\n      jump\t// in\n    tag_148:\n        /* \"contracts/TestMarketplace.sol\":4247:4268  idToMarketItem[i + 1] */\n      dup2\n      mstore\n      0x20\n      add\n      swap1\n      dup2\n      mstore\n      0x20\n      add\n      0x00\n      keccak256\n        /* \"contracts/TestMarketplace.sol\":4247:4275  idToMarketItem[i + 1].isSold */\n      0x05\n      add\n      0x00\n      swap1\n      sload\n      swap1\n      0x0100\n      exp\n      swap1\n      div\n      0xff\n      and\n        /* \"contracts/TestMarketplace.sol\":4242:4455  if (!idToMarketItem[i + 1].isSold) {... */\n      tag_149\n      jumpi\n        /* \"contracts/TestMarketplace.sol\":4287:4301  uint currentId */\n      0x00\n        /* \"contracts/TestMarketplace.sol\":4308:4309  1 */\n      0x01\n        /* \"contracts/TestMarketplace.sol\":4304:4305  i */\n      dup3\n        /* \"contracts/TestMarketplace.sol\":4304:4309  i + 1 */\n      tag_150\n      swap2\n      swap1\n      tag_111\n      jump\t// in\n    tag_150:\n        /* \"contracts/TestMarketplace.sol\":4287:4309  uint currentId = i + 1 */\n      swap1\n      pop\n        /* \"contracts/TestMarketplace.sol\":4319:4348  MarketItem memory currentItem */\n      0x00\n        /* \"contracts/TestMarketplace.sol\":4351:4365  idToMarketItem */\n      0x08\n        /* \"contracts/TestMarketplace.sol\":4351:4376  idToMarketItem[currentId] */\n      0x00\n        /* \"contracts/TestMarketplace.sol\":4366:4375  currentId */\n      dup4\n        /* \"contracts/TestMarketplace.sol\":4351:4376  idToMarketItem[currentId] */\n      dup2\n      mstore\n      0x20\n      add\n      swap1\n      dup2\n      mstore\n      0x20\n      add\n      0x00\n      keccak256\n        /* \"contracts/TestMarketplace.sol\":4319:4376  MarketItem memory currentItem = idToMarketItem[currentId] */\n      mload(0x40)\n      dup1\n      0x0100\n      add\n      0x40\n      mstore\n      swap1\n      dup2\n      0x00\n      dup3\n      add\n      sload\n      dup2\n      mstore\n      0x20\n      add\n      0x01\n      dup3\n      add\n      sload\n      dup2\n      mstore\n      0x20\n      add\n      0x02\n      dup3\n      add\n      0x00\n      swap1\n      sload\n      swap1\n      0x0100\n      exp\n      swap1\n      div\n      0xffffffffffffffffffffffffffffffffffffffff\n      and\n      0xffffffffffffffffffffffffffffffffffffffff\n      and\n      0xffffffffffffffffffffffffffffffffffffffff\n      and\n      dup2\n      mstore\n      0x20\n      add\n      0x03\n      dup3\n      add\n      0x00\n      swap1\n      sload\n      swap1\n      0x0100\n      exp\n      swap1\n      div\n      0xffffffffffffffffffffffffffffffffffffffff\n      and\n      0xffffffffffffffffffffffffffffffffffffffff\n      and\n      0xffffffffffffffffffffffffffffffffffffffff\n      and\n      dup2\n      mstore\n      0x20\n      add\n      0x04\n      dup3\n      add\n      sload\n      dup2\n      mstore\n      0x20\n      add\n      0x05\n      dup3\n      add\n      0x00\n      swap1\n      sload\n      swap1\n      0x0100\n      exp\n      swap1\n      div\n      0xff\n      and\n      iszero\n      iszero\n      iszero\n      iszero\n      dup2\n      mstore\n      0x20\n      add\n      0x05\n      dup3\n      add\n      0x01\n      swap1\n      sload\n      swap1\n      0x0100\n      exp\n      swap1\n      div\n      0xff\n      and\n      iszero\n      iszero\n      iszero\n      iszero\n      dup2\n      mstore\n      0x20\n      add\n      0x05\n      dup3\n      add\n      0x02\n      swap1\n      sload\n      swap1\n      0x0100\n      exp\n      swap1\n      div\n      0xff\n      and\n      iszero\n      iszero\n      iszero\n      iszero\n      dup2\n      mstore\n      pop\n      pop\n      swap1\n      pop\n        /* \"contracts/TestMarketplace.sol\":4408:4419  currentItem */\n      dup1\n        /* \"contracts/TestMarketplace.sol\":4386:4391  items */\n      dup5\n        /* \"contracts/TestMarketplace.sol\":4392:4404  currentIndex */\n      dup7\n        /* \"contracts/TestMarketplace.sol\":4386:4405  items[currentIndex] */\n      dup2\n      mload\n      dup2\n      lt\n      tag_151\n      jumpi\n      tag_152\n      tag_153\n      jump\t// in\n    tag_152:\n    tag_151:\n      0x20\n      mul\n      0x20\n      add\n      add\n        /* \"contracts/TestMarketplace.sol\":4386:4419  items[currentIndex] = currentItem */\n      dup2\n      swap1\n      mstore\n      pop\n        /* \"contracts/TestMarketplace.sol\":4445:4446  1 */\n      0x01\n        /* \"contracts/TestMarketplace.sol\":4429:4446  currentIndex += 1 */\n      dup6\n      tag_154\n      swap2\n      swap1\n      tag_111\n      jump\t// in\n    tag_154:\n      swap5\n      pop\n        /* \"contracts/TestMarketplace.sol\":4277:4455  {... */\n      pop\n      pop\n        /* \"contracts/TestMarketplace.sol\":4242:4455  if (!idToMarketItem[i + 1].isSold) {... */\n    tag_149:\n        /* \"contracts/TestMarketplace.sol\":4229:4232  i++ */\n      dup1\n      dup1\n      tag_155\n      swap1\n      tag_156\n      jump\t// in\n    tag_155:\n      swap2\n      pop\n      pop\n        /* \"contracts/TestMarketplace.sol\":4197:4461  for (uint i = 0; i < itemCount; i++) {... */\n      jump(tag_145)\n    tag_146:\n      pop\n        /* \"contracts/TestMarketplace.sol\":4477:4482  items */\n      dup1\n        /* \"contracts/TestMarketplace.sol\":4470:4482  return items */\n      swap5\n      pop\n      pop\n      pop\n      pop\n      pop\n        /* \"contracts/TestMarketplace.sol\":3917:4487  function getUnsoldItems() public view returns (MarketItem[] memory) {... */\n      swap1\n      jump\t// out\n        /* \"contracts/TestMarketplace.sol\":2483:2931  function createSale(... */\n    tag_52:\n        /* \"@openzeppelin/contracts/security/ReentrancyGuard.sol\":1744:1745  2 */\n      0x02\n        /* \"@openzeppelin/contracts/security/ReentrancyGuard.sol\":2325:2332  _status */\n      sload(0x01)\n        /* \"@openzeppelin/contracts/security/ReentrancyGuard.sol\":2325:2344  _status != _ENTERED */\n      eq\n      iszero\n        /* \"@openzeppelin/contracts/security/ReentrancyGuard.sol\":2317:2380  require(_status != _ENTERED, \"ReentrancyGuard: reentrant call\") */\n      tag_158\n      jumpi\n      mload(0x40)\n      0x08c379a000000000000000000000000000000000000000000000000000000000\n      dup2\n      mstore\n      0x04\n      add\n      tag_159\n      swap1\n      tag_87\n      jump\t// in\n    tag_159:\n      mload(0x40)\n      dup1\n      swap2\n      sub\n      swap1\n      revert\n    tag_158:\n        /* \"@openzeppelin/contracts/security/ReentrancyGuard.sol\":1744:1745  2 */\n      0x02\n        /* \"@openzeppelin/contracts/security/ReentrancyGuard.sol\":2455:2462  _status */\n      0x01\n        /* \"@openzeppelin/contracts/security/ReentrancyGuard.sol\":2455:2473  _status = _ENTERED */\n      dup2\n      swap1\n      sstore\n      pop\n        /* \"contracts/TestMarketplace.sol\":2558:2580  MarketItem memory item */\n      0x00\n        /* \"contracts/TestMarketplace.sol\":2583:2597  idToMarketItem */\n      0x08\n        /* \"contracts/TestMarketplace.sol\":2583:2605  idToMarketItem[itemId] */\n      0x00\n        /* \"contracts/TestMarketplace.sol\":2598:2604  itemId */\n      dup4\n        /* \"contracts/TestMarketplace.sol\":2583:2605  idToMarketItem[itemId] */\n      dup2\n      mstore\n      0x20\n      add\n      swap1\n      dup2\n      mstore\n      0x20\n      add\n      0x00\n      keccak256\n        /* \"contracts/TestMarketplace.sol\":2558:2605  MarketItem memory item = idToMarketItem[itemId] */\n      mload(0x40)\n      dup1\n      0x0100\n      add\n      0x40\n      mstore\n      swap1\n      dup2\n      0x00\n      dup3\n      add\n      sload\n      dup2\n      mstore\n      0x20\n      add\n      0x01\n      dup3\n      add\n      sload\n      dup2\n      mstore\n      0x20\n      add\n      0x02\n      dup3\n      add\n      0x00\n      swap1\n      sload\n      swap1\n      0x0100\n      exp\n      swap1\n      div\n      0xffffffffffffffffffffffffffffffffffffffff\n      and\n      0xffffffffffffffffffffffffffffffffffffffff\n      and\n      0xffffffffffffffffffffffffffffffffffffffff\n      and\n      dup2\n      mstore\n      0x20\n      add\n      0x03\n      dup3\n      add\n      0x00\n      swap1\n      sload\n      swap1\n      0x0100\n      exp\n      swap1\n      div\n      0xffffffffffffffffffffffffffffffffffffffff\n      and\n      0xffffffffffffffffffffffffffffffffffffffff\n      and\n      0xffffffffffffffffffffffffffffffffffffffff\n      and\n      dup2\n      mstore\n      0x20\n      add\n      0x04\n      dup3\n      add\n      sload\n      dup2\n      mstore\n      0x20\n      add\n      0x05\n      dup3\n      add\n      0x00\n      swap1\n      sload\n      swap1\n      0x0100\n      exp\n      swap1\n      div\n      0xff\n      and\n      iszero\n      iszero\n      iszero\n      iszero\n      dup2\n      mstore\n      0x20\n      add\n      0x05\n      dup3\n      add\n      0x01\n      swap1\n      sload\n      swap1\n      0x0100\n      exp\n      swap1\n      div\n      0xff\n      and\n      iszero\n      iszero\n      iszero\n      iszero\n      dup2\n      mstore\n      0x20\n      add\n      0x05\n      dup3\n      add\n      0x02\n      swap1\n      sload\n      swap1\n      0x0100\n      exp\n      swap1\n      div\n      0xff\n      and\n      iszero\n      iszero\n      iszero\n      iszero\n      dup2\n      mstore\n      pop\n      pop\n      swap1\n      pop\n        /* \"contracts/TestMarketplace.sol\":2638:2648  msg.sender */\n      caller\n        /* \"contracts/TestMarketplace.sol\":2624:2648  item.owner == msg.sender */\n      0xffffffffffffffffffffffffffffffffffffffff\n      and\n        /* \"contracts/TestMarketplace.sol\":2624:2628  item */\n      dup2\n        /* \"contracts/TestMarketplace.sol\":2624:2634  item.owner */\n      0x60\n      add\n      mload\n        /* \"contracts/TestMarketplace.sol\":2624:2648  item.owner == msg.sender */\n      0xffffffffffffffffffffffffffffffffffffffff\n      and\n      eq\n        /* \"contracts/TestMarketplace.sol\":2616:2685  require(item.owner == msg.sender, \"Only Item owner can create sale.\") */\n      tag_161\n      jumpi\n      mload(0x40)\n      0x08c379a000000000000000000000000000000000000000000000000000000000\n      dup2\n      mstore\n      0x04\n      add\n      tag_162\n      swap1\n      tag_163\n      jump\t// in\n    tag_162:\n      mload(0x40)\n      dup1\n      swap2\n      sub\n      swap1\n      revert\n    tag_161:\n        /* \"contracts/TestMarketplace.sol\":2714:2718  true */\n      0x01\n        /* \"contracts/TestMarketplace.sol\":2699:2718  item.exists == true */\n      iszero\n      iszero\n        /* \"contracts/TestMarketplace.sol\":2699:2703  item */\n      dup2\n        /* \"contracts/TestMarketplace.sol\":2699:2710  item.exists */\n      0xe0\n      add\n      mload\n        /* \"contracts/TestMarketplace.sol\":2699:2718  item.exists == true */\n      iszero\n      iszero\n      eq\n        /* \"contracts/TestMarketplace.sol\":2691:2743  require(item.exists == true, \"Item does not exist.\") */\n      tag_164\n      jumpi\n      mload(0x40)\n      0x08c379a000000000000000000000000000000000000000000000000000000000\n      dup2\n      mstore\n      0x04\n      add\n      tag_165\n      swap1\n      tag_166\n      jump\t// in\n    tag_165:\n      mload(0x40)\n      dup1\n      swap2\n      sub\n      swap1\n      revert\n    tag_164:\n        /* \"contracts/TestMarketplace.sol\":2791:2795  true */\n      0x01\n        /* \"contracts/TestMarketplace.sol\":2754:2768  idToMarketItem */\n      0x08\n        /* \"contracts/TestMarketplace.sol\":2754:2776  idToMarketItem[itemId] */\n      0x00\n        /* \"contracts/TestMarketplace.sol\":2769:2775  itemId */\n      dup5\n        /* \"contracts/TestMarketplace.sol\":2754:2776  idToMarketItem[itemId] */\n      dup2\n      mstore\n      0x20\n      add\n      swap1\n      dup2\n      mstore\n      0x20\n      add\n      0x00\n      keccak256\n        /* \"contracts/TestMarketplace.sol\":2754:2788  idToMarketItem[itemId].isUpForSale */\n      0x05\n      add\n      0x01\n        /* \"contracts/TestMarketplace.sol\":2754:2795  idToMarketItem[itemId].isUpForSale = true */\n      0x0100\n      exp\n      dup2\n      sload\n      dup2\n      0xff\n      mul\n      not\n      and\n      swap1\n      dup4\n      iszero\n      iszero\n      mul\n      or\n      swap1\n      sstore\n      pop\n        /* \"contracts/TestMarketplace.sol\":2853:2857  item */\n      dup1\n        /* \"contracts/TestMarketplace.sol\":2853:2865  item.tokenId */\n      0x20\n      add\n      mload\n        /* \"contracts/TestMarketplace.sol\":2839:2845  itemId */\n      dup3\n        /* \"contracts/TestMarketplace.sol\":2811:2926  MarketItemUpForSale (... */\n      0x0b59dfc56db79c6259bcd97a3fc890ab90008a8b5781d89dd763e01651bc7bc8\n        /* \"contracts/TestMarketplace.sol\":2873:2883  msg.sender */\n      caller\n        /* \"contracts/TestMarketplace.sol\":2891:2895  item */\n      dup5\n        /* \"contracts/TestMarketplace.sol\":2891:2902  item.seller */\n      0x40\n      add\n      mload\n        /* \"contracts/TestMarketplace.sol\":2910:2914  item */\n      dup6\n        /* \"contracts/TestMarketplace.sol\":2910:2920  item.price */\n      0x80\n      add\n      mload\n        /* \"contracts/TestMarketplace.sol\":2811:2926  MarketItemUpForSale (... */\n      mload(0x40)\n      tag_167\n      swap4\n      swap3\n      swap2\n      swap1\n      tag_100\n      jump\t// in\n    tag_167:\n      mload(0x40)\n      dup1\n      swap2\n      sub\n      swap1\n      log3\n        /* \"contracts/TestMarketplace.sol\":2547:2931  {... */\n      pop\n        /* \"@openzeppelin/contracts/security/ReentrancyGuard.sol\":1701:1702  1 */\n      0x01\n        /* \"@openzeppelin/contracts/security/ReentrancyGuard.sol\":2628:2635  _status */\n      dup1\n        /* \"@openzeppelin/contracts/security/ReentrancyGuard.sol\":2628:2650  _status = _NOT_ENTERED */\n      dup2\n      swap1\n      sstore\n      pop\n        /* \"contracts/TestMarketplace.sol\":2483:2931  function createSale(... */\n      pop\n      jump\t// out\n        /* \"contracts/TestMarketplace.sol\":734:773  uint256 public listingPrice = 0.1 ether */\n    tag_54:\n      sload(0x07)\n      dup2\n      jump\t// out\n        /* \"contracts/TestMarketplace.sol\":665:691  address public nftContract */\n    tag_58:\n      0x05\n      0x00\n      swap1\n      sload\n      swap1\n      0x0100\n      exp\n      swap1\n      div\n      0xffffffffffffffffffffffffffffffffffffffff\n      and\n      dup2\n      jump\t// out\n        /* \"contracts/TestMarketplace.sol\":957:1009  mapping(uint256 => MarketItem) public idToMarketItem */\n    tag_62:\n      mstore(0x20, 0x08)\n      dup1\n      0x00\n      mstore\n      keccak256(0x00, 0x40)\n      0x00\n      swap2\n      pop\n      swap1\n      pop\n      dup1\n      0x00\n      add\n      sload\n      swap1\n      dup1\n      0x01\n      add\n      sload\n      swap1\n      dup1\n      0x02\n      add\n      0x00\n      swap1\n      sload\n      swap1\n      0x0100\n      exp\n      swap1\n      div\n      0xffffffffffffffffffffffffffffffffffffffff\n      and\n      swap1\n      dup1\n      0x03\n      add\n      0x00\n      swap1\n      sload\n      swap1\n      0x0100\n      exp\n      swap1\n      div\n      0xffffffffffffffffffffffffffffffffffffffff\n      and\n      swap1\n      dup1\n      0x04\n      add\n      sload\n      swap1\n      dup1\n      0x05\n      add\n      0x00\n      swap1\n      sload\n      swap1\n      0x0100\n      exp\n      swap1\n      div\n      0xff\n      and\n      swap1\n      dup1\n      0x05\n      add\n      0x01\n      swap1\n      sload\n      swap1\n      0x0100\n      exp\n      swap1\n      div\n      0xff\n      and\n      swap1\n      dup1\n      0x05\n      add\n      0x02\n      swap1\n      sload\n      swap1\n      0x0100\n      exp\n      swap1\n      div\n      0xff\n      and\n      swap1\n      pop\n      dup9\n      jump\t// out\n        /* \"@openzeppelin/contracts/access/Ownable.sol\":1918:2116  function transferOwnership(address newOwner) public virtual onlyOwner {... */\n    tag_68:\n        /* \"@openzeppelin/contracts/access/Ownable.sol\":1259:1271  _msgSender() */\n      tag_169\n        /* \"@openzeppelin/contracts/access/Ownable.sol\":1259:1269  _msgSender */\n      tag_75\n        /* \"@openzeppelin/contracts/access/Ownable.sol\":1259:1271  _msgSender() */\n      jump\t// in\n    tag_169:\n        /* \"@openzeppelin/contracts/access/Ownable.sol\":1248:1271  owner() == _msgSender() */\n      0xffffffffffffffffffffffffffffffffffffffff\n      and\n        /* \"@openzeppelin/contracts/access/Ownable.sol\":1248:1255  owner() */\n      tag_170\n        /* \"@openzeppelin/contracts/access/Ownable.sol\":1248:1253  owner */\n      tag_37\n        /* \"@openzeppelin/contracts/access/Ownable.sol\":1248:1255  owner() */\n      jump\t// in\n    tag_170:\n        /* \"@openzeppelin/contracts/access/Ownable.sol\":1248:1271  owner() == _msgSender() */\n      0xffffffffffffffffffffffffffffffffffffffff\n      and\n      eq\n        /* \"@openzeppelin/contracts/access/Ownable.sol\":1240:1308  require(owner() == _msgSender(), \"Ownable: caller is not the owner\") */\n      tag_171\n      jumpi\n      mload(0x40)\n      0x08c379a000000000000000000000000000000000000000000000000000000000\n      dup2\n      mstore\n      0x04\n      add\n      tag_172\n      swap1\n      tag_79\n      jump\t// in\n    tag_172:\n      mload(0x40)\n      dup1\n      swap2\n      sub\n      swap1\n      revert\n    tag_171:\n        /* \"@openzeppelin/contracts/access/Ownable.sol\":2026:2027  0 */\n      0x00\n        /* \"@openzeppelin/contracts/access/Ownable.sol\":2006:2028  newOwner != address(0) */\n      0xffffffffffffffffffffffffffffffffffffffff\n      and\n        /* \"@openzeppelin/contracts/access/Ownable.sol\":2006:2014  newOwner */\n      dup2\n        /* \"@openzeppelin/contracts/access/Ownable.sol\":2006:2028  newOwner != address(0) */\n      0xffffffffffffffffffffffffffffffffffffffff\n      and\n      eq\n      iszero\n        /* \"@openzeppelin/contracts/access/Ownable.sol\":1998:2071  require(newOwner != address(0), \"Ownable: new owner is the zero address\") */\n      tag_174\n      jumpi\n      mload(0x40)\n      0x08c379a000000000000000000000000000000000000000000000000000000000\n      dup2\n      mstore\n      0x04\n      add\n      tag_175\n      swap1\n      tag_176\n      jump\t// in\n    tag_175:\n      mload(0x40)\n      dup1\n      swap2\n      sub\n      swap1\n      revert\n    tag_174:\n        /* \"@openzeppelin/contracts/access/Ownable.sol\":2081:2109  _transferOwnership(newOwner) */\n      tag_177\n        /* \"@openzeppelin/contracts/access/Ownable.sol\":2100:2108  newOwner */\n      dup2\n        /* \"@openzeppelin/contracts/access/Ownable.sol\":2081:2099  _transferOwnership */\n      tag_82\n        /* \"@openzeppelin/contracts/access/Ownable.sol\":2081:2109  _transferOwnership(newOwner) */\n      jump\t// in\n    tag_177:\n        /* \"@openzeppelin/contracts/access/Ownable.sol\":1918:2116  function transferOwnership(address newOwner) public virtual onlyOwner {... */\n      pop\n      jump\t// out\n        /* \"@openzeppelin/contracts/utils/Context.sol\":640:736  function _msgSender() internal view virtual returns (address) {... */\n    tag_75:\n        /* \"@openzeppelin/contracts/utils/Context.sol\":693:700  address */\n      0x00\n        /* \"@openzeppelin/contracts/utils/Context.sol\":719:729  msg.sender */\n      caller\n        /* \"@openzeppelin/contracts/utils/Context.sol\":712:729  return msg.sender */\n      swap1\n      pop\n        /* \"@openzeppelin/contracts/utils/Context.sol\":640:736  function _msgSender() internal view virtual returns (address) {... */\n      swap1\n      jump\t// out\n        /* \"@openzeppelin/contracts/access/Ownable.sol\":2270:2457  function _transferOwnership(address newOwner) internal virtual {... */\n    tag_82:\n        /* \"@openzeppelin/contracts/access/Ownable.sol\":2343:2359  address oldOwner */\n      0x00\n        /* \"@openzeppelin/contracts/access/Ownable.sol\":2362:2368  _owner */\n      dup1\n      0x00\n      swap1\n      sload\n      swap1\n      0x0100\n      exp\n      swap1\n      div\n      0xffffffffffffffffffffffffffffffffffffffff\n      and\n        /* \"@openzeppelin/contracts/access/Ownable.sol\":2343:2368  address oldOwner = _owner */\n      swap1\n      pop\n        /* \"@openzeppelin/contracts/access/Ownable.sol\":2387:2395  newOwner */\n      dup2\n        /* \"@openzeppelin/contracts/access/Ownable.sol\":2378:2384  _owner */\n      0x00\n      dup1\n        /* \"@openzeppelin/contracts/access/Ownable.sol\":2378:2395  _owner = newOwner */\n      0x0100\n      exp\n      dup2\n      sload\n      dup2\n      0xffffffffffffffffffffffffffffffffffffffff\n      mul\n      not\n      and\n      swap1\n      dup4\n      0xffffffffffffffffffffffffffffffffffffffff\n      and\n      mul\n      or\n      swap1\n      sstore\n      pop\n        /* \"@openzeppelin/contracts/access/Ownable.sol\":2441:2449  newOwner */\n      dup2\n        /* \"@openzeppelin/contracts/access/Ownable.sol\":2410:2450  OwnershipTransferred(oldOwner, newOwner) */\n      0xffffffffffffffffffffffffffffffffffffffff\n      and\n        /* \"@openzeppelin/contracts/access/Ownable.sol\":2431:2439  oldOwner */\n      dup2\n        /* \"@openzeppelin/contracts/access/Ownable.sol\":2410:2450  OwnershipTransferred(oldOwner, newOwner) */\n      0xffffffffffffffffffffffffffffffffffffffff\n      and\n      0x8be0079c531659141344cd1fd0a4f28419497f9722a3daafe3b4186f6b6457e0\n      mload(0x40)\n      mload(0x40)\n      dup1\n      swap2\n      sub\n      swap1\n      log3\n        /* \"@openzeppelin/contracts/access/Ownable.sol\":2333:2457  {... */\n      pop\n        /* \"@openzeppelin/contracts/access/Ownable.sol\":2270:2457  function _transferOwnership(address newOwner) internal virtual {... */\n      pop\n      jump\t// out\n        /* \"@openzeppelin/contracts/utils/Counters.sol\":945:1068  function increment(Counter storage counter) internal {... */\n    tag_96:\n        /* \"@openzeppelin/contracts/utils/Counters.sol\":1050:1051  1 */\n      0x01\n        /* \"@openzeppelin/contracts/utils/Counters.sol\":1032:1039  counter */\n      dup2\n        /* \"@openzeppelin/contracts/utils/Counters.sol\":1032:1046  counter._value */\n      0x00\n      add\n      0x00\n        /* \"@openzeppelin/contracts/utils/Counters.sol\":1032:1051  counter._value += 1 */\n      dup3\n      dup3\n      sload\n      add\n      swap3\n      pop\n      pop\n      dup2\n      swap1\n      sstore\n      pop\n        /* \"@openzeppelin/contracts/utils/Counters.sol\":945:1068  function increment(Counter storage counter) internal {... */\n      pop\n      jump\t// out\n        /* \"@openzeppelin/contracts/utils/Counters.sol\":827:939  function current(Counter storage counter) internal view returns (uint256) {... */\n    tag_98:\n        /* \"@openzeppelin/contracts/utils/Counters.sol\":892:899  uint256 */\n      0x00\n        /* \"@openzeppelin/contracts/utils/Counters.sol\":918:925  counter */\n      dup2\n        /* \"@openzeppelin/contracts/utils/Counters.sol\":918:932  counter._value */\n      0x00\n      add\n      sload\n        /* \"@openzeppelin/contracts/utils/Counters.sol\":911:932  return counter._value */\n      swap1\n      pop\n        /* \"@openzeppelin/contracts/utils/Counters.sol\":827:939  function current(Counter storage counter) internal view returns (uint256) {... */\n      swap2\n      swap1\n      pop\n      jump\t// out\n    tag_71:\n      mload(0x40)\n      dup1\n      0x0100\n      add\n      0x40\n      mstore\n      dup1\n      0x00\n      dup2\n      mstore\n      0x20\n      add\n      0x00\n      dup2\n      mstore\n      0x20\n      add\n      and(0xffffffffffffffffffffffffffffffffffffffff, 0x00)\n      dup2\n      mstore\n      0x20\n      add\n      and(0xffffffffffffffffffffffffffffffffffffffff, 0x00)\n      dup2\n      mstore\n      0x20\n      add\n      0x00\n      dup2\n      mstore\n      0x20\n      add\n      iszero(iszero(0x00))\n      dup2\n      mstore\n      0x20\n      add\n      iszero(iszero(0x00))\n      dup2\n      mstore\n      0x20\n      add\n      iszero(iszero(0x00))\n      dup2\n      mstore\n      pop\n      swap1\n      jump\t// out\n        /* \"#utility.yul\":7:146   */\n    tag_183:\n        /* \"#utility.yul\":53:58   */\n      0x00\n        /* \"#utility.yul\":91:97   */\n      dup2\n        /* \"#utility.yul\":78:98   */\n      calldataload\n        /* \"#utility.yul\":69:98   */\n      swap1\n      pop\n        /* \"#utility.yul\":107:140   */\n      tag_185\n        /* \"#utility.yul\":134:139   */\n      dup2\n        /* \"#utility.yul\":107:140   */\n      tag_186\n      jump\t// in\n    tag_185:\n        /* \"#utility.yul\":7:146   */\n      swap3\n      swap2\n      pop\n      pop\n      jump\t// out\n        /* \"#utility.yul\":152:289   */\n    tag_187:\n        /* \"#utility.yul\":206:211   */\n      0x00\n        /* \"#utility.yul\":237:243   */\n      dup2\n        /* \"#utility.yul\":231:244   */\n      mload\n        /* \"#utility.yul\":222:244   */\n      swap1\n      pop\n        /* \"#utility.yul\":253:283   */\n      tag_189\n        /* \"#utility.yul\":277:282   */\n      dup2\n        /* \"#utility.yul\":253:283   */\n      tag_190\n      jump\t// in\n    tag_189:\n        /* \"#utility.yul\":152:289   */\n      swap3\n      swap2\n      pop\n      pop\n      jump\t// out\n        /* \"#utility.yul\":308:860   */\n    tag_191:\n        /* \"#utility.yul\":365:373   */\n      0x00\n        /* \"#utility.yul\":375:381   */\n      dup1\n        /* \"#utility.yul\":425:428   */\n      dup4\n        /* \"#utility.yul\":418:422   */\n      0x1f\n        /* \"#utility.yul\":410:416   */\n      dup5\n        /* \"#utility.yul\":406:423   */\n      add\n        /* \"#utility.yul\":402:429   */\n      slt\n        /* \"#utility.yul\":392:514   */\n      tag_193\n      jumpi\n        /* \"#utility.yul\":433:512   */\n      tag_194\n      tag_195\n      jump\t// in\n    tag_194:\n        /* \"#utility.yul\":392:514   */\n    tag_193:\n        /* \"#utility.yul\":546:552   */\n      dup3\n        /* \"#utility.yul\":533:553   */\n      calldataload\n        /* \"#utility.yul\":523:553   */\n      swap1\n      pop\n        /* \"#utility.yul\":576:594   */\n      0xffffffffffffffff\n        /* \"#utility.yul\":568:574   */\n      dup2\n        /* \"#utility.yul\":565:595   */\n      gt\n        /* \"#utility.yul\":562:679   */\n      iszero\n      tag_196\n      jumpi\n        /* \"#utility.yul\":598:677   */\n      tag_197\n      tag_198\n      jump\t// in\n    tag_197:\n        /* \"#utility.yul\":562:679   */\n    tag_196:\n        /* \"#utility.yul\":712:716   */\n      0x20\n        /* \"#utility.yul\":704:710   */\n      dup4\n        /* \"#utility.yul\":700:717   */\n      add\n        /* \"#utility.yul\":688:717   */\n      swap2\n      pop\n        /* \"#utility.yul\":766:769   */\n      dup4\n        /* \"#utility.yul\":758:762   */\n      0x01\n        /* \"#utility.yul\":750:756   */\n      dup3\n        /* \"#utility.yul\":746:763   */\n      mul\n        /* \"#utility.yul\":736:744   */\n      dup4\n        /* \"#utility.yul\":732:764   */\n      add\n        /* \"#utility.yul\":729:770   */\n      gt\n        /* \"#utility.yul\":726:854   */\n      iszero\n      tag_199\n      jumpi\n        /* \"#utility.yul\":773:852   */\n      tag_200\n      tag_201\n      jump\t// in\n    tag_200:\n        /* \"#utility.yul\":726:854   */\n    tag_199:\n        /* \"#utility.yul\":308:860   */\n      swap3\n      pop\n      swap3\n      swap1\n      pop\n      jump\t// out\n        /* \"#utility.yul\":866:1005   */\n    tag_202:\n        /* \"#utility.yul\":912:917   */\n      0x00\n        /* \"#utility.yul\":950:956   */\n      dup2\n        /* \"#utility.yul\":937:957   */\n      calldataload\n        /* \"#utility.yul\":928:957   */\n      swap1\n      pop\n        /* \"#utility.yul\":966:999   */\n      tag_204\n        /* \"#utility.yul\":993:998   */\n      dup2\n        /* \"#utility.yul\":966:999   */\n      tag_205\n      jump\t// in\n    tag_204:\n        /* \"#utility.yul\":866:1005   */\n      swap3\n      swap2\n      pop\n      pop\n      jump\t// out\n        /* \"#utility.yul\":1011:1340   */\n    tag_67:\n        /* \"#utility.yul\":1070:1076   */\n      0x00\n        /* \"#utility.yul\":1119:1121   */\n      0x20\n        /* \"#utility.yul\":1107:1116   */\n      dup3\n        /* \"#utility.yul\":1098:1105   */\n      dup5\n        /* \"#utility.yul\":1094:1117   */\n      sub\n        /* \"#utility.yul\":1090:1122   */\n      slt\n        /* \"#utility.yul\":1087:1206   */\n      iszero\n      tag_207\n      jumpi\n        /* \"#utility.yul\":1125:1204   */\n      tag_208\n      tag_209\n      jump\t// in\n    tag_208:\n        /* \"#utility.yul\":1087:1206   */\n    tag_207:\n        /* \"#utility.yul\":1245:1246   */\n      0x00\n        /* \"#utility.yul\":1270:1323   */\n      tag_210\n        /* \"#utility.yul\":1315:1322   */\n      dup5\n        /* \"#utility.yul\":1306:1312   */\n      dup3\n        /* \"#utility.yul\":1295:1304   */\n      dup6\n        /* \"#utility.yul\":1291:1313   */\n      add\n        /* \"#utility.yul\":1270:1323   */\n      tag_183\n      jump\t// in\n    tag_210:\n        /* \"#utility.yul\":1260:1323   */\n      swap2\n      pop\n        /* \"#utility.yul\":1216:1333   */\n      pop\n        /* \"#utility.yul\":1011:1340   */\n      swap3\n      swap2\n      pop\n      pop\n      jump\t// out\n        /* \"#utility.yul\":1346:2309   */\n    tag_20:\n        /* \"#utility.yul\":1443:1449   */\n      0x00\n        /* \"#utility.yul\":1451:1457   */\n      dup1\n        /* \"#utility.yul\":1459:1465   */\n      0x00\n        /* \"#utility.yul\":1467:1473   */\n      dup1\n        /* \"#utility.yul\":1475:1481   */\n      0x00\n        /* \"#utility.yul\":1524:1527   */\n      0x80\n        /* \"#utility.yul\":1512:1521   */\n      dup7\n        /* \"#utility.yul\":1503:1510   */\n      dup9\n        /* \"#utility.yul\":1499:1522   */\n      sub\n        /* \"#utility.yul\":1495:1528   */\n      slt\n        /* \"#utility.yul\":1492:1612   */\n      iszero\n      tag_212\n      jumpi\n        /* \"#utility.yul\":1531:1610   */\n      tag_213\n      tag_209\n      jump\t// in\n    tag_213:\n        /* \"#utility.yul\":1492:1612   */\n    tag_212:\n        /* \"#utility.yul\":1651:1652   */\n      0x00\n        /* \"#utility.yul\":1676:1729   */\n      tag_214\n        /* \"#utility.yul\":1721:1728   */\n      dup9\n        /* \"#utility.yul\":1712:1718   */\n      dup3\n        /* \"#utility.yul\":1701:1710   */\n      dup10\n        /* \"#utility.yul\":1697:1719   */\n      add\n        /* \"#utility.yul\":1676:1729   */\n      tag_183\n      jump\t// in\n    tag_214:\n        /* \"#utility.yul\":1666:1729   */\n      swap6\n      pop\n        /* \"#utility.yul\":1622:1739   */\n      pop\n        /* \"#utility.yul\":1778:1780   */\n      0x20\n        /* \"#utility.yul\":1804:1857   */\n      tag_215\n        /* \"#utility.yul\":1849:1856   */\n      dup9\n        /* \"#utility.yul\":1840:1846   */\n      dup3\n        /* \"#utility.yul\":1829:1838   */\n      dup10\n        /* \"#utility.yul\":1825:1847   */\n      add\n        /* \"#utility.yul\":1804:1857   */\n      tag_183\n      jump\t// in\n    tag_215:\n        /* \"#utility.yul\":1794:1857   */\n      swap5\n      pop\n        /* \"#utility.yul\":1749:1867   */\n      pop\n        /* \"#utility.yul\":1906:1908   */\n      0x40\n        /* \"#utility.yul\":1932:1985   */\n      tag_216\n        /* \"#utility.yul\":1977:1984   */\n      dup9\n        /* \"#utility.yul\":1968:1974   */\n      dup3\n        /* \"#utility.yul\":1957:1966   */\n      dup10\n        /* \"#utility.yul\":1953:1975   */\n      add\n        /* \"#utility.yul\":1932:1985   */\n      tag_202\n      jump\t// in\n    tag_216:\n        /* \"#utility.yul\":1922:1985   */\n      swap4\n      pop\n        /* \"#utility.yul\":1877:1995   */\n      pop\n        /* \"#utility.yul\":2062:2064   */\n      0x60\n        /* \"#utility.yul\":2051:2060   */\n      dup7\n        /* \"#utility.yul\":2047:2065   */\n      add\n        /* \"#utility.yul\":2034:2066   */\n      calldataload\n        /* \"#utility.yul\":2093:2111   */\n      0xffffffffffffffff\n        /* \"#utility.yul\":2085:2091   */\n      dup2\n        /* \"#utility.yul\":2082:2112   */\n      gt\n        /* \"#utility.yul\":2079:2196   */\n      iszero\n      tag_217\n      jumpi\n        /* \"#utility.yul\":2115:2194   */\n      tag_218\n      tag_219\n      jump\t// in\n    tag_218:\n        /* \"#utility.yul\":2079:2196   */\n    tag_217:\n        /* \"#utility.yul\":2228:2292   */\n      tag_220\n        /* \"#utility.yul\":2284:2291   */\n      dup9\n        /* \"#utility.yul\":2275:2281   */\n      dup3\n        /* \"#utility.yul\":2264:2273   */\n      dup10\n        /* \"#utility.yul\":2260:2282   */\n      add\n        /* \"#utility.yul\":2228:2292   */\n      tag_191\n      jump\t// in\n    tag_220:\n        /* \"#utility.yul\":2210:2292   */\n      swap3\n      pop\n      swap3\n      pop\n        /* \"#utility.yul\":2005:2302   */\n      pop\n        /* \"#utility.yul\":1346:2309   */\n      swap3\n      swap6\n      pop\n      swap3\n      swap6\n      swap1\n      swap4\n      pop\n      jump\t// out\n        /* \"#utility.yul\":2315:2660   */\n    tag_105:\n        /* \"#utility.yul\":2382:2388   */\n      0x00\n        /* \"#utility.yul\":2431:2433   */\n      0x20\n        /* \"#utility.yul\":2419:2428   */\n      dup3\n        /* \"#utility.yul\":2410:2417   */\n      dup5\n        /* \"#utility.yul\":2406:2429   */\n      sub\n        /* \"#utility.yul\":2402:2434   */\n      slt\n        /* \"#utility.yul\":2399:2518   */\n      iszero\n      tag_222\n      jumpi\n        /* \"#utility.yul\":2437:2516   */\n      tag_223\n      tag_209\n      jump\t// in\n    tag_223:\n        /* \"#utility.yul\":2399:2518   */\n    tag_222:\n        /* \"#utility.yul\":2557:2558   */\n      0x00\n        /* \"#utility.yul\":2582:2643   */\n      tag_224\n        /* \"#utility.yul\":2635:2642   */\n      dup5\n        /* \"#utility.yul\":2626:2632   */\n      dup3\n        /* \"#utility.yul\":2615:2624   */\n      dup6\n        /* \"#utility.yul\":2611:2633   */\n      add\n        /* \"#utility.yul\":2582:2643   */\n      tag_187\n      jump\t// in\n    tag_224:\n        /* \"#utility.yul\":2572:2643   */\n      swap2\n      pop\n        /* \"#utility.yul\":2528:2653   */\n      pop\n        /* \"#utility.yul\":2315:2660   */\n      swap3\n      swap2\n      pop\n      pop\n      jump\t// out\n        /* \"#utility.yul\":2666:2995   */\n    tag_26:\n        /* \"#utility.yul\":2725:2731   */\n      0x00\n        /* \"#utility.yul\":2774:2776   */\n      0x20\n        /* \"#utility.yul\":2762:2771   */\n      dup3\n        /* \"#utility.yul\":2753:2760   */\n      dup5\n        /* \"#utility.yul\":2749:2772   */\n      sub\n        /* \"#utility.yul\":2745:2777   */\n      slt\n        /* \"#utility.yul\":2742:2861   */\n      iszero\n      tag_226\n      jumpi\n        /* \"#utility.yul\":2780:2859   */\n      tag_227\n      tag_209\n      jump\t// in\n    tag_227:\n        /* \"#utility.yul\":2742:2861   */\n    tag_226:\n        /* \"#utility.yul\":2900:2901   */\n      0x00\n        /* \"#utility.yul\":2925:2978   */\n      tag_228\n        /* \"#utility.yul\":2970:2977   */\n      dup5\n        /* \"#utility.yul\":2961:2967   */\n      dup3\n        /* \"#utility.yul\":2950:2959   */\n      dup6\n        /* \"#utility.yul\":2946:2968   */\n      add\n        /* \"#utility.yul\":2925:2978   */\n      tag_202\n      jump\t// in\n    tag_228:\n        /* \"#utility.yul\":2915:2978   */\n      swap2\n      pop\n        /* \"#utility.yul\":2871:2988   */\n      pop\n        /* \"#utility.yul\":2666:2995   */\n      swap3\n      swap2\n      pop\n      pop\n      jump\t// out\n        /* \"#utility.yul\":3001:3475   */\n    tag_41:\n        /* \"#utility.yul\":3069:3075   */\n      0x00\n        /* \"#utility.yul\":3077:3083   */\n      dup1\n        /* \"#utility.yul\":3126:3128   */\n      0x40\n        /* \"#utility.yul\":3114:3123   */\n      dup4\n        /* \"#utility.yul\":3105:3112   */\n      dup6\n        /* \"#utility.yul\":3101:3124   */\n      sub\n        /* \"#utility.yul\":3097:3129   */\n      slt\n        /* \"#utility.yul\":3094:3213   */\n      iszero\n      tag_230\n      jumpi\n        /* \"#utility.yul\":3132:3211   */\n      tag_231\n      tag_209\n      jump\t// in\n    tag_231:\n        /* \"#utility.yul\":3094:3213   */\n    tag_230:\n        /* \"#utility.yul\":3252:3253   */\n      0x00\n        /* \"#utility.yul\":3277:3330   */\n      tag_232\n        /* \"#utility.yul\":3322:3329   */\n      dup6\n        /* \"#utility.yul\":3313:3319   */\n      dup3\n        /* \"#utility.yul\":3302:3311   */\n      dup7\n        /* \"#utility.yul\":3298:3320   */\n      add\n        /* \"#utility.yul\":3277:3330   */\n      tag_202\n      jump\t// in\n    tag_232:\n        /* \"#utility.yul\":3267:3330   */\n      swap3\n      pop\n        /* \"#utility.yul\":3223:3340   */\n      pop\n        /* \"#utility.yul\":3379:3381   */\n      0x20\n        /* \"#utility.yul\":3405:3458   */\n      tag_233\n        /* \"#utility.yul\":3450:3457   */\n      dup6\n        /* \"#utility.yul\":3441:3447   */\n      dup3\n        /* \"#utility.yul\":3430:3439   */\n      dup7\n        /* \"#utility.yul\":3426:3448   */\n      add\n        /* \"#utility.yul\":3405:3458   */\n      tag_202\n      jump\t// in\n    tag_233:\n        /* \"#utility.yul\":3395:3458   */\n      swap2\n      pop\n        /* \"#utility.yul\":3350:3468   */\n      pop\n        /* \"#utility.yul\":3001:3475   */\n      swap3\n      pop\n      swap3\n      swap1\n      pop\n      jump\t// out\n        /* \"#utility.yul\":3481:3770   */\n    tag_234:\n        /* \"#utility.yul\":3604:3614   */\n      0x00\n        /* \"#utility.yul\":3625:3725   */\n      tag_236\n        /* \"#utility.yul\":3721:3724   */\n      dup4\n        /* \"#utility.yul\":3713:3719   */\n      dup4\n        /* \"#utility.yul\":3625:3725   */\n      tag_237\n      jump\t// in\n    tag_236:\n        /* \"#utility.yul\":3757:3763   */\n      0x0100\n        /* \"#utility.yul\":3752:3755   */\n      dup4\n        /* \"#utility.yul\":3748:3764   */\n      add\n        /* \"#utility.yul\":3734:3764   */\n      swap1\n      pop\n        /* \"#utility.yul\":3481:3770   */\n      swap3\n      swap2\n      pop\n      pop\n      jump\t// out\n        /* \"#utility.yul\":3776:3884   */\n    tag_238:\n        /* \"#utility.yul\":3853:3877   */\n      tag_240\n        /* \"#utility.yul\":3871:3876   */\n      dup2\n        /* \"#utility.yul\":3853:3877   */\n      tag_241\n      jump\t// in\n    tag_240:\n        /* \"#utility.yul\":3848:3851   */\n      dup3\n        /* \"#utility.yul\":3841:3878   */\n      mstore\n        /* \"#utility.yul\":3776:3884   */\n      pop\n      pop\n      jump\t// out\n        /* \"#utility.yul\":3890:4008   */\n    tag_242:\n        /* \"#utility.yul\":3977:4001   */\n      tag_244\n        /* \"#utility.yul\":3995:4000   */\n      dup2\n        /* \"#utility.yul\":3977:4001   */\n      tag_241\n      jump\t// in\n    tag_244:\n        /* \"#utility.yul\":3972:3975   */\n      dup3\n        /* \"#utility.yul\":3965:4002   */\n      mstore\n        /* \"#utility.yul\":3890:4008   */\n      pop\n      pop\n      jump\t// out\n        /* \"#utility.yul\":4096:5044   */\n    tag_245:\n        /* \"#utility.yul\":4269:4272   */\n      0x00\n        /* \"#utility.yul\":4298:4379   */\n      tag_247\n        /* \"#utility.yul\":4373:4378   */\n      dup3\n        /* \"#utility.yul\":4298:4379   */\n      tag_248\n      jump\t// in\n    tag_247:\n        /* \"#utility.yul\":4395:4508   */\n      tag_249\n        /* \"#utility.yul\":4501:4507   */\n      dup2\n        /* \"#utility.yul\":4496:4499   */\n      dup6\n        /* \"#utility.yul\":4395:4508   */\n      tag_250\n      jump\t// in\n    tag_249:\n        /* \"#utility.yul\":4388:4508   */\n      swap4\n      pop\n        /* \"#utility.yul\":4532:4615   */\n      tag_251\n        /* \"#utility.yul\":4609:4614   */\n      dup4\n        /* \"#utility.yul\":4532:4615   */\n      tag_252\n      jump\t// in\n    tag_251:\n        /* \"#utility.yul\":4638:4645   */\n      dup1\n        /* \"#utility.yul\":4669:4670   */\n      0x00\n        /* \"#utility.yul\":4654:5019   */\n    tag_253:\n        /* \"#utility.yul\":4679:4685   */\n      dup4\n        /* \"#utility.yul\":4676:4677   */\n      dup2\n        /* \"#utility.yul\":4673:4686   */\n      lt\n        /* \"#utility.yul\":4654:5019   */\n      iszero\n      tag_255\n      jumpi\n        /* \"#utility.yul\":4755:4761   */\n      dup2\n        /* \"#utility.yul\":4749:4762   */\n      mload\n        /* \"#utility.yul\":4782:4899   */\n      tag_256\n        /* \"#utility.yul\":4895:4898   */\n      dup9\n        /* \"#utility.yul\":4880:4893   */\n      dup3\n        /* \"#utility.yul\":4782:4899   */\n      tag_234\n      jump\t// in\n    tag_256:\n        /* \"#utility.yul\":4775:4899   */\n      swap8\n      pop\n        /* \"#utility.yul\":4922:5009   */\n      tag_257\n        /* \"#utility.yul\":5002:5008   */\n      dup4\n        /* \"#utility.yul\":4922:5009   */\n      tag_258\n      jump\t// in\n    tag_257:\n        /* \"#utility.yul\":4912:5009   */\n      swap3\n      pop\n        /* \"#utility.yul\":4714:5019   */\n      pop\n        /* \"#utility.yul\":4701:4702   */\n      0x01\n        /* \"#utility.yul\":4698:4699   */\n      dup2\n        /* \"#utility.yul\":4694:4703   */\n      add\n        /* \"#utility.yul\":4689:4703   */\n      swap1\n      pop\n        /* \"#utility.yul\":4654:5019   */\n      jump(tag_253)\n    tag_255:\n        /* \"#utility.yul\":4658:4672   */\n      pop\n        /* \"#utility.yul\":5035:5038   */\n      dup6\n        /* \"#utility.yul\":5028:5038   */\n      swap4\n      pop\n        /* \"#utility.yul\":4274:5044   */\n      pop\n      pop\n      pop\n        /* \"#utility.yul\":4096:5044   */\n      swap3\n      swap2\n      pop\n      pop\n      jump\t// out\n        /* \"#utility.yul\":5050:5149   */\n    tag_259:\n        /* \"#utility.yul\":5121:5142   */\n      tag_261\n        /* \"#utility.yul\":5136:5141   */\n      dup2\n        /* \"#utility.yul\":5121:5142   */\n      tag_262\n      jump\t// in\n    tag_261:\n        /* \"#utility.yul\":5116:5119   */\n      dup3\n        /* \"#utility.yul\":5109:5143   */\n      mstore\n        /* \"#utility.yul\":5050:5149   */\n      pop\n      pop\n      jump\t// out\n        /* \"#utility.yul\":5155:5264   */\n    tag_263:\n        /* \"#utility.yul\":5236:5257   */\n      tag_265\n        /* \"#utility.yul\":5251:5256   */\n      dup2\n        /* \"#utility.yul\":5236:5257   */\n      tag_262\n      jump\t// in\n    tag_265:\n        /* \"#utility.yul\":5231:5234   */\n      dup3\n        /* \"#utility.yul\":5224:5258   */\n      mstore\n        /* \"#utility.yul\":5155:5264   */\n      pop\n      pop\n      jump\t// out\n        /* \"#utility.yul\":5270:5385   */\n    tag_266:\n        /* \"#utility.yul\":5355:5378   */\n      tag_268\n        /* \"#utility.yul\":5372:5377   */\n      dup2\n        /* \"#utility.yul\":5355:5378   */\n      tag_269\n      jump\t// in\n    tag_268:\n        /* \"#utility.yul\":5350:5353   */\n      dup3\n        /* \"#utility.yul\":5343:5379   */\n      mstore\n        /* \"#utility.yul\":5270:5385   */\n      pop\n      pop\n      jump\t// out\n        /* \"#utility.yul\":5391:5757   */\n    tag_270:\n        /* \"#utility.yul\":5533:5536   */\n      0x00\n        /* \"#utility.yul\":5554:5621   */\n      tag_272\n        /* \"#utility.yul\":5618:5620   */\n      0x1b\n        /* \"#utility.yul\":5613:5616   */\n      dup4\n        /* \"#utility.yul\":5554:5621   */\n      tag_273\n      jump\t// in\n    tag_272:\n        /* \"#utility.yul\":5547:5621   */\n      swap2\n      pop\n        /* \"#utility.yul\":5630:5723   */\n      tag_274\n        /* \"#utility.yul\":5719:5722   */\n      dup3\n        /* \"#utility.yul\":5630:5723   */\n      tag_275\n      jump\t// in\n    tag_274:\n        /* \"#utility.yul\":5748:5750   */\n      0x20\n        /* \"#utility.yul\":5743:5746   */\n      dup3\n        /* \"#utility.yul\":5739:5751   */\n      add\n        /* \"#utility.yul\":5732:5751   */\n      swap1\n      pop\n        /* \"#utility.yul\":5391:5757   */\n      swap2\n      swap1\n      pop\n      jump\t// out\n        /* \"#utility.yul\":5763:6129   */\n    tag_276:\n        /* \"#utility.yul\":5905:5908   */\n      0x00\n        /* \"#utility.yul\":5926:5993   */\n      tag_278\n        /* \"#utility.yul\":5990:5992   */\n      0x2e\n        /* \"#utility.yul\":5985:5988   */\n      dup4\n        /* \"#utility.yul\":5926:5993   */\n      tag_273\n      jump\t// in\n    tag_278:\n        /* \"#utility.yul\":5919:5993   */\n      swap2\n      pop\n        /* \"#utility.yul\":6002:6095   */\n      tag_279\n        /* \"#utility.yul\":6091:6094   */\n      dup3\n        /* \"#utility.yul\":6002:6095   */\n      tag_280\n      jump\t// in\n    tag_279:\n        /* \"#utility.yul\":6120:6122   */\n      0x40\n        /* \"#utility.yul\":6115:6118   */\n      dup3\n        /* \"#utility.yul\":6111:6123   */\n      add\n        /* \"#utility.yul\":6104:6123   */\n      swap1\n      pop\n        /* \"#utility.yul\":5763:6129   */\n      swap2\n      swap1\n      pop\n      jump\t// out\n        /* \"#utility.yul\":6135:6501   */\n    tag_281:\n        /* \"#utility.yul\":6277:6280   */\n      0x00\n        /* \"#utility.yul\":6298:6365   */\n      tag_283\n        /* \"#utility.yul\":6362:6364   */\n      0x26\n        /* \"#utility.yul\":6357:6360   */\n      dup4\n        /* \"#utility.yul\":6298:6365   */\n      tag_273\n      jump\t// in\n    tag_283:\n        /* \"#utility.yul\":6291:6365   */\n      swap2\n      pop\n        /* \"#utility.yul\":6374:6467   */\n      tag_284\n        /* \"#utility.yul\":6463:6466   */\n      dup3\n        /* \"#utility.yul\":6374:6467   */\n      tag_285\n      jump\t// in\n    tag_284:\n        /* \"#utility.yul\":6492:6494   */\n      0x40\n        /* \"#utility.yul\":6487:6490   */\n      dup3\n        /* \"#utility.yul\":6483:6495   */\n      add\n        /* \"#utility.yul\":6476:6495   */\n      swap1\n      pop\n        /* \"#utility.yul\":6135:6501   */\n      swap2\n      swap1\n      pop\n      jump\t// out\n        /* \"#utility.yul\":6507:6873   */\n    tag_286:\n        /* \"#utility.yul\":6649:6652   */\n      0x00\n        /* \"#utility.yul\":6670:6737   */\n      tag_288\n        /* \"#utility.yul\":6734:6736   */\n      0x11\n        /* \"#utility.yul\":6729:6732   */\n      dup4\n        /* \"#utility.yul\":6670:6737   */\n      tag_273\n      jump\t// in\n    tag_288:\n        /* \"#utility.yul\":6663:6737   */\n      swap2\n      pop\n        /* \"#utility.yul\":6746:6839   */\n      tag_289\n        /* \"#utility.yul\":6835:6838   */\n      dup3\n        /* \"#utility.yul\":6746:6839   */\n      tag_290\n      jump\t// in\n    tag_289:\n        /* \"#utility.yul\":6864:6866   */\n      0x20\n        /* \"#utility.yul\":6859:6862   */\n      dup3\n        /* \"#utility.yul\":6855:6867   */\n      add\n        /* \"#utility.yul\":6848:6867   */\n      swap1\n      pop\n        /* \"#utility.yul\":6507:6873   */\n      swap2\n      swap1\n      pop\n      jump\t// out\n        /* \"#utility.yul\":6879:7245   */\n    tag_291:\n        /* \"#utility.yul\":7021:7024   */\n      0x00\n        /* \"#utility.yul\":7042:7109   */\n      tag_293\n        /* \"#utility.yul\":7106:7108   */\n      0x20\n        /* \"#utility.yul\":7101:7104   */\n      dup4\n        /* \"#utility.yul\":7042:7109   */\n      tag_273\n      jump\t// in\n    tag_293:\n        /* \"#utility.yul\":7035:7109   */\n      swap2\n      pop\n        /* \"#utility.yul\":7118:7211   */\n      tag_294\n        /* \"#utility.yul\":7207:7210   */\n      dup3\n        /* \"#utility.yul\":7118:7211   */\n      tag_295\n      jump\t// in\n    tag_294:\n        /* \"#utility.yul\":7236:7238   */\n      0x20\n        /* \"#utility.yul\":7231:7234   */\n      dup3\n        /* \"#utility.yul\":7227:7239   */\n      add\n        /* \"#utility.yul\":7220:7239   */\n      swap1\n      pop\n        /* \"#utility.yul\":6879:7245   */\n      swap2\n      swap1\n      pop\n      jump\t// out\n        /* \"#utility.yul\":7251:7617   */\n    tag_296:\n        /* \"#utility.yul\":7393:7396   */\n      0x00\n        /* \"#utility.yul\":7414:7481   */\n      tag_298\n        /* \"#utility.yul\":7478:7480   */\n      0x20\n        /* \"#utility.yul\":7473:7476   */\n      dup4\n        /* \"#utility.yul\":7414:7481   */\n      tag_273\n      jump\t// in\n    tag_298:\n        /* \"#utility.yul\":7407:7481   */\n      swap2\n      pop\n        /* \"#utility.yul\":7490:7583   */\n      tag_299\n        /* \"#utility.yul\":7579:7582   */\n      dup3\n        /* \"#utility.yul\":7490:7583   */\n      tag_300\n      jump\t// in\n    tag_299:\n        /* \"#utility.yul\":7608:7610   */\n      0x20\n        /* \"#utility.yul\":7603:7606   */\n      dup3\n        /* \"#utility.yul\":7599:7611   */\n      add\n        /* \"#utility.yul\":7592:7611   */\n      swap1\n      pop\n        /* \"#utility.yul\":7251:7617   */\n      swap2\n      swap1\n      pop\n      jump\t// out\n        /* \"#utility.yul\":7623:7989   */\n    tag_301:\n        /* \"#utility.yul\":7765:7768   */\n      0x00\n        /* \"#utility.yul\":7786:7853   */\n      tag_303\n        /* \"#utility.yul\":7850:7852   */\n      0x14\n        /* \"#utility.yul\":7845:7848   */\n      dup4\n        /* \"#utility.yul\":7786:7853   */\n      tag_273\n      jump\t// in\n    tag_303:\n        /* \"#utility.yul\":7779:7853   */\n      swap2\n      pop\n        /* \"#utility.yul\":7862:7955   */\n      tag_304\n        /* \"#utility.yul\":7951:7954   */\n      dup3\n        /* \"#utility.yul\":7862:7955   */\n      tag_305\n      jump\t// in\n    tag_304:\n        /* \"#utility.yul\":7980:7982   */\n      0x20\n        /* \"#utility.yul\":7975:7978   */\n      dup3\n        /* \"#utility.yul\":7971:7983   */\n      add\n        /* \"#utility.yul\":7964:7983   */\n      swap1\n      pop\n        /* \"#utility.yul\":7623:7989   */\n      swap2\n      swap1\n      pop\n      jump\t// out\n        /* \"#utility.yul\":7995:8361   */\n    tag_306:\n        /* \"#utility.yul\":8137:8140   */\n      0x00\n        /* \"#utility.yul\":8158:8225   */\n      tag_308\n        /* \"#utility.yul\":8222:8224   */\n      0x1f\n        /* \"#utility.yul\":8217:8220   */\n      dup4\n        /* \"#utility.yul\":8158:8225   */\n      tag_273\n      jump\t// in\n    tag_308:\n        /* \"#utility.yul\":8151:8225   */\n      swap2\n      pop\n        /* \"#utility.yul\":8234:8327   */\n      tag_309\n        /* \"#utility.yul\":8323:8326   */\n      dup3\n        /* \"#utility.yul\":8234:8327   */\n      tag_310\n      jump\t// in\n    tag_309:\n        /* \"#utility.yul\":8352:8354   */\n      0x20\n        /* \"#utility.yul\":8347:8350   */\n      dup3\n        /* \"#utility.yul\":8343:8355   */\n      add\n        /* \"#utility.yul\":8336:8355   */\n      swap1\n      pop\n        /* \"#utility.yul\":7995:8361   */\n      swap2\n      swap1\n      pop\n      jump\t// out\n        /* \"#utility.yul\":8367:8733   */\n    tag_311:\n        /* \"#utility.yul\":8509:8512   */\n      0x00\n        /* \"#utility.yul\":8530:8597   */\n      tag_313\n        /* \"#utility.yul\":8594:8596   */\n      0x1c\n        /* \"#utility.yul\":8589:8592   */\n      dup4\n        /* \"#utility.yul\":8530:8597   */\n      tag_273\n      jump\t// in\n    tag_313:\n        /* \"#utility.yul\":8523:8597   */\n      swap2\n      pop\n        /* \"#utility.yul\":8606:8699   */\n      tag_314\n        /* \"#utility.yul\":8695:8698   */\n      dup3\n        /* \"#utility.yul\":8606:8699   */\n      tag_315\n      jump\t// in\n    tag_314:\n        /* \"#utility.yul\":8724:8726   */\n      0x20\n        /* \"#utility.yul\":8719:8722   */\n      dup3\n        /* \"#utility.yul\":8715:8727   */\n      add\n        /* \"#utility.yul\":8708:8727   */\n      swap1\n      pop\n        /* \"#utility.yul\":8367:8733   */\n      swap2\n      swap1\n      pop\n      jump\t// out\n        /* \"#utility.yul\":8817:10366   */\n    tag_237:\n        /* \"#utility.yul\":8958:8964   */\n      0x0100\n        /* \"#utility.yul\":8953:8956   */\n      dup3\n        /* \"#utility.yul\":8949:8965   */\n      add\n        /* \"#utility.yul\":9049:9053   */\n      0x00\n        /* \"#utility.yul\":9042:9047   */\n      dup3\n        /* \"#utility.yul\":9038:9054   */\n      add\n        /* \"#utility.yul\":9032:9055   */\n      mload\n        /* \"#utility.yul\":9068:9131   */\n      tag_317\n        /* \"#utility.yul\":9125:9129   */\n      0x00\n        /* \"#utility.yul\":9120:9123   */\n      dup6\n        /* \"#utility.yul\":9116:9130   */\n      add\n        /* \"#utility.yul\":9102:9114   */\n      dup3\n        /* \"#utility.yul\":9068:9131   */\n      tag_318\n      jump\t// in\n    tag_317:\n        /* \"#utility.yul\":8975:9141   */\n      pop\n        /* \"#utility.yul\":9226:9230   */\n      0x20\n        /* \"#utility.yul\":9219:9224   */\n      dup3\n        /* \"#utility.yul\":9215:9231   */\n      add\n        /* \"#utility.yul\":9209:9232   */\n      mload\n        /* \"#utility.yul\":9245:9308   */\n      tag_319\n        /* \"#utility.yul\":9302:9306   */\n      0x20\n        /* \"#utility.yul\":9297:9300   */\n      dup6\n        /* \"#utility.yul\":9293:9307   */\n      add\n        /* \"#utility.yul\":9279:9291   */\n      dup3\n        /* \"#utility.yul\":9245:9308   */\n      tag_318\n      jump\t// in\n    tag_319:\n        /* \"#utility.yul\":9151:9318   */\n      pop\n        /* \"#utility.yul\":9402:9406   */\n      0x40\n        /* \"#utility.yul\":9395:9400   */\n      dup3\n        /* \"#utility.yul\":9391:9407   */\n      add\n        /* \"#utility.yul\":9385:9408   */\n      mload\n        /* \"#utility.yul\":9421:9484   */\n      tag_320\n        /* \"#utility.yul\":9478:9482   */\n      0x40\n        /* \"#utility.yul\":9473:9476   */\n      dup6\n        /* \"#utility.yul\":9469:9483   */\n      add\n        /* \"#utility.yul\":9455:9467   */\n      dup3\n        /* \"#utility.yul\":9421:9484   */\n      tag_238\n      jump\t// in\n    tag_320:\n        /* \"#utility.yul\":9328:9494   */\n      pop\n        /* \"#utility.yul\":9577:9581   */\n      0x60\n        /* \"#utility.yul\":9570:9575   */\n      dup3\n        /* \"#utility.yul\":9566:9582   */\n      add\n        /* \"#utility.yul\":9560:9583   */\n      mload\n        /* \"#utility.yul\":9596:9659   */\n      tag_321\n        /* \"#utility.yul\":9653:9657   */\n      0x60\n        /* \"#utility.yul\":9648:9651   */\n      dup6\n        /* \"#utility.yul\":9644:9658   */\n      add\n        /* \"#utility.yul\":9630:9642   */\n      dup3\n        /* \"#utility.yul\":9596:9659   */\n      tag_238\n      jump\t// in\n    tag_321:\n        /* \"#utility.yul\":9504:9669   */\n      pop\n        /* \"#utility.yul\":9752:9756   */\n      0x80\n        /* \"#utility.yul\":9745:9750   */\n      dup3\n        /* \"#utility.yul\":9741:9757   */\n      add\n        /* \"#utility.yul\":9735:9758   */\n      mload\n        /* \"#utility.yul\":9771:9834   */\n      tag_322\n        /* \"#utility.yul\":9828:9832   */\n      0x80\n        /* \"#utility.yul\":9823:9826   */\n      dup6\n        /* \"#utility.yul\":9819:9833   */\n      add\n        /* \"#utility.yul\":9805:9817   */\n      dup3\n        /* \"#utility.yul\":9771:9834   */\n      tag_318\n      jump\t// in\n    tag_322:\n        /* \"#utility.yul\":9679:9844   */\n      pop\n        /* \"#utility.yul\":9928:9932   */\n      0xa0\n        /* \"#utility.yul\":9921:9926   */\n      dup3\n        /* \"#utility.yul\":9917:9933   */\n      add\n        /* \"#utility.yul\":9911:9934   */\n      mload\n        /* \"#utility.yul\":9947:10004   */\n      tag_323\n        /* \"#utility.yul\":9998:10002   */\n      0xa0\n        /* \"#utility.yul\":9993:9996   */\n      dup6\n        /* \"#utility.yul\":9989:10003   */\n      add\n        /* \"#utility.yul\":9975:9987   */\n      dup3\n        /* \"#utility.yul\":9947:10004   */\n      tag_259\n      jump\t// in\n    tag_323:\n        /* \"#utility.yul\":9854:10014   */\n      pop\n        /* \"#utility.yul\":10103:10107   */\n      0xc0\n        /* \"#utility.yul\":10096:10101   */\n      dup3\n        /* \"#utility.yul\":10092:10108   */\n      add\n        /* \"#utility.yul\":10086:10109   */\n      mload\n        /* \"#utility.yul\":10122:10179   */\n      tag_324\n        /* \"#utility.yul\":10173:10177   */\n      0xc0\n        /* \"#utility.yul\":10168:10171   */\n      dup6\n        /* \"#utility.yul\":10164:10178   */\n      add\n        /* \"#utility.yul\":10150:10162   */\n      dup3\n        /* \"#utility.yul\":10122:10179   */\n      tag_259\n      jump\t// in\n    tag_324:\n        /* \"#utility.yul\":10024:10189   */\n      pop\n        /* \"#utility.yul\":10273:10277   */\n      0xe0\n        /* \"#utility.yul\":10266:10271   */\n      dup3\n        /* \"#utility.yul\":10262:10278   */\n      add\n        /* \"#utility.yul\":10256:10279   */\n      mload\n        /* \"#utility.yul\":10292:10349   */\n      tag_325\n        /* \"#utility.yul\":10343:10347   */\n      0xe0\n        /* \"#utility.yul\":10338:10341   */\n      dup6\n        /* \"#utility.yul\":10334:10348   */\n      add\n        /* \"#utility.yul\":10320:10332   */\n      dup3\n        /* \"#utility.yul\":10292:10349   */\n      tag_259\n      jump\t// in\n    tag_325:\n        /* \"#utility.yul\":10199:10359   */\n      pop\n        /* \"#utility.yul\":8927:10366   */\n      pop\n        /* \"#utility.yul\":8817:10366   */\n      pop\n      pop\n      jump\t// out\n        /* \"#utility.yul\":10450:12009   */\n    tag_326:\n        /* \"#utility.yul\":10601:10607   */\n      0x0100\n        /* \"#utility.yul\":10596:10599   */\n      dup3\n        /* \"#utility.yul\":10592:10608   */\n      add\n        /* \"#utility.yul\":10692:10696   */\n      0x00\n        /* \"#utility.yul\":10685:10690   */\n      dup3\n        /* \"#utility.yul\":10681:10697   */\n      add\n        /* \"#utility.yul\":10675:10698   */\n      mload\n        /* \"#utility.yul\":10711:10774   */\n      tag_328\n        /* \"#utility.yul\":10768:10772   */\n      0x00\n        /* \"#utility.yul\":10763:10766   */\n      dup6\n        /* \"#utility.yul\":10759:10773   */\n      add\n        /* \"#utility.yul\":10745:10757   */\n      dup3\n        /* \"#utility.yul\":10711:10774   */\n      tag_318\n      jump\t// in\n    tag_328:\n        /* \"#utility.yul\":10618:10784   */\n      pop\n        /* \"#utility.yul\":10869:10873   */\n      0x20\n        /* \"#utility.yul\":10862:10867   */\n      dup3\n        /* \"#utility.yul\":10858:10874   */\n      add\n        /* \"#utility.yul\":10852:10875   */\n      mload\n        /* \"#utility.yul\":10888:10951   */\n      tag_329\n        /* \"#utility.yul\":10945:10949   */\n      0x20\n        /* \"#utility.yul\":10940:10943   */\n      dup6\n        /* \"#utility.yul\":10936:10950   */\n      add\n        /* \"#utility.yul\":10922:10934   */\n      dup3\n        /* \"#utility.yul\":10888:10951   */\n      tag_318\n      jump\t// in\n    tag_329:\n        /* \"#utility.yul\":10794:10961   */\n      pop\n        /* \"#utility.yul\":11045:11049   */\n      0x40\n        /* \"#utility.yul\":11038:11043   */\n      dup3\n        /* \"#utility.yul\":11034:11050   */\n      add\n        /* \"#utility.yul\":11028:11051   */\n      mload\n        /* \"#utility.yul\":11064:11127   */\n      tag_330\n        /* \"#utility.yul\":11121:11125   */\n      0x40\n        /* \"#utility.yul\":11116:11119   */\n      dup6\n        /* \"#utility.yul\":11112:11126   */\n      add\n        /* \"#utility.yul\":11098:11110   */\n      dup3\n        /* \"#utility.yul\":11064:11127   */\n      tag_238\n      jump\t// in\n    tag_330:\n        /* \"#utility.yul\":10971:11137   */\n      pop\n        /* \"#utility.yul\":11220:11224   */\n      0x60\n        /* \"#utility.yul\":11213:11218   */\n      dup3\n        /* \"#utility.yul\":11209:11225   */\n      add\n        /* \"#utility.yul\":11203:11226   */\n      mload\n        /* \"#utility.yul\":11239:11302   */\n      tag_331\n        /* \"#utility.yul\":11296:11300   */\n      0x60\n        /* \"#utility.yul\":11291:11294   */\n      dup6\n        /* \"#utility.yul\":11287:11301   */\n      add\n        /* \"#utility.yul\":11273:11285   */\n      dup3\n        /* \"#utility.yul\":11239:11302   */\n      tag_238\n      jump\t// in\n    tag_331:\n        /* \"#utility.yul\":11147:11312   */\n      pop\n        /* \"#utility.yul\":11395:11399   */\n      0x80\n        /* \"#utility.yul\":11388:11393   */\n      dup3\n        /* \"#utility.yul\":11384:11400   */\n      add\n        /* \"#utility.yul\":11378:11401   */\n      mload\n        /* \"#utility.yul\":11414:11477   */\n      tag_332\n        /* \"#utility.yul\":11471:11475   */\n      0x80\n        /* \"#utility.yul\":11466:11469   */\n      dup6\n        /* \"#utility.yul\":11462:11476   */\n      add\n        /* \"#utility.yul\":11448:11460   */\n      dup3\n        /* \"#utility.yul\":11414:11477   */\n      tag_318\n      jump\t// in\n    tag_332:\n        /* \"#utility.yul\":11322:11487   */\n      pop\n        /* \"#utility.yul\":11571:11575   */\n      0xa0\n        /* \"#utility.yul\":11564:11569   */\n      dup3\n        /* \"#utility.yul\":11560:11576   */\n      add\n        /* \"#utility.yul\":11554:11577   */\n      mload\n        /* \"#utility.yul\":11590:11647   */\n      tag_333\n        /* \"#utility.yul\":11641:11645   */\n      0xa0\n        /* \"#utility.yul\":11636:11639   */\n      dup6\n        /* \"#utility.yul\":11632:11646   */\n      add\n        /* \"#utility.yul\":11618:11630   */\n      dup3\n        /* \"#utility.yul\":11590:11647   */\n      tag_259\n      jump\t// in\n    tag_333:\n        /* \"#utility.yul\":11497:11657   */\n      pop\n        /* \"#utility.yul\":11746:11750   */\n      0xc0\n        /* \"#utility.yul\":11739:11744   */\n      dup3\n        /* \"#utility.yul\":11735:11751   */\n      add\n        /* \"#utility.yul\":11729:11752   */\n      mload\n        /* \"#utility.yul\":11765:11822   */\n      tag_334\n        /* \"#utility.yul\":11816:11820   */\n      0xc0\n        /* \"#utility.yul\":11811:11814   */\n      dup6\n        /* \"#utility.yul\":11807:11821   */\n      add\n        /* \"#utility.yul\":11793:11805   */\n      dup3\n        /* \"#utility.yul\":11765:11822   */\n      tag_259\n      jump\t// in\n    tag_334:\n        /* \"#utility.yul\":11667:11832   */\n      pop\n        /* \"#utility.yul\":11916:11920   */\n      0xe0\n        /* \"#utility.yul\":11909:11914   */\n      dup3\n        /* \"#utility.yul\":11905:11921   */\n      add\n        /* \"#utility.yul\":11899:11922   */\n      mload\n        /* \"#utility.yul\":11935:11992   */\n      tag_335\n        /* \"#utility.yul\":11986:11990   */\n      0xe0\n        /* \"#utility.yul\":11981:11984   */\n      dup6\n        /* \"#utility.yul\":11977:11991   */\n      add\n        /* \"#utility.yul\":11963:11975   */\n      dup3\n        /* \"#utility.yul\":11935:11992   */\n      tag_259\n      jump\t// in\n    tag_335:\n        /* \"#utility.yul\":11842:12002   */\n      pop\n        /* \"#utility.yul\":10570:12009   */\n      pop\n        /* \"#utility.yul\":10450:12009   */\n      pop\n      pop\n      jump\t// out\n        /* \"#utility.yul\":12015:12123   */\n    tag_318:\n        /* \"#utility.yul\":12092:12116   */\n      tag_337\n        /* \"#utility.yul\":12110:12115   */\n      dup2\n        /* \"#utility.yul\":12092:12116   */\n      tag_338\n      jump\t// in\n    tag_337:\n        /* \"#utility.yul\":12087:12090   */\n      dup3\n        /* \"#utility.yul\":12080:12117   */\n      mstore\n        /* \"#utility.yul\":12015:12123   */\n      pop\n      pop\n      jump\t// out\n        /* \"#utility.yul\":12129:12247   */\n    tag_339:\n        /* \"#utility.yul\":12216:12240   */\n      tag_341\n        /* \"#utility.yul\":12234:12239   */\n      dup2\n        /* \"#utility.yul\":12216:12240   */\n      tag_338\n      jump\t// in\n    tag_341:\n        /* \"#utility.yul\":12211:12214   */\n      dup3\n        /* \"#utility.yul\":12204:12241   */\n      mstore\n        /* \"#utility.yul\":12129:12247   */\n      pop\n      pop\n      jump\t// out\n        /* \"#utility.yul\":12253:12475   */\n    tag_35:\n        /* \"#utility.yul\":12346:12350   */\n      0x00\n        /* \"#utility.yul\":12384:12386   */\n      0x20\n        /* \"#utility.yul\":12373:12382   */\n      dup3\n        /* \"#utility.yul\":12369:12387   */\n      add\n        /* \"#utility.yul\":12361:12387   */\n      swap1\n      pop\n        /* \"#utility.yul\":12397:12468   */\n      tag_343\n        /* \"#utility.yul\":12465:12466   */\n      0x00\n        /* \"#utility.yul\":12454:12463   */\n      dup4\n        /* \"#utility.yul\":12450:12467   */\n      add\n        /* \"#utility.yul\":12441:12447   */\n      dup5\n        /* \"#utility.yul\":12397:12468   */\n      tag_242\n      jump\t// in\n    tag_343:\n        /* \"#utility.yul\":12253:12475   */\n      swap3\n      swap2\n      pop\n      pop\n      jump\t// out\n        /* \"#utility.yul\":12481:12923   */\n    tag_100:\n        /* \"#utility.yul\":12630:12634   */\n      0x00\n        /* \"#utility.yul\":12668:12670   */\n      0x60\n        /* \"#utility.yul\":12657:12666   */\n      dup3\n        /* \"#utility.yul\":12653:12671   */\n      add\n        /* \"#utility.yul\":12645:12671   */\n      swap1\n      pop\n        /* \"#utility.yul\":12681:12752   */\n      tag_345\n        /* \"#utility.yul\":12749:12750   */\n      0x00\n        /* \"#utility.yul\":12738:12747   */\n      dup4\n        /* \"#utility.yul\":12734:12751   */\n      add\n        /* \"#utility.yul\":12725:12731   */\n      dup7\n        /* \"#utility.yul\":12681:12752   */\n      tag_242\n      jump\t// in\n    tag_345:\n        /* \"#utility.yul\":12762:12834   */\n      tag_346\n        /* \"#utility.yul\":12830:12832   */\n      0x20\n        /* \"#utility.yul\":12819:12828   */\n      dup4\n        /* \"#utility.yul\":12815:12833   */\n      add\n        /* \"#utility.yul\":12806:12812   */\n      dup6\n        /* \"#utility.yul\":12762:12834   */\n      tag_242\n      jump\t// in\n    tag_346:\n        /* \"#utility.yul\":12844:12916   */\n      tag_347\n        /* \"#utility.yul\":12912:12914   */\n      0x40\n        /* \"#utility.yul\":12901:12910   */\n      dup4\n        /* \"#utility.yul\":12897:12915   */\n      add\n        /* \"#utility.yul\":12888:12894   */\n      dup5\n        /* \"#utility.yul\":12844:12916   */\n      tag_339\n      jump\t// in\n    tag_347:\n        /* \"#utility.yul\":12481:12923   */\n      swap5\n      swap4\n      pop\n      pop\n      pop\n      pop\n      jump\t// out\n        /* \"#utility.yul\":12929:13410   */\n    tag_49:\n        /* \"#utility.yul\":13126:13130   */\n      0x00\n        /* \"#utility.yul\":13164:13166   */\n      0x20\n        /* \"#utility.yul\":13153:13162   */\n      dup3\n        /* \"#utility.yul\":13149:13167   */\n      add\n        /* \"#utility.yul\":13141:13167   */\n      swap1\n      pop\n        /* \"#utility.yul\":13213:13222   */\n      dup2\n        /* \"#utility.yul\":13207:13211   */\n      dup2\n        /* \"#utility.yul\":13203:13223   */\n      sub\n        /* \"#utility.yul\":13199:13200   */\n      0x00\n        /* \"#utility.yul\":13188:13197   */\n      dup4\n        /* \"#utility.yul\":13184:13201   */\n      add\n        /* \"#utility.yul\":13177:13224   */\n      mstore\n        /* \"#utility.yul\":13241:13403   */\n      tag_349\n        /* \"#utility.yul\":13398:13402   */\n      dup2\n        /* \"#utility.yul\":13389:13395   */\n      dup5\n        /* \"#utility.yul\":13241:13403   */\n      tag_245\n      jump\t// in\n    tag_349:\n        /* \"#utility.yul\":13233:13403   */\n      swap1\n      pop\n        /* \"#utility.yul\":12929:13410   */\n      swap3\n      swap2\n      pop\n      pop\n      jump\t// out\n        /* \"#utility.yul\":13416:13634   */\n    tag_23:\n        /* \"#utility.yul\":13507:13511   */\n      0x00\n        /* \"#utility.yul\":13545:13547   */\n      0x20\n        /* \"#utility.yul\":13534:13543   */\n      dup3\n        /* \"#utility.yul\":13530:13548   */\n      add\n        /* \"#utility.yul\":13522:13548   */\n      swap1\n      pop\n        /* \"#utility.yul\":13558:13627   */\n      tag_351\n        /* \"#utility.yul\":13624:13625   */\n      0x00\n        /* \"#utility.yul\":13613:13622   */\n      dup4\n        /* \"#utility.yul\":13609:13626   */\n      add\n        /* \"#utility.yul\":13600:13606   */\n      dup5\n        /* \"#utility.yul\":13558:13627   */\n      tag_266\n      jump\t// in\n    tag_351:\n        /* \"#utility.yul\":13416:13634   */\n      swap3\n      swap2\n      pop\n      pop\n      jump\t// out\n        /* \"#utility.yul\":13640:14059   */\n    tag_119:\n        /* \"#utility.yul\":13806:13810   */\n      0x00\n        /* \"#utility.yul\":13844:13846   */\n      0x20\n        /* \"#utility.yul\":13833:13842   */\n      dup3\n        /* \"#utility.yul\":13829:13847   */\n      add\n        /* \"#utility.yul\":13821:13847   */\n      swap1\n      pop\n        /* \"#utility.yul\":13893:13902   */\n      dup2\n        /* \"#utility.yul\":13887:13891   */\n      dup2\n        /* \"#utility.yul\":13883:13903   */\n      sub\n        /* \"#utility.yul\":13879:13880   */\n      0x00\n        /* \"#utility.yul\":13868:13877   */\n      dup4\n        /* \"#utility.yul\":13864:13881   */\n      add\n        /* \"#utility.yul\":13857:13904   */\n      mstore\n        /* \"#utility.yul\":13921:14052   */\n      tag_353\n        /* \"#utility.yul\":14047:14051   */\n      dup2\n        /* \"#utility.yul\":13921:14052   */\n      tag_270\n      jump\t// in\n    tag_353:\n        /* \"#utility.yul\":13913:14052   */\n      swap1\n      pop\n        /* \"#utility.yul\":13640:14059   */\n      swap2\n      swap1\n      pop\n      jump\t// out\n        /* \"#utility.yul\":14065:14484   */\n    tag_94:\n        /* \"#utility.yul\":14231:14235   */\n      0x00\n        /* \"#utility.yul\":14269:14271   */\n      0x20\n        /* \"#utility.yul\":14258:14267   */\n      dup3\n        /* \"#utility.yul\":14254:14272   */\n      add\n        /* \"#utility.yul\":14246:14272   */\n      swap1\n      pop\n        /* \"#utility.yul\":14318:14327   */\n      dup2\n        /* \"#utility.yul\":14312:14316   */\n      dup2\n        /* \"#utility.yul\":14308:14328   */\n      sub\n        /* \"#utility.yul\":14304:14305   */\n      0x00\n        /* \"#utility.yul\":14293:14302   */\n      dup4\n        /* \"#utility.yul\":14289:14306   */\n      add\n        /* \"#utility.yul\":14282:14329   */\n      mstore\n        /* \"#utility.yul\":14346:14477   */\n      tag_355\n        /* \"#utility.yul\":14472:14476   */\n      dup2\n        /* \"#utility.yul\":14346:14477   */\n      tag_276\n      jump\t// in\n    tag_355:\n        /* \"#utility.yul\":14338:14477   */\n      swap1\n      pop\n        /* \"#utility.yul\":14065:14484   */\n      swap2\n      swap1\n      pop\n      jump\t// out\n        /* \"#utility.yul\":14490:14909   */\n    tag_176:\n        /* \"#utility.yul\":14656:14660   */\n      0x00\n        /* \"#utility.yul\":14694:14696   */\n      0x20\n        /* \"#utility.yul\":14683:14692   */\n      dup3\n        /* \"#utility.yul\":14679:14697   */\n      add\n        /* \"#utility.yul\":14671:14697   */\n      swap1\n      pop\n        /* \"#utility.yul\":14743:14752   */\n      dup2\n        /* \"#utility.yul\":14737:14741   */\n      dup2\n        /* \"#utility.yul\":14733:14753   */\n      sub\n        /* \"#utility.yul\":14729:14730   */\n      0x00\n        /* \"#utility.yul\":14718:14727   */\n      dup4\n        /* \"#utility.yul\":14714:14731   */\n      add\n        /* \"#utility.yul\":14707:14754   */\n      mstore\n        /* \"#utility.yul\":14771:14902   */\n      tag_357\n        /* \"#utility.yul\":14897:14901   */\n      dup2\n        /* \"#utility.yul\":14771:14902   */\n      tag_281\n      jump\t// in\n    tag_357:\n        /* \"#utility.yul\":14763:14902   */\n      swap1\n      pop\n        /* \"#utility.yul\":14490:14909   */\n      swap2\n      swap1\n      pop\n      jump\t// out\n        /* \"#utility.yul\":14915:15334   */\n    tag_122:\n        /* \"#utility.yul\":15081:15085   */\n      0x00\n        /* \"#utility.yul\":15119:15121   */\n      0x20\n        /* \"#utility.yul\":15108:15117   */\n      dup3\n        /* \"#utility.yul\":15104:15122   */\n      add\n        /* \"#utility.yul\":15096:15122   */\n      swap1\n      pop\n        /* \"#utility.yul\":15168:15177   */\n      dup2\n        /* \"#utility.yul\":15162:15166   */\n      dup2\n        /* \"#utility.yul\":15158:15178   */\n      sub\n        /* \"#utility.yul\":15154:15155   */\n      0x00\n        /* \"#utility.yul\":15143:15152   */\n      dup4\n        /* \"#utility.yul\":15139:15156   */\n      add\n        /* \"#utility.yul\":15132:15179   */\n      mstore\n        /* \"#utility.yul\":15196:15327   */\n      tag_359\n        /* \"#utility.yul\":15322:15326   */\n      dup2\n        /* \"#utility.yul\":15196:15327   */\n      tag_286\n      jump\t// in\n    tag_359:\n        /* \"#utility.yul\":15188:15327   */\n      swap1\n      pop\n        /* \"#utility.yul\":14915:15334   */\n      swap2\n      swap1\n      pop\n      jump\t// out\n        /* \"#utility.yul\":15340:15759   */\n    tag_163:\n        /* \"#utility.yul\":15506:15510   */\n      0x00\n        /* \"#utility.yul\":15544:15546   */\n      0x20\n        /* \"#utility.yul\":15533:15542   */\n      dup3\n        /* \"#utility.yul\":15529:15547   */\n      add\n        /* \"#utility.yul\":15521:15547   */\n      swap1\n      pop\n        /* \"#utility.yul\":15593:15602   */\n      dup2\n        /* \"#utility.yul\":15587:15591   */\n      dup2\n        /* \"#utility.yul\":15583:15603   */\n      sub\n        /* \"#utility.yul\":15579:15580   */\n      0x00\n        /* \"#utility.yul\":15568:15577   */\n      dup4\n        /* \"#utility.yul\":15564:15581   */\n      add\n        /* \"#utility.yul\":15557:15604   */\n      mstore\n        /* \"#utility.yul\":15621:15752   */\n      tag_361\n        /* \"#utility.yul\":15747:15751   */\n      dup2\n        /* \"#utility.yul\":15621:15752   */\n      tag_291\n      jump\t// in\n    tag_361:\n        /* \"#utility.yul\":15613:15752   */\n      swap1\n      pop\n        /* \"#utility.yul\":15340:15759   */\n      swap2\n      swap1\n      pop\n      jump\t// out\n        /* \"#utility.yul\":15765:16184   */\n    tag_79:\n        /* \"#utility.yul\":15931:15935   */\n      0x00\n        /* \"#utility.yul\":15969:15971   */\n      0x20\n        /* \"#utility.yul\":15958:15967   */\n      dup3\n        /* \"#utility.yul\":15954:15972   */\n      add\n        /* \"#utility.yul\":15946:15972   */\n      swap1\n      pop\n        /* \"#utility.yul\":16018:16027   */\n      dup2\n        /* \"#utility.yul\":16012:16016   */\n      dup2\n        /* \"#utility.yul\":16008:16028   */\n      sub\n        /* \"#utility.yul\":16004:16005   */\n      0x00\n        /* \"#utility.yul\":15993:16002   */\n      dup4\n        /* \"#utility.yul\":15989:16006   */\n      add\n        /* \"#utility.yul\":15982:16029   */\n      mstore\n        /* \"#utility.yul\":16046:16177   */\n      tag_363\n        /* \"#utility.yul\":16172:16176   */\n      dup2\n        /* \"#utility.yul\":16046:16177   */\n      tag_296\n      jump\t// in\n    tag_363:\n        /* \"#utility.yul\":16038:16177   */\n      swap1\n      pop\n        /* \"#utility.yul\":15765:16184   */\n      swap2\n      swap1\n      pop\n      jump\t// out\n        /* \"#utility.yul\":16190:16609   */\n    tag_166:\n        /* \"#utility.yul\":16356:16360   */\n      0x00\n        /* \"#utility.yul\":16394:16396   */\n      0x20\n        /* \"#utility.yul\":16383:16392   */\n      dup3\n        /* \"#utility.yul\":16379:16397   */\n      add\n        /* \"#utility.yul\":16371:16397   */\n      swap1\n      pop\n        /* \"#utility.yul\":16443:16452   */\n      dup2\n        /* \"#utility.yul\":16437:16441   */\n      dup2\n        /* \"#utility.yul\":16433:16453   */\n      sub\n        /* \"#utility.yul\":16429:16430   */\n      0x00\n        /* \"#utility.yul\":16418:16427   */\n      dup4\n        /* \"#utility.yul\":16414:16431   */\n      add\n        /* \"#utility.yul\":16407:16454   */\n      mstore\n        /* \"#utility.yul\":16471:16602   */\n      tag_365\n        /* \"#utility.yul\":16597:16601   */\n      dup2\n        /* \"#utility.yul\":16471:16602   */\n      tag_301\n      jump\t// in\n    tag_365:\n        /* \"#utility.yul\":16463:16602   */\n      swap1\n      pop\n        /* \"#utility.yul\":16190:16609   */\n      swap2\n      swap1\n      pop\n      jump\t// out\n        /* \"#utility.yul\":16615:17034   */\n    tag_87:\n        /* \"#utility.yul\":16781:16785   */\n      0x00\n        /* \"#utility.yul\":16819:16821   */\n      0x20\n        /* \"#utility.yul\":16808:16817   */\n      dup3\n        /* \"#utility.yul\":16804:16822   */\n      add\n        /* \"#utility.yul\":16796:16822   */\n      swap1\n      pop\n        /* \"#utility.yul\":16868:16877   */\n      dup2\n        /* \"#utility.yul\":16862:16866   */\n      dup2\n        /* \"#utility.yul\":16858:16878   */\n      sub\n        /* \"#utility.yul\":16854:16855   */\n      0x00\n        /* \"#utility.yul\":16843:16852   */\n      dup4\n        /* \"#utility.yul\":16839:16856   */\n      add\n        /* \"#utility.yul\":16832:16879   */\n      mstore\n        /* \"#utility.yul\":16896:17027   */\n      tag_367\n        /* \"#utility.yul\":17022:17026   */\n      dup2\n        /* \"#utility.yul\":16896:17027   */\n      tag_306\n      jump\t// in\n    tag_367:\n        /* \"#utility.yul\":16888:17027   */\n      swap1\n      pop\n        /* \"#utility.yul\":16615:17034   */\n      swap2\n      swap1\n      pop\n      jump\t// out\n        /* \"#utility.yul\":17040:17459   */\n    tag_91:\n        /* \"#utility.yul\":17206:17210   */\n      0x00\n        /* \"#utility.yul\":17244:17246   */\n      0x20\n        /* \"#utility.yul\":17233:17242   */\n      dup3\n        /* \"#utility.yul\":17229:17247   */\n      add\n        /* \"#utility.yul\":17221:17247   */\n      swap1\n      pop\n        /* \"#utility.yul\":17293:17302   */\n      dup2\n        /* \"#utility.yul\":17287:17291   */\n      dup2\n        /* \"#utility.yul\":17283:17303   */\n      sub\n        /* \"#utility.yul\":17279:17280   */\n      0x00\n        /* \"#utility.yul\":17268:17277   */\n      dup4\n        /* \"#utility.yul\":17264:17281   */\n      add\n        /* \"#utility.yul\":17257:17304   */\n      mstore\n        /* \"#utility.yul\":17321:17452   */\n      tag_369\n        /* \"#utility.yul\":17447:17451   */\n      dup2\n        /* \"#utility.yul\":17321:17452   */\n      tag_311\n      jump\t// in\n    tag_369:\n        /* \"#utility.yul\":17313:17452   */\n      swap1\n      pop\n        /* \"#utility.yul\":17040:17459   */\n      swap2\n      swap1\n      pop\n      jump\t// out\n        /* \"#utility.yul\":17465:17796   */\n    tag_29:\n        /* \"#utility.yul\":17612:17616   */\n      0x00\n        /* \"#utility.yul\":17650:17653   */\n      0x0100\n        /* \"#utility.yul\":17639:17648   */\n      dup3\n        /* \"#utility.yul\":17635:17654   */\n      add\n        /* \"#utility.yul\":17627:17654   */\n      swap1\n      pop\n        /* \"#utility.yul\":17664:17789   */\n      tag_371\n        /* \"#utility.yul\":17786:17787   */\n      0x00\n        /* \"#utility.yul\":17775:17784   */\n      dup4\n        /* \"#utility.yul\":17771:17788   */\n      add\n        /* \"#utility.yul\":17762:17768   */\n      dup5\n        /* \"#utility.yul\":17664:17789   */\n      tag_326\n      jump\t// in\n    tag_371:\n        /* \"#utility.yul\":17465:17796   */\n      swap3\n      swap2\n      pop\n      pop\n      jump\t// out\n        /* \"#utility.yul\":17802:18024   */\n    tag_56:\n        /* \"#utility.yul\":17895:17899   */\n      0x00\n        /* \"#utility.yul\":17933:17935   */\n      0x20\n        /* \"#utility.yul\":17922:17931   */\n      dup3\n        /* \"#utility.yul\":17918:17936   */\n      add\n        /* \"#utility.yul\":17910:17936   */\n      swap1\n      pop\n        /* \"#utility.yul\":17946:18017   */\n      tag_373\n        /* \"#utility.yul\":18014:18015   */\n      0x00\n        /* \"#utility.yul\":18003:18012   */\n      dup4\n        /* \"#utility.yul\":17999:18016   */\n      add\n        /* \"#utility.yul\":17990:17996   */\n      dup5\n        /* \"#utility.yul\":17946:18017   */\n      tag_339\n      jump\t// in\n    tag_373:\n        /* \"#utility.yul\":17802:18024   */\n      swap3\n      swap2\n      pop\n      pop\n      jump\t// out\n        /* \"#utility.yul\":18030:18991   */\n    tag_64:\n        /* \"#utility.yul\":18301:18305   */\n      0x00\n        /* \"#utility.yul\":18339:18342   */\n      0x0100\n        /* \"#utility.yul\":18328:18337   */\n      dup3\n        /* \"#utility.yul\":18324:18343   */\n      add\n        /* \"#utility.yul\":18316:18343   */\n      swap1\n      pop\n        /* \"#utility.yul\":18353:18424   */\n      tag_375\n        /* \"#utility.yul\":18421:18422   */\n      0x00\n        /* \"#utility.yul\":18410:18419   */\n      dup4\n        /* \"#utility.yul\":18406:18423   */\n      add\n        /* \"#utility.yul\":18397:18403   */\n      dup12\n        /* \"#utility.yul\":18353:18424   */\n      tag_339\n      jump\t// in\n    tag_375:\n        /* \"#utility.yul\":18434:18506   */\n      tag_376\n        /* \"#utility.yul\":18502:18504   */\n      0x20\n        /* \"#utility.yul\":18491:18500   */\n      dup4\n        /* \"#utility.yul\":18487:18505   */\n      add\n        /* \"#utility.yul\":18478:18484   */\n      dup11\n        /* \"#utility.yul\":18434:18506   */\n      tag_339\n      jump\t// in\n    tag_376:\n        /* \"#utility.yul\":18516:18588   */\n      tag_377\n        /* \"#utility.yul\":18584:18586   */\n      0x40\n        /* \"#utility.yul\":18573:18582   */\n      dup4\n        /* \"#utility.yul\":18569:18587   */\n      add\n        /* \"#utility.yul\":18560:18566   */\n      dup10\n        /* \"#utility.yul\":18516:18588   */\n      tag_242\n      jump\t// in\n    tag_377:\n        /* \"#utility.yul\":18598:18670   */\n      tag_378\n        /* \"#utility.yul\":18666:18668   */\n      0x60\n        /* \"#utility.yul\":18655:18664   */\n      dup4\n        /* \"#utility.yul\":18651:18669   */\n      add\n        /* \"#utility.yul\":18642:18648   */\n      dup9\n        /* \"#utility.yul\":18598:18670   */\n      tag_242\n      jump\t// in\n    tag_378:\n        /* \"#utility.yul\":18680:18753   */\n      tag_379\n        /* \"#utility.yul\":18748:18751   */\n      0x80\n        /* \"#utility.yul\":18737:18746   */\n      dup4\n        /* \"#utility.yul\":18733:18752   */\n      add\n        /* \"#utility.yul\":18724:18730   */\n      dup8\n        /* \"#utility.yul\":18680:18753   */\n      tag_339\n      jump\t// in\n    tag_379:\n        /* \"#utility.yul\":18763:18830   */\n      tag_380\n        /* \"#utility.yul\":18825:18828   */\n      0xa0\n        /* \"#utility.yul\":18814:18823   */\n      dup4\n        /* \"#utility.yul\":18810:18829   */\n      add\n        /* \"#utility.yul\":18801:18807   */\n      dup7\n        /* \"#utility.yul\":18763:18830   */\n      tag_263\n      jump\t// in\n    tag_380:\n        /* \"#utility.yul\":18840:18907   */\n      tag_381\n        /* \"#utility.yul\":18902:18905   */\n      0xc0\n        /* \"#utility.yul\":18891:18900   */\n      dup4\n        /* \"#utility.yul\":18887:18906   */\n      add\n        /* \"#utility.yul\":18878:18884   */\n      dup6\n        /* \"#utility.yul\":18840:18907   */\n      tag_263\n      jump\t// in\n    tag_381:\n        /* \"#utility.yul\":18917:18984   */\n      tag_382\n        /* \"#utility.yul\":18979:18982   */\n      0xe0\n        /* \"#utility.yul\":18968:18977   */\n      dup4\n        /* \"#utility.yul\":18964:18983   */\n      add\n        /* \"#utility.yul\":18955:18961   */\n      dup5\n        /* \"#utility.yul\":18917:18984   */\n      tag_263\n      jump\t// in\n    tag_382:\n        /* \"#utility.yul\":18030:18991   */\n      swap10\n      swap9\n      pop\n      pop\n      pop\n      pop\n      pop\n      pop\n      pop\n      pop\n      pop\n      jump\t// out\n        /* \"#utility.yul\":19078:19237   */\n    tag_252:\n        /* \"#utility.yul\":19172:19176   */\n      0x00\n        /* \"#utility.yul\":19195:19198   */\n      dup2\n        /* \"#utility.yul\":19187:19198   */\n      swap1\n      pop\n        /* \"#utility.yul\":19225:19229   */\n      0x20\n        /* \"#utility.yul\":19220:19223   */\n      dup3\n        /* \"#utility.yul\":19216:19230   */\n      add\n        /* \"#utility.yul\":19208:19230   */\n      swap1\n      pop\n        /* \"#utility.yul\":19078:19237   */\n      swap2\n      swap1\n      pop\n      jump\t// out\n        /* \"#utility.yul\":19243:19384   */\n    tag_248:\n        /* \"#utility.yul\":19337:19343   */\n      0x00\n        /* \"#utility.yul\":19371:19376   */\n      dup2\n        /* \"#utility.yul\":19365:19377   */\n      mload\n        /* \"#utility.yul\":19355:19377   */\n      swap1\n      pop\n        /* \"#utility.yul\":19243:19384   */\n      swap2\n      swap1\n      pop\n      jump\t// out\n        /* \"#utility.yul\":19390:19530   */\n    tag_258:\n        /* \"#utility.yul\":19487:19491   */\n      0x00\n        /* \"#utility.yul\":19519:19523   */\n      0x20\n        /* \"#utility.yul\":19514:19517   */\n      dup3\n        /* \"#utility.yul\":19510:19524   */\n      add\n        /* \"#utility.yul\":19502:19524   */\n      swap1\n      pop\n        /* \"#utility.yul\":19390:19530   */\n      swap2\n      swap1\n      pop\n      jump\t// out\n        /* \"#utility.yul\":19536:19747   */\n    tag_250:\n        /* \"#utility.yul\":19662:19673   */\n      0x00\n        /* \"#utility.yul\":19696:19702   */\n      dup3\n        /* \"#utility.yul\":19691:19694   */\n      dup3\n        /* \"#utility.yul\":19684:19703   */\n      mstore\n        /* \"#utility.yul\":19736:19740   */\n      0x20\n        /* \"#utility.yul\":19731:19734   */\n      dup3\n        /* \"#utility.yul\":19727:19741   */\n      add\n        /* \"#utility.yul\":19712:19741   */\n      swap1\n      pop\n        /* \"#utility.yul\":19536:19747   */\n      swap3\n      swap2\n      pop\n      pop\n      jump\t// out\n        /* \"#utility.yul\":19753:19922   */\n    tag_273:\n        /* \"#utility.yul\":19837:19848   */\n      0x00\n        /* \"#utility.yul\":19871:19877   */\n      dup3\n        /* \"#utility.yul\":19866:19869   */\n      dup3\n        /* \"#utility.yul\":19859:19878   */\n      mstore\n        /* \"#utility.yul\":19911:19915   */\n      0x20\n        /* \"#utility.yul\":19906:19909   */\n      dup3\n        /* \"#utility.yul\":19902:19916   */\n      add\n        /* \"#utility.yul\":19887:19916   */\n      swap1\n      pop\n        /* \"#utility.yul\":19753:19922   */\n      swap3\n      swap2\n      pop\n      pop\n      jump\t// out\n        /* \"#utility.yul\":19928:20233   */\n    tag_111:\n        /* \"#utility.yul\":19968:19971   */\n      0x00\n        /* \"#utility.yul\":19987:20007   */\n      tag_391\n        /* \"#utility.yul\":20005:20006   */\n      dup3\n        /* \"#utility.yul\":19987:20007   */\n      tag_338\n      jump\t// in\n    tag_391:\n        /* \"#utility.yul\":19982:20007   */\n      swap2\n      pop\n        /* \"#utility.yul\":20021:20041   */\n      tag_392\n        /* \"#utility.yul\":20039:20040   */\n      dup4\n        /* \"#utility.yul\":20021:20041   */\n      tag_338\n      jump\t// in\n    tag_392:\n        /* \"#utility.yul\":20016:20041   */\n      swap3\n      pop\n        /* \"#utility.yul\":20175:20176   */\n      dup3\n        /* \"#utility.yul\":20107:20173   */\n      0xffffffffffffffffffffffffffffffffffffffffffffffffffffffffffffffff\n        /* \"#utility.yul\":20103:20177   */\n      sub\n        /* \"#utility.yul\":20100:20101   */\n      dup3\n        /* \"#utility.yul\":20097:20178   */\n      gt\n        /* \"#utility.yul\":20094:20201   */\n      iszero\n      tag_393\n      jumpi\n        /* \"#utility.yul\":20181:20199   */\n      tag_394\n      tag_395\n      jump\t// in\n    tag_394:\n        /* \"#utility.yul\":20094:20201   */\n    tag_393:\n        /* \"#utility.yul\":20225:20226   */\n      dup3\n        /* \"#utility.yul\":20222:20223   */\n      dup3\n        /* \"#utility.yul\":20218:20227   */\n      add\n        /* \"#utility.yul\":20211:20227   */\n      swap1\n      pop\n        /* \"#utility.yul\":19928:20233   */\n      swap3\n      swap2\n      pop\n      pop\n      jump\t// out\n        /* \"#utility.yul\":20239:20430   */\n    tag_138:\n        /* \"#utility.yul\":20279:20283   */\n      0x00\n        /* \"#utility.yul\":20299:20319   */\n      tag_397\n        /* \"#utility.yul\":20317:20318   */\n      dup3\n        /* \"#utility.yul\":20299:20319   */\n      tag_338\n      jump\t// in\n    tag_397:\n        /* \"#utility.yul\":20294:20319   */\n      swap2\n      pop\n        /* \"#utility.yul\":20333:20353   */\n      tag_398\n        /* \"#utility.yul\":20351:20352   */\n      dup4\n        /* \"#utility.yul\":20333:20353   */\n      tag_338\n      jump\t// in\n    tag_398:\n        /* \"#utility.yul\":20328:20353   */\n      swap3\n      pop\n        /* \"#utility.yul\":20372:20373   */\n      dup3\n        /* \"#utility.yul\":20369:20370   */\n      dup3\n        /* \"#utility.yul\":20366:20374   */\n      lt\n        /* \"#utility.yul\":20363:20397   */\n      iszero\n      tag_399\n      jumpi\n        /* \"#utility.yul\":20377:20395   */\n      tag_400\n      tag_395\n      jump\t// in\n    tag_400:\n        /* \"#utility.yul\":20363:20397   */\n    tag_399:\n        /* \"#utility.yul\":20422:20423   */\n      dup3\n        /* \"#utility.yul\":20419:20420   */\n      dup3\n        /* \"#utility.yul\":20415:20424   */\n      sub\n        /* \"#utility.yul\":20407:20424   */\n      swap1\n      pop\n        /* \"#utility.yul\":20239:20430   */\n      swap3\n      swap2\n      pop\n      pop\n      jump\t// out\n        /* \"#utility.yul\":20436:20532   */\n    tag_241:\n        /* \"#utility.yul\":20473:20480   */\n      0x00\n        /* \"#utility.yul\":20502:20526   */\n      tag_402\n        /* \"#utility.yul\":20520:20525   */\n      dup3\n        /* \"#utility.yul\":20502:20526   */\n      tag_403\n      jump\t// in\n    tag_402:\n        /* \"#utility.yul\":20491:20526   */\n      swap1\n      pop\n        /* \"#utility.yul\":20436:20532   */\n      swap2\n      swap1\n      pop\n      jump\t// out\n        /* \"#utility.yul\":20538:20628   */\n    tag_262:\n        /* \"#utility.yul\":20572:20579   */\n      0x00\n        /* \"#utility.yul\":20615:20620   */\n      dup2\n        /* \"#utility.yul\":20608:20621   */\n      iszero\n        /* \"#utility.yul\":20601:20622   */\n      iszero\n        /* \"#utility.yul\":20590:20622   */\n      swap1\n      pop\n        /* \"#utility.yul\":20538:20628   */\n      swap2\n      swap1\n      pop\n      jump\t// out\n        /* \"#utility.yul\":20634:20783   */\n    tag_269:\n        /* \"#utility.yul\":20670:20677   */\n      0x00\n        /* \"#utility.yul\":20710:20776   */\n      0xffffffff00000000000000000000000000000000000000000000000000000000\n        /* \"#utility.yul\":20703:20708   */\n      dup3\n        /* \"#utility.yul\":20699:20777   */\n      and\n        /* \"#utility.yul\":20688:20777   */\n      swap1\n      pop\n        /* \"#utility.yul\":20634:20783   */\n      swap2\n      swap1\n      pop\n      jump\t// out\n        /* \"#utility.yul\":20789:20915   */\n    tag_403:\n        /* \"#utility.yul\":20826:20833   */\n      0x00\n        /* \"#utility.yul\":20866:20908   */\n      0xffffffffffffffffffffffffffffffffffffffff\n        /* \"#utility.yul\":20859:20864   */\n      dup3\n        /* \"#utility.yul\":20855:20909   */\n      and\n        /* \"#utility.yul\":20844:20909   */\n      swap1\n      pop\n        /* \"#utility.yul\":20789:20915   */\n      swap2\n      swap1\n      pop\n      jump\t// out\n        /* \"#utility.yul\":20921:20998   */\n    tag_338:\n        /* \"#utility.yul\":20958:20965   */\n      0x00\n        /* \"#utility.yul\":20987:20992   */\n      dup2\n        /* \"#utility.yul\":20976:20992   */\n      swap1\n      pop\n        /* \"#utility.yul\":20921:20998   */\n      swap2\n      swap1\n      pop\n      jump\t// out\n        /* \"#utility.yul\":21004:21237   */\n    tag_156:\n        /* \"#utility.yul\":21043:21046   */\n      0x00\n        /* \"#utility.yul\":21066:21090   */\n      tag_409\n        /* \"#utility.yul\":21084:21089   */\n      dup3\n        /* \"#utility.yul\":21066:21090   */\n      tag_338\n      jump\t// in\n    tag_409:\n        /* \"#utility.yul\":21057:21090   */\n      swap2\n      pop\n        /* \"#utility.yul\":21112:21178   */\n      0xffffffffffffffffffffffffffffffffffffffffffffffffffffffffffffffff\n        /* \"#utility.yul\":21105:21110   */\n      dup3\n        /* \"#utility.yul\":21102:21179   */\n      eq\n        /* \"#utility.yul\":21099:21202   */\n      iszero\n      tag_410\n      jumpi\n        /* \"#utility.yul\":21182:21200   */\n      tag_411\n      tag_395\n      jump\t// in\n    tag_411:\n        /* \"#utility.yul\":21099:21202   */\n    tag_410:\n        /* \"#utility.yul\":21229:21230   */\n      0x01\n        /* \"#utility.yul\":21222:21227   */\n      dup3\n        /* \"#utility.yul\":21218:21231   */\n      add\n        /* \"#utility.yul\":21211:21231   */\n      swap1\n      pop\n        /* \"#utility.yul\":21004:21237   */\n      swap2\n      swap1\n      pop\n      jump\t// out\n        /* \"#utility.yul\":21243:21423   */\n    tag_395:\n        /* \"#utility.yul\":21291:21368   */\n      0x4e487b7100000000000000000000000000000000000000000000000000000000\n        /* \"#utility.yul\":21288:21289   */\n      0x00\n        /* \"#utility.yul\":21281:21369   */\n      mstore\n        /* \"#utility.yul\":21388:21392   */\n      0x11\n        /* \"#utility.yul\":21385:21386   */\n      0x04\n        /* \"#utility.yul\":21378:21393   */\n      mstore\n        /* \"#utility.yul\":21412:21416   */\n      0x24\n        /* \"#utility.yul\":21409:21410   */\n      0x00\n        /* \"#utility.yul\":21402:21417   */\n      revert\n        /* \"#utility.yul\":21429:21609   */\n    tag_153:\n        /* \"#utility.yul\":21477:21554   */\n      0x4e487b7100000000000000000000000000000000000000000000000000000000\n        /* \"#utility.yul\":21474:21475   */\n      0x00\n        /* \"#utility.yul\":21467:21555   */\n      mstore\n        /* \"#utility.yul\":21574:21578   */\n      0x32\n        /* \"#utility.yul\":21571:21572   */\n      0x04\n        /* \"#utility.yul\":21564:21579   */\n      mstore\n        /* \"#utility.yul\":21598:21602   */\n      0x24\n        /* \"#utility.yul\":21595:21596   */\n      0x00\n        /* \"#utility.yul\":21588:21603   */\n      revert\n        /* \"#utility.yul\":21615:21795   */\n    tag_141:\n        /* \"#utility.yul\":21663:21740   */\n      0x4e487b7100000000000000000000000000000000000000000000000000000000\n        /* \"#utility.yul\":21660:21661   */\n      0x00\n        /* \"#utility.yul\":21653:21741   */\n      mstore\n        /* \"#utility.yul\":21760:21764   */\n      0x41\n        /* \"#utility.yul\":21757:21758   */\n      0x04\n        /* \"#utility.yul\":21750:21765   */\n      mstore\n        /* \"#utility.yul\":21784:21788   */\n      0x24\n        /* \"#utility.yul\":21781:21782   */\n      0x00\n        /* \"#utility.yul\":21774:21789   */\n      revert\n        /* \"#utility.yul\":21801:21918   */\n    tag_198:\n        /* \"#utility.yul\":21910:21911   */\n      0x00\n        /* \"#utility.yul\":21907:21908   */\n      dup1\n        /* \"#utility.yul\":21900:21912   */\n      revert\n        /* \"#utility.yul\":21924:22041   */\n    tag_195:\n        /* \"#utility.yul\":22033:22034   */\n      0x00\n        /* \"#utility.yul\":22030:22031   */\n      dup1\n        /* \"#utility.yul\":22023:22035   */\n      revert\n        /* \"#utility.yul\":22047:22164   */\n    tag_201:\n        /* \"#utility.yul\":22156:22157   */\n      0x00\n        /* \"#utility.yul\":22153:22154   */\n      dup1\n        /* \"#utility.yul\":22146:22158   */\n      revert\n        /* \"#utility.yul\":22170:22287   */\n    tag_219:\n        /* \"#utility.yul\":22279:22280   */\n      0x00\n        /* \"#utility.yul\":22276:22277   */\n      dup1\n        /* \"#utility.yul\":22269:22281   */\n      revert\n        /* \"#utility.yul\":22293:22410   */\n    tag_209:\n        /* \"#utility.yul\":22402:22403   */\n      0x00\n        /* \"#utility.yul\":22399:22400   */\n      dup1\n        /* \"#utility.yul\":22392:22404   */\n      revert\n        /* \"#utility.yul\":22416:22593   */\n    tag_275:\n        /* \"#utility.yul\":22556:22585   */\n      0x41736b696e67205072696365206e6f7420736174697366696564210000000000\n        /* \"#utility.yul\":22552:22553   */\n      0x00\n        /* \"#utility.yul\":22544:22550   */\n      dup3\n        /* \"#utility.yul\":22540:22554   */\n      add\n        /* \"#utility.yul\":22533:22586   */\n      mstore\n        /* \"#utility.yul\":22416:22593   */\n      pop\n      jump\t// out\n        /* \"#utility.yul\":22599:22832   */\n    tag_280:\n        /* \"#utility.yul\":22739:22773   */\n      0x50726963652073686f756c64206265206174206c656173742073616d65206173\n        /* \"#utility.yul\":22735:22736   */\n      0x00\n        /* \"#utility.yul\":22727:22733   */\n      dup3\n        /* \"#utility.yul\":22723:22737   */\n      add\n        /* \"#utility.yul\":22716:22774   */\n      mstore\n        /* \"#utility.yul\":22808:22824   */\n      0x206c697374696e67207072696365000000000000000000000000000000000000\n        /* \"#utility.yul\":22803:22805   */\n      0x20\n        /* \"#utility.yul\":22795:22801   */\n      dup3\n        /* \"#utility.yul\":22791:22806   */\n      add\n        /* \"#utility.yul\":22784:22825   */\n      mstore\n        /* \"#utility.yul\":22599:22832   */\n      pop\n      jump\t// out\n        /* \"#utility.yul\":22838:23063   */\n    tag_285:\n        /* \"#utility.yul\":22978:23012   */\n      0x4f776e61626c653a206e6577206f776e657220697320746865207a65726f2061\n        /* \"#utility.yul\":22974:22975   */\n      0x00\n        /* \"#utility.yul\":22966:22972   */\n      dup3\n        /* \"#utility.yul\":22962:22976   */\n      add\n        /* \"#utility.yul\":22955:23013   */\n      mstore\n        /* \"#utility.yul\":23047:23055   */\n      0x6464726573730000000000000000000000000000000000000000000000000000\n        /* \"#utility.yul\":23042:23044   */\n      0x20\n        /* \"#utility.yul\":23034:23040   */\n      dup3\n        /* \"#utility.yul\":23030:23045   */\n      add\n        /* \"#utility.yul\":23023:23056   */\n      mstore\n        /* \"#utility.yul\":22838:23063   */\n      pop\n      jump\t// out\n        /* \"#utility.yul\":23069:23236   */\n    tag_290:\n        /* \"#utility.yul\":23209:23228   */\n      0x4e4654206e6f7420666f722073616c652e000000000000000000000000000000\n        /* \"#utility.yul\":23205:23206   */\n      0x00\n        /* \"#utility.yul\":23197:23203   */\n      dup3\n        /* \"#utility.yul\":23193:23207   */\n      add\n        /* \"#utility.yul\":23186:23229   */\n      mstore\n        /* \"#utility.yul\":23069:23236   */\n      pop\n      jump\t// out\n        /* \"#utility.yul\":23242:23424   */\n    tag_295:\n        /* \"#utility.yul\":23382:23416   */\n      0x4f6e6c79204974656d206f776e65722063616e206372656174652073616c652e\n        /* \"#utility.yul\":23378:23379   */\n      0x00\n        /* \"#utility.yul\":23370:23376   */\n      dup3\n        /* \"#utility.yul\":23366:23380   */\n      add\n        /* \"#utility.yul\":23359:23417   */\n      mstore\n        /* \"#utility.yul\":23242:23424   */\n      pop\n      jump\t// out\n        /* \"#utility.yul\":23430:23612   */\n    tag_300:\n        /* \"#utility.yul\":23570:23604   */\n      0x4f776e61626c653a2063616c6c6572206973206e6f7420746865206f776e6572\n        /* \"#utility.yul\":23566:23567   */\n      0x00\n        /* \"#utility.yul\":23558:23564   */\n      dup3\n        /* \"#utility.yul\":23554:23568   */\n      add\n        /* \"#utility.yul\":23547:23605   */\n      mstore\n        /* \"#utility.yul\":23430:23612   */\n      pop\n      jump\t// out\n        /* \"#utility.yul\":23618:23788   */\n    tag_305:\n        /* \"#utility.yul\":23758:23780   */\n      0x4974656d20646f6573206e6f742065786973742e000000000000000000000000\n        /* \"#utility.yul\":23754:23755   */\n      0x00\n        /* \"#utility.yul\":23746:23752   */\n      dup3\n        /* \"#utility.yul\":23742:23756   */\n      add\n        /* \"#utility.yul\":23735:23781   */\n      mstore\n        /* \"#utility.yul\":23618:23788   */\n      pop\n      jump\t// out\n        /* \"#utility.yul\":23794:23975   */\n    tag_310:\n        /* \"#utility.yul\":23934:23967   */\n      0x5265656e7472616e637947756172643a207265656e7472616e742063616c6c00\n        /* \"#utility.yul\":23930:23931   */\n      0x00\n        /* \"#utility.yul\":23922:23928   */\n      dup3\n        /* \"#utility.yul\":23918:23932   */\n      add\n        /* \"#utility.yul\":23911:23968   */\n      mstore\n        /* \"#utility.yul\":23794:23975   */\n      pop\n      jump\t// out\n        /* \"#utility.yul\":23981:24159   */\n    tag_315:\n        /* \"#utility.yul\":24121:24151   */\n      0x5072696365206d757374206265206174206c6561737420312077656900000000\n        /* \"#utility.yul\":24117:24118   */\n      0x00\n        /* \"#utility.yul\":24109:24115   */\n      dup3\n        /* \"#utility.yul\":24105:24119   */\n      add\n        /* \"#utility.yul\":24098:24152   */\n      mstore\n        /* \"#utility.yul\":23981:24159   */\n      pop\n      jump\t// out\n        /* \"#utility.yul\":24165:24287   */\n    tag_186:\n        /* \"#utility.yul\":24238:24262   */\n      tag_430\n        /* \"#utility.yul\":24256:24261   */\n      dup2\n        /* \"#utility.yul\":24238:24262   */\n      tag_241\n      jump\t// in\n    tag_430:\n        /* \"#utility.yul\":24231:24236   */\n      dup2\n        /* \"#utility.yul\":24228:24263   */\n      eq\n        /* \"#utility.yul\":24218:24281   */\n      tag_431\n      jumpi\n        /* \"#utility.yul\":24277:24278   */\n      0x00\n        /* \"#utility.yul\":24274:24275   */\n      dup1\n        /* \"#utility.yul\":24267:24279   */\n      revert\n        /* \"#utility.yul\":24218:24281   */\n    tag_431:\n        /* \"#utility.yul\":24165:24287   */\n      pop\n      jump\t// out\n        /* \"#utility.yul\":24293:24409   */\n    tag_190:\n        /* \"#utility.yul\":24363:24384   */\n      tag_433\n        /* \"#utility.yul\":24378:24383   */\n      dup2\n        /* \"#utility.yul\":24363:24384   */\n      tag_262\n      jump\t// in\n    tag_433:\n        /* \"#utility.yul\":24356:24361   */\n      dup2\n        /* \"#utility.yul\":24353:24385   */\n      eq\n        /* \"#utility.yul\":24343:24403   */\n      tag_434\n      jumpi\n        /* \"#utility.yul\":24399:24400   */\n      0x00\n        /* \"#utility.yul\":24396:24397   */\n      dup1\n        /* \"#utility.yul\":24389:24401   */\n      revert\n        /* \"#utility.yul\":24343:24403   */\n    tag_434:\n        /* \"#utility.yul\":24293:24409   */\n      pop\n      jump\t// out\n        /* \"#utility.yul\":24415:24537   */\n    tag_205:\n        /* \"#utility.yul\":24488:24512   */\n      tag_436\n        /* \"#utility.yul\":24506:24511   */\n      dup2\n        /* \"#utility.yul\":24488:24512   */\n      tag_338\n      jump\t// in\n    tag_436:\n        /* \"#utility.yul\":24481:24486   */\n      dup2\n        /* \"#utility.yul\":24478:24513   */\n      eq\n        /* \"#utility.yul\":24468:24531   */\n      tag_437\n      jumpi\n        /* \"#utility.yul\":24527:24528   */\n      0x00\n        /* \"#utility.yul\":24524:24525   */\n      dup1\n        /* \"#utility.yul\":24517:24529   */\n      revert\n        /* \"#utility.yul\":24468:24531   */\n    tag_437:\n        /* \"#utility.yul\":24415:24537   */\n      pop\n      jump\t// out\n\n    auxdata: 0xa2646970667358221220adc67cad3d8943e08898ad5b4ffa689a14c6745606a2b41f846a00465cd2169664736f6c63430008070033\n}\n",
				"bytecode": {
					"linkReferences": {},
					"object": "608060405267016345785d8a00006007553480156200001d57600080fd5b50604051620023ba380380620023ba8339818101604052810190620000439190620001d7565b6200006362000057620000f460201b60201c565b620000fc60201b60201c565b6001808190555081600560006101000a81548173ffffffffffffffffffffffffffffffffffffffff021916908373ffffffffffffffffffffffffffffffffffffffff16021790555080600660006101000a81548173ffffffffffffffffffffffffffffffffffffffff021916908373ffffffffffffffffffffffffffffffffffffffff160217905550505062000271565b600033905090565b60008060009054906101000a900473ffffffffffffffffffffffffffffffffffffffff169050816000806101000a81548173ffffffffffffffffffffffffffffffffffffffff021916908373ffffffffffffffffffffffffffffffffffffffff1602179055508173ffffffffffffffffffffffffffffffffffffffff168173ffffffffffffffffffffffffffffffffffffffff167f8be0079c531659141344cd1fd0a4f28419497f9722a3daafe3b4186f6b6457e060405160405180910390a35050565b600081519050620001d18162000257565b92915050565b60008060408385031215620001f157620001f062000252565b5b60006200020185828601620001c0565b92505060206200021485828601620001c0565b9150509250929050565b60006200022b8262000232565b9050919050565b600073ffffffffffffffffffffffffffffffffffffffff82169050919050565b600080fd5b62000262816200021e565b81146200026e57600080fd5b50565b61213980620002816000396000f3fe608060405234801561001057600080fd5b50600436106100cf5760003560e01c80639979c0091161008c578063c78f19f911610066578063c78f19f9146101ec578063d56d229d1461020a578063e61a70c014610228578063f2fde38b1461025f576100cf565b80639979c009146101965780639b8bc127146101b25780639da1b02a146101d0576100cf565b8063150b7a02146100d457806353dbceb114610104578063715018a614610134578063889e2cd51461013e5780638da5cb5b1461015c57806391066da81461017a575b600080fd5b6100ee60048036038101906100e991906115e5565b61027b565b6040516100fb9190611ada565b60405180910390f35b61011e6004803603810190610119919061169a565b610290565b60405161012b9190611c15565b60405180910390f35b61013c6103df565b005b610146610467565b6040516101539190611a66565b60405180910390f35b61016461048d565b6040516101719190611a66565b60405180910390f35b610194600480360381019061018f91906116c7565b6104b6565b005b6101b060048036038101906101ab91906116c7565b6108e0565b005b6101ba610cb5565b6040516101c79190611ab8565b60405180910390f35b6101ea60048036038101906101e5919061169a565b610f1d565b005b6101f46111e9565b6040516102019190611c31565b60405180910390f35b6102126111ef565b60405161021f9190611a66565b60405180910390f35b610242600480360381019061023d919061169a565b611215565b604051610256989796959493929190611c4c565b60405180910390f35b610279600480360381019061027491906115b8565b6112c4565b005b600063150b7a0260e01b905095945050505050565b6102986114ac565b6000600860008481526020019081526020016000206040518061010001604052908160008201548152602001600182015481526020016002820160009054906101000a900473ffffffffffffffffffffffffffffffffffffffff1673ffffffffffffffffffffffffffffffffffffffff1673ffffffffffffffffffffffffffffffffffffffff1681526020016003820160009054906101000a900473ffffffffffffffffffffffffffffffffffffffff1673ffffffffffffffffffffffffffffffffffffffff1673ffffffffffffffffffffffffffffffffffffffff168152602001600482015481526020016005820160009054906101000a900460ff161515151581526020016005820160019054906101000a900460ff161515151581526020016005820160029054906101000a900460ff161515151581525050905080915050919050565b6103e76113bc565b73ffffffffffffffffffffffffffffffffffffffff1661040561048d565b73ffffffffffffffffffffffffffffffffffffffff161461045b576040517f08c379a000000000000000000000000000000000000000000000000000000000815260040161045290611b95565b60405180910390fd5b61046560006113c4565b565b600660009054906101000a900473ffffffffffffffffffffffffffffffffffffffff1681565b60008060009054906101000a900473ffffffffffffffffffffffffffffffffffffffff16905090565b600260015414156104fc576040517f08c379a00000000000000000000000000000000000000000000000000000000081526004016104f390611bd5565b60405180910390fd5b600260018190555060008111610547576040517f08c379a000000000000000000000000000000000000000000000000000000000815260040161053e90611bf5565b60405180910390fd5b60075481101561058c576040517f08c379a000000000000000000000000000000000000000000000000000000000815260040161058390611b15565b60405180910390fd5b6105966002611488565b60006105a2600261149e565b90506040518061010001604052808281526020018481526020013373ffffffffffffffffffffffffffffffffffffffff168152602001600073ffffffffffffffffffffffffffffffffffffffff1681526020018381526020016000151581526020016000151581526020016001151581525060086000838152602001908152602001600020600082015181600001556020820151816001015560408201518160020160006101000a81548173ffffffffffffffffffffffffffffffffffffffff021916908373ffffffffffffffffffffffffffffffffffffffff16021790555060608201518160030160006101000a81548173ffffffffffffffffffffffffffffffffffffffff021916908373ffffffffffffffffffffffffffffffffffffffff1602179055506080820151816004015560a08201518160050160006101000a81548160ff02191690831515021790555060c08201518160050160016101000a81548160ff02191690831515021790555060e08201518160050160026101000a81548160ff021916908315150217905550905050600660009054906101000a900473ffffffffffffffffffffffffffffffffffffffff1673ffffffffffffffffffffffffffffffffffffffff166323b872dd33306007546040518463ffffffff1660e01b815260040161079793929190611a81565b602060405180830381600087803b1580156107b157600080fd5b505af11580156107c5573d6000803e3d6000fd5b505050506040513d601f19601f820116820180604052508101906107e9919061166d565b50600560009054906101000a900473ffffffffffffffffffffffffffffffffffffffff1673ffffffffffffffffffffffffffffffffffffffff166342842e0e3330866040518463ffffffff1660e01b815260040161084993929190611a81565b600060405180830381600087803b15801561086357600080fd5b505af1158015610877573d6000803e3d6000fd5b505050506007546004600082825461088f9190611d14565b9250508190555082817f38690a554ffbc44eb6a75016e47d517d0db8e6c37494adc68d6d0b2c66f0ab21336000866040516108cc93929190611a81565b60405180910390a350600180819055505050565b60026001541415610926576040517f08c379a000000000000000000000000000000000000000000000000000000000815260040161091d90611bd5565b60405180910390fd5b600260018190555060006008600084815260200190815260200160002060040154905060006008600085815260200190815260200160002060010154905060006008600086815260200190815260200160002060050160019054906101000a900460ff169050828410156109cf576040517f08c379a00000000000000000000000000000000000000000000000000000000081526004016109c690611af5565b60405180910390fd5b6001151581151514610a16576040517f08c379a0000000000000000000000000000000000000000000000000000000008152600401610a0d90611b55565b60405180910390fd5b60006008600087815260200190815260200160002060020160009054906101000a900473ffffffffffffffffffffffffffffffffffffffff169050336008600088815260200190815260200160002060030160006101000a81548173ffffffffffffffffffffffffffffffffffffffff021916908373ffffffffffffffffffffffffffffffffffffffff160217905550336008600088815260200190815260200160002060020160006101000a81548173ffffffffffffffffffffffffffffffffffffffff021916908373ffffffffffffffffffffffffffffffffffffffff16021790555060016008600088815260200190815260200160002060050160006101000a81548160ff02191690831515021790555060006008600088815260200190815260200160002060050160016101000a81548160ff021916908315150217905550600560009054906101000a900473ffffffffffffffffffffffffffffffffffffffff1673ffffffffffffffffffffffffffffffffffffffff166323b872dd8233866040518463ffffffff1660e01b8152600401610bb893929190611a81565b600060405180830381600087803b158015610bd257600080fd5b505af1158015610be6573d6000803e3d6000fd5b50505050600660009054906101000a900473ffffffffffffffffffffffffffffffffffffffff1673ffffffffffffffffffffffffffffffffffffffff166323b872dd3383886040518463ffffffff1660e01b8152600401610c4993929190611a81565b602060405180830381600087803b158015610c6357600080fd5b505af1158015610c77573d6000803e3d6000fd5b505050506040513d601f19601f82011682018060405250810190610c9b919061166d565b50610ca66003611488565b50505050600180819055505050565b60606000610cc3600261149e565b90506000610cd1600361149e565b610cdb600261149e565b610ce59190611d6a565b90506000808267ffffffffffffffff811115610d0457610d03611eb9565b5b604051908082528060200260200182016040528015610d3d57816020015b610d2a6114ac565b815260200190600190039081610d225790505b50905060005b84811015610f125760086000600183610d5c9190611d14565b815260200190815260200160002060050160009054906101000a900460ff16610eff576000600182610d8e9190611d14565b90506000600860008381526020019081526020016000206040518061010001604052908160008201548152602001600182015481526020016002820160009054906101000a900473ffffffffffffffffffffffffffffffffffffffff1673ffffffffffffffffffffffffffffffffffffffff1673ffffffffffffffffffffffffffffffffffffffff1681526020016003820160009054906101000a900473ffffffffffffffffffffffffffffffffffffffff1673ffffffffffffffffffffffffffffffffffffffff1673ffffffffffffffffffffffffffffffffffffffff168152602001600482015481526020016005820160009054906101000a900460ff161515151581526020016005820160019054906101000a900460ff161515151581526020016005820160029054906101000a900460ff161515151581525050905080848681518110610ee257610ee1611e8a565b5b6020026020010181905250600185610efa9190611d14565b945050505b8080610f0a90611e12565b915050610d43565b508094505050505090565b60026001541415610f63576040517f08c379a0000000000000000000000000000000000000000000000000000000008152600401610f5a90611bd5565b60405180910390fd5b60026001819055506000600860008381526020019081526020016000206040518061010001604052908160008201548152602001600182015481526020016002820160009054906101000a900473ffffffffffffffffffffffffffffffffffffffff1673ffffffffffffffffffffffffffffffffffffffff1673ffffffffffffffffffffffffffffffffffffffff1681526020016003820160009054906101000a900473ffffffffffffffffffffffffffffffffffffffff1673ffffffffffffffffffffffffffffffffffffffff1673ffffffffffffffffffffffffffffffffffffffff168152602001600482015481526020016005820160009054906101000a900460ff161515151581526020016005820160019054906101000a900460ff161515151581526020016005820160029054906101000a900460ff16151515158152505090503373ffffffffffffffffffffffffffffffffffffffff16816060015173ffffffffffffffffffffffffffffffffffffffff161461111b576040517f08c379a000000000000000000000000000000000000000000000000000000000815260040161111290611b75565b60405180910390fd5b600115158160e00151151514611166576040517f08c379a000000000000000000000000000000000000000000000000000000000815260040161115d90611bb5565b60405180910390fd5b60016008600084815260200190815260200160002060050160016101000a81548160ff0219169083151502179055508060200151827f0b59dfc56db79c6259bcd97a3fc890ab90008a8b5781d89dd763e01651bc7bc833846040015185608001516040516111d693929190611a81565b60405180910390a3506001808190555050565b60075481565b600560009054906101000a900473ffffffffffffffffffffffffffffffffffffffff1681565b60086020528060005260406000206000915090508060000154908060010154908060020160009054906101000a900473ffffffffffffffffffffffffffffffffffffffff16908060030160009054906101000a900473ffffffffffffffffffffffffffffffffffffffff16908060040154908060050160009054906101000a900460ff16908060050160019054906101000a900460ff16908060050160029054906101000a900460ff16905088565b6112cc6113bc565b73ffffffffffffffffffffffffffffffffffffffff166112ea61048d565b73ffffffffffffffffffffffffffffffffffffffff1614611340576040517f08c379a000000000000000000000000000000000000000000000000000000000815260040161133790611b95565b60405180910390fd5b600073ffffffffffffffffffffffffffffffffffffffff168173ffffffffffffffffffffffffffffffffffffffff1614156113b0576040517f08c379a00000000000000000000000000000000000000000000000000000000081526004016113a790611b35565b60405180910390fd5b6113b9816113c4565b50565b600033905090565b60008060009054906101000a900473ffffffffffffffffffffffffffffffffffffffff169050816000806101000a81548173ffffffffffffffffffffffffffffffffffffffff021916908373ffffffffffffffffffffffffffffffffffffffff1602179055508173ffffffffffffffffffffffffffffffffffffffff168173ffffffffffffffffffffffffffffffffffffffff167f8be0079c531659141344cd1fd0a4f28419497f9722a3daafe3b4186f6b6457e060405160405180910390a35050565b6001816000016000828254019250508190555050565b600081600001549050919050565b6040518061010001604052806000815260200160008152602001600073ffffffffffffffffffffffffffffffffffffffff168152602001600073ffffffffffffffffffffffffffffffffffffffff168152602001600081526020016000151581526020016000151581526020016000151581525090565b600081359050611532816120be565b92915050565b600081519050611547816120d5565b92915050565b60008083601f84011261156357611562611eed565b5b8235905067ffffffffffffffff8111156115805761157f611ee8565b5b60208301915083600182028301111561159c5761159b611ef2565b5b9250929050565b6000813590506115b2816120ec565b92915050565b6000602082840312156115ce576115cd611efc565b5b60006115dc84828501611523565b91505092915050565b60008060008060006080868803121561160157611600611efc565b5b600061160f88828901611523565b955050602061162088828901611523565b9450506040611631888289016115a3565b935050606086013567ffffffffffffffff81111561165257611651611ef7565b5b61165e8882890161154d565b92509250509295509295909350565b60006020828403121561168357611682611efc565b5b600061169184828501611538565b91505092915050565b6000602082840312156116b0576116af611efc565b5b60006116be848285016115a3565b91505092915050565b600080604083850312156116de576116dd611efc565b5b60006116ec858286016115a3565b92505060206116fd858286016115a3565b9150509250929050565b60006117138383611904565b6101008301905092915050565b61172981611d9e565b82525050565b61173881611d9e565b82525050565b600061174982611cda565b6117538185611cf2565b935061175e83611cca565b8060005b8381101561178f5781516117768882611707565b975061178183611ce5565b925050600181019050611762565b5085935050505092915050565b6117a581611db0565b82525050565b6117b481611db0565b82525050565b6117c381611dbc565b82525050565b60006117d6601b83611d03565b91506117e182611f01565b602082019050919050565b60006117f9602e83611d03565b915061180482611f2a565b604082019050919050565b600061181c602683611d03565b915061182782611f79565b604082019050919050565b600061183f601183611d03565b915061184a82611fc8565b602082019050919050565b6000611862602083611d03565b915061186d82611ff1565b602082019050919050565b6000611885602083611d03565b91506118908261201a565b602082019050919050565b60006118a8601483611d03565b91506118b382612043565b602082019050919050565b60006118cb601f83611d03565b91506118d68261206c565b602082019050919050565b60006118ee601c83611d03565b91506118f982612095565b602082019050919050565b6101008201600082015161191b6000850182611a48565b50602082015161192e6020850182611a48565b5060408201516119416040850182611720565b5060608201516119546060850182611720565b5060808201516119676080850182611a48565b5060a082015161197a60a085018261179c565b5060c082015161198d60c085018261179c565b5060e08201516119a060e085018261179c565b50505050565b610100820160008201516119bd6000850182611a48565b5060208201516119d06020850182611a48565b5060408201516119e36040850182611720565b5060608201516119f66060850182611720565b506080820151611a096080850182611a48565b5060a0820151611a1c60a085018261179c565b5060c0820151611a2f60c085018261179c565b5060e0820151611a4260e085018261179c565b50505050565b611a5181611e08565b82525050565b611a6081611e08565b82525050565b6000602082019050611a7b600083018461172f565b92915050565b6000606082019050611a96600083018661172f565b611aa3602083018561172f565b611ab06040830184611a57565b949350505050565b60006020820190508181036000830152611ad2818461173e565b905092915050565b6000602082019050611aef60008301846117ba565b92915050565b60006020820190508181036000830152611b0e816117c9565b9050919050565b60006020820190508181036000830152611b2e816117ec565b9050919050565b60006020820190508181036000830152611b4e8161180f565b9050919050565b60006020820190508181036000830152611b6e81611832565b9050919050565b60006020820190508181036000830152611b8e81611855565b9050919050565b60006020820190508181036000830152611bae81611878565b9050919050565b60006020820190508181036000830152611bce8161189b565b9050919050565b60006020820190508181036000830152611bee816118be565b9050919050565b60006020820190508181036000830152611c0e816118e1565b9050919050565b600061010082019050611c2b60008301846119a6565b92915050565b6000602082019050611c466000830184611a57565b92915050565b600061010082019050611c62600083018b611a57565b611c6f602083018a611a57565b611c7c604083018961172f565b611c89606083018861172f565b611c966080830187611a57565b611ca360a08301866117ab565b611cb060c08301856117ab565b611cbd60e08301846117ab565b9998505050505050505050565b6000819050602082019050919050565b600081519050919050565b6000602082019050919050565b600082825260208201905092915050565b600082825260208201905092915050565b6000611d1f82611e08565b9150611d2a83611e08565b9250827fffffffffffffffffffffffffffffffffffffffffffffffffffffffffffffffff03821115611d5f57611d5e611e5b565b5b828201905092915050565b6000611d7582611e08565b9150611d8083611e08565b925082821015611d9357611d92611e5b565b5b828203905092915050565b6000611da982611de8565b9050919050565b60008115159050919050565b60007fffffffff0000000000000000000000000000000000000000000000000000000082169050919050565b600073ffffffffffffffffffffffffffffffffffffffff82169050919050565b6000819050919050565b6000611e1d82611e08565b91507fffffffffffffffffffffffffffffffffffffffffffffffffffffffffffffffff821415611e5057611e4f611e5b565b5b600182019050919050565b7f4e487b7100000000000000000000000000000000000000000000000000000000600052601160045260246000fd5b7f4e487b7100000000000000000000000000000000000000000000000000000000600052603260045260246000fd5b7f4e487b7100000000000000000000000000000000000000000000000000000000600052604160045260246000fd5b600080fd5b600080fd5b600080fd5b600080fd5b600080fd5b7f41736b696e67205072696365206e6f7420736174697366696564210000000000600082015250565b7f50726963652073686f756c64206265206174206c656173742073616d6520617360008201527f206c697374696e67207072696365000000000000000000000000000000000000602082015250565b7f4f776e61626c653a206e6577206f776e657220697320746865207a65726f206160008201527f6464726573730000000000000000000000000000000000000000000000000000602082015250565b7f4e4654206e6f7420666f722073616c652e000000000000000000000000000000600082015250565b7f4f6e6c79204974656d206f776e65722063616e206372656174652073616c652e600082015250565b7f4f776e61626c653a2063616c6c6572206973206e6f7420746865206f776e6572600082015250565b7f4974656d20646f6573206e6f742065786973742e000000000000000000000000600082015250565b7f5265656e7472616e637947756172643a207265656e7472616e742063616c6c00600082015250565b7f5072696365206d757374206265206174206c6561737420312077656900000000600082015250565b6120c781611d9e565b81146120d257600080fd5b50565b6120de81611db0565b81146120e957600080fd5b50565b6120f581611e08565b811461210057600080fd5b5056fea2646970667358221220adc67cad3d8943e08898ad5b4ffa689a14c6745606a2b41f846a00465cd2169664736f6c63430008070033",
					"opcodes": "PUSH1 0x80 PUSH1 0x40 MSTORE PUSH8 0x16345785D8A0000 PUSH1 0x7 SSTORE CALLVALUE DUP1 ISZERO PUSH3 0x1D JUMPI PUSH1 0x0 DUP1 REVERT JUMPDEST POP PUSH1 0x40 MLOAD PUSH3 0x23BA CODESIZE SUB DUP1 PUSH3 0x23BA DUP4 CODECOPY DUP2 DUP2 ADD PUSH1 0x40 MSTORE DUP2 ADD SWAP1 PUSH3 0x43 SWAP2 SWAP1 PUSH3 0x1D7 JUMP JUMPDEST PUSH3 0x63 PUSH3 0x57 PUSH3 0xF4 PUSH1 0x20 SHL PUSH1 0x20 SHR JUMP JUMPDEST PUSH3 0xFC PUSH1 0x20 SHL PUSH1 0x20 SHR JUMP JUMPDEST PUSH1 0x1 DUP1 DUP2 SWAP1 SSTORE POP DUP2 PUSH1 0x5 PUSH1 0x0 PUSH2 0x100 EXP DUP2 SLOAD DUP2 PUSH20 0xFFFFFFFFFFFFFFFFFFFFFFFFFFFFFFFFFFFFFFFF MUL NOT AND SWAP1 DUP4 PUSH20 0xFFFFFFFFFFFFFFFFFFFFFFFFFFFFFFFFFFFFFFFF AND MUL OR SWAP1 SSTORE POP DUP1 PUSH1 0x6 PUSH1 0x0 PUSH2 0x100 EXP DUP2 SLOAD DUP2 PUSH20 0xFFFFFFFFFFFFFFFFFFFFFFFFFFFFFFFFFFFFFFFF MUL NOT AND SWAP1 DUP4 PUSH20 0xFFFFFFFFFFFFFFFFFFFFFFFFFFFFFFFFFFFFFFFF AND MUL OR SWAP1 SSTORE POP POP POP PUSH3 0x271 JUMP JUMPDEST PUSH1 0x0 CALLER SWAP1 POP SWAP1 JUMP JUMPDEST PUSH1 0x0 DUP1 PUSH1 0x0 SWAP1 SLOAD SWAP1 PUSH2 0x100 EXP SWAP1 DIV PUSH20 0xFFFFFFFFFFFFFFFFFFFFFFFFFFFFFFFFFFFFFFFF AND SWAP1 POP DUP2 PUSH1 0x0 DUP1 PUSH2 0x100 EXP DUP2 SLOAD DUP2 PUSH20 0xFFFFFFFFFFFFFFFFFFFFFFFFFFFFFFFFFFFFFFFF MUL NOT AND SWAP1 DUP4 PUSH20 0xFFFFFFFFFFFFFFFFFFFFFFFFFFFFFFFFFFFFFFFF AND MUL OR SWAP1 SSTORE POP DUP2 PUSH20 0xFFFFFFFFFFFFFFFFFFFFFFFFFFFFFFFFFFFFFFFF AND DUP2 PUSH20 0xFFFFFFFFFFFFFFFFFFFFFFFFFFFFFFFFFFFFFFFF AND PUSH32 0x8BE0079C531659141344CD1FD0A4F28419497F9722A3DAAFE3B4186F6B6457E0 PUSH1 0x40 MLOAD PUSH1 0x40 MLOAD DUP1 SWAP2 SUB SWAP1 LOG3 POP POP JUMP JUMPDEST PUSH1 0x0 DUP2 MLOAD SWAP1 POP PUSH3 0x1D1 DUP2 PUSH3 0x257 JUMP JUMPDEST SWAP3 SWAP2 POP POP JUMP JUMPDEST PUSH1 0x0 DUP1 PUSH1 0x40 DUP4 DUP6 SUB SLT ISZERO PUSH3 0x1F1 JUMPI PUSH3 0x1F0 PUSH3 0x252 JUMP JUMPDEST JUMPDEST PUSH1 0x0 PUSH3 0x201 DUP6 DUP3 DUP7 ADD PUSH3 0x1C0 JUMP JUMPDEST SWAP3 POP POP PUSH1 0x20 PUSH3 0x214 DUP6 DUP3 DUP7 ADD PUSH3 0x1C0 JUMP JUMPDEST SWAP2 POP POP SWAP3 POP SWAP3 SWAP1 POP JUMP JUMPDEST PUSH1 0x0 PUSH3 0x22B DUP3 PUSH3 0x232 JUMP JUMPDEST SWAP1 POP SWAP2 SWAP1 POP JUMP JUMPDEST PUSH1 0x0 PUSH20 0xFFFFFFFFFFFFFFFFFFFFFFFFFFFFFFFFFFFFFFFF DUP3 AND SWAP1 POP SWAP2 SWAP1 POP JUMP JUMPDEST PUSH1 0x0 DUP1 REVERT JUMPDEST PUSH3 0x262 DUP2 PUSH3 0x21E JUMP JUMPDEST DUP2 EQ PUSH3 0x26E JUMPI PUSH1 0x0 DUP1 REVERT JUMPDEST POP JUMP JUMPDEST PUSH2 0x2139 DUP1 PUSH3 0x281 PUSH1 0x0 CODECOPY PUSH1 0x0 RETURN INVALID PUSH1 0x80 PUSH1 0x40 MSTORE CALLVALUE DUP1 ISZERO PUSH2 0x10 JUMPI PUSH1 0x0 DUP1 REVERT JUMPDEST POP PUSH1 0x4 CALLDATASIZE LT PUSH2 0xCF JUMPI PUSH1 0x0 CALLDATALOAD PUSH1 0xE0 SHR DUP1 PUSH4 0x9979C009 GT PUSH2 0x8C JUMPI DUP1 PUSH4 0xC78F19F9 GT PUSH2 0x66 JUMPI DUP1 PUSH4 0xC78F19F9 EQ PUSH2 0x1EC JUMPI DUP1 PUSH4 0xD56D229D EQ PUSH2 0x20A JUMPI DUP1 PUSH4 0xE61A70C0 EQ PUSH2 0x228 JUMPI DUP1 PUSH4 0xF2FDE38B EQ PUSH2 0x25F JUMPI PUSH2 0xCF JUMP JUMPDEST DUP1 PUSH4 0x9979C009 EQ PUSH2 0x196 JUMPI DUP1 PUSH4 0x9B8BC127 EQ PUSH2 0x1B2 JUMPI DUP1 PUSH4 0x9DA1B02A EQ PUSH2 0x1D0 JUMPI PUSH2 0xCF JUMP JUMPDEST DUP1 PUSH4 0x150B7A02 EQ PUSH2 0xD4 JUMPI DUP1 PUSH4 0x53DBCEB1 EQ PUSH2 0x104 JUMPI DUP1 PUSH4 0x715018A6 EQ PUSH2 0x134 JUMPI DUP1 PUSH4 0x889E2CD5 EQ PUSH2 0x13E JUMPI DUP1 PUSH4 0x8DA5CB5B EQ PUSH2 0x15C JUMPI DUP1 PUSH4 0x91066DA8 EQ PUSH2 0x17A JUMPI JUMPDEST PUSH1 0x0 DUP1 REVERT JUMPDEST PUSH2 0xEE PUSH1 0x4 DUP1 CALLDATASIZE SUB DUP2 ADD SWAP1 PUSH2 0xE9 SWAP2 SWAP1 PUSH2 0x15E5 JUMP JUMPDEST PUSH2 0x27B JUMP JUMPDEST PUSH1 0x40 MLOAD PUSH2 0xFB SWAP2 SWAP1 PUSH2 0x1ADA JUMP JUMPDEST PUSH1 0x40 MLOAD DUP1 SWAP2 SUB SWAP1 RETURN JUMPDEST PUSH2 0x11E PUSH1 0x4 DUP1 CALLDATASIZE SUB DUP2 ADD SWAP1 PUSH2 0x119 SWAP2 SWAP1 PUSH2 0x169A JUMP JUMPDEST PUSH2 0x290 JUMP JUMPDEST PUSH1 0x40 MLOAD PUSH2 0x12B SWAP2 SWAP1 PUSH2 0x1C15 JUMP JUMPDEST PUSH1 0x40 MLOAD DUP1 SWAP2 SUB SWAP1 RETURN JUMPDEST PUSH2 0x13C PUSH2 0x3DF JUMP JUMPDEST STOP JUMPDEST PUSH2 0x146 PUSH2 0x467 JUMP JUMPDEST PUSH1 0x40 MLOAD PUSH2 0x153 SWAP2 SWAP1 PUSH2 0x1A66 JUMP JUMPDEST PUSH1 0x40 MLOAD DUP1 SWAP2 SUB SWAP1 RETURN JUMPDEST PUSH2 0x164 PUSH2 0x48D JUMP JUMPDEST PUSH1 0x40 MLOAD PUSH2 0x171 SWAP2 SWAP1 PUSH2 0x1A66 JUMP JUMPDEST PUSH1 0x40 MLOAD DUP1 SWAP2 SUB SWAP1 RETURN JUMPDEST PUSH2 0x194 PUSH1 0x4 DUP1 CALLDATASIZE SUB DUP2 ADD SWAP1 PUSH2 0x18F SWAP2 SWAP1 PUSH2 0x16C7 JUMP JUMPDEST PUSH2 0x4B6 JUMP JUMPDEST STOP JUMPDEST PUSH2 0x1B0 PUSH1 0x4 DUP1 CALLDATASIZE SUB DUP2 ADD SWAP1 PUSH2 0x1AB SWAP2 SWAP1 PUSH2 0x16C7 JUMP JUMPDEST PUSH2 0x8E0 JUMP JUMPDEST STOP JUMPDEST PUSH2 0x1BA PUSH2 0xCB5 JUMP JUMPDEST PUSH1 0x40 MLOAD PUSH2 0x1C7 SWAP2 SWAP1 PUSH2 0x1AB8 JUMP JUMPDEST PUSH1 0x40 MLOAD DUP1 SWAP2 SUB SWAP1 RETURN JUMPDEST PUSH2 0x1EA PUSH1 0x4 DUP1 CALLDATASIZE SUB DUP2 ADD SWAP1 PUSH2 0x1E5 SWAP2 SWAP1 PUSH2 0x169A JUMP JUMPDEST PUSH2 0xF1D JUMP JUMPDEST STOP JUMPDEST PUSH2 0x1F4 PUSH2 0x11E9 JUMP JUMPDEST PUSH1 0x40 MLOAD PUSH2 0x201 SWAP2 SWAP1 PUSH2 0x1C31 JUMP JUMPDEST PUSH1 0x40 MLOAD DUP1 SWAP2 SUB SWAP1 RETURN JUMPDEST PUSH2 0x212 PUSH2 0x11EF JUMP JUMPDEST PUSH1 0x40 MLOAD PUSH2 0x21F SWAP2 SWAP1 PUSH2 0x1A66 JUMP JUMPDEST PUSH1 0x40 MLOAD DUP1 SWAP2 SUB SWAP1 RETURN JUMPDEST PUSH2 0x242 PUSH1 0x4 DUP1 CALLDATASIZE SUB DUP2 ADD SWAP1 PUSH2 0x23D SWAP2 SWAP1 PUSH2 0x169A JUMP JUMPDEST PUSH2 0x1215 JUMP JUMPDEST PUSH1 0x40 MLOAD PUSH2 0x256 SWAP9 SWAP8 SWAP7 SWAP6 SWAP5 SWAP4 SWAP3 SWAP2 SWAP1 PUSH2 0x1C4C JUMP JUMPDEST PUSH1 0x40 MLOAD DUP1 SWAP2 SUB SWAP1 RETURN JUMPDEST PUSH2 0x279 PUSH1 0x4 DUP1 CALLDATASIZE SUB DUP2 ADD SWAP1 PUSH2 0x274 SWAP2 SWAP1 PUSH2 0x15B8 JUMP JUMPDEST PUSH2 0x12C4 JUMP JUMPDEST STOP JUMPDEST PUSH1 0x0 PUSH4 0x150B7A02 PUSH1 0xE0 SHL SWAP1 POP SWAP6 SWAP5 POP POP POP POP POP JUMP JUMPDEST PUSH2 0x298 PUSH2 0x14AC JUMP JUMPDEST PUSH1 0x0 PUSH1 0x8 PUSH1 0x0 DUP5 DUP2 MSTORE PUSH1 0x20 ADD SWAP1 DUP2 MSTORE PUSH1 0x20 ADD PUSH1 0x0 KECCAK256 PUSH1 0x40 MLOAD DUP1 PUSH2 0x100 ADD PUSH1 0x40 MSTORE SWAP1 DUP2 PUSH1 0x0 DUP3 ADD SLOAD DUP2 MSTORE PUSH1 0x20 ADD PUSH1 0x1 DUP3 ADD SLOAD DUP2 MSTORE PUSH1 0x20 ADD PUSH1 0x2 DUP3 ADD PUSH1 0x0 SWAP1 SLOAD SWAP1 PUSH2 0x100 EXP SWAP1 DIV PUSH20 0xFFFFFFFFFFFFFFFFFFFFFFFFFFFFFFFFFFFFFFFF AND PUSH20 0xFFFFFFFFFFFFFFFFFFFFFFFFFFFFFFFFFFFFFFFF AND PUSH20 0xFFFFFFFFFFFFFFFFFFFFFFFFFFFFFFFFFFFFFFFF AND DUP2 MSTORE PUSH1 0x20 ADD PUSH1 0x3 DUP3 ADD PUSH1 0x0 SWAP1 SLOAD SWAP1 PUSH2 0x100 EXP SWAP1 DIV PUSH20 0xFFFFFFFFFFFFFFFFFFFFFFFFFFFFFFFFFFFFFFFF AND PUSH20 0xFFFFFFFFFFFFFFFFFFFFFFFFFFFFFFFFFFFFFFFF AND PUSH20 0xFFFFFFFFFFFFFFFFFFFFFFFFFFFFFFFFFFFFFFFF AND DUP2 MSTORE PUSH1 0x20 ADD PUSH1 0x4 DUP3 ADD SLOAD DUP2 MSTORE PUSH1 0x20 ADD PUSH1 0x5 DUP3 ADD PUSH1 0x0 SWAP1 SLOAD SWAP1 PUSH2 0x100 EXP SWAP1 DIV PUSH1 0xFF AND ISZERO ISZERO ISZERO ISZERO DUP2 MSTORE PUSH1 0x20 ADD PUSH1 0x5 DUP3 ADD PUSH1 0x1 SWAP1 SLOAD SWAP1 PUSH2 0x100 EXP SWAP1 DIV PUSH1 0xFF AND ISZERO ISZERO ISZERO ISZERO DUP2 MSTORE PUSH1 0x20 ADD PUSH1 0x5 DUP3 ADD PUSH1 0x2 SWAP1 SLOAD SWAP1 PUSH2 0x100 EXP SWAP1 DIV PUSH1 0xFF AND ISZERO ISZERO ISZERO ISZERO DUP2 MSTORE POP POP SWAP1 POP DUP1 SWAP2 POP POP SWAP2 SWAP1 POP JUMP JUMPDEST PUSH2 0x3E7 PUSH2 0x13BC JUMP JUMPDEST PUSH20 0xFFFFFFFFFFFFFFFFFFFFFFFFFFFFFFFFFFFFFFFF AND PUSH2 0x405 PUSH2 0x48D JUMP JUMPDEST PUSH20 0xFFFFFFFFFFFFFFFFFFFFFFFFFFFFFFFFFFFFFFFF AND EQ PUSH2 0x45B JUMPI PUSH1 0x40 MLOAD PUSH32 0x8C379A000000000000000000000000000000000000000000000000000000000 DUP2 MSTORE PUSH1 0x4 ADD PUSH2 0x452 SWAP1 PUSH2 0x1B95 JUMP JUMPDEST PUSH1 0x40 MLOAD DUP1 SWAP2 SUB SWAP1 REVERT JUMPDEST PUSH2 0x465 PUSH1 0x0 PUSH2 0x13C4 JUMP JUMPDEST JUMP JUMPDEST PUSH1 0x6 PUSH1 0x0 SWAP1 SLOAD SWAP1 PUSH2 0x100 EXP SWAP1 DIV PUSH20 0xFFFFFFFFFFFFFFFFFFFFFFFFFFFFFFFFFFFFFFFF AND DUP2 JUMP JUMPDEST PUSH1 0x0 DUP1 PUSH1 0x0 SWAP1 SLOAD SWAP1 PUSH2 0x100 EXP SWAP1 DIV PUSH20 0xFFFFFFFFFFFFFFFFFFFFFFFFFFFFFFFFFFFFFFFF AND SWAP1 POP SWAP1 JUMP JUMPDEST PUSH1 0x2 PUSH1 0x1 SLOAD EQ ISZERO PUSH2 0x4FC JUMPI PUSH1 0x40 MLOAD PUSH32 0x8C379A000000000000000000000000000000000000000000000000000000000 DUP2 MSTORE PUSH1 0x4 ADD PUSH2 0x4F3 SWAP1 PUSH2 0x1BD5 JUMP JUMPDEST PUSH1 0x40 MLOAD DUP1 SWAP2 SUB SWAP1 REVERT JUMPDEST PUSH1 0x2 PUSH1 0x1 DUP2 SWAP1 SSTORE POP PUSH1 0x0 DUP2 GT PUSH2 0x547 JUMPI PUSH1 0x40 MLOAD PUSH32 0x8C379A000000000000000000000000000000000000000000000000000000000 DUP2 MSTORE PUSH1 0x4 ADD PUSH2 0x53E SWAP1 PUSH2 0x1BF5 JUMP JUMPDEST PUSH1 0x40 MLOAD DUP1 SWAP2 SUB SWAP1 REVERT JUMPDEST PUSH1 0x7 SLOAD DUP2 LT ISZERO PUSH2 0x58C JUMPI PUSH1 0x40 MLOAD PUSH32 0x8C379A000000000000000000000000000000000000000000000000000000000 DUP2 MSTORE PUSH1 0x4 ADD PUSH2 0x583 SWAP1 PUSH2 0x1B15 JUMP JUMPDEST PUSH1 0x40 MLOAD DUP1 SWAP2 SUB SWAP1 REVERT JUMPDEST PUSH2 0x596 PUSH1 0x2 PUSH2 0x1488 JUMP JUMPDEST PUSH1 0x0 PUSH2 0x5A2 PUSH1 0x2 PUSH2 0x149E JUMP JUMPDEST SWAP1 POP PUSH1 0x40 MLOAD DUP1 PUSH2 0x100 ADD PUSH1 0x40 MSTORE DUP1 DUP3 DUP2 MSTORE PUSH1 0x20 ADD DUP5 DUP2 MSTORE PUSH1 0x20 ADD CALLER PUSH20 0xFFFFFFFFFFFFFFFFFFFFFFFFFFFFFFFFFFFFFFFF AND DUP2 MSTORE PUSH1 0x20 ADD PUSH1 0x0 PUSH20 0xFFFFFFFFFFFFFFFFFFFFFFFFFFFFFFFFFFFFFFFF AND DUP2 MSTORE PUSH1 0x20 ADD DUP4 DUP2 MSTORE PUSH1 0x20 ADD PUSH1 0x0 ISZERO ISZERO DUP2 MSTORE PUSH1 0x20 ADD PUSH1 0x0 ISZERO ISZERO DUP2 MSTORE PUSH1 0x20 ADD PUSH1 0x1 ISZERO ISZERO DUP2 MSTORE POP PUSH1 0x8 PUSH1 0x0 DUP4 DUP2 MSTORE PUSH1 0x20 ADD SWAP1 DUP2 MSTORE PUSH1 0x20 ADD PUSH1 0x0 KECCAK256 PUSH1 0x0 DUP3 ADD MLOAD DUP2 PUSH1 0x0 ADD SSTORE PUSH1 0x20 DUP3 ADD MLOAD DUP2 PUSH1 0x1 ADD SSTORE PUSH1 0x40 DUP3 ADD MLOAD DUP2 PUSH1 0x2 ADD PUSH1 0x0 PUSH2 0x100 EXP DUP2 SLOAD DUP2 PUSH20 0xFFFFFFFFFFFFFFFFFFFFFFFFFFFFFFFFFFFFFFFF MUL NOT AND SWAP1 DUP4 PUSH20 0xFFFFFFFFFFFFFFFFFFFFFFFFFFFFFFFFFFFFFFFF AND MUL OR SWAP1 SSTORE POP PUSH1 0x60 DUP3 ADD MLOAD DUP2 PUSH1 0x3 ADD PUSH1 0x0 PUSH2 0x100 EXP DUP2 SLOAD DUP2 PUSH20 0xFFFFFFFFFFFFFFFFFFFFFFFFFFFFFFFFFFFFFFFF MUL NOT AND SWAP1 DUP4 PUSH20 0xFFFFFFFFFFFFFFFFFFFFFFFFFFFFFFFFFFFFFFFF AND MUL OR SWAP1 SSTORE POP PUSH1 0x80 DUP3 ADD MLOAD DUP2 PUSH1 0x4 ADD SSTORE PUSH1 0xA0 DUP3 ADD MLOAD DUP2 PUSH1 0x5 ADD PUSH1 0x0 PUSH2 0x100 EXP DUP2 SLOAD DUP2 PUSH1 0xFF MUL NOT AND SWAP1 DUP4 ISZERO ISZERO MUL OR SWAP1 SSTORE POP PUSH1 0xC0 DUP3 ADD MLOAD DUP2 PUSH1 0x5 ADD PUSH1 0x1 PUSH2 0x100 EXP DUP2 SLOAD DUP2 PUSH1 0xFF MUL NOT AND SWAP1 DUP4 ISZERO ISZERO MUL OR SWAP1 SSTORE POP PUSH1 0xE0 DUP3 ADD MLOAD DUP2 PUSH1 0x5 ADD PUSH1 0x2 PUSH2 0x100 EXP DUP2 SLOAD DUP2 PUSH1 0xFF MUL NOT AND SWAP1 DUP4 ISZERO ISZERO MUL OR SWAP1 SSTORE POP SWAP1 POP POP PUSH1 0x6 PUSH1 0x0 SWAP1 SLOAD SWAP1 PUSH2 0x100 EXP SWAP1 DIV PUSH20 0xFFFFFFFFFFFFFFFFFFFFFFFFFFFFFFFFFFFFFFFF AND PUSH20 0xFFFFFFFFFFFFFFFFFFFFFFFFFFFFFFFFFFFFFFFF AND PUSH4 0x23B872DD CALLER ADDRESS PUSH1 0x7 SLOAD PUSH1 0x40 MLOAD DUP5 PUSH4 0xFFFFFFFF AND PUSH1 0xE0 SHL DUP2 MSTORE PUSH1 0x4 ADD PUSH2 0x797 SWAP4 SWAP3 SWAP2 SWAP1 PUSH2 0x1A81 JUMP JUMPDEST PUSH1 0x20 PUSH1 0x40 MLOAD DUP1 DUP4 SUB DUP2 PUSH1 0x0 DUP8 DUP1 EXTCODESIZE ISZERO DUP1 ISZERO PUSH2 0x7B1 JUMPI PUSH1 0x0 DUP1 REVERT JUMPDEST POP GAS CALL ISZERO DUP1 ISZERO PUSH2 0x7C5 JUMPI RETURNDATASIZE PUSH1 0x0 DUP1 RETURNDATACOPY RETURNDATASIZE PUSH1 0x0 REVERT JUMPDEST POP POP POP POP PUSH1 0x40 MLOAD RETURNDATASIZE PUSH1 0x1F NOT PUSH1 0x1F DUP3 ADD AND DUP3 ADD DUP1 PUSH1 0x40 MSTORE POP DUP2 ADD SWAP1 PUSH2 0x7E9 SWAP2 SWAP1 PUSH2 0x166D JUMP JUMPDEST POP PUSH1 0x5 PUSH1 0x0 SWAP1 SLOAD SWAP1 PUSH2 0x100 EXP SWAP1 DIV PUSH20 0xFFFFFFFFFFFFFFFFFFFFFFFFFFFFFFFFFFFFFFFF AND PUSH20 0xFFFFFFFFFFFFFFFFFFFFFFFFFFFFFFFFFFFFFFFF AND PUSH4 0x42842E0E CALLER ADDRESS DUP7 PUSH1 0x40 MLOAD DUP5 PUSH4 0xFFFFFFFF AND PUSH1 0xE0 SHL DUP2 MSTORE PUSH1 0x4 ADD PUSH2 0x849 SWAP4 SWAP3 SWAP2 SWAP1 PUSH2 0x1A81 JUMP JUMPDEST PUSH1 0x0 PUSH1 0x40 MLOAD DUP1 DUP4 SUB DUP2 PUSH1 0x0 DUP8 DUP1 EXTCODESIZE ISZERO DUP1 ISZERO PUSH2 0x863 JUMPI PUSH1 0x0 DUP1 REVERT JUMPDEST POP GAS CALL ISZERO DUP1 ISZERO PUSH2 0x877 JUMPI RETURNDATASIZE PUSH1 0x0 DUP1 RETURNDATACOPY RETURNDATASIZE PUSH1 0x0 REVERT JUMPDEST POP POP POP POP PUSH1 0x7 SLOAD PUSH1 0x4 PUSH1 0x0 DUP3 DUP3 SLOAD PUSH2 0x88F SWAP2 SWAP1 PUSH2 0x1D14 JUMP JUMPDEST SWAP3 POP POP DUP2 SWAP1 SSTORE POP DUP3 DUP2 PUSH32 0x38690A554FFBC44EB6A75016E47D517D0DB8E6C37494ADC68D6D0B2C66F0AB21 CALLER PUSH1 0x0 DUP7 PUSH1 0x40 MLOAD PUSH2 0x8CC SWAP4 SWAP3 SWAP2 SWAP1 PUSH2 0x1A81 JUMP JUMPDEST PUSH1 0x40 MLOAD DUP1 SWAP2 SUB SWAP1 LOG3 POP PUSH1 0x1 DUP1 DUP2 SWAP1 SSTORE POP POP POP JUMP JUMPDEST PUSH1 0x2 PUSH1 0x1 SLOAD EQ ISZERO PUSH2 0x926 JUMPI PUSH1 0x40 MLOAD PUSH32 0x8C379A000000000000000000000000000000000000000000000000000000000 DUP2 MSTORE PUSH1 0x4 ADD PUSH2 0x91D SWAP1 PUSH2 0x1BD5 JUMP JUMPDEST PUSH1 0x40 MLOAD DUP1 SWAP2 SUB SWAP1 REVERT JUMPDEST PUSH1 0x2 PUSH1 0x1 DUP2 SWAP1 SSTORE POP PUSH1 0x0 PUSH1 0x8 PUSH1 0x0 DUP5 DUP2 MSTORE PUSH1 0x20 ADD SWAP1 DUP2 MSTORE PUSH1 0x20 ADD PUSH1 0x0 KECCAK256 PUSH1 0x4 ADD SLOAD SWAP1 POP PUSH1 0x0 PUSH1 0x8 PUSH1 0x0 DUP6 DUP2 MSTORE PUSH1 0x20 ADD SWAP1 DUP2 MSTORE PUSH1 0x20 ADD PUSH1 0x0 KECCAK256 PUSH1 0x1 ADD SLOAD SWAP1 POP PUSH1 0x0 PUSH1 0x8 PUSH1 0x0 DUP7 DUP2 MSTORE PUSH1 0x20 ADD SWAP1 DUP2 MSTORE PUSH1 0x20 ADD PUSH1 0x0 KECCAK256 PUSH1 0x5 ADD PUSH1 0x1 SWAP1 SLOAD SWAP1 PUSH2 0x100 EXP SWAP1 DIV PUSH1 0xFF AND SWAP1 POP DUP3 DUP5 LT ISZERO PUSH2 0x9CF JUMPI PUSH1 0x40 MLOAD PUSH32 0x8C379A000000000000000000000000000000000000000000000000000000000 DUP2 MSTORE PUSH1 0x4 ADD PUSH2 0x9C6 SWAP1 PUSH2 0x1AF5 JUMP JUMPDEST PUSH1 0x40 MLOAD DUP1 SWAP2 SUB SWAP1 REVERT JUMPDEST PUSH1 0x1 ISZERO ISZERO DUP2 ISZERO ISZERO EQ PUSH2 0xA16 JUMPI PUSH1 0x40 MLOAD PUSH32 0x8C379A000000000000000000000000000000000000000000000000000000000 DUP2 MSTORE PUSH1 0x4 ADD PUSH2 0xA0D SWAP1 PUSH2 0x1B55 JUMP JUMPDEST PUSH1 0x40 MLOAD DUP1 SWAP2 SUB SWAP1 REVERT JUMPDEST PUSH1 0x0 PUSH1 0x8 PUSH1 0x0 DUP8 DUP2 MSTORE PUSH1 0x20 ADD SWAP1 DUP2 MSTORE PUSH1 0x20 ADD PUSH1 0x0 KECCAK256 PUSH1 0x2 ADD PUSH1 0x0 SWAP1 SLOAD SWAP1 PUSH2 0x100 EXP SWAP1 DIV PUSH20 0xFFFFFFFFFFFFFFFFFFFFFFFFFFFFFFFFFFFFFFFF AND SWAP1 POP CALLER PUSH1 0x8 PUSH1 0x0 DUP9 DUP2 MSTORE PUSH1 0x20 ADD SWAP1 DUP2 MSTORE PUSH1 0x20 ADD PUSH1 0x0 KECCAK256 PUSH1 0x3 ADD PUSH1 0x0 PUSH2 0x100 EXP DUP2 SLOAD DUP2 PUSH20 0xFFFFFFFFFFFFFFFFFFFFFFFFFFFFFFFFFFFFFFFF MUL NOT AND SWAP1 DUP4 PUSH20 0xFFFFFFFFFFFFFFFFFFFFFFFFFFFFFFFFFFFFFFFF AND MUL OR SWAP1 SSTORE POP CALLER PUSH1 0x8 PUSH1 0x0 DUP9 DUP2 MSTORE PUSH1 0x20 ADD SWAP1 DUP2 MSTORE PUSH1 0x20 ADD PUSH1 0x0 KECCAK256 PUSH1 0x2 ADD PUSH1 0x0 PUSH2 0x100 EXP DUP2 SLOAD DUP2 PUSH20 0xFFFFFFFFFFFFFFFFFFFFFFFFFFFFFFFFFFFFFFFF MUL NOT AND SWAP1 DUP4 PUSH20 0xFFFFFFFFFFFFFFFFFFFFFFFFFFFFFFFFFFFFFFFF AND MUL OR SWAP1 SSTORE POP PUSH1 0x1 PUSH1 0x8 PUSH1 0x0 DUP9 DUP2 MSTORE PUSH1 0x20 ADD SWAP1 DUP2 MSTORE PUSH1 0x20 ADD PUSH1 0x0 KECCAK256 PUSH1 0x5 ADD PUSH1 0x0 PUSH2 0x100 EXP DUP2 SLOAD DUP2 PUSH1 0xFF MUL NOT AND SWAP1 DUP4 ISZERO ISZERO MUL OR SWAP1 SSTORE POP PUSH1 0x0 PUSH1 0x8 PUSH1 0x0 DUP9 DUP2 MSTORE PUSH1 0x20 ADD SWAP1 DUP2 MSTORE PUSH1 0x20 ADD PUSH1 0x0 KECCAK256 PUSH1 0x5 ADD PUSH1 0x1 PUSH2 0x100 EXP DUP2 SLOAD DUP2 PUSH1 0xFF MUL NOT AND SWAP1 DUP4 ISZERO ISZERO MUL OR SWAP1 SSTORE POP PUSH1 0x5 PUSH1 0x0 SWAP1 SLOAD SWAP1 PUSH2 0x100 EXP SWAP1 DIV PUSH20 0xFFFFFFFFFFFFFFFFFFFFFFFFFFFFFFFFFFFFFFFF AND PUSH20 0xFFFFFFFFFFFFFFFFFFFFFFFFFFFFFFFFFFFFFFFF AND PUSH4 0x23B872DD DUP3 CALLER DUP7 PUSH1 0x40 MLOAD DUP5 PUSH4 0xFFFFFFFF AND PUSH1 0xE0 SHL DUP2 MSTORE PUSH1 0x4 ADD PUSH2 0xBB8 SWAP4 SWAP3 SWAP2 SWAP1 PUSH2 0x1A81 JUMP JUMPDEST PUSH1 0x0 PUSH1 0x40 MLOAD DUP1 DUP4 SUB DUP2 PUSH1 0x0 DUP8 DUP1 EXTCODESIZE ISZERO DUP1 ISZERO PUSH2 0xBD2 JUMPI PUSH1 0x0 DUP1 REVERT JUMPDEST POP GAS CALL ISZERO DUP1 ISZERO PUSH2 0xBE6 JUMPI RETURNDATASIZE PUSH1 0x0 DUP1 RETURNDATACOPY RETURNDATASIZE PUSH1 0x0 REVERT JUMPDEST POP POP POP POP PUSH1 0x6 PUSH1 0x0 SWAP1 SLOAD SWAP1 PUSH2 0x100 EXP SWAP1 DIV PUSH20 0xFFFFFFFFFFFFFFFFFFFFFFFFFFFFFFFFFFFFFFFF AND PUSH20 0xFFFFFFFFFFFFFFFFFFFFFFFFFFFFFFFFFFFFFFFF AND PUSH4 0x23B872DD CALLER DUP4 DUP9 PUSH1 0x40 MLOAD DUP5 PUSH4 0xFFFFFFFF AND PUSH1 0xE0 SHL DUP2 MSTORE PUSH1 0x4 ADD PUSH2 0xC49 SWAP4 SWAP3 SWAP2 SWAP1 PUSH2 0x1A81 JUMP JUMPDEST PUSH1 0x20 PUSH1 0x40 MLOAD DUP1 DUP4 SUB DUP2 PUSH1 0x0 DUP8 DUP1 EXTCODESIZE ISZERO DUP1 ISZERO PUSH2 0xC63 JUMPI PUSH1 0x0 DUP1 REVERT JUMPDEST POP GAS CALL ISZERO DUP1 ISZERO PUSH2 0xC77 JUMPI RETURNDATASIZE PUSH1 0x0 DUP1 RETURNDATACOPY RETURNDATASIZE PUSH1 0x0 REVERT JUMPDEST POP POP POP POP PUSH1 0x40 MLOAD RETURNDATASIZE PUSH1 0x1F NOT PUSH1 0x1F DUP3 ADD AND DUP3 ADD DUP1 PUSH1 0x40 MSTORE POP DUP2 ADD SWAP1 PUSH2 0xC9B SWAP2 SWAP1 PUSH2 0x166D JUMP JUMPDEST POP PUSH2 0xCA6 PUSH1 0x3 PUSH2 0x1488 JUMP JUMPDEST POP POP POP POP PUSH1 0x1 DUP1 DUP2 SWAP1 SSTORE POP POP POP JUMP JUMPDEST PUSH1 0x60 PUSH1 0x0 PUSH2 0xCC3 PUSH1 0x2 PUSH2 0x149E JUMP JUMPDEST SWAP1 POP PUSH1 0x0 PUSH2 0xCD1 PUSH1 0x3 PUSH2 0x149E JUMP JUMPDEST PUSH2 0xCDB PUSH1 0x2 PUSH2 0x149E JUMP JUMPDEST PUSH2 0xCE5 SWAP2 SWAP1 PUSH2 0x1D6A JUMP JUMPDEST SWAP1 POP PUSH1 0x0 DUP1 DUP3 PUSH8 0xFFFFFFFFFFFFFFFF DUP2 GT ISZERO PUSH2 0xD04 JUMPI PUSH2 0xD03 PUSH2 0x1EB9 JUMP JUMPDEST JUMPDEST PUSH1 0x40 MLOAD SWAP1 DUP1 DUP3 MSTORE DUP1 PUSH1 0x20 MUL PUSH1 0x20 ADD DUP3 ADD PUSH1 0x40 MSTORE DUP1 ISZERO PUSH2 0xD3D JUMPI DUP2 PUSH1 0x20 ADD JUMPDEST PUSH2 0xD2A PUSH2 0x14AC JUMP JUMPDEST DUP2 MSTORE PUSH1 0x20 ADD SWAP1 PUSH1 0x1 SWAP1 SUB SWAP1 DUP2 PUSH2 0xD22 JUMPI SWAP1 POP JUMPDEST POP SWAP1 POP PUSH1 0x0 JUMPDEST DUP5 DUP2 LT ISZERO PUSH2 0xF12 JUMPI PUSH1 0x8 PUSH1 0x0 PUSH1 0x1 DUP4 PUSH2 0xD5C SWAP2 SWAP1 PUSH2 0x1D14 JUMP JUMPDEST DUP2 MSTORE PUSH1 0x20 ADD SWAP1 DUP2 MSTORE PUSH1 0x20 ADD PUSH1 0x0 KECCAK256 PUSH1 0x5 ADD PUSH1 0x0 SWAP1 SLOAD SWAP1 PUSH2 0x100 EXP SWAP1 DIV PUSH1 0xFF AND PUSH2 0xEFF JUMPI PUSH1 0x0 PUSH1 0x1 DUP3 PUSH2 0xD8E SWAP2 SWAP1 PUSH2 0x1D14 JUMP JUMPDEST SWAP1 POP PUSH1 0x0 PUSH1 0x8 PUSH1 0x0 DUP4 DUP2 MSTORE PUSH1 0x20 ADD SWAP1 DUP2 MSTORE PUSH1 0x20 ADD PUSH1 0x0 KECCAK256 PUSH1 0x40 MLOAD DUP1 PUSH2 0x100 ADD PUSH1 0x40 MSTORE SWAP1 DUP2 PUSH1 0x0 DUP3 ADD SLOAD DUP2 MSTORE PUSH1 0x20 ADD PUSH1 0x1 DUP3 ADD SLOAD DUP2 MSTORE PUSH1 0x20 ADD PUSH1 0x2 DUP3 ADD PUSH1 0x0 SWAP1 SLOAD SWAP1 PUSH2 0x100 EXP SWAP1 DIV PUSH20 0xFFFFFFFFFFFFFFFFFFFFFFFFFFFFFFFFFFFFFFFF AND PUSH20 0xFFFFFFFFFFFFFFFFFFFFFFFFFFFFFFFFFFFFFFFF AND PUSH20 0xFFFFFFFFFFFFFFFFFFFFFFFFFFFFFFFFFFFFFFFF AND DUP2 MSTORE PUSH1 0x20 ADD PUSH1 0x3 DUP3 ADD PUSH1 0x0 SWAP1 SLOAD SWAP1 PUSH2 0x100 EXP SWAP1 DIV PUSH20 0xFFFFFFFFFFFFFFFFFFFFFFFFFFFFFFFFFFFFFFFF AND PUSH20 0xFFFFFFFFFFFFFFFFFFFFFFFFFFFFFFFFFFFFFFFF AND PUSH20 0xFFFFFFFFFFFFFFFFFFFFFFFFFFFFFFFFFFFFFFFF AND DUP2 MSTORE PUSH1 0x20 ADD PUSH1 0x4 DUP3 ADD SLOAD DUP2 MSTORE PUSH1 0x20 ADD PUSH1 0x5 DUP3 ADD PUSH1 0x0 SWAP1 SLOAD SWAP1 PUSH2 0x100 EXP SWAP1 DIV PUSH1 0xFF AND ISZERO ISZERO ISZERO ISZERO DUP2 MSTORE PUSH1 0x20 ADD PUSH1 0x5 DUP3 ADD PUSH1 0x1 SWAP1 SLOAD SWAP1 PUSH2 0x100 EXP SWAP1 DIV PUSH1 0xFF AND ISZERO ISZERO ISZERO ISZERO DUP2 MSTORE PUSH1 0x20 ADD PUSH1 0x5 DUP3 ADD PUSH1 0x2 SWAP1 SLOAD SWAP1 PUSH2 0x100 EXP SWAP1 DIV PUSH1 0xFF AND ISZERO ISZERO ISZERO ISZERO DUP2 MSTORE POP POP SWAP1 POP DUP1 DUP5 DUP7 DUP2 MLOAD DUP2 LT PUSH2 0xEE2 JUMPI PUSH2 0xEE1 PUSH2 0x1E8A JUMP JUMPDEST JUMPDEST PUSH1 0x20 MUL PUSH1 0x20 ADD ADD DUP2 SWAP1 MSTORE POP PUSH1 0x1 DUP6 PUSH2 0xEFA SWAP2 SWAP1 PUSH2 0x1D14 JUMP JUMPDEST SWAP5 POP POP POP JUMPDEST DUP1 DUP1 PUSH2 0xF0A SWAP1 PUSH2 0x1E12 JUMP JUMPDEST SWAP2 POP POP PUSH2 0xD43 JUMP JUMPDEST POP DUP1 SWAP5 POP POP POP POP POP SWAP1 JUMP JUMPDEST PUSH1 0x2 PUSH1 0x1 SLOAD EQ ISZERO PUSH2 0xF63 JUMPI PUSH1 0x40 MLOAD PUSH32 0x8C379A000000000000000000000000000000000000000000000000000000000 DUP2 MSTORE PUSH1 0x4 ADD PUSH2 0xF5A SWAP1 PUSH2 0x1BD5 JUMP JUMPDEST PUSH1 0x40 MLOAD DUP1 SWAP2 SUB SWAP1 REVERT JUMPDEST PUSH1 0x2 PUSH1 0x1 DUP2 SWAP1 SSTORE POP PUSH1 0x0 PUSH1 0x8 PUSH1 0x0 DUP4 DUP2 MSTORE PUSH1 0x20 ADD SWAP1 DUP2 MSTORE PUSH1 0x20 ADD PUSH1 0x0 KECCAK256 PUSH1 0x40 MLOAD DUP1 PUSH2 0x100 ADD PUSH1 0x40 MSTORE SWAP1 DUP2 PUSH1 0x0 DUP3 ADD SLOAD DUP2 MSTORE PUSH1 0x20 ADD PUSH1 0x1 DUP3 ADD SLOAD DUP2 MSTORE PUSH1 0x20 ADD PUSH1 0x2 DUP3 ADD PUSH1 0x0 SWAP1 SLOAD SWAP1 PUSH2 0x100 EXP SWAP1 DIV PUSH20 0xFFFFFFFFFFFFFFFFFFFFFFFFFFFFFFFFFFFFFFFF AND PUSH20 0xFFFFFFFFFFFFFFFFFFFFFFFFFFFFFFFFFFFFFFFF AND PUSH20 0xFFFFFFFFFFFFFFFFFFFFFFFFFFFFFFFFFFFFFFFF AND DUP2 MSTORE PUSH1 0x20 ADD PUSH1 0x3 DUP3 ADD PUSH1 0x0 SWAP1 SLOAD SWAP1 PUSH2 0x100 EXP SWAP1 DIV PUSH20 0xFFFFFFFFFFFFFFFFFFFFFFFFFFFFFFFFFFFFFFFF AND PUSH20 0xFFFFFFFFFFFFFFFFFFFFFFFFFFFFFFFFFFFFFFFF AND PUSH20 0xFFFFFFFFFFFFFFFFFFFFFFFFFFFFFFFFFFFFFFFF AND DUP2 MSTORE PUSH1 0x20 ADD PUSH1 0x4 DUP3 ADD SLOAD DUP2 MSTORE PUSH1 0x20 ADD PUSH1 0x5 DUP3 ADD PUSH1 0x0 SWAP1 SLOAD SWAP1 PUSH2 0x100 EXP SWAP1 DIV PUSH1 0xFF AND ISZERO ISZERO ISZERO ISZERO DUP2 MSTORE PUSH1 0x20 ADD PUSH1 0x5 DUP3 ADD PUSH1 0x1 SWAP1 SLOAD SWAP1 PUSH2 0x100 EXP SWAP1 DIV PUSH1 0xFF AND ISZERO ISZERO ISZERO ISZERO DUP2 MSTORE PUSH1 0x20 ADD PUSH1 0x5 DUP3 ADD PUSH1 0x2 SWAP1 SLOAD SWAP1 PUSH2 0x100 EXP SWAP1 DIV PUSH1 0xFF AND ISZERO ISZERO ISZERO ISZERO DUP2 MSTORE POP POP SWAP1 POP CALLER PUSH20 0xFFFFFFFFFFFFFFFFFFFFFFFFFFFFFFFFFFFFFFFF AND DUP2 PUSH1 0x60 ADD MLOAD PUSH20 0xFFFFFFFFFFFFFFFFFFFFFFFFFFFFFFFFFFFFFFFF AND EQ PUSH2 0x111B JUMPI PUSH1 0x40 MLOAD PUSH32 0x8C379A000000000000000000000000000000000000000000000000000000000 DUP2 MSTORE PUSH1 0x4 ADD PUSH2 0x1112 SWAP1 PUSH2 0x1B75 JUMP JUMPDEST PUSH1 0x40 MLOAD DUP1 SWAP2 SUB SWAP1 REVERT JUMPDEST PUSH1 0x1 ISZERO ISZERO DUP2 PUSH1 0xE0 ADD MLOAD ISZERO ISZERO EQ PUSH2 0x1166 JUMPI PUSH1 0x40 MLOAD PUSH32 0x8C379A000000000000000000000000000000000000000000000000000000000 DUP2 MSTORE PUSH1 0x4 ADD PUSH2 0x115D SWAP1 PUSH2 0x1BB5 JUMP JUMPDEST PUSH1 0x40 MLOAD DUP1 SWAP2 SUB SWAP1 REVERT JUMPDEST PUSH1 0x1 PUSH1 0x8 PUSH1 0x0 DUP5 DUP2 MSTORE PUSH1 0x20 ADD SWAP1 DUP2 MSTORE PUSH1 0x20 ADD PUSH1 0x0 KECCAK256 PUSH1 0x5 ADD PUSH1 0x1 PUSH2 0x100 EXP DUP2 SLOAD DUP2 PUSH1 0xFF MUL NOT AND SWAP1 DUP4 ISZERO ISZERO MUL OR SWAP1 SSTORE POP DUP1 PUSH1 0x20 ADD MLOAD DUP3 PUSH32 0xB59DFC56DB79C6259BCD97A3FC890AB90008A8B5781D89DD763E01651BC7BC8 CALLER DUP5 PUSH1 0x40 ADD MLOAD DUP6 PUSH1 0x80 ADD MLOAD PUSH1 0x40 MLOAD PUSH2 0x11D6 SWAP4 SWAP3 SWAP2 SWAP1 PUSH2 0x1A81 JUMP JUMPDEST PUSH1 0x40 MLOAD DUP1 SWAP2 SUB SWAP1 LOG3 POP PUSH1 0x1 DUP1 DUP2 SWAP1 SSTORE POP POP JUMP JUMPDEST PUSH1 0x7 SLOAD DUP2 JUMP JUMPDEST PUSH1 0x5 PUSH1 0x0 SWAP1 SLOAD SWAP1 PUSH2 0x100 EXP SWAP1 DIV PUSH20 0xFFFFFFFFFFFFFFFFFFFFFFFFFFFFFFFFFFFFFFFF AND DUP2 JUMP JUMPDEST PUSH1 0x8 PUSH1 0x20 MSTORE DUP1 PUSH1 0x0 MSTORE PUSH1 0x40 PUSH1 0x0 KECCAK256 PUSH1 0x0 SWAP2 POP SWAP1 POP DUP1 PUSH1 0x0 ADD SLOAD SWAP1 DUP1 PUSH1 0x1 ADD SLOAD SWAP1 DUP1 PUSH1 0x2 ADD PUSH1 0x0 SWAP1 SLOAD SWAP1 PUSH2 0x100 EXP SWAP1 DIV PUSH20 0xFFFFFFFFFFFFFFFFFFFFFFFFFFFFFFFFFFFFFFFF AND SWAP1 DUP1 PUSH1 0x3 ADD PUSH1 0x0 SWAP1 SLOAD SWAP1 PUSH2 0x100 EXP SWAP1 DIV PUSH20 0xFFFFFFFFFFFFFFFFFFFFFFFFFFFFFFFFFFFFFFFF AND SWAP1 DUP1 PUSH1 0x4 ADD SLOAD SWAP1 DUP1 PUSH1 0x5 ADD PUSH1 0x0 SWAP1 SLOAD SWAP1 PUSH2 0x100 EXP SWAP1 DIV PUSH1 0xFF AND SWAP1 DUP1 PUSH1 0x5 ADD PUSH1 0x1 SWAP1 SLOAD SWAP1 PUSH2 0x100 EXP SWAP1 DIV PUSH1 0xFF AND SWAP1 DUP1 PUSH1 0x5 ADD PUSH1 0x2 SWAP1 SLOAD SWAP1 PUSH2 0x100 EXP SWAP1 DIV PUSH1 0xFF AND SWAP1 POP DUP9 JUMP JUMPDEST PUSH2 0x12CC PUSH2 0x13BC JUMP JUMPDEST PUSH20 0xFFFFFFFFFFFFFFFFFFFFFFFFFFFFFFFFFFFFFFFF AND PUSH2 0x12EA PUSH2 0x48D JUMP JUMPDEST PUSH20 0xFFFFFFFFFFFFFFFFFFFFFFFFFFFFFFFFFFFFFFFF AND EQ PUSH2 0x1340 JUMPI PUSH1 0x40 MLOAD PUSH32 0x8C379A000000000000000000000000000000000000000000000000000000000 DUP2 MSTORE PUSH1 0x4 ADD PUSH2 0x1337 SWAP1 PUSH2 0x1B95 JUMP JUMPDEST PUSH1 0x40 MLOAD DUP1 SWAP2 SUB SWAP1 REVERT JUMPDEST PUSH1 0x0 PUSH20 0xFFFFFFFFFFFFFFFFFFFFFFFFFFFFFFFFFFFFFFFF AND DUP2 PUSH20 0xFFFFFFFFFFFFFFFFFFFFFFFFFFFFFFFFFFFFFFFF AND EQ ISZERO PUSH2 0x13B0 JUMPI PUSH1 0x40 MLOAD PUSH32 0x8C379A000000000000000000000000000000000000000000000000000000000 DUP2 MSTORE PUSH1 0x4 ADD PUSH2 0x13A7 SWAP1 PUSH2 0x1B35 JUMP JUMPDEST PUSH1 0x40 MLOAD DUP1 SWAP2 SUB SWAP1 REVERT JUMPDEST PUSH2 0x13B9 DUP2 PUSH2 0x13C4 JUMP JUMPDEST POP JUMP JUMPDEST PUSH1 0x0 CALLER SWAP1 POP SWAP1 JUMP JUMPDEST PUSH1 0x0 DUP1 PUSH1 0x0 SWAP1 SLOAD SWAP1 PUSH2 0x100 EXP SWAP1 DIV PUSH20 0xFFFFFFFFFFFFFFFFFFFFFFFFFFFFFFFFFFFFFFFF AND SWAP1 POP DUP2 PUSH1 0x0 DUP1 PUSH2 0x100 EXP DUP2 SLOAD DUP2 PUSH20 0xFFFFFFFFFFFFFFFFFFFFFFFFFFFFFFFFFFFFFFFF MUL NOT AND SWAP1 DUP4 PUSH20 0xFFFFFFFFFFFFFFFFFFFFFFFFFFFFFFFFFFFFFFFF AND MUL OR SWAP1 SSTORE POP DUP2 PUSH20 0xFFFFFFFFFFFFFFFFFFFFFFFFFFFFFFFFFFFFFFFF AND DUP2 PUSH20 0xFFFFFFFFFFFFFFFFFFFFFFFFFFFFFFFFFFFFFFFF AND PUSH32 0x8BE0079C531659141344CD1FD0A4F28419497F9722A3DAAFE3B4186F6B6457E0 PUSH1 0x40 MLOAD PUSH1 0x40 MLOAD DUP1 SWAP2 SUB SWAP1 LOG3 POP POP JUMP JUMPDEST PUSH1 0x1 DUP2 PUSH1 0x0 ADD PUSH1 0x0 DUP3 DUP3 SLOAD ADD SWAP3 POP POP DUP2 SWAP1 SSTORE POP POP JUMP JUMPDEST PUSH1 0x0 DUP2 PUSH1 0x0 ADD SLOAD SWAP1 POP SWAP2 SWAP1 POP JUMP JUMPDEST PUSH1 0x40 MLOAD DUP1 PUSH2 0x100 ADD PUSH1 0x40 MSTORE DUP1 PUSH1 0x0 DUP2 MSTORE PUSH1 0x20 ADD PUSH1 0x0 DUP2 MSTORE PUSH1 0x20 ADD PUSH1 0x0 PUSH20 0xFFFFFFFFFFFFFFFFFFFFFFFFFFFFFFFFFFFFFFFF AND DUP2 MSTORE PUSH1 0x20 ADD PUSH1 0x0 PUSH20 0xFFFFFFFFFFFFFFFFFFFFFFFFFFFFFFFFFFFFFFFF AND DUP2 MSTORE PUSH1 0x20 ADD PUSH1 0x0 DUP2 MSTORE PUSH1 0x20 ADD PUSH1 0x0 ISZERO ISZERO DUP2 MSTORE PUSH1 0x20 ADD PUSH1 0x0 ISZERO ISZERO DUP2 MSTORE PUSH1 0x20 ADD PUSH1 0x0 ISZERO ISZERO DUP2 MSTORE POP SWAP1 JUMP JUMPDEST PUSH1 0x0 DUP2 CALLDATALOAD SWAP1 POP PUSH2 0x1532 DUP2 PUSH2 0x20BE JUMP JUMPDEST SWAP3 SWAP2 POP POP JUMP JUMPDEST PUSH1 0x0 DUP2 MLOAD SWAP1 POP PUSH2 0x1547 DUP2 PUSH2 0x20D5 JUMP JUMPDEST SWAP3 SWAP2 POP POP JUMP JUMPDEST PUSH1 0x0 DUP1 DUP4 PUSH1 0x1F DUP5 ADD SLT PUSH2 0x1563 JUMPI PUSH2 0x1562 PUSH2 0x1EED JUMP JUMPDEST JUMPDEST DUP3 CALLDATALOAD SWAP1 POP PUSH8 0xFFFFFFFFFFFFFFFF DUP2 GT ISZERO PUSH2 0x1580 JUMPI PUSH2 0x157F PUSH2 0x1EE8 JUMP JUMPDEST JUMPDEST PUSH1 0x20 DUP4 ADD SWAP2 POP DUP4 PUSH1 0x1 DUP3 MUL DUP4 ADD GT ISZERO PUSH2 0x159C JUMPI PUSH2 0x159B PUSH2 0x1EF2 JUMP JUMPDEST JUMPDEST SWAP3 POP SWAP3 SWAP1 POP JUMP JUMPDEST PUSH1 0x0 DUP2 CALLDATALOAD SWAP1 POP PUSH2 0x15B2 DUP2 PUSH2 0x20EC JUMP JUMPDEST SWAP3 SWAP2 POP POP JUMP JUMPDEST PUSH1 0x0 PUSH1 0x20 DUP3 DUP5 SUB SLT ISZERO PUSH2 0x15CE JUMPI PUSH2 0x15CD PUSH2 0x1EFC JUMP JUMPDEST JUMPDEST PUSH1 0x0 PUSH2 0x15DC DUP5 DUP3 DUP6 ADD PUSH2 0x1523 JUMP JUMPDEST SWAP2 POP POP SWAP3 SWAP2 POP POP JUMP JUMPDEST PUSH1 0x0 DUP1 PUSH1 0x0 DUP1 PUSH1 0x0 PUSH1 0x80 DUP7 DUP9 SUB SLT ISZERO PUSH2 0x1601 JUMPI PUSH2 0x1600 PUSH2 0x1EFC JUMP JUMPDEST JUMPDEST PUSH1 0x0 PUSH2 0x160F DUP9 DUP3 DUP10 ADD PUSH2 0x1523 JUMP JUMPDEST SWAP6 POP POP PUSH1 0x20 PUSH2 0x1620 DUP9 DUP3 DUP10 ADD PUSH2 0x1523 JUMP JUMPDEST SWAP5 POP POP PUSH1 0x40 PUSH2 0x1631 DUP9 DUP3 DUP10 ADD PUSH2 0x15A3 JUMP JUMPDEST SWAP4 POP POP PUSH1 0x60 DUP7 ADD CALLDATALOAD PUSH8 0xFFFFFFFFFFFFFFFF DUP2 GT ISZERO PUSH2 0x1652 JUMPI PUSH2 0x1651 PUSH2 0x1EF7 JUMP JUMPDEST JUMPDEST PUSH2 0x165E DUP9 DUP3 DUP10 ADD PUSH2 0x154D JUMP JUMPDEST SWAP3 POP SWAP3 POP POP SWAP3 SWAP6 POP SWAP3 SWAP6 SWAP1 SWAP4 POP JUMP JUMPDEST PUSH1 0x0 PUSH1 0x20 DUP3 DUP5 SUB SLT ISZERO PUSH2 0x1683 JUMPI PUSH2 0x1682 PUSH2 0x1EFC JUMP JUMPDEST JUMPDEST PUSH1 0x0 PUSH2 0x1691 DUP5 DUP3 DUP6 ADD PUSH2 0x1538 JUMP JUMPDEST SWAP2 POP POP SWAP3 SWAP2 POP POP JUMP JUMPDEST PUSH1 0x0 PUSH1 0x20 DUP3 DUP5 SUB SLT ISZERO PUSH2 0x16B0 JUMPI PUSH2 0x16AF PUSH2 0x1EFC JUMP JUMPDEST JUMPDEST PUSH1 0x0 PUSH2 0x16BE DUP5 DUP3 DUP6 ADD PUSH2 0x15A3 JUMP JUMPDEST SWAP2 POP POP SWAP3 SWAP2 POP POP JUMP JUMPDEST PUSH1 0x0 DUP1 PUSH1 0x40 DUP4 DUP6 SUB SLT ISZERO PUSH2 0x16DE JUMPI PUSH2 0x16DD PUSH2 0x1EFC JUMP JUMPDEST JUMPDEST PUSH1 0x0 PUSH2 0x16EC DUP6 DUP3 DUP7 ADD PUSH2 0x15A3 JUMP JUMPDEST SWAP3 POP POP PUSH1 0x20 PUSH2 0x16FD DUP6 DUP3 DUP7 ADD PUSH2 0x15A3 JUMP JUMPDEST SWAP2 POP POP SWAP3 POP SWAP3 SWAP1 POP JUMP JUMPDEST PUSH1 0x0 PUSH2 0x1713 DUP4 DUP4 PUSH2 0x1904 JUMP JUMPDEST PUSH2 0x100 DUP4 ADD SWAP1 POP SWAP3 SWAP2 POP POP JUMP JUMPDEST PUSH2 0x1729 DUP2 PUSH2 0x1D9E JUMP JUMPDEST DUP3 MSTORE POP POP JUMP JUMPDEST PUSH2 0x1738 DUP2 PUSH2 0x1D9E JUMP JUMPDEST DUP3 MSTORE POP POP JUMP JUMPDEST PUSH1 0x0 PUSH2 0x1749 DUP3 PUSH2 0x1CDA JUMP JUMPDEST PUSH2 0x1753 DUP2 DUP6 PUSH2 0x1CF2 JUMP JUMPDEST SWAP4 POP PUSH2 0x175E DUP4 PUSH2 0x1CCA JUMP JUMPDEST DUP1 PUSH1 0x0 JUMPDEST DUP4 DUP2 LT ISZERO PUSH2 0x178F JUMPI DUP2 MLOAD PUSH2 0x1776 DUP9 DUP3 PUSH2 0x1707 JUMP JUMPDEST SWAP8 POP PUSH2 0x1781 DUP4 PUSH2 0x1CE5 JUMP JUMPDEST SWAP3 POP POP PUSH1 0x1 DUP2 ADD SWAP1 POP PUSH2 0x1762 JUMP JUMPDEST POP DUP6 SWAP4 POP POP POP POP SWAP3 SWAP2 POP POP JUMP JUMPDEST PUSH2 0x17A5 DUP2 PUSH2 0x1DB0 JUMP JUMPDEST DUP3 MSTORE POP POP JUMP JUMPDEST PUSH2 0x17B4 DUP2 PUSH2 0x1DB0 JUMP JUMPDEST DUP3 MSTORE POP POP JUMP JUMPDEST PUSH2 0x17C3 DUP2 PUSH2 0x1DBC JUMP JUMPDEST DUP3 MSTORE POP POP JUMP JUMPDEST PUSH1 0x0 PUSH2 0x17D6 PUSH1 0x1B DUP4 PUSH2 0x1D03 JUMP JUMPDEST SWAP2 POP PUSH2 0x17E1 DUP3 PUSH2 0x1F01 JUMP JUMPDEST PUSH1 0x20 DUP3 ADD SWAP1 POP SWAP2 SWAP1 POP JUMP JUMPDEST PUSH1 0x0 PUSH2 0x17F9 PUSH1 0x2E DUP4 PUSH2 0x1D03 JUMP JUMPDEST SWAP2 POP PUSH2 0x1804 DUP3 PUSH2 0x1F2A JUMP JUMPDEST PUSH1 0x40 DUP3 ADD SWAP1 POP SWAP2 SWAP1 POP JUMP JUMPDEST PUSH1 0x0 PUSH2 0x181C PUSH1 0x26 DUP4 PUSH2 0x1D03 JUMP JUMPDEST SWAP2 POP PUSH2 0x1827 DUP3 PUSH2 0x1F79 JUMP JUMPDEST PUSH1 0x40 DUP3 ADD SWAP1 POP SWAP2 SWAP1 POP JUMP JUMPDEST PUSH1 0x0 PUSH2 0x183F PUSH1 0x11 DUP4 PUSH2 0x1D03 JUMP JUMPDEST SWAP2 POP PUSH2 0x184A DUP3 PUSH2 0x1FC8 JUMP JUMPDEST PUSH1 0x20 DUP3 ADD SWAP1 POP SWAP2 SWAP1 POP JUMP JUMPDEST PUSH1 0x0 PUSH2 0x1862 PUSH1 0x20 DUP4 PUSH2 0x1D03 JUMP JUMPDEST SWAP2 POP PUSH2 0x186D DUP3 PUSH2 0x1FF1 JUMP JUMPDEST PUSH1 0x20 DUP3 ADD SWAP1 POP SWAP2 SWAP1 POP JUMP JUMPDEST PUSH1 0x0 PUSH2 0x1885 PUSH1 0x20 DUP4 PUSH2 0x1D03 JUMP JUMPDEST SWAP2 POP PUSH2 0x1890 DUP3 PUSH2 0x201A JUMP JUMPDEST PUSH1 0x20 DUP3 ADD SWAP1 POP SWAP2 SWAP1 POP JUMP JUMPDEST PUSH1 0x0 PUSH2 0x18A8 PUSH1 0x14 DUP4 PUSH2 0x1D03 JUMP JUMPDEST SWAP2 POP PUSH2 0x18B3 DUP3 PUSH2 0x2043 JUMP JUMPDEST PUSH1 0x20 DUP3 ADD SWAP1 POP SWAP2 SWAP1 POP JUMP JUMPDEST PUSH1 0x0 PUSH2 0x18CB PUSH1 0x1F DUP4 PUSH2 0x1D03 JUMP JUMPDEST SWAP2 POP PUSH2 0x18D6 DUP3 PUSH2 0x206C JUMP JUMPDEST PUSH1 0x20 DUP3 ADD SWAP1 POP SWAP2 SWAP1 POP JUMP JUMPDEST PUSH1 0x0 PUSH2 0x18EE PUSH1 0x1C DUP4 PUSH2 0x1D03 JUMP JUMPDEST SWAP2 POP PUSH2 0x18F9 DUP3 PUSH2 0x2095 JUMP JUMPDEST PUSH1 0x20 DUP3 ADD SWAP1 POP SWAP2 SWAP1 POP JUMP JUMPDEST PUSH2 0x100 DUP3 ADD PUSH1 0x0 DUP3 ADD MLOAD PUSH2 0x191B PUSH1 0x0 DUP6 ADD DUP3 PUSH2 0x1A48 JUMP JUMPDEST POP PUSH1 0x20 DUP3 ADD MLOAD PUSH2 0x192E PUSH1 0x20 DUP6 ADD DUP3 PUSH2 0x1A48 JUMP JUMPDEST POP PUSH1 0x40 DUP3 ADD MLOAD PUSH2 0x1941 PUSH1 0x40 DUP6 ADD DUP3 PUSH2 0x1720 JUMP JUMPDEST POP PUSH1 0x60 DUP3 ADD MLOAD PUSH2 0x1954 PUSH1 0x60 DUP6 ADD DUP3 PUSH2 0x1720 JUMP JUMPDEST POP PUSH1 0x80 DUP3 ADD MLOAD PUSH2 0x1967 PUSH1 0x80 DUP6 ADD DUP3 PUSH2 0x1A48 JUMP JUMPDEST POP PUSH1 0xA0 DUP3 ADD MLOAD PUSH2 0x197A PUSH1 0xA0 DUP6 ADD DUP3 PUSH2 0x179C JUMP JUMPDEST POP PUSH1 0xC0 DUP3 ADD MLOAD PUSH2 0x198D PUSH1 0xC0 DUP6 ADD DUP3 PUSH2 0x179C JUMP JUMPDEST POP PUSH1 0xE0 DUP3 ADD MLOAD PUSH2 0x19A0 PUSH1 0xE0 DUP6 ADD DUP3 PUSH2 0x179C JUMP JUMPDEST POP POP POP POP JUMP JUMPDEST PUSH2 0x100 DUP3 ADD PUSH1 0x0 DUP3 ADD MLOAD PUSH2 0x19BD PUSH1 0x0 DUP6 ADD DUP3 PUSH2 0x1A48 JUMP JUMPDEST POP PUSH1 0x20 DUP3 ADD MLOAD PUSH2 0x19D0 PUSH1 0x20 DUP6 ADD DUP3 PUSH2 0x1A48 JUMP JUMPDEST POP PUSH1 0x40 DUP3 ADD MLOAD PUSH2 0x19E3 PUSH1 0x40 DUP6 ADD DUP3 PUSH2 0x1720 JUMP JUMPDEST POP PUSH1 0x60 DUP3 ADD MLOAD PUSH2 0x19F6 PUSH1 0x60 DUP6 ADD DUP3 PUSH2 0x1720 JUMP JUMPDEST POP PUSH1 0x80 DUP3 ADD MLOAD PUSH2 0x1A09 PUSH1 0x80 DUP6 ADD DUP3 PUSH2 0x1A48 JUMP JUMPDEST POP PUSH1 0xA0 DUP3 ADD MLOAD PUSH2 0x1A1C PUSH1 0xA0 DUP6 ADD DUP3 PUSH2 0x179C JUMP JUMPDEST POP PUSH1 0xC0 DUP3 ADD MLOAD PUSH2 0x1A2F PUSH1 0xC0 DUP6 ADD DUP3 PUSH2 0x179C JUMP JUMPDEST POP PUSH1 0xE0 DUP3 ADD MLOAD PUSH2 0x1A42 PUSH1 0xE0 DUP6 ADD DUP3 PUSH2 0x179C JUMP JUMPDEST POP POP POP POP JUMP JUMPDEST PUSH2 0x1A51 DUP2 PUSH2 0x1E08 JUMP JUMPDEST DUP3 MSTORE POP POP JUMP JUMPDEST PUSH2 0x1A60 DUP2 PUSH2 0x1E08 JUMP JUMPDEST DUP3 MSTORE POP POP JUMP JUMPDEST PUSH1 0x0 PUSH1 0x20 DUP3 ADD SWAP1 POP PUSH2 0x1A7B PUSH1 0x0 DUP4 ADD DUP5 PUSH2 0x172F JUMP JUMPDEST SWAP3 SWAP2 POP POP JUMP JUMPDEST PUSH1 0x0 PUSH1 0x60 DUP3 ADD SWAP1 POP PUSH2 0x1A96 PUSH1 0x0 DUP4 ADD DUP7 PUSH2 0x172F JUMP JUMPDEST PUSH2 0x1AA3 PUSH1 0x20 DUP4 ADD DUP6 PUSH2 0x172F JUMP JUMPDEST PUSH2 0x1AB0 PUSH1 0x40 DUP4 ADD DUP5 PUSH2 0x1A57 JUMP JUMPDEST SWAP5 SWAP4 POP POP POP POP JUMP JUMPDEST PUSH1 0x0 PUSH1 0x20 DUP3 ADD SWAP1 POP DUP2 DUP2 SUB PUSH1 0x0 DUP4 ADD MSTORE PUSH2 0x1AD2 DUP2 DUP5 PUSH2 0x173E JUMP JUMPDEST SWAP1 POP SWAP3 SWAP2 POP POP JUMP JUMPDEST PUSH1 0x0 PUSH1 0x20 DUP3 ADD SWAP1 POP PUSH2 0x1AEF PUSH1 0x0 DUP4 ADD DUP5 PUSH2 0x17BA JUMP JUMPDEST SWAP3 SWAP2 POP POP JUMP JUMPDEST PUSH1 0x0 PUSH1 0x20 DUP3 ADD SWAP1 POP DUP2 DUP2 SUB PUSH1 0x0 DUP4 ADD MSTORE PUSH2 0x1B0E DUP2 PUSH2 0x17C9 JUMP JUMPDEST SWAP1 POP SWAP2 SWAP1 POP JUMP JUMPDEST PUSH1 0x0 PUSH1 0x20 DUP3 ADD SWAP1 POP DUP2 DUP2 SUB PUSH1 0x0 DUP4 ADD MSTORE PUSH2 0x1B2E DUP2 PUSH2 0x17EC JUMP JUMPDEST SWAP1 POP SWAP2 SWAP1 POP JUMP JUMPDEST PUSH1 0x0 PUSH1 0x20 DUP3 ADD SWAP1 POP DUP2 DUP2 SUB PUSH1 0x0 DUP4 ADD MSTORE PUSH2 0x1B4E DUP2 PUSH2 0x180F JUMP JUMPDEST SWAP1 POP SWAP2 SWAP1 POP JUMP JUMPDEST PUSH1 0x0 PUSH1 0x20 DUP3 ADD SWAP1 POP DUP2 DUP2 SUB PUSH1 0x0 DUP4 ADD MSTORE PUSH2 0x1B6E DUP2 PUSH2 0x1832 JUMP JUMPDEST SWAP1 POP SWAP2 SWAP1 POP JUMP JUMPDEST PUSH1 0x0 PUSH1 0x20 DUP3 ADD SWAP1 POP DUP2 DUP2 SUB PUSH1 0x0 DUP4 ADD MSTORE PUSH2 0x1B8E DUP2 PUSH2 0x1855 JUMP JUMPDEST SWAP1 POP SWAP2 SWAP1 POP JUMP JUMPDEST PUSH1 0x0 PUSH1 0x20 DUP3 ADD SWAP1 POP DUP2 DUP2 SUB PUSH1 0x0 DUP4 ADD MSTORE PUSH2 0x1BAE DUP2 PUSH2 0x1878 JUMP JUMPDEST SWAP1 POP SWAP2 SWAP1 POP JUMP JUMPDEST PUSH1 0x0 PUSH1 0x20 DUP3 ADD SWAP1 POP DUP2 DUP2 SUB PUSH1 0x0 DUP4 ADD MSTORE PUSH2 0x1BCE DUP2 PUSH2 0x189B JUMP JUMPDEST SWAP1 POP SWAP2 SWAP1 POP JUMP JUMPDEST PUSH1 0x0 PUSH1 0x20 DUP3 ADD SWAP1 POP DUP2 DUP2 SUB PUSH1 0x0 DUP4 ADD MSTORE PUSH2 0x1BEE DUP2 PUSH2 0x18BE JUMP JUMPDEST SWAP1 POP SWAP2 SWAP1 POP JUMP JUMPDEST PUSH1 0x0 PUSH1 0x20 DUP3 ADD SWAP1 POP DUP2 DUP2 SUB PUSH1 0x0 DUP4 ADD MSTORE PUSH2 0x1C0E DUP2 PUSH2 0x18E1 JUMP JUMPDEST SWAP1 POP SWAP2 SWAP1 POP JUMP JUMPDEST PUSH1 0x0 PUSH2 0x100 DUP3 ADD SWAP1 POP PUSH2 0x1C2B PUSH1 0x0 DUP4 ADD DUP5 PUSH2 0x19A6 JUMP JUMPDEST SWAP3 SWAP2 POP POP JUMP JUMPDEST PUSH1 0x0 PUSH1 0x20 DUP3 ADD SWAP1 POP PUSH2 0x1C46 PUSH1 0x0 DUP4 ADD DUP5 PUSH2 0x1A57 JUMP JUMPDEST SWAP3 SWAP2 POP POP JUMP JUMPDEST PUSH1 0x0 PUSH2 0x100 DUP3 ADD SWAP1 POP PUSH2 0x1C62 PUSH1 0x0 DUP4 ADD DUP12 PUSH2 0x1A57 JUMP JUMPDEST PUSH2 0x1C6F PUSH1 0x20 DUP4 ADD DUP11 PUSH2 0x1A57 JUMP JUMPDEST PUSH2 0x1C7C PUSH1 0x40 DUP4 ADD DUP10 PUSH2 0x172F JUMP JUMPDEST PUSH2 0x1C89 PUSH1 0x60 DUP4 ADD DUP9 PUSH2 0x172F JUMP JUMPDEST PUSH2 0x1C96 PUSH1 0x80 DUP4 ADD DUP8 PUSH2 0x1A57 JUMP JUMPDEST PUSH2 0x1CA3 PUSH1 0xA0 DUP4 ADD DUP7 PUSH2 0x17AB JUMP JUMPDEST PUSH2 0x1CB0 PUSH1 0xC0 DUP4 ADD DUP6 PUSH2 0x17AB JUMP JUMPDEST PUSH2 0x1CBD PUSH1 0xE0 DUP4 ADD DUP5 PUSH2 0x17AB JUMP JUMPDEST SWAP10 SWAP9 POP POP POP POP POP POP POP POP POP JUMP JUMPDEST PUSH1 0x0 DUP2 SWAP1 POP PUSH1 0x20 DUP3 ADD SWAP1 POP SWAP2 SWAP1 POP JUMP JUMPDEST PUSH1 0x0 DUP2 MLOAD SWAP1 POP SWAP2 SWAP1 POP JUMP JUMPDEST PUSH1 0x0 PUSH1 0x20 DUP3 ADD SWAP1 POP SWAP2 SWAP1 POP JUMP JUMPDEST PUSH1 0x0 DUP3 DUP3 MSTORE PUSH1 0x20 DUP3 ADD SWAP1 POP SWAP3 SWAP2 POP POP JUMP JUMPDEST PUSH1 0x0 DUP3 DUP3 MSTORE PUSH1 0x20 DUP3 ADD SWAP1 POP SWAP3 SWAP2 POP POP JUMP JUMPDEST PUSH1 0x0 PUSH2 0x1D1F DUP3 PUSH2 0x1E08 JUMP JUMPDEST SWAP2 POP PUSH2 0x1D2A DUP4 PUSH2 0x1E08 JUMP JUMPDEST SWAP3 POP DUP3 PUSH32 0xFFFFFFFFFFFFFFFFFFFFFFFFFFFFFFFFFFFFFFFFFFFFFFFFFFFFFFFFFFFFFFFF SUB DUP3 GT ISZERO PUSH2 0x1D5F JUMPI PUSH2 0x1D5E PUSH2 0x1E5B JUMP JUMPDEST JUMPDEST DUP3 DUP3 ADD SWAP1 POP SWAP3 SWAP2 POP POP JUMP JUMPDEST PUSH1 0x0 PUSH2 0x1D75 DUP3 PUSH2 0x1E08 JUMP JUMPDEST SWAP2 POP PUSH2 0x1D80 DUP4 PUSH2 0x1E08 JUMP JUMPDEST SWAP3 POP DUP3 DUP3 LT ISZERO PUSH2 0x1D93 JUMPI PUSH2 0x1D92 PUSH2 0x1E5B JUMP JUMPDEST JUMPDEST DUP3 DUP3 SUB SWAP1 POP SWAP3 SWAP2 POP POP JUMP JUMPDEST PUSH1 0x0 PUSH2 0x1DA9 DUP3 PUSH2 0x1DE8 JUMP JUMPDEST SWAP1 POP SWAP2 SWAP1 POP JUMP JUMPDEST PUSH1 0x0 DUP2 ISZERO ISZERO SWAP1 POP SWAP2 SWAP1 POP JUMP JUMPDEST PUSH1 0x0 PUSH32 0xFFFFFFFF00000000000000000000000000000000000000000000000000000000 DUP3 AND SWAP1 POP SWAP2 SWAP1 POP JUMP JUMPDEST PUSH1 0x0 PUSH20 0xFFFFFFFFFFFFFFFFFFFFFFFFFFFFFFFFFFFFFFFF DUP3 AND SWAP1 POP SWAP2 SWAP1 POP JUMP JUMPDEST PUSH1 0x0 DUP2 SWAP1 POP SWAP2 SWAP1 POP JUMP JUMPDEST PUSH1 0x0 PUSH2 0x1E1D DUP3 PUSH2 0x1E08 JUMP JUMPDEST SWAP2 POP PUSH32 0xFFFFFFFFFFFFFFFFFFFFFFFFFFFFFFFFFFFFFFFFFFFFFFFFFFFFFFFFFFFFFFFF DUP3 EQ ISZERO PUSH2 0x1E50 JUMPI PUSH2 0x1E4F PUSH2 0x1E5B JUMP JUMPDEST JUMPDEST PUSH1 0x1 DUP3 ADD SWAP1 POP SWAP2 SWAP1 POP JUMP JUMPDEST PUSH32 0x4E487B7100000000000000000000000000000000000000000000000000000000 PUSH1 0x0 MSTORE PUSH1 0x11 PUSH1 0x4 MSTORE PUSH1 0x24 PUSH1 0x0 REVERT JUMPDEST PUSH32 0x4E487B7100000000000000000000000000000000000000000000000000000000 PUSH1 0x0 MSTORE PUSH1 0x32 PUSH1 0x4 MSTORE PUSH1 0x24 PUSH1 0x0 REVERT JUMPDEST PUSH32 0x4E487B7100000000000000000000000000000000000000000000000000000000 PUSH1 0x0 MSTORE PUSH1 0x41 PUSH1 0x4 MSTORE PUSH1 0x24 PUSH1 0x0 REVERT JUMPDEST PUSH1 0x0 DUP1 REVERT JUMPDEST PUSH1 0x0 DUP1 REVERT JUMPDEST PUSH1 0x0 DUP1 REVERT JUMPDEST PUSH1 0x0 DUP1 REVERT JUMPDEST PUSH1 0x0 DUP1 REVERT JUMPDEST PUSH32 0x41736B696E67205072696365206E6F7420736174697366696564210000000000 PUSH1 0x0 DUP3 ADD MSTORE POP JUMP JUMPDEST PUSH32 0x50726963652073686F756C64206265206174206C656173742073616D65206173 PUSH1 0x0 DUP3 ADD MSTORE PUSH32 0x206C697374696E67207072696365000000000000000000000000000000000000 PUSH1 0x20 DUP3 ADD MSTORE POP JUMP JUMPDEST PUSH32 0x4F776E61626C653A206E6577206F776E657220697320746865207A65726F2061 PUSH1 0x0 DUP3 ADD MSTORE PUSH32 0x6464726573730000000000000000000000000000000000000000000000000000 PUSH1 0x20 DUP3 ADD MSTORE POP JUMP JUMPDEST PUSH32 0x4E4654206E6F7420666F722073616C652E000000000000000000000000000000 PUSH1 0x0 DUP3 ADD MSTORE POP JUMP JUMPDEST PUSH32 0x4F6E6C79204974656D206F776E65722063616E206372656174652073616C652E PUSH1 0x0 DUP3 ADD MSTORE POP JUMP JUMPDEST PUSH32 0x4F776E61626C653A2063616C6C6572206973206E6F7420746865206F776E6572 PUSH1 0x0 DUP3 ADD MSTORE POP JUMP JUMPDEST PUSH32 0x4974656D20646F6573206E6F742065786973742E000000000000000000000000 PUSH1 0x0 DUP3 ADD MSTORE POP JUMP JUMPDEST PUSH32 0x5265656E7472616E637947756172643A207265656E7472616E742063616C6C00 PUSH1 0x0 DUP3 ADD MSTORE POP JUMP JUMPDEST PUSH32 0x5072696365206D757374206265206174206C6561737420312077656900000000 PUSH1 0x0 DUP3 ADD MSTORE POP JUMP JUMPDEST PUSH2 0x20C7 DUP2 PUSH2 0x1D9E JUMP JUMPDEST DUP2 EQ PUSH2 0x20D2 JUMPI PUSH1 0x0 DUP1 REVERT JUMPDEST POP JUMP JUMPDEST PUSH2 0x20DE DUP2 PUSH2 0x1DB0 JUMP JUMPDEST DUP2 EQ PUSH2 0x20E9 JUMPI PUSH1 0x0 DUP1 REVERT JUMPDEST POP JUMP JUMPDEST PUSH2 0x20F5 DUP2 PUSH2 0x1E08 JUMP JUMPDEST DUP2 EQ PUSH2 0x2100 JUMPI PUSH1 0x0 DUP1 REVERT JUMPDEST POP JUMP INVALID LOG2 PUSH5 0x6970667358 0x22 SLT KECCAK256 0xAD 0xC6 PUSH29 0xAD3D8943E08898AD5B4FFA689A14C6745606A2B41F846A00465CD21696 PUSH5 0x736F6C6343 STOP ADDMOD SMOD STOP CALLER "
				},
				"gasEstimates": {
					"creation": {
						"codeDepositCost": "1701000",
						"executionCost": "infinite",
						"totalCost": "infinite"
					},
					"external": {
						"acceptedTokenAddress()": "2581",
						"addItemToMarket(uint256,uint256)": "infinite",
						"buyItem(uint256,uint256)": "infinite",
						"createSale(uint256)": "infinite",
						"getMarketItemById(uint256)": "infinite",
						"getUnsoldItems()": "infinite",
						"idToMarketItem(uint256)": "infinite",
						"listingPrice()": "2451",
						"nftContract()": "2558",
						"onERC721Received(address,address,uint256,bytes)": "infinite",
						"owner()": "2611",
						"renounceOwnership()": "30419",
						"transferOwnership(address)": "30811"
					}
				},
				"methodIdentifiers": {
					"acceptedTokenAddress()": "889e2cd5",
					"addItemToMarket(uint256,uint256)": "91066da8",
					"buyItem(uint256,uint256)": "9979c009",
					"createSale(uint256)": "9da1b02a",
					"getMarketItemById(uint256)": "53dbceb1",
					"getUnsoldItems()": "9b8bc127",
					"idToMarketItem(uint256)": "e61a70c0",
					"listingPrice()": "c78f19f9",
					"nftContract()": "d56d229d",
					"onERC721Received(address,address,uint256,bytes)": "150b7a02",
					"owner()": "8da5cb5b",
					"renounceOwnership()": "715018a6",
					"transferOwnership(address)": "f2fde38b"
				}
			},
			"storageLayout": {
				"storage": [
					{
						"astId": 7,
						"contract": "contracts/TestMarketplace.sol:TestMarketplace",
						"label": "_owner",
						"offset": 0,
						"slot": "0",
						"type": "t_address"
					},
					{
						"astId": 115,
						"contract": "contracts/TestMarketplace.sol:TestMarketplace",
						"label": "_status",
						"offset": 0,
						"slot": "1",
						"type": "t_uint256"
					},
					{
						"astId": 485,
						"contract": "contracts/TestMarketplace.sol:TestMarketplace",
						"label": "_itemIds",
						"offset": 0,
						"slot": "2",
						"type": "t_struct(Counter)384_storage"
					},
					{
						"astId": 488,
						"contract": "contracts/TestMarketplace.sol:TestMarketplace",
						"label": "_itemsSold",
						"offset": 0,
						"slot": "3",
						"type": "t_struct(Counter)384_storage"
					},
					{
						"astId": 490,
						"contract": "contracts/TestMarketplace.sol:TestMarketplace",
						"label": "_amountCollected",
						"offset": 0,
						"slot": "4",
						"type": "t_uint256"
					},
					{
						"astId": 492,
						"contract": "contracts/TestMarketplace.sol:TestMarketplace",
						"label": "nftContract",
						"offset": 0,
						"slot": "5",
						"type": "t_address"
					},
					{
						"astId": 494,
						"contract": "contracts/TestMarketplace.sol:TestMarketplace",
						"label": "acceptedTokenAddress",
						"offset": 0,
						"slot": "6",
						"type": "t_address"
					},
					{
						"astId": 497,
						"contract": "contracts/TestMarketplace.sol:TestMarketplace",
						"label": "listingPrice",
						"offset": 0,
						"slot": "7",
						"type": "t_uint256"
					},
					{
						"astId": 519,
						"contract": "contracts/TestMarketplace.sol:TestMarketplace",
						"label": "idToMarketItem",
						"offset": 0,
						"slot": "8",
						"type": "t_mapping(t_uint256,t_struct(MarketItem)514_storage)"
					}
				],
				"types": {
					"t_address": {
						"encoding": "inplace",
						"label": "address",
						"numberOfBytes": "20"
					},
					"t_bool": {
						"encoding": "inplace",
						"label": "bool",
						"numberOfBytes": "1"
					},
					"t_mapping(t_uint256,t_struct(MarketItem)514_storage)": {
						"encoding": "mapping",
						"key": "t_uint256",
						"label": "mapping(uint256 => struct TestMarketplace.MarketItem)",
						"numberOfBytes": "32",
						"value": "t_struct(MarketItem)514_storage"
					},
					"t_struct(Counter)384_storage": {
						"encoding": "inplace",
						"label": "struct Counters.Counter",
						"members": [
							{
								"astId": 383,
								"contract": "contracts/TestMarketplace.sol:TestMarketplace",
								"label": "_value",
								"offset": 0,
								"slot": "0",
								"type": "t_uint256"
							}
						],
						"numberOfBytes": "32"
					},
					"t_struct(MarketItem)514_storage": {
						"encoding": "inplace",
						"label": "struct TestMarketplace.MarketItem",
						"members": [
							{
								"astId": 499,
								"contract": "contracts/TestMarketplace.sol:TestMarketplace",
								"label": "itemId",
								"offset": 0,
								"slot": "0",
								"type": "t_uint256"
							},
							{
								"astId": 501,
								"contract": "contracts/TestMarketplace.sol:TestMarketplace",
								"label": "tokenId",
								"offset": 0,
								"slot": "1",
								"type": "t_uint256"
							},
							{
								"astId": 503,
								"contract": "contracts/TestMarketplace.sol:TestMarketplace",
								"label": "seller",
								"offset": 0,
								"slot": "2",
								"type": "t_address"
							},
							{
								"astId": 505,
								"contract": "contracts/TestMarketplace.sol:TestMarketplace",
								"label": "owner",
								"offset": 0,
								"slot": "3",
								"type": "t_address"
							},
							{
								"astId": 507,
								"contract": "contracts/TestMarketplace.sol:TestMarketplace",
								"label": "price",
								"offset": 0,
								"slot": "4",
								"type": "t_uint256"
							},
							{
								"astId": 509,
								"contract": "contracts/TestMarketplace.sol:TestMarketplace",
								"label": "isSold",
								"offset": 0,
								"slot": "5",
								"type": "t_bool"
							},
							{
								"astId": 511,
								"contract": "contracts/TestMarketplace.sol:TestMarketplace",
								"label": "isUpForSale",
								"offset": 1,
								"slot": "5",
								"type": "t_bool"
							},
							{
								"astId": 513,
								"contract": "contracts/TestMarketplace.sol:TestMarketplace",
								"label": "exists",
								"offset": 2,
								"slot": "5",
								"type": "t_bool"
							}
						],
						"numberOfBytes": "192"
					},
					"t_uint256": {
						"encoding": "inplace",
						"label": "uint256",
						"numberOfBytes": "32"
					}
				}
			},
			"userdoc": {
				"kind": "user",
				"methods": {},
				"version": 1
			}
		}
	}
}