{
	"contracts/TestMarketplace.sol": {
		"TestMarketplace": {
			"abi": [
				{
					"inputs": [
						{
							"internalType": "address",
							"name": "_nftContract",
							"type": "address"
						},
						{
							"internalType": "address",
							"name": "_acceptedTokenAddress",
							"type": "address"
						}
					],
					"stateMutability": "nonpayable",
					"type": "constructor"
				},
				{
					"anonymous": false,
					"inputs": [
						{
							"indexed": true,
							"internalType": "uint256",
							"name": "itemId",
							"type": "uint256"
						},
						{
							"indexed": true,
							"internalType": "uint256",
							"name": "tokenId",
							"type": "uint256"
						},
						{
							"indexed": false,
							"internalType": "address",
							"name": "seller",
							"type": "address"
						},
						{
							"indexed": false,
							"internalType": "address",
							"name": "owner",
							"type": "address"
						},
						{
							"indexed": false,
							"internalType": "uint256",
							"name": "price",
							"type": "uint256"
						}
					],
					"name": "MarketItemCreated",
					"type": "event"
				},
				{
					"anonymous": false,
					"inputs": [
						{
							"indexed": true,
							"internalType": "uint256",
							"name": "itemId",
							"type": "uint256"
						},
						{
							"indexed": true,
							"internalType": "uint256",
							"name": "tokenId",
							"type": "uint256"
						},
						{
							"indexed": false,
							"internalType": "address",
							"name": "seller",
							"type": "address"
						},
						{
							"indexed": false,
							"internalType": "address",
							"name": "owner",
							"type": "address"
						},
						{
							"indexed": false,
							"internalType": "uint256",
							"name": "price",
							"type": "uint256"
						}
					],
					"name": "MarketItemUpForSale",
					"type": "event"
				},
				{
					"anonymous": false,
					"inputs": [
						{
							"indexed": true,
							"internalType": "address",
							"name": "previousOwner",
							"type": "address"
						},
						{
							"indexed": true,
							"internalType": "address",
							"name": "newOwner",
							"type": "address"
						}
					],
					"name": "OwnershipTransferred",
					"type": "event"
				},
				{
					"inputs": [],
					"name": "acceptedTokenAddress",
					"outputs": [
						{
							"internalType": "address",
							"name": "",
							"type": "address"
						}
					],
					"stateMutability": "view",
					"type": "function"
				},
				{
					"inputs": [
						{
							"internalType": "uint256",
							"name": "tokenId",
							"type": "uint256"
						},
						{
							"internalType": "uint256",
							"name": "price",
							"type": "uint256"
						}
					],
					"name": "addItemToMarket",
					"outputs": [],
					"stateMutability": "nonpayable",
					"type": "function"
				},
				{
					"inputs": [
						{
							"internalType": "uint256",
							"name": "itemId",
							"type": "uint256"
						},
						{
							"internalType": "uint256",
							"name": "itemPrice",
							"type": "uint256"
						}
					],
					"name": "buyItem",
					"outputs": [],
					"stateMutability": "nonpayable",
					"type": "function"
				},
				{
					"inputs": [
						{
							"internalType": "uint256",
							"name": "itemId",
							"type": "uint256"
						}
					],
					"name": "createSale",
					"outputs": [],
					"stateMutability": "nonpayable",
					"type": "function"
				},
				{
					"inputs": [
						{
							"internalType": "uint256",
							"name": "marketItemId",
							"type": "uint256"
						}
					],
					"name": "getMarketItemById",
					"outputs": [
						{
							"components": [
								{
									"internalType": "uint256",
									"name": "itemId",
									"type": "uint256"
								},
								{
									"internalType": "uint256",
									"name": "tokenId",
									"type": "uint256"
								},
								{
									"internalType": "address",
									"name": "seller",
									"type": "address"
								},
								{
									"internalType": "address",
									"name": "owner",
									"type": "address"
								},
								{
									"internalType": "uint256",
									"name": "price",
									"type": "uint256"
								},
								{
									"internalType": "bool",
									"name": "isSold",
									"type": "bool"
								},
								{
									"internalType": "bool",
									"name": "isUpForSale",
									"type": "bool"
								},
								{
									"internalType": "bool",
									"name": "exists",
									"type": "bool"
								}
							],
							"internalType": "struct TestMarketplace.MarketItem",
							"name": "",
							"type": "tuple"
						}
					],
					"stateMutability": "view",
					"type": "function"
				},
				{
					"inputs": [],
					"name": "getUnsoldItems",
					"outputs": [
						{
							"components": [
								{
									"internalType": "uint256",
									"name": "itemId",
									"type": "uint256"
								},
								{
									"internalType": "uint256",
									"name": "tokenId",
									"type": "uint256"
								},
								{
									"internalType": "address",
									"name": "seller",
									"type": "address"
								},
								{
									"internalType": "address",
									"name": "owner",
									"type": "address"
								},
								{
									"internalType": "uint256",
									"name": "price",
									"type": "uint256"
								},
								{
									"internalType": "bool",
									"name": "isSold",
									"type": "bool"
								},
								{
									"internalType": "bool",
									"name": "isUpForSale",
									"type": "bool"
								},
								{
									"internalType": "bool",
									"name": "exists",
									"type": "bool"
								}
							],
							"internalType": "struct TestMarketplace.MarketItem[]",
							"name": "",
							"type": "tuple[]"
						}
					],
					"stateMutability": "view",
					"type": "function"
				},
				{
					"inputs": [
						{
							"internalType": "uint256",
							"name": "",
							"type": "uint256"
						}
					],
					"name": "idToMarketItem",
					"outputs": [
						{
							"internalType": "uint256",
							"name": "itemId",
							"type": "uint256"
						},
						{
							"internalType": "uint256",
							"name": "tokenId",
							"type": "uint256"
						},
						{
							"internalType": "address",
							"name": "seller",
							"type": "address"
						},
						{
							"internalType": "address",
							"name": "owner",
							"type": "address"
						},
						{
							"internalType": "uint256",
							"name": "price",
							"type": "uint256"
						},
						{
							"internalType": "bool",
							"name": "isSold",
							"type": "bool"
						},
						{
							"internalType": "bool",
							"name": "isUpForSale",
							"type": "bool"
						},
						{
							"internalType": "bool",
							"name": "exists",
							"type": "bool"
						}
					],
					"stateMutability": "view",
					"type": "function"
				},
				{
					"inputs": [],
					"name": "listingPrice",
					"outputs": [
						{
							"internalType": "uint256",
							"name": "",
							"type": "uint256"
						}
					],
					"stateMutability": "view",
					"type": "function"
				},
				{
					"inputs": [],
					"name": "nftContract",
					"outputs": [
						{
							"internalType": "address",
							"name": "",
							"type": "address"
						}
					],
					"stateMutability": "view",
					"type": "function"
				},
				{
					"inputs": [],
					"name": "onERC721Received",
					"outputs": [
						{
							"internalType": "bytes4",
							"name": "",
							"type": "bytes4"
						}
					],
					"stateMutability": "nonpayable",
					"type": "function"
				},
				{
					"inputs": [],
					"name": "owner",
					"outputs": [
						{
							"internalType": "address",
							"name": "",
							"type": "address"
						}
					],
					"stateMutability": "view",
					"type": "function"
				},
				{
					"inputs": [],
					"name": "renounceOwnership",
					"outputs": [],
					"stateMutability": "nonpayable",
					"type": "function"
				},
				{
					"inputs": [
						{
							"internalType": "address",
							"name": "newOwner",
							"type": "address"
						}
					],
					"name": "transferOwnership",
					"outputs": [],
					"stateMutability": "nonpayable",
					"type": "function"
				}
			],
			"devdoc": {
				"kind": "dev",
				"methods": {
					"owner()": {
						"details": "Returns the address of the current owner."
					},
					"renounceOwnership()": {
						"details": "Leaves the contract without owner. It will not be possible to call `onlyOwner` functions anymore. Can only be called by the current owner. NOTE: Renouncing ownership will leave the contract without an owner, thereby removing any functionality that is only available to the owner."
					},
					"transferOwnership(address)": {
						"details": "Transfers ownership of the contract to a new account (`newOwner`). Can only be called by the current owner."
					}
				},
				"version": 1
			},
			"evm": {
				"assembly": "    /* \"contracts/TestMarketplace.sol\":438:4372  contract TestMarketplace is Ownable, ReentrancyGuard {... */\n  mstore(0x40, 0x80)\n    /* \"contracts/TestMarketplace.sol\":747:756  0.1 ether */\n  0x016345785d8a0000\n    /* \"contracts/TestMarketplace.sol\":717:756  uint256 public listingPrice = 0.1 ether */\n  0x07\n  sstore\n    /* \"contracts/TestMarketplace.sol\":1289:1441  constructor(address _nftContract, address _acceptedTokenAddress) {... */\n  callvalue\n  dup1\n  iszero\n  tag_1\n  jumpi\n  0x00\n  dup1\n  revert\ntag_1:\n  pop\n  mload(0x40)\n  sub(codesize, bytecodeSize)\n  dup1\n  bytecodeSize\n  dup4\n  codecopy\n  dup2\n  dup2\n  add\n  0x40\n  mstore\n  dup2\n  add\n  swap1\n  tag_2\n  swap2\n  swap1\n  tag_3\n  jump\t// in\ntag_2:\n    /* \"@openzeppelin/contracts/access/Ownable.sol\":921:953  _transferOwnership(_msgSender()) */\n  tag_8\n    /* \"@openzeppelin/contracts/access/Ownable.sol\":940:952  _msgSender() */\n  tag_9\n    /* \"@openzeppelin/contracts/access/Ownable.sol\":940:950  _msgSender */\n  shl(0x20, tag_10)\n    /* \"@openzeppelin/contracts/access/Ownable.sol\":940:952  _msgSender() */\n  0x20\n  shr\n  jump\t// in\ntag_9:\n    /* \"@openzeppelin/contracts/access/Ownable.sol\":921:939  _transferOwnership */\n  shl(0x20, tag_11)\n    /* \"@openzeppelin/contracts/access/Ownable.sol\":921:953  _transferOwnership(_msgSender()) */\n  0x20\n  shr\n  jump\t// in\ntag_8:\n    /* \"@openzeppelin/contracts/security/ReentrancyGuard.sol\":1701:1702  1 */\n  0x01\n    /* \"@openzeppelin/contracts/security/ReentrancyGuard.sol\":1806:1813  _status */\n  dup1\n    /* \"@openzeppelin/contracts/security/ReentrancyGuard.sol\":1806:1828  _status = _NOT_ENTERED */\n  dup2\n  swap1\n  sstore\n  pop\n    /* \"contracts/TestMarketplace.sol\":1374:1386  _nftContract */\n  dup2\n    /* \"contracts/TestMarketplace.sol\":1360:1371  nftContract */\n  0x05\n  0x00\n    /* \"contracts/TestMarketplace.sol\":1360:1386  nftContract = _nftContract */\n  0x0100\n  exp\n  dup2\n  sload\n  dup2\n  0xffffffffffffffffffffffffffffffffffffffff\n  mul\n  not\n  and\n  swap1\n  dup4\n  0xffffffffffffffffffffffffffffffffffffffff\n  and\n  mul\n  or\n  swap1\n  sstore\n  pop\n    /* \"contracts/TestMarketplace.sol\":1415:1436  _acceptedTokenAddress */\n  dup1\n    /* \"contracts/TestMarketplace.sol\":1392:1412  acceptedTokenAddress */\n  0x06\n  0x00\n    /* \"contracts/TestMarketplace.sol\":1392:1436  acceptedTokenAddress = _acceptedTokenAddress */\n  0x0100\n  exp\n  dup2\n  sload\n  dup2\n  0xffffffffffffffffffffffffffffffffffffffff\n  mul\n  not\n  and\n  swap1\n  dup4\n  0xffffffffffffffffffffffffffffffffffffffff\n  and\n  mul\n  or\n  swap1\n  sstore\n  pop\n    /* \"contracts/TestMarketplace.sol\":1289:1441  constructor(address _nftContract, address _acceptedTokenAddress) {... */\n  pop\n  pop\n    /* \"contracts/TestMarketplace.sol\":438:4372  contract TestMarketplace is Ownable, ReentrancyGuard {... */\n  jump(tag_14)\n    /* \"@openzeppelin/contracts/utils/Context.sol\":640:736  function _msgSender() internal view virtual returns (address) {... */\ntag_10:\n    /* \"@openzeppelin/contracts/utils/Context.sol\":693:700  address */\n  0x00\n    /* \"@openzeppelin/contracts/utils/Context.sol\":719:729  msg.sender */\n  caller\n    /* \"@openzeppelin/contracts/utils/Context.sol\":712:729  return msg.sender */\n  swap1\n  pop\n    /* \"@openzeppelin/contracts/utils/Context.sol\":640:736  function _msgSender() internal view virtual returns (address) {... */\n  swap1\n  jump\t// out\n    /* \"@openzeppelin/contracts/access/Ownable.sol\":2270:2457  function _transferOwnership(address newOwner) internal virtual {... */\ntag_11:\n    /* \"@openzeppelin/contracts/access/Ownable.sol\":2343:2359  address oldOwner */\n  0x00\n    /* \"@openzeppelin/contracts/access/Ownable.sol\":2362:2368  _owner */\n  dup1\n  0x00\n  swap1\n  sload\n  swap1\n  0x0100\n  exp\n  swap1\n  div\n  0xffffffffffffffffffffffffffffffffffffffff\n  and\n    /* \"@openzeppelin/contracts/access/Ownable.sol\":2343:2368  address oldOwner = _owner */\n  swap1\n  pop\n    /* \"@openzeppelin/contracts/access/Ownable.sol\":2387:2395  newOwner */\n  dup2\n    /* \"@openzeppelin/contracts/access/Ownable.sol\":2378:2384  _owner */\n  0x00\n  dup1\n    /* \"@openzeppelin/contracts/access/Ownable.sol\":2378:2395  _owner = newOwner */\n  0x0100\n  exp\n  dup2\n  sload\n  dup2\n  0xffffffffffffffffffffffffffffffffffffffff\n  mul\n  not\n  and\n  swap1\n  dup4\n  0xffffffffffffffffffffffffffffffffffffffff\n  and\n  mul\n  or\n  swap1\n  sstore\n  pop\n    /* \"@openzeppelin/contracts/access/Ownable.sol\":2441:2449  newOwner */\n  dup2\n    /* \"@openzeppelin/contracts/access/Ownable.sol\":2410:2450  OwnershipTransferred(oldOwner, newOwner) */\n  0xffffffffffffffffffffffffffffffffffffffff\n  and\n    /* \"@openzeppelin/contracts/access/Ownable.sol\":2431:2439  oldOwner */\n  dup2\n    /* \"@openzeppelin/contracts/access/Ownable.sol\":2410:2450  OwnershipTransferred(oldOwner, newOwner) */\n  0xffffffffffffffffffffffffffffffffffffffff\n  and\n  0x8be0079c531659141344cd1fd0a4f28419497f9722a3daafe3b4186f6b6457e0\n  mload(0x40)\n  mload(0x40)\n  dup1\n  swap2\n  sub\n  swap1\n  log3\n    /* \"@openzeppelin/contracts/access/Ownable.sol\":2333:2457  {... */\n  pop\n    /* \"@openzeppelin/contracts/access/Ownable.sol\":2270:2457  function _transferOwnership(address newOwner) internal virtual {... */\n  pop\n  jump\t// out\n    /* \"#utility.yul\":7:150   */\ntag_18:\n    /* \"#utility.yul\":64:69   */\n  0x00\n    /* \"#utility.yul\":95:101   */\n  dup2\n    /* \"#utility.yul\":89:102   */\n  mload\n    /* \"#utility.yul\":80:102   */\n  swap1\n  pop\n    /* \"#utility.yul\":111:144   */\n  tag_20\n    /* \"#utility.yul\":138:143   */\n  dup2\n    /* \"#utility.yul\":111:144   */\n  tag_21\n  jump\t// in\ntag_20:\n    /* \"#utility.yul\":7:150   */\n  swap3\n  swap2\n  pop\n  pop\n  jump\t// out\n    /* \"#utility.yul\":156:663   */\ntag_3:\n    /* \"#utility.yul\":235:241   */\n  0x00\n    /* \"#utility.yul\":243:249   */\n  dup1\n    /* \"#utility.yul\":292:294   */\n  0x40\n    /* \"#utility.yul\":280:289   */\n  dup4\n    /* \"#utility.yul\":271:278   */\n  dup6\n    /* \"#utility.yul\":267:290   */\n  sub\n    /* \"#utility.yul\":263:295   */\n  slt\n    /* \"#utility.yul\":260:379   */\n  iszero\n  tag_23\n  jumpi\n    /* \"#utility.yul\":298:377   */\n  tag_24\n  tag_25\n  jump\t// in\ntag_24:\n    /* \"#utility.yul\":260:379   */\ntag_23:\n    /* \"#utility.yul\":418:419   */\n  0x00\n    /* \"#utility.yul\":443:507   */\n  tag_26\n    /* \"#utility.yul\":499:506   */\n  dup6\n    /* \"#utility.yul\":490:496   */\n  dup3\n    /* \"#utility.yul\":479:488   */\n  dup7\n    /* \"#utility.yul\":475:497   */\n  add\n    /* \"#utility.yul\":443:507   */\n  tag_18\n  jump\t// in\ntag_26:\n    /* \"#utility.yul\":433:507   */\n  swap3\n  pop\n    /* \"#utility.yul\":389:517   */\n  pop\n    /* \"#utility.yul\":556:558   */\n  0x20\n    /* \"#utility.yul\":582:646   */\n  tag_27\n    /* \"#utility.yul\":638:645   */\n  dup6\n    /* \"#utility.yul\":629:635   */\n  dup3\n    /* \"#utility.yul\":618:627   */\n  dup7\n    /* \"#utility.yul\":614:636   */\n  add\n    /* \"#utility.yul\":582:646   */\n  tag_18\n  jump\t// in\ntag_27:\n    /* \"#utility.yul\":572:646   */\n  swap2\n  pop\n    /* \"#utility.yul\":527:656   */\n  pop\n    /* \"#utility.yul\":156:663   */\n  swap3\n  pop\n  swap3\n  swap1\n  pop\n  jump\t// out\n    /* \"#utility.yul\":750:846   */\ntag_30:\n    /* \"#utility.yul\":787:794   */\n  0x00\n    /* \"#utility.yul\":816:840   */\n  tag_32\n    /* \"#utility.yul\":834:839   */\n  dup3\n    /* \"#utility.yul\":816:840   */\n  tag_33\n  jump\t// in\ntag_32:\n    /* \"#utility.yul\":805:840   */\n  swap1\n  pop\n    /* \"#utility.yul\":750:846   */\n  swap2\n  swap1\n  pop\n  jump\t// out\n    /* \"#utility.yul\":852:978   */\ntag_33:\n    /* \"#utility.yul\":889:896   */\n  0x00\n    /* \"#utility.yul\":929:971   */\n  0xffffffffffffffffffffffffffffffffffffffff\n    /* \"#utility.yul\":922:927   */\n  dup3\n    /* \"#utility.yul\":918:972   */\n  and\n    /* \"#utility.yul\":907:972   */\n  swap1\n  pop\n    /* \"#utility.yul\":852:978   */\n  swap2\n  swap1\n  pop\n  jump\t// out\n    /* \"#utility.yul\":1107:1224   */\ntag_25:\n    /* \"#utility.yul\":1216:1217   */\n  0x00\n    /* \"#utility.yul\":1213:1214   */\n  dup1\n    /* \"#utility.yul\":1206:1218   */\n  revert\n    /* \"#utility.yul\":1230:1352   */\ntag_21:\n    /* \"#utility.yul\":1303:1327   */\n  tag_39\n    /* \"#utility.yul\":1321:1326   */\n  dup2\n    /* \"#utility.yul\":1303:1327   */\n  tag_30\n  jump\t// in\ntag_39:\n    /* \"#utility.yul\":1296:1301   */\n  dup2\n    /* \"#utility.yul\":1293:1328   */\n  eq\n    /* \"#utility.yul\":1283:1346   */\n  tag_40\n  jumpi\n    /* \"#utility.yul\":1342:1343   */\n  0x00\n    /* \"#utility.yul\":1339:1340   */\n  dup1\n    /* \"#utility.yul\":1332:1344   */\n  revert\n    /* \"#utility.yul\":1283:1346   */\ntag_40:\n    /* \"#utility.yul\":1230:1352   */\n  pop\n  jump\t// out\n    /* \"contracts/TestMarketplace.sol\":438:4372  contract TestMarketplace is Ownable, ReentrancyGuard {... */\ntag_14:\n  dataSize(sub_0)\n  dup1\n  dataOffset(sub_0)\n  0x00\n  codecopy\n  0x00\n  return\nstop\n\nsub_0: assembly {\n        /* \"contracts/TestMarketplace.sol\":438:4372  contract TestMarketplace is Ownable, ReentrancyGuard {... */\n      mstore(0x40, 0x80)\n      callvalue\n      dup1\n      iszero\n      tag_1\n      jumpi\n      0x00\n      dup1\n      revert\n    tag_1:\n      pop\n      jumpi(tag_2, lt(calldatasize, 0x04))\n      shr(0xe0, calldataload(0x00))\n      dup1\n      0x9b8bc127\n      gt\n      tag_16\n      jumpi\n      dup1\n      0xc78f19f9\n      gt\n      tag_17\n      jumpi\n      dup1\n      0xc78f19f9\n      eq\n      tag_12\n      jumpi\n      dup1\n      0xd56d229d\n      eq\n      tag_13\n      jumpi\n      dup1\n      0xe61a70c0\n      eq\n      tag_14\n      jumpi\n      dup1\n      0xf2fde38b\n      eq\n      tag_15\n      jumpi\n      jump(tag_2)\n    tag_17:\n      dup1\n      0x9b8bc127\n      eq\n      tag_9\n      jumpi\n      dup1\n      0x9da1b02a\n      eq\n      tag_10\n      jumpi\n      dup1\n      0xa8fcc417\n      eq\n      tag_11\n      jumpi\n      jump(tag_2)\n    tag_16:\n      dup1\n      0x53dbceb1\n      eq\n      tag_3\n      jumpi\n      dup1\n      0x715018a6\n      eq\n      tag_4\n      jumpi\n      dup1\n      0x889e2cd5\n      eq\n      tag_5\n      jumpi\n      dup1\n      0x8da5cb5b\n      eq\n      tag_6\n      jumpi\n      dup1\n      0x91066da8\n      eq\n      tag_7\n      jumpi\n      dup1\n      0x9979c009\n      eq\n      tag_8\n      jumpi\n    tag_2:\n      0x00\n      dup1\n      revert\n        /* \"contracts/TestMarketplace.sol\":3626:3796  function getMarketItemById(uint256 marketItemId) public view returns (MarketItem memory) {... */\n    tag_3:\n      tag_18\n      0x04\n      dup1\n      calldatasize\n      sub\n      dup2\n      add\n      swap1\n      tag_19\n      swap2\n      swap1\n      tag_20\n      jump\t// in\n    tag_19:\n      tag_21\n      jump\t// in\n    tag_18:\n      mload(0x40)\n      tag_22\n      swap2\n      swap1\n      tag_23\n      jump\t// in\n    tag_22:\n      mload(0x40)\n      dup1\n      swap2\n      sub\n      swap1\n      return\n        /* \"@openzeppelin/contracts/access/Ownable.sol\":1668:1769  function renounceOwnership() public virtual onlyOwner {... */\n    tag_4:\n      tag_24\n      tag_25\n      jump\t// in\n    tag_24:\n      stop\n        /* \"contracts/TestMarketplace.sol\":678:713  address public acceptedTokenAddress */\n    tag_5:\n      tag_26\n      tag_27\n      jump\t// in\n    tag_26:\n      mload(0x40)\n      tag_28\n      swap2\n      swap1\n      tag_29\n      jump\t// in\n    tag_28:\n      mload(0x40)\n      dup1\n      swap2\n      sub\n      swap1\n      return\n        /* \"@openzeppelin/contracts/access/Ownable.sol\":1036:1121  function owner() public view virtual returns (address) {... */\n    tag_6:\n      tag_30\n      tag_31\n      jump\t// in\n    tag_30:\n      mload(0x40)\n      tag_32\n      swap2\n      swap1\n      tag_29\n      jump\t// in\n    tag_32:\n      mload(0x40)\n      dup1\n      swap2\n      sub\n      swap1\n      return\n        /* \"contracts/TestMarketplace.sol\":1559:2360  function addItemToMarket(... */\n    tag_7:\n      tag_33\n      0x04\n      dup1\n      calldatasize\n      sub\n      dup2\n      add\n      swap1\n      tag_34\n      swap2\n      swap1\n      tag_35\n      jump\t// in\n    tag_34:\n      tag_36\n      jump\t// in\n    tag_33:\n      stop\n        /* \"contracts/TestMarketplace.sol\":2818:3622  function buyItem(... */\n    tag_8:\n      tag_37\n      0x04\n      dup1\n      calldatasize\n      sub\n      dup2\n      add\n      swap1\n      tag_38\n      swap2\n      swap1\n      tag_35\n      jump\t// in\n    tag_38:\n      tag_39\n      jump\t// in\n    tag_37:\n      stop\n        /* \"contracts/TestMarketplace.sol\":3800:4370  function getUnsoldItems() public view returns (MarketItem[] memory) {... */\n    tag_9:\n      tag_40\n      tag_41\n      jump\t// in\n    tag_40:\n      mload(0x40)\n      tag_42\n      swap2\n      swap1\n      tag_43\n      jump\t// in\n    tag_42:\n      mload(0x40)\n      dup1\n      swap2\n      sub\n      swap1\n      return\n        /* \"contracts/TestMarketplace.sol\":2366:2814  function createSale(... */\n    tag_10:\n      tag_44\n      0x04\n      dup1\n      calldatasize\n      sub\n      dup2\n      add\n      swap1\n      tag_45\n      swap2\n      swap1\n      tag_20\n      jump\t// in\n    tag_45:\n      tag_46\n      jump\t// in\n    tag_44:\n      stop\n        /* \"contracts/TestMarketplace.sol\":1445:1555  function onERC721Received(... */\n    tag_11:\n      tag_47\n      tag_48\n      jump\t// in\n    tag_47:\n      mload(0x40)\n      tag_49\n      swap2\n      swap1\n      tag_50\n      jump\t// in\n    tag_49:\n      mload(0x40)\n      dup1\n      swap2\n      sub\n      swap1\n      return\n        /* \"contracts/TestMarketplace.sol\":717:756  uint256 public listingPrice = 0.1 ether */\n    tag_12:\n      tag_51\n      tag_52\n      jump\t// in\n    tag_51:\n      mload(0x40)\n      tag_53\n      swap2\n      swap1\n      tag_54\n      jump\t// in\n    tag_53:\n      mload(0x40)\n      dup1\n      swap2\n      sub\n      swap1\n      return\n        /* \"contracts/TestMarketplace.sol\":648:674  address public nftContract */\n    tag_13:\n      tag_55\n      tag_56\n      jump\t// in\n    tag_55:\n      mload(0x40)\n      tag_57\n      swap2\n      swap1\n      tag_29\n      jump\t// in\n    tag_57:\n      mload(0x40)\n      dup1\n      swap2\n      sub\n      swap1\n      return\n        /* \"contracts/TestMarketplace.sol\":940:992  mapping(uint256 => MarketItem) public idToMarketItem */\n    tag_14:\n      tag_58\n      0x04\n      dup1\n      calldatasize\n      sub\n      dup2\n      add\n      swap1\n      tag_59\n      swap2\n      swap1\n      tag_20\n      jump\t// in\n    tag_59:\n      tag_60\n      jump\t// in\n    tag_58:\n      mload(0x40)\n      tag_61\n      swap9\n      swap8\n      swap7\n      swap6\n      swap5\n      swap4\n      swap3\n      swap2\n      swap1\n      tag_62\n      jump\t// in\n    tag_61:\n      mload(0x40)\n      dup1\n      swap2\n      sub\n      swap1\n      return\n        /* \"@openzeppelin/contracts/access/Ownable.sol\":1918:2116  function transferOwnership(address newOwner) public virtual onlyOwner {... */\n    tag_15:\n      tag_63\n      0x04\n      dup1\n      calldatasize\n      sub\n      dup2\n      add\n      swap1\n      tag_64\n      swap2\n      swap1\n      tag_65\n      jump\t// in\n    tag_64:\n      tag_66\n      jump\t// in\n    tag_63:\n      stop\n        /* \"contracts/TestMarketplace.sol\":3626:3796  function getMarketItemById(uint256 marketItemId) public view returns (MarketItem memory) {... */\n    tag_21:\n        /* \"contracts/TestMarketplace.sol\":3696:3713  MarketItem memory */\n      tag_67\n      tag_68\n      jump\t// in\n    tag_67:\n        /* \"contracts/TestMarketplace.sol\":3721:3743  MarketItem memory item */\n      0x00\n        /* \"contracts/TestMarketplace.sol\":3746:3760  idToMarketItem */\n      0x08\n        /* \"contracts/TestMarketplace.sol\":3746:3774  idToMarketItem[marketItemId] */\n      0x00\n        /* \"contracts/TestMarketplace.sol\":3761:3773  marketItemId */\n      dup5\n        /* \"contracts/TestMarketplace.sol\":3746:3774  idToMarketItem[marketItemId] */\n      dup2\n      mstore\n      0x20\n      add\n      swap1\n      dup2\n      mstore\n      0x20\n      add\n      0x00\n      keccak256\n        /* \"contracts/TestMarketplace.sol\":3721:3774  MarketItem memory item = idToMarketItem[marketItemId] */\n      mload(0x40)\n      dup1\n      0x0100\n      add\n      0x40\n      mstore\n      swap1\n      dup2\n      0x00\n      dup3\n      add\n      sload\n      dup2\n      mstore\n      0x20\n      add\n      0x01\n      dup3\n      add\n      sload\n      dup2\n      mstore\n      0x20\n      add\n      0x02\n      dup3\n      add\n      0x00\n      swap1\n      sload\n      swap1\n      0x0100\n      exp\n      swap1\n      div\n      0xffffffffffffffffffffffffffffffffffffffff\n      and\n      0xffffffffffffffffffffffffffffffffffffffff\n      and\n      0xffffffffffffffffffffffffffffffffffffffff\n      and\n      dup2\n      mstore\n      0x20\n      add\n      0x03\n      dup3\n      add\n      0x00\n      swap1\n      sload\n      swap1\n      0x0100\n      exp\n      swap1\n      div\n      0xffffffffffffffffffffffffffffffffffffffff\n      and\n      0xffffffffffffffffffffffffffffffffffffffff\n      and\n      0xffffffffffffffffffffffffffffffffffffffff\n      and\n      dup2\n      mstore\n      0x20\n      add\n      0x04\n      dup3\n      add\n      sload\n      dup2\n      mstore\n      0x20\n      add\n      0x05\n      dup3\n      add\n      0x00\n      swap1\n      sload\n      swap1\n      0x0100\n      exp\n      swap1\n      div\n      0xff\n      and\n      iszero\n      iszero\n      iszero\n      iszero\n      dup2\n      mstore\n      0x20\n      add\n      0x05\n      dup3\n      add\n      0x01\n      swap1\n      sload\n      swap1\n      0x0100\n      exp\n      swap1\n      div\n      0xff\n      and\n      iszero\n      iszero\n      iszero\n      iszero\n      dup2\n      mstore\n      0x20\n      add\n      0x05\n      dup3\n      add\n      0x02\n      swap1\n      sload\n      swap1\n      0x0100\n      exp\n      swap1\n      div\n      0xff\n      and\n      iszero\n      iszero\n      iszero\n      iszero\n      dup2\n      mstore\n      pop\n      pop\n      swap1\n      pop\n        /* \"contracts/TestMarketplace.sol\":3787:3791  item */\n      dup1\n        /* \"contracts/TestMarketplace.sol\":3780:3791  return item */\n      swap2\n      pop\n      pop\n        /* \"contracts/TestMarketplace.sol\":3626:3796  function getMarketItemById(uint256 marketItemId) public view returns (MarketItem memory) {... */\n      swap2\n      swap1\n      pop\n      jump\t// out\n        /* \"@openzeppelin/contracts/access/Ownable.sol\":1668:1769  function renounceOwnership() public virtual onlyOwner {... */\n    tag_25:\n        /* \"@openzeppelin/contracts/access/Ownable.sol\":1259:1271  _msgSender() */\n      tag_71\n        /* \"@openzeppelin/contracts/access/Ownable.sol\":1259:1269  _msgSender */\n      tag_72\n        /* \"@openzeppelin/contracts/access/Ownable.sol\":1259:1271  _msgSender() */\n      jump\t// in\n    tag_71:\n        /* \"@openzeppelin/contracts/access/Ownable.sol\":1248:1271  owner() == _msgSender() */\n      0xffffffffffffffffffffffffffffffffffffffff\n      and\n        /* \"@openzeppelin/contracts/access/Ownable.sol\":1248:1255  owner() */\n      tag_73\n        /* \"@openzeppelin/contracts/access/Ownable.sol\":1248:1253  owner */\n      tag_31\n        /* \"@openzeppelin/contracts/access/Ownable.sol\":1248:1255  owner() */\n      jump\t// in\n    tag_73:\n        /* \"@openzeppelin/contracts/access/Ownable.sol\":1248:1271  owner() == _msgSender() */\n      0xffffffffffffffffffffffffffffffffffffffff\n      and\n      eq\n        /* \"@openzeppelin/contracts/access/Ownable.sol\":1240:1308  require(owner() == _msgSender(), \"Ownable: caller is not the owner\") */\n      tag_74\n      jumpi\n      mload(0x40)\n      0x08c379a000000000000000000000000000000000000000000000000000000000\n      dup2\n      mstore\n      0x04\n      add\n      tag_75\n      swap1\n      tag_76\n      jump\t// in\n    tag_75:\n      mload(0x40)\n      dup1\n      swap2\n      sub\n      swap1\n      revert\n    tag_74:\n        /* \"@openzeppelin/contracts/access/Ownable.sol\":1732:1762  _transferOwnership(address(0)) */\n      tag_78\n        /* \"@openzeppelin/contracts/access/Ownable.sol\":1759:1760  0 */\n      0x00\n        /* \"@openzeppelin/contracts/access/Ownable.sol\":1732:1750  _transferOwnership */\n      tag_79\n        /* \"@openzeppelin/contracts/access/Ownable.sol\":1732:1762  _transferOwnership(address(0)) */\n      jump\t// in\n    tag_78:\n        /* \"@openzeppelin/contracts/access/Ownable.sol\":1668:1769  function renounceOwnership() public virtual onlyOwner {... */\n      jump\t// out\n        /* \"contracts/TestMarketplace.sol\":678:713  address public acceptedTokenAddress */\n    tag_27:\n      0x06\n      0x00\n      swap1\n      sload\n      swap1\n      0x0100\n      exp\n      swap1\n      div\n      0xffffffffffffffffffffffffffffffffffffffff\n      and\n      dup2\n      jump\t// out\n        /* \"@openzeppelin/contracts/access/Ownable.sol\":1036:1121  function owner() public view virtual returns (address) {... */\n    tag_31:\n        /* \"@openzeppelin/contracts/access/Ownable.sol\":1082:1089  address */\n      0x00\n        /* \"@openzeppelin/contracts/access/Ownable.sol\":1108:1114  _owner */\n      dup1\n      0x00\n      swap1\n      sload\n      swap1\n      0x0100\n      exp\n      swap1\n      div\n      0xffffffffffffffffffffffffffffffffffffffff\n      and\n        /* \"@openzeppelin/contracts/access/Ownable.sol\":1101:1114  return _owner */\n      swap1\n      pop\n        /* \"@openzeppelin/contracts/access/Ownable.sol\":1036:1121  function owner() public view virtual returns (address) {... */\n      swap1\n      jump\t// out\n        /* \"contracts/TestMarketplace.sol\":1559:2360  function addItemToMarket(... */\n    tag_36:\n        /* \"@openzeppelin/contracts/security/ReentrancyGuard.sol\":1744:1745  2 */\n      0x02\n        /* \"@openzeppelin/contracts/security/ReentrancyGuard.sol\":2325:2332  _status */\n      sload(0x01)\n        /* \"@openzeppelin/contracts/security/ReentrancyGuard.sol\":2325:2344  _status != _ENTERED */\n      eq\n      iszero\n        /* \"@openzeppelin/contracts/security/ReentrancyGuard.sol\":2317:2380  require(_status != _ENTERED, \"ReentrancyGuard: reentrant call\") */\n      tag_82\n      jumpi\n      mload(0x40)\n      0x08c379a000000000000000000000000000000000000000000000000000000000\n      dup2\n      mstore\n      0x04\n      add\n      tag_83\n      swap1\n      tag_84\n      jump\t// in\n    tag_83:\n      mload(0x40)\n      dup1\n      swap2\n      sub\n      swap1\n      revert\n    tag_82:\n        /* \"@openzeppelin/contracts/security/ReentrancyGuard.sol\":1744:1745  2 */\n      0x02\n        /* \"@openzeppelin/contracts/security/ReentrancyGuard.sol\":2455:2462  _status */\n      0x01\n        /* \"@openzeppelin/contracts/security/ReentrancyGuard.sol\":2455:2473  _status = _ENTERED */\n      dup2\n      swap1\n      sstore\n      pop\n        /* \"@openzeppelin/contracts/access/Ownable.sol\":1259:1271  _msgSender() */\n      tag_86\n        /* \"@openzeppelin/contracts/access/Ownable.sol\":1259:1269  _msgSender */\n      tag_72\n        /* \"@openzeppelin/contracts/access/Ownable.sol\":1259:1271  _msgSender() */\n      jump\t// in\n    tag_86:\n        /* \"@openzeppelin/contracts/access/Ownable.sol\":1248:1271  owner() == _msgSender() */\n      0xffffffffffffffffffffffffffffffffffffffff\n      and\n        /* \"@openzeppelin/contracts/access/Ownable.sol\":1248:1255  owner() */\n      tag_87\n        /* \"@openzeppelin/contracts/access/Ownable.sol\":1248:1253  owner */\n      tag_31\n        /* \"@openzeppelin/contracts/access/Ownable.sol\":1248:1255  owner() */\n      jump\t// in\n    tag_87:\n        /* \"@openzeppelin/contracts/access/Ownable.sol\":1248:1271  owner() == _msgSender() */\n      0xffffffffffffffffffffffffffffffffffffffff\n      and\n      eq\n        /* \"@openzeppelin/contracts/access/Ownable.sol\":1240:1308  require(owner() == _msgSender(), \"Ownable: caller is not the owner\") */\n      tag_88\n      jumpi\n      mload(0x40)\n      0x08c379a000000000000000000000000000000000000000000000000000000000\n      dup2\n      mstore\n      0x04\n      add\n      tag_89\n      swap1\n      tag_76\n      jump\t// in\n    tag_89:\n      mload(0x40)\n      dup1\n      swap2\n      sub\n      swap1\n      revert\n    tag_88:\n        /* \"contracts/TestMarketplace.sol\":1680:1681  0 */\n      0x00\n        /* \"contracts/TestMarketplace.sol\":1672:1677  price */\n      dup2\n        /* \"contracts/TestMarketplace.sol\":1672:1681  price > 0 */\n      gt\n        /* \"contracts/TestMarketplace.sol\":1664:1714  require(price > 0, \"Price must be at least 1 wei\") */\n      tag_91\n      jumpi\n      mload(0x40)\n      0x08c379a000000000000000000000000000000000000000000000000000000000\n      dup2\n      mstore\n      0x04\n      add\n      tag_92\n      swap1\n      tag_93\n      jump\t// in\n    tag_92:\n      mload(0x40)\n      dup1\n      swap2\n      sub\n      swap1\n      revert\n    tag_91:\n        /* \"contracts/TestMarketplace.sol\":1737:1749  listingPrice */\n      sload(0x07)\n        /* \"contracts/TestMarketplace.sol\":1728:1733  price */\n      dup2\n        /* \"contracts/TestMarketplace.sol\":1728:1749  price >= listingPrice */\n      lt\n      iszero\n        /* \"contracts/TestMarketplace.sol\":1720:1800  require(price >= listingPrice, \"Price should be at least same as listing price\") */\n      tag_94\n      jumpi\n      mload(0x40)\n      0x08c379a000000000000000000000000000000000000000000000000000000000\n      dup2\n      mstore\n      0x04\n      add\n      tag_95\n      swap1\n      tag_96\n      jump\t// in\n    tag_95:\n      mload(0x40)\n      dup1\n      swap2\n      sub\n      swap1\n      revert\n    tag_94:\n        /* \"contracts/TestMarketplace.sol\":1807:1827  _itemIds.increment() */\n      tag_97\n        /* \"contracts/TestMarketplace.sol\":1807:1815  _itemIds */\n      0x02\n        /* \"contracts/TestMarketplace.sol\":1807:1825  _itemIds.increment */\n      tag_98\n        /* \"contracts/TestMarketplace.sol\":1807:1827  _itemIds.increment() */\n      jump\t// in\n    tag_97:\n        /* \"contracts/TestMarketplace.sol\":1833:1847  uint256 itemId */\n      0x00\n        /* \"contracts/TestMarketplace.sol\":1850:1868  _itemIds.current() */\n      tag_99\n        /* \"contracts/TestMarketplace.sol\":1850:1858  _itemIds */\n      0x02\n        /* \"contracts/TestMarketplace.sol\":1850:1866  _itemIds.current */\n      tag_100\n        /* \"contracts/TestMarketplace.sol\":1850:1868  _itemIds.current() */\n      jump\t// in\n    tag_99:\n        /* \"contracts/TestMarketplace.sol\":1833:1868  uint256 itemId = _itemIds.current() */\n      swap1\n      pop\n        /* \"contracts/TestMarketplace.sol\":1903:2035  MarketItem(... */\n      mload(0x40)\n      dup1\n      0x0100\n      add\n      0x40\n      mstore\n      dup1\n        /* \"contracts/TestMarketplace.sol\":1921:1927  itemId */\n      dup3\n        /* \"contracts/TestMarketplace.sol\":1903:2035  MarketItem(... */\n      dup2\n      mstore\n      0x20\n      add\n        /* \"contracts/TestMarketplace.sol\":1935:1942  tokenId */\n      dup5\n        /* \"contracts/TestMarketplace.sol\":1903:2035  MarketItem(... */\n      dup2\n      mstore\n      0x20\n      add\n        /* \"contracts/TestMarketplace.sol\":1950:1960  msg.sender */\n      caller\n        /* \"contracts/TestMarketplace.sol\":1903:2035  MarketItem(... */\n      0xffffffffffffffffffffffffffffffffffffffff\n      and\n      dup2\n      mstore\n      0x20\n      add\n        /* \"contracts/TestMarketplace.sol\":1976:1977  0 */\n      0x00\n        /* \"contracts/TestMarketplace.sol\":1903:2035  MarketItem(... */\n      0xffffffffffffffffffffffffffffffffffffffff\n      and\n      dup2\n      mstore\n      0x20\n      add\n        /* \"contracts/TestMarketplace.sol\":1986:1991  price */\n      dup4\n        /* \"contracts/TestMarketplace.sol\":1903:2035  MarketItem(... */\n      dup2\n      mstore\n      0x20\n      add\n        /* \"contracts/TestMarketplace.sol\":1999:2004  false */\n      0x00\n        /* \"contracts/TestMarketplace.sol\":1903:2035  MarketItem(... */\n      iszero\n      iszero\n      dup2\n      mstore\n      0x20\n      add\n        /* \"contracts/TestMarketplace.sol\":2012:2017  false */\n      0x00\n        /* \"contracts/TestMarketplace.sol\":1903:2035  MarketItem(... */\n      iszero\n      iszero\n      dup2\n      mstore\n      0x20\n      add\n        /* \"contracts/TestMarketplace.sol\":2025:2029  true */\n      0x01\n        /* \"contracts/TestMarketplace.sol\":1903:2035  MarketItem(... */\n      iszero\n      iszero\n      dup2\n      mstore\n      pop\n        /* \"contracts/TestMarketplace.sol\":1877:1891  idToMarketItem */\n      0x08\n        /* \"contracts/TestMarketplace.sol\":1877:1899  idToMarketItem[itemId] */\n      0x00\n        /* \"contracts/TestMarketplace.sol\":1892:1898  itemId */\n      dup4\n        /* \"contracts/TestMarketplace.sol\":1877:1899  idToMarketItem[itemId] */\n      dup2\n      mstore\n      0x20\n      add\n      swap1\n      dup2\n      mstore\n      0x20\n      add\n      0x00\n      keccak256\n        /* \"contracts/TestMarketplace.sol\":1877:2035  idToMarketItem[itemId] =  MarketItem(... */\n      0x00\n      dup3\n      add\n      mload\n      dup2\n      0x00\n      add\n      sstore\n      0x20\n      dup3\n      add\n      mload\n      dup2\n      0x01\n      add\n      sstore\n      0x40\n      dup3\n      add\n      mload\n      dup2\n      0x02\n      add\n      exp(0x0100, 0x00)\n      dup2\n      sload\n      dup2\n      0xffffffffffffffffffffffffffffffffffffffff\n      mul\n      not\n      and\n      swap1\n      dup4\n      0xffffffffffffffffffffffffffffffffffffffff\n      and\n      mul\n      or\n      swap1\n      sstore\n      pop\n      0x60\n      dup3\n      add\n      mload\n      dup2\n      0x03\n      add\n      exp(0x0100, 0x00)\n      dup2\n      sload\n      dup2\n      0xffffffffffffffffffffffffffffffffffffffff\n      mul\n      not\n      and\n      swap1\n      dup4\n      0xffffffffffffffffffffffffffffffffffffffff\n      and\n      mul\n      or\n      swap1\n      sstore\n      pop\n      0x80\n      dup3\n      add\n      mload\n      dup2\n      0x04\n      add\n      sstore\n      0xa0\n      dup3\n      add\n      mload\n      dup2\n      0x05\n      add\n      exp(0x0100, 0x00)\n      dup2\n      sload\n      dup2\n      0xff\n      mul\n      not\n      and\n      swap1\n      dup4\n      iszero\n      iszero\n      mul\n      or\n      swap1\n      sstore\n      pop\n      0xc0\n      dup3\n      add\n      mload\n      dup2\n      0x05\n      add\n      exp(0x0100, 0x01)\n      dup2\n      sload\n      dup2\n      0xff\n      mul\n      not\n      and\n      swap1\n      dup4\n      iszero\n      iszero\n      mul\n      or\n      swap1\n      sstore\n      pop\n      0xe0\n      dup3\n      add\n      mload\n      dup2\n      0x05\n      add\n      exp(0x0100, 0x02)\n      dup2\n      sload\n      dup2\n      0xff\n      mul\n      not\n      and\n      swap1\n      dup4\n      iszero\n      iszero\n      mul\n      or\n      swap1\n      sstore\n      pop\n      swap1\n      pop\n      pop\n        /* \"contracts/TestMarketplace.sol\":2049:2069  acceptedTokenAddress */\n      0x06\n      0x00\n      swap1\n      sload\n      swap1\n      0x0100\n      exp\n      swap1\n      div\n      0xffffffffffffffffffffffffffffffffffffffff\n      and\n        /* \"contracts/TestMarketplace.sol\":2042:2083  IERC20(acceptedTokenAddress).transferFrom */\n      0xffffffffffffffffffffffffffffffffffffffff\n      and\n      0x23b872dd\n        /* \"contracts/TestMarketplace.sol\":2084:2094  msg.sender */\n      caller\n        /* \"contracts/TestMarketplace.sol\":2104:2108  this */\n      address\n        /* \"contracts/TestMarketplace.sol\":2111:2123  listingPrice */\n      sload(0x07)\n        /* \"contracts/TestMarketplace.sol\":2042:2124  IERC20(acceptedTokenAddress).transferFrom(msg.sender, address(this), listingPrice) */\n      mload(0x40)\n      dup5\n      0xffffffff\n      and\n      0xe0\n      shl\n      dup2\n      mstore\n      0x04\n      add\n      tag_101\n      swap4\n      swap3\n      swap2\n      swap1\n      tag_102\n      jump\t// in\n    tag_101:\n      0x20\n      mload(0x40)\n      dup1\n      dup4\n      sub\n      dup2\n      0x00\n      dup8\n      dup1\n      extcodesize\n      iszero\n      dup1\n      iszero\n      tag_103\n      jumpi\n      0x00\n      dup1\n      revert\n    tag_103:\n      pop\n      gas\n      call\n      iszero\n      dup1\n      iszero\n      tag_105\n      jumpi\n      returndatasize\n      0x00\n      dup1\n      returndatacopy\n      revert(0x00, returndatasize)\n    tag_105:\n      pop\n      pop\n      pop\n      pop\n      mload(0x40)\n      returndatasize\n      not(0x1f)\n      0x1f\n      dup3\n      add\n      and\n      dup3\n      add\n      dup1\n      0x40\n      mstore\n      pop\n      dup2\n      add\n      swap1\n      tag_106\n      swap2\n      swap1\n      tag_107\n      jump\t// in\n    tag_106:\n      pop\n        /* \"contracts/TestMarketplace.sol\":2138:2149  nftContract */\n      0x05\n      0x00\n      swap1\n      sload\n      swap1\n      0x0100\n      exp\n      swap1\n      div\n      0xffffffffffffffffffffffffffffffffffffffff\n      and\n        /* \"contracts/TestMarketplace.sol\":2130:2167  IERC721(nftContract).safeTransferFrom */\n      0xffffffffffffffffffffffffffffffffffffffff\n      and\n      0x42842e0e\n        /* \"contracts/TestMarketplace.sol\":2168:2178  msg.sender */\n      caller\n        /* \"contracts/TestMarketplace.sol\":2188:2192  this */\n      address\n        /* \"contracts/TestMarketplace.sol\":2195:2202  tokenId */\n      dup7\n        /* \"contracts/TestMarketplace.sol\":2130:2203  IERC721(nftContract).safeTransferFrom(msg.sender, address(this), tokenId) */\n      mload(0x40)\n      dup5\n      0xffffffff\n      and\n      0xe0\n      shl\n      dup2\n      mstore\n      0x04\n      add\n      tag_108\n      swap4\n      swap3\n      swap2\n      swap1\n      tag_102\n      jump\t// in\n    tag_108:\n      0x00\n      mload(0x40)\n      dup1\n      dup4\n      sub\n      dup2\n      0x00\n      dup8\n      dup1\n      extcodesize\n      iszero\n      dup1\n      iszero\n      tag_109\n      jumpi\n      0x00\n      dup1\n      revert\n    tag_109:\n      pop\n      gas\n      call\n      iszero\n      dup1\n      iszero\n      tag_111\n      jumpi\n      returndatasize\n      0x00\n      dup1\n      returndatacopy\n      revert(0x00, returndatasize)\n    tag_111:\n      pop\n      pop\n      pop\n      pop\n        /* \"contracts/TestMarketplace.sol\":2230:2242  listingPrice */\n      sload(0x07)\n        /* \"contracts/TestMarketplace.sol\":2210:2226  _amountCollected */\n      0x04\n      0x00\n        /* \"contracts/TestMarketplace.sol\":2210:2242  _amountCollected += listingPrice */\n      dup3\n      dup3\n      sload\n      tag_112\n      swap2\n      swap1\n      tag_113\n      jump\t// in\n    tag_112:\n      swap3\n      pop\n      pop\n      dup2\n      swap1\n      sstore\n      pop\n        /* \"contracts/TestMarketplace.sol\":2293:2300  tokenId */\n      dup3\n        /* \"contracts/TestMarketplace.sol\":2279:2285  itemId */\n      dup2\n        /* \"contracts/TestMarketplace.sol\":2254:2355  MarketItemCreated(... */\n      0x38690a554ffbc44eb6a75016e47d517d0db8e6c37494adc68d6d0b2c66f0ab21\n        /* \"contracts/TestMarketplace.sol\":2308:2318  msg.sender */\n      caller\n        /* \"contracts/TestMarketplace.sol\":2334:2335  0 */\n      0x00\n        /* \"contracts/TestMarketplace.sol\":2344:2349  price */\n      dup7\n        /* \"contracts/TestMarketplace.sol\":2254:2355  MarketItemCreated(... */\n      mload(0x40)\n      tag_114\n      swap4\n      swap3\n      swap2\n      swap1\n      tag_102\n      jump\t// in\n    tag_114:\n      mload(0x40)\n      dup1\n      swap2\n      sub\n      swap1\n      log3\n        /* \"contracts/TestMarketplace.sol\":1658:2360  {... */\n      pop\n        /* \"@openzeppelin/contracts/security/ReentrancyGuard.sol\":1701:1702  1 */\n      0x01\n        /* \"@openzeppelin/contracts/security/ReentrancyGuard.sol\":2628:2635  _status */\n      dup1\n        /* \"@openzeppelin/contracts/security/ReentrancyGuard.sol\":2628:2650  _status = _NOT_ENTERED */\n      dup2\n      swap1\n      sstore\n      pop\n        /* \"contracts/TestMarketplace.sol\":1559:2360  function addItemToMarket(... */\n      pop\n      pop\n      jump\t// out\n        /* \"contracts/TestMarketplace.sol\":2818:3622  function buyItem(... */\n    tag_39:\n        /* \"@openzeppelin/contracts/security/ReentrancyGuard.sol\":1744:1745  2 */\n      0x02\n        /* \"@openzeppelin/contracts/security/ReentrancyGuard.sol\":2325:2332  _status */\n      sload(0x01)\n        /* \"@openzeppelin/contracts/security/ReentrancyGuard.sol\":2325:2344  _status != _ENTERED */\n      eq\n      iszero\n        /* \"@openzeppelin/contracts/security/ReentrancyGuard.sol\":2317:2380  require(_status != _ENTERED, \"ReentrancyGuard: reentrant call\") */\n      tag_116\n      jumpi\n      mload(0x40)\n      0x08c379a000000000000000000000000000000000000000000000000000000000\n      dup2\n      mstore\n      0x04\n      add\n      tag_117\n      swap1\n      tag_84\n      jump\t// in\n    tag_117:\n      mload(0x40)\n      dup1\n      swap2\n      sub\n      swap1\n      revert\n    tag_116:\n        /* \"@openzeppelin/contracts/security/ReentrancyGuard.sol\":1744:1745  2 */\n      0x02\n        /* \"@openzeppelin/contracts/security/ReentrancyGuard.sol\":2455:2462  _status */\n      0x01\n        /* \"@openzeppelin/contracts/security/ReentrancyGuard.sol\":2455:2473  _status = _ENTERED */\n      dup2\n      swap1\n      sstore\n      pop\n        /* \"contracts/TestMarketplace.sol\":2910:2920  uint price */\n      0x00\n        /* \"contracts/TestMarketplace.sol\":2923:2937  idToMarketItem */\n      0x08\n        /* \"contracts/TestMarketplace.sol\":2923:2945  idToMarketItem[itemId] */\n      0x00\n        /* \"contracts/TestMarketplace.sol\":2938:2944  itemId */\n      dup5\n        /* \"contracts/TestMarketplace.sol\":2923:2945  idToMarketItem[itemId] */\n      dup2\n      mstore\n      0x20\n      add\n      swap1\n      dup2\n      mstore\n      0x20\n      add\n      0x00\n      keccak256\n        /* \"contracts/TestMarketplace.sol\":2923:2951  idToMarketItem[itemId].price */\n      0x04\n      add\n      sload\n        /* \"contracts/TestMarketplace.sol\":2910:2951  uint price = idToMarketItem[itemId].price */\n      swap1\n      pop\n        /* \"contracts/TestMarketplace.sol\":2957:2969  uint tokenId */\n      0x00\n        /* \"contracts/TestMarketplace.sol\":2972:2986  idToMarketItem */\n      0x08\n        /* \"contracts/TestMarketplace.sol\":2972:2994  idToMarketItem[itemId] */\n      0x00\n        /* \"contracts/TestMarketplace.sol\":2987:2993  itemId */\n      dup6\n        /* \"contracts/TestMarketplace.sol\":2972:2994  idToMarketItem[itemId] */\n      dup2\n      mstore\n      0x20\n      add\n      swap1\n      dup2\n      mstore\n      0x20\n      add\n      0x00\n      keccak256\n        /* \"contracts/TestMarketplace.sol\":2972:3002  idToMarketItem[itemId].tokenId */\n      0x01\n      add\n      sload\n        /* \"contracts/TestMarketplace.sol\":2957:3002  uint tokenId = idToMarketItem[itemId].tokenId */\n      swap1\n      pop\n        /* \"contracts/TestMarketplace.sol\":3008:3024  bool isUpForSale */\n      0x00\n        /* \"contracts/TestMarketplace.sol\":3027:3041  idToMarketItem */\n      0x08\n        /* \"contracts/TestMarketplace.sol\":3027:3049  idToMarketItem[itemId] */\n      0x00\n        /* \"contracts/TestMarketplace.sol\":3042:3048  itemId */\n      dup7\n        /* \"contracts/TestMarketplace.sol\":3027:3049  idToMarketItem[itemId] */\n      dup2\n      mstore\n      0x20\n      add\n      swap1\n      dup2\n      mstore\n      0x20\n      add\n      0x00\n      keccak256\n        /* \"contracts/TestMarketplace.sol\":3027:3061  idToMarketItem[itemId].isUpForSale */\n      0x05\n      add\n      0x01\n      swap1\n      sload\n      swap1\n      0x0100\n      exp\n      swap1\n      div\n      0xff\n      and\n        /* \"contracts/TestMarketplace.sol\":3008:3061  bool isUpForSale = idToMarketItem[itemId].isUpForSale */\n      swap1\n      pop\n        /* \"contracts/TestMarketplace.sol\":3088:3093  price */\n      dup3\n        /* \"contracts/TestMarketplace.sol\":3075:3084  itemPrice */\n      dup5\n        /* \"contracts/TestMarketplace.sol\":3075:3093  itemPrice >= price */\n      lt\n      iszero\n        /* \"contracts/TestMarketplace.sol\":3067:3125  require(itemPrice >= price, \"Asking Price not satisfied!\") */\n      tag_119\n      jumpi\n      mload(0x40)\n      0x08c379a000000000000000000000000000000000000000000000000000000000\n      dup2\n      mstore\n      0x04\n      add\n      tag_120\n      swap1\n      tag_121\n      jump\t// in\n    tag_120:\n      mload(0x40)\n      dup1\n      swap2\n      sub\n      swap1\n      revert\n    tag_119:\n        /* \"contracts/TestMarketplace.sol\":3154:3158  true */\n      0x01\n        /* \"contracts/TestMarketplace.sol\":3139:3158  isUpForSale == true */\n      iszero\n      iszero\n        /* \"contracts/TestMarketplace.sol\":3139:3150  isUpForSale */\n      dup2\n        /* \"contracts/TestMarketplace.sol\":3139:3158  isUpForSale == true */\n      iszero\n      iszero\n      eq\n        /* \"contracts/TestMarketplace.sol\":3131:3180  require(isUpForSale == true, \"NFT not for sale.\") */\n      tag_122\n      jumpi\n      mload(0x40)\n      0x08c379a000000000000000000000000000000000000000000000000000000000\n      dup2\n      mstore\n      0x04\n      add\n      tag_123\n      swap1\n      tag_124\n      jump\t// in\n    tag_123:\n      mload(0x40)\n      dup1\n      swap2\n      sub\n      swap1\n      revert\n    tag_122:\n        /* \"contracts/TestMarketplace.sol\":3187:3205  address prevSeller */\n      0x00\n        /* \"contracts/TestMarketplace.sol\":3208:3222  idToMarketItem */\n      0x08\n        /* \"contracts/TestMarketplace.sol\":3208:3230  idToMarketItem[itemId] */\n      0x00\n        /* \"contracts/TestMarketplace.sol\":3223:3229  itemId */\n      dup8\n        /* \"contracts/TestMarketplace.sol\":3208:3230  idToMarketItem[itemId] */\n      dup2\n      mstore\n      0x20\n      add\n      swap1\n      dup2\n      mstore\n      0x20\n      add\n      0x00\n      keccak256\n        /* \"contracts/TestMarketplace.sol\":3208:3237  idToMarketItem[itemId].seller */\n      0x02\n      add\n      0x00\n      swap1\n      sload\n      swap1\n      0x0100\n      exp\n      swap1\n      div\n      0xffffffffffffffffffffffffffffffffffffffff\n      and\n        /* \"contracts/TestMarketplace.sol\":3187:3237  address prevSeller = idToMarketItem[itemId].seller */\n      swap1\n      pop\n        /* \"contracts/TestMarketplace.sol\":3275:3285  msg.sender */\n      caller\n        /* \"contracts/TestMarketplace.sol\":3244:3258  idToMarketItem */\n      0x08\n        /* \"contracts/TestMarketplace.sol\":3244:3266  idToMarketItem[itemId] */\n      0x00\n        /* \"contracts/TestMarketplace.sol\":3259:3265  itemId */\n      dup9\n        /* \"contracts/TestMarketplace.sol\":3244:3266  idToMarketItem[itemId] */\n      dup2\n      mstore\n      0x20\n      add\n      swap1\n      dup2\n      mstore\n      0x20\n      add\n      0x00\n      keccak256\n        /* \"contracts/TestMarketplace.sol\":3244:3272  idToMarketItem[itemId].owner */\n      0x03\n      add\n      0x00\n        /* \"contracts/TestMarketplace.sol\":3244:3285  idToMarketItem[itemId].owner = msg.sender */\n      0x0100\n      exp\n      dup2\n      sload\n      dup2\n      0xffffffffffffffffffffffffffffffffffffffff\n      mul\n      not\n      and\n      swap1\n      dup4\n      0xffffffffffffffffffffffffffffffffffffffff\n      and\n      mul\n      or\n      swap1\n      sstore\n      pop\n        /* \"contracts/TestMarketplace.sol\":3323:3333  msg.sender */\n      caller\n        /* \"contracts/TestMarketplace.sol\":3291:3305  idToMarketItem */\n      0x08\n        /* \"contracts/TestMarketplace.sol\":3291:3313  idToMarketItem[itemId] */\n      0x00\n        /* \"contracts/TestMarketplace.sol\":3306:3312  itemId */\n      dup9\n        /* \"contracts/TestMarketplace.sol\":3291:3313  idToMarketItem[itemId] */\n      dup2\n      mstore\n      0x20\n      add\n      swap1\n      dup2\n      mstore\n      0x20\n      add\n      0x00\n      keccak256\n        /* \"contracts/TestMarketplace.sol\":3291:3320  idToMarketItem[itemId].seller */\n      0x02\n      add\n      0x00\n        /* \"contracts/TestMarketplace.sol\":3291:3333  idToMarketItem[itemId].seller = msg.sender */\n      0x0100\n      exp\n      dup2\n      sload\n      dup2\n      0xffffffffffffffffffffffffffffffffffffffff\n      mul\n      not\n      and\n      swap1\n      dup4\n      0xffffffffffffffffffffffffffffffffffffffff\n      and\n      mul\n      or\n      swap1\n      sstore\n      pop\n        /* \"contracts/TestMarketplace.sol\":3371:3375  true */\n      0x01\n        /* \"contracts/TestMarketplace.sol\":3339:3353  idToMarketItem */\n      0x08\n        /* \"contracts/TestMarketplace.sol\":3339:3361  idToMarketItem[itemId] */\n      0x00\n        /* \"contracts/TestMarketplace.sol\":3354:3360  itemId */\n      dup9\n        /* \"contracts/TestMarketplace.sol\":3339:3361  idToMarketItem[itemId] */\n      dup2\n      mstore\n      0x20\n      add\n      swap1\n      dup2\n      mstore\n      0x20\n      add\n      0x00\n      keccak256\n        /* \"contracts/TestMarketplace.sol\":3339:3368  idToMarketItem[itemId].isSold */\n      0x05\n      add\n      0x00\n        /* \"contracts/TestMarketplace.sol\":3339:3375  idToMarketItem[itemId].isSold = true */\n      0x0100\n      exp\n      dup2\n      sload\n      dup2\n      0xff\n      mul\n      not\n      and\n      swap1\n      dup4\n      iszero\n      iszero\n      mul\n      or\n      swap1\n      sstore\n      pop\n        /* \"contracts/TestMarketplace.sol\":3418:3423  false */\n      0x00\n        /* \"contracts/TestMarketplace.sol\":3381:3395  idToMarketItem */\n      0x08\n        /* \"contracts/TestMarketplace.sol\":3381:3403  idToMarketItem[itemId] */\n      0x00\n        /* \"contracts/TestMarketplace.sol\":3396:3402  itemId */\n      dup9\n        /* \"contracts/TestMarketplace.sol\":3381:3403  idToMarketItem[itemId] */\n      dup2\n      mstore\n      0x20\n      add\n      swap1\n      dup2\n      mstore\n      0x20\n      add\n      0x00\n      keccak256\n        /* \"contracts/TestMarketplace.sol\":3381:3415  idToMarketItem[itemId].isUpForSale */\n      0x05\n      add\n      0x01\n        /* \"contracts/TestMarketplace.sol\":3381:3423  idToMarketItem[itemId].isUpForSale = false */\n      0x0100\n      exp\n      dup2\n      sload\n      dup2\n      0xff\n      mul\n      not\n      and\n      swap1\n      dup4\n      iszero\n      iszero\n      mul\n      or\n      swap1\n      sstore\n      pop\n        /* \"contracts/TestMarketplace.sol\":3438:3449  nftContract */\n      0x05\n      0x00\n      swap1\n      sload\n      swap1\n      0x0100\n      exp\n      swap1\n      div\n      0xffffffffffffffffffffffffffffffffffffffff\n      and\n        /* \"contracts/TestMarketplace.sol\":3430:3463  IERC721(nftContract).transferFrom */\n      0xffffffffffffffffffffffffffffffffffffffff\n      and\n      0x23b872dd\n        /* \"contracts/TestMarketplace.sol\":3464:3474  prevSeller */\n      dup3\n        /* \"contracts/TestMarketplace.sol\":3476:3486  msg.sender */\n      caller\n        /* \"contracts/TestMarketplace.sol\":3488:3495  tokenId */\n      dup7\n        /* \"contracts/TestMarketplace.sol\":3430:3496  IERC721(nftContract).transferFrom(prevSeller, msg.sender, tokenId) */\n      mload(0x40)\n      dup5\n      0xffffffff\n      and\n      0xe0\n      shl\n      dup2\n      mstore\n      0x04\n      add\n      tag_125\n      swap4\n      swap3\n      swap2\n      swap1\n      tag_102\n      jump\t// in\n    tag_125:\n      0x00\n      mload(0x40)\n      dup1\n      dup4\n      sub\n      dup2\n      0x00\n      dup8\n      dup1\n      extcodesize\n      iszero\n      dup1\n      iszero\n      tag_126\n      jumpi\n      0x00\n      dup1\n      revert\n    tag_126:\n      pop\n      gas\n      call\n      iszero\n      dup1\n      iszero\n      tag_128\n      jumpi\n      returndatasize\n      0x00\n      dup1\n      returndatacopy\n      revert(0x00, returndatasize)\n    tag_128:\n      pop\n      pop\n      pop\n      pop\n        /* \"contracts/TestMarketplace.sol\":3514:3534  acceptedTokenAddress */\n      0x06\n      0x00\n      swap1\n      sload\n      swap1\n      0x0100\n      exp\n      swap1\n      div\n      0xffffffffffffffffffffffffffffffffffffffff\n      and\n        /* \"contracts/TestMarketplace.sol\":3507:3548  IERC20(acceptedTokenAddress).transferFrom */\n      0xffffffffffffffffffffffffffffffffffffffff\n      and\n      0x23b872dd\n        /* \"contracts/TestMarketplace.sol\":3549:3559  msg.sender */\n      caller\n        /* \"contracts/TestMarketplace.sol\":3561:3571  prevSeller */\n      dup4\n        /* \"contracts/TestMarketplace.sol\":3573:3582  itemPrice */\n      dup9\n        /* \"contracts/TestMarketplace.sol\":3507:3583  IERC20(acceptedTokenAddress).transferFrom(msg.sender, prevSeller, itemPrice) */\n      mload(0x40)\n      dup5\n      0xffffffff\n      and\n      0xe0\n      shl\n      dup2\n      mstore\n      0x04\n      add\n      tag_129\n      swap4\n      swap3\n      swap2\n      swap1\n      tag_102\n      jump\t// in\n    tag_129:\n      0x20\n      mload(0x40)\n      dup1\n      dup4\n      sub\n      dup2\n      0x00\n      dup8\n      dup1\n      extcodesize\n      iszero\n      dup1\n      iszero\n      tag_130\n      jumpi\n      0x00\n      dup1\n      revert\n    tag_130:\n      pop\n      gas\n      call\n      iszero\n      dup1\n      iszero\n      tag_132\n      jumpi\n      returndatasize\n      0x00\n      dup1\n      returndatacopy\n      revert(0x00, returndatasize)\n    tag_132:\n      pop\n      pop\n      pop\n      pop\n      mload(0x40)\n      returndatasize\n      not(0x1f)\n      0x1f\n      dup3\n      add\n      and\n      dup3\n      add\n      dup1\n      0x40\n      mstore\n      pop\n      dup2\n      add\n      swap1\n      tag_133\n      swap2\n      swap1\n      tag_107\n      jump\t// in\n    tag_133:\n      pop\n        /* \"contracts/TestMarketplace.sol\":3594:3616  _itemsSold.increment() */\n      tag_134\n        /* \"contracts/TestMarketplace.sol\":3594:3604  _itemsSold */\n      0x03\n        /* \"contracts/TestMarketplace.sol\":3594:3614  _itemsSold.increment */\n      tag_98\n        /* \"contracts/TestMarketplace.sol\":3594:3616  _itemsSold.increment() */\n      jump\t// in\n    tag_134:\n        /* \"contracts/TestMarketplace.sol\":2904:3622  {... */\n      pop\n      pop\n      pop\n      pop\n        /* \"@openzeppelin/contracts/security/ReentrancyGuard.sol\":1701:1702  1 */\n      0x01\n        /* \"@openzeppelin/contracts/security/ReentrancyGuard.sol\":2628:2635  _status */\n      dup1\n        /* \"@openzeppelin/contracts/security/ReentrancyGuard.sol\":2628:2650  _status = _NOT_ENTERED */\n      dup2\n      swap1\n      sstore\n      pop\n        /* \"contracts/TestMarketplace.sol\":2818:3622  function buyItem(... */\n      pop\n      pop\n      jump\t// out\n        /* \"contracts/TestMarketplace.sol\":3800:4370  function getUnsoldItems() public view returns (MarketItem[] memory) {... */\n    tag_41:\n        /* \"contracts/TestMarketplace.sol\":3847:3866  MarketItem[] memory */\n      0x60\n        /* \"contracts/TestMarketplace.sol\":3874:3888  uint itemCount */\n      0x00\n        /* \"contracts/TestMarketplace.sol\":3891:3909  _itemIds.current() */\n      tag_136\n        /* \"contracts/TestMarketplace.sol\":3891:3899  _itemIds */\n      0x02\n        /* \"contracts/TestMarketplace.sol\":3891:3907  _itemIds.current */\n      tag_100\n        /* \"contracts/TestMarketplace.sol\":3891:3909  _itemIds.current() */\n      jump\t// in\n    tag_136:\n        /* \"contracts/TestMarketplace.sol\":3874:3909  uint itemCount = _itemIds.current() */\n      swap1\n      pop\n        /* \"contracts/TestMarketplace.sol\":3915:3935  uint unsoldItemCount */\n      0x00\n        /* \"contracts/TestMarketplace.sol\":3959:3979  _itemsSold.current() */\n      tag_137\n        /* \"contracts/TestMarketplace.sol\":3959:3969  _itemsSold */\n      0x03\n        /* \"contracts/TestMarketplace.sol\":3959:3977  _itemsSold.current */\n      tag_100\n        /* \"contracts/TestMarketplace.sol\":3959:3979  _itemsSold.current() */\n      jump\t// in\n    tag_137:\n        /* \"contracts/TestMarketplace.sol\":3938:3956  _itemIds.current() */\n      tag_138\n        /* \"contracts/TestMarketplace.sol\":3938:3946  _itemIds */\n      0x02\n        /* \"contracts/TestMarketplace.sol\":3938:3954  _itemIds.current */\n      tag_100\n        /* \"contracts/TestMarketplace.sol\":3938:3956  _itemIds.current() */\n      jump\t// in\n    tag_138:\n        /* \"contracts/TestMarketplace.sol\":3938:3979  _itemIds.current() - _itemsSold.current() */\n      tag_139\n      swap2\n      swap1\n      tag_140\n      jump\t// in\n    tag_139:\n        /* \"contracts/TestMarketplace.sol\":3915:3979  uint unsoldItemCount = _itemIds.current() - _itemsSold.current() */\n      swap1\n      pop\n        /* \"contracts/TestMarketplace.sol\":3985:4002  uint currentIndex */\n      0x00\n        /* \"contracts/TestMarketplace.sol\":4013:4038  MarketItem[] memory items */\n      dup1\n        /* \"contracts/TestMarketplace.sol\":4058:4073  unsoldItemCount */\n      dup3\n        /* \"contracts/TestMarketplace.sol\":4041:4074  new MarketItem[](unsoldItemCount) */\n      0xffffffffffffffff\n      dup2\n      gt\n      iszero\n      tag_141\n      jumpi\n      tag_142\n      tag_143\n      jump\t// in\n    tag_142:\n    tag_141:\n      mload(0x40)\n      swap1\n      dup1\n      dup3\n      mstore\n      dup1\n      0x20\n      mul\n      0x20\n      add\n      dup3\n      add\n      0x40\n      mstore\n      dup1\n      iszero\n      tag_144\n      jumpi\n      dup2\n      0x20\n      add\n    tag_145:\n      tag_146\n      tag_68\n      jump\t// in\n    tag_146:\n      dup2\n      mstore\n      0x20\n      add\n      swap1\n      0x01\n      swap1\n      sub\n      swap1\n      dup2\n      tag_145\n      jumpi\n      swap1\n      pop\n    tag_144:\n      pop\n        /* \"contracts/TestMarketplace.sol\":4013:4074  MarketItem[] memory items = new MarketItem[](unsoldItemCount) */\n      swap1\n      pop\n        /* \"contracts/TestMarketplace.sol\":4085:4091  uint i */\n      0x00\n        /* \"contracts/TestMarketplace.sol\":4080:4344  for (uint i = 0; i < itemCount; i++) {... */\n    tag_147:\n        /* \"contracts/TestMarketplace.sol\":4101:4110  itemCount */\n      dup5\n        /* \"contracts/TestMarketplace.sol\":4097:4098  i */\n      dup2\n        /* \"contracts/TestMarketplace.sol\":4097:4110  i < itemCount */\n      lt\n        /* \"contracts/TestMarketplace.sol\":4080:4344  for (uint i = 0; i < itemCount; i++) {... */\n      iszero\n      tag_148\n      jumpi\n        /* \"contracts/TestMarketplace.sol\":4130:4144  idToMarketItem */\n      0x08\n        /* \"contracts/TestMarketplace.sol\":4130:4151  idToMarketItem[i + 1] */\n      0x00\n        /* \"contracts/TestMarketplace.sol\":4149:4150  1 */\n      0x01\n        /* \"contracts/TestMarketplace.sol\":4145:4146  i */\n      dup4\n        /* \"contracts/TestMarketplace.sol\":4145:4150  i + 1 */\n      tag_150\n      swap2\n      swap1\n      tag_113\n      jump\t// in\n    tag_150:\n        /* \"contracts/TestMarketplace.sol\":4130:4151  idToMarketItem[i + 1] */\n      dup2\n      mstore\n      0x20\n      add\n      swap1\n      dup2\n      mstore\n      0x20\n      add\n      0x00\n      keccak256\n        /* \"contracts/TestMarketplace.sol\":4130:4158  idToMarketItem[i + 1].isSold */\n      0x05\n      add\n      0x00\n      swap1\n      sload\n      swap1\n      0x0100\n      exp\n      swap1\n      div\n      0xff\n      and\n        /* \"contracts/TestMarketplace.sol\":4125:4338  if (!idToMarketItem[i + 1].isSold) {... */\n      tag_151\n      jumpi\n        /* \"contracts/TestMarketplace.sol\":4170:4184  uint currentId */\n      0x00\n        /* \"contracts/TestMarketplace.sol\":4191:4192  1 */\n      0x01\n        /* \"contracts/TestMarketplace.sol\":4187:4188  i */\n      dup3\n        /* \"contracts/TestMarketplace.sol\":4187:4192  i + 1 */\n      tag_152\n      swap2\n      swap1\n      tag_113\n      jump\t// in\n    tag_152:\n        /* \"contracts/TestMarketplace.sol\":4170:4192  uint currentId = i + 1 */\n      swap1\n      pop\n        /* \"contracts/TestMarketplace.sol\":4202:4231  MarketItem memory currentItem */\n      0x00\n        /* \"contracts/TestMarketplace.sol\":4234:4248  idToMarketItem */\n      0x08\n        /* \"contracts/TestMarketplace.sol\":4234:4259  idToMarketItem[currentId] */\n      0x00\n        /* \"contracts/TestMarketplace.sol\":4249:4258  currentId */\n      dup4\n        /* \"contracts/TestMarketplace.sol\":4234:4259  idToMarketItem[currentId] */\n      dup2\n      mstore\n      0x20\n      add\n      swap1\n      dup2\n      mstore\n      0x20\n      add\n      0x00\n      keccak256\n        /* \"contracts/TestMarketplace.sol\":4202:4259  MarketItem memory currentItem = idToMarketItem[currentId] */\n      mload(0x40)\n      dup1\n      0x0100\n      add\n      0x40\n      mstore\n      swap1\n      dup2\n      0x00\n      dup3\n      add\n      sload\n      dup2\n      mstore\n      0x20\n      add\n      0x01\n      dup3\n      add\n      sload\n      dup2\n      mstore\n      0x20\n      add\n      0x02\n      dup3\n      add\n      0x00\n      swap1\n      sload\n      swap1\n      0x0100\n      exp\n      swap1\n      div\n      0xffffffffffffffffffffffffffffffffffffffff\n      and\n      0xffffffffffffffffffffffffffffffffffffffff\n      and\n      0xffffffffffffffffffffffffffffffffffffffff\n      and\n      dup2\n      mstore\n      0x20\n      add\n      0x03\n      dup3\n      add\n      0x00\n      swap1\n      sload\n      swap1\n      0x0100\n      exp\n      swap1\n      div\n      0xffffffffffffffffffffffffffffffffffffffff\n      and\n      0xffffffffffffffffffffffffffffffffffffffff\n      and\n      0xffffffffffffffffffffffffffffffffffffffff\n      and\n      dup2\n      mstore\n      0x20\n      add\n      0x04\n      dup3\n      add\n      sload\n      dup2\n      mstore\n      0x20\n      add\n      0x05\n      dup3\n      add\n      0x00\n      swap1\n      sload\n      swap1\n      0x0100\n      exp\n      swap1\n      div\n      0xff\n      and\n      iszero\n      iszero\n      iszero\n      iszero\n      dup2\n      mstore\n      0x20\n      add\n      0x05\n      dup3\n      add\n      0x01\n      swap1\n      sload\n      swap1\n      0x0100\n      exp\n      swap1\n      div\n      0xff\n      and\n      iszero\n      iszero\n      iszero\n      iszero\n      dup2\n      mstore\n      0x20\n      add\n      0x05\n      dup3\n      add\n      0x02\n      swap1\n      sload\n      swap1\n      0x0100\n      exp\n      swap1\n      div\n      0xff\n      and\n      iszero\n      iszero\n      iszero\n      iszero\n      dup2\n      mstore\n      pop\n      pop\n      swap1\n      pop\n        /* \"contracts/TestMarketplace.sol\":4291:4302  currentItem */\n      dup1\n        /* \"contracts/TestMarketplace.sol\":4269:4274  items */\n      dup5\n        /* \"contracts/TestMarketplace.sol\":4275:4287  currentIndex */\n      dup7\n        /* \"contracts/TestMarketplace.sol\":4269:4288  items[currentIndex] */\n      dup2\n      mload\n      dup2\n      lt\n      tag_153\n      jumpi\n      tag_154\n      tag_155\n      jump\t// in\n    tag_154:\n    tag_153:\n      0x20\n      mul\n      0x20\n      add\n      add\n        /* \"contracts/TestMarketplace.sol\":4269:4302  items[currentIndex] = currentItem */\n      dup2\n      swap1\n      mstore\n      pop\n        /* \"contracts/TestMarketplace.sol\":4328:4329  1 */\n      0x01\n        /* \"contracts/TestMarketplace.sol\":4312:4329  currentIndex += 1 */\n      dup6\n      tag_156\n      swap2\n      swap1\n      tag_113\n      jump\t// in\n    tag_156:\n      swap5\n      pop\n        /* \"contracts/TestMarketplace.sol\":4160:4338  {... */\n      pop\n      pop\n        /* \"contracts/TestMarketplace.sol\":4125:4338  if (!idToMarketItem[i + 1].isSold) {... */\n    tag_151:\n        /* \"contracts/TestMarketplace.sol\":4112:4115  i++ */\n      dup1\n      dup1\n      tag_157\n      swap1\n      tag_158\n      jump\t// in\n    tag_157:\n      swap2\n      pop\n      pop\n        /* \"contracts/TestMarketplace.sol\":4080:4344  for (uint i = 0; i < itemCount; i++) {... */\n      jump(tag_147)\n    tag_148:\n      pop\n        /* \"contracts/TestMarketplace.sol\":4360:4365  items */\n      dup1\n        /* \"contracts/TestMarketplace.sol\":4353:4365  return items */\n      swap5\n      pop\n      pop\n      pop\n      pop\n      pop\n        /* \"contracts/TestMarketplace.sol\":3800:4370  function getUnsoldItems() public view returns (MarketItem[] memory) {... */\n      swap1\n      jump\t// out\n        /* \"contracts/TestMarketplace.sol\":2366:2814  function createSale(... */\n    tag_46:\n        /* \"@openzeppelin/contracts/security/ReentrancyGuard.sol\":1744:1745  2 */\n      0x02\n        /* \"@openzeppelin/contracts/security/ReentrancyGuard.sol\":2325:2332  _status */\n      sload(0x01)\n        /* \"@openzeppelin/contracts/security/ReentrancyGuard.sol\":2325:2344  _status != _ENTERED */\n      eq\n      iszero\n        /* \"@openzeppelin/contracts/security/ReentrancyGuard.sol\":2317:2380  require(_status != _ENTERED, \"ReentrancyGuard: reentrant call\") */\n      tag_160\n      jumpi\n      mload(0x40)\n      0x08c379a000000000000000000000000000000000000000000000000000000000\n      dup2\n      mstore\n      0x04\n      add\n      tag_161\n      swap1\n      tag_84\n      jump\t// in\n    tag_161:\n      mload(0x40)\n      dup1\n      swap2\n      sub\n      swap1\n      revert\n    tag_160:\n        /* \"@openzeppelin/contracts/security/ReentrancyGuard.sol\":1744:1745  2 */\n      0x02\n        /* \"@openzeppelin/contracts/security/ReentrancyGuard.sol\":2455:2462  _status */\n      0x01\n        /* \"@openzeppelin/contracts/security/ReentrancyGuard.sol\":2455:2473  _status = _ENTERED */\n      dup2\n      swap1\n      sstore\n      pop\n        /* \"contracts/TestMarketplace.sol\":2441:2463  MarketItem memory item */\n      0x00\n        /* \"contracts/TestMarketplace.sol\":2466:2480  idToMarketItem */\n      0x08\n        /* \"contracts/TestMarketplace.sol\":2466:2488  idToMarketItem[itemId] */\n      0x00\n        /* \"contracts/TestMarketplace.sol\":2481:2487  itemId */\n      dup4\n        /* \"contracts/TestMarketplace.sol\":2466:2488  idToMarketItem[itemId] */\n      dup2\n      mstore\n      0x20\n      add\n      swap1\n      dup2\n      mstore\n      0x20\n      add\n      0x00\n      keccak256\n        /* \"contracts/TestMarketplace.sol\":2441:2488  MarketItem memory item = idToMarketItem[itemId] */\n      mload(0x40)\n      dup1\n      0x0100\n      add\n      0x40\n      mstore\n      swap1\n      dup2\n      0x00\n      dup3\n      add\n      sload\n      dup2\n      mstore\n      0x20\n      add\n      0x01\n      dup3\n      add\n      sload\n      dup2\n      mstore\n      0x20\n      add\n      0x02\n      dup3\n      add\n      0x00\n      swap1\n      sload\n      swap1\n      0x0100\n      exp\n      swap1\n      div\n      0xffffffffffffffffffffffffffffffffffffffff\n      and\n      0xffffffffffffffffffffffffffffffffffffffff\n      and\n      0xffffffffffffffffffffffffffffffffffffffff\n      and\n      dup2\n      mstore\n      0x20\n      add\n      0x03\n      dup3\n      add\n      0x00\n      swap1\n      sload\n      swap1\n      0x0100\n      exp\n      swap1\n      div\n      0xffffffffffffffffffffffffffffffffffffffff\n      and\n      0xffffffffffffffffffffffffffffffffffffffff\n      and\n      0xffffffffffffffffffffffffffffffffffffffff\n      and\n      dup2\n      mstore\n      0x20\n      add\n      0x04\n      dup3\n      add\n      sload\n      dup2\n      mstore\n      0x20\n      add\n      0x05\n      dup3\n      add\n      0x00\n      swap1\n      sload\n      swap1\n      0x0100\n      exp\n      swap1\n      div\n      0xff\n      and\n      iszero\n      iszero\n      iszero\n      iszero\n      dup2\n      mstore\n      0x20\n      add\n      0x05\n      dup3\n      add\n      0x01\n      swap1\n      sload\n      swap1\n      0x0100\n      exp\n      swap1\n      div\n      0xff\n      and\n      iszero\n      iszero\n      iszero\n      iszero\n      dup2\n      mstore\n      0x20\n      add\n      0x05\n      dup3\n      add\n      0x02\n      swap1\n      sload\n      swap1\n      0x0100\n      exp\n      swap1\n      div\n      0xff\n      and\n      iszero\n      iszero\n      iszero\n      iszero\n      dup2\n      mstore\n      pop\n      pop\n      swap1\n      pop\n        /* \"contracts/TestMarketplace.sol\":2521:2531  msg.sender */\n      caller\n        /* \"contracts/TestMarketplace.sol\":2507:2531  item.owner == msg.sender */\n      0xffffffffffffffffffffffffffffffffffffffff\n      and\n        /* \"contracts/TestMarketplace.sol\":2507:2511  item */\n      dup2\n        /* \"contracts/TestMarketplace.sol\":2507:2517  item.owner */\n      0x60\n      add\n      mload\n        /* \"contracts/TestMarketplace.sol\":2507:2531  item.owner == msg.sender */\n      0xffffffffffffffffffffffffffffffffffffffff\n      and\n      eq\n        /* \"contracts/TestMarketplace.sol\":2499:2568  require(item.owner == msg.sender, \"Only Item owner can create sale.\") */\n      tag_163\n      jumpi\n      mload(0x40)\n      0x08c379a000000000000000000000000000000000000000000000000000000000\n      dup2\n      mstore\n      0x04\n      add\n      tag_164\n      swap1\n      tag_165\n      jump\t// in\n    tag_164:\n      mload(0x40)\n      dup1\n      swap2\n      sub\n      swap1\n      revert\n    tag_163:\n        /* \"contracts/TestMarketplace.sol\":2597:2601  true */\n      0x01\n        /* \"contracts/TestMarketplace.sol\":2582:2601  item.exists == true */\n      iszero\n      iszero\n        /* \"contracts/TestMarketplace.sol\":2582:2586  item */\n      dup2\n        /* \"contracts/TestMarketplace.sol\":2582:2593  item.exists */\n      0xe0\n      add\n      mload\n        /* \"contracts/TestMarketplace.sol\":2582:2601  item.exists == true */\n      iszero\n      iszero\n      eq\n        /* \"contracts/TestMarketplace.sol\":2574:2626  require(item.exists == true, \"Item does not exist.\") */\n      tag_166\n      jumpi\n      mload(0x40)\n      0x08c379a000000000000000000000000000000000000000000000000000000000\n      dup2\n      mstore\n      0x04\n      add\n      tag_167\n      swap1\n      tag_168\n      jump\t// in\n    tag_167:\n      mload(0x40)\n      dup1\n      swap2\n      sub\n      swap1\n      revert\n    tag_166:\n        /* \"contracts/TestMarketplace.sol\":2674:2678  true */\n      0x01\n        /* \"contracts/TestMarketplace.sol\":2637:2651  idToMarketItem */\n      0x08\n        /* \"contracts/TestMarketplace.sol\":2637:2659  idToMarketItem[itemId] */\n      0x00\n        /* \"contracts/TestMarketplace.sol\":2652:2658  itemId */\n      dup5\n        /* \"contracts/TestMarketplace.sol\":2637:2659  idToMarketItem[itemId] */\n      dup2\n      mstore\n      0x20\n      add\n      swap1\n      dup2\n      mstore\n      0x20\n      add\n      0x00\n      keccak256\n        /* \"contracts/TestMarketplace.sol\":2637:2671  idToMarketItem[itemId].isUpForSale */\n      0x05\n      add\n      0x01\n        /* \"contracts/TestMarketplace.sol\":2637:2678  idToMarketItem[itemId].isUpForSale = true */\n      0x0100\n      exp\n      dup2\n      sload\n      dup2\n      0xff\n      mul\n      not\n      and\n      swap1\n      dup4\n      iszero\n      iszero\n      mul\n      or\n      swap1\n      sstore\n      pop\n        /* \"contracts/TestMarketplace.sol\":2736:2740  item */\n      dup1\n        /* \"contracts/TestMarketplace.sol\":2736:2748  item.tokenId */\n      0x20\n      add\n      mload\n        /* \"contracts/TestMarketplace.sol\":2722:2728  itemId */\n      dup3\n        /* \"contracts/TestMarketplace.sol\":2694:2809  MarketItemUpForSale (... */\n      0x0b59dfc56db79c6259bcd97a3fc890ab90008a8b5781d89dd763e01651bc7bc8\n        /* \"contracts/TestMarketplace.sol\":2756:2766  msg.sender */\n      caller\n        /* \"contracts/TestMarketplace.sol\":2774:2778  item */\n      dup5\n        /* \"contracts/TestMarketplace.sol\":2774:2785  item.seller */\n      0x40\n      add\n      mload\n        /* \"contracts/TestMarketplace.sol\":2793:2797  item */\n      dup6\n        /* \"contracts/TestMarketplace.sol\":2793:2803  item.price */\n      0x80\n      add\n      mload\n        /* \"contracts/TestMarketplace.sol\":2694:2809  MarketItemUpForSale (... */\n      mload(0x40)\n      tag_169\n      swap4\n      swap3\n      swap2\n      swap1\n      tag_102\n      jump\t// in\n    tag_169:\n      mload(0x40)\n      dup1\n      swap2\n      sub\n      swap1\n      log3\n        /* \"contracts/TestMarketplace.sol\":2430:2814  {... */\n      pop\n        /* \"@openzeppelin/contracts/security/ReentrancyGuard.sol\":1701:1702  1 */\n      0x01\n        /* \"@openzeppelin/contracts/security/ReentrancyGuard.sol\":2628:2635  _status */\n      dup1\n        /* \"@openzeppelin/contracts/security/ReentrancyGuard.sol\":2628:2650  _status = _NOT_ENTERED */\n      dup2\n      swap1\n      sstore\n      pop\n        /* \"contracts/TestMarketplace.sol\":2366:2814  function createSale(... */\n      pop\n      jump\t// out\n        /* \"contracts/TestMarketplace.sol\":1445:1555  function onERC721Received(... */\n    tag_48:\n        /* \"contracts/TestMarketplace.sol\":1496:1502  bytes4 */\n      0x00\n        /* \"contracts/TestMarketplace.sol\":1518:1548  this.onERC721Received.selector */\n      shl(0xe0, 0xa8fcc417)\n        /* \"contracts/TestMarketplace.sol\":1511:1548  return this.onERC721Received.selector */\n      swap1\n      pop\n        /* \"contracts/TestMarketplace.sol\":1445:1555  function onERC721Received(... */\n      swap1\n      jump\t// out\n        /* \"contracts/TestMarketplace.sol\":717:756  uint256 public listingPrice = 0.1 ether */\n    tag_52:\n      sload(0x07)\n      dup2\n      jump\t// out\n        /* \"contracts/TestMarketplace.sol\":648:674  address public nftContract */\n    tag_56:\n      0x05\n      0x00\n      swap1\n      sload\n      swap1\n      0x0100\n      exp\n      swap1\n      div\n      0xffffffffffffffffffffffffffffffffffffffff\n      and\n      dup2\n      jump\t// out\n        /* \"contracts/TestMarketplace.sol\":940:992  mapping(uint256 => MarketItem) public idToMarketItem */\n    tag_60:\n      mstore(0x20, 0x08)\n      dup1\n      0x00\n      mstore\n      keccak256(0x00, 0x40)\n      0x00\n      swap2\n      pop\n      swap1\n      pop\n      dup1\n      0x00\n      add\n      sload\n      swap1\n      dup1\n      0x01\n      add\n      sload\n      swap1\n      dup1\n      0x02\n      add\n      0x00\n      swap1\n      sload\n      swap1\n      0x0100\n      exp\n      swap1\n      div\n      0xffffffffffffffffffffffffffffffffffffffff\n      and\n      swap1\n      dup1\n      0x03\n      add\n      0x00\n      swap1\n      sload\n      swap1\n      0x0100\n      exp\n      swap1\n      div\n      0xffffffffffffffffffffffffffffffffffffffff\n      and\n      swap1\n      dup1\n      0x04\n      add\n      sload\n      swap1\n      dup1\n      0x05\n      add\n      0x00\n      swap1\n      sload\n      swap1\n      0x0100\n      exp\n      swap1\n      div\n      0xff\n      and\n      swap1\n      dup1\n      0x05\n      add\n      0x01\n      swap1\n      sload\n      swap1\n      0x0100\n      exp\n      swap1\n      div\n      0xff\n      and\n      swap1\n      dup1\n      0x05\n      add\n      0x02\n      swap1\n      sload\n      swap1\n      0x0100\n      exp\n      swap1\n      div\n      0xff\n      and\n      swap1\n      pop\n      dup9\n      jump\t// out\n        /* \"@openzeppelin/contracts/access/Ownable.sol\":1918:2116  function transferOwnership(address newOwner) public virtual onlyOwner {... */\n    tag_66:\n        /* \"@openzeppelin/contracts/access/Ownable.sol\":1259:1271  _msgSender() */\n      tag_172\n        /* \"@openzeppelin/contracts/access/Ownable.sol\":1259:1269  _msgSender */\n      tag_72\n        /* \"@openzeppelin/contracts/access/Ownable.sol\":1259:1271  _msgSender() */\n      jump\t// in\n    tag_172:\n        /* \"@openzeppelin/contracts/access/Ownable.sol\":1248:1271  owner() == _msgSender() */\n      0xffffffffffffffffffffffffffffffffffffffff\n      and\n        /* \"@openzeppelin/contracts/access/Ownable.sol\":1248:1255  owner() */\n      tag_173\n        /* \"@openzeppelin/contracts/access/Ownable.sol\":1248:1253  owner */\n      tag_31\n        /* \"@openzeppelin/contracts/access/Ownable.sol\":1248:1255  owner() */\n      jump\t// in\n    tag_173:\n        /* \"@openzeppelin/contracts/access/Ownable.sol\":1248:1271  owner() == _msgSender() */\n      0xffffffffffffffffffffffffffffffffffffffff\n      and\n      eq\n        /* \"@openzeppelin/contracts/access/Ownable.sol\":1240:1308  require(owner() == _msgSender(), \"Ownable: caller is not the owner\") */\n      tag_174\n      jumpi\n      mload(0x40)\n      0x08c379a000000000000000000000000000000000000000000000000000000000\n      dup2\n      mstore\n      0x04\n      add\n      tag_175\n      swap1\n      tag_76\n      jump\t// in\n    tag_175:\n      mload(0x40)\n      dup1\n      swap2\n      sub\n      swap1\n      revert\n    tag_174:\n        /* \"@openzeppelin/contracts/access/Ownable.sol\":2026:2027  0 */\n      0x00\n        /* \"@openzeppelin/contracts/access/Ownable.sol\":2006:2028  newOwner != address(0) */\n      0xffffffffffffffffffffffffffffffffffffffff\n      and\n        /* \"@openzeppelin/contracts/access/Ownable.sol\":2006:2014  newOwner */\n      dup2\n        /* \"@openzeppelin/contracts/access/Ownable.sol\":2006:2028  newOwner != address(0) */\n      0xffffffffffffffffffffffffffffffffffffffff\n      and\n      eq\n      iszero\n        /* \"@openzeppelin/contracts/access/Ownable.sol\":1998:2071  require(newOwner != address(0), \"Ownable: new owner is the zero address\") */\n      tag_177\n      jumpi\n      mload(0x40)\n      0x08c379a000000000000000000000000000000000000000000000000000000000\n      dup2\n      mstore\n      0x04\n      add\n      tag_178\n      swap1\n      tag_179\n      jump\t// in\n    tag_178:\n      mload(0x40)\n      dup1\n      swap2\n      sub\n      swap1\n      revert\n    tag_177:\n        /* \"@openzeppelin/contracts/access/Ownable.sol\":2081:2109  _transferOwnership(newOwner) */\n      tag_180\n        /* \"@openzeppelin/contracts/access/Ownable.sol\":2100:2108  newOwner */\n      dup2\n        /* \"@openzeppelin/contracts/access/Ownable.sol\":2081:2099  _transferOwnership */\n      tag_79\n        /* \"@openzeppelin/contracts/access/Ownable.sol\":2081:2109  _transferOwnership(newOwner) */\n      jump\t// in\n    tag_180:\n        /* \"@openzeppelin/contracts/access/Ownable.sol\":1918:2116  function transferOwnership(address newOwner) public virtual onlyOwner {... */\n      pop\n      jump\t// out\n        /* \"@openzeppelin/contracts/utils/Context.sol\":640:736  function _msgSender() internal view virtual returns (address) {... */\n    tag_72:\n        /* \"@openzeppelin/contracts/utils/Context.sol\":693:700  address */\n      0x00\n        /* \"@openzeppelin/contracts/utils/Context.sol\":719:729  msg.sender */\n      caller\n        /* \"@openzeppelin/contracts/utils/Context.sol\":712:729  return msg.sender */\n      swap1\n      pop\n        /* \"@openzeppelin/contracts/utils/Context.sol\":640:736  function _msgSender() internal view virtual returns (address) {... */\n      swap1\n      jump\t// out\n        /* \"@openzeppelin/contracts/access/Ownable.sol\":2270:2457  function _transferOwnership(address newOwner) internal virtual {... */\n    tag_79:\n        /* \"@openzeppelin/contracts/access/Ownable.sol\":2343:2359  address oldOwner */\n      0x00\n        /* \"@openzeppelin/contracts/access/Ownable.sol\":2362:2368  _owner */\n      dup1\n      0x00\n      swap1\n      sload\n      swap1\n      0x0100\n      exp\n      swap1\n      div\n      0xffffffffffffffffffffffffffffffffffffffff\n      and\n        /* \"@openzeppelin/contracts/access/Ownable.sol\":2343:2368  address oldOwner = _owner */\n      swap1\n      pop\n        /* \"@openzeppelin/contracts/access/Ownable.sol\":2387:2395  newOwner */\n      dup2\n        /* \"@openzeppelin/contracts/access/Ownable.sol\":2378:2384  _owner */\n      0x00\n      dup1\n        /* \"@openzeppelin/contracts/access/Ownable.sol\":2378:2395  _owner = newOwner */\n      0x0100\n      exp\n      dup2\n      sload\n      dup2\n      0xffffffffffffffffffffffffffffffffffffffff\n      mul\n      not\n      and\n      swap1\n      dup4\n      0xffffffffffffffffffffffffffffffffffffffff\n      and\n      mul\n      or\n      swap1\n      sstore\n      pop\n        /* \"@openzeppelin/contracts/access/Ownable.sol\":2441:2449  newOwner */\n      dup2\n        /* \"@openzeppelin/contracts/access/Ownable.sol\":2410:2450  OwnershipTransferred(oldOwner, newOwner) */\n      0xffffffffffffffffffffffffffffffffffffffff\n      and\n        /* \"@openzeppelin/contracts/access/Ownable.sol\":2431:2439  oldOwner */\n      dup2\n        /* \"@openzeppelin/contracts/access/Ownable.sol\":2410:2450  OwnershipTransferred(oldOwner, newOwner) */\n      0xffffffffffffffffffffffffffffffffffffffff\n      and\n      0x8be0079c531659141344cd1fd0a4f28419497f9722a3daafe3b4186f6b6457e0\n      mload(0x40)\n      mload(0x40)\n      dup1\n      swap2\n      sub\n      swap1\n      log3\n        /* \"@openzeppelin/contracts/access/Ownable.sol\":2333:2457  {... */\n      pop\n        /* \"@openzeppelin/contracts/access/Ownable.sol\":2270:2457  function _transferOwnership(address newOwner) internal virtual {... */\n      pop\n      jump\t// out\n        /* \"@openzeppelin/contracts/utils/Counters.sol\":945:1068  function increment(Counter storage counter) internal {... */\n    tag_98:\n        /* \"@openzeppelin/contracts/utils/Counters.sol\":1050:1051  1 */\n      0x01\n        /* \"@openzeppelin/contracts/utils/Counters.sol\":1032:1039  counter */\n      dup2\n        /* \"@openzeppelin/contracts/utils/Counters.sol\":1032:1046  counter._value */\n      0x00\n      add\n      0x00\n        /* \"@openzeppelin/contracts/utils/Counters.sol\":1032:1051  counter._value += 1 */\n      dup3\n      dup3\n      sload\n      add\n      swap3\n      pop\n      pop\n      dup2\n      swap1\n      sstore\n      pop\n        /* \"@openzeppelin/contracts/utils/Counters.sol\":945:1068  function increment(Counter storage counter) internal {... */\n      pop\n      jump\t// out\n        /* \"@openzeppelin/contracts/utils/Counters.sol\":827:939  function current(Counter storage counter) internal view returns (uint256) {... */\n    tag_100:\n        /* \"@openzeppelin/contracts/utils/Counters.sol\":892:899  uint256 */\n      0x00\n        /* \"@openzeppelin/contracts/utils/Counters.sol\":918:925  counter */\n      dup2\n        /* \"@openzeppelin/contracts/utils/Counters.sol\":918:932  counter._value */\n      0x00\n      add\n      sload\n        /* \"@openzeppelin/contracts/utils/Counters.sol\":911:932  return counter._value */\n      swap1\n      pop\n        /* \"@openzeppelin/contracts/utils/Counters.sol\":827:939  function current(Counter storage counter) internal view returns (uint256) {... */\n      swap2\n      swap1\n      pop\n      jump\t// out\n    tag_68:\n      mload(0x40)\n      dup1\n      0x0100\n      add\n      0x40\n      mstore\n      dup1\n      0x00\n      dup2\n      mstore\n      0x20\n      add\n      0x00\n      dup2\n      mstore\n      0x20\n      add\n      and(0xffffffffffffffffffffffffffffffffffffffff, 0x00)\n      dup2\n      mstore\n      0x20\n      add\n      and(0xffffffffffffffffffffffffffffffffffffffff, 0x00)\n      dup2\n      mstore\n      0x20\n      add\n      0x00\n      dup2\n      mstore\n      0x20\n      add\n      iszero(iszero(0x00))\n      dup2\n      mstore\n      0x20\n      add\n      iszero(iszero(0x00))\n      dup2\n      mstore\n      0x20\n      add\n      iszero(iszero(0x00))\n      dup2\n      mstore\n      pop\n      swap1\n      jump\t// out\n        /* \"#utility.yul\":7:146   */\n    tag_186:\n        /* \"#utility.yul\":53:58   */\n      0x00\n        /* \"#utility.yul\":91:97   */\n      dup2\n        /* \"#utility.yul\":78:98   */\n      calldataload\n        /* \"#utility.yul\":69:98   */\n      swap1\n      pop\n        /* \"#utility.yul\":107:140   */\n      tag_188\n        /* \"#utility.yul\":134:139   */\n      dup2\n        /* \"#utility.yul\":107:140   */\n      tag_189\n      jump\t// in\n    tag_188:\n        /* \"#utility.yul\":7:146   */\n      swap3\n      swap2\n      pop\n      pop\n      jump\t// out\n        /* \"#utility.yul\":152:289   */\n    tag_190:\n        /* \"#utility.yul\":206:211   */\n      0x00\n        /* \"#utility.yul\":237:243   */\n      dup2\n        /* \"#utility.yul\":231:244   */\n      mload\n        /* \"#utility.yul\":222:244   */\n      swap1\n      pop\n        /* \"#utility.yul\":253:283   */\n      tag_192\n        /* \"#utility.yul\":277:282   */\n      dup2\n        /* \"#utility.yul\":253:283   */\n      tag_193\n      jump\t// in\n    tag_192:\n        /* \"#utility.yul\":152:289   */\n      swap3\n      swap2\n      pop\n      pop\n      jump\t// out\n        /* \"#utility.yul\":295:434   */\n    tag_194:\n        /* \"#utility.yul\":341:346   */\n      0x00\n        /* \"#utility.yul\":379:385   */\n      dup2\n        /* \"#utility.yul\":366:386   */\n      calldataload\n        /* \"#utility.yul\":357:386   */\n      swap1\n      pop\n        /* \"#utility.yul\":395:428   */\n      tag_196\n        /* \"#utility.yul\":422:427   */\n      dup2\n        /* \"#utility.yul\":395:428   */\n      tag_197\n      jump\t// in\n    tag_196:\n        /* \"#utility.yul\":295:434   */\n      swap3\n      swap2\n      pop\n      pop\n      jump\t// out\n        /* \"#utility.yul\":440:769   */\n    tag_65:\n        /* \"#utility.yul\":499:505   */\n      0x00\n        /* \"#utility.yul\":548:550   */\n      0x20\n        /* \"#utility.yul\":536:545   */\n      dup3\n        /* \"#utility.yul\":527:534   */\n      dup5\n        /* \"#utility.yul\":523:546   */\n      sub\n        /* \"#utility.yul\":519:551   */\n      slt\n        /* \"#utility.yul\":516:635   */\n      iszero\n      tag_199\n      jumpi\n        /* \"#utility.yul\":554:633   */\n      tag_200\n      tag_201\n      jump\t// in\n    tag_200:\n        /* \"#utility.yul\":516:635   */\n    tag_199:\n        /* \"#utility.yul\":674:675   */\n      0x00\n        /* \"#utility.yul\":699:752   */\n      tag_202\n        /* \"#utility.yul\":744:751   */\n      dup5\n        /* \"#utility.yul\":735:741   */\n      dup3\n        /* \"#utility.yul\":724:733   */\n      dup6\n        /* \"#utility.yul\":720:742   */\n      add\n        /* \"#utility.yul\":699:752   */\n      tag_186\n      jump\t// in\n    tag_202:\n        /* \"#utility.yul\":689:752   */\n      swap2\n      pop\n        /* \"#utility.yul\":645:762   */\n      pop\n        /* \"#utility.yul\":440:769   */\n      swap3\n      swap2\n      pop\n      pop\n      jump\t// out\n        /* \"#utility.yul\":775:1120   */\n    tag_107:\n        /* \"#utility.yul\":842:848   */\n      0x00\n        /* \"#utility.yul\":891:893   */\n      0x20\n        /* \"#utility.yul\":879:888   */\n      dup3\n        /* \"#utility.yul\":870:877   */\n      dup5\n        /* \"#utility.yul\":866:889   */\n      sub\n        /* \"#utility.yul\":862:894   */\n      slt\n        /* \"#utility.yul\":859:978   */\n      iszero\n      tag_204\n      jumpi\n        /* \"#utility.yul\":897:976   */\n      tag_205\n      tag_201\n      jump\t// in\n    tag_205:\n        /* \"#utility.yul\":859:978   */\n    tag_204:\n        /* \"#utility.yul\":1017:1018   */\n      0x00\n        /* \"#utility.yul\":1042:1103   */\n      tag_206\n        /* \"#utility.yul\":1095:1102   */\n      dup5\n        /* \"#utility.yul\":1086:1092   */\n      dup3\n        /* \"#utility.yul\":1075:1084   */\n      dup6\n        /* \"#utility.yul\":1071:1093   */\n      add\n        /* \"#utility.yul\":1042:1103   */\n      tag_190\n      jump\t// in\n    tag_206:\n        /* \"#utility.yul\":1032:1103   */\n      swap2\n      pop\n        /* \"#utility.yul\":988:1113   */\n      pop\n        /* \"#utility.yul\":775:1120   */\n      swap3\n      swap2\n      pop\n      pop\n      jump\t// out\n        /* \"#utility.yul\":1126:1455   */\n    tag_20:\n        /* \"#utility.yul\":1185:1191   */\n      0x00\n        /* \"#utility.yul\":1234:1236   */\n      0x20\n        /* \"#utility.yul\":1222:1231   */\n      dup3\n        /* \"#utility.yul\":1213:1220   */\n      dup5\n        /* \"#utility.yul\":1209:1232   */\n      sub\n        /* \"#utility.yul\":1205:1237   */\n      slt\n        /* \"#utility.yul\":1202:1321   */\n      iszero\n      tag_208\n      jumpi\n        /* \"#utility.yul\":1240:1319   */\n      tag_209\n      tag_201\n      jump\t// in\n    tag_209:\n        /* \"#utility.yul\":1202:1321   */\n    tag_208:\n        /* \"#utility.yul\":1360:1361   */\n      0x00\n        /* \"#utility.yul\":1385:1438   */\n      tag_210\n        /* \"#utility.yul\":1430:1437   */\n      dup5\n        /* \"#utility.yul\":1421:1427   */\n      dup3\n        /* \"#utility.yul\":1410:1419   */\n      dup6\n        /* \"#utility.yul\":1406:1428   */\n      add\n        /* \"#utility.yul\":1385:1438   */\n      tag_194\n      jump\t// in\n    tag_210:\n        /* \"#utility.yul\":1375:1438   */\n      swap2\n      pop\n        /* \"#utility.yul\":1331:1448   */\n      pop\n        /* \"#utility.yul\":1126:1455   */\n      swap3\n      swap2\n      pop\n      pop\n      jump\t// out\n        /* \"#utility.yul\":1461:1935   */\n    tag_35:\n        /* \"#utility.yul\":1529:1535   */\n      0x00\n        /* \"#utility.yul\":1537:1543   */\n      dup1\n        /* \"#utility.yul\":1586:1588   */\n      0x40\n        /* \"#utility.yul\":1574:1583   */\n      dup4\n        /* \"#utility.yul\":1565:1572   */\n      dup6\n        /* \"#utility.yul\":1561:1584   */\n      sub\n        /* \"#utility.yul\":1557:1589   */\n      slt\n        /* \"#utility.yul\":1554:1673   */\n      iszero\n      tag_212\n      jumpi\n        /* \"#utility.yul\":1592:1671   */\n      tag_213\n      tag_201\n      jump\t// in\n    tag_213:\n        /* \"#utility.yul\":1554:1673   */\n    tag_212:\n        /* \"#utility.yul\":1712:1713   */\n      0x00\n        /* \"#utility.yul\":1737:1790   */\n      tag_214\n        /* \"#utility.yul\":1782:1789   */\n      dup6\n        /* \"#utility.yul\":1773:1779   */\n      dup3\n        /* \"#utility.yul\":1762:1771   */\n      dup7\n        /* \"#utility.yul\":1758:1780   */\n      add\n        /* \"#utility.yul\":1737:1790   */\n      tag_194\n      jump\t// in\n    tag_214:\n        /* \"#utility.yul\":1727:1790   */\n      swap3\n      pop\n        /* \"#utility.yul\":1683:1800   */\n      pop\n        /* \"#utility.yul\":1839:1841   */\n      0x20\n        /* \"#utility.yul\":1865:1918   */\n      tag_215\n        /* \"#utility.yul\":1910:1917   */\n      dup6\n        /* \"#utility.yul\":1901:1907   */\n      dup3\n        /* \"#utility.yul\":1890:1899   */\n      dup7\n        /* \"#utility.yul\":1886:1908   */\n      add\n        /* \"#utility.yul\":1865:1918   */\n      tag_194\n      jump\t// in\n    tag_215:\n        /* \"#utility.yul\":1855:1918   */\n      swap2\n      pop\n        /* \"#utility.yul\":1810:1928   */\n      pop\n        /* \"#utility.yul\":1461:1935   */\n      swap3\n      pop\n      swap3\n      swap1\n      pop\n      jump\t// out\n        /* \"#utility.yul\":1941:2230   */\n    tag_216:\n        /* \"#utility.yul\":2064:2074   */\n      0x00\n        /* \"#utility.yul\":2085:2185   */\n      tag_218\n        /* \"#utility.yul\":2181:2184   */\n      dup4\n        /* \"#utility.yul\":2173:2179   */\n      dup4\n        /* \"#utility.yul\":2085:2185   */\n      tag_219\n      jump\t// in\n    tag_218:\n        /* \"#utility.yul\":2217:2223   */\n      0x0100\n        /* \"#utility.yul\":2212:2215   */\n      dup4\n        /* \"#utility.yul\":2208:2224   */\n      add\n        /* \"#utility.yul\":2194:2224   */\n      swap1\n      pop\n        /* \"#utility.yul\":1941:2230   */\n      swap3\n      swap2\n      pop\n      pop\n      jump\t// out\n        /* \"#utility.yul\":2236:2344   */\n    tag_220:\n        /* \"#utility.yul\":2313:2337   */\n      tag_222\n        /* \"#utility.yul\":2331:2336   */\n      dup2\n        /* \"#utility.yul\":2313:2337   */\n      tag_223\n      jump\t// in\n    tag_222:\n        /* \"#utility.yul\":2308:2311   */\n      dup3\n        /* \"#utility.yul\":2301:2338   */\n      mstore\n        /* \"#utility.yul\":2236:2344   */\n      pop\n      pop\n      jump\t// out\n        /* \"#utility.yul\":2350:2468   */\n    tag_224:\n        /* \"#utility.yul\":2437:2461   */\n      tag_226\n        /* \"#utility.yul\":2455:2460   */\n      dup2\n        /* \"#utility.yul\":2437:2461   */\n      tag_223\n      jump\t// in\n    tag_226:\n        /* \"#utility.yul\":2432:2435   */\n      dup3\n        /* \"#utility.yul\":2425:2462   */\n      mstore\n        /* \"#utility.yul\":2350:2468   */\n      pop\n      pop\n      jump\t// out\n        /* \"#utility.yul\":2556:3504   */\n    tag_227:\n        /* \"#utility.yul\":2729:2732   */\n      0x00\n        /* \"#utility.yul\":2758:2839   */\n      tag_229\n        /* \"#utility.yul\":2833:2838   */\n      dup3\n        /* \"#utility.yul\":2758:2839   */\n      tag_230\n      jump\t// in\n    tag_229:\n        /* \"#utility.yul\":2855:2968   */\n      tag_231\n        /* \"#utility.yul\":2961:2967   */\n      dup2\n        /* \"#utility.yul\":2956:2959   */\n      dup6\n        /* \"#utility.yul\":2855:2968   */\n      tag_232\n      jump\t// in\n    tag_231:\n        /* \"#utility.yul\":2848:2968   */\n      swap4\n      pop\n        /* \"#utility.yul\":2992:3075   */\n      tag_233\n        /* \"#utility.yul\":3069:3074   */\n      dup4\n        /* \"#utility.yul\":2992:3075   */\n      tag_234\n      jump\t// in\n    tag_233:\n        /* \"#utility.yul\":3098:3105   */\n      dup1\n        /* \"#utility.yul\":3129:3130   */\n      0x00\n        /* \"#utility.yul\":3114:3479   */\n    tag_235:\n        /* \"#utility.yul\":3139:3145   */\n      dup4\n        /* \"#utility.yul\":3136:3137   */\n      dup2\n        /* \"#utility.yul\":3133:3146   */\n      lt\n        /* \"#utility.yul\":3114:3479   */\n      iszero\n      tag_237\n      jumpi\n        /* \"#utility.yul\":3215:3221   */\n      dup2\n        /* \"#utility.yul\":3209:3222   */\n      mload\n        /* \"#utility.yul\":3242:3359   */\n      tag_238\n        /* \"#utility.yul\":3355:3358   */\n      dup9\n        /* \"#utility.yul\":3340:3353   */\n      dup3\n        /* \"#utility.yul\":3242:3359   */\n      tag_216\n      jump\t// in\n    tag_238:\n        /* \"#utility.yul\":3235:3359   */\n      swap8\n      pop\n        /* \"#utility.yul\":3382:3469   */\n      tag_239\n        /* \"#utility.yul\":3462:3468   */\n      dup4\n        /* \"#utility.yul\":3382:3469   */\n      tag_240\n      jump\t// in\n    tag_239:\n        /* \"#utility.yul\":3372:3469   */\n      swap3\n      pop\n        /* \"#utility.yul\":3174:3479   */\n      pop\n        /* \"#utility.yul\":3161:3162   */\n      0x01\n        /* \"#utility.yul\":3158:3159   */\n      dup2\n        /* \"#utility.yul\":3154:3163   */\n      add\n        /* \"#utility.yul\":3149:3163   */\n      swap1\n      pop\n        /* \"#utility.yul\":3114:3479   */\n      jump(tag_235)\n    tag_237:\n        /* \"#utility.yul\":3118:3132   */\n      pop\n        /* \"#utility.yul\":3495:3498   */\n      dup6\n        /* \"#utility.yul\":3488:3498   */\n      swap4\n      pop\n        /* \"#utility.yul\":2734:3504   */\n      pop\n      pop\n      pop\n        /* \"#utility.yul\":2556:3504   */\n      swap3\n      swap2\n      pop\n      pop\n      jump\t// out\n        /* \"#utility.yul\":3510:3609   */\n    tag_241:\n        /* \"#utility.yul\":3581:3602   */\n      tag_243\n        /* \"#utility.yul\":3596:3601   */\n      dup2\n        /* \"#utility.yul\":3581:3602   */\n      tag_244\n      jump\t// in\n    tag_243:\n        /* \"#utility.yul\":3576:3579   */\n      dup3\n        /* \"#utility.yul\":3569:3603   */\n      mstore\n        /* \"#utility.yul\":3510:3609   */\n      pop\n      pop\n      jump\t// out\n        /* \"#utility.yul\":3615:3724   */\n    tag_245:\n        /* \"#utility.yul\":3696:3717   */\n      tag_247\n        /* \"#utility.yul\":3711:3716   */\n      dup2\n        /* \"#utility.yul\":3696:3717   */\n      tag_244\n      jump\t// in\n    tag_247:\n        /* \"#utility.yul\":3691:3694   */\n      dup3\n        /* \"#utility.yul\":3684:3718   */\n      mstore\n        /* \"#utility.yul\":3615:3724   */\n      pop\n      pop\n      jump\t// out\n        /* \"#utility.yul\":3730:3845   */\n    tag_248:\n        /* \"#utility.yul\":3815:3838   */\n      tag_250\n        /* \"#utility.yul\":3832:3837   */\n      dup2\n        /* \"#utility.yul\":3815:3838   */\n      tag_251\n      jump\t// in\n    tag_250:\n        /* \"#utility.yul\":3810:3813   */\n      dup3\n        /* \"#utility.yul\":3803:3839   */\n      mstore\n        /* \"#utility.yul\":3730:3845   */\n      pop\n      pop\n      jump\t// out\n        /* \"#utility.yul\":3851:4217   */\n    tag_252:\n        /* \"#utility.yul\":3993:3996   */\n      0x00\n        /* \"#utility.yul\":4014:4081   */\n      tag_254\n        /* \"#utility.yul\":4078:4080   */\n      0x1b\n        /* \"#utility.yul\":4073:4076   */\n      dup4\n        /* \"#utility.yul\":4014:4081   */\n      tag_255\n      jump\t// in\n    tag_254:\n        /* \"#utility.yul\":4007:4081   */\n      swap2\n      pop\n        /* \"#utility.yul\":4090:4183   */\n      tag_256\n        /* \"#utility.yul\":4179:4182   */\n      dup3\n        /* \"#utility.yul\":4090:4183   */\n      tag_257\n      jump\t// in\n    tag_256:\n        /* \"#utility.yul\":4208:4210   */\n      0x20\n        /* \"#utility.yul\":4203:4206   */\n      dup3\n        /* \"#utility.yul\":4199:4211   */\n      add\n        /* \"#utility.yul\":4192:4211   */\n      swap1\n      pop\n        /* \"#utility.yul\":3851:4217   */\n      swap2\n      swap1\n      pop\n      jump\t// out\n        /* \"#utility.yul\":4223:4589   */\n    tag_258:\n        /* \"#utility.yul\":4365:4368   */\n      0x00\n        /* \"#utility.yul\":4386:4453   */\n      tag_260\n        /* \"#utility.yul\":4450:4452   */\n      0x2e\n        /* \"#utility.yul\":4445:4448   */\n      dup4\n        /* \"#utility.yul\":4386:4453   */\n      tag_255\n      jump\t// in\n    tag_260:\n        /* \"#utility.yul\":4379:4453   */\n      swap2\n      pop\n        /* \"#utility.yul\":4462:4555   */\n      tag_261\n        /* \"#utility.yul\":4551:4554   */\n      dup3\n        /* \"#utility.yul\":4462:4555   */\n      tag_262\n      jump\t// in\n    tag_261:\n        /* \"#utility.yul\":4580:4582   */\n      0x40\n        /* \"#utility.yul\":4575:4578   */\n      dup3\n        /* \"#utility.yul\":4571:4583   */\n      add\n        /* \"#utility.yul\":4564:4583   */\n      swap1\n      pop\n        /* \"#utility.yul\":4223:4589   */\n      swap2\n      swap1\n      pop\n      jump\t// out\n        /* \"#utility.yul\":4595:4961   */\n    tag_263:\n        /* \"#utility.yul\":4737:4740   */\n      0x00\n        /* \"#utility.yul\":4758:4825   */\n      tag_265\n        /* \"#utility.yul\":4822:4824   */\n      0x26\n        /* \"#utility.yul\":4817:4820   */\n      dup4\n        /* \"#utility.yul\":4758:4825   */\n      tag_255\n      jump\t// in\n    tag_265:\n        /* \"#utility.yul\":4751:4825   */\n      swap2\n      pop\n        /* \"#utility.yul\":4834:4927   */\n      tag_266\n        /* \"#utility.yul\":4923:4926   */\n      dup3\n        /* \"#utility.yul\":4834:4927   */\n      tag_267\n      jump\t// in\n    tag_266:\n        /* \"#utility.yul\":4952:4954   */\n      0x40\n        /* \"#utility.yul\":4947:4950   */\n      dup3\n        /* \"#utility.yul\":4943:4955   */\n      add\n        /* \"#utility.yul\":4936:4955   */\n      swap1\n      pop\n        /* \"#utility.yul\":4595:4961   */\n      swap2\n      swap1\n      pop\n      jump\t// out\n        /* \"#utility.yul\":4967:5333   */\n    tag_268:\n        /* \"#utility.yul\":5109:5112   */\n      0x00\n        /* \"#utility.yul\":5130:5197   */\n      tag_270\n        /* \"#utility.yul\":5194:5196   */\n      0x11\n        /* \"#utility.yul\":5189:5192   */\n      dup4\n        /* \"#utility.yul\":5130:5197   */\n      tag_255\n      jump\t// in\n    tag_270:\n        /* \"#utility.yul\":5123:5197   */\n      swap2\n      pop\n        /* \"#utility.yul\":5206:5299   */\n      tag_271\n        /* \"#utility.yul\":5295:5298   */\n      dup3\n        /* \"#utility.yul\":5206:5299   */\n      tag_272\n      jump\t// in\n    tag_271:\n        /* \"#utility.yul\":5324:5326   */\n      0x20\n        /* \"#utility.yul\":5319:5322   */\n      dup3\n        /* \"#utility.yul\":5315:5327   */\n      add\n        /* \"#utility.yul\":5308:5327   */\n      swap1\n      pop\n        /* \"#utility.yul\":4967:5333   */\n      swap2\n      swap1\n      pop\n      jump\t// out\n        /* \"#utility.yul\":5339:5705   */\n    tag_273:\n        /* \"#utility.yul\":5481:5484   */\n      0x00\n        /* \"#utility.yul\":5502:5569   */\n      tag_275\n        /* \"#utility.yul\":5566:5568   */\n      0x20\n        /* \"#utility.yul\":5561:5564   */\n      dup4\n        /* \"#utility.yul\":5502:5569   */\n      tag_255\n      jump\t// in\n    tag_275:\n        /* \"#utility.yul\":5495:5569   */\n      swap2\n      pop\n        /* \"#utility.yul\":5578:5671   */\n      tag_276\n        /* \"#utility.yul\":5667:5670   */\n      dup3\n        /* \"#utility.yul\":5578:5671   */\n      tag_277\n      jump\t// in\n    tag_276:\n        /* \"#utility.yul\":5696:5698   */\n      0x20\n        /* \"#utility.yul\":5691:5694   */\n      dup3\n        /* \"#utility.yul\":5687:5699   */\n      add\n        /* \"#utility.yul\":5680:5699   */\n      swap1\n      pop\n        /* \"#utility.yul\":5339:5705   */\n      swap2\n      swap1\n      pop\n      jump\t// out\n        /* \"#utility.yul\":5711:6077   */\n    tag_278:\n        /* \"#utility.yul\":5853:5856   */\n      0x00\n        /* \"#utility.yul\":5874:5941   */\n      tag_280\n        /* \"#utility.yul\":5938:5940   */\n      0x20\n        /* \"#utility.yul\":5933:5936   */\n      dup4\n        /* \"#utility.yul\":5874:5941   */\n      tag_255\n      jump\t// in\n    tag_280:\n        /* \"#utility.yul\":5867:5941   */\n      swap2\n      pop\n        /* \"#utility.yul\":5950:6043   */\n      tag_281\n        /* \"#utility.yul\":6039:6042   */\n      dup3\n        /* \"#utility.yul\":5950:6043   */\n      tag_282\n      jump\t// in\n    tag_281:\n        /* \"#utility.yul\":6068:6070   */\n      0x20\n        /* \"#utility.yul\":6063:6066   */\n      dup3\n        /* \"#utility.yul\":6059:6071   */\n      add\n        /* \"#utility.yul\":6052:6071   */\n      swap1\n      pop\n        /* \"#utility.yul\":5711:6077   */\n      swap2\n      swap1\n      pop\n      jump\t// out\n        /* \"#utility.yul\":6083:6449   */\n    tag_283:\n        /* \"#utility.yul\":6225:6228   */\n      0x00\n        /* \"#utility.yul\":6246:6313   */\n      tag_285\n        /* \"#utility.yul\":6310:6312   */\n      0x14\n        /* \"#utility.yul\":6305:6308   */\n      dup4\n        /* \"#utility.yul\":6246:6313   */\n      tag_255\n      jump\t// in\n    tag_285:\n        /* \"#utility.yul\":6239:6313   */\n      swap2\n      pop\n        /* \"#utility.yul\":6322:6415   */\n      tag_286\n        /* \"#utility.yul\":6411:6414   */\n      dup3\n        /* \"#utility.yul\":6322:6415   */\n      tag_287\n      jump\t// in\n    tag_286:\n        /* \"#utility.yul\":6440:6442   */\n      0x20\n        /* \"#utility.yul\":6435:6438   */\n      dup3\n        /* \"#utility.yul\":6431:6443   */\n      add\n        /* \"#utility.yul\":6424:6443   */\n      swap1\n      pop\n        /* \"#utility.yul\":6083:6449   */\n      swap2\n      swap1\n      pop\n      jump\t// out\n        /* \"#utility.yul\":6455:6821   */\n    tag_288:\n        /* \"#utility.yul\":6597:6600   */\n      0x00\n        /* \"#utility.yul\":6618:6685   */\n      tag_290\n        /* \"#utility.yul\":6682:6684   */\n      0x1f\n        /* \"#utility.yul\":6677:6680   */\n      dup4\n        /* \"#utility.yul\":6618:6685   */\n      tag_255\n      jump\t// in\n    tag_290:\n        /* \"#utility.yul\":6611:6685   */\n      swap2\n      pop\n        /* \"#utility.yul\":6694:6787   */\n      tag_291\n        /* \"#utility.yul\":6783:6786   */\n      dup3\n        /* \"#utility.yul\":6694:6787   */\n      tag_292\n      jump\t// in\n    tag_291:\n        /* \"#utility.yul\":6812:6814   */\n      0x20\n        /* \"#utility.yul\":6807:6810   */\n      dup3\n        /* \"#utility.yul\":6803:6815   */\n      add\n        /* \"#utility.yul\":6796:6815   */\n      swap1\n      pop\n        /* \"#utility.yul\":6455:6821   */\n      swap2\n      swap1\n      pop\n      jump\t// out\n        /* \"#utility.yul\":6827:7193   */\n    tag_293:\n        /* \"#utility.yul\":6969:6972   */\n      0x00\n        /* \"#utility.yul\":6990:7057   */\n      tag_295\n        /* \"#utility.yul\":7054:7056   */\n      0x1c\n        /* \"#utility.yul\":7049:7052   */\n      dup4\n        /* \"#utility.yul\":6990:7057   */\n      tag_255\n      jump\t// in\n    tag_295:\n        /* \"#utility.yul\":6983:7057   */\n      swap2\n      pop\n        /* \"#utility.yul\":7066:7159   */\n      tag_296\n        /* \"#utility.yul\":7155:7158   */\n      dup3\n        /* \"#utility.yul\":7066:7159   */\n      tag_297\n      jump\t// in\n    tag_296:\n        /* \"#utility.yul\":7184:7186   */\n      0x20\n        /* \"#utility.yul\":7179:7182   */\n      dup3\n        /* \"#utility.yul\":7175:7187   */\n      add\n        /* \"#utility.yul\":7168:7187   */\n      swap1\n      pop\n        /* \"#utility.yul\":6827:7193   */\n      swap2\n      swap1\n      pop\n      jump\t// out\n        /* \"#utility.yul\":7277:8826   */\n    tag_219:\n        /* \"#utility.yul\":7418:7424   */\n      0x0100\n        /* \"#utility.yul\":7413:7416   */\n      dup3\n        /* \"#utility.yul\":7409:7425   */\n      add\n        /* \"#utility.yul\":7509:7513   */\n      0x00\n        /* \"#utility.yul\":7502:7507   */\n      dup3\n        /* \"#utility.yul\":7498:7514   */\n      add\n        /* \"#utility.yul\":7492:7515   */\n      mload\n        /* \"#utility.yul\":7528:7591   */\n      tag_299\n        /* \"#utility.yul\":7585:7589   */\n      0x00\n        /* \"#utility.yul\":7580:7583   */\n      dup6\n        /* \"#utility.yul\":7576:7590   */\n      add\n        /* \"#utility.yul\":7562:7574   */\n      dup3\n        /* \"#utility.yul\":7528:7591   */\n      tag_300\n      jump\t// in\n    tag_299:\n        /* \"#utility.yul\":7435:7601   */\n      pop\n        /* \"#utility.yul\":7686:7690   */\n      0x20\n        /* \"#utility.yul\":7679:7684   */\n      dup3\n        /* \"#utility.yul\":7675:7691   */\n      add\n        /* \"#utility.yul\":7669:7692   */\n      mload\n        /* \"#utility.yul\":7705:7768   */\n      tag_301\n        /* \"#utility.yul\":7762:7766   */\n      0x20\n        /* \"#utility.yul\":7757:7760   */\n      dup6\n        /* \"#utility.yul\":7753:7767   */\n      add\n        /* \"#utility.yul\":7739:7751   */\n      dup3\n        /* \"#utility.yul\":7705:7768   */\n      tag_300\n      jump\t// in\n    tag_301:\n        /* \"#utility.yul\":7611:7778   */\n      pop\n        /* \"#utility.yul\":7862:7866   */\n      0x40\n        /* \"#utility.yul\":7855:7860   */\n      dup3\n        /* \"#utility.yul\":7851:7867   */\n      add\n        /* \"#utility.yul\":7845:7868   */\n      mload\n        /* \"#utility.yul\":7881:7944   */\n      tag_302\n        /* \"#utility.yul\":7938:7942   */\n      0x40\n        /* \"#utility.yul\":7933:7936   */\n      dup6\n        /* \"#utility.yul\":7929:7943   */\n      add\n        /* \"#utility.yul\":7915:7927   */\n      dup3\n        /* \"#utility.yul\":7881:7944   */\n      tag_220\n      jump\t// in\n    tag_302:\n        /* \"#utility.yul\":7788:7954   */\n      pop\n        /* \"#utility.yul\":8037:8041   */\n      0x60\n        /* \"#utility.yul\":8030:8035   */\n      dup3\n        /* \"#utility.yul\":8026:8042   */\n      add\n        /* \"#utility.yul\":8020:8043   */\n      mload\n        /* \"#utility.yul\":8056:8119   */\n      tag_303\n        /* \"#utility.yul\":8113:8117   */\n      0x60\n        /* \"#utility.yul\":8108:8111   */\n      dup6\n        /* \"#utility.yul\":8104:8118   */\n      add\n        /* \"#utility.yul\":8090:8102   */\n      dup3\n        /* \"#utility.yul\":8056:8119   */\n      tag_220\n      jump\t// in\n    tag_303:\n        /* \"#utility.yul\":7964:8129   */\n      pop\n        /* \"#utility.yul\":8212:8216   */\n      0x80\n        /* \"#utility.yul\":8205:8210   */\n      dup3\n        /* \"#utility.yul\":8201:8217   */\n      add\n        /* \"#utility.yul\":8195:8218   */\n      mload\n        /* \"#utility.yul\":8231:8294   */\n      tag_304\n        /* \"#utility.yul\":8288:8292   */\n      0x80\n        /* \"#utility.yul\":8283:8286   */\n      dup6\n        /* \"#utility.yul\":8279:8293   */\n      add\n        /* \"#utility.yul\":8265:8277   */\n      dup3\n        /* \"#utility.yul\":8231:8294   */\n      tag_300\n      jump\t// in\n    tag_304:\n        /* \"#utility.yul\":8139:8304   */\n      pop\n        /* \"#utility.yul\":8388:8392   */\n      0xa0\n        /* \"#utility.yul\":8381:8386   */\n      dup3\n        /* \"#utility.yul\":8377:8393   */\n      add\n        /* \"#utility.yul\":8371:8394   */\n      mload\n        /* \"#utility.yul\":8407:8464   */\n      tag_305\n        /* \"#utility.yul\":8458:8462   */\n      0xa0\n        /* \"#utility.yul\":8453:8456   */\n      dup6\n        /* \"#utility.yul\":8449:8463   */\n      add\n        /* \"#utility.yul\":8435:8447   */\n      dup3\n        /* \"#utility.yul\":8407:8464   */\n      tag_241\n      jump\t// in\n    tag_305:\n        /* \"#utility.yul\":8314:8474   */\n      pop\n        /* \"#utility.yul\":8563:8567   */\n      0xc0\n        /* \"#utility.yul\":8556:8561   */\n      dup3\n        /* \"#utility.yul\":8552:8568   */\n      add\n        /* \"#utility.yul\":8546:8569   */\n      mload\n        /* \"#utility.yul\":8582:8639   */\n      tag_306\n        /* \"#utility.yul\":8633:8637   */\n      0xc0\n        /* \"#utility.yul\":8628:8631   */\n      dup6\n        /* \"#utility.yul\":8624:8638   */\n      add\n        /* \"#utility.yul\":8610:8622   */\n      dup3\n        /* \"#utility.yul\":8582:8639   */\n      tag_241\n      jump\t// in\n    tag_306:\n        /* \"#utility.yul\":8484:8649   */\n      pop\n        /* \"#utility.yul\":8733:8737   */\n      0xe0\n        /* \"#utility.yul\":8726:8731   */\n      dup3\n        /* \"#utility.yul\":8722:8738   */\n      add\n        /* \"#utility.yul\":8716:8739   */\n      mload\n        /* \"#utility.yul\":8752:8809   */\n      tag_307\n        /* \"#utility.yul\":8803:8807   */\n      0xe0\n        /* \"#utility.yul\":8798:8801   */\n      dup6\n        /* \"#utility.yul\":8794:8808   */\n      add\n        /* \"#utility.yul\":8780:8792   */\n      dup3\n        /* \"#utility.yul\":8752:8809   */\n      tag_241\n      jump\t// in\n    tag_307:\n        /* \"#utility.yul\":8659:8819   */\n      pop\n        /* \"#utility.yul\":7387:8826   */\n      pop\n        /* \"#utility.yul\":7277:8826   */\n      pop\n      pop\n      jump\t// out\n        /* \"#utility.yul\":8910:10469   */\n    tag_308:\n        /* \"#utility.yul\":9061:9067   */\n      0x0100\n        /* \"#utility.yul\":9056:9059   */\n      dup3\n        /* \"#utility.yul\":9052:9068   */\n      add\n        /* \"#utility.yul\":9152:9156   */\n      0x00\n        /* \"#utility.yul\":9145:9150   */\n      dup3\n        /* \"#utility.yul\":9141:9157   */\n      add\n        /* \"#utility.yul\":9135:9158   */\n      mload\n        /* \"#utility.yul\":9171:9234   */\n      tag_310\n        /* \"#utility.yul\":9228:9232   */\n      0x00\n        /* \"#utility.yul\":9223:9226   */\n      dup6\n        /* \"#utility.yul\":9219:9233   */\n      add\n        /* \"#utility.yul\":9205:9217   */\n      dup3\n        /* \"#utility.yul\":9171:9234   */\n      tag_300\n      jump\t// in\n    tag_310:\n        /* \"#utility.yul\":9078:9244   */\n      pop\n        /* \"#utility.yul\":9329:9333   */\n      0x20\n        /* \"#utility.yul\":9322:9327   */\n      dup3\n        /* \"#utility.yul\":9318:9334   */\n      add\n        /* \"#utility.yul\":9312:9335   */\n      mload\n        /* \"#utility.yul\":9348:9411   */\n      tag_311\n        /* \"#utility.yul\":9405:9409   */\n      0x20\n        /* \"#utility.yul\":9400:9403   */\n      dup6\n        /* \"#utility.yul\":9396:9410   */\n      add\n        /* \"#utility.yul\":9382:9394   */\n      dup3\n        /* \"#utility.yul\":9348:9411   */\n      tag_300\n      jump\t// in\n    tag_311:\n        /* \"#utility.yul\":9254:9421   */\n      pop\n        /* \"#utility.yul\":9505:9509   */\n      0x40\n        /* \"#utility.yul\":9498:9503   */\n      dup3\n        /* \"#utility.yul\":9494:9510   */\n      add\n        /* \"#utility.yul\":9488:9511   */\n      mload\n        /* \"#utility.yul\":9524:9587   */\n      tag_312\n        /* \"#utility.yul\":9581:9585   */\n      0x40\n        /* \"#utility.yul\":9576:9579   */\n      dup6\n        /* \"#utility.yul\":9572:9586   */\n      add\n        /* \"#utility.yul\":9558:9570   */\n      dup3\n        /* \"#utility.yul\":9524:9587   */\n      tag_220\n      jump\t// in\n    tag_312:\n        /* \"#utility.yul\":9431:9597   */\n      pop\n        /* \"#utility.yul\":9680:9684   */\n      0x60\n        /* \"#utility.yul\":9673:9678   */\n      dup3\n        /* \"#utility.yul\":9669:9685   */\n      add\n        /* \"#utility.yul\":9663:9686   */\n      mload\n        /* \"#utility.yul\":9699:9762   */\n      tag_313\n        /* \"#utility.yul\":9756:9760   */\n      0x60\n        /* \"#utility.yul\":9751:9754   */\n      dup6\n        /* \"#utility.yul\":9747:9761   */\n      add\n        /* \"#utility.yul\":9733:9745   */\n      dup3\n        /* \"#utility.yul\":9699:9762   */\n      tag_220\n      jump\t// in\n    tag_313:\n        /* \"#utility.yul\":9607:9772   */\n      pop\n        /* \"#utility.yul\":9855:9859   */\n      0x80\n        /* \"#utility.yul\":9848:9853   */\n      dup3\n        /* \"#utility.yul\":9844:9860   */\n      add\n        /* \"#utility.yul\":9838:9861   */\n      mload\n        /* \"#utility.yul\":9874:9937   */\n      tag_314\n        /* \"#utility.yul\":9931:9935   */\n      0x80\n        /* \"#utility.yul\":9926:9929   */\n      dup6\n        /* \"#utility.yul\":9922:9936   */\n      add\n        /* \"#utility.yul\":9908:9920   */\n      dup3\n        /* \"#utility.yul\":9874:9937   */\n      tag_300\n      jump\t// in\n    tag_314:\n        /* \"#utility.yul\":9782:9947   */\n      pop\n        /* \"#utility.yul\":10031:10035   */\n      0xa0\n        /* \"#utility.yul\":10024:10029   */\n      dup3\n        /* \"#utility.yul\":10020:10036   */\n      add\n        /* \"#utility.yul\":10014:10037   */\n      mload\n        /* \"#utility.yul\":10050:10107   */\n      tag_315\n        /* \"#utility.yul\":10101:10105   */\n      0xa0\n        /* \"#utility.yul\":10096:10099   */\n      dup6\n        /* \"#utility.yul\":10092:10106   */\n      add\n        /* \"#utility.yul\":10078:10090   */\n      dup3\n        /* \"#utility.yul\":10050:10107   */\n      tag_241\n      jump\t// in\n    tag_315:\n        /* \"#utility.yul\":9957:10117   */\n      pop\n        /* \"#utility.yul\":10206:10210   */\n      0xc0\n        /* \"#utility.yul\":10199:10204   */\n      dup3\n        /* \"#utility.yul\":10195:10211   */\n      add\n        /* \"#utility.yul\":10189:10212   */\n      mload\n        /* \"#utility.yul\":10225:10282   */\n      tag_316\n        /* \"#utility.yul\":10276:10280   */\n      0xc0\n        /* \"#utility.yul\":10271:10274   */\n      dup6\n        /* \"#utility.yul\":10267:10281   */\n      add\n        /* \"#utility.yul\":10253:10265   */\n      dup3\n        /* \"#utility.yul\":10225:10282   */\n      tag_241\n      jump\t// in\n    tag_316:\n        /* \"#utility.yul\":10127:10292   */\n      pop\n        /* \"#utility.yul\":10376:10380   */\n      0xe0\n        /* \"#utility.yul\":10369:10374   */\n      dup3\n        /* \"#utility.yul\":10365:10381   */\n      add\n        /* \"#utility.yul\":10359:10382   */\n      mload\n        /* \"#utility.yul\":10395:10452   */\n      tag_317\n        /* \"#utility.yul\":10446:10450   */\n      0xe0\n        /* \"#utility.yul\":10441:10444   */\n      dup6\n        /* \"#utility.yul\":10437:10451   */\n      add\n        /* \"#utility.yul\":10423:10435   */\n      dup3\n        /* \"#utility.yul\":10395:10452   */\n      tag_241\n      jump\t// in\n    tag_317:\n        /* \"#utility.yul\":10302:10462   */\n      pop\n        /* \"#utility.yul\":9030:10469   */\n      pop\n        /* \"#utility.yul\":8910:10469   */\n      pop\n      pop\n      jump\t// out\n        /* \"#utility.yul\":10475:10583   */\n    tag_300:\n        /* \"#utility.yul\":10552:10576   */\n      tag_319\n        /* \"#utility.yul\":10570:10575   */\n      dup2\n        /* \"#utility.yul\":10552:10576   */\n      tag_320\n      jump\t// in\n    tag_319:\n        /* \"#utility.yul\":10547:10550   */\n      dup3\n        /* \"#utility.yul\":10540:10577   */\n      mstore\n        /* \"#utility.yul\":10475:10583   */\n      pop\n      pop\n      jump\t// out\n        /* \"#utility.yul\":10589:10707   */\n    tag_321:\n        /* \"#utility.yul\":10676:10700   */\n      tag_323\n        /* \"#utility.yul\":10694:10699   */\n      dup2\n        /* \"#utility.yul\":10676:10700   */\n      tag_320\n      jump\t// in\n    tag_323:\n        /* \"#utility.yul\":10671:10674   */\n      dup3\n        /* \"#utility.yul\":10664:10701   */\n      mstore\n        /* \"#utility.yul\":10589:10707   */\n      pop\n      pop\n      jump\t// out\n        /* \"#utility.yul\":10713:10935   */\n    tag_29:\n        /* \"#utility.yul\":10806:10810   */\n      0x00\n        /* \"#utility.yul\":10844:10846   */\n      0x20\n        /* \"#utility.yul\":10833:10842   */\n      dup3\n        /* \"#utility.yul\":10829:10847   */\n      add\n        /* \"#utility.yul\":10821:10847   */\n      swap1\n      pop\n        /* \"#utility.yul\":10857:10928   */\n      tag_325\n        /* \"#utility.yul\":10925:10926   */\n      0x00\n        /* \"#utility.yul\":10914:10923   */\n      dup4\n        /* \"#utility.yul\":10910:10927   */\n      add\n        /* \"#utility.yul\":10901:10907   */\n      dup5\n        /* \"#utility.yul\":10857:10928   */\n      tag_224\n      jump\t// in\n    tag_325:\n        /* \"#utility.yul\":10713:10935   */\n      swap3\n      swap2\n      pop\n      pop\n      jump\t// out\n        /* \"#utility.yul\":10941:11383   */\n    tag_102:\n        /* \"#utility.yul\":11090:11094   */\n      0x00\n        /* \"#utility.yul\":11128:11130   */\n      0x60\n        /* \"#utility.yul\":11117:11126   */\n      dup3\n        /* \"#utility.yul\":11113:11131   */\n      add\n        /* \"#utility.yul\":11105:11131   */\n      swap1\n      pop\n        /* \"#utility.yul\":11141:11212   */\n      tag_327\n        /* \"#utility.yul\":11209:11210   */\n      0x00\n        /* \"#utility.yul\":11198:11207   */\n      dup4\n        /* \"#utility.yul\":11194:11211   */\n      add\n        /* \"#utility.yul\":11185:11191   */\n      dup7\n        /* \"#utility.yul\":11141:11212   */\n      tag_224\n      jump\t// in\n    tag_327:\n        /* \"#utility.yul\":11222:11294   */\n      tag_328\n        /* \"#utility.yul\":11290:11292   */\n      0x20\n        /* \"#utility.yul\":11279:11288   */\n      dup4\n        /* \"#utility.yul\":11275:11293   */\n      add\n        /* \"#utility.yul\":11266:11272   */\n      dup6\n        /* \"#utility.yul\":11222:11294   */\n      tag_224\n      jump\t// in\n    tag_328:\n        /* \"#utility.yul\":11304:11376   */\n      tag_329\n        /* \"#utility.yul\":11372:11374   */\n      0x40\n        /* \"#utility.yul\":11361:11370   */\n      dup4\n        /* \"#utility.yul\":11357:11375   */\n      add\n        /* \"#utility.yul\":11348:11354   */\n      dup5\n        /* \"#utility.yul\":11304:11376   */\n      tag_321\n      jump\t// in\n    tag_329:\n        /* \"#utility.yul\":10941:11383   */\n      swap5\n      swap4\n      pop\n      pop\n      pop\n      pop\n      jump\t// out\n        /* \"#utility.yul\":11389:11870   */\n    tag_43:\n        /* \"#utility.yul\":11586:11590   */\n      0x00\n        /* \"#utility.yul\":11624:11626   */\n      0x20\n        /* \"#utility.yul\":11613:11622   */\n      dup3\n        /* \"#utility.yul\":11609:11627   */\n      add\n        /* \"#utility.yul\":11601:11627   */\n      swap1\n      pop\n        /* \"#utility.yul\":11673:11682   */\n      dup2\n        /* \"#utility.yul\":11667:11671   */\n      dup2\n        /* \"#utility.yul\":11663:11683   */\n      sub\n        /* \"#utility.yul\":11659:11660   */\n      0x00\n        /* \"#utility.yul\":11648:11657   */\n      dup4\n        /* \"#utility.yul\":11644:11661   */\n      add\n        /* \"#utility.yul\":11637:11684   */\n      mstore\n        /* \"#utility.yul\":11701:11863   */\n      tag_331\n        /* \"#utility.yul\":11858:11862   */\n      dup2\n        /* \"#utility.yul\":11849:11855   */\n      dup5\n        /* \"#utility.yul\":11701:11863   */\n      tag_227\n      jump\t// in\n    tag_331:\n        /* \"#utility.yul\":11693:11863   */\n      swap1\n      pop\n        /* \"#utility.yul\":11389:11870   */\n      swap3\n      swap2\n      pop\n      pop\n      jump\t// out\n        /* \"#utility.yul\":11876:12094   */\n    tag_50:\n        /* \"#utility.yul\":11967:11971   */\n      0x00\n        /* \"#utility.yul\":12005:12007   */\n      0x20\n        /* \"#utility.yul\":11994:12003   */\n      dup3\n        /* \"#utility.yul\":11990:12008   */\n      add\n        /* \"#utility.yul\":11982:12008   */\n      swap1\n      pop\n        /* \"#utility.yul\":12018:12087   */\n      tag_333\n        /* \"#utility.yul\":12084:12085   */\n      0x00\n        /* \"#utility.yul\":12073:12082   */\n      dup4\n        /* \"#utility.yul\":12069:12086   */\n      add\n        /* \"#utility.yul\":12060:12066   */\n      dup5\n        /* \"#utility.yul\":12018:12087   */\n      tag_248\n      jump\t// in\n    tag_333:\n        /* \"#utility.yul\":11876:12094   */\n      swap3\n      swap2\n      pop\n      pop\n      jump\t// out\n        /* \"#utility.yul\":12100:12519   */\n    tag_121:\n        /* \"#utility.yul\":12266:12270   */\n      0x00\n        /* \"#utility.yul\":12304:12306   */\n      0x20\n        /* \"#utility.yul\":12293:12302   */\n      dup3\n        /* \"#utility.yul\":12289:12307   */\n      add\n        /* \"#utility.yul\":12281:12307   */\n      swap1\n      pop\n        /* \"#utility.yul\":12353:12362   */\n      dup2\n        /* \"#utility.yul\":12347:12351   */\n      dup2\n        /* \"#utility.yul\":12343:12363   */\n      sub\n        /* \"#utility.yul\":12339:12340   */\n      0x00\n        /* \"#utility.yul\":12328:12337   */\n      dup4\n        /* \"#utility.yul\":12324:12341   */\n      add\n        /* \"#utility.yul\":12317:12364   */\n      mstore\n        /* \"#utility.yul\":12381:12512   */\n      tag_335\n        /* \"#utility.yul\":12507:12511   */\n      dup2\n        /* \"#utility.yul\":12381:12512   */\n      tag_252\n      jump\t// in\n    tag_335:\n        /* \"#utility.yul\":12373:12512   */\n      swap1\n      pop\n        /* \"#utility.yul\":12100:12519   */\n      swap2\n      swap1\n      pop\n      jump\t// out\n        /* \"#utility.yul\":12525:12944   */\n    tag_96:\n        /* \"#utility.yul\":12691:12695   */\n      0x00\n        /* \"#utility.yul\":12729:12731   */\n      0x20\n        /* \"#utility.yul\":12718:12727   */\n      dup3\n        /* \"#utility.yul\":12714:12732   */\n      add\n        /* \"#utility.yul\":12706:12732   */\n      swap1\n      pop\n        /* \"#utility.yul\":12778:12787   */\n      dup2\n        /* \"#utility.yul\":12772:12776   */\n      dup2\n        /* \"#utility.yul\":12768:12788   */\n      sub\n        /* \"#utility.yul\":12764:12765   */\n      0x00\n        /* \"#utility.yul\":12753:12762   */\n      dup4\n        /* \"#utility.yul\":12749:12766   */\n      add\n        /* \"#utility.yul\":12742:12789   */\n      mstore\n        /* \"#utility.yul\":12806:12937   */\n      tag_337\n        /* \"#utility.yul\":12932:12936   */\n      dup2\n        /* \"#utility.yul\":12806:12937   */\n      tag_258\n      jump\t// in\n    tag_337:\n        /* \"#utility.yul\":12798:12937   */\n      swap1\n      pop\n        /* \"#utility.yul\":12525:12944   */\n      swap2\n      swap1\n      pop\n      jump\t// out\n        /* \"#utility.yul\":12950:13369   */\n    tag_179:\n        /* \"#utility.yul\":13116:13120   */\n      0x00\n        /* \"#utility.yul\":13154:13156   */\n      0x20\n        /* \"#utility.yul\":13143:13152   */\n      dup3\n        /* \"#utility.yul\":13139:13157   */\n      add\n        /* \"#utility.yul\":13131:13157   */\n      swap1\n      pop\n        /* \"#utility.yul\":13203:13212   */\n      dup2\n        /* \"#utility.yul\":13197:13201   */\n      dup2\n        /* \"#utility.yul\":13193:13213   */\n      sub\n        /* \"#utility.yul\":13189:13190   */\n      0x00\n        /* \"#utility.yul\":13178:13187   */\n      dup4\n        /* \"#utility.yul\":13174:13191   */\n      add\n        /* \"#utility.yul\":13167:13214   */\n      mstore\n        /* \"#utility.yul\":13231:13362   */\n      tag_339\n        /* \"#utility.yul\":13357:13361   */\n      dup2\n        /* \"#utility.yul\":13231:13362   */\n      tag_263\n      jump\t// in\n    tag_339:\n        /* \"#utility.yul\":13223:13362   */\n      swap1\n      pop\n        /* \"#utility.yul\":12950:13369   */\n      swap2\n      swap1\n      pop\n      jump\t// out\n        /* \"#utility.yul\":13375:13794   */\n    tag_124:\n        /* \"#utility.yul\":13541:13545   */\n      0x00\n        /* \"#utility.yul\":13579:13581   */\n      0x20\n        /* \"#utility.yul\":13568:13577   */\n      dup3\n        /* \"#utility.yul\":13564:13582   */\n      add\n        /* \"#utility.yul\":13556:13582   */\n      swap1\n      pop\n        /* \"#utility.yul\":13628:13637   */\n      dup2\n        /* \"#utility.yul\":13622:13626   */\n      dup2\n        /* \"#utility.yul\":13618:13638   */\n      sub\n        /* \"#utility.yul\":13614:13615   */\n      0x00\n        /* \"#utility.yul\":13603:13612   */\n      dup4\n        /* \"#utility.yul\":13599:13616   */\n      add\n        /* \"#utility.yul\":13592:13639   */\n      mstore\n        /* \"#utility.yul\":13656:13787   */\n      tag_341\n        /* \"#utility.yul\":13782:13786   */\n      dup2\n        /* \"#utility.yul\":13656:13787   */\n      tag_268\n      jump\t// in\n    tag_341:\n        /* \"#utility.yul\":13648:13787   */\n      swap1\n      pop\n        /* \"#utility.yul\":13375:13794   */\n      swap2\n      swap1\n      pop\n      jump\t// out\n        /* \"#utility.yul\":13800:14219   */\n    tag_165:\n        /* \"#utility.yul\":13966:13970   */\n      0x00\n        /* \"#utility.yul\":14004:14006   */\n      0x20\n        /* \"#utility.yul\":13993:14002   */\n      dup3\n        /* \"#utility.yul\":13989:14007   */\n      add\n        /* \"#utility.yul\":13981:14007   */\n      swap1\n      pop\n        /* \"#utility.yul\":14053:14062   */\n      dup2\n        /* \"#utility.yul\":14047:14051   */\n      dup2\n        /* \"#utility.yul\":14043:14063   */\n      sub\n        /* \"#utility.yul\":14039:14040   */\n      0x00\n        /* \"#utility.yul\":14028:14037   */\n      dup4\n        /* \"#utility.yul\":14024:14041   */\n      add\n        /* \"#utility.yul\":14017:14064   */\n      mstore\n        /* \"#utility.yul\":14081:14212   */\n      tag_343\n        /* \"#utility.yul\":14207:14211   */\n      dup2\n        /* \"#utility.yul\":14081:14212   */\n      tag_273\n      jump\t// in\n    tag_343:\n        /* \"#utility.yul\":14073:14212   */\n      swap1\n      pop\n        /* \"#utility.yul\":13800:14219   */\n      swap2\n      swap1\n      pop\n      jump\t// out\n        /* \"#utility.yul\":14225:14644   */\n    tag_76:\n        /* \"#utility.yul\":14391:14395   */\n      0x00\n        /* \"#utility.yul\":14429:14431   */\n      0x20\n        /* \"#utility.yul\":14418:14427   */\n      dup3\n        /* \"#utility.yul\":14414:14432   */\n      add\n        /* \"#utility.yul\":14406:14432   */\n      swap1\n      pop\n        /* \"#utility.yul\":14478:14487   */\n      dup2\n        /* \"#utility.yul\":14472:14476   */\n      dup2\n        /* \"#utility.yul\":14468:14488   */\n      sub\n        /* \"#utility.yul\":14464:14465   */\n      0x00\n        /* \"#utility.yul\":14453:14462   */\n      dup4\n        /* \"#utility.yul\":14449:14466   */\n      add\n        /* \"#utility.yul\":14442:14489   */\n      mstore\n        /* \"#utility.yul\":14506:14637   */\n      tag_345\n        /* \"#utility.yul\":14632:14636   */\n      dup2\n        /* \"#utility.yul\":14506:14637   */\n      tag_278\n      jump\t// in\n    tag_345:\n        /* \"#utility.yul\":14498:14637   */\n      swap1\n      pop\n        /* \"#utility.yul\":14225:14644   */\n      swap2\n      swap1\n      pop\n      jump\t// out\n        /* \"#utility.yul\":14650:15069   */\n    tag_168:\n        /* \"#utility.yul\":14816:14820   */\n      0x00\n        /* \"#utility.yul\":14854:14856   */\n      0x20\n        /* \"#utility.yul\":14843:14852   */\n      dup3\n        /* \"#utility.yul\":14839:14857   */\n      add\n        /* \"#utility.yul\":14831:14857   */\n      swap1\n      pop\n        /* \"#utility.yul\":14903:14912   */\n      dup2\n        /* \"#utility.yul\":14897:14901   */\n      dup2\n        /* \"#utility.yul\":14893:14913   */\n      sub\n        /* \"#utility.yul\":14889:14890   */\n      0x00\n        /* \"#utility.yul\":14878:14887   */\n      dup4\n        /* \"#utility.yul\":14874:14891   */\n      add\n        /* \"#utility.yul\":14867:14914   */\n      mstore\n        /* \"#utility.yul\":14931:15062   */\n      tag_347\n        /* \"#utility.yul\":15057:15061   */\n      dup2\n        /* \"#utility.yul\":14931:15062   */\n      tag_283\n      jump\t// in\n    tag_347:\n        /* \"#utility.yul\":14923:15062   */\n      swap1\n      pop\n        /* \"#utility.yul\":14650:15069   */\n      swap2\n      swap1\n      pop\n      jump\t// out\n        /* \"#utility.yul\":15075:15494   */\n    tag_84:\n        /* \"#utility.yul\":15241:15245   */\n      0x00\n        /* \"#utility.yul\":15279:15281   */\n      0x20\n        /* \"#utility.yul\":15268:15277   */\n      dup3\n        /* \"#utility.yul\":15264:15282   */\n      add\n        /* \"#utility.yul\":15256:15282   */\n      swap1\n      pop\n        /* \"#utility.yul\":15328:15337   */\n      dup2\n        /* \"#utility.yul\":15322:15326   */\n      dup2\n        /* \"#utility.yul\":15318:15338   */\n      sub\n        /* \"#utility.yul\":15314:15315   */\n      0x00\n        /* \"#utility.yul\":15303:15312   */\n      dup4\n        /* \"#utility.yul\":15299:15316   */\n      add\n        /* \"#utility.yul\":15292:15339   */\n      mstore\n        /* \"#utility.yul\":15356:15487   */\n      tag_349\n        /* \"#utility.yul\":15482:15486   */\n      dup2\n        /* \"#utility.yul\":15356:15487   */\n      tag_288\n      jump\t// in\n    tag_349:\n        /* \"#utility.yul\":15348:15487   */\n      swap1\n      pop\n        /* \"#utility.yul\":15075:15494   */\n      swap2\n      swap1\n      pop\n      jump\t// out\n        /* \"#utility.yul\":15500:15919   */\n    tag_93:\n        /* \"#utility.yul\":15666:15670   */\n      0x00\n        /* \"#utility.yul\":15704:15706   */\n      0x20\n        /* \"#utility.yul\":15693:15702   */\n      dup3\n        /* \"#utility.yul\":15689:15707   */\n      add\n        /* \"#utility.yul\":15681:15707   */\n      swap1\n      pop\n        /* \"#utility.yul\":15753:15762   */\n      dup2\n        /* \"#utility.yul\":15747:15751   */\n      dup2\n        /* \"#utility.yul\":15743:15763   */\n      sub\n        /* \"#utility.yul\":15739:15740   */\n      0x00\n        /* \"#utility.yul\":15728:15737   */\n      dup4\n        /* \"#utility.yul\":15724:15741   */\n      add\n        /* \"#utility.yul\":15717:15764   */\n      mstore\n        /* \"#utility.yul\":15781:15912   */\n      tag_351\n        /* \"#utility.yul\":15907:15911   */\n      dup2\n        /* \"#utility.yul\":15781:15912   */\n      tag_293\n      jump\t// in\n    tag_351:\n        /* \"#utility.yul\":15773:15912   */\n      swap1\n      pop\n        /* \"#utility.yul\":15500:15919   */\n      swap2\n      swap1\n      pop\n      jump\t// out\n        /* \"#utility.yul\":15925:16256   */\n    tag_23:\n        /* \"#utility.yul\":16072:16076   */\n      0x00\n        /* \"#utility.yul\":16110:16113   */\n      0x0100\n        /* \"#utility.yul\":16099:16108   */\n      dup3\n        /* \"#utility.yul\":16095:16114   */\n      add\n        /* \"#utility.yul\":16087:16114   */\n      swap1\n      pop\n        /* \"#utility.yul\":16124:16249   */\n      tag_353\n        /* \"#utility.yul\":16246:16247   */\n      0x00\n        /* \"#utility.yul\":16235:16244   */\n      dup4\n        /* \"#utility.yul\":16231:16248   */\n      add\n        /* \"#utility.yul\":16222:16228   */\n      dup5\n        /* \"#utility.yul\":16124:16249   */\n      tag_308\n      jump\t// in\n    tag_353:\n        /* \"#utility.yul\":15925:16256   */\n      swap3\n      swap2\n      pop\n      pop\n      jump\t// out\n        /* \"#utility.yul\":16262:16484   */\n    tag_54:\n        /* \"#utility.yul\":16355:16359   */\n      0x00\n        /* \"#utility.yul\":16393:16395   */\n      0x20\n        /* \"#utility.yul\":16382:16391   */\n      dup3\n        /* \"#utility.yul\":16378:16396   */\n      add\n        /* \"#utility.yul\":16370:16396   */\n      swap1\n      pop\n        /* \"#utility.yul\":16406:16477   */\n      tag_355\n        /* \"#utility.yul\":16474:16475   */\n      0x00\n        /* \"#utility.yul\":16463:16472   */\n      dup4\n        /* \"#utility.yul\":16459:16476   */\n      add\n        /* \"#utility.yul\":16450:16456   */\n      dup5\n        /* \"#utility.yul\":16406:16477   */\n      tag_321\n      jump\t// in\n    tag_355:\n        /* \"#utility.yul\":16262:16484   */\n      swap3\n      swap2\n      pop\n      pop\n      jump\t// out\n        /* \"#utility.yul\":16490:17451   */\n    tag_62:\n        /* \"#utility.yul\":16761:16765   */\n      0x00\n        /* \"#utility.yul\":16799:16802   */\n      0x0100\n        /* \"#utility.yul\":16788:16797   */\n      dup3\n        /* \"#utility.yul\":16784:16803   */\n      add\n        /* \"#utility.yul\":16776:16803   */\n      swap1\n      pop\n        /* \"#utility.yul\":16813:16884   */\n      tag_357\n        /* \"#utility.yul\":16881:16882   */\n      0x00\n        /* \"#utility.yul\":16870:16879   */\n      dup4\n        /* \"#utility.yul\":16866:16883   */\n      add\n        /* \"#utility.yul\":16857:16863   */\n      dup12\n        /* \"#utility.yul\":16813:16884   */\n      tag_321\n      jump\t// in\n    tag_357:\n        /* \"#utility.yul\":16894:16966   */\n      tag_358\n        /* \"#utility.yul\":16962:16964   */\n      0x20\n        /* \"#utility.yul\":16951:16960   */\n      dup4\n        /* \"#utility.yul\":16947:16965   */\n      add\n        /* \"#utility.yul\":16938:16944   */\n      dup11\n        /* \"#utility.yul\":16894:16966   */\n      tag_321\n      jump\t// in\n    tag_358:\n        /* \"#utility.yul\":16976:17048   */\n      tag_359\n        /* \"#utility.yul\":17044:17046   */\n      0x40\n        /* \"#utility.yul\":17033:17042   */\n      dup4\n        /* \"#utility.yul\":17029:17047   */\n      add\n        /* \"#utility.yul\":17020:17026   */\n      dup10\n        /* \"#utility.yul\":16976:17048   */\n      tag_224\n      jump\t// in\n    tag_359:\n        /* \"#utility.yul\":17058:17130   */\n      tag_360\n        /* \"#utility.yul\":17126:17128   */\n      0x60\n        /* \"#utility.yul\":17115:17124   */\n      dup4\n        /* \"#utility.yul\":17111:17129   */\n      add\n        /* \"#utility.yul\":17102:17108   */\n      dup9\n        /* \"#utility.yul\":17058:17130   */\n      tag_224\n      jump\t// in\n    tag_360:\n        /* \"#utility.yul\":17140:17213   */\n      tag_361\n        /* \"#utility.yul\":17208:17211   */\n      0x80\n        /* \"#utility.yul\":17197:17206   */\n      dup4\n        /* \"#utility.yul\":17193:17212   */\n      add\n        /* \"#utility.yul\":17184:17190   */\n      dup8\n        /* \"#utility.yul\":17140:17213   */\n      tag_321\n      jump\t// in\n    tag_361:\n        /* \"#utility.yul\":17223:17290   */\n      tag_362\n        /* \"#utility.yul\":17285:17288   */\n      0xa0\n        /* \"#utility.yul\":17274:17283   */\n      dup4\n        /* \"#utility.yul\":17270:17289   */\n      add\n        /* \"#utility.yul\":17261:17267   */\n      dup7\n        /* \"#utility.yul\":17223:17290   */\n      tag_245\n      jump\t// in\n    tag_362:\n        /* \"#utility.yul\":17300:17367   */\n      tag_363\n        /* \"#utility.yul\":17362:17365   */\n      0xc0\n        /* \"#utility.yul\":17351:17360   */\n      dup4\n        /* \"#utility.yul\":17347:17366   */\n      add\n        /* \"#utility.yul\":17338:17344   */\n      dup6\n        /* \"#utility.yul\":17300:17367   */\n      tag_245\n      jump\t// in\n    tag_363:\n        /* \"#utility.yul\":17377:17444   */\n      tag_364\n        /* \"#utility.yul\":17439:17442   */\n      0xe0\n        /* \"#utility.yul\":17428:17437   */\n      dup4\n        /* \"#utility.yul\":17424:17443   */\n      add\n        /* \"#utility.yul\":17415:17421   */\n      dup5\n        /* \"#utility.yul\":17377:17444   */\n      tag_245\n      jump\t// in\n    tag_364:\n        /* \"#utility.yul\":16490:17451   */\n      swap10\n      swap9\n      pop\n      pop\n      pop\n      pop\n      pop\n      pop\n      pop\n      pop\n      pop\n      jump\t// out\n        /* \"#utility.yul\":17538:17697   */\n    tag_234:\n        /* \"#utility.yul\":17632:17636   */\n      0x00\n        /* \"#utility.yul\":17655:17658   */\n      dup2\n        /* \"#utility.yul\":17647:17658   */\n      swap1\n      pop\n        /* \"#utility.yul\":17685:17689   */\n      0x20\n        /* \"#utility.yul\":17680:17683   */\n      dup3\n        /* \"#utility.yul\":17676:17690   */\n      add\n        /* \"#utility.yul\":17668:17690   */\n      swap1\n      pop\n        /* \"#utility.yul\":17538:17697   */\n      swap2\n      swap1\n      pop\n      jump\t// out\n        /* \"#utility.yul\":17703:17844   */\n    tag_230:\n        /* \"#utility.yul\":17797:17803   */\n      0x00\n        /* \"#utility.yul\":17831:17836   */\n      dup2\n        /* \"#utility.yul\":17825:17837   */\n      mload\n        /* \"#utility.yul\":17815:17837   */\n      swap1\n      pop\n        /* \"#utility.yul\":17703:17844   */\n      swap2\n      swap1\n      pop\n      jump\t// out\n        /* \"#utility.yul\":17850:17990   */\n    tag_240:\n        /* \"#utility.yul\":17947:17951   */\n      0x00\n        /* \"#utility.yul\":17979:17983   */\n      0x20\n        /* \"#utility.yul\":17974:17977   */\n      dup3\n        /* \"#utility.yul\":17970:17984   */\n      add\n        /* \"#utility.yul\":17962:17984   */\n      swap1\n      pop\n        /* \"#utility.yul\":17850:17990   */\n      swap2\n      swap1\n      pop\n      jump\t// out\n        /* \"#utility.yul\":17996:18207   */\n    tag_232:\n        /* \"#utility.yul\":18122:18133   */\n      0x00\n        /* \"#utility.yul\":18156:18162   */\n      dup3\n        /* \"#utility.yul\":18151:18154   */\n      dup3\n        /* \"#utility.yul\":18144:18163   */\n      mstore\n        /* \"#utility.yul\":18196:18200   */\n      0x20\n        /* \"#utility.yul\":18191:18194   */\n      dup3\n        /* \"#utility.yul\":18187:18201   */\n      add\n        /* \"#utility.yul\":18172:18201   */\n      swap1\n      pop\n        /* \"#utility.yul\":17996:18207   */\n      swap3\n      swap2\n      pop\n      pop\n      jump\t// out\n        /* \"#utility.yul\":18213:18382   */\n    tag_255:\n        /* \"#utility.yul\":18297:18308   */\n      0x00\n        /* \"#utility.yul\":18331:18337   */\n      dup3\n        /* \"#utility.yul\":18326:18329   */\n      dup3\n        /* \"#utility.yul\":18319:18338   */\n      mstore\n        /* \"#utility.yul\":18371:18375   */\n      0x20\n        /* \"#utility.yul\":18366:18369   */\n      dup3\n        /* \"#utility.yul\":18362:18376   */\n      add\n        /* \"#utility.yul\":18347:18376   */\n      swap1\n      pop\n        /* \"#utility.yul\":18213:18382   */\n      swap3\n      swap2\n      pop\n      pop\n      jump\t// out\n        /* \"#utility.yul\":18388:18693   */\n    tag_113:\n        /* \"#utility.yul\":18428:18431   */\n      0x00\n        /* \"#utility.yul\":18447:18467   */\n      tag_373\n        /* \"#utility.yul\":18465:18466   */\n      dup3\n        /* \"#utility.yul\":18447:18467   */\n      tag_320\n      jump\t// in\n    tag_373:\n        /* \"#utility.yul\":18442:18467   */\n      swap2\n      pop\n        /* \"#utility.yul\":18481:18501   */\n      tag_374\n        /* \"#utility.yul\":18499:18500   */\n      dup4\n        /* \"#utility.yul\":18481:18501   */\n      tag_320\n      jump\t// in\n    tag_374:\n        /* \"#utility.yul\":18476:18501   */\n      swap3\n      pop\n        /* \"#utility.yul\":18635:18636   */\n      dup3\n        /* \"#utility.yul\":18567:18633   */\n      0xffffffffffffffffffffffffffffffffffffffffffffffffffffffffffffffff\n        /* \"#utility.yul\":18563:18637   */\n      sub\n        /* \"#utility.yul\":18560:18561   */\n      dup3\n        /* \"#utility.yul\":18557:18638   */\n      gt\n        /* \"#utility.yul\":18554:18661   */\n      iszero\n      tag_375\n      jumpi\n        /* \"#utility.yul\":18641:18659   */\n      tag_376\n      tag_377\n      jump\t// in\n    tag_376:\n        /* \"#utility.yul\":18554:18661   */\n    tag_375:\n        /* \"#utility.yul\":18685:18686   */\n      dup3\n        /* \"#utility.yul\":18682:18683   */\n      dup3\n        /* \"#utility.yul\":18678:18687   */\n      add\n        /* \"#utility.yul\":18671:18687   */\n      swap1\n      pop\n        /* \"#utility.yul\":18388:18693   */\n      swap3\n      swap2\n      pop\n      pop\n      jump\t// out\n        /* \"#utility.yul\":18699:18890   */\n    tag_140:\n        /* \"#utility.yul\":18739:18743   */\n      0x00\n        /* \"#utility.yul\":18759:18779   */\n      tag_379\n        /* \"#utility.yul\":18777:18778   */\n      dup3\n        /* \"#utility.yul\":18759:18779   */\n      tag_320\n      jump\t// in\n    tag_379:\n        /* \"#utility.yul\":18754:18779   */\n      swap2\n      pop\n        /* \"#utility.yul\":18793:18813   */\n      tag_380\n        /* \"#utility.yul\":18811:18812   */\n      dup4\n        /* \"#utility.yul\":18793:18813   */\n      tag_320\n      jump\t// in\n    tag_380:\n        /* \"#utility.yul\":18788:18813   */\n      swap3\n      pop\n        /* \"#utility.yul\":18832:18833   */\n      dup3\n        /* \"#utility.yul\":18829:18830   */\n      dup3\n        /* \"#utility.yul\":18826:18834   */\n      lt\n        /* \"#utility.yul\":18823:18857   */\n      iszero\n      tag_381\n      jumpi\n        /* \"#utility.yul\":18837:18855   */\n      tag_382\n      tag_377\n      jump\t// in\n    tag_382:\n        /* \"#utility.yul\":18823:18857   */\n    tag_381:\n        /* \"#utility.yul\":18882:18883   */\n      dup3\n        /* \"#utility.yul\":18879:18880   */\n      dup3\n        /* \"#utility.yul\":18875:18884   */\n      sub\n        /* \"#utility.yul\":18867:18884   */\n      swap1\n      pop\n        /* \"#utility.yul\":18699:18890   */\n      swap3\n      swap2\n      pop\n      pop\n      jump\t// out\n        /* \"#utility.yul\":18896:18992   */\n    tag_223:\n        /* \"#utility.yul\":18933:18940   */\n      0x00\n        /* \"#utility.yul\":18962:18986   */\n      tag_384\n        /* \"#utility.yul\":18980:18985   */\n      dup3\n        /* \"#utility.yul\":18962:18986   */\n      tag_385\n      jump\t// in\n    tag_384:\n        /* \"#utility.yul\":18951:18986   */\n      swap1\n      pop\n        /* \"#utility.yul\":18896:18992   */\n      swap2\n      swap1\n      pop\n      jump\t// out\n        /* \"#utility.yul\":18998:19088   */\n    tag_244:\n        /* \"#utility.yul\":19032:19039   */\n      0x00\n        /* \"#utility.yul\":19075:19080   */\n      dup2\n        /* \"#utility.yul\":19068:19081   */\n      iszero\n        /* \"#utility.yul\":19061:19082   */\n      iszero\n        /* \"#utility.yul\":19050:19082   */\n      swap1\n      pop\n        /* \"#utility.yul\":18998:19088   */\n      swap2\n      swap1\n      pop\n      jump\t// out\n        /* \"#utility.yul\":19094:19243   */\n    tag_251:\n        /* \"#utility.yul\":19130:19137   */\n      0x00\n        /* \"#utility.yul\":19170:19236   */\n      0xffffffff00000000000000000000000000000000000000000000000000000000\n        /* \"#utility.yul\":19163:19168   */\n      dup3\n        /* \"#utility.yul\":19159:19237   */\n      and\n        /* \"#utility.yul\":19148:19237   */\n      swap1\n      pop\n        /* \"#utility.yul\":19094:19243   */\n      swap2\n      swap1\n      pop\n      jump\t// out\n        /* \"#utility.yul\":19249:19375   */\n    tag_385:\n        /* \"#utility.yul\":19286:19293   */\n      0x00\n        /* \"#utility.yul\":19326:19368   */\n      0xffffffffffffffffffffffffffffffffffffffff\n        /* \"#utility.yul\":19319:19324   */\n      dup3\n        /* \"#utility.yul\":19315:19369   */\n      and\n        /* \"#utility.yul\":19304:19369   */\n      swap1\n      pop\n        /* \"#utility.yul\":19249:19375   */\n      swap2\n      swap1\n      pop\n      jump\t// out\n        /* \"#utility.yul\":19381:19458   */\n    tag_320:\n        /* \"#utility.yul\":19418:19425   */\n      0x00\n        /* \"#utility.yul\":19447:19452   */\n      dup2\n        /* \"#utility.yul\":19436:19452   */\n      swap1\n      pop\n        /* \"#utility.yul\":19381:19458   */\n      swap2\n      swap1\n      pop\n      jump\t// out\n        /* \"#utility.yul\":19464:19697   */\n    tag_158:\n        /* \"#utility.yul\":19503:19506   */\n      0x00\n        /* \"#utility.yul\":19526:19550   */\n      tag_391\n        /* \"#utility.yul\":19544:19549   */\n      dup3\n        /* \"#utility.yul\":19526:19550   */\n      tag_320\n      jump\t// in\n    tag_391:\n        /* \"#utility.yul\":19517:19550   */\n      swap2\n      pop\n        /* \"#utility.yul\":19572:19638   */\n      0xffffffffffffffffffffffffffffffffffffffffffffffffffffffffffffffff\n        /* \"#utility.yul\":19565:19570   */\n      dup3\n        /* \"#utility.yul\":19562:19639   */\n      eq\n        /* \"#utility.yul\":19559:19662   */\n      iszero\n      tag_392\n      jumpi\n        /* \"#utility.yul\":19642:19660   */\n      tag_393\n      tag_377\n      jump\t// in\n    tag_393:\n        /* \"#utility.yul\":19559:19662   */\n    tag_392:\n        /* \"#utility.yul\":19689:19690   */\n      0x01\n        /* \"#utility.yul\":19682:19687   */\n      dup3\n        /* \"#utility.yul\":19678:19691   */\n      add\n        /* \"#utility.yul\":19671:19691   */\n      swap1\n      pop\n        /* \"#utility.yul\":19464:19697   */\n      swap2\n      swap1\n      pop\n      jump\t// out\n        /* \"#utility.yul\":19703:19883   */\n    tag_377:\n        /* \"#utility.yul\":19751:19828   */\n      0x4e487b7100000000000000000000000000000000000000000000000000000000\n        /* \"#utility.yul\":19748:19749   */\n      0x00\n        /* \"#utility.yul\":19741:19829   */\n      mstore\n        /* \"#utility.yul\":19848:19852   */\n      0x11\n        /* \"#utility.yul\":19845:19846   */\n      0x04\n        /* \"#utility.yul\":19838:19853   */\n      mstore\n        /* \"#utility.yul\":19872:19876   */\n      0x24\n        /* \"#utility.yul\":19869:19870   */\n      0x00\n        /* \"#utility.yul\":19862:19877   */\n      revert\n        /* \"#utility.yul\":19889:20069   */\n    tag_155:\n        /* \"#utility.yul\":19937:20014   */\n      0x4e487b7100000000000000000000000000000000000000000000000000000000\n        /* \"#utility.yul\":19934:19935   */\n      0x00\n        /* \"#utility.yul\":19927:20015   */\n      mstore\n        /* \"#utility.yul\":20034:20038   */\n      0x32\n        /* \"#utility.yul\":20031:20032   */\n      0x04\n        /* \"#utility.yul\":20024:20039   */\n      mstore\n        /* \"#utility.yul\":20058:20062   */\n      0x24\n        /* \"#utility.yul\":20055:20056   */\n      0x00\n        /* \"#utility.yul\":20048:20063   */\n      revert\n        /* \"#utility.yul\":20075:20255   */\n    tag_143:\n        /* \"#utility.yul\":20123:20200   */\n      0x4e487b7100000000000000000000000000000000000000000000000000000000\n        /* \"#utility.yul\":20120:20121   */\n      0x00\n        /* \"#utility.yul\":20113:20201   */\n      mstore\n        /* \"#utility.yul\":20220:20224   */\n      0x41\n        /* \"#utility.yul\":20217:20218   */\n      0x04\n        /* \"#utility.yul\":20210:20225   */\n      mstore\n        /* \"#utility.yul\":20244:20248   */\n      0x24\n        /* \"#utility.yul\":20241:20242   */\n      0x00\n        /* \"#utility.yul\":20234:20249   */\n      revert\n        /* \"#utility.yul\":20384:20501   */\n    tag_201:\n        /* \"#utility.yul\":20493:20494   */\n      0x00\n        /* \"#utility.yul\":20490:20491   */\n      dup1\n        /* \"#utility.yul\":20483:20495   */\n      revert\n        /* \"#utility.yul\":20507:20684   */\n    tag_257:\n        /* \"#utility.yul\":20647:20676   */\n      0x41736b696e67205072696365206e6f7420736174697366696564210000000000\n        /* \"#utility.yul\":20643:20644   */\n      0x00\n        /* \"#utility.yul\":20635:20641   */\n      dup3\n        /* \"#utility.yul\":20631:20645   */\n      add\n        /* \"#utility.yul\":20624:20677   */\n      mstore\n        /* \"#utility.yul\":20507:20684   */\n      pop\n      jump\t// out\n        /* \"#utility.yul\":20690:20923   */\n    tag_262:\n        /* \"#utility.yul\":20830:20864   */\n      0x50726963652073686f756c64206265206174206c656173742073616d65206173\n        /* \"#utility.yul\":20826:20827   */\n      0x00\n        /* \"#utility.yul\":20818:20824   */\n      dup3\n        /* \"#utility.yul\":20814:20828   */\n      add\n        /* \"#utility.yul\":20807:20865   */\n      mstore\n        /* \"#utility.yul\":20899:20915   */\n      0x206c697374696e67207072696365000000000000000000000000000000000000\n        /* \"#utility.yul\":20894:20896   */\n      0x20\n        /* \"#utility.yul\":20886:20892   */\n      dup3\n        /* \"#utility.yul\":20882:20897   */\n      add\n        /* \"#utility.yul\":20875:20916   */\n      mstore\n        /* \"#utility.yul\":20690:20923   */\n      pop\n      jump\t// out\n        /* \"#utility.yul\":20929:21154   */\n    tag_267:\n        /* \"#utility.yul\":21069:21103   */\n      0x4f776e61626c653a206e6577206f776e657220697320746865207a65726f2061\n        /* \"#utility.yul\":21065:21066   */\n      0x00\n        /* \"#utility.yul\":21057:21063   */\n      dup3\n        /* \"#utility.yul\":21053:21067   */\n      add\n        /* \"#utility.yul\":21046:21104   */\n      mstore\n        /* \"#utility.yul\":21138:21146   */\n      0x6464726573730000000000000000000000000000000000000000000000000000\n        /* \"#utility.yul\":21133:21135   */\n      0x20\n        /* \"#utility.yul\":21125:21131   */\n      dup3\n        /* \"#utility.yul\":21121:21136   */\n      add\n        /* \"#utility.yul\":21114:21147   */\n      mstore\n        /* \"#utility.yul\":20929:21154   */\n      pop\n      jump\t// out\n        /* \"#utility.yul\":21160:21327   */\n    tag_272:\n        /* \"#utility.yul\":21300:21319   */\n      0x4e4654206e6f7420666f722073616c652e000000000000000000000000000000\n        /* \"#utility.yul\":21296:21297   */\n      0x00\n        /* \"#utility.yul\":21288:21294   */\n      dup3\n        /* \"#utility.yul\":21284:21298   */\n      add\n        /* \"#utility.yul\":21277:21320   */\n      mstore\n        /* \"#utility.yul\":21160:21327   */\n      pop\n      jump\t// out\n        /* \"#utility.yul\":21333:21515   */\n    tag_277:\n        /* \"#utility.yul\":21473:21507   */\n      0x4f6e6c79204974656d206f776e65722063616e206372656174652073616c652e\n        /* \"#utility.yul\":21469:21470   */\n      0x00\n        /* \"#utility.yul\":21461:21467   */\n      dup3\n        /* \"#utility.yul\":21457:21471   */\n      add\n        /* \"#utility.yul\":21450:21508   */\n      mstore\n        /* \"#utility.yul\":21333:21515   */\n      pop\n      jump\t// out\n        /* \"#utility.yul\":21521:21703   */\n    tag_282:\n        /* \"#utility.yul\":21661:21695   */\n      0x4f776e61626c653a2063616c6c6572206973206e6f7420746865206f776e6572\n        /* \"#utility.yul\":21657:21658   */\n      0x00\n        /* \"#utility.yul\":21649:21655   */\n      dup3\n        /* \"#utility.yul\":21645:21659   */\n      add\n        /* \"#utility.yul\":21638:21696   */\n      mstore\n        /* \"#utility.yul\":21521:21703   */\n      pop\n      jump\t// out\n        /* \"#utility.yul\":21709:21879   */\n    tag_287:\n        /* \"#utility.yul\":21849:21871   */\n      0x4974656d20646f6573206e6f742065786973742e000000000000000000000000\n        /* \"#utility.yul\":21845:21846   */\n      0x00\n        /* \"#utility.yul\":21837:21843   */\n      dup3\n        /* \"#utility.yul\":21833:21847   */\n      add\n        /* \"#utility.yul\":21826:21872   */\n      mstore\n        /* \"#utility.yul\":21709:21879   */\n      pop\n      jump\t// out\n        /* \"#utility.yul\":21885:22066   */\n    tag_292:\n        /* \"#utility.yul\":22025:22058   */\n      0x5265656e7472616e637947756172643a207265656e7472616e742063616c6c00\n        /* \"#utility.yul\":22021:22022   */\n      0x00\n        /* \"#utility.yul\":22013:22019   */\n      dup3\n        /* \"#utility.yul\":22009:22023   */\n      add\n        /* \"#utility.yul\":22002:22059   */\n      mstore\n        /* \"#utility.yul\":21885:22066   */\n      pop\n      jump\t// out\n        /* \"#utility.yul\":22072:22250   */\n    tag_297:\n        /* \"#utility.yul\":22212:22242   */\n      0x5072696365206d757374206265206174206c6561737420312077656900000000\n        /* \"#utility.yul\":22208:22209   */\n      0x00\n        /* \"#utility.yul\":22200:22206   */\n      dup3\n        /* \"#utility.yul\":22196:22210   */\n      add\n        /* \"#utility.yul\":22189:22243   */\n      mstore\n        /* \"#utility.yul\":22072:22250   */\n      pop\n      jump\t// out\n        /* \"#utility.yul\":22256:22378   */\n    tag_189:\n        /* \"#utility.yul\":22329:22353   */\n      tag_410\n        /* \"#utility.yul\":22347:22352   */\n      dup2\n        /* \"#utility.yul\":22329:22353   */\n      tag_223\n      jump\t// in\n    tag_410:\n        /* \"#utility.yul\":22322:22327   */\n      dup2\n        /* \"#utility.yul\":22319:22354   */\n      eq\n        /* \"#utility.yul\":22309:22372   */\n      tag_411\n      jumpi\n        /* \"#utility.yul\":22368:22369   */\n      0x00\n        /* \"#utility.yul\":22365:22366   */\n      dup1\n        /* \"#utility.yul\":22358:22370   */\n      revert\n        /* \"#utility.yul\":22309:22372   */\n    tag_411:\n        /* \"#utility.yul\":22256:22378   */\n      pop\n      jump\t// out\n        /* \"#utility.yul\":22384:22500   */\n    tag_193:\n        /* \"#utility.yul\":22454:22475   */\n      tag_413\n        /* \"#utility.yul\":22469:22474   */\n      dup2\n        /* \"#utility.yul\":22454:22475   */\n      tag_244\n      jump\t// in\n    tag_413:\n        /* \"#utility.yul\":22447:22452   */\n      dup2\n        /* \"#utility.yul\":22444:22476   */\n      eq\n        /* \"#utility.yul\":22434:22494   */\n      tag_414\n      jumpi\n        /* \"#utility.yul\":22490:22491   */\n      0x00\n        /* \"#utility.yul\":22487:22488   */\n      dup1\n        /* \"#utility.yul\":22480:22492   */\n      revert\n        /* \"#utility.yul\":22434:22494   */\n    tag_414:\n        /* \"#utility.yul\":22384:22500   */\n      pop\n      jump\t// out\n        /* \"#utility.yul\":22506:22628   */\n    tag_197:\n        /* \"#utility.yul\":22579:22603   */\n      tag_416\n        /* \"#utility.yul\":22597:22602   */\n      dup2\n        /* \"#utility.yul\":22579:22603   */\n      tag_320\n      jump\t// in\n    tag_416:\n        /* \"#utility.yul\":22572:22577   */\n      dup2\n        /* \"#utility.yul\":22569:22604   */\n      eq\n        /* \"#utility.yul\":22559:22622   */\n      tag_417\n      jumpi\n        /* \"#utility.yul\":22618:22619   */\n      0x00\n        /* \"#utility.yul\":22615:22616   */\n      dup1\n        /* \"#utility.yul\":22608:22620   */\n      revert\n        /* \"#utility.yul\":22559:22622   */\n    tag_417:\n        /* \"#utility.yul\":22506:22628   */\n      pop\n      jump\t// out\n\n    auxdata: 0xa2646970667358221220ae1e60a68456f9cdcb3a79fabcd7a566d8be2b810c09b98ce3c4526139de633564736f6c63430008070033\n}\n",
				"bytecode": {
					"linkReferences": {},
					"object": "608060405267016345785d8a00006007553480156200001d57600080fd5b506040516200232c3803806200232c8339818101604052810190620000439190620001d7565b6200006362000057620000f460201b60201c565b620000fc60201b60201c565b6001808190555081600560006101000a81548173ffffffffffffffffffffffffffffffffffffffff021916908373ffffffffffffffffffffffffffffffffffffffff16021790555080600660006101000a81548173ffffffffffffffffffffffffffffffffffffffff021916908373ffffffffffffffffffffffffffffffffffffffff160217905550505062000271565b600033905090565b60008060009054906101000a900473ffffffffffffffffffffffffffffffffffffffff169050816000806101000a81548173ffffffffffffffffffffffffffffffffffffffff021916908373ffffffffffffffffffffffffffffffffffffffff1602179055508173ffffffffffffffffffffffffffffffffffffffff168173ffffffffffffffffffffffffffffffffffffffff167f8be0079c531659141344cd1fd0a4f28419497f9722a3daafe3b4186f6b6457e060405160405180910390a35050565b600081519050620001d18162000257565b92915050565b60008060408385031215620001f157620001f062000252565b5b60006200020185828601620001c0565b92505060206200021485828601620001c0565b9150509250929050565b60006200022b8262000232565b9050919050565b600073ffffffffffffffffffffffffffffffffffffffff82169050919050565b600080fd5b62000262816200021e565b81146200026e57600080fd5b50565b6120ab80620002816000396000f3fe608060405234801561001057600080fd5b50600436106100cf5760003560e01c80639b8bc1271161008c578063c78f19f911610066578063c78f19f9146101da578063d56d229d146101f8578063e61a70c014610216578063f2fde38b1461024d576100cf565b80639b8bc127146101825780639da1b02a146101a0578063a8fcc417146101bc576100cf565b806353dbceb1146100d4578063715018a614610104578063889e2cd51461010e5780638da5cb5b1461012c57806391066da81461014a5780639979c00914610166575b600080fd5b6100ee60048036038101906100e99190611620565b610269565b6040516100fb9190611b9b565b60405180910390f35b61010c6103b8565b005b610116610440565b60405161012391906119ec565b60405180910390f35b610134610466565b60405161014191906119ec565b60405180910390f35b610164600480360381019061015f919061164d565b61048f565b005b610180600480360381019061017b919061164d565b610935565b005b61018a610d0a565b6040516101979190611a3e565b60405180910390f35b6101ba60048036038101906101b59190611620565b610f72565b005b6101c461123e565b6040516101d19190611a60565b60405180910390f35b6101e261124d565b6040516101ef9190611bb7565b60405180910390f35b610200611253565b60405161020d91906119ec565b60405180910390f35b610230600480360381019061022b9190611620565b611279565b604051610244989796959493929190611bd2565b60405180910390f35b610267600480360381019061026291906115c6565b611328565b005b610271611510565b6000600860008481526020019081526020016000206040518061010001604052908160008201548152602001600182015481526020016002820160009054906101000a900473ffffffffffffffffffffffffffffffffffffffff1673ffffffffffffffffffffffffffffffffffffffff1673ffffffffffffffffffffffffffffffffffffffff1681526020016003820160009054906101000a900473ffffffffffffffffffffffffffffffffffffffff1673ffffffffffffffffffffffffffffffffffffffff1673ffffffffffffffffffffffffffffffffffffffff168152602001600482015481526020016005820160009054906101000a900460ff161515151581526020016005820160019054906101000a900460ff161515151581526020016005820160029054906101000a900460ff161515151581525050905080915050919050565b6103c0611420565b73ffffffffffffffffffffffffffffffffffffffff166103de610466565b73ffffffffffffffffffffffffffffffffffffffff1614610434576040517f08c379a000000000000000000000000000000000000000000000000000000000815260040161042b90611b1b565b60405180910390fd5b61043e6000611428565b565b600660009054906101000a900473ffffffffffffffffffffffffffffffffffffffff1681565b60008060009054906101000a900473ffffffffffffffffffffffffffffffffffffffff16905090565b600260015414156104d5576040517f08c379a00000000000000000000000000000000000000000000000000000000081526004016104cc90611b5b565b60405180910390fd5b60026001819055506104e5611420565b73ffffffffffffffffffffffffffffffffffffffff16610503610466565b73ffffffffffffffffffffffffffffffffffffffff1614610559576040517f08c379a000000000000000000000000000000000000000000000000000000000815260040161055090611b1b565b60405180910390fd5b6000811161059c576040517f08c379a000000000000000000000000000000000000000000000000000000000815260040161059390611b7b565b60405180910390fd5b6007548110156105e1576040517f08c379a00000000000000000000000000000000000000000000000000000000081526004016105d890611a9b565b60405180910390fd5b6105eb60026114ec565b60006105f76002611502565b90506040518061010001604052808281526020018481526020013373ffffffffffffffffffffffffffffffffffffffff168152602001600073ffffffffffffffffffffffffffffffffffffffff1681526020018381526020016000151581526020016000151581526020016001151581525060086000838152602001908152602001600020600082015181600001556020820151816001015560408201518160020160006101000a81548173ffffffffffffffffffffffffffffffffffffffff021916908373ffffffffffffffffffffffffffffffffffffffff16021790555060608201518160030160006101000a81548173ffffffffffffffffffffffffffffffffffffffff021916908373ffffffffffffffffffffffffffffffffffffffff1602179055506080820151816004015560a08201518160050160006101000a81548160ff02191690831515021790555060c08201518160050160016101000a81548160ff02191690831515021790555060e08201518160050160026101000a81548160ff021916908315150217905550905050600660009054906101000a900473ffffffffffffffffffffffffffffffffffffffff1673ffffffffffffffffffffffffffffffffffffffff166323b872dd33306007546040518463ffffffff1660e01b81526004016107ec93929190611a07565b602060405180830381600087803b15801561080657600080fd5b505af115801561081a573d6000803e3d6000fd5b505050506040513d601f19601f8201168201806040525081019061083e91906115f3565b50600560009054906101000a900473ffffffffffffffffffffffffffffffffffffffff1673ffffffffffffffffffffffffffffffffffffffff166342842e0e3330866040518463ffffffff1660e01b815260040161089e93929190611a07565b600060405180830381600087803b1580156108b857600080fd5b505af11580156108cc573d6000803e3d6000fd5b50505050600754600460008282546108e49190611c9a565b9250508190555082817f38690a554ffbc44eb6a75016e47d517d0db8e6c37494adc68d6d0b2c66f0ab213360008660405161092193929190611a07565b60405180910390a350600180819055505050565b6002600154141561097b576040517f08c379a000000000000000000000000000000000000000000000000000000000815260040161097290611b5b565b60405180910390fd5b600260018190555060006008600084815260200190815260200160002060040154905060006008600085815260200190815260200160002060010154905060006008600086815260200190815260200160002060050160019054906101000a900460ff16905082841015610a24576040517f08c379a0000000000000000000000000000000000000000000000000000000008152600401610a1b90611a7b565b60405180910390fd5b6001151581151514610a6b576040517f08c379a0000000000000000000000000000000000000000000000000000000008152600401610a6290611adb565b60405180910390fd5b60006008600087815260200190815260200160002060020160009054906101000a900473ffffffffffffffffffffffffffffffffffffffff169050336008600088815260200190815260200160002060030160006101000a81548173ffffffffffffffffffffffffffffffffffffffff021916908373ffffffffffffffffffffffffffffffffffffffff160217905550336008600088815260200190815260200160002060020160006101000a81548173ffffffffffffffffffffffffffffffffffffffff021916908373ffffffffffffffffffffffffffffffffffffffff16021790555060016008600088815260200190815260200160002060050160006101000a81548160ff02191690831515021790555060006008600088815260200190815260200160002060050160016101000a81548160ff021916908315150217905550600560009054906101000a900473ffffffffffffffffffffffffffffffffffffffff1673ffffffffffffffffffffffffffffffffffffffff166323b872dd8233866040518463ffffffff1660e01b8152600401610c0d93929190611a07565b600060405180830381600087803b158015610c2757600080fd5b505af1158015610c3b573d6000803e3d6000fd5b50505050600660009054906101000a900473ffffffffffffffffffffffffffffffffffffffff1673ffffffffffffffffffffffffffffffffffffffff166323b872dd3383886040518463ffffffff1660e01b8152600401610c9e93929190611a07565b602060405180830381600087803b158015610cb857600080fd5b505af1158015610ccc573d6000803e3d6000fd5b505050506040513d601f19601f82011682018060405250810190610cf091906115f3565b50610cfb60036114ec565b50505050600180819055505050565b60606000610d186002611502565b90506000610d266003611502565b610d306002611502565b610d3a9190611cf0565b90506000808267ffffffffffffffff811115610d5957610d58611e3f565b5b604051908082528060200260200182016040528015610d9257816020015b610d7f611510565b815260200190600190039081610d775790505b50905060005b84811015610f675760086000600183610db19190611c9a565b815260200190815260200160002060050160009054906101000a900460ff16610f54576000600182610de39190611c9a565b90506000600860008381526020019081526020016000206040518061010001604052908160008201548152602001600182015481526020016002820160009054906101000a900473ffffffffffffffffffffffffffffffffffffffff1673ffffffffffffffffffffffffffffffffffffffff1673ffffffffffffffffffffffffffffffffffffffff1681526020016003820160009054906101000a900473ffffffffffffffffffffffffffffffffffffffff1673ffffffffffffffffffffffffffffffffffffffff1673ffffffffffffffffffffffffffffffffffffffff168152602001600482015481526020016005820160009054906101000a900460ff161515151581526020016005820160019054906101000a900460ff161515151581526020016005820160029054906101000a900460ff161515151581525050905080848681518110610f3757610f36611e10565b5b6020026020010181905250600185610f4f9190611c9a565b945050505b8080610f5f90611d98565b915050610d98565b508094505050505090565b60026001541415610fb8576040517f08c379a0000000000000000000000000000000000000000000000000000000008152600401610faf90611b5b565b60405180910390fd5b60026001819055506000600860008381526020019081526020016000206040518061010001604052908160008201548152602001600182015481526020016002820160009054906101000a900473ffffffffffffffffffffffffffffffffffffffff1673ffffffffffffffffffffffffffffffffffffffff1673ffffffffffffffffffffffffffffffffffffffff1681526020016003820160009054906101000a900473ffffffffffffffffffffffffffffffffffffffff1673ffffffffffffffffffffffffffffffffffffffff1673ffffffffffffffffffffffffffffffffffffffff168152602001600482015481526020016005820160009054906101000a900460ff161515151581526020016005820160019054906101000a900460ff161515151581526020016005820160029054906101000a900460ff16151515158152505090503373ffffffffffffffffffffffffffffffffffffffff16816060015173ffffffffffffffffffffffffffffffffffffffff1614611170576040517f08c379a000000000000000000000000000000000000000000000000000000000815260040161116790611afb565b60405180910390fd5b600115158160e001511515146111bb576040517f08c379a00000000000000000000000000000000000000000000000000000000081526004016111b290611b3b565b60405180910390fd5b60016008600084815260200190815260200160002060050160016101000a81548160ff0219169083151502179055508060200151827f0b59dfc56db79c6259bcd97a3fc890ab90008a8b5781d89dd763e01651bc7bc8338460400151856080015160405161122b93929190611a07565b60405180910390a3506001808190555050565b600063a8fcc41760e01b905090565b60075481565b600560009054906101000a900473ffffffffffffffffffffffffffffffffffffffff1681565b60086020528060005260406000206000915090508060000154908060010154908060020160009054906101000a900473ffffffffffffffffffffffffffffffffffffffff16908060030160009054906101000a900473ffffffffffffffffffffffffffffffffffffffff16908060040154908060050160009054906101000a900460ff16908060050160019054906101000a900460ff16908060050160029054906101000a900460ff16905088565b611330611420565b73ffffffffffffffffffffffffffffffffffffffff1661134e610466565b73ffffffffffffffffffffffffffffffffffffffff16146113a4576040517f08c379a000000000000000000000000000000000000000000000000000000000815260040161139b90611b1b565b60405180910390fd5b600073ffffffffffffffffffffffffffffffffffffffff168173ffffffffffffffffffffffffffffffffffffffff161415611414576040517f08c379a000000000000000000000000000000000000000000000000000000000815260040161140b90611abb565b60405180910390fd5b61141d81611428565b50565b600033905090565b60008060009054906101000a900473ffffffffffffffffffffffffffffffffffffffff169050816000806101000a81548173ffffffffffffffffffffffffffffffffffffffff021916908373ffffffffffffffffffffffffffffffffffffffff1602179055508173ffffffffffffffffffffffffffffffffffffffff168173ffffffffffffffffffffffffffffffffffffffff167f8be0079c531659141344cd1fd0a4f28419497f9722a3daafe3b4186f6b6457e060405160405180910390a35050565b6001816000016000828254019250508190555050565b600081600001549050919050565b6040518061010001604052806000815260200160008152602001600073ffffffffffffffffffffffffffffffffffffffff168152602001600073ffffffffffffffffffffffffffffffffffffffff168152602001600081526020016000151581526020016000151581526020016000151581525090565b60008135905061159681612030565b92915050565b6000815190506115ab81612047565b92915050565b6000813590506115c08161205e565b92915050565b6000602082840312156115dc576115db611e6e565b5b60006115ea84828501611587565b91505092915050565b60006020828403121561160957611608611e6e565b5b60006116178482850161159c565b91505092915050565b60006020828403121561163657611635611e6e565b5b6000611644848285016115b1565b91505092915050565b6000806040838503121561166457611663611e6e565b5b6000611672858286016115b1565b9250506020611683858286016115b1565b9150509250929050565b6000611699838361188a565b6101008301905092915050565b6116af81611d24565b82525050565b6116be81611d24565b82525050565b60006116cf82611c60565b6116d98185611c78565b93506116e483611c50565b8060005b838110156117155781516116fc888261168d565b975061170783611c6b565b9250506001810190506116e8565b5085935050505092915050565b61172b81611d36565b82525050565b61173a81611d36565b82525050565b61174981611d42565b82525050565b600061175c601b83611c89565b915061176782611e73565b602082019050919050565b600061177f602e83611c89565b915061178a82611e9c565b604082019050919050565b60006117a2602683611c89565b91506117ad82611eeb565b604082019050919050565b60006117c5601183611c89565b91506117d082611f3a565b602082019050919050565b60006117e8602083611c89565b91506117f382611f63565b602082019050919050565b600061180b602083611c89565b915061181682611f8c565b602082019050919050565b600061182e601483611c89565b915061183982611fb5565b602082019050919050565b6000611851601f83611c89565b915061185c82611fde565b602082019050919050565b6000611874601c83611c89565b915061187f82612007565b602082019050919050565b610100820160008201516118a160008501826119ce565b5060208201516118b460208501826119ce565b5060408201516118c760408501826116a6565b5060608201516118da60608501826116a6565b5060808201516118ed60808501826119ce565b5060a082015161190060a0850182611722565b5060c082015161191360c0850182611722565b5060e082015161192660e0850182611722565b50505050565b6101008201600082015161194360008501826119ce565b50602082015161195660208501826119ce565b50604082015161196960408501826116a6565b50606082015161197c60608501826116a6565b50608082015161198f60808501826119ce565b5060a08201516119a260a0850182611722565b5060c08201516119b560c0850182611722565b5060e08201516119c860e0850182611722565b50505050565b6119d781611d8e565b82525050565b6119e681611d8e565b82525050565b6000602082019050611a0160008301846116b5565b92915050565b6000606082019050611a1c60008301866116b5565b611a2960208301856116b5565b611a3660408301846119dd565b949350505050565b60006020820190508181036000830152611a5881846116c4565b905092915050565b6000602082019050611a756000830184611740565b92915050565b60006020820190508181036000830152611a948161174f565b9050919050565b60006020820190508181036000830152611ab481611772565b9050919050565b60006020820190508181036000830152611ad481611795565b9050919050565b60006020820190508181036000830152611af4816117b8565b9050919050565b60006020820190508181036000830152611b14816117db565b9050919050565b60006020820190508181036000830152611b34816117fe565b9050919050565b60006020820190508181036000830152611b5481611821565b9050919050565b60006020820190508181036000830152611b7481611844565b9050919050565b60006020820190508181036000830152611b9481611867565b9050919050565b600061010082019050611bb1600083018461192c565b92915050565b6000602082019050611bcc60008301846119dd565b92915050565b600061010082019050611be8600083018b6119dd565b611bf5602083018a6119dd565b611c0260408301896116b5565b611c0f60608301886116b5565b611c1c60808301876119dd565b611c2960a0830186611731565b611c3660c0830185611731565b611c4360e0830184611731565b9998505050505050505050565b6000819050602082019050919050565b600081519050919050565b6000602082019050919050565b600082825260208201905092915050565b600082825260208201905092915050565b6000611ca582611d8e565b9150611cb083611d8e565b9250827fffffffffffffffffffffffffffffffffffffffffffffffffffffffffffffffff03821115611ce557611ce4611de1565b5b828201905092915050565b6000611cfb82611d8e565b9150611d0683611d8e565b925082821015611d1957611d18611de1565b5b828203905092915050565b6000611d2f82611d6e565b9050919050565b60008115159050919050565b60007fffffffff0000000000000000000000000000000000000000000000000000000082169050919050565b600073ffffffffffffffffffffffffffffffffffffffff82169050919050565b6000819050919050565b6000611da382611d8e565b91507fffffffffffffffffffffffffffffffffffffffffffffffffffffffffffffffff821415611dd657611dd5611de1565b5b600182019050919050565b7f4e487b7100000000000000000000000000000000000000000000000000000000600052601160045260246000fd5b7f4e487b7100000000000000000000000000000000000000000000000000000000600052603260045260246000fd5b7f4e487b7100000000000000000000000000000000000000000000000000000000600052604160045260246000fd5b600080fd5b7f41736b696e67205072696365206e6f7420736174697366696564210000000000600082015250565b7f50726963652073686f756c64206265206174206c656173742073616d6520617360008201527f206c697374696e67207072696365000000000000000000000000000000000000602082015250565b7f4f776e61626c653a206e6577206f776e657220697320746865207a65726f206160008201527f6464726573730000000000000000000000000000000000000000000000000000602082015250565b7f4e4654206e6f7420666f722073616c652e000000000000000000000000000000600082015250565b7f4f6e6c79204974656d206f776e65722063616e206372656174652073616c652e600082015250565b7f4f776e61626c653a2063616c6c6572206973206e6f7420746865206f776e6572600082015250565b7f4974656d20646f6573206e6f742065786973742e000000000000000000000000600082015250565b7f5265656e7472616e637947756172643a207265656e7472616e742063616c6c00600082015250565b7f5072696365206d757374206265206174206c6561737420312077656900000000600082015250565b61203981611d24565b811461204457600080fd5b50565b61205081611d36565b811461205b57600080fd5b50565b61206781611d8e565b811461207257600080fd5b5056fea2646970667358221220ae1e60a68456f9cdcb3a79fabcd7a566d8be2b810c09b98ce3c4526139de633564736f6c63430008070033",
					"opcodes": "PUSH1 0x80 PUSH1 0x40 MSTORE PUSH8 0x16345785D8A0000 PUSH1 0x7 SSTORE CALLVALUE DUP1 ISZERO PUSH3 0x1D JUMPI PUSH1 0x0 DUP1 REVERT JUMPDEST POP PUSH1 0x40 MLOAD PUSH3 0x232C CODESIZE SUB DUP1 PUSH3 0x232C DUP4 CODECOPY DUP2 DUP2 ADD PUSH1 0x40 MSTORE DUP2 ADD SWAP1 PUSH3 0x43 SWAP2 SWAP1 PUSH3 0x1D7 JUMP JUMPDEST PUSH3 0x63 PUSH3 0x57 PUSH3 0xF4 PUSH1 0x20 SHL PUSH1 0x20 SHR JUMP JUMPDEST PUSH3 0xFC PUSH1 0x20 SHL PUSH1 0x20 SHR JUMP JUMPDEST PUSH1 0x1 DUP1 DUP2 SWAP1 SSTORE POP DUP2 PUSH1 0x5 PUSH1 0x0 PUSH2 0x100 EXP DUP2 SLOAD DUP2 PUSH20 0xFFFFFFFFFFFFFFFFFFFFFFFFFFFFFFFFFFFFFFFF MUL NOT AND SWAP1 DUP4 PUSH20 0xFFFFFFFFFFFFFFFFFFFFFFFFFFFFFFFFFFFFFFFF AND MUL OR SWAP1 SSTORE POP DUP1 PUSH1 0x6 PUSH1 0x0 PUSH2 0x100 EXP DUP2 SLOAD DUP2 PUSH20 0xFFFFFFFFFFFFFFFFFFFFFFFFFFFFFFFFFFFFFFFF MUL NOT AND SWAP1 DUP4 PUSH20 0xFFFFFFFFFFFFFFFFFFFFFFFFFFFFFFFFFFFFFFFF AND MUL OR SWAP1 SSTORE POP POP POP PUSH3 0x271 JUMP JUMPDEST PUSH1 0x0 CALLER SWAP1 POP SWAP1 JUMP JUMPDEST PUSH1 0x0 DUP1 PUSH1 0x0 SWAP1 SLOAD SWAP1 PUSH2 0x100 EXP SWAP1 DIV PUSH20 0xFFFFFFFFFFFFFFFFFFFFFFFFFFFFFFFFFFFFFFFF AND SWAP1 POP DUP2 PUSH1 0x0 DUP1 PUSH2 0x100 EXP DUP2 SLOAD DUP2 PUSH20 0xFFFFFFFFFFFFFFFFFFFFFFFFFFFFFFFFFFFFFFFF MUL NOT AND SWAP1 DUP4 PUSH20 0xFFFFFFFFFFFFFFFFFFFFFFFFFFFFFFFFFFFFFFFF AND MUL OR SWAP1 SSTORE POP DUP2 PUSH20 0xFFFFFFFFFFFFFFFFFFFFFFFFFFFFFFFFFFFFFFFF AND DUP2 PUSH20 0xFFFFFFFFFFFFFFFFFFFFFFFFFFFFFFFFFFFFFFFF AND PUSH32 0x8BE0079C531659141344CD1FD0A4F28419497F9722A3DAAFE3B4186F6B6457E0 PUSH1 0x40 MLOAD PUSH1 0x40 MLOAD DUP1 SWAP2 SUB SWAP1 LOG3 POP POP JUMP JUMPDEST PUSH1 0x0 DUP2 MLOAD SWAP1 POP PUSH3 0x1D1 DUP2 PUSH3 0x257 JUMP JUMPDEST SWAP3 SWAP2 POP POP JUMP JUMPDEST PUSH1 0x0 DUP1 PUSH1 0x40 DUP4 DUP6 SUB SLT ISZERO PUSH3 0x1F1 JUMPI PUSH3 0x1F0 PUSH3 0x252 JUMP JUMPDEST JUMPDEST PUSH1 0x0 PUSH3 0x201 DUP6 DUP3 DUP7 ADD PUSH3 0x1C0 JUMP JUMPDEST SWAP3 POP POP PUSH1 0x20 PUSH3 0x214 DUP6 DUP3 DUP7 ADD PUSH3 0x1C0 JUMP JUMPDEST SWAP2 POP POP SWAP3 POP SWAP3 SWAP1 POP JUMP JUMPDEST PUSH1 0x0 PUSH3 0x22B DUP3 PUSH3 0x232 JUMP JUMPDEST SWAP1 POP SWAP2 SWAP1 POP JUMP JUMPDEST PUSH1 0x0 PUSH20 0xFFFFFFFFFFFFFFFFFFFFFFFFFFFFFFFFFFFFFFFF DUP3 AND SWAP1 POP SWAP2 SWAP1 POP JUMP JUMPDEST PUSH1 0x0 DUP1 REVERT JUMPDEST PUSH3 0x262 DUP2 PUSH3 0x21E JUMP JUMPDEST DUP2 EQ PUSH3 0x26E JUMPI PUSH1 0x0 DUP1 REVERT JUMPDEST POP JUMP JUMPDEST PUSH2 0x20AB DUP1 PUSH3 0x281 PUSH1 0x0 CODECOPY PUSH1 0x0 RETURN INVALID PUSH1 0x80 PUSH1 0x40 MSTORE CALLVALUE DUP1 ISZERO PUSH2 0x10 JUMPI PUSH1 0x0 DUP1 REVERT JUMPDEST POP PUSH1 0x4 CALLDATASIZE LT PUSH2 0xCF JUMPI PUSH1 0x0 CALLDATALOAD PUSH1 0xE0 SHR DUP1 PUSH4 0x9B8BC127 GT PUSH2 0x8C JUMPI DUP1 PUSH4 0xC78F19F9 GT PUSH2 0x66 JUMPI DUP1 PUSH4 0xC78F19F9 EQ PUSH2 0x1DA JUMPI DUP1 PUSH4 0xD56D229D EQ PUSH2 0x1F8 JUMPI DUP1 PUSH4 0xE61A70C0 EQ PUSH2 0x216 JUMPI DUP1 PUSH4 0xF2FDE38B EQ PUSH2 0x24D JUMPI PUSH2 0xCF JUMP JUMPDEST DUP1 PUSH4 0x9B8BC127 EQ PUSH2 0x182 JUMPI DUP1 PUSH4 0x9DA1B02A EQ PUSH2 0x1A0 JUMPI DUP1 PUSH4 0xA8FCC417 EQ PUSH2 0x1BC JUMPI PUSH2 0xCF JUMP JUMPDEST DUP1 PUSH4 0x53DBCEB1 EQ PUSH2 0xD4 JUMPI DUP1 PUSH4 0x715018A6 EQ PUSH2 0x104 JUMPI DUP1 PUSH4 0x889E2CD5 EQ PUSH2 0x10E JUMPI DUP1 PUSH4 0x8DA5CB5B EQ PUSH2 0x12C JUMPI DUP1 PUSH4 0x91066DA8 EQ PUSH2 0x14A JUMPI DUP1 PUSH4 0x9979C009 EQ PUSH2 0x166 JUMPI JUMPDEST PUSH1 0x0 DUP1 REVERT JUMPDEST PUSH2 0xEE PUSH1 0x4 DUP1 CALLDATASIZE SUB DUP2 ADD SWAP1 PUSH2 0xE9 SWAP2 SWAP1 PUSH2 0x1620 JUMP JUMPDEST PUSH2 0x269 JUMP JUMPDEST PUSH1 0x40 MLOAD PUSH2 0xFB SWAP2 SWAP1 PUSH2 0x1B9B JUMP JUMPDEST PUSH1 0x40 MLOAD DUP1 SWAP2 SUB SWAP1 RETURN JUMPDEST PUSH2 0x10C PUSH2 0x3B8 JUMP JUMPDEST STOP JUMPDEST PUSH2 0x116 PUSH2 0x440 JUMP JUMPDEST PUSH1 0x40 MLOAD PUSH2 0x123 SWAP2 SWAP1 PUSH2 0x19EC JUMP JUMPDEST PUSH1 0x40 MLOAD DUP1 SWAP2 SUB SWAP1 RETURN JUMPDEST PUSH2 0x134 PUSH2 0x466 JUMP JUMPDEST PUSH1 0x40 MLOAD PUSH2 0x141 SWAP2 SWAP1 PUSH2 0x19EC JUMP JUMPDEST PUSH1 0x40 MLOAD DUP1 SWAP2 SUB SWAP1 RETURN JUMPDEST PUSH2 0x164 PUSH1 0x4 DUP1 CALLDATASIZE SUB DUP2 ADD SWAP1 PUSH2 0x15F SWAP2 SWAP1 PUSH2 0x164D JUMP JUMPDEST PUSH2 0x48F JUMP JUMPDEST STOP JUMPDEST PUSH2 0x180 PUSH1 0x4 DUP1 CALLDATASIZE SUB DUP2 ADD SWAP1 PUSH2 0x17B SWAP2 SWAP1 PUSH2 0x164D JUMP JUMPDEST PUSH2 0x935 JUMP JUMPDEST STOP JUMPDEST PUSH2 0x18A PUSH2 0xD0A JUMP JUMPDEST PUSH1 0x40 MLOAD PUSH2 0x197 SWAP2 SWAP1 PUSH2 0x1A3E JUMP JUMPDEST PUSH1 0x40 MLOAD DUP1 SWAP2 SUB SWAP1 RETURN JUMPDEST PUSH2 0x1BA PUSH1 0x4 DUP1 CALLDATASIZE SUB DUP2 ADD SWAP1 PUSH2 0x1B5 SWAP2 SWAP1 PUSH2 0x1620 JUMP JUMPDEST PUSH2 0xF72 JUMP JUMPDEST STOP JUMPDEST PUSH2 0x1C4 PUSH2 0x123E JUMP JUMPDEST PUSH1 0x40 MLOAD PUSH2 0x1D1 SWAP2 SWAP1 PUSH2 0x1A60 JUMP JUMPDEST PUSH1 0x40 MLOAD DUP1 SWAP2 SUB SWAP1 RETURN JUMPDEST PUSH2 0x1E2 PUSH2 0x124D JUMP JUMPDEST PUSH1 0x40 MLOAD PUSH2 0x1EF SWAP2 SWAP1 PUSH2 0x1BB7 JUMP JUMPDEST PUSH1 0x40 MLOAD DUP1 SWAP2 SUB SWAP1 RETURN JUMPDEST PUSH2 0x200 PUSH2 0x1253 JUMP JUMPDEST PUSH1 0x40 MLOAD PUSH2 0x20D SWAP2 SWAP1 PUSH2 0x19EC JUMP JUMPDEST PUSH1 0x40 MLOAD DUP1 SWAP2 SUB SWAP1 RETURN JUMPDEST PUSH2 0x230 PUSH1 0x4 DUP1 CALLDATASIZE SUB DUP2 ADD SWAP1 PUSH2 0x22B SWAP2 SWAP1 PUSH2 0x1620 JUMP JUMPDEST PUSH2 0x1279 JUMP JUMPDEST PUSH1 0x40 MLOAD PUSH2 0x244 SWAP9 SWAP8 SWAP7 SWAP6 SWAP5 SWAP4 SWAP3 SWAP2 SWAP1 PUSH2 0x1BD2 JUMP JUMPDEST PUSH1 0x40 MLOAD DUP1 SWAP2 SUB SWAP1 RETURN JUMPDEST PUSH2 0x267 PUSH1 0x4 DUP1 CALLDATASIZE SUB DUP2 ADD SWAP1 PUSH2 0x262 SWAP2 SWAP1 PUSH2 0x15C6 JUMP JUMPDEST PUSH2 0x1328 JUMP JUMPDEST STOP JUMPDEST PUSH2 0x271 PUSH2 0x1510 JUMP JUMPDEST PUSH1 0x0 PUSH1 0x8 PUSH1 0x0 DUP5 DUP2 MSTORE PUSH1 0x20 ADD SWAP1 DUP2 MSTORE PUSH1 0x20 ADD PUSH1 0x0 KECCAK256 PUSH1 0x40 MLOAD DUP1 PUSH2 0x100 ADD PUSH1 0x40 MSTORE SWAP1 DUP2 PUSH1 0x0 DUP3 ADD SLOAD DUP2 MSTORE PUSH1 0x20 ADD PUSH1 0x1 DUP3 ADD SLOAD DUP2 MSTORE PUSH1 0x20 ADD PUSH1 0x2 DUP3 ADD PUSH1 0x0 SWAP1 SLOAD SWAP1 PUSH2 0x100 EXP SWAP1 DIV PUSH20 0xFFFFFFFFFFFFFFFFFFFFFFFFFFFFFFFFFFFFFFFF AND PUSH20 0xFFFFFFFFFFFFFFFFFFFFFFFFFFFFFFFFFFFFFFFF AND PUSH20 0xFFFFFFFFFFFFFFFFFFFFFFFFFFFFFFFFFFFFFFFF AND DUP2 MSTORE PUSH1 0x20 ADD PUSH1 0x3 DUP3 ADD PUSH1 0x0 SWAP1 SLOAD SWAP1 PUSH2 0x100 EXP SWAP1 DIV PUSH20 0xFFFFFFFFFFFFFFFFFFFFFFFFFFFFFFFFFFFFFFFF AND PUSH20 0xFFFFFFFFFFFFFFFFFFFFFFFFFFFFFFFFFFFFFFFF AND PUSH20 0xFFFFFFFFFFFFFFFFFFFFFFFFFFFFFFFFFFFFFFFF AND DUP2 MSTORE PUSH1 0x20 ADD PUSH1 0x4 DUP3 ADD SLOAD DUP2 MSTORE PUSH1 0x20 ADD PUSH1 0x5 DUP3 ADD PUSH1 0x0 SWAP1 SLOAD SWAP1 PUSH2 0x100 EXP SWAP1 DIV PUSH1 0xFF AND ISZERO ISZERO ISZERO ISZERO DUP2 MSTORE PUSH1 0x20 ADD PUSH1 0x5 DUP3 ADD PUSH1 0x1 SWAP1 SLOAD SWAP1 PUSH2 0x100 EXP SWAP1 DIV PUSH1 0xFF AND ISZERO ISZERO ISZERO ISZERO DUP2 MSTORE PUSH1 0x20 ADD PUSH1 0x5 DUP3 ADD PUSH1 0x2 SWAP1 SLOAD SWAP1 PUSH2 0x100 EXP SWAP1 DIV PUSH1 0xFF AND ISZERO ISZERO ISZERO ISZERO DUP2 MSTORE POP POP SWAP1 POP DUP1 SWAP2 POP POP SWAP2 SWAP1 POP JUMP JUMPDEST PUSH2 0x3C0 PUSH2 0x1420 JUMP JUMPDEST PUSH20 0xFFFFFFFFFFFFFFFFFFFFFFFFFFFFFFFFFFFFFFFF AND PUSH2 0x3DE PUSH2 0x466 JUMP JUMPDEST PUSH20 0xFFFFFFFFFFFFFFFFFFFFFFFFFFFFFFFFFFFFFFFF AND EQ PUSH2 0x434 JUMPI PUSH1 0x40 MLOAD PUSH32 0x8C379A000000000000000000000000000000000000000000000000000000000 DUP2 MSTORE PUSH1 0x4 ADD PUSH2 0x42B SWAP1 PUSH2 0x1B1B JUMP JUMPDEST PUSH1 0x40 MLOAD DUP1 SWAP2 SUB SWAP1 REVERT JUMPDEST PUSH2 0x43E PUSH1 0x0 PUSH2 0x1428 JUMP JUMPDEST JUMP JUMPDEST PUSH1 0x6 PUSH1 0x0 SWAP1 SLOAD SWAP1 PUSH2 0x100 EXP SWAP1 DIV PUSH20 0xFFFFFFFFFFFFFFFFFFFFFFFFFFFFFFFFFFFFFFFF AND DUP2 JUMP JUMPDEST PUSH1 0x0 DUP1 PUSH1 0x0 SWAP1 SLOAD SWAP1 PUSH2 0x100 EXP SWAP1 DIV PUSH20 0xFFFFFFFFFFFFFFFFFFFFFFFFFFFFFFFFFFFFFFFF AND SWAP1 POP SWAP1 JUMP JUMPDEST PUSH1 0x2 PUSH1 0x1 SLOAD EQ ISZERO PUSH2 0x4D5 JUMPI PUSH1 0x40 MLOAD PUSH32 0x8C379A000000000000000000000000000000000000000000000000000000000 DUP2 MSTORE PUSH1 0x4 ADD PUSH2 0x4CC SWAP1 PUSH2 0x1B5B JUMP JUMPDEST PUSH1 0x40 MLOAD DUP1 SWAP2 SUB SWAP1 REVERT JUMPDEST PUSH1 0x2 PUSH1 0x1 DUP2 SWAP1 SSTORE POP PUSH2 0x4E5 PUSH2 0x1420 JUMP JUMPDEST PUSH20 0xFFFFFFFFFFFFFFFFFFFFFFFFFFFFFFFFFFFFFFFF AND PUSH2 0x503 PUSH2 0x466 JUMP JUMPDEST PUSH20 0xFFFFFFFFFFFFFFFFFFFFFFFFFFFFFFFFFFFFFFFF AND EQ PUSH2 0x559 JUMPI PUSH1 0x40 MLOAD PUSH32 0x8C379A000000000000000000000000000000000000000000000000000000000 DUP2 MSTORE PUSH1 0x4 ADD PUSH2 0x550 SWAP1 PUSH2 0x1B1B JUMP JUMPDEST PUSH1 0x40 MLOAD DUP1 SWAP2 SUB SWAP1 REVERT JUMPDEST PUSH1 0x0 DUP2 GT PUSH2 0x59C JUMPI PUSH1 0x40 MLOAD PUSH32 0x8C379A000000000000000000000000000000000000000000000000000000000 DUP2 MSTORE PUSH1 0x4 ADD PUSH2 0x593 SWAP1 PUSH2 0x1B7B JUMP JUMPDEST PUSH1 0x40 MLOAD DUP1 SWAP2 SUB SWAP1 REVERT JUMPDEST PUSH1 0x7 SLOAD DUP2 LT ISZERO PUSH2 0x5E1 JUMPI PUSH1 0x40 MLOAD PUSH32 0x8C379A000000000000000000000000000000000000000000000000000000000 DUP2 MSTORE PUSH1 0x4 ADD PUSH2 0x5D8 SWAP1 PUSH2 0x1A9B JUMP JUMPDEST PUSH1 0x40 MLOAD DUP1 SWAP2 SUB SWAP1 REVERT JUMPDEST PUSH2 0x5EB PUSH1 0x2 PUSH2 0x14EC JUMP JUMPDEST PUSH1 0x0 PUSH2 0x5F7 PUSH1 0x2 PUSH2 0x1502 JUMP JUMPDEST SWAP1 POP PUSH1 0x40 MLOAD DUP1 PUSH2 0x100 ADD PUSH1 0x40 MSTORE DUP1 DUP3 DUP2 MSTORE PUSH1 0x20 ADD DUP5 DUP2 MSTORE PUSH1 0x20 ADD CALLER PUSH20 0xFFFFFFFFFFFFFFFFFFFFFFFFFFFFFFFFFFFFFFFF AND DUP2 MSTORE PUSH1 0x20 ADD PUSH1 0x0 PUSH20 0xFFFFFFFFFFFFFFFFFFFFFFFFFFFFFFFFFFFFFFFF AND DUP2 MSTORE PUSH1 0x20 ADD DUP4 DUP2 MSTORE PUSH1 0x20 ADD PUSH1 0x0 ISZERO ISZERO DUP2 MSTORE PUSH1 0x20 ADD PUSH1 0x0 ISZERO ISZERO DUP2 MSTORE PUSH1 0x20 ADD PUSH1 0x1 ISZERO ISZERO DUP2 MSTORE POP PUSH1 0x8 PUSH1 0x0 DUP4 DUP2 MSTORE PUSH1 0x20 ADD SWAP1 DUP2 MSTORE PUSH1 0x20 ADD PUSH1 0x0 KECCAK256 PUSH1 0x0 DUP3 ADD MLOAD DUP2 PUSH1 0x0 ADD SSTORE PUSH1 0x20 DUP3 ADD MLOAD DUP2 PUSH1 0x1 ADD SSTORE PUSH1 0x40 DUP3 ADD MLOAD DUP2 PUSH1 0x2 ADD PUSH1 0x0 PUSH2 0x100 EXP DUP2 SLOAD DUP2 PUSH20 0xFFFFFFFFFFFFFFFFFFFFFFFFFFFFFFFFFFFFFFFF MUL NOT AND SWAP1 DUP4 PUSH20 0xFFFFFFFFFFFFFFFFFFFFFFFFFFFFFFFFFFFFFFFF AND MUL OR SWAP1 SSTORE POP PUSH1 0x60 DUP3 ADD MLOAD DUP2 PUSH1 0x3 ADD PUSH1 0x0 PUSH2 0x100 EXP DUP2 SLOAD DUP2 PUSH20 0xFFFFFFFFFFFFFFFFFFFFFFFFFFFFFFFFFFFFFFFF MUL NOT AND SWAP1 DUP4 PUSH20 0xFFFFFFFFFFFFFFFFFFFFFFFFFFFFFFFFFFFFFFFF AND MUL OR SWAP1 SSTORE POP PUSH1 0x80 DUP3 ADD MLOAD DUP2 PUSH1 0x4 ADD SSTORE PUSH1 0xA0 DUP3 ADD MLOAD DUP2 PUSH1 0x5 ADD PUSH1 0x0 PUSH2 0x100 EXP DUP2 SLOAD DUP2 PUSH1 0xFF MUL NOT AND SWAP1 DUP4 ISZERO ISZERO MUL OR SWAP1 SSTORE POP PUSH1 0xC0 DUP3 ADD MLOAD DUP2 PUSH1 0x5 ADD PUSH1 0x1 PUSH2 0x100 EXP DUP2 SLOAD DUP2 PUSH1 0xFF MUL NOT AND SWAP1 DUP4 ISZERO ISZERO MUL OR SWAP1 SSTORE POP PUSH1 0xE0 DUP3 ADD MLOAD DUP2 PUSH1 0x5 ADD PUSH1 0x2 PUSH2 0x100 EXP DUP2 SLOAD DUP2 PUSH1 0xFF MUL NOT AND SWAP1 DUP4 ISZERO ISZERO MUL OR SWAP1 SSTORE POP SWAP1 POP POP PUSH1 0x6 PUSH1 0x0 SWAP1 SLOAD SWAP1 PUSH2 0x100 EXP SWAP1 DIV PUSH20 0xFFFFFFFFFFFFFFFFFFFFFFFFFFFFFFFFFFFFFFFF AND PUSH20 0xFFFFFFFFFFFFFFFFFFFFFFFFFFFFFFFFFFFFFFFF AND PUSH4 0x23B872DD CALLER ADDRESS PUSH1 0x7 SLOAD PUSH1 0x40 MLOAD DUP5 PUSH4 0xFFFFFFFF AND PUSH1 0xE0 SHL DUP2 MSTORE PUSH1 0x4 ADD PUSH2 0x7EC SWAP4 SWAP3 SWAP2 SWAP1 PUSH2 0x1A07 JUMP JUMPDEST PUSH1 0x20 PUSH1 0x40 MLOAD DUP1 DUP4 SUB DUP2 PUSH1 0x0 DUP8 DUP1 EXTCODESIZE ISZERO DUP1 ISZERO PUSH2 0x806 JUMPI PUSH1 0x0 DUP1 REVERT JUMPDEST POP GAS CALL ISZERO DUP1 ISZERO PUSH2 0x81A JUMPI RETURNDATASIZE PUSH1 0x0 DUP1 RETURNDATACOPY RETURNDATASIZE PUSH1 0x0 REVERT JUMPDEST POP POP POP POP PUSH1 0x40 MLOAD RETURNDATASIZE PUSH1 0x1F NOT PUSH1 0x1F DUP3 ADD AND DUP3 ADD DUP1 PUSH1 0x40 MSTORE POP DUP2 ADD SWAP1 PUSH2 0x83E SWAP2 SWAP1 PUSH2 0x15F3 JUMP JUMPDEST POP PUSH1 0x5 PUSH1 0x0 SWAP1 SLOAD SWAP1 PUSH2 0x100 EXP SWAP1 DIV PUSH20 0xFFFFFFFFFFFFFFFFFFFFFFFFFFFFFFFFFFFFFFFF AND PUSH20 0xFFFFFFFFFFFFFFFFFFFFFFFFFFFFFFFFFFFFFFFF AND PUSH4 0x42842E0E CALLER ADDRESS DUP7 PUSH1 0x40 MLOAD DUP5 PUSH4 0xFFFFFFFF AND PUSH1 0xE0 SHL DUP2 MSTORE PUSH1 0x4 ADD PUSH2 0x89E SWAP4 SWAP3 SWAP2 SWAP1 PUSH2 0x1A07 JUMP JUMPDEST PUSH1 0x0 PUSH1 0x40 MLOAD DUP1 DUP4 SUB DUP2 PUSH1 0x0 DUP8 DUP1 EXTCODESIZE ISZERO DUP1 ISZERO PUSH2 0x8B8 JUMPI PUSH1 0x0 DUP1 REVERT JUMPDEST POP GAS CALL ISZERO DUP1 ISZERO PUSH2 0x8CC JUMPI RETURNDATASIZE PUSH1 0x0 DUP1 RETURNDATACOPY RETURNDATASIZE PUSH1 0x0 REVERT JUMPDEST POP POP POP POP PUSH1 0x7 SLOAD PUSH1 0x4 PUSH1 0x0 DUP3 DUP3 SLOAD PUSH2 0x8E4 SWAP2 SWAP1 PUSH2 0x1C9A JUMP JUMPDEST SWAP3 POP POP DUP2 SWAP1 SSTORE POP DUP3 DUP2 PUSH32 0x38690A554FFBC44EB6A75016E47D517D0DB8E6C37494ADC68D6D0B2C66F0AB21 CALLER PUSH1 0x0 DUP7 PUSH1 0x40 MLOAD PUSH2 0x921 SWAP4 SWAP3 SWAP2 SWAP1 PUSH2 0x1A07 JUMP JUMPDEST PUSH1 0x40 MLOAD DUP1 SWAP2 SUB SWAP1 LOG3 POP PUSH1 0x1 DUP1 DUP2 SWAP1 SSTORE POP POP POP JUMP JUMPDEST PUSH1 0x2 PUSH1 0x1 SLOAD EQ ISZERO PUSH2 0x97B JUMPI PUSH1 0x40 MLOAD PUSH32 0x8C379A000000000000000000000000000000000000000000000000000000000 DUP2 MSTORE PUSH1 0x4 ADD PUSH2 0x972 SWAP1 PUSH2 0x1B5B JUMP JUMPDEST PUSH1 0x40 MLOAD DUP1 SWAP2 SUB SWAP1 REVERT JUMPDEST PUSH1 0x2 PUSH1 0x1 DUP2 SWAP1 SSTORE POP PUSH1 0x0 PUSH1 0x8 PUSH1 0x0 DUP5 DUP2 MSTORE PUSH1 0x20 ADD SWAP1 DUP2 MSTORE PUSH1 0x20 ADD PUSH1 0x0 KECCAK256 PUSH1 0x4 ADD SLOAD SWAP1 POP PUSH1 0x0 PUSH1 0x8 PUSH1 0x0 DUP6 DUP2 MSTORE PUSH1 0x20 ADD SWAP1 DUP2 MSTORE PUSH1 0x20 ADD PUSH1 0x0 KECCAK256 PUSH1 0x1 ADD SLOAD SWAP1 POP PUSH1 0x0 PUSH1 0x8 PUSH1 0x0 DUP7 DUP2 MSTORE PUSH1 0x20 ADD SWAP1 DUP2 MSTORE PUSH1 0x20 ADD PUSH1 0x0 KECCAK256 PUSH1 0x5 ADD PUSH1 0x1 SWAP1 SLOAD SWAP1 PUSH2 0x100 EXP SWAP1 DIV PUSH1 0xFF AND SWAP1 POP DUP3 DUP5 LT ISZERO PUSH2 0xA24 JUMPI PUSH1 0x40 MLOAD PUSH32 0x8C379A000000000000000000000000000000000000000000000000000000000 DUP2 MSTORE PUSH1 0x4 ADD PUSH2 0xA1B SWAP1 PUSH2 0x1A7B JUMP JUMPDEST PUSH1 0x40 MLOAD DUP1 SWAP2 SUB SWAP1 REVERT JUMPDEST PUSH1 0x1 ISZERO ISZERO DUP2 ISZERO ISZERO EQ PUSH2 0xA6B JUMPI PUSH1 0x40 MLOAD PUSH32 0x8C379A000000000000000000000000000000000000000000000000000000000 DUP2 MSTORE PUSH1 0x4 ADD PUSH2 0xA62 SWAP1 PUSH2 0x1ADB JUMP JUMPDEST PUSH1 0x40 MLOAD DUP1 SWAP2 SUB SWAP1 REVERT JUMPDEST PUSH1 0x0 PUSH1 0x8 PUSH1 0x0 DUP8 DUP2 MSTORE PUSH1 0x20 ADD SWAP1 DUP2 MSTORE PUSH1 0x20 ADD PUSH1 0x0 KECCAK256 PUSH1 0x2 ADD PUSH1 0x0 SWAP1 SLOAD SWAP1 PUSH2 0x100 EXP SWAP1 DIV PUSH20 0xFFFFFFFFFFFFFFFFFFFFFFFFFFFFFFFFFFFFFFFF AND SWAP1 POP CALLER PUSH1 0x8 PUSH1 0x0 DUP9 DUP2 MSTORE PUSH1 0x20 ADD SWAP1 DUP2 MSTORE PUSH1 0x20 ADD PUSH1 0x0 KECCAK256 PUSH1 0x3 ADD PUSH1 0x0 PUSH2 0x100 EXP DUP2 SLOAD DUP2 PUSH20 0xFFFFFFFFFFFFFFFFFFFFFFFFFFFFFFFFFFFFFFFF MUL NOT AND SWAP1 DUP4 PUSH20 0xFFFFFFFFFFFFFFFFFFFFFFFFFFFFFFFFFFFFFFFF AND MUL OR SWAP1 SSTORE POP CALLER PUSH1 0x8 PUSH1 0x0 DUP9 DUP2 MSTORE PUSH1 0x20 ADD SWAP1 DUP2 MSTORE PUSH1 0x20 ADD PUSH1 0x0 KECCAK256 PUSH1 0x2 ADD PUSH1 0x0 PUSH2 0x100 EXP DUP2 SLOAD DUP2 PUSH20 0xFFFFFFFFFFFFFFFFFFFFFFFFFFFFFFFFFFFFFFFF MUL NOT AND SWAP1 DUP4 PUSH20 0xFFFFFFFFFFFFFFFFFFFFFFFFFFFFFFFFFFFFFFFF AND MUL OR SWAP1 SSTORE POP PUSH1 0x1 PUSH1 0x8 PUSH1 0x0 DUP9 DUP2 MSTORE PUSH1 0x20 ADD SWAP1 DUP2 MSTORE PUSH1 0x20 ADD PUSH1 0x0 KECCAK256 PUSH1 0x5 ADD PUSH1 0x0 PUSH2 0x100 EXP DUP2 SLOAD DUP2 PUSH1 0xFF MUL NOT AND SWAP1 DUP4 ISZERO ISZERO MUL OR SWAP1 SSTORE POP PUSH1 0x0 PUSH1 0x8 PUSH1 0x0 DUP9 DUP2 MSTORE PUSH1 0x20 ADD SWAP1 DUP2 MSTORE PUSH1 0x20 ADD PUSH1 0x0 KECCAK256 PUSH1 0x5 ADD PUSH1 0x1 PUSH2 0x100 EXP DUP2 SLOAD DUP2 PUSH1 0xFF MUL NOT AND SWAP1 DUP4 ISZERO ISZERO MUL OR SWAP1 SSTORE POP PUSH1 0x5 PUSH1 0x0 SWAP1 SLOAD SWAP1 PUSH2 0x100 EXP SWAP1 DIV PUSH20 0xFFFFFFFFFFFFFFFFFFFFFFFFFFFFFFFFFFFFFFFF AND PUSH20 0xFFFFFFFFFFFFFFFFFFFFFFFFFFFFFFFFFFFFFFFF AND PUSH4 0x23B872DD DUP3 CALLER DUP7 PUSH1 0x40 MLOAD DUP5 PUSH4 0xFFFFFFFF AND PUSH1 0xE0 SHL DUP2 MSTORE PUSH1 0x4 ADD PUSH2 0xC0D SWAP4 SWAP3 SWAP2 SWAP1 PUSH2 0x1A07 JUMP JUMPDEST PUSH1 0x0 PUSH1 0x40 MLOAD DUP1 DUP4 SUB DUP2 PUSH1 0x0 DUP8 DUP1 EXTCODESIZE ISZERO DUP1 ISZERO PUSH2 0xC27 JUMPI PUSH1 0x0 DUP1 REVERT JUMPDEST POP GAS CALL ISZERO DUP1 ISZERO PUSH2 0xC3B JUMPI RETURNDATASIZE PUSH1 0x0 DUP1 RETURNDATACOPY RETURNDATASIZE PUSH1 0x0 REVERT JUMPDEST POP POP POP POP PUSH1 0x6 PUSH1 0x0 SWAP1 SLOAD SWAP1 PUSH2 0x100 EXP SWAP1 DIV PUSH20 0xFFFFFFFFFFFFFFFFFFFFFFFFFFFFFFFFFFFFFFFF AND PUSH20 0xFFFFFFFFFFFFFFFFFFFFFFFFFFFFFFFFFFFFFFFF AND PUSH4 0x23B872DD CALLER DUP4 DUP9 PUSH1 0x40 MLOAD DUP5 PUSH4 0xFFFFFFFF AND PUSH1 0xE0 SHL DUP2 MSTORE PUSH1 0x4 ADD PUSH2 0xC9E SWAP4 SWAP3 SWAP2 SWAP1 PUSH2 0x1A07 JUMP JUMPDEST PUSH1 0x20 PUSH1 0x40 MLOAD DUP1 DUP4 SUB DUP2 PUSH1 0x0 DUP8 DUP1 EXTCODESIZE ISZERO DUP1 ISZERO PUSH2 0xCB8 JUMPI PUSH1 0x0 DUP1 REVERT JUMPDEST POP GAS CALL ISZERO DUP1 ISZERO PUSH2 0xCCC JUMPI RETURNDATASIZE PUSH1 0x0 DUP1 RETURNDATACOPY RETURNDATASIZE PUSH1 0x0 REVERT JUMPDEST POP POP POP POP PUSH1 0x40 MLOAD RETURNDATASIZE PUSH1 0x1F NOT PUSH1 0x1F DUP3 ADD AND DUP3 ADD DUP1 PUSH1 0x40 MSTORE POP DUP2 ADD SWAP1 PUSH2 0xCF0 SWAP2 SWAP1 PUSH2 0x15F3 JUMP JUMPDEST POP PUSH2 0xCFB PUSH1 0x3 PUSH2 0x14EC JUMP JUMPDEST POP POP POP POP PUSH1 0x1 DUP1 DUP2 SWAP1 SSTORE POP POP POP JUMP JUMPDEST PUSH1 0x60 PUSH1 0x0 PUSH2 0xD18 PUSH1 0x2 PUSH2 0x1502 JUMP JUMPDEST SWAP1 POP PUSH1 0x0 PUSH2 0xD26 PUSH1 0x3 PUSH2 0x1502 JUMP JUMPDEST PUSH2 0xD30 PUSH1 0x2 PUSH2 0x1502 JUMP JUMPDEST PUSH2 0xD3A SWAP2 SWAP1 PUSH2 0x1CF0 JUMP JUMPDEST SWAP1 POP PUSH1 0x0 DUP1 DUP3 PUSH8 0xFFFFFFFFFFFFFFFF DUP2 GT ISZERO PUSH2 0xD59 JUMPI PUSH2 0xD58 PUSH2 0x1E3F JUMP JUMPDEST JUMPDEST PUSH1 0x40 MLOAD SWAP1 DUP1 DUP3 MSTORE DUP1 PUSH1 0x20 MUL PUSH1 0x20 ADD DUP3 ADD PUSH1 0x40 MSTORE DUP1 ISZERO PUSH2 0xD92 JUMPI DUP2 PUSH1 0x20 ADD JUMPDEST PUSH2 0xD7F PUSH2 0x1510 JUMP JUMPDEST DUP2 MSTORE PUSH1 0x20 ADD SWAP1 PUSH1 0x1 SWAP1 SUB SWAP1 DUP2 PUSH2 0xD77 JUMPI SWAP1 POP JUMPDEST POP SWAP1 POP PUSH1 0x0 JUMPDEST DUP5 DUP2 LT ISZERO PUSH2 0xF67 JUMPI PUSH1 0x8 PUSH1 0x0 PUSH1 0x1 DUP4 PUSH2 0xDB1 SWAP2 SWAP1 PUSH2 0x1C9A JUMP JUMPDEST DUP2 MSTORE PUSH1 0x20 ADD SWAP1 DUP2 MSTORE PUSH1 0x20 ADD PUSH1 0x0 KECCAK256 PUSH1 0x5 ADD PUSH1 0x0 SWAP1 SLOAD SWAP1 PUSH2 0x100 EXP SWAP1 DIV PUSH1 0xFF AND PUSH2 0xF54 JUMPI PUSH1 0x0 PUSH1 0x1 DUP3 PUSH2 0xDE3 SWAP2 SWAP1 PUSH2 0x1C9A JUMP JUMPDEST SWAP1 POP PUSH1 0x0 PUSH1 0x8 PUSH1 0x0 DUP4 DUP2 MSTORE PUSH1 0x20 ADD SWAP1 DUP2 MSTORE PUSH1 0x20 ADD PUSH1 0x0 KECCAK256 PUSH1 0x40 MLOAD DUP1 PUSH2 0x100 ADD PUSH1 0x40 MSTORE SWAP1 DUP2 PUSH1 0x0 DUP3 ADD SLOAD DUP2 MSTORE PUSH1 0x20 ADD PUSH1 0x1 DUP3 ADD SLOAD DUP2 MSTORE PUSH1 0x20 ADD PUSH1 0x2 DUP3 ADD PUSH1 0x0 SWAP1 SLOAD SWAP1 PUSH2 0x100 EXP SWAP1 DIV PUSH20 0xFFFFFFFFFFFFFFFFFFFFFFFFFFFFFFFFFFFFFFFF AND PUSH20 0xFFFFFFFFFFFFFFFFFFFFFFFFFFFFFFFFFFFFFFFF AND PUSH20 0xFFFFFFFFFFFFFFFFFFFFFFFFFFFFFFFFFFFFFFFF AND DUP2 MSTORE PUSH1 0x20 ADD PUSH1 0x3 DUP3 ADD PUSH1 0x0 SWAP1 SLOAD SWAP1 PUSH2 0x100 EXP SWAP1 DIV PUSH20 0xFFFFFFFFFFFFFFFFFFFFFFFFFFFFFFFFFFFFFFFF AND PUSH20 0xFFFFFFFFFFFFFFFFFFFFFFFFFFFFFFFFFFFFFFFF AND PUSH20 0xFFFFFFFFFFFFFFFFFFFFFFFFFFFFFFFFFFFFFFFF AND DUP2 MSTORE PUSH1 0x20 ADD PUSH1 0x4 DUP3 ADD SLOAD DUP2 MSTORE PUSH1 0x20 ADD PUSH1 0x5 DUP3 ADD PUSH1 0x0 SWAP1 SLOAD SWAP1 PUSH2 0x100 EXP SWAP1 DIV PUSH1 0xFF AND ISZERO ISZERO ISZERO ISZERO DUP2 MSTORE PUSH1 0x20 ADD PUSH1 0x5 DUP3 ADD PUSH1 0x1 SWAP1 SLOAD SWAP1 PUSH2 0x100 EXP SWAP1 DIV PUSH1 0xFF AND ISZERO ISZERO ISZERO ISZERO DUP2 MSTORE PUSH1 0x20 ADD PUSH1 0x5 DUP3 ADD PUSH1 0x2 SWAP1 SLOAD SWAP1 PUSH2 0x100 EXP SWAP1 DIV PUSH1 0xFF AND ISZERO ISZERO ISZERO ISZERO DUP2 MSTORE POP POP SWAP1 POP DUP1 DUP5 DUP7 DUP2 MLOAD DUP2 LT PUSH2 0xF37 JUMPI PUSH2 0xF36 PUSH2 0x1E10 JUMP JUMPDEST JUMPDEST PUSH1 0x20 MUL PUSH1 0x20 ADD ADD DUP2 SWAP1 MSTORE POP PUSH1 0x1 DUP6 PUSH2 0xF4F SWAP2 SWAP1 PUSH2 0x1C9A JUMP JUMPDEST SWAP5 POP POP POP JUMPDEST DUP1 DUP1 PUSH2 0xF5F SWAP1 PUSH2 0x1D98 JUMP JUMPDEST SWAP2 POP POP PUSH2 0xD98 JUMP JUMPDEST POP DUP1 SWAP5 POP POP POP POP POP SWAP1 JUMP JUMPDEST PUSH1 0x2 PUSH1 0x1 SLOAD EQ ISZERO PUSH2 0xFB8 JUMPI PUSH1 0x40 MLOAD PUSH32 0x8C379A000000000000000000000000000000000000000000000000000000000 DUP2 MSTORE PUSH1 0x4 ADD PUSH2 0xFAF SWAP1 PUSH2 0x1B5B JUMP JUMPDEST PUSH1 0x40 MLOAD DUP1 SWAP2 SUB SWAP1 REVERT JUMPDEST PUSH1 0x2 PUSH1 0x1 DUP2 SWAP1 SSTORE POP PUSH1 0x0 PUSH1 0x8 PUSH1 0x0 DUP4 DUP2 MSTORE PUSH1 0x20 ADD SWAP1 DUP2 MSTORE PUSH1 0x20 ADD PUSH1 0x0 KECCAK256 PUSH1 0x40 MLOAD DUP1 PUSH2 0x100 ADD PUSH1 0x40 MSTORE SWAP1 DUP2 PUSH1 0x0 DUP3 ADD SLOAD DUP2 MSTORE PUSH1 0x20 ADD PUSH1 0x1 DUP3 ADD SLOAD DUP2 MSTORE PUSH1 0x20 ADD PUSH1 0x2 DUP3 ADD PUSH1 0x0 SWAP1 SLOAD SWAP1 PUSH2 0x100 EXP SWAP1 DIV PUSH20 0xFFFFFFFFFFFFFFFFFFFFFFFFFFFFFFFFFFFFFFFF AND PUSH20 0xFFFFFFFFFFFFFFFFFFFFFFFFFFFFFFFFFFFFFFFF AND PUSH20 0xFFFFFFFFFFFFFFFFFFFFFFFFFFFFFFFFFFFFFFFF AND DUP2 MSTORE PUSH1 0x20 ADD PUSH1 0x3 DUP3 ADD PUSH1 0x0 SWAP1 SLOAD SWAP1 PUSH2 0x100 EXP SWAP1 DIV PUSH20 0xFFFFFFFFFFFFFFFFFFFFFFFFFFFFFFFFFFFFFFFF AND PUSH20 0xFFFFFFFFFFFFFFFFFFFFFFFFFFFFFFFFFFFFFFFF AND PUSH20 0xFFFFFFFFFFFFFFFFFFFFFFFFFFFFFFFFFFFFFFFF AND DUP2 MSTORE PUSH1 0x20 ADD PUSH1 0x4 DUP3 ADD SLOAD DUP2 MSTORE PUSH1 0x20 ADD PUSH1 0x5 DUP3 ADD PUSH1 0x0 SWAP1 SLOAD SWAP1 PUSH2 0x100 EXP SWAP1 DIV PUSH1 0xFF AND ISZERO ISZERO ISZERO ISZERO DUP2 MSTORE PUSH1 0x20 ADD PUSH1 0x5 DUP3 ADD PUSH1 0x1 SWAP1 SLOAD SWAP1 PUSH2 0x100 EXP SWAP1 DIV PUSH1 0xFF AND ISZERO ISZERO ISZERO ISZERO DUP2 MSTORE PUSH1 0x20 ADD PUSH1 0x5 DUP3 ADD PUSH1 0x2 SWAP1 SLOAD SWAP1 PUSH2 0x100 EXP SWAP1 DIV PUSH1 0xFF AND ISZERO ISZERO ISZERO ISZERO DUP2 MSTORE POP POP SWAP1 POP CALLER PUSH20 0xFFFFFFFFFFFFFFFFFFFFFFFFFFFFFFFFFFFFFFFF AND DUP2 PUSH1 0x60 ADD MLOAD PUSH20 0xFFFFFFFFFFFFFFFFFFFFFFFFFFFFFFFFFFFFFFFF AND EQ PUSH2 0x1170 JUMPI PUSH1 0x40 MLOAD PUSH32 0x8C379A000000000000000000000000000000000000000000000000000000000 DUP2 MSTORE PUSH1 0x4 ADD PUSH2 0x1167 SWAP1 PUSH2 0x1AFB JUMP JUMPDEST PUSH1 0x40 MLOAD DUP1 SWAP2 SUB SWAP1 REVERT JUMPDEST PUSH1 0x1 ISZERO ISZERO DUP2 PUSH1 0xE0 ADD MLOAD ISZERO ISZERO EQ PUSH2 0x11BB JUMPI PUSH1 0x40 MLOAD PUSH32 0x8C379A000000000000000000000000000000000000000000000000000000000 DUP2 MSTORE PUSH1 0x4 ADD PUSH2 0x11B2 SWAP1 PUSH2 0x1B3B JUMP JUMPDEST PUSH1 0x40 MLOAD DUP1 SWAP2 SUB SWAP1 REVERT JUMPDEST PUSH1 0x1 PUSH1 0x8 PUSH1 0x0 DUP5 DUP2 MSTORE PUSH1 0x20 ADD SWAP1 DUP2 MSTORE PUSH1 0x20 ADD PUSH1 0x0 KECCAK256 PUSH1 0x5 ADD PUSH1 0x1 PUSH2 0x100 EXP DUP2 SLOAD DUP2 PUSH1 0xFF MUL NOT AND SWAP1 DUP4 ISZERO ISZERO MUL OR SWAP1 SSTORE POP DUP1 PUSH1 0x20 ADD MLOAD DUP3 PUSH32 0xB59DFC56DB79C6259BCD97A3FC890AB90008A8B5781D89DD763E01651BC7BC8 CALLER DUP5 PUSH1 0x40 ADD MLOAD DUP6 PUSH1 0x80 ADD MLOAD PUSH1 0x40 MLOAD PUSH2 0x122B SWAP4 SWAP3 SWAP2 SWAP1 PUSH2 0x1A07 JUMP JUMPDEST PUSH1 0x40 MLOAD DUP1 SWAP2 SUB SWAP1 LOG3 POP PUSH1 0x1 DUP1 DUP2 SWAP1 SSTORE POP POP JUMP JUMPDEST PUSH1 0x0 PUSH4 0xA8FCC417 PUSH1 0xE0 SHL SWAP1 POP SWAP1 JUMP JUMPDEST PUSH1 0x7 SLOAD DUP2 JUMP JUMPDEST PUSH1 0x5 PUSH1 0x0 SWAP1 SLOAD SWAP1 PUSH2 0x100 EXP SWAP1 DIV PUSH20 0xFFFFFFFFFFFFFFFFFFFFFFFFFFFFFFFFFFFFFFFF AND DUP2 JUMP JUMPDEST PUSH1 0x8 PUSH1 0x20 MSTORE DUP1 PUSH1 0x0 MSTORE PUSH1 0x40 PUSH1 0x0 KECCAK256 PUSH1 0x0 SWAP2 POP SWAP1 POP DUP1 PUSH1 0x0 ADD SLOAD SWAP1 DUP1 PUSH1 0x1 ADD SLOAD SWAP1 DUP1 PUSH1 0x2 ADD PUSH1 0x0 SWAP1 SLOAD SWAP1 PUSH2 0x100 EXP SWAP1 DIV PUSH20 0xFFFFFFFFFFFFFFFFFFFFFFFFFFFFFFFFFFFFFFFF AND SWAP1 DUP1 PUSH1 0x3 ADD PUSH1 0x0 SWAP1 SLOAD SWAP1 PUSH2 0x100 EXP SWAP1 DIV PUSH20 0xFFFFFFFFFFFFFFFFFFFFFFFFFFFFFFFFFFFFFFFF AND SWAP1 DUP1 PUSH1 0x4 ADD SLOAD SWAP1 DUP1 PUSH1 0x5 ADD PUSH1 0x0 SWAP1 SLOAD SWAP1 PUSH2 0x100 EXP SWAP1 DIV PUSH1 0xFF AND SWAP1 DUP1 PUSH1 0x5 ADD PUSH1 0x1 SWAP1 SLOAD SWAP1 PUSH2 0x100 EXP SWAP1 DIV PUSH1 0xFF AND SWAP1 DUP1 PUSH1 0x5 ADD PUSH1 0x2 SWAP1 SLOAD SWAP1 PUSH2 0x100 EXP SWAP1 DIV PUSH1 0xFF AND SWAP1 POP DUP9 JUMP JUMPDEST PUSH2 0x1330 PUSH2 0x1420 JUMP JUMPDEST PUSH20 0xFFFFFFFFFFFFFFFFFFFFFFFFFFFFFFFFFFFFFFFF AND PUSH2 0x134E PUSH2 0x466 JUMP JUMPDEST PUSH20 0xFFFFFFFFFFFFFFFFFFFFFFFFFFFFFFFFFFFFFFFF AND EQ PUSH2 0x13A4 JUMPI PUSH1 0x40 MLOAD PUSH32 0x8C379A000000000000000000000000000000000000000000000000000000000 DUP2 MSTORE PUSH1 0x4 ADD PUSH2 0x139B SWAP1 PUSH2 0x1B1B JUMP JUMPDEST PUSH1 0x40 MLOAD DUP1 SWAP2 SUB SWAP1 REVERT JUMPDEST PUSH1 0x0 PUSH20 0xFFFFFFFFFFFFFFFFFFFFFFFFFFFFFFFFFFFFFFFF AND DUP2 PUSH20 0xFFFFFFFFFFFFFFFFFFFFFFFFFFFFFFFFFFFFFFFF AND EQ ISZERO PUSH2 0x1414 JUMPI PUSH1 0x40 MLOAD PUSH32 0x8C379A000000000000000000000000000000000000000000000000000000000 DUP2 MSTORE PUSH1 0x4 ADD PUSH2 0x140B SWAP1 PUSH2 0x1ABB JUMP JUMPDEST PUSH1 0x40 MLOAD DUP1 SWAP2 SUB SWAP1 REVERT JUMPDEST PUSH2 0x141D DUP2 PUSH2 0x1428 JUMP JUMPDEST POP JUMP JUMPDEST PUSH1 0x0 CALLER SWAP1 POP SWAP1 JUMP JUMPDEST PUSH1 0x0 DUP1 PUSH1 0x0 SWAP1 SLOAD SWAP1 PUSH2 0x100 EXP SWAP1 DIV PUSH20 0xFFFFFFFFFFFFFFFFFFFFFFFFFFFFFFFFFFFFFFFF AND SWAP1 POP DUP2 PUSH1 0x0 DUP1 PUSH2 0x100 EXP DUP2 SLOAD DUP2 PUSH20 0xFFFFFFFFFFFFFFFFFFFFFFFFFFFFFFFFFFFFFFFF MUL NOT AND SWAP1 DUP4 PUSH20 0xFFFFFFFFFFFFFFFFFFFFFFFFFFFFFFFFFFFFFFFF AND MUL OR SWAP1 SSTORE POP DUP2 PUSH20 0xFFFFFFFFFFFFFFFFFFFFFFFFFFFFFFFFFFFFFFFF AND DUP2 PUSH20 0xFFFFFFFFFFFFFFFFFFFFFFFFFFFFFFFFFFFFFFFF AND PUSH32 0x8BE0079C531659141344CD1FD0A4F28419497F9722A3DAAFE3B4186F6B6457E0 PUSH1 0x40 MLOAD PUSH1 0x40 MLOAD DUP1 SWAP2 SUB SWAP1 LOG3 POP POP JUMP JUMPDEST PUSH1 0x1 DUP2 PUSH1 0x0 ADD PUSH1 0x0 DUP3 DUP3 SLOAD ADD SWAP3 POP POP DUP2 SWAP1 SSTORE POP POP JUMP JUMPDEST PUSH1 0x0 DUP2 PUSH1 0x0 ADD SLOAD SWAP1 POP SWAP2 SWAP1 POP JUMP JUMPDEST PUSH1 0x40 MLOAD DUP1 PUSH2 0x100 ADD PUSH1 0x40 MSTORE DUP1 PUSH1 0x0 DUP2 MSTORE PUSH1 0x20 ADD PUSH1 0x0 DUP2 MSTORE PUSH1 0x20 ADD PUSH1 0x0 PUSH20 0xFFFFFFFFFFFFFFFFFFFFFFFFFFFFFFFFFFFFFFFF AND DUP2 MSTORE PUSH1 0x20 ADD PUSH1 0x0 PUSH20 0xFFFFFFFFFFFFFFFFFFFFFFFFFFFFFFFFFFFFFFFF AND DUP2 MSTORE PUSH1 0x20 ADD PUSH1 0x0 DUP2 MSTORE PUSH1 0x20 ADD PUSH1 0x0 ISZERO ISZERO DUP2 MSTORE PUSH1 0x20 ADD PUSH1 0x0 ISZERO ISZERO DUP2 MSTORE PUSH1 0x20 ADD PUSH1 0x0 ISZERO ISZERO DUP2 MSTORE POP SWAP1 JUMP JUMPDEST PUSH1 0x0 DUP2 CALLDATALOAD SWAP1 POP PUSH2 0x1596 DUP2 PUSH2 0x2030 JUMP JUMPDEST SWAP3 SWAP2 POP POP JUMP JUMPDEST PUSH1 0x0 DUP2 MLOAD SWAP1 POP PUSH2 0x15AB DUP2 PUSH2 0x2047 JUMP JUMPDEST SWAP3 SWAP2 POP POP JUMP JUMPDEST PUSH1 0x0 DUP2 CALLDATALOAD SWAP1 POP PUSH2 0x15C0 DUP2 PUSH2 0x205E JUMP JUMPDEST SWAP3 SWAP2 POP POP JUMP JUMPDEST PUSH1 0x0 PUSH1 0x20 DUP3 DUP5 SUB SLT ISZERO PUSH2 0x15DC JUMPI PUSH2 0x15DB PUSH2 0x1E6E JUMP JUMPDEST JUMPDEST PUSH1 0x0 PUSH2 0x15EA DUP5 DUP3 DUP6 ADD PUSH2 0x1587 JUMP JUMPDEST SWAP2 POP POP SWAP3 SWAP2 POP POP JUMP JUMPDEST PUSH1 0x0 PUSH1 0x20 DUP3 DUP5 SUB SLT ISZERO PUSH2 0x1609 JUMPI PUSH2 0x1608 PUSH2 0x1E6E JUMP JUMPDEST JUMPDEST PUSH1 0x0 PUSH2 0x1617 DUP5 DUP3 DUP6 ADD PUSH2 0x159C JUMP JUMPDEST SWAP2 POP POP SWAP3 SWAP2 POP POP JUMP JUMPDEST PUSH1 0x0 PUSH1 0x20 DUP3 DUP5 SUB SLT ISZERO PUSH2 0x1636 JUMPI PUSH2 0x1635 PUSH2 0x1E6E JUMP JUMPDEST JUMPDEST PUSH1 0x0 PUSH2 0x1644 DUP5 DUP3 DUP6 ADD PUSH2 0x15B1 JUMP JUMPDEST SWAP2 POP POP SWAP3 SWAP2 POP POP JUMP JUMPDEST PUSH1 0x0 DUP1 PUSH1 0x40 DUP4 DUP6 SUB SLT ISZERO PUSH2 0x1664 JUMPI PUSH2 0x1663 PUSH2 0x1E6E JUMP JUMPDEST JUMPDEST PUSH1 0x0 PUSH2 0x1672 DUP6 DUP3 DUP7 ADD PUSH2 0x15B1 JUMP JUMPDEST SWAP3 POP POP PUSH1 0x20 PUSH2 0x1683 DUP6 DUP3 DUP7 ADD PUSH2 0x15B1 JUMP JUMPDEST SWAP2 POP POP SWAP3 POP SWAP3 SWAP1 POP JUMP JUMPDEST PUSH1 0x0 PUSH2 0x1699 DUP4 DUP4 PUSH2 0x188A JUMP JUMPDEST PUSH2 0x100 DUP4 ADD SWAP1 POP SWAP3 SWAP2 POP POP JUMP JUMPDEST PUSH2 0x16AF DUP2 PUSH2 0x1D24 JUMP JUMPDEST DUP3 MSTORE POP POP JUMP JUMPDEST PUSH2 0x16BE DUP2 PUSH2 0x1D24 JUMP JUMPDEST DUP3 MSTORE POP POP JUMP JUMPDEST PUSH1 0x0 PUSH2 0x16CF DUP3 PUSH2 0x1C60 JUMP JUMPDEST PUSH2 0x16D9 DUP2 DUP6 PUSH2 0x1C78 JUMP JUMPDEST SWAP4 POP PUSH2 0x16E4 DUP4 PUSH2 0x1C50 JUMP JUMPDEST DUP1 PUSH1 0x0 JUMPDEST DUP4 DUP2 LT ISZERO PUSH2 0x1715 JUMPI DUP2 MLOAD PUSH2 0x16FC DUP9 DUP3 PUSH2 0x168D JUMP JUMPDEST SWAP8 POP PUSH2 0x1707 DUP4 PUSH2 0x1C6B JUMP JUMPDEST SWAP3 POP POP PUSH1 0x1 DUP2 ADD SWAP1 POP PUSH2 0x16E8 JUMP JUMPDEST POP DUP6 SWAP4 POP POP POP POP SWAP3 SWAP2 POP POP JUMP JUMPDEST PUSH2 0x172B DUP2 PUSH2 0x1D36 JUMP JUMPDEST DUP3 MSTORE POP POP JUMP JUMPDEST PUSH2 0x173A DUP2 PUSH2 0x1D36 JUMP JUMPDEST DUP3 MSTORE POP POP JUMP JUMPDEST PUSH2 0x1749 DUP2 PUSH2 0x1D42 JUMP JUMPDEST DUP3 MSTORE POP POP JUMP JUMPDEST PUSH1 0x0 PUSH2 0x175C PUSH1 0x1B DUP4 PUSH2 0x1C89 JUMP JUMPDEST SWAP2 POP PUSH2 0x1767 DUP3 PUSH2 0x1E73 JUMP JUMPDEST PUSH1 0x20 DUP3 ADD SWAP1 POP SWAP2 SWAP1 POP JUMP JUMPDEST PUSH1 0x0 PUSH2 0x177F PUSH1 0x2E DUP4 PUSH2 0x1C89 JUMP JUMPDEST SWAP2 POP PUSH2 0x178A DUP3 PUSH2 0x1E9C JUMP JUMPDEST PUSH1 0x40 DUP3 ADD SWAP1 POP SWAP2 SWAP1 POP JUMP JUMPDEST PUSH1 0x0 PUSH2 0x17A2 PUSH1 0x26 DUP4 PUSH2 0x1C89 JUMP JUMPDEST SWAP2 POP PUSH2 0x17AD DUP3 PUSH2 0x1EEB JUMP JUMPDEST PUSH1 0x40 DUP3 ADD SWAP1 POP SWAP2 SWAP1 POP JUMP JUMPDEST PUSH1 0x0 PUSH2 0x17C5 PUSH1 0x11 DUP4 PUSH2 0x1C89 JUMP JUMPDEST SWAP2 POP PUSH2 0x17D0 DUP3 PUSH2 0x1F3A JUMP JUMPDEST PUSH1 0x20 DUP3 ADD SWAP1 POP SWAP2 SWAP1 POP JUMP JUMPDEST PUSH1 0x0 PUSH2 0x17E8 PUSH1 0x20 DUP4 PUSH2 0x1C89 JUMP JUMPDEST SWAP2 POP PUSH2 0x17F3 DUP3 PUSH2 0x1F63 JUMP JUMPDEST PUSH1 0x20 DUP3 ADD SWAP1 POP SWAP2 SWAP1 POP JUMP JUMPDEST PUSH1 0x0 PUSH2 0x180B PUSH1 0x20 DUP4 PUSH2 0x1C89 JUMP JUMPDEST SWAP2 POP PUSH2 0x1816 DUP3 PUSH2 0x1F8C JUMP JUMPDEST PUSH1 0x20 DUP3 ADD SWAP1 POP SWAP2 SWAP1 POP JUMP JUMPDEST PUSH1 0x0 PUSH2 0x182E PUSH1 0x14 DUP4 PUSH2 0x1C89 JUMP JUMPDEST SWAP2 POP PUSH2 0x1839 DUP3 PUSH2 0x1FB5 JUMP JUMPDEST PUSH1 0x20 DUP3 ADD SWAP1 POP SWAP2 SWAP1 POP JUMP JUMPDEST PUSH1 0x0 PUSH2 0x1851 PUSH1 0x1F DUP4 PUSH2 0x1C89 JUMP JUMPDEST SWAP2 POP PUSH2 0x185C DUP3 PUSH2 0x1FDE JUMP JUMPDEST PUSH1 0x20 DUP3 ADD SWAP1 POP SWAP2 SWAP1 POP JUMP JUMPDEST PUSH1 0x0 PUSH2 0x1874 PUSH1 0x1C DUP4 PUSH2 0x1C89 JUMP JUMPDEST SWAP2 POP PUSH2 0x187F DUP3 PUSH2 0x2007 JUMP JUMPDEST PUSH1 0x20 DUP3 ADD SWAP1 POP SWAP2 SWAP1 POP JUMP JUMPDEST PUSH2 0x100 DUP3 ADD PUSH1 0x0 DUP3 ADD MLOAD PUSH2 0x18A1 PUSH1 0x0 DUP6 ADD DUP3 PUSH2 0x19CE JUMP JUMPDEST POP PUSH1 0x20 DUP3 ADD MLOAD PUSH2 0x18B4 PUSH1 0x20 DUP6 ADD DUP3 PUSH2 0x19CE JUMP JUMPDEST POP PUSH1 0x40 DUP3 ADD MLOAD PUSH2 0x18C7 PUSH1 0x40 DUP6 ADD DUP3 PUSH2 0x16A6 JUMP JUMPDEST POP PUSH1 0x60 DUP3 ADD MLOAD PUSH2 0x18DA PUSH1 0x60 DUP6 ADD DUP3 PUSH2 0x16A6 JUMP JUMPDEST POP PUSH1 0x80 DUP3 ADD MLOAD PUSH2 0x18ED PUSH1 0x80 DUP6 ADD DUP3 PUSH2 0x19CE JUMP JUMPDEST POP PUSH1 0xA0 DUP3 ADD MLOAD PUSH2 0x1900 PUSH1 0xA0 DUP6 ADD DUP3 PUSH2 0x1722 JUMP JUMPDEST POP PUSH1 0xC0 DUP3 ADD MLOAD PUSH2 0x1913 PUSH1 0xC0 DUP6 ADD DUP3 PUSH2 0x1722 JUMP JUMPDEST POP PUSH1 0xE0 DUP3 ADD MLOAD PUSH2 0x1926 PUSH1 0xE0 DUP6 ADD DUP3 PUSH2 0x1722 JUMP JUMPDEST POP POP POP POP JUMP JUMPDEST PUSH2 0x100 DUP3 ADD PUSH1 0x0 DUP3 ADD MLOAD PUSH2 0x1943 PUSH1 0x0 DUP6 ADD DUP3 PUSH2 0x19CE JUMP JUMPDEST POP PUSH1 0x20 DUP3 ADD MLOAD PUSH2 0x1956 PUSH1 0x20 DUP6 ADD DUP3 PUSH2 0x19CE JUMP JUMPDEST POP PUSH1 0x40 DUP3 ADD MLOAD PUSH2 0x1969 PUSH1 0x40 DUP6 ADD DUP3 PUSH2 0x16A6 JUMP JUMPDEST POP PUSH1 0x60 DUP3 ADD MLOAD PUSH2 0x197C PUSH1 0x60 DUP6 ADD DUP3 PUSH2 0x16A6 JUMP JUMPDEST POP PUSH1 0x80 DUP3 ADD MLOAD PUSH2 0x198F PUSH1 0x80 DUP6 ADD DUP3 PUSH2 0x19CE JUMP JUMPDEST POP PUSH1 0xA0 DUP3 ADD MLOAD PUSH2 0x19A2 PUSH1 0xA0 DUP6 ADD DUP3 PUSH2 0x1722 JUMP JUMPDEST POP PUSH1 0xC0 DUP3 ADD MLOAD PUSH2 0x19B5 PUSH1 0xC0 DUP6 ADD DUP3 PUSH2 0x1722 JUMP JUMPDEST POP PUSH1 0xE0 DUP3 ADD MLOAD PUSH2 0x19C8 PUSH1 0xE0 DUP6 ADD DUP3 PUSH2 0x1722 JUMP JUMPDEST POP POP POP POP JUMP JUMPDEST PUSH2 0x19D7 DUP2 PUSH2 0x1D8E JUMP JUMPDEST DUP3 MSTORE POP POP JUMP JUMPDEST PUSH2 0x19E6 DUP2 PUSH2 0x1D8E JUMP JUMPDEST DUP3 MSTORE POP POP JUMP JUMPDEST PUSH1 0x0 PUSH1 0x20 DUP3 ADD SWAP1 POP PUSH2 0x1A01 PUSH1 0x0 DUP4 ADD DUP5 PUSH2 0x16B5 JUMP JUMPDEST SWAP3 SWAP2 POP POP JUMP JUMPDEST PUSH1 0x0 PUSH1 0x60 DUP3 ADD SWAP1 POP PUSH2 0x1A1C PUSH1 0x0 DUP4 ADD DUP7 PUSH2 0x16B5 JUMP JUMPDEST PUSH2 0x1A29 PUSH1 0x20 DUP4 ADD DUP6 PUSH2 0x16B5 JUMP JUMPDEST PUSH2 0x1A36 PUSH1 0x40 DUP4 ADD DUP5 PUSH2 0x19DD JUMP JUMPDEST SWAP5 SWAP4 POP POP POP POP JUMP JUMPDEST PUSH1 0x0 PUSH1 0x20 DUP3 ADD SWAP1 POP DUP2 DUP2 SUB PUSH1 0x0 DUP4 ADD MSTORE PUSH2 0x1A58 DUP2 DUP5 PUSH2 0x16C4 JUMP JUMPDEST SWAP1 POP SWAP3 SWAP2 POP POP JUMP JUMPDEST PUSH1 0x0 PUSH1 0x20 DUP3 ADD SWAP1 POP PUSH2 0x1A75 PUSH1 0x0 DUP4 ADD DUP5 PUSH2 0x1740 JUMP JUMPDEST SWAP3 SWAP2 POP POP JUMP JUMPDEST PUSH1 0x0 PUSH1 0x20 DUP3 ADD SWAP1 POP DUP2 DUP2 SUB PUSH1 0x0 DUP4 ADD MSTORE PUSH2 0x1A94 DUP2 PUSH2 0x174F JUMP JUMPDEST SWAP1 POP SWAP2 SWAP1 POP JUMP JUMPDEST PUSH1 0x0 PUSH1 0x20 DUP3 ADD SWAP1 POP DUP2 DUP2 SUB PUSH1 0x0 DUP4 ADD MSTORE PUSH2 0x1AB4 DUP2 PUSH2 0x1772 JUMP JUMPDEST SWAP1 POP SWAP2 SWAP1 POP JUMP JUMPDEST PUSH1 0x0 PUSH1 0x20 DUP3 ADD SWAP1 POP DUP2 DUP2 SUB PUSH1 0x0 DUP4 ADD MSTORE PUSH2 0x1AD4 DUP2 PUSH2 0x1795 JUMP JUMPDEST SWAP1 POP SWAP2 SWAP1 POP JUMP JUMPDEST PUSH1 0x0 PUSH1 0x20 DUP3 ADD SWAP1 POP DUP2 DUP2 SUB PUSH1 0x0 DUP4 ADD MSTORE PUSH2 0x1AF4 DUP2 PUSH2 0x17B8 JUMP JUMPDEST SWAP1 POP SWAP2 SWAP1 POP JUMP JUMPDEST PUSH1 0x0 PUSH1 0x20 DUP3 ADD SWAP1 POP DUP2 DUP2 SUB PUSH1 0x0 DUP4 ADD MSTORE PUSH2 0x1B14 DUP2 PUSH2 0x17DB JUMP JUMPDEST SWAP1 POP SWAP2 SWAP1 POP JUMP JUMPDEST PUSH1 0x0 PUSH1 0x20 DUP3 ADD SWAP1 POP DUP2 DUP2 SUB PUSH1 0x0 DUP4 ADD MSTORE PUSH2 0x1B34 DUP2 PUSH2 0x17FE JUMP JUMPDEST SWAP1 POP SWAP2 SWAP1 POP JUMP JUMPDEST PUSH1 0x0 PUSH1 0x20 DUP3 ADD SWAP1 POP DUP2 DUP2 SUB PUSH1 0x0 DUP4 ADD MSTORE PUSH2 0x1B54 DUP2 PUSH2 0x1821 JUMP JUMPDEST SWAP1 POP SWAP2 SWAP1 POP JUMP JUMPDEST PUSH1 0x0 PUSH1 0x20 DUP3 ADD SWAP1 POP DUP2 DUP2 SUB PUSH1 0x0 DUP4 ADD MSTORE PUSH2 0x1B74 DUP2 PUSH2 0x1844 JUMP JUMPDEST SWAP1 POP SWAP2 SWAP1 POP JUMP JUMPDEST PUSH1 0x0 PUSH1 0x20 DUP3 ADD SWAP1 POP DUP2 DUP2 SUB PUSH1 0x0 DUP4 ADD MSTORE PUSH2 0x1B94 DUP2 PUSH2 0x1867 JUMP JUMPDEST SWAP1 POP SWAP2 SWAP1 POP JUMP JUMPDEST PUSH1 0x0 PUSH2 0x100 DUP3 ADD SWAP1 POP PUSH2 0x1BB1 PUSH1 0x0 DUP4 ADD DUP5 PUSH2 0x192C JUMP JUMPDEST SWAP3 SWAP2 POP POP JUMP JUMPDEST PUSH1 0x0 PUSH1 0x20 DUP3 ADD SWAP1 POP PUSH2 0x1BCC PUSH1 0x0 DUP4 ADD DUP5 PUSH2 0x19DD JUMP JUMPDEST SWAP3 SWAP2 POP POP JUMP JUMPDEST PUSH1 0x0 PUSH2 0x100 DUP3 ADD SWAP1 POP PUSH2 0x1BE8 PUSH1 0x0 DUP4 ADD DUP12 PUSH2 0x19DD JUMP JUMPDEST PUSH2 0x1BF5 PUSH1 0x20 DUP4 ADD DUP11 PUSH2 0x19DD JUMP JUMPDEST PUSH2 0x1C02 PUSH1 0x40 DUP4 ADD DUP10 PUSH2 0x16B5 JUMP JUMPDEST PUSH2 0x1C0F PUSH1 0x60 DUP4 ADD DUP9 PUSH2 0x16B5 JUMP JUMPDEST PUSH2 0x1C1C PUSH1 0x80 DUP4 ADD DUP8 PUSH2 0x19DD JUMP JUMPDEST PUSH2 0x1C29 PUSH1 0xA0 DUP4 ADD DUP7 PUSH2 0x1731 JUMP JUMPDEST PUSH2 0x1C36 PUSH1 0xC0 DUP4 ADD DUP6 PUSH2 0x1731 JUMP JUMPDEST PUSH2 0x1C43 PUSH1 0xE0 DUP4 ADD DUP5 PUSH2 0x1731 JUMP JUMPDEST SWAP10 SWAP9 POP POP POP POP POP POP POP POP POP JUMP JUMPDEST PUSH1 0x0 DUP2 SWAP1 POP PUSH1 0x20 DUP3 ADD SWAP1 POP SWAP2 SWAP1 POP JUMP JUMPDEST PUSH1 0x0 DUP2 MLOAD SWAP1 POP SWAP2 SWAP1 POP JUMP JUMPDEST PUSH1 0x0 PUSH1 0x20 DUP3 ADD SWAP1 POP SWAP2 SWAP1 POP JUMP JUMPDEST PUSH1 0x0 DUP3 DUP3 MSTORE PUSH1 0x20 DUP3 ADD SWAP1 POP SWAP3 SWAP2 POP POP JUMP JUMPDEST PUSH1 0x0 DUP3 DUP3 MSTORE PUSH1 0x20 DUP3 ADD SWAP1 POP SWAP3 SWAP2 POP POP JUMP JUMPDEST PUSH1 0x0 PUSH2 0x1CA5 DUP3 PUSH2 0x1D8E JUMP JUMPDEST SWAP2 POP PUSH2 0x1CB0 DUP4 PUSH2 0x1D8E JUMP JUMPDEST SWAP3 POP DUP3 PUSH32 0xFFFFFFFFFFFFFFFFFFFFFFFFFFFFFFFFFFFFFFFFFFFFFFFFFFFFFFFFFFFFFFFF SUB DUP3 GT ISZERO PUSH2 0x1CE5 JUMPI PUSH2 0x1CE4 PUSH2 0x1DE1 JUMP JUMPDEST JUMPDEST DUP3 DUP3 ADD SWAP1 POP SWAP3 SWAP2 POP POP JUMP JUMPDEST PUSH1 0x0 PUSH2 0x1CFB DUP3 PUSH2 0x1D8E JUMP JUMPDEST SWAP2 POP PUSH2 0x1D06 DUP4 PUSH2 0x1D8E JUMP JUMPDEST SWAP3 POP DUP3 DUP3 LT ISZERO PUSH2 0x1D19 JUMPI PUSH2 0x1D18 PUSH2 0x1DE1 JUMP JUMPDEST JUMPDEST DUP3 DUP3 SUB SWAP1 POP SWAP3 SWAP2 POP POP JUMP JUMPDEST PUSH1 0x0 PUSH2 0x1D2F DUP3 PUSH2 0x1D6E JUMP JUMPDEST SWAP1 POP SWAP2 SWAP1 POP JUMP JUMPDEST PUSH1 0x0 DUP2 ISZERO ISZERO SWAP1 POP SWAP2 SWAP1 POP JUMP JUMPDEST PUSH1 0x0 PUSH32 0xFFFFFFFF00000000000000000000000000000000000000000000000000000000 DUP3 AND SWAP1 POP SWAP2 SWAP1 POP JUMP JUMPDEST PUSH1 0x0 PUSH20 0xFFFFFFFFFFFFFFFFFFFFFFFFFFFFFFFFFFFFFFFF DUP3 AND SWAP1 POP SWAP2 SWAP1 POP JUMP JUMPDEST PUSH1 0x0 DUP2 SWAP1 POP SWAP2 SWAP1 POP JUMP JUMPDEST PUSH1 0x0 PUSH2 0x1DA3 DUP3 PUSH2 0x1D8E JUMP JUMPDEST SWAP2 POP PUSH32 0xFFFFFFFFFFFFFFFFFFFFFFFFFFFFFFFFFFFFFFFFFFFFFFFFFFFFFFFFFFFFFFFF DUP3 EQ ISZERO PUSH2 0x1DD6 JUMPI PUSH2 0x1DD5 PUSH2 0x1DE1 JUMP JUMPDEST JUMPDEST PUSH1 0x1 DUP3 ADD SWAP1 POP SWAP2 SWAP1 POP JUMP JUMPDEST PUSH32 0x4E487B7100000000000000000000000000000000000000000000000000000000 PUSH1 0x0 MSTORE PUSH1 0x11 PUSH1 0x4 MSTORE PUSH1 0x24 PUSH1 0x0 REVERT JUMPDEST PUSH32 0x4E487B7100000000000000000000000000000000000000000000000000000000 PUSH1 0x0 MSTORE PUSH1 0x32 PUSH1 0x4 MSTORE PUSH1 0x24 PUSH1 0x0 REVERT JUMPDEST PUSH32 0x4E487B7100000000000000000000000000000000000000000000000000000000 PUSH1 0x0 MSTORE PUSH1 0x41 PUSH1 0x4 MSTORE PUSH1 0x24 PUSH1 0x0 REVERT JUMPDEST PUSH1 0x0 DUP1 REVERT JUMPDEST PUSH32 0x41736B696E67205072696365206E6F7420736174697366696564210000000000 PUSH1 0x0 DUP3 ADD MSTORE POP JUMP JUMPDEST PUSH32 0x50726963652073686F756C64206265206174206C656173742073616D65206173 PUSH1 0x0 DUP3 ADD MSTORE PUSH32 0x206C697374696E67207072696365000000000000000000000000000000000000 PUSH1 0x20 DUP3 ADD MSTORE POP JUMP JUMPDEST PUSH32 0x4F776E61626C653A206E6577206F776E657220697320746865207A65726F2061 PUSH1 0x0 DUP3 ADD MSTORE PUSH32 0x6464726573730000000000000000000000000000000000000000000000000000 PUSH1 0x20 DUP3 ADD MSTORE POP JUMP JUMPDEST PUSH32 0x4E4654206E6F7420666F722073616C652E000000000000000000000000000000 PUSH1 0x0 DUP3 ADD MSTORE POP JUMP JUMPDEST PUSH32 0x4F6E6C79204974656D206F776E65722063616E206372656174652073616C652E PUSH1 0x0 DUP3 ADD MSTORE POP JUMP JUMPDEST PUSH32 0x4F776E61626C653A2063616C6C6572206973206E6F7420746865206F776E6572 PUSH1 0x0 DUP3 ADD MSTORE POP JUMP JUMPDEST PUSH32 0x4974656D20646F6573206E6F742065786973742E000000000000000000000000 PUSH1 0x0 DUP3 ADD MSTORE POP JUMP JUMPDEST PUSH32 0x5265656E7472616E637947756172643A207265656E7472616E742063616C6C00 PUSH1 0x0 DUP3 ADD MSTORE POP JUMP JUMPDEST PUSH32 0x5072696365206D757374206265206174206C6561737420312077656900000000 PUSH1 0x0 DUP3 ADD MSTORE POP JUMP JUMPDEST PUSH2 0x2039 DUP2 PUSH2 0x1D24 JUMP JUMPDEST DUP2 EQ PUSH2 0x2044 JUMPI PUSH1 0x0 DUP1 REVERT JUMPDEST POP JUMP JUMPDEST PUSH2 0x2050 DUP2 PUSH2 0x1D36 JUMP JUMPDEST DUP2 EQ PUSH2 0x205B JUMPI PUSH1 0x0 DUP1 REVERT JUMPDEST POP JUMP JUMPDEST PUSH2 0x2067 DUP2 PUSH2 0x1D8E JUMP JUMPDEST DUP2 EQ PUSH2 0x2072 JUMPI PUSH1 0x0 DUP1 REVERT JUMPDEST POP JUMP INVALID LOG2 PUSH5 0x6970667358 0x22 SLT KECCAK256 0xAE 0x1E PUSH1 0xA6 DUP5 JUMP 0xF9 0xCD 0xCB GASPRICE PUSH26 0xFABCD7A566D8BE2B810C09B98CE3C4526139DE633564736F6C63 NUMBER STOP ADDMOD SMOD STOP CALLER "
				},
				"gasEstimates": {
					"creation": {
						"codeDepositCost": "1672600",
						"executionCost": "infinite",
						"totalCost": "infinite"
					},
					"external": {
						"acceptedTokenAddress()": "2559",
						"addItemToMarket(uint256,uint256)": "infinite",
						"buyItem(uint256,uint256)": "infinite",
						"createSale(uint256)": "infinite",
						"getMarketItemById(uint256)": "infinite",
						"getUnsoldItems()": "infinite",
						"idToMarketItem(uint256)": "infinite",
						"listingPrice()": "2451",
						"nftContract()": "2558",
						"onERC721Received()": "416",
						"owner()": "2589",
						"renounceOwnership()": "30397",
						"transferOwnership(address)": "30811"
					}
				},
				"methodIdentifiers": {
					"acceptedTokenAddress()": "889e2cd5",
					"addItemToMarket(uint256,uint256)": "91066da8",
					"buyItem(uint256,uint256)": "9979c009",
					"createSale(uint256)": "9da1b02a",
					"getMarketItemById(uint256)": "53dbceb1",
					"getUnsoldItems()": "9b8bc127",
					"idToMarketItem(uint256)": "e61a70c0",
					"listingPrice()": "c78f19f9",
					"nftContract()": "d56d229d",
					"onERC721Received()": "a8fcc417",
					"owner()": "8da5cb5b",
					"renounceOwnership()": "715018a6",
					"transferOwnership(address)": "f2fde38b"
				}
			},
			"storageLayout": {
				"storage": [
					{
						"astId": 7,
						"contract": "contracts/TestMarketplace.sol:TestMarketplace",
						"label": "_owner",
						"offset": 0,
						"slot": "0",
						"type": "t_address"
					},
					{
						"astId": 115,
						"contract": "contracts/TestMarketplace.sol:TestMarketplace",
						"label": "_status",
						"offset": 0,
						"slot": "1",
						"type": "t_uint256"
					},
					{
						"astId": 483,
						"contract": "contracts/TestMarketplace.sol:TestMarketplace",
						"label": "_itemIds",
						"offset": 0,
						"slot": "2",
						"type": "t_struct(Counter)384_storage"
					},
					{
						"astId": 486,
						"contract": "contracts/TestMarketplace.sol:TestMarketplace",
						"label": "_itemsSold",
						"offset": 0,
						"slot": "3",
						"type": "t_struct(Counter)384_storage"
					},
					{
						"astId": 488,
						"contract": "contracts/TestMarketplace.sol:TestMarketplace",
						"label": "_amountCollected",
						"offset": 0,
						"slot": "4",
						"type": "t_uint256"
					},
					{
						"astId": 490,
						"contract": "contracts/TestMarketplace.sol:TestMarketplace",
						"label": "nftContract",
						"offset": 0,
						"slot": "5",
						"type": "t_address"
					},
					{
						"astId": 492,
						"contract": "contracts/TestMarketplace.sol:TestMarketplace",
						"label": "acceptedTokenAddress",
						"offset": 0,
						"slot": "6",
						"type": "t_address"
					},
					{
						"astId": 495,
						"contract": "contracts/TestMarketplace.sol:TestMarketplace",
						"label": "listingPrice",
						"offset": 0,
						"slot": "7",
						"type": "t_uint256"
					},
					{
						"astId": 517,
						"contract": "contracts/TestMarketplace.sol:TestMarketplace",
						"label": "idToMarketItem",
						"offset": 0,
						"slot": "8",
						"type": "t_mapping(t_uint256,t_struct(MarketItem)512_storage)"
					}
				],
				"types": {
					"t_address": {
						"encoding": "inplace",
						"label": "address",
						"numberOfBytes": "20"
					},
					"t_bool": {
						"encoding": "inplace",
						"label": "bool",
						"numberOfBytes": "1"
					},
					"t_mapping(t_uint256,t_struct(MarketItem)512_storage)": {
						"encoding": "mapping",
						"key": "t_uint256",
						"label": "mapping(uint256 => struct TestMarketplace.MarketItem)",
						"numberOfBytes": "32",
						"value": "t_struct(MarketItem)512_storage"
					},
					"t_struct(Counter)384_storage": {
						"encoding": "inplace",
						"label": "struct Counters.Counter",
						"members": [
							{
								"astId": 383,
								"contract": "contracts/TestMarketplace.sol:TestMarketplace",
								"label": "_value",
								"offset": 0,
								"slot": "0",
								"type": "t_uint256"
							}
						],
						"numberOfBytes": "32"
					},
					"t_struct(MarketItem)512_storage": {
						"encoding": "inplace",
						"label": "struct TestMarketplace.MarketItem",
						"members": [
							{
								"astId": 497,
								"contract": "contracts/TestMarketplace.sol:TestMarketplace",
								"label": "itemId",
								"offset": 0,
								"slot": "0",
								"type": "t_uint256"
							},
							{
								"astId": 499,
								"contract": "contracts/TestMarketplace.sol:TestMarketplace",
								"label": "tokenId",
								"offset": 0,
								"slot": "1",
								"type": "t_uint256"
							},
							{
								"astId": 501,
								"contract": "contracts/TestMarketplace.sol:TestMarketplace",
								"label": "seller",
								"offset": 0,
								"slot": "2",
								"type": "t_address"
							},
							{
								"astId": 503,
								"contract": "contracts/TestMarketplace.sol:TestMarketplace",
								"label": "owner",
								"offset": 0,
								"slot": "3",
								"type": "t_address"
							},
							{
								"astId": 505,
								"contract": "contracts/TestMarketplace.sol:TestMarketplace",
								"label": "price",
								"offset": 0,
								"slot": "4",
								"type": "t_uint256"
							},
							{
								"astId": 507,
								"contract": "contracts/TestMarketplace.sol:TestMarketplace",
								"label": "isSold",
								"offset": 0,
								"slot": "5",
								"type": "t_bool"
							},
							{
								"astId": 509,
								"contract": "contracts/TestMarketplace.sol:TestMarketplace",
								"label": "isUpForSale",
								"offset": 1,
								"slot": "5",
								"type": "t_bool"
							},
							{
								"astId": 511,
								"contract": "contracts/TestMarketplace.sol:TestMarketplace",
								"label": "exists",
								"offset": 2,
								"slot": "5",
								"type": "t_bool"
							}
						],
						"numberOfBytes": "192"
					},
					"t_uint256": {
						"encoding": "inplace",
						"label": "uint256",
						"numberOfBytes": "32"
					}
				}
			},
			"userdoc": {
				"kind": "user",
				"methods": {},
				"version": 1
			}
		}
	}
}