{
	"contracts/TestMarketplace.sol": {
		"TestMarketplace": {
			"abi": [
				{
					"inputs": [
						{
							"internalType": "address",
							"name": "_nftContract",
							"type": "address"
						},
						{
							"internalType": "address",
							"name": "_acceptedTokenAddress",
							"type": "address"
						}
					],
					"stateMutability": "nonpayable",
					"type": "constructor"
				},
				{
					"anonymous": false,
					"inputs": [
						{
							"indexed": true,
							"internalType": "uint256",
							"name": "itemId",
							"type": "uint256"
						},
						{
							"indexed": true,
							"internalType": "uint256",
							"name": "tokenId",
							"type": "uint256"
						},
						{
							"indexed": false,
							"internalType": "address",
							"name": "seller",
							"type": "address"
						},
						{
							"indexed": false,
							"internalType": "address",
							"name": "owner",
							"type": "address"
						},
						{
							"indexed": false,
							"internalType": "uint256",
							"name": "price",
							"type": "uint256"
						}
					],
					"name": "MarketItemCreated",
					"type": "event"
				},
				{
					"anonymous": false,
					"inputs": [
						{
							"indexed": true,
							"internalType": "address",
							"name": "previousOwner",
							"type": "address"
						},
						{
							"indexed": true,
							"internalType": "address",
							"name": "newOwner",
							"type": "address"
						}
					],
					"name": "OwnershipTransferred",
					"type": "event"
				},
				{
					"inputs": [],
					"name": "acceptedTokenAddress",
					"outputs": [
						{
							"internalType": "address",
							"name": "",
							"type": "address"
						}
					],
					"stateMutability": "view",
					"type": "function"
				},
				{
					"inputs": [
						{
							"internalType": "uint256",
							"name": "tokenId",
							"type": "uint256"
						},
						{
							"internalType": "uint256",
							"name": "price",
							"type": "uint256"
						}
					],
					"name": "addItemToMarket",
					"outputs": [],
					"stateMutability": "nonpayable",
					"type": "function"
				},
				{
					"inputs": [
						{
							"internalType": "uint256",
							"name": "itemId",
							"type": "uint256"
						},
						{
							"internalType": "uint256",
							"name": "itemPrice",
							"type": "uint256"
						}
					],
					"name": "buyItem",
					"outputs": [],
					"stateMutability": "nonpayable",
					"type": "function"
				},
				{
					"inputs": [
						{
							"internalType": "uint256",
							"name": "marketItemId",
							"type": "uint256"
						}
					],
					"name": "getMarketItemById",
					"outputs": [
						{
							"components": [
								{
									"internalType": "uint256",
									"name": "itemId",
									"type": "uint256"
								},
								{
									"internalType": "uint256",
									"name": "tokenId",
									"type": "uint256"
								},
								{
									"internalType": "address",
									"name": "seller",
									"type": "address"
								},
								{
									"internalType": "address",
									"name": "owner",
									"type": "address"
								},
								{
									"internalType": "uint256",
									"name": "price",
									"type": "uint256"
								},
								{
									"internalType": "bool",
									"name": "isSold",
									"type": "bool"
								},
								{
									"internalType": "bool",
									"name": "isUpForSale",
									"type": "bool"
								}
							],
							"internalType": "struct TestMarketplace.MarketItem",
							"name": "",
							"type": "tuple"
						}
					],
					"stateMutability": "view",
					"type": "function"
				},
				{
					"inputs": [],
					"name": "getUnsoldItems",
					"outputs": [
						{
							"components": [
								{
									"internalType": "uint256",
									"name": "itemId",
									"type": "uint256"
								},
								{
									"internalType": "uint256",
									"name": "tokenId",
									"type": "uint256"
								},
								{
									"internalType": "address",
									"name": "seller",
									"type": "address"
								},
								{
									"internalType": "address",
									"name": "owner",
									"type": "address"
								},
								{
									"internalType": "uint256",
									"name": "price",
									"type": "uint256"
								},
								{
									"internalType": "bool",
									"name": "isSold",
									"type": "bool"
								},
								{
									"internalType": "bool",
									"name": "isUpForSale",
									"type": "bool"
								}
							],
							"internalType": "struct TestMarketplace.MarketItem[]",
							"name": "",
							"type": "tuple[]"
						}
					],
					"stateMutability": "view",
					"type": "function"
				},
				{
					"inputs": [
						{
							"internalType": "uint256",
							"name": "",
							"type": "uint256"
						}
					],
					"name": "idToMarketItem",
					"outputs": [
						{
							"internalType": "uint256",
							"name": "itemId",
							"type": "uint256"
						},
						{
							"internalType": "uint256",
							"name": "tokenId",
							"type": "uint256"
						},
						{
							"internalType": "address",
							"name": "seller",
							"type": "address"
						},
						{
							"internalType": "address",
							"name": "owner",
							"type": "address"
						},
						{
							"internalType": "uint256",
							"name": "price",
							"type": "uint256"
						},
						{
							"internalType": "bool",
							"name": "isSold",
							"type": "bool"
						},
						{
							"internalType": "bool",
							"name": "isUpForSale",
							"type": "bool"
						}
					],
					"stateMutability": "view",
					"type": "function"
				},
				{
					"inputs": [],
					"name": "listingPrice",
					"outputs": [
						{
							"internalType": "uint256",
							"name": "",
							"type": "uint256"
						}
					],
					"stateMutability": "view",
					"type": "function"
				},
				{
					"inputs": [],
					"name": "nftContract",
					"outputs": [
						{
							"internalType": "address",
							"name": "",
							"type": "address"
						}
					],
					"stateMutability": "view",
					"type": "function"
				},
				{
					"inputs": [],
					"name": "owner",
					"outputs": [
						{
							"internalType": "address",
							"name": "",
							"type": "address"
						}
					],
					"stateMutability": "view",
					"type": "function"
				},
				{
					"inputs": [],
					"name": "renounceOwnership",
					"outputs": [],
					"stateMutability": "nonpayable",
					"type": "function"
				},
				{
					"inputs": [
						{
							"internalType": "address",
							"name": "newOwner",
							"type": "address"
						}
					],
					"name": "transferOwnership",
					"outputs": [],
					"stateMutability": "nonpayable",
					"type": "function"
				}
			],
			"devdoc": {
				"kind": "dev",
				"methods": {
					"owner()": {
						"details": "Returns the address of the current owner."
					},
					"renounceOwnership()": {
						"details": "Leaves the contract without owner. It will not be possible to call `onlyOwner` functions anymore. Can only be called by the current owner. NOTE: Renouncing ownership will leave the contract without an owner, thereby removing any functionality that is only available to the owner."
					},
					"transferOwnership(address)": {
						"details": "Transfers ownership of the contract to a new account (`newOwner`). Can only be called by the current owner."
					}
				},
				"version": 1
			},
			"evm": {
				"assembly": "    /* \"contracts/TestMarketplace.sol\":371:3561  contract TestMarketplace is Ownable, ReentrancyGuard {... */\n  mstore(0x40, 0x80)\n    /* \"contracts/TestMarketplace.sol\":680:689  0.1 ether */\n  0x016345785d8a0000\n    /* \"contracts/TestMarketplace.sol\":650:689  uint256 public listingPrice = 0.1 ether */\n  0x07\n  sstore\n    /* \"contracts/TestMarketplace.sol\":1058:1210  constructor(address _nftContract, address _acceptedTokenAddress) {... */\n  callvalue\n  dup1\n  iszero\n  tag_1\n  jumpi\n  0x00\n  dup1\n  revert\ntag_1:\n  pop\n  mload(0x40)\n  sub(codesize, bytecodeSize)\n  dup1\n  bytecodeSize\n  dup4\n  codecopy\n  dup2\n  dup2\n  add\n  0x40\n  mstore\n  dup2\n  add\n  swap1\n  tag_2\n  swap2\n  swap1\n  tag_3\n  jump\t// in\ntag_2:\n    /* \"@openzeppelin/contracts/access/Ownable.sol\":921:953  _transferOwnership(_msgSender()) */\n  tag_8\n    /* \"@openzeppelin/contracts/access/Ownable.sol\":940:952  _msgSender() */\n  tag_9\n    /* \"@openzeppelin/contracts/access/Ownable.sol\":940:950  _msgSender */\n  shl(0x20, tag_10)\n    /* \"@openzeppelin/contracts/access/Ownable.sol\":940:952  _msgSender() */\n  0x20\n  shr\n  jump\t// in\ntag_9:\n    /* \"@openzeppelin/contracts/access/Ownable.sol\":921:939  _transferOwnership */\n  shl(0x20, tag_11)\n    /* \"@openzeppelin/contracts/access/Ownable.sol\":921:953  _transferOwnership(_msgSender()) */\n  0x20\n  shr\n  jump\t// in\ntag_8:\n    /* \"@openzeppelin/contracts/security/ReentrancyGuard.sol\":1701:1702  1 */\n  0x01\n    /* \"@openzeppelin/contracts/security/ReentrancyGuard.sol\":1806:1813  _status */\n  dup1\n    /* \"@openzeppelin/contracts/security/ReentrancyGuard.sol\":1806:1828  _status = _NOT_ENTERED */\n  dup2\n  swap1\n  sstore\n  pop\n    /* \"contracts/TestMarketplace.sol\":1143:1155  _nftContract */\n  dup2\n    /* \"contracts/TestMarketplace.sol\":1129:1140  nftContract */\n  0x05\n  0x00\n    /* \"contracts/TestMarketplace.sol\":1129:1155  nftContract = _nftContract */\n  0x0100\n  exp\n  dup2\n  sload\n  dup2\n  0xffffffffffffffffffffffffffffffffffffffff\n  mul\n  not\n  and\n  swap1\n  dup4\n  0xffffffffffffffffffffffffffffffffffffffff\n  and\n  mul\n  or\n  swap1\n  sstore\n  pop\n    /* \"contracts/TestMarketplace.sol\":1184:1205  _acceptedTokenAddress */\n  dup1\n    /* \"contracts/TestMarketplace.sol\":1161:1181  acceptedTokenAddress */\n  0x06\n  0x00\n    /* \"contracts/TestMarketplace.sol\":1161:1205  acceptedTokenAddress = _acceptedTokenAddress */\n  0x0100\n  exp\n  dup2\n  sload\n  dup2\n  0xffffffffffffffffffffffffffffffffffffffff\n  mul\n  not\n  and\n  swap1\n  dup4\n  0xffffffffffffffffffffffffffffffffffffffff\n  and\n  mul\n  or\n  swap1\n  sstore\n  pop\n    /* \"contracts/TestMarketplace.sol\":1058:1210  constructor(address _nftContract, address _acceptedTokenAddress) {... */\n  pop\n  pop\n    /* \"contracts/TestMarketplace.sol\":371:3561  contract TestMarketplace is Ownable, ReentrancyGuard {... */\n  jump(tag_14)\n    /* \"@openzeppelin/contracts/utils/Context.sol\":640:736  function _msgSender() internal view virtual returns (address) {... */\ntag_10:\n    /* \"@openzeppelin/contracts/utils/Context.sol\":693:700  address */\n  0x00\n    /* \"@openzeppelin/contracts/utils/Context.sol\":719:729  msg.sender */\n  caller\n    /* \"@openzeppelin/contracts/utils/Context.sol\":712:729  return msg.sender */\n  swap1\n  pop\n    /* \"@openzeppelin/contracts/utils/Context.sol\":640:736  function _msgSender() internal view virtual returns (address) {... */\n  swap1\n  jump\t// out\n    /* \"@openzeppelin/contracts/access/Ownable.sol\":2270:2457  function _transferOwnership(address newOwner) internal virtual {... */\ntag_11:\n    /* \"@openzeppelin/contracts/access/Ownable.sol\":2343:2359  address oldOwner */\n  0x00\n    /* \"@openzeppelin/contracts/access/Ownable.sol\":2362:2368  _owner */\n  dup1\n  0x00\n  swap1\n  sload\n  swap1\n  0x0100\n  exp\n  swap1\n  div\n  0xffffffffffffffffffffffffffffffffffffffff\n  and\n    /* \"@openzeppelin/contracts/access/Ownable.sol\":2343:2368  address oldOwner = _owner */\n  swap1\n  pop\n    /* \"@openzeppelin/contracts/access/Ownable.sol\":2387:2395  newOwner */\n  dup2\n    /* \"@openzeppelin/contracts/access/Ownable.sol\":2378:2384  _owner */\n  0x00\n  dup1\n    /* \"@openzeppelin/contracts/access/Ownable.sol\":2378:2395  _owner = newOwner */\n  0x0100\n  exp\n  dup2\n  sload\n  dup2\n  0xffffffffffffffffffffffffffffffffffffffff\n  mul\n  not\n  and\n  swap1\n  dup4\n  0xffffffffffffffffffffffffffffffffffffffff\n  and\n  mul\n  or\n  swap1\n  sstore\n  pop\n    /* \"@openzeppelin/contracts/access/Ownable.sol\":2441:2449  newOwner */\n  dup2\n    /* \"@openzeppelin/contracts/access/Ownable.sol\":2410:2450  OwnershipTransferred(oldOwner, newOwner) */\n  0xffffffffffffffffffffffffffffffffffffffff\n  and\n    /* \"@openzeppelin/contracts/access/Ownable.sol\":2431:2439  oldOwner */\n  dup2\n    /* \"@openzeppelin/contracts/access/Ownable.sol\":2410:2450  OwnershipTransferred(oldOwner, newOwner) */\n  0xffffffffffffffffffffffffffffffffffffffff\n  and\n  0x8be0079c531659141344cd1fd0a4f28419497f9722a3daafe3b4186f6b6457e0\n  mload(0x40)\n  mload(0x40)\n  dup1\n  swap2\n  sub\n  swap1\n  log3\n    /* \"@openzeppelin/contracts/access/Ownable.sol\":2333:2457  {... */\n  pop\n    /* \"@openzeppelin/contracts/access/Ownable.sol\":2270:2457  function _transferOwnership(address newOwner) internal virtual {... */\n  pop\n  jump\t// out\n    /* \"#utility.yul\":7:150   */\ntag_18:\n    /* \"#utility.yul\":64:69   */\n  0x00\n    /* \"#utility.yul\":95:101   */\n  dup2\n    /* \"#utility.yul\":89:102   */\n  mload\n    /* \"#utility.yul\":80:102   */\n  swap1\n  pop\n    /* \"#utility.yul\":111:144   */\n  tag_20\n    /* \"#utility.yul\":138:143   */\n  dup2\n    /* \"#utility.yul\":111:144   */\n  tag_21\n  jump\t// in\ntag_20:\n    /* \"#utility.yul\":7:150   */\n  swap3\n  swap2\n  pop\n  pop\n  jump\t// out\n    /* \"#utility.yul\":156:663   */\ntag_3:\n    /* \"#utility.yul\":235:241   */\n  0x00\n    /* \"#utility.yul\":243:249   */\n  dup1\n    /* \"#utility.yul\":292:294   */\n  0x40\n    /* \"#utility.yul\":280:289   */\n  dup4\n    /* \"#utility.yul\":271:278   */\n  dup6\n    /* \"#utility.yul\":267:290   */\n  sub\n    /* \"#utility.yul\":263:295   */\n  slt\n    /* \"#utility.yul\":260:379   */\n  iszero\n  tag_23\n  jumpi\n    /* \"#utility.yul\":298:377   */\n  tag_24\n  tag_25\n  jump\t// in\ntag_24:\n    /* \"#utility.yul\":260:379   */\ntag_23:\n    /* \"#utility.yul\":418:419   */\n  0x00\n    /* \"#utility.yul\":443:507   */\n  tag_26\n    /* \"#utility.yul\":499:506   */\n  dup6\n    /* \"#utility.yul\":490:496   */\n  dup3\n    /* \"#utility.yul\":479:488   */\n  dup7\n    /* \"#utility.yul\":475:497   */\n  add\n    /* \"#utility.yul\":443:507   */\n  tag_18\n  jump\t// in\ntag_26:\n    /* \"#utility.yul\":433:507   */\n  swap3\n  pop\n    /* \"#utility.yul\":389:517   */\n  pop\n    /* \"#utility.yul\":556:558   */\n  0x20\n    /* \"#utility.yul\":582:646   */\n  tag_27\n    /* \"#utility.yul\":638:645   */\n  dup6\n    /* \"#utility.yul\":629:635   */\n  dup3\n    /* \"#utility.yul\":618:627   */\n  dup7\n    /* \"#utility.yul\":614:636   */\n  add\n    /* \"#utility.yul\":582:646   */\n  tag_18\n  jump\t// in\ntag_27:\n    /* \"#utility.yul\":572:646   */\n  swap2\n  pop\n    /* \"#utility.yul\":527:656   */\n  pop\n    /* \"#utility.yul\":156:663   */\n  swap3\n  pop\n  swap3\n  swap1\n  pop\n  jump\t// out\n    /* \"#utility.yul\":750:846   */\ntag_30:\n    /* \"#utility.yul\":787:794   */\n  0x00\n    /* \"#utility.yul\":816:840   */\n  tag_32\n    /* \"#utility.yul\":834:839   */\n  dup3\n    /* \"#utility.yul\":816:840   */\n  tag_33\n  jump\t// in\ntag_32:\n    /* \"#utility.yul\":805:840   */\n  swap1\n  pop\n    /* \"#utility.yul\":750:846   */\n  swap2\n  swap1\n  pop\n  jump\t// out\n    /* \"#utility.yul\":852:978   */\ntag_33:\n    /* \"#utility.yul\":889:896   */\n  0x00\n    /* \"#utility.yul\":929:971   */\n  0xffffffffffffffffffffffffffffffffffffffff\n    /* \"#utility.yul\":922:927   */\n  dup3\n    /* \"#utility.yul\":918:972   */\n  and\n    /* \"#utility.yul\":907:972   */\n  swap1\n  pop\n    /* \"#utility.yul\":852:978   */\n  swap2\n  swap1\n  pop\n  jump\t// out\n    /* \"#utility.yul\":1107:1224   */\ntag_25:\n    /* \"#utility.yul\":1216:1217   */\n  0x00\n    /* \"#utility.yul\":1213:1214   */\n  dup1\n    /* \"#utility.yul\":1206:1218   */\n  revert\n    /* \"#utility.yul\":1230:1352   */\ntag_21:\n    /* \"#utility.yul\":1303:1327   */\n  tag_39\n    /* \"#utility.yul\":1321:1326   */\n  dup2\n    /* \"#utility.yul\":1303:1327   */\n  tag_30\n  jump\t// in\ntag_39:\n    /* \"#utility.yul\":1296:1301   */\n  dup2\n    /* \"#utility.yul\":1293:1328   */\n  eq\n    /* \"#utility.yul\":1283:1346   */\n  tag_40\n  jumpi\n    /* \"#utility.yul\":1342:1343   */\n  0x00\n    /* \"#utility.yul\":1339:1340   */\n  dup1\n    /* \"#utility.yul\":1332:1344   */\n  revert\n    /* \"#utility.yul\":1283:1346   */\ntag_40:\n    /* \"#utility.yul\":1230:1352   */\n  pop\n  jump\t// out\n    /* \"contracts/TestMarketplace.sol\":371:3561  contract TestMarketplace is Ownable, ReentrancyGuard {... */\ntag_14:\n  dataSize(sub_0)\n  dup1\n  dataOffset(sub_0)\n  0x00\n  codecopy\n  0x00\n  return\nstop\n\nsub_0: assembly {\n        /* \"contracts/TestMarketplace.sol\":371:3561  contract TestMarketplace is Ownable, ReentrancyGuard {... */\n      mstore(0x40, 0x80)\n      callvalue\n      dup1\n      iszero\n      tag_1\n      jumpi\n      0x00\n      dup1\n      revert\n    tag_1:\n      pop\n      jumpi(tag_2, lt(calldatasize, 0x04))\n      shr(0xe0, calldataload(0x00))\n      dup1\n      0x9979c009\n      gt\n      tag_14\n      jumpi\n      dup1\n      0x9979c009\n      eq\n      tag_8\n      jumpi\n      dup1\n      0x9b8bc127\n      eq\n      tag_9\n      jumpi\n      dup1\n      0xc78f19f9\n      eq\n      tag_10\n      jumpi\n      dup1\n      0xd56d229d\n      eq\n      tag_11\n      jumpi\n      dup1\n      0xe61a70c0\n      eq\n      tag_12\n      jumpi\n      dup1\n      0xf2fde38b\n      eq\n      tag_13\n      jumpi\n      jump(tag_2)\n    tag_14:\n      dup1\n      0x53dbceb1\n      eq\n      tag_3\n      jumpi\n      dup1\n      0x715018a6\n      eq\n      tag_4\n      jumpi\n      dup1\n      0x889e2cd5\n      eq\n      tag_5\n      jumpi\n      dup1\n      0x8da5cb5b\n      eq\n      tag_6\n      jumpi\n      dup1\n      0x91066da8\n      eq\n      tag_7\n      jumpi\n    tag_2:\n      0x00\n      dup1\n      revert\n        /* \"contracts/TestMarketplace.sol\":2815:2985  function getMarketItemById(uint256 marketItemId) public view returns (MarketItem memory) {... */\n    tag_3:\n      tag_15\n      0x04\n      dup1\n      calldatasize\n      sub\n      dup2\n      add\n      swap1\n      tag_16\n      swap2\n      swap1\n      tag_17\n      jump\t// in\n    tag_16:\n      tag_18\n      jump\t// in\n    tag_15:\n      mload(0x40)\n      tag_19\n      swap2\n      swap1\n      tag_20\n      jump\t// in\n    tag_19:\n      mload(0x40)\n      dup1\n      swap2\n      sub\n      swap1\n      return\n        /* \"@openzeppelin/contracts/access/Ownable.sol\":1668:1769  function renounceOwnership() public virtual onlyOwner {... */\n    tag_4:\n      tag_21\n      tag_22\n      jump\t// in\n    tag_21:\n      stop\n        /* \"contracts/TestMarketplace.sol\":611:646  address public acceptedTokenAddress */\n    tag_5:\n      tag_23\n      tag_24\n      jump\t// in\n    tag_23:\n      mload(0x40)\n      tag_25\n      swap2\n      swap1\n      tag_26\n      jump\t// in\n    tag_25:\n      mload(0x40)\n      dup1\n      swap2\n      sub\n      swap1\n      return\n        /* \"@openzeppelin/contracts/access/Ownable.sol\":1036:1121  function owner() public view virtual returns (address) {... */\n    tag_6:\n      tag_27\n      tag_28\n      jump\t// in\n    tag_27:\n      mload(0x40)\n      tag_29\n      swap2\n      swap1\n      tag_26\n      jump\t// in\n    tag_29:\n      mload(0x40)\n      dup1\n      swap2\n      sub\n      swap1\n      return\n        /* \"contracts/TestMarketplace.sol\":1214:2003  function addItemToMarket(... */\n    tag_7:\n      tag_30\n      0x04\n      dup1\n      calldatasize\n      sub\n      dup2\n      add\n      swap1\n      tag_31\n      swap2\n      swap1\n      tag_32\n      jump\t// in\n    tag_31:\n      tag_33\n      jump\t// in\n    tag_30:\n      stop\n        /* \"contracts/TestMarketplace.sol\":2007:2811  function buyItem(... */\n    tag_8:\n      tag_34\n      0x04\n      dup1\n      calldatasize\n      sub\n      dup2\n      add\n      swap1\n      tag_35\n      swap2\n      swap1\n      tag_32\n      jump\t// in\n    tag_35:\n      tag_36\n      jump\t// in\n    tag_34:\n      stop\n        /* \"contracts/TestMarketplace.sol\":2989:3559  function getUnsoldItems() public view returns (MarketItem[] memory) {... */\n    tag_9:\n      tag_37\n      tag_38\n      jump\t// in\n    tag_37:\n      mload(0x40)\n      tag_39\n      swap2\n      swap1\n      tag_40\n      jump\t// in\n    tag_39:\n      mload(0x40)\n      dup1\n      swap2\n      sub\n      swap1\n      return\n        /* \"contracts/TestMarketplace.sol\":650:689  uint256 public listingPrice = 0.1 ether */\n    tag_10:\n      tag_41\n      tag_42\n      jump\t// in\n    tag_41:\n      mload(0x40)\n      tag_43\n      swap2\n      swap1\n      tag_44\n      jump\t// in\n    tag_43:\n      mload(0x40)\n      dup1\n      swap2\n      sub\n      swap1\n      return\n        /* \"contracts/TestMarketplace.sol\":581:607  address public nftContract */\n    tag_11:\n      tag_45\n      tag_46\n      jump\t// in\n    tag_45:\n      mload(0x40)\n      tag_47\n      swap2\n      swap1\n      tag_26\n      jump\t// in\n    tag_47:\n      mload(0x40)\n      dup1\n      swap2\n      sub\n      swap1\n      return\n        /* \"contracts/TestMarketplace.sol\":856:908  mapping(uint256 => MarketItem) public idToMarketItem */\n    tag_12:\n      tag_48\n      0x04\n      dup1\n      calldatasize\n      sub\n      dup2\n      add\n      swap1\n      tag_49\n      swap2\n      swap1\n      tag_17\n      jump\t// in\n    tag_49:\n      tag_50\n      jump\t// in\n    tag_48:\n      mload(0x40)\n      tag_51\n      swap8\n      swap7\n      swap6\n      swap5\n      swap4\n      swap3\n      swap2\n      swap1\n      tag_52\n      jump\t// in\n    tag_51:\n      mload(0x40)\n      dup1\n      swap2\n      sub\n      swap1\n      return\n        /* \"@openzeppelin/contracts/access/Ownable.sol\":1918:2116  function transferOwnership(address newOwner) public virtual onlyOwner {... */\n    tag_13:\n      tag_53\n      0x04\n      dup1\n      calldatasize\n      sub\n      dup2\n      add\n      swap1\n      tag_54\n      swap2\n      swap1\n      tag_55\n      jump\t// in\n    tag_54:\n      tag_56\n      jump\t// in\n    tag_53:\n      stop\n        /* \"contracts/TestMarketplace.sol\":2815:2985  function getMarketItemById(uint256 marketItemId) public view returns (MarketItem memory) {... */\n    tag_18:\n        /* \"contracts/TestMarketplace.sol\":2885:2902  MarketItem memory */\n      tag_57\n      tag_58\n      jump\t// in\n    tag_57:\n        /* \"contracts/TestMarketplace.sol\":2910:2932  MarketItem memory item */\n      0x00\n        /* \"contracts/TestMarketplace.sol\":2935:2949  idToMarketItem */\n      0x08\n        /* \"contracts/TestMarketplace.sol\":2935:2963  idToMarketItem[marketItemId] */\n      0x00\n        /* \"contracts/TestMarketplace.sol\":2950:2962  marketItemId */\n      dup5\n        /* \"contracts/TestMarketplace.sol\":2935:2963  idToMarketItem[marketItemId] */\n      dup2\n      mstore\n      0x20\n      add\n      swap1\n      dup2\n      mstore\n      0x20\n      add\n      0x00\n      keccak256\n        /* \"contracts/TestMarketplace.sol\":2910:2963  MarketItem memory item = idToMarketItem[marketItemId] */\n      mload(0x40)\n      dup1\n      0xe0\n      add\n      0x40\n      mstore\n      swap1\n      dup2\n      0x00\n      dup3\n      add\n      sload\n      dup2\n      mstore\n      0x20\n      add\n      0x01\n      dup3\n      add\n      sload\n      dup2\n      mstore\n      0x20\n      add\n      0x02\n      dup3\n      add\n      0x00\n      swap1\n      sload\n      swap1\n      0x0100\n      exp\n      swap1\n      div\n      0xffffffffffffffffffffffffffffffffffffffff\n      and\n      0xffffffffffffffffffffffffffffffffffffffff\n      and\n      0xffffffffffffffffffffffffffffffffffffffff\n      and\n      dup2\n      mstore\n      0x20\n      add\n      0x03\n      dup3\n      add\n      0x00\n      swap1\n      sload\n      swap1\n      0x0100\n      exp\n      swap1\n      div\n      0xffffffffffffffffffffffffffffffffffffffff\n      and\n      0xffffffffffffffffffffffffffffffffffffffff\n      and\n      0xffffffffffffffffffffffffffffffffffffffff\n      and\n      dup2\n      mstore\n      0x20\n      add\n      0x04\n      dup3\n      add\n      sload\n      dup2\n      mstore\n      0x20\n      add\n      0x05\n      dup3\n      add\n      0x00\n      swap1\n      sload\n      swap1\n      0x0100\n      exp\n      swap1\n      div\n      0xff\n      and\n      iszero\n      iszero\n      iszero\n      iszero\n      dup2\n      mstore\n      0x20\n      add\n      0x05\n      dup3\n      add\n      0x01\n      swap1\n      sload\n      swap1\n      0x0100\n      exp\n      swap1\n      div\n      0xff\n      and\n      iszero\n      iszero\n      iszero\n      iszero\n      dup2\n      mstore\n      pop\n      pop\n      swap1\n      pop\n        /* \"contracts/TestMarketplace.sol\":2976:2980  item */\n      dup1\n        /* \"contracts/TestMarketplace.sol\":2969:2980  return item */\n      swap2\n      pop\n      pop\n        /* \"contracts/TestMarketplace.sol\":2815:2985  function getMarketItemById(uint256 marketItemId) public view returns (MarketItem memory) {... */\n      swap2\n      swap1\n      pop\n      jump\t// out\n        /* \"@openzeppelin/contracts/access/Ownable.sol\":1668:1769  function renounceOwnership() public virtual onlyOwner {... */\n    tag_22:\n        /* \"@openzeppelin/contracts/access/Ownable.sol\":1259:1271  _msgSender() */\n      tag_61\n        /* \"@openzeppelin/contracts/access/Ownable.sol\":1259:1269  _msgSender */\n      tag_62\n        /* \"@openzeppelin/contracts/access/Ownable.sol\":1259:1271  _msgSender() */\n      jump\t// in\n    tag_61:\n        /* \"@openzeppelin/contracts/access/Ownable.sol\":1248:1271  owner() == _msgSender() */\n      0xffffffffffffffffffffffffffffffffffffffff\n      and\n        /* \"@openzeppelin/contracts/access/Ownable.sol\":1248:1255  owner() */\n      tag_63\n        /* \"@openzeppelin/contracts/access/Ownable.sol\":1248:1253  owner */\n      tag_28\n        /* \"@openzeppelin/contracts/access/Ownable.sol\":1248:1255  owner() */\n      jump\t// in\n    tag_63:\n        /* \"@openzeppelin/contracts/access/Ownable.sol\":1248:1271  owner() == _msgSender() */\n      0xffffffffffffffffffffffffffffffffffffffff\n      and\n      eq\n        /* \"@openzeppelin/contracts/access/Ownable.sol\":1240:1308  require(owner() == _msgSender(), \"Ownable: caller is not the owner\") */\n      tag_64\n      jumpi\n      mload(0x40)\n      0x08c379a000000000000000000000000000000000000000000000000000000000\n      dup2\n      mstore\n      0x04\n      add\n      tag_65\n      swap1\n      tag_66\n      jump\t// in\n    tag_65:\n      mload(0x40)\n      dup1\n      swap2\n      sub\n      swap1\n      revert\n    tag_64:\n        /* \"@openzeppelin/contracts/access/Ownable.sol\":1732:1762  _transferOwnership(address(0)) */\n      tag_68\n        /* \"@openzeppelin/contracts/access/Ownable.sol\":1759:1760  0 */\n      0x00\n        /* \"@openzeppelin/contracts/access/Ownable.sol\":1732:1750  _transferOwnership */\n      tag_69\n        /* \"@openzeppelin/contracts/access/Ownable.sol\":1732:1762  _transferOwnership(address(0)) */\n      jump\t// in\n    tag_68:\n        /* \"@openzeppelin/contracts/access/Ownable.sol\":1668:1769  function renounceOwnership() public virtual onlyOwner {... */\n      jump\t// out\n        /* \"contracts/TestMarketplace.sol\":611:646  address public acceptedTokenAddress */\n    tag_24:\n      0x06\n      0x00\n      swap1\n      sload\n      swap1\n      0x0100\n      exp\n      swap1\n      div\n      0xffffffffffffffffffffffffffffffffffffffff\n      and\n      dup2\n      jump\t// out\n        /* \"@openzeppelin/contracts/access/Ownable.sol\":1036:1121  function owner() public view virtual returns (address) {... */\n    tag_28:\n        /* \"@openzeppelin/contracts/access/Ownable.sol\":1082:1089  address */\n      0x00\n        /* \"@openzeppelin/contracts/access/Ownable.sol\":1108:1114  _owner */\n      dup1\n      0x00\n      swap1\n      sload\n      swap1\n      0x0100\n      exp\n      swap1\n      div\n      0xffffffffffffffffffffffffffffffffffffffff\n      and\n        /* \"@openzeppelin/contracts/access/Ownable.sol\":1101:1114  return _owner */\n      swap1\n      pop\n        /* \"@openzeppelin/contracts/access/Ownable.sol\":1036:1121  function owner() public view virtual returns (address) {... */\n      swap1\n      jump\t// out\n        /* \"contracts/TestMarketplace.sol\":1214:2003  function addItemToMarket(... */\n    tag_33:\n        /* \"@openzeppelin/contracts/security/ReentrancyGuard.sol\":1744:1745  2 */\n      0x02\n        /* \"@openzeppelin/contracts/security/ReentrancyGuard.sol\":2325:2332  _status */\n      sload(0x01)\n        /* \"@openzeppelin/contracts/security/ReentrancyGuard.sol\":2325:2344  _status != _ENTERED */\n      eq\n      iszero\n        /* \"@openzeppelin/contracts/security/ReentrancyGuard.sol\":2317:2380  require(_status != _ENTERED, \"ReentrancyGuard: reentrant call\") */\n      tag_72\n      jumpi\n      mload(0x40)\n      0x08c379a000000000000000000000000000000000000000000000000000000000\n      dup2\n      mstore\n      0x04\n      add\n      tag_73\n      swap1\n      tag_74\n      jump\t// in\n    tag_73:\n      mload(0x40)\n      dup1\n      swap2\n      sub\n      swap1\n      revert\n    tag_72:\n        /* \"@openzeppelin/contracts/security/ReentrancyGuard.sol\":1744:1745  2 */\n      0x02\n        /* \"@openzeppelin/contracts/security/ReentrancyGuard.sol\":2455:2462  _status */\n      0x01\n        /* \"@openzeppelin/contracts/security/ReentrancyGuard.sol\":2455:2473  _status = _ENTERED */\n      dup2\n      swap1\n      sstore\n      pop\n        /* \"@openzeppelin/contracts/access/Ownable.sol\":1259:1271  _msgSender() */\n      tag_76\n        /* \"@openzeppelin/contracts/access/Ownable.sol\":1259:1269  _msgSender */\n      tag_62\n        /* \"@openzeppelin/contracts/access/Ownable.sol\":1259:1271  _msgSender() */\n      jump\t// in\n    tag_76:\n        /* \"@openzeppelin/contracts/access/Ownable.sol\":1248:1271  owner() == _msgSender() */\n      0xffffffffffffffffffffffffffffffffffffffff\n      and\n        /* \"@openzeppelin/contracts/access/Ownable.sol\":1248:1255  owner() */\n      tag_77\n        /* \"@openzeppelin/contracts/access/Ownable.sol\":1248:1253  owner */\n      tag_28\n        /* \"@openzeppelin/contracts/access/Ownable.sol\":1248:1255  owner() */\n      jump\t// in\n    tag_77:\n        /* \"@openzeppelin/contracts/access/Ownable.sol\":1248:1271  owner() == _msgSender() */\n      0xffffffffffffffffffffffffffffffffffffffff\n      and\n      eq\n        /* \"@openzeppelin/contracts/access/Ownable.sol\":1240:1308  require(owner() == _msgSender(), \"Ownable: caller is not the owner\") */\n      tag_78\n      jumpi\n      mload(0x40)\n      0x08c379a000000000000000000000000000000000000000000000000000000000\n      dup2\n      mstore\n      0x04\n      add\n      tag_79\n      swap1\n      tag_66\n      jump\t// in\n    tag_79:\n      mload(0x40)\n      dup1\n      swap2\n      sub\n      swap1\n      revert\n    tag_78:\n        /* \"contracts/TestMarketplace.sol\":1335:1336  0 */\n      0x00\n        /* \"contracts/TestMarketplace.sol\":1327:1332  price */\n      dup2\n        /* \"contracts/TestMarketplace.sol\":1327:1336  price > 0 */\n      gt\n        /* \"contracts/TestMarketplace.sol\":1319:1369  require(price > 0, \"Price must be at least 1 wei\") */\n      tag_81\n      jumpi\n      mload(0x40)\n      0x08c379a000000000000000000000000000000000000000000000000000000000\n      dup2\n      mstore\n      0x04\n      add\n      tag_82\n      swap1\n      tag_83\n      jump\t// in\n    tag_82:\n      mload(0x40)\n      dup1\n      swap2\n      sub\n      swap1\n      revert\n    tag_81:\n        /* \"contracts/TestMarketplace.sol\":1392:1404  listingPrice */\n      sload(0x07)\n        /* \"contracts/TestMarketplace.sol\":1383:1388  price */\n      dup2\n        /* \"contracts/TestMarketplace.sol\":1383:1404  price >= listingPrice */\n      lt\n      iszero\n        /* \"contracts/TestMarketplace.sol\":1375:1455  require(price >= listingPrice, \"Price should be at least same as listing price\") */\n      tag_84\n      jumpi\n      mload(0x40)\n      0x08c379a000000000000000000000000000000000000000000000000000000000\n      dup2\n      mstore\n      0x04\n      add\n      tag_85\n      swap1\n      tag_86\n      jump\t// in\n    tag_85:\n      mload(0x40)\n      dup1\n      swap2\n      sub\n      swap1\n      revert\n    tag_84:\n        /* \"contracts/TestMarketplace.sol\":1462:1482  _itemIds.increment() */\n      tag_87\n        /* \"contracts/TestMarketplace.sol\":1462:1470  _itemIds */\n      0x02\n        /* \"contracts/TestMarketplace.sol\":1462:1480  _itemIds.increment */\n      tag_88\n        /* \"contracts/TestMarketplace.sol\":1462:1482  _itemIds.increment() */\n      jump\t// in\n    tag_87:\n        /* \"contracts/TestMarketplace.sol\":1488:1502  uint256 itemId */\n      0x00\n        /* \"contracts/TestMarketplace.sol\":1505:1523  _itemIds.current() */\n      tag_89\n        /* \"contracts/TestMarketplace.sol\":1505:1513  _itemIds */\n      0x02\n        /* \"contracts/TestMarketplace.sol\":1505:1521  _itemIds.current */\n      tag_90\n        /* \"contracts/TestMarketplace.sol\":1505:1523  _itemIds.current() */\n      jump\t// in\n    tag_89:\n        /* \"contracts/TestMarketplace.sol\":1488:1523  uint256 itemId = _itemIds.current() */\n      swap1\n      pop\n        /* \"contracts/TestMarketplace.sol\":1558:1678  MarketItem(... */\n      mload(0x40)\n      dup1\n      0xe0\n      add\n      0x40\n      mstore\n      dup1\n        /* \"contracts/TestMarketplace.sol\":1576:1582  itemId */\n      dup3\n        /* \"contracts/TestMarketplace.sol\":1558:1678  MarketItem(... */\n      dup2\n      mstore\n      0x20\n      add\n        /* \"contracts/TestMarketplace.sol\":1590:1597  tokenId */\n      dup5\n        /* \"contracts/TestMarketplace.sol\":1558:1678  MarketItem(... */\n      dup2\n      mstore\n      0x20\n      add\n        /* \"contracts/TestMarketplace.sol\":1605:1615  msg.sender */\n      caller\n        /* \"contracts/TestMarketplace.sol\":1558:1678  MarketItem(... */\n      0xffffffffffffffffffffffffffffffffffffffff\n      and\n      dup2\n      mstore\n      0x20\n      add\n        /* \"contracts/TestMarketplace.sol\":1631:1632  0 */\n      0x00\n        /* \"contracts/TestMarketplace.sol\":1558:1678  MarketItem(... */\n      0xffffffffffffffffffffffffffffffffffffffff\n      and\n      dup2\n      mstore\n      0x20\n      add\n        /* \"contracts/TestMarketplace.sol\":1641:1646  price */\n      dup4\n        /* \"contracts/TestMarketplace.sol\":1558:1678  MarketItem(... */\n      dup2\n      mstore\n      0x20\n      add\n        /* \"contracts/TestMarketplace.sol\":1654:1659  false */\n      0x00\n        /* \"contracts/TestMarketplace.sol\":1558:1678  MarketItem(... */\n      iszero\n      iszero\n      dup2\n      mstore\n      0x20\n      add\n        /* \"contracts/TestMarketplace.sol\":1667:1672  false */\n      0x00\n        /* \"contracts/TestMarketplace.sol\":1558:1678  MarketItem(... */\n      iszero\n      iszero\n      dup2\n      mstore\n      pop\n        /* \"contracts/TestMarketplace.sol\":1532:1546  idToMarketItem */\n      0x08\n        /* \"contracts/TestMarketplace.sol\":1532:1554  idToMarketItem[itemId] */\n      0x00\n        /* \"contracts/TestMarketplace.sol\":1547:1553  itemId */\n      dup4\n        /* \"contracts/TestMarketplace.sol\":1532:1554  idToMarketItem[itemId] */\n      dup2\n      mstore\n      0x20\n      add\n      swap1\n      dup2\n      mstore\n      0x20\n      add\n      0x00\n      keccak256\n        /* \"contracts/TestMarketplace.sol\":1532:1678  idToMarketItem[itemId] =  MarketItem(... */\n      0x00\n      dup3\n      add\n      mload\n      dup2\n      0x00\n      add\n      sstore\n      0x20\n      dup3\n      add\n      mload\n      dup2\n      0x01\n      add\n      sstore\n      0x40\n      dup3\n      add\n      mload\n      dup2\n      0x02\n      add\n      exp(0x0100, 0x00)\n      dup2\n      sload\n      dup2\n      0xffffffffffffffffffffffffffffffffffffffff\n      mul\n      not\n      and\n      swap1\n      dup4\n      0xffffffffffffffffffffffffffffffffffffffff\n      and\n      mul\n      or\n      swap1\n      sstore\n      pop\n      0x60\n      dup3\n      add\n      mload\n      dup2\n      0x03\n      add\n      exp(0x0100, 0x00)\n      dup2\n      sload\n      dup2\n      0xffffffffffffffffffffffffffffffffffffffff\n      mul\n      not\n      and\n      swap1\n      dup4\n      0xffffffffffffffffffffffffffffffffffffffff\n      and\n      mul\n      or\n      swap1\n      sstore\n      pop\n      0x80\n      dup3\n      add\n      mload\n      dup2\n      0x04\n      add\n      sstore\n      0xa0\n      dup3\n      add\n      mload\n      dup2\n      0x05\n      add\n      exp(0x0100, 0x00)\n      dup2\n      sload\n      dup2\n      0xff\n      mul\n      not\n      and\n      swap1\n      dup4\n      iszero\n      iszero\n      mul\n      or\n      swap1\n      sstore\n      pop\n      0xc0\n      dup3\n      add\n      mload\n      dup2\n      0x05\n      add\n      exp(0x0100, 0x01)\n      dup2\n      sload\n      dup2\n      0xff\n      mul\n      not\n      and\n      swap1\n      dup4\n      iszero\n      iszero\n      mul\n      or\n      swap1\n      sstore\n      pop\n      swap1\n      pop\n      pop\n        /* \"contracts/TestMarketplace.sol\":1692:1712  acceptedTokenAddress */\n      0x06\n      0x00\n      swap1\n      sload\n      swap1\n      0x0100\n      exp\n      swap1\n      div\n      0xffffffffffffffffffffffffffffffffffffffff\n      and\n        /* \"contracts/TestMarketplace.sol\":1685:1726  IERC20(acceptedTokenAddress).transferFrom */\n      0xffffffffffffffffffffffffffffffffffffffff\n      and\n      0x23b872dd\n        /* \"contracts/TestMarketplace.sol\":1727:1737  msg.sender */\n      caller\n        /* \"contracts/TestMarketplace.sol\":1747:1751  this */\n      address\n        /* \"contracts/TestMarketplace.sol\":1754:1766  listingPrice */\n      sload(0x07)\n        /* \"contracts/TestMarketplace.sol\":1685:1767  IERC20(acceptedTokenAddress).transferFrom(msg.sender, address(this), listingPrice) */\n      mload(0x40)\n      dup5\n      0xffffffff\n      and\n      0xe0\n      shl\n      dup2\n      mstore\n      0x04\n      add\n      tag_91\n      swap4\n      swap3\n      swap2\n      swap1\n      tag_92\n      jump\t// in\n    tag_91:\n      0x20\n      mload(0x40)\n      dup1\n      dup4\n      sub\n      dup2\n      0x00\n      dup8\n      dup1\n      extcodesize\n      iszero\n      dup1\n      iszero\n      tag_93\n      jumpi\n      0x00\n      dup1\n      revert\n    tag_93:\n      pop\n      gas\n      call\n      iszero\n      dup1\n      iszero\n      tag_95\n      jumpi\n      returndatasize\n      0x00\n      dup1\n      returndatacopy\n      revert(0x00, returndatasize)\n    tag_95:\n      pop\n      pop\n      pop\n      pop\n      mload(0x40)\n      returndatasize\n      not(0x1f)\n      0x1f\n      dup3\n      add\n      and\n      dup3\n      add\n      dup1\n      0x40\n      mstore\n      pop\n      dup2\n      add\n      swap1\n      tag_96\n      swap2\n      swap1\n      tag_97\n      jump\t// in\n    tag_96:\n      pop\n        /* \"contracts/TestMarketplace.sol\":1781:1792  nftContract */\n      0x05\n      0x00\n      swap1\n      sload\n      swap1\n      0x0100\n      exp\n      swap1\n      div\n      0xffffffffffffffffffffffffffffffffffffffff\n      and\n        /* \"contracts/TestMarketplace.sol\":1773:1810  IERC721(nftContract).safeTransferFrom */\n      0xffffffffffffffffffffffffffffffffffffffff\n      and\n      0x42842e0e\n        /* \"contracts/TestMarketplace.sol\":1811:1821  msg.sender */\n      caller\n        /* \"contracts/TestMarketplace.sol\":1831:1835  this */\n      address\n        /* \"contracts/TestMarketplace.sol\":1838:1845  tokenId */\n      dup7\n        /* \"contracts/TestMarketplace.sol\":1773:1846  IERC721(nftContract).safeTransferFrom(msg.sender, address(this), tokenId) */\n      mload(0x40)\n      dup5\n      0xffffffff\n      and\n      0xe0\n      shl\n      dup2\n      mstore\n      0x04\n      add\n      tag_98\n      swap4\n      swap3\n      swap2\n      swap1\n      tag_92\n      jump\t// in\n    tag_98:\n      0x00\n      mload(0x40)\n      dup1\n      dup4\n      sub\n      dup2\n      0x00\n      dup8\n      dup1\n      extcodesize\n      iszero\n      dup1\n      iszero\n      tag_99\n      jumpi\n      0x00\n      dup1\n      revert\n    tag_99:\n      pop\n      gas\n      call\n      iszero\n      dup1\n      iszero\n      tag_101\n      jumpi\n      returndatasize\n      0x00\n      dup1\n      returndatacopy\n      revert(0x00, returndatasize)\n    tag_101:\n      pop\n      pop\n      pop\n      pop\n        /* \"contracts/TestMarketplace.sol\":1873:1885  listingPrice */\n      sload(0x07)\n        /* \"contracts/TestMarketplace.sol\":1853:1869  _amountCollected */\n      0x04\n      0x00\n        /* \"contracts/TestMarketplace.sol\":1853:1885  _amountCollected += listingPrice */\n      dup3\n      dup3\n      sload\n      tag_102\n      swap2\n      swap1\n      tag_103\n      jump\t// in\n    tag_102:\n      swap3\n      pop\n      pop\n      dup2\n      swap1\n      sstore\n      pop\n        /* \"contracts/TestMarketplace.sol\":1936:1943  tokenId */\n      dup3\n        /* \"contracts/TestMarketplace.sol\":1922:1928  itemId */\n      dup2\n        /* \"contracts/TestMarketplace.sol\":1897:1998  MarketItemCreated(... */\n      0x38690a554ffbc44eb6a75016e47d517d0db8e6c37494adc68d6d0b2c66f0ab21\n        /* \"contracts/TestMarketplace.sol\":1951:1961  msg.sender */\n      caller\n        /* \"contracts/TestMarketplace.sol\":1977:1978  0 */\n      0x00\n        /* \"contracts/TestMarketplace.sol\":1987:1992  price */\n      dup7\n        /* \"contracts/TestMarketplace.sol\":1897:1998  MarketItemCreated(... */\n      mload(0x40)\n      tag_104\n      swap4\n      swap3\n      swap2\n      swap1\n      tag_92\n      jump\t// in\n    tag_104:\n      mload(0x40)\n      dup1\n      swap2\n      sub\n      swap1\n      log3\n        /* \"contracts/TestMarketplace.sol\":1313:2003  {... */\n      pop\n        /* \"@openzeppelin/contracts/security/ReentrancyGuard.sol\":1701:1702  1 */\n      0x01\n        /* \"@openzeppelin/contracts/security/ReentrancyGuard.sol\":2628:2635  _status */\n      dup1\n        /* \"@openzeppelin/contracts/security/ReentrancyGuard.sol\":2628:2650  _status = _NOT_ENTERED */\n      dup2\n      swap1\n      sstore\n      pop\n        /* \"contracts/TestMarketplace.sol\":1214:2003  function addItemToMarket(... */\n      pop\n      pop\n      jump\t// out\n        /* \"contracts/TestMarketplace.sol\":2007:2811  function buyItem(... */\n    tag_36:\n        /* \"@openzeppelin/contracts/security/ReentrancyGuard.sol\":1744:1745  2 */\n      0x02\n        /* \"@openzeppelin/contracts/security/ReentrancyGuard.sol\":2325:2332  _status */\n      sload(0x01)\n        /* \"@openzeppelin/contracts/security/ReentrancyGuard.sol\":2325:2344  _status != _ENTERED */\n      eq\n      iszero\n        /* \"@openzeppelin/contracts/security/ReentrancyGuard.sol\":2317:2380  require(_status != _ENTERED, \"ReentrancyGuard: reentrant call\") */\n      tag_106\n      jumpi\n      mload(0x40)\n      0x08c379a000000000000000000000000000000000000000000000000000000000\n      dup2\n      mstore\n      0x04\n      add\n      tag_107\n      swap1\n      tag_74\n      jump\t// in\n    tag_107:\n      mload(0x40)\n      dup1\n      swap2\n      sub\n      swap1\n      revert\n    tag_106:\n        /* \"@openzeppelin/contracts/security/ReentrancyGuard.sol\":1744:1745  2 */\n      0x02\n        /* \"@openzeppelin/contracts/security/ReentrancyGuard.sol\":2455:2462  _status */\n      0x01\n        /* \"@openzeppelin/contracts/security/ReentrancyGuard.sol\":2455:2473  _status = _ENTERED */\n      dup2\n      swap1\n      sstore\n      pop\n        /* \"contracts/TestMarketplace.sol\":2099:2109  uint price */\n      0x00\n        /* \"contracts/TestMarketplace.sol\":2112:2126  idToMarketItem */\n      0x08\n        /* \"contracts/TestMarketplace.sol\":2112:2134  idToMarketItem[itemId] */\n      0x00\n        /* \"contracts/TestMarketplace.sol\":2127:2133  itemId */\n      dup5\n        /* \"contracts/TestMarketplace.sol\":2112:2134  idToMarketItem[itemId] */\n      dup2\n      mstore\n      0x20\n      add\n      swap1\n      dup2\n      mstore\n      0x20\n      add\n      0x00\n      keccak256\n        /* \"contracts/TestMarketplace.sol\":2112:2140  idToMarketItem[itemId].price */\n      0x04\n      add\n      sload\n        /* \"contracts/TestMarketplace.sol\":2099:2140  uint price = idToMarketItem[itemId].price */\n      swap1\n      pop\n        /* \"contracts/TestMarketplace.sol\":2146:2158  uint tokenId */\n      0x00\n        /* \"contracts/TestMarketplace.sol\":2161:2175  idToMarketItem */\n      0x08\n        /* \"contracts/TestMarketplace.sol\":2161:2183  idToMarketItem[itemId] */\n      0x00\n        /* \"contracts/TestMarketplace.sol\":2176:2182  itemId */\n      dup6\n        /* \"contracts/TestMarketplace.sol\":2161:2183  idToMarketItem[itemId] */\n      dup2\n      mstore\n      0x20\n      add\n      swap1\n      dup2\n      mstore\n      0x20\n      add\n      0x00\n      keccak256\n        /* \"contracts/TestMarketplace.sol\":2161:2191  idToMarketItem[itemId].tokenId */\n      0x01\n      add\n      sload\n        /* \"contracts/TestMarketplace.sol\":2146:2191  uint tokenId = idToMarketItem[itemId].tokenId */\n      swap1\n      pop\n        /* \"contracts/TestMarketplace.sol\":2197:2213  bool isUpForSale */\n      0x00\n        /* \"contracts/TestMarketplace.sol\":2216:2230  idToMarketItem */\n      0x08\n        /* \"contracts/TestMarketplace.sol\":2216:2238  idToMarketItem[itemId] */\n      0x00\n        /* \"contracts/TestMarketplace.sol\":2231:2237  itemId */\n      dup7\n        /* \"contracts/TestMarketplace.sol\":2216:2238  idToMarketItem[itemId] */\n      dup2\n      mstore\n      0x20\n      add\n      swap1\n      dup2\n      mstore\n      0x20\n      add\n      0x00\n      keccak256\n        /* \"contracts/TestMarketplace.sol\":2216:2250  idToMarketItem[itemId].isUpForSale */\n      0x05\n      add\n      0x01\n      swap1\n      sload\n      swap1\n      0x0100\n      exp\n      swap1\n      div\n      0xff\n      and\n        /* \"contracts/TestMarketplace.sol\":2197:2250  bool isUpForSale = idToMarketItem[itemId].isUpForSale */\n      swap1\n      pop\n        /* \"contracts/TestMarketplace.sol\":2277:2282  price */\n      dup3\n        /* \"contracts/TestMarketplace.sol\":2264:2273  itemPrice */\n      dup5\n        /* \"contracts/TestMarketplace.sol\":2264:2282  itemPrice >= price */\n      lt\n      iszero\n        /* \"contracts/TestMarketplace.sol\":2256:2314  require(itemPrice >= price, \"Asking Price not satisfied!\") */\n      tag_109\n      jumpi\n      mload(0x40)\n      0x08c379a000000000000000000000000000000000000000000000000000000000\n      dup2\n      mstore\n      0x04\n      add\n      tag_110\n      swap1\n      tag_111\n      jump\t// in\n    tag_110:\n      mload(0x40)\n      dup1\n      swap2\n      sub\n      swap1\n      revert\n    tag_109:\n        /* \"contracts/TestMarketplace.sol\":2343:2347  true */\n      0x01\n        /* \"contracts/TestMarketplace.sol\":2328:2347  isUpForSale == true */\n      iszero\n      iszero\n        /* \"contracts/TestMarketplace.sol\":2328:2339  isUpForSale */\n      dup2\n        /* \"contracts/TestMarketplace.sol\":2328:2347  isUpForSale == true */\n      iszero\n      iszero\n      eq\n        /* \"contracts/TestMarketplace.sol\":2320:2369  require(isUpForSale == true, \"NFT not for sale.\") */\n      tag_112\n      jumpi\n      mload(0x40)\n      0x08c379a000000000000000000000000000000000000000000000000000000000\n      dup2\n      mstore\n      0x04\n      add\n      tag_113\n      swap1\n      tag_114\n      jump\t// in\n    tag_113:\n      mload(0x40)\n      dup1\n      swap2\n      sub\n      swap1\n      revert\n    tag_112:\n        /* \"contracts/TestMarketplace.sol\":2376:2394  address prevSeller */\n      0x00\n        /* \"contracts/TestMarketplace.sol\":2397:2411  idToMarketItem */\n      0x08\n        /* \"contracts/TestMarketplace.sol\":2397:2419  idToMarketItem[itemId] */\n      0x00\n        /* \"contracts/TestMarketplace.sol\":2412:2418  itemId */\n      dup8\n        /* \"contracts/TestMarketplace.sol\":2397:2419  idToMarketItem[itemId] */\n      dup2\n      mstore\n      0x20\n      add\n      swap1\n      dup2\n      mstore\n      0x20\n      add\n      0x00\n      keccak256\n        /* \"contracts/TestMarketplace.sol\":2397:2426  idToMarketItem[itemId].seller */\n      0x02\n      add\n      0x00\n      swap1\n      sload\n      swap1\n      0x0100\n      exp\n      swap1\n      div\n      0xffffffffffffffffffffffffffffffffffffffff\n      and\n        /* \"contracts/TestMarketplace.sol\":2376:2426  address prevSeller = idToMarketItem[itemId].seller */\n      swap1\n      pop\n        /* \"contracts/TestMarketplace.sol\":2464:2474  msg.sender */\n      caller\n        /* \"contracts/TestMarketplace.sol\":2433:2447  idToMarketItem */\n      0x08\n        /* \"contracts/TestMarketplace.sol\":2433:2455  idToMarketItem[itemId] */\n      0x00\n        /* \"contracts/TestMarketplace.sol\":2448:2454  itemId */\n      dup9\n        /* \"contracts/TestMarketplace.sol\":2433:2455  idToMarketItem[itemId] */\n      dup2\n      mstore\n      0x20\n      add\n      swap1\n      dup2\n      mstore\n      0x20\n      add\n      0x00\n      keccak256\n        /* \"contracts/TestMarketplace.sol\":2433:2461  idToMarketItem[itemId].owner */\n      0x03\n      add\n      0x00\n        /* \"contracts/TestMarketplace.sol\":2433:2474  idToMarketItem[itemId].owner = msg.sender */\n      0x0100\n      exp\n      dup2\n      sload\n      dup2\n      0xffffffffffffffffffffffffffffffffffffffff\n      mul\n      not\n      and\n      swap1\n      dup4\n      0xffffffffffffffffffffffffffffffffffffffff\n      and\n      mul\n      or\n      swap1\n      sstore\n      pop\n        /* \"contracts/TestMarketplace.sol\":2512:2522  msg.sender */\n      caller\n        /* \"contracts/TestMarketplace.sol\":2480:2494  idToMarketItem */\n      0x08\n        /* \"contracts/TestMarketplace.sol\":2480:2502  idToMarketItem[itemId] */\n      0x00\n        /* \"contracts/TestMarketplace.sol\":2495:2501  itemId */\n      dup9\n        /* \"contracts/TestMarketplace.sol\":2480:2502  idToMarketItem[itemId] */\n      dup2\n      mstore\n      0x20\n      add\n      swap1\n      dup2\n      mstore\n      0x20\n      add\n      0x00\n      keccak256\n        /* \"contracts/TestMarketplace.sol\":2480:2509  idToMarketItem[itemId].seller */\n      0x02\n      add\n      0x00\n        /* \"contracts/TestMarketplace.sol\":2480:2522  idToMarketItem[itemId].seller = msg.sender */\n      0x0100\n      exp\n      dup2\n      sload\n      dup2\n      0xffffffffffffffffffffffffffffffffffffffff\n      mul\n      not\n      and\n      swap1\n      dup4\n      0xffffffffffffffffffffffffffffffffffffffff\n      and\n      mul\n      or\n      swap1\n      sstore\n      pop\n        /* \"contracts/TestMarketplace.sol\":2560:2564  true */\n      0x01\n        /* \"contracts/TestMarketplace.sol\":2528:2542  idToMarketItem */\n      0x08\n        /* \"contracts/TestMarketplace.sol\":2528:2550  idToMarketItem[itemId] */\n      0x00\n        /* \"contracts/TestMarketplace.sol\":2543:2549  itemId */\n      dup9\n        /* \"contracts/TestMarketplace.sol\":2528:2550  idToMarketItem[itemId] */\n      dup2\n      mstore\n      0x20\n      add\n      swap1\n      dup2\n      mstore\n      0x20\n      add\n      0x00\n      keccak256\n        /* \"contracts/TestMarketplace.sol\":2528:2557  idToMarketItem[itemId].isSold */\n      0x05\n      add\n      0x00\n        /* \"contracts/TestMarketplace.sol\":2528:2564  idToMarketItem[itemId].isSold = true */\n      0x0100\n      exp\n      dup2\n      sload\n      dup2\n      0xff\n      mul\n      not\n      and\n      swap1\n      dup4\n      iszero\n      iszero\n      mul\n      or\n      swap1\n      sstore\n      pop\n        /* \"contracts/TestMarketplace.sol\":2607:2612  false */\n      0x00\n        /* \"contracts/TestMarketplace.sol\":2570:2584  idToMarketItem */\n      0x08\n        /* \"contracts/TestMarketplace.sol\":2570:2592  idToMarketItem[itemId] */\n      0x00\n        /* \"contracts/TestMarketplace.sol\":2585:2591  itemId */\n      dup9\n        /* \"contracts/TestMarketplace.sol\":2570:2592  idToMarketItem[itemId] */\n      dup2\n      mstore\n      0x20\n      add\n      swap1\n      dup2\n      mstore\n      0x20\n      add\n      0x00\n      keccak256\n        /* \"contracts/TestMarketplace.sol\":2570:2604  idToMarketItem[itemId].isUpForSale */\n      0x05\n      add\n      0x01\n        /* \"contracts/TestMarketplace.sol\":2570:2612  idToMarketItem[itemId].isUpForSale = false */\n      0x0100\n      exp\n      dup2\n      sload\n      dup2\n      0xff\n      mul\n      not\n      and\n      swap1\n      dup4\n      iszero\n      iszero\n      mul\n      or\n      swap1\n      sstore\n      pop\n        /* \"contracts/TestMarketplace.sol\":2627:2638  nftContract */\n      0x05\n      0x00\n      swap1\n      sload\n      swap1\n      0x0100\n      exp\n      swap1\n      div\n      0xffffffffffffffffffffffffffffffffffffffff\n      and\n        /* \"contracts/TestMarketplace.sol\":2619:2652  IERC721(nftContract).transferFrom */\n      0xffffffffffffffffffffffffffffffffffffffff\n      and\n      0x23b872dd\n        /* \"contracts/TestMarketplace.sol\":2653:2663  prevSeller */\n      dup3\n        /* \"contracts/TestMarketplace.sol\":2665:2675  msg.sender */\n      caller\n        /* \"contracts/TestMarketplace.sol\":2677:2684  tokenId */\n      dup7\n        /* \"contracts/TestMarketplace.sol\":2619:2685  IERC721(nftContract).transferFrom(prevSeller, msg.sender, tokenId) */\n      mload(0x40)\n      dup5\n      0xffffffff\n      and\n      0xe0\n      shl\n      dup2\n      mstore\n      0x04\n      add\n      tag_115\n      swap4\n      swap3\n      swap2\n      swap1\n      tag_92\n      jump\t// in\n    tag_115:\n      0x00\n      mload(0x40)\n      dup1\n      dup4\n      sub\n      dup2\n      0x00\n      dup8\n      dup1\n      extcodesize\n      iszero\n      dup1\n      iszero\n      tag_116\n      jumpi\n      0x00\n      dup1\n      revert\n    tag_116:\n      pop\n      gas\n      call\n      iszero\n      dup1\n      iszero\n      tag_118\n      jumpi\n      returndatasize\n      0x00\n      dup1\n      returndatacopy\n      revert(0x00, returndatasize)\n    tag_118:\n      pop\n      pop\n      pop\n      pop\n        /* \"contracts/TestMarketplace.sol\":2703:2723  acceptedTokenAddress */\n      0x06\n      0x00\n      swap1\n      sload\n      swap1\n      0x0100\n      exp\n      swap1\n      div\n      0xffffffffffffffffffffffffffffffffffffffff\n      and\n        /* \"contracts/TestMarketplace.sol\":2696:2737  IERC20(acceptedTokenAddress).transferFrom */\n      0xffffffffffffffffffffffffffffffffffffffff\n      and\n      0x23b872dd\n        /* \"contracts/TestMarketplace.sol\":2738:2748  msg.sender */\n      caller\n        /* \"contracts/TestMarketplace.sol\":2750:2760  prevSeller */\n      dup4\n        /* \"contracts/TestMarketplace.sol\":2762:2771  itemPrice */\n      dup9\n        /* \"contracts/TestMarketplace.sol\":2696:2772  IERC20(acceptedTokenAddress).transferFrom(msg.sender, prevSeller, itemPrice) */\n      mload(0x40)\n      dup5\n      0xffffffff\n      and\n      0xe0\n      shl\n      dup2\n      mstore\n      0x04\n      add\n      tag_119\n      swap4\n      swap3\n      swap2\n      swap1\n      tag_92\n      jump\t// in\n    tag_119:\n      0x20\n      mload(0x40)\n      dup1\n      dup4\n      sub\n      dup2\n      0x00\n      dup8\n      dup1\n      extcodesize\n      iszero\n      dup1\n      iszero\n      tag_120\n      jumpi\n      0x00\n      dup1\n      revert\n    tag_120:\n      pop\n      gas\n      call\n      iszero\n      dup1\n      iszero\n      tag_122\n      jumpi\n      returndatasize\n      0x00\n      dup1\n      returndatacopy\n      revert(0x00, returndatasize)\n    tag_122:\n      pop\n      pop\n      pop\n      pop\n      mload(0x40)\n      returndatasize\n      not(0x1f)\n      0x1f\n      dup3\n      add\n      and\n      dup3\n      add\n      dup1\n      0x40\n      mstore\n      pop\n      dup2\n      add\n      swap1\n      tag_123\n      swap2\n      swap1\n      tag_97\n      jump\t// in\n    tag_123:\n      pop\n        /* \"contracts/TestMarketplace.sol\":2783:2805  _itemsSold.increment() */\n      tag_124\n        /* \"contracts/TestMarketplace.sol\":2783:2793  _itemsSold */\n      0x03\n        /* \"contracts/TestMarketplace.sol\":2783:2803  _itemsSold.increment */\n      tag_88\n        /* \"contracts/TestMarketplace.sol\":2783:2805  _itemsSold.increment() */\n      jump\t// in\n    tag_124:\n        /* \"contracts/TestMarketplace.sol\":2093:2811  {... */\n      pop\n      pop\n      pop\n      pop\n        /* \"@openzeppelin/contracts/security/ReentrancyGuard.sol\":1701:1702  1 */\n      0x01\n        /* \"@openzeppelin/contracts/security/ReentrancyGuard.sol\":2628:2635  _status */\n      dup1\n        /* \"@openzeppelin/contracts/security/ReentrancyGuard.sol\":2628:2650  _status = _NOT_ENTERED */\n      dup2\n      swap1\n      sstore\n      pop\n        /* \"contracts/TestMarketplace.sol\":2007:2811  function buyItem(... */\n      pop\n      pop\n      jump\t// out\n        /* \"contracts/TestMarketplace.sol\":2989:3559  function getUnsoldItems() public view returns (MarketItem[] memory) {... */\n    tag_38:\n        /* \"contracts/TestMarketplace.sol\":3036:3055  MarketItem[] memory */\n      0x60\n        /* \"contracts/TestMarketplace.sol\":3063:3077  uint itemCount */\n      0x00\n        /* \"contracts/TestMarketplace.sol\":3080:3098  _itemIds.current() */\n      tag_126\n        /* \"contracts/TestMarketplace.sol\":3080:3088  _itemIds */\n      0x02\n        /* \"contracts/TestMarketplace.sol\":3080:3096  _itemIds.current */\n      tag_90\n        /* \"contracts/TestMarketplace.sol\":3080:3098  _itemIds.current() */\n      jump\t// in\n    tag_126:\n        /* \"contracts/TestMarketplace.sol\":3063:3098  uint itemCount = _itemIds.current() */\n      swap1\n      pop\n        /* \"contracts/TestMarketplace.sol\":3104:3124  uint unsoldItemCount */\n      0x00\n        /* \"contracts/TestMarketplace.sol\":3148:3168  _itemsSold.current() */\n      tag_127\n        /* \"contracts/TestMarketplace.sol\":3148:3158  _itemsSold */\n      0x03\n        /* \"contracts/TestMarketplace.sol\":3148:3166  _itemsSold.current */\n      tag_90\n        /* \"contracts/TestMarketplace.sol\":3148:3168  _itemsSold.current() */\n      jump\t// in\n    tag_127:\n        /* \"contracts/TestMarketplace.sol\":3127:3145  _itemIds.current() */\n      tag_128\n        /* \"contracts/TestMarketplace.sol\":3127:3135  _itemIds */\n      0x02\n        /* \"contracts/TestMarketplace.sol\":3127:3143  _itemIds.current */\n      tag_90\n        /* \"contracts/TestMarketplace.sol\":3127:3145  _itemIds.current() */\n      jump\t// in\n    tag_128:\n        /* \"contracts/TestMarketplace.sol\":3127:3168  _itemIds.current() - _itemsSold.current() */\n      tag_129\n      swap2\n      swap1\n      tag_130\n      jump\t// in\n    tag_129:\n        /* \"contracts/TestMarketplace.sol\":3104:3168  uint unsoldItemCount = _itemIds.current() - _itemsSold.current() */\n      swap1\n      pop\n        /* \"contracts/TestMarketplace.sol\":3174:3191  uint currentIndex */\n      0x00\n        /* \"contracts/TestMarketplace.sol\":3202:3227  MarketItem[] memory items */\n      dup1\n        /* \"contracts/TestMarketplace.sol\":3247:3262  unsoldItemCount */\n      dup3\n        /* \"contracts/TestMarketplace.sol\":3230:3263  new MarketItem[](unsoldItemCount) */\n      0xffffffffffffffff\n      dup2\n      gt\n      iszero\n      tag_131\n      jumpi\n      tag_132\n      tag_133\n      jump\t// in\n    tag_132:\n    tag_131:\n      mload(0x40)\n      swap1\n      dup1\n      dup3\n      mstore\n      dup1\n      0x20\n      mul\n      0x20\n      add\n      dup3\n      add\n      0x40\n      mstore\n      dup1\n      iszero\n      tag_134\n      jumpi\n      dup2\n      0x20\n      add\n    tag_135:\n      tag_136\n      tag_58\n      jump\t// in\n    tag_136:\n      dup2\n      mstore\n      0x20\n      add\n      swap1\n      0x01\n      swap1\n      sub\n      swap1\n      dup2\n      tag_135\n      jumpi\n      swap1\n      pop\n    tag_134:\n      pop\n        /* \"contracts/TestMarketplace.sol\":3202:3263  MarketItem[] memory items = new MarketItem[](unsoldItemCount) */\n      swap1\n      pop\n        /* \"contracts/TestMarketplace.sol\":3274:3280  uint i */\n      0x00\n        /* \"contracts/TestMarketplace.sol\":3269:3533  for (uint i = 0; i < itemCount; i++) {... */\n    tag_137:\n        /* \"contracts/TestMarketplace.sol\":3290:3299  itemCount */\n      dup5\n        /* \"contracts/TestMarketplace.sol\":3286:3287  i */\n      dup2\n        /* \"contracts/TestMarketplace.sol\":3286:3299  i < itemCount */\n      lt\n        /* \"contracts/TestMarketplace.sol\":3269:3533  for (uint i = 0; i < itemCount; i++) {... */\n      iszero\n      tag_138\n      jumpi\n        /* \"contracts/TestMarketplace.sol\":3319:3333  idToMarketItem */\n      0x08\n        /* \"contracts/TestMarketplace.sol\":3319:3340  idToMarketItem[i + 1] */\n      0x00\n        /* \"contracts/TestMarketplace.sol\":3338:3339  1 */\n      0x01\n        /* \"contracts/TestMarketplace.sol\":3334:3335  i */\n      dup4\n        /* \"contracts/TestMarketplace.sol\":3334:3339  i + 1 */\n      tag_140\n      swap2\n      swap1\n      tag_103\n      jump\t// in\n    tag_140:\n        /* \"contracts/TestMarketplace.sol\":3319:3340  idToMarketItem[i + 1] */\n      dup2\n      mstore\n      0x20\n      add\n      swap1\n      dup2\n      mstore\n      0x20\n      add\n      0x00\n      keccak256\n        /* \"contracts/TestMarketplace.sol\":3319:3347  idToMarketItem[i + 1].isSold */\n      0x05\n      add\n      0x00\n      swap1\n      sload\n      swap1\n      0x0100\n      exp\n      swap1\n      div\n      0xff\n      and\n        /* \"contracts/TestMarketplace.sol\":3314:3527  if (!idToMarketItem[i + 1].isSold) {... */\n      tag_141\n      jumpi\n        /* \"contracts/TestMarketplace.sol\":3359:3373  uint currentId */\n      0x00\n        /* \"contracts/TestMarketplace.sol\":3380:3381  1 */\n      0x01\n        /* \"contracts/TestMarketplace.sol\":3376:3377  i */\n      dup3\n        /* \"contracts/TestMarketplace.sol\":3376:3381  i + 1 */\n      tag_142\n      swap2\n      swap1\n      tag_103\n      jump\t// in\n    tag_142:\n        /* \"contracts/TestMarketplace.sol\":3359:3381  uint currentId = i + 1 */\n      swap1\n      pop\n        /* \"contracts/TestMarketplace.sol\":3391:3420  MarketItem memory currentItem */\n      0x00\n        /* \"contracts/TestMarketplace.sol\":3423:3437  idToMarketItem */\n      0x08\n        /* \"contracts/TestMarketplace.sol\":3423:3448  idToMarketItem[currentId] */\n      0x00\n        /* \"contracts/TestMarketplace.sol\":3438:3447  currentId */\n      dup4\n        /* \"contracts/TestMarketplace.sol\":3423:3448  idToMarketItem[currentId] */\n      dup2\n      mstore\n      0x20\n      add\n      swap1\n      dup2\n      mstore\n      0x20\n      add\n      0x00\n      keccak256\n        /* \"contracts/TestMarketplace.sol\":3391:3448  MarketItem memory currentItem = idToMarketItem[currentId] */\n      mload(0x40)\n      dup1\n      0xe0\n      add\n      0x40\n      mstore\n      swap1\n      dup2\n      0x00\n      dup3\n      add\n      sload\n      dup2\n      mstore\n      0x20\n      add\n      0x01\n      dup3\n      add\n      sload\n      dup2\n      mstore\n      0x20\n      add\n      0x02\n      dup3\n      add\n      0x00\n      swap1\n      sload\n      swap1\n      0x0100\n      exp\n      swap1\n      div\n      0xffffffffffffffffffffffffffffffffffffffff\n      and\n      0xffffffffffffffffffffffffffffffffffffffff\n      and\n      0xffffffffffffffffffffffffffffffffffffffff\n      and\n      dup2\n      mstore\n      0x20\n      add\n      0x03\n      dup3\n      add\n      0x00\n      swap1\n      sload\n      swap1\n      0x0100\n      exp\n      swap1\n      div\n      0xffffffffffffffffffffffffffffffffffffffff\n      and\n      0xffffffffffffffffffffffffffffffffffffffff\n      and\n      0xffffffffffffffffffffffffffffffffffffffff\n      and\n      dup2\n      mstore\n      0x20\n      add\n      0x04\n      dup3\n      add\n      sload\n      dup2\n      mstore\n      0x20\n      add\n      0x05\n      dup3\n      add\n      0x00\n      swap1\n      sload\n      swap1\n      0x0100\n      exp\n      swap1\n      div\n      0xff\n      and\n      iszero\n      iszero\n      iszero\n      iszero\n      dup2\n      mstore\n      0x20\n      add\n      0x05\n      dup3\n      add\n      0x01\n      swap1\n      sload\n      swap1\n      0x0100\n      exp\n      swap1\n      div\n      0xff\n      and\n      iszero\n      iszero\n      iszero\n      iszero\n      dup2\n      mstore\n      pop\n      pop\n      swap1\n      pop\n        /* \"contracts/TestMarketplace.sol\":3480:3491  currentItem */\n      dup1\n        /* \"contracts/TestMarketplace.sol\":3458:3463  items */\n      dup5\n        /* \"contracts/TestMarketplace.sol\":3464:3476  currentIndex */\n      dup7\n        /* \"contracts/TestMarketplace.sol\":3458:3477  items[currentIndex] */\n      dup2\n      mload\n      dup2\n      lt\n      tag_143\n      jumpi\n      tag_144\n      tag_145\n      jump\t// in\n    tag_144:\n    tag_143:\n      0x20\n      mul\n      0x20\n      add\n      add\n        /* \"contracts/TestMarketplace.sol\":3458:3491  items[currentIndex] = currentItem */\n      dup2\n      swap1\n      mstore\n      pop\n        /* \"contracts/TestMarketplace.sol\":3517:3518  1 */\n      0x01\n        /* \"contracts/TestMarketplace.sol\":3501:3518  currentIndex += 1 */\n      dup6\n      tag_146\n      swap2\n      swap1\n      tag_103\n      jump\t// in\n    tag_146:\n      swap5\n      pop\n        /* \"contracts/TestMarketplace.sol\":3349:3527  {... */\n      pop\n      pop\n        /* \"contracts/TestMarketplace.sol\":3314:3527  if (!idToMarketItem[i + 1].isSold) {... */\n    tag_141:\n        /* \"contracts/TestMarketplace.sol\":3301:3304  i++ */\n      dup1\n      dup1\n      tag_147\n      swap1\n      tag_148\n      jump\t// in\n    tag_147:\n      swap2\n      pop\n      pop\n        /* \"contracts/TestMarketplace.sol\":3269:3533  for (uint i = 0; i < itemCount; i++) {... */\n      jump(tag_137)\n    tag_138:\n      pop\n        /* \"contracts/TestMarketplace.sol\":3549:3554  items */\n      dup1\n        /* \"contracts/TestMarketplace.sol\":3542:3554  return items */\n      swap5\n      pop\n      pop\n      pop\n      pop\n      pop\n        /* \"contracts/TestMarketplace.sol\":2989:3559  function getUnsoldItems() public view returns (MarketItem[] memory) {... */\n      swap1\n      jump\t// out\n        /* \"contracts/TestMarketplace.sol\":650:689  uint256 public listingPrice = 0.1 ether */\n    tag_42:\n      sload(0x07)\n      dup2\n      jump\t// out\n        /* \"contracts/TestMarketplace.sol\":581:607  address public nftContract */\n    tag_46:\n      0x05\n      0x00\n      swap1\n      sload\n      swap1\n      0x0100\n      exp\n      swap1\n      div\n      0xffffffffffffffffffffffffffffffffffffffff\n      and\n      dup2\n      jump\t// out\n        /* \"contracts/TestMarketplace.sol\":856:908  mapping(uint256 => MarketItem) public idToMarketItem */\n    tag_50:\n      mstore(0x20, 0x08)\n      dup1\n      0x00\n      mstore\n      keccak256(0x00, 0x40)\n      0x00\n      swap2\n      pop\n      swap1\n      pop\n      dup1\n      0x00\n      add\n      sload\n      swap1\n      dup1\n      0x01\n      add\n      sload\n      swap1\n      dup1\n      0x02\n      add\n      0x00\n      swap1\n      sload\n      swap1\n      0x0100\n      exp\n      swap1\n      div\n      0xffffffffffffffffffffffffffffffffffffffff\n      and\n      swap1\n      dup1\n      0x03\n      add\n      0x00\n      swap1\n      sload\n      swap1\n      0x0100\n      exp\n      swap1\n      div\n      0xffffffffffffffffffffffffffffffffffffffff\n      and\n      swap1\n      dup1\n      0x04\n      add\n      sload\n      swap1\n      dup1\n      0x05\n      add\n      0x00\n      swap1\n      sload\n      swap1\n      0x0100\n      exp\n      swap1\n      div\n      0xff\n      and\n      swap1\n      dup1\n      0x05\n      add\n      0x01\n      swap1\n      sload\n      swap1\n      0x0100\n      exp\n      swap1\n      div\n      0xff\n      and\n      swap1\n      pop\n      dup8\n      jump\t// out\n        /* \"@openzeppelin/contracts/access/Ownable.sol\":1918:2116  function transferOwnership(address newOwner) public virtual onlyOwner {... */\n    tag_56:\n        /* \"@openzeppelin/contracts/access/Ownable.sol\":1259:1271  _msgSender() */\n      tag_150\n        /* \"@openzeppelin/contracts/access/Ownable.sol\":1259:1269  _msgSender */\n      tag_62\n        /* \"@openzeppelin/contracts/access/Ownable.sol\":1259:1271  _msgSender() */\n      jump\t// in\n    tag_150:\n        /* \"@openzeppelin/contracts/access/Ownable.sol\":1248:1271  owner() == _msgSender() */\n      0xffffffffffffffffffffffffffffffffffffffff\n      and\n        /* \"@openzeppelin/contracts/access/Ownable.sol\":1248:1255  owner() */\n      tag_151\n        /* \"@openzeppelin/contracts/access/Ownable.sol\":1248:1253  owner */\n      tag_28\n        /* \"@openzeppelin/contracts/access/Ownable.sol\":1248:1255  owner() */\n      jump\t// in\n    tag_151:\n        /* \"@openzeppelin/contracts/access/Ownable.sol\":1248:1271  owner() == _msgSender() */\n      0xffffffffffffffffffffffffffffffffffffffff\n      and\n      eq\n        /* \"@openzeppelin/contracts/access/Ownable.sol\":1240:1308  require(owner() == _msgSender(), \"Ownable: caller is not the owner\") */\n      tag_152\n      jumpi\n      mload(0x40)\n      0x08c379a000000000000000000000000000000000000000000000000000000000\n      dup2\n      mstore\n      0x04\n      add\n      tag_153\n      swap1\n      tag_66\n      jump\t// in\n    tag_153:\n      mload(0x40)\n      dup1\n      swap2\n      sub\n      swap1\n      revert\n    tag_152:\n        /* \"@openzeppelin/contracts/access/Ownable.sol\":2026:2027  0 */\n      0x00\n        /* \"@openzeppelin/contracts/access/Ownable.sol\":2006:2028  newOwner != address(0) */\n      0xffffffffffffffffffffffffffffffffffffffff\n      and\n        /* \"@openzeppelin/contracts/access/Ownable.sol\":2006:2014  newOwner */\n      dup2\n        /* \"@openzeppelin/contracts/access/Ownable.sol\":2006:2028  newOwner != address(0) */\n      0xffffffffffffffffffffffffffffffffffffffff\n      and\n      eq\n      iszero\n        /* \"@openzeppelin/contracts/access/Ownable.sol\":1998:2071  require(newOwner != address(0), \"Ownable: new owner is the zero address\") */\n      tag_155\n      jumpi\n      mload(0x40)\n      0x08c379a000000000000000000000000000000000000000000000000000000000\n      dup2\n      mstore\n      0x04\n      add\n      tag_156\n      swap1\n      tag_157\n      jump\t// in\n    tag_156:\n      mload(0x40)\n      dup1\n      swap2\n      sub\n      swap1\n      revert\n    tag_155:\n        /* \"@openzeppelin/contracts/access/Ownable.sol\":2081:2109  _transferOwnership(newOwner) */\n      tag_158\n        /* \"@openzeppelin/contracts/access/Ownable.sol\":2100:2108  newOwner */\n      dup2\n        /* \"@openzeppelin/contracts/access/Ownable.sol\":2081:2099  _transferOwnership */\n      tag_69\n        /* \"@openzeppelin/contracts/access/Ownable.sol\":2081:2109  _transferOwnership(newOwner) */\n      jump\t// in\n    tag_158:\n        /* \"@openzeppelin/contracts/access/Ownable.sol\":1918:2116  function transferOwnership(address newOwner) public virtual onlyOwner {... */\n      pop\n      jump\t// out\n        /* \"@openzeppelin/contracts/utils/Context.sol\":640:736  function _msgSender() internal view virtual returns (address) {... */\n    tag_62:\n        /* \"@openzeppelin/contracts/utils/Context.sol\":693:700  address */\n      0x00\n        /* \"@openzeppelin/contracts/utils/Context.sol\":719:729  msg.sender */\n      caller\n        /* \"@openzeppelin/contracts/utils/Context.sol\":712:729  return msg.sender */\n      swap1\n      pop\n        /* \"@openzeppelin/contracts/utils/Context.sol\":640:736  function _msgSender() internal view virtual returns (address) {... */\n      swap1\n      jump\t// out\n        /* \"@openzeppelin/contracts/access/Ownable.sol\":2270:2457  function _transferOwnership(address newOwner) internal virtual {... */\n    tag_69:\n        /* \"@openzeppelin/contracts/access/Ownable.sol\":2343:2359  address oldOwner */\n      0x00\n        /* \"@openzeppelin/contracts/access/Ownable.sol\":2362:2368  _owner */\n      dup1\n      0x00\n      swap1\n      sload\n      swap1\n      0x0100\n      exp\n      swap1\n      div\n      0xffffffffffffffffffffffffffffffffffffffff\n      and\n        /* \"@openzeppelin/contracts/access/Ownable.sol\":2343:2368  address oldOwner = _owner */\n      swap1\n      pop\n        /* \"@openzeppelin/contracts/access/Ownable.sol\":2387:2395  newOwner */\n      dup2\n        /* \"@openzeppelin/contracts/access/Ownable.sol\":2378:2384  _owner */\n      0x00\n      dup1\n        /* \"@openzeppelin/contracts/access/Ownable.sol\":2378:2395  _owner = newOwner */\n      0x0100\n      exp\n      dup2\n      sload\n      dup2\n      0xffffffffffffffffffffffffffffffffffffffff\n      mul\n      not\n      and\n      swap1\n      dup4\n      0xffffffffffffffffffffffffffffffffffffffff\n      and\n      mul\n      or\n      swap1\n      sstore\n      pop\n        /* \"@openzeppelin/contracts/access/Ownable.sol\":2441:2449  newOwner */\n      dup2\n        /* \"@openzeppelin/contracts/access/Ownable.sol\":2410:2450  OwnershipTransferred(oldOwner, newOwner) */\n      0xffffffffffffffffffffffffffffffffffffffff\n      and\n        /* \"@openzeppelin/contracts/access/Ownable.sol\":2431:2439  oldOwner */\n      dup2\n        /* \"@openzeppelin/contracts/access/Ownable.sol\":2410:2450  OwnershipTransferred(oldOwner, newOwner) */\n      0xffffffffffffffffffffffffffffffffffffffff\n      and\n      0x8be0079c531659141344cd1fd0a4f28419497f9722a3daafe3b4186f6b6457e0\n      mload(0x40)\n      mload(0x40)\n      dup1\n      swap2\n      sub\n      swap1\n      log3\n        /* \"@openzeppelin/contracts/access/Ownable.sol\":2333:2457  {... */\n      pop\n        /* \"@openzeppelin/contracts/access/Ownable.sol\":2270:2457  function _transferOwnership(address newOwner) internal virtual {... */\n      pop\n      jump\t// out\n        /* \"@openzeppelin/contracts/utils/Counters.sol\":945:1068  function increment(Counter storage counter) internal {... */\n    tag_88:\n        /* \"@openzeppelin/contracts/utils/Counters.sol\":1050:1051  1 */\n      0x01\n        /* \"@openzeppelin/contracts/utils/Counters.sol\":1032:1039  counter */\n      dup2\n        /* \"@openzeppelin/contracts/utils/Counters.sol\":1032:1046  counter._value */\n      0x00\n      add\n      0x00\n        /* \"@openzeppelin/contracts/utils/Counters.sol\":1032:1051  counter._value += 1 */\n      dup3\n      dup3\n      sload\n      add\n      swap3\n      pop\n      pop\n      dup2\n      swap1\n      sstore\n      pop\n        /* \"@openzeppelin/contracts/utils/Counters.sol\":945:1068  function increment(Counter storage counter) internal {... */\n      pop\n      jump\t// out\n        /* \"@openzeppelin/contracts/utils/Counters.sol\":827:939  function current(Counter storage counter) internal view returns (uint256) {... */\n    tag_90:\n        /* \"@openzeppelin/contracts/utils/Counters.sol\":892:899  uint256 */\n      0x00\n        /* \"@openzeppelin/contracts/utils/Counters.sol\":918:925  counter */\n      dup2\n        /* \"@openzeppelin/contracts/utils/Counters.sol\":918:932  counter._value */\n      0x00\n      add\n      sload\n        /* \"@openzeppelin/contracts/utils/Counters.sol\":911:932  return counter._value */\n      swap1\n      pop\n        /* \"@openzeppelin/contracts/utils/Counters.sol\":827:939  function current(Counter storage counter) internal view returns (uint256) {... */\n      swap2\n      swap1\n      pop\n      jump\t// out\n    tag_58:\n      mload(0x40)\n      dup1\n      0xe0\n      add\n      0x40\n      mstore\n      dup1\n      0x00\n      dup2\n      mstore\n      0x20\n      add\n      0x00\n      dup2\n      mstore\n      0x20\n      add\n      and(0xffffffffffffffffffffffffffffffffffffffff, 0x00)\n      dup2\n      mstore\n      0x20\n      add\n      and(0xffffffffffffffffffffffffffffffffffffffff, 0x00)\n      dup2\n      mstore\n      0x20\n      add\n      0x00\n      dup2\n      mstore\n      0x20\n      add\n      iszero(iszero(0x00))\n      dup2\n      mstore\n      0x20\n      add\n      iszero(iszero(0x00))\n      dup2\n      mstore\n      pop\n      swap1\n      jump\t// out\n        /* \"#utility.yul\":7:146   */\n    tag_164:\n        /* \"#utility.yul\":53:58   */\n      0x00\n        /* \"#utility.yul\":91:97   */\n      dup2\n        /* \"#utility.yul\":78:98   */\n      calldataload\n        /* \"#utility.yul\":69:98   */\n      swap1\n      pop\n        /* \"#utility.yul\":107:140   */\n      tag_166\n        /* \"#utility.yul\":134:139   */\n      dup2\n        /* \"#utility.yul\":107:140   */\n      tag_167\n      jump\t// in\n    tag_166:\n        /* \"#utility.yul\":7:146   */\n      swap3\n      swap2\n      pop\n      pop\n      jump\t// out\n        /* \"#utility.yul\":152:289   */\n    tag_168:\n        /* \"#utility.yul\":206:211   */\n      0x00\n        /* \"#utility.yul\":237:243   */\n      dup2\n        /* \"#utility.yul\":231:244   */\n      mload\n        /* \"#utility.yul\":222:244   */\n      swap1\n      pop\n        /* \"#utility.yul\":253:283   */\n      tag_170\n        /* \"#utility.yul\":277:282   */\n      dup2\n        /* \"#utility.yul\":253:283   */\n      tag_171\n      jump\t// in\n    tag_170:\n        /* \"#utility.yul\":152:289   */\n      swap3\n      swap2\n      pop\n      pop\n      jump\t// out\n        /* \"#utility.yul\":295:434   */\n    tag_172:\n        /* \"#utility.yul\":341:346   */\n      0x00\n        /* \"#utility.yul\":379:385   */\n      dup2\n        /* \"#utility.yul\":366:386   */\n      calldataload\n        /* \"#utility.yul\":357:386   */\n      swap1\n      pop\n        /* \"#utility.yul\":395:428   */\n      tag_174\n        /* \"#utility.yul\":422:427   */\n      dup2\n        /* \"#utility.yul\":395:428   */\n      tag_175\n      jump\t// in\n    tag_174:\n        /* \"#utility.yul\":295:434   */\n      swap3\n      swap2\n      pop\n      pop\n      jump\t// out\n        /* \"#utility.yul\":440:769   */\n    tag_55:\n        /* \"#utility.yul\":499:505   */\n      0x00\n        /* \"#utility.yul\":548:550   */\n      0x20\n        /* \"#utility.yul\":536:545   */\n      dup3\n        /* \"#utility.yul\":527:534   */\n      dup5\n        /* \"#utility.yul\":523:546   */\n      sub\n        /* \"#utility.yul\":519:551   */\n      slt\n        /* \"#utility.yul\":516:635   */\n      iszero\n      tag_177\n      jumpi\n        /* \"#utility.yul\":554:633   */\n      tag_178\n      tag_179\n      jump\t// in\n    tag_178:\n        /* \"#utility.yul\":516:635   */\n    tag_177:\n        /* \"#utility.yul\":674:675   */\n      0x00\n        /* \"#utility.yul\":699:752   */\n      tag_180\n        /* \"#utility.yul\":744:751   */\n      dup5\n        /* \"#utility.yul\":735:741   */\n      dup3\n        /* \"#utility.yul\":724:733   */\n      dup6\n        /* \"#utility.yul\":720:742   */\n      add\n        /* \"#utility.yul\":699:752   */\n      tag_164\n      jump\t// in\n    tag_180:\n        /* \"#utility.yul\":689:752   */\n      swap2\n      pop\n        /* \"#utility.yul\":645:762   */\n      pop\n        /* \"#utility.yul\":440:769   */\n      swap3\n      swap2\n      pop\n      pop\n      jump\t// out\n        /* \"#utility.yul\":775:1120   */\n    tag_97:\n        /* \"#utility.yul\":842:848   */\n      0x00\n        /* \"#utility.yul\":891:893   */\n      0x20\n        /* \"#utility.yul\":879:888   */\n      dup3\n        /* \"#utility.yul\":870:877   */\n      dup5\n        /* \"#utility.yul\":866:889   */\n      sub\n        /* \"#utility.yul\":862:894   */\n      slt\n        /* \"#utility.yul\":859:978   */\n      iszero\n      tag_182\n      jumpi\n        /* \"#utility.yul\":897:976   */\n      tag_183\n      tag_179\n      jump\t// in\n    tag_183:\n        /* \"#utility.yul\":859:978   */\n    tag_182:\n        /* \"#utility.yul\":1017:1018   */\n      0x00\n        /* \"#utility.yul\":1042:1103   */\n      tag_184\n        /* \"#utility.yul\":1095:1102   */\n      dup5\n        /* \"#utility.yul\":1086:1092   */\n      dup3\n        /* \"#utility.yul\":1075:1084   */\n      dup6\n        /* \"#utility.yul\":1071:1093   */\n      add\n        /* \"#utility.yul\":1042:1103   */\n      tag_168\n      jump\t// in\n    tag_184:\n        /* \"#utility.yul\":1032:1103   */\n      swap2\n      pop\n        /* \"#utility.yul\":988:1113   */\n      pop\n        /* \"#utility.yul\":775:1120   */\n      swap3\n      swap2\n      pop\n      pop\n      jump\t// out\n        /* \"#utility.yul\":1126:1455   */\n    tag_17:\n        /* \"#utility.yul\":1185:1191   */\n      0x00\n        /* \"#utility.yul\":1234:1236   */\n      0x20\n        /* \"#utility.yul\":1222:1231   */\n      dup3\n        /* \"#utility.yul\":1213:1220   */\n      dup5\n        /* \"#utility.yul\":1209:1232   */\n      sub\n        /* \"#utility.yul\":1205:1237   */\n      slt\n        /* \"#utility.yul\":1202:1321   */\n      iszero\n      tag_186\n      jumpi\n        /* \"#utility.yul\":1240:1319   */\n      tag_187\n      tag_179\n      jump\t// in\n    tag_187:\n        /* \"#utility.yul\":1202:1321   */\n    tag_186:\n        /* \"#utility.yul\":1360:1361   */\n      0x00\n        /* \"#utility.yul\":1385:1438   */\n      tag_188\n        /* \"#utility.yul\":1430:1437   */\n      dup5\n        /* \"#utility.yul\":1421:1427   */\n      dup3\n        /* \"#utility.yul\":1410:1419   */\n      dup6\n        /* \"#utility.yul\":1406:1428   */\n      add\n        /* \"#utility.yul\":1385:1438   */\n      tag_172\n      jump\t// in\n    tag_188:\n        /* \"#utility.yul\":1375:1438   */\n      swap2\n      pop\n        /* \"#utility.yul\":1331:1448   */\n      pop\n        /* \"#utility.yul\":1126:1455   */\n      swap3\n      swap2\n      pop\n      pop\n      jump\t// out\n        /* \"#utility.yul\":1461:1935   */\n    tag_32:\n        /* \"#utility.yul\":1529:1535   */\n      0x00\n        /* \"#utility.yul\":1537:1543   */\n      dup1\n        /* \"#utility.yul\":1586:1588   */\n      0x40\n        /* \"#utility.yul\":1574:1583   */\n      dup4\n        /* \"#utility.yul\":1565:1572   */\n      dup6\n        /* \"#utility.yul\":1561:1584   */\n      sub\n        /* \"#utility.yul\":1557:1589   */\n      slt\n        /* \"#utility.yul\":1554:1673   */\n      iszero\n      tag_190\n      jumpi\n        /* \"#utility.yul\":1592:1671   */\n      tag_191\n      tag_179\n      jump\t// in\n    tag_191:\n        /* \"#utility.yul\":1554:1673   */\n    tag_190:\n        /* \"#utility.yul\":1712:1713   */\n      0x00\n        /* \"#utility.yul\":1737:1790   */\n      tag_192\n        /* \"#utility.yul\":1782:1789   */\n      dup6\n        /* \"#utility.yul\":1773:1779   */\n      dup3\n        /* \"#utility.yul\":1762:1771   */\n      dup7\n        /* \"#utility.yul\":1758:1780   */\n      add\n        /* \"#utility.yul\":1737:1790   */\n      tag_172\n      jump\t// in\n    tag_192:\n        /* \"#utility.yul\":1727:1790   */\n      swap3\n      pop\n        /* \"#utility.yul\":1683:1800   */\n      pop\n        /* \"#utility.yul\":1839:1841   */\n      0x20\n        /* \"#utility.yul\":1865:1918   */\n      tag_193\n        /* \"#utility.yul\":1910:1917   */\n      dup6\n        /* \"#utility.yul\":1901:1907   */\n      dup3\n        /* \"#utility.yul\":1890:1899   */\n      dup7\n        /* \"#utility.yul\":1886:1908   */\n      add\n        /* \"#utility.yul\":1865:1918   */\n      tag_172\n      jump\t// in\n    tag_193:\n        /* \"#utility.yul\":1855:1918   */\n      swap2\n      pop\n        /* \"#utility.yul\":1810:1928   */\n      pop\n        /* \"#utility.yul\":1461:1935   */\n      swap3\n      pop\n      swap3\n      swap1\n      pop\n      jump\t// out\n        /* \"#utility.yul\":1941:2228   */\n    tag_194:\n        /* \"#utility.yul\":2064:2074   */\n      0x00\n        /* \"#utility.yul\":2085:2185   */\n      tag_196\n        /* \"#utility.yul\":2181:2184   */\n      dup4\n        /* \"#utility.yul\":2173:2179   */\n      dup4\n        /* \"#utility.yul\":2085:2185   */\n      tag_197\n      jump\t// in\n    tag_196:\n        /* \"#utility.yul\":2217:2221   */\n      0xe0\n        /* \"#utility.yul\":2212:2215   */\n      dup4\n        /* \"#utility.yul\":2208:2222   */\n      add\n        /* \"#utility.yul\":2194:2222   */\n      swap1\n      pop\n        /* \"#utility.yul\":1941:2228   */\n      swap3\n      swap2\n      pop\n      pop\n      jump\t// out\n        /* \"#utility.yul\":2234:2342   */\n    tag_198:\n        /* \"#utility.yul\":2311:2335   */\n      tag_200\n        /* \"#utility.yul\":2329:2334   */\n      dup2\n        /* \"#utility.yul\":2311:2335   */\n      tag_201\n      jump\t// in\n    tag_200:\n        /* \"#utility.yul\":2306:2309   */\n      dup3\n        /* \"#utility.yul\":2299:2336   */\n      mstore\n        /* \"#utility.yul\":2234:2342   */\n      pop\n      pop\n      jump\t// out\n        /* \"#utility.yul\":2348:2466   */\n    tag_202:\n        /* \"#utility.yul\":2435:2459   */\n      tag_204\n        /* \"#utility.yul\":2453:2458   */\n      dup2\n        /* \"#utility.yul\":2435:2459   */\n      tag_201\n      jump\t// in\n    tag_204:\n        /* \"#utility.yul\":2430:2433   */\n      dup3\n        /* \"#utility.yul\":2423:2460   */\n      mstore\n        /* \"#utility.yul\":2348:2466   */\n      pop\n      pop\n      jump\t// out\n        /* \"#utility.yul\":2554:3502   */\n    tag_205:\n        /* \"#utility.yul\":2727:2730   */\n      0x00\n        /* \"#utility.yul\":2756:2837   */\n      tag_207\n        /* \"#utility.yul\":2831:2836   */\n      dup3\n        /* \"#utility.yul\":2756:2837   */\n      tag_208\n      jump\t// in\n    tag_207:\n        /* \"#utility.yul\":2853:2966   */\n      tag_209\n        /* \"#utility.yul\":2959:2965   */\n      dup2\n        /* \"#utility.yul\":2954:2957   */\n      dup6\n        /* \"#utility.yul\":2853:2966   */\n      tag_210\n      jump\t// in\n    tag_209:\n        /* \"#utility.yul\":2846:2966   */\n      swap4\n      pop\n        /* \"#utility.yul\":2990:3073   */\n      tag_211\n        /* \"#utility.yul\":3067:3072   */\n      dup4\n        /* \"#utility.yul\":2990:3073   */\n      tag_212\n      jump\t// in\n    tag_211:\n        /* \"#utility.yul\":3096:3103   */\n      dup1\n        /* \"#utility.yul\":3127:3128   */\n      0x00\n        /* \"#utility.yul\":3112:3477   */\n    tag_213:\n        /* \"#utility.yul\":3137:3143   */\n      dup4\n        /* \"#utility.yul\":3134:3135   */\n      dup2\n        /* \"#utility.yul\":3131:3144   */\n      lt\n        /* \"#utility.yul\":3112:3477   */\n      iszero\n      tag_215\n      jumpi\n        /* \"#utility.yul\":3213:3219   */\n      dup2\n        /* \"#utility.yul\":3207:3220   */\n      mload\n        /* \"#utility.yul\":3240:3357   */\n      tag_216\n        /* \"#utility.yul\":3353:3356   */\n      dup9\n        /* \"#utility.yul\":3338:3351   */\n      dup3\n        /* \"#utility.yul\":3240:3357   */\n      tag_194\n      jump\t// in\n    tag_216:\n        /* \"#utility.yul\":3233:3357   */\n      swap8\n      pop\n        /* \"#utility.yul\":3380:3467   */\n      tag_217\n        /* \"#utility.yul\":3460:3466   */\n      dup4\n        /* \"#utility.yul\":3380:3467   */\n      tag_218\n      jump\t// in\n    tag_217:\n        /* \"#utility.yul\":3370:3467   */\n      swap3\n      pop\n        /* \"#utility.yul\":3172:3477   */\n      pop\n        /* \"#utility.yul\":3159:3160   */\n      0x01\n        /* \"#utility.yul\":3156:3157   */\n      dup2\n        /* \"#utility.yul\":3152:3161   */\n      add\n        /* \"#utility.yul\":3147:3161   */\n      swap1\n      pop\n        /* \"#utility.yul\":3112:3477   */\n      jump(tag_213)\n    tag_215:\n        /* \"#utility.yul\":3116:3130   */\n      pop\n        /* \"#utility.yul\":3493:3496   */\n      dup6\n        /* \"#utility.yul\":3486:3496   */\n      swap4\n      pop\n        /* \"#utility.yul\":2732:3502   */\n      pop\n      pop\n      pop\n        /* \"#utility.yul\":2554:3502   */\n      swap3\n      swap2\n      pop\n      pop\n      jump\t// out\n        /* \"#utility.yul\":3508:3607   */\n    tag_219:\n        /* \"#utility.yul\":3579:3600   */\n      tag_221\n        /* \"#utility.yul\":3594:3599   */\n      dup2\n        /* \"#utility.yul\":3579:3600   */\n      tag_222\n      jump\t// in\n    tag_221:\n        /* \"#utility.yul\":3574:3577   */\n      dup3\n        /* \"#utility.yul\":3567:3601   */\n      mstore\n        /* \"#utility.yul\":3508:3607   */\n      pop\n      pop\n      jump\t// out\n        /* \"#utility.yul\":3613:3722   */\n    tag_223:\n        /* \"#utility.yul\":3694:3715   */\n      tag_225\n        /* \"#utility.yul\":3709:3714   */\n      dup2\n        /* \"#utility.yul\":3694:3715   */\n      tag_222\n      jump\t// in\n    tag_225:\n        /* \"#utility.yul\":3689:3692   */\n      dup3\n        /* \"#utility.yul\":3682:3716   */\n      mstore\n        /* \"#utility.yul\":3613:3722   */\n      pop\n      pop\n      jump\t// out\n        /* \"#utility.yul\":3728:4094   */\n    tag_226:\n        /* \"#utility.yul\":3870:3873   */\n      0x00\n        /* \"#utility.yul\":3891:3958   */\n      tag_228\n        /* \"#utility.yul\":3955:3957   */\n      0x1b\n        /* \"#utility.yul\":3950:3953   */\n      dup4\n        /* \"#utility.yul\":3891:3958   */\n      tag_229\n      jump\t// in\n    tag_228:\n        /* \"#utility.yul\":3884:3958   */\n      swap2\n      pop\n        /* \"#utility.yul\":3967:4060   */\n      tag_230\n        /* \"#utility.yul\":4056:4059   */\n      dup3\n        /* \"#utility.yul\":3967:4060   */\n      tag_231\n      jump\t// in\n    tag_230:\n        /* \"#utility.yul\":4085:4087   */\n      0x20\n        /* \"#utility.yul\":4080:4083   */\n      dup3\n        /* \"#utility.yul\":4076:4088   */\n      add\n        /* \"#utility.yul\":4069:4088   */\n      swap1\n      pop\n        /* \"#utility.yul\":3728:4094   */\n      swap2\n      swap1\n      pop\n      jump\t// out\n        /* \"#utility.yul\":4100:4466   */\n    tag_232:\n        /* \"#utility.yul\":4242:4245   */\n      0x00\n        /* \"#utility.yul\":4263:4330   */\n      tag_234\n        /* \"#utility.yul\":4327:4329   */\n      0x2e\n        /* \"#utility.yul\":4322:4325   */\n      dup4\n        /* \"#utility.yul\":4263:4330   */\n      tag_229\n      jump\t// in\n    tag_234:\n        /* \"#utility.yul\":4256:4330   */\n      swap2\n      pop\n        /* \"#utility.yul\":4339:4432   */\n      tag_235\n        /* \"#utility.yul\":4428:4431   */\n      dup3\n        /* \"#utility.yul\":4339:4432   */\n      tag_236\n      jump\t// in\n    tag_235:\n        /* \"#utility.yul\":4457:4459   */\n      0x40\n        /* \"#utility.yul\":4452:4455   */\n      dup3\n        /* \"#utility.yul\":4448:4460   */\n      add\n        /* \"#utility.yul\":4441:4460   */\n      swap1\n      pop\n        /* \"#utility.yul\":4100:4466   */\n      swap2\n      swap1\n      pop\n      jump\t// out\n        /* \"#utility.yul\":4472:4838   */\n    tag_237:\n        /* \"#utility.yul\":4614:4617   */\n      0x00\n        /* \"#utility.yul\":4635:4702   */\n      tag_239\n        /* \"#utility.yul\":4699:4701   */\n      0x26\n        /* \"#utility.yul\":4694:4697   */\n      dup4\n        /* \"#utility.yul\":4635:4702   */\n      tag_229\n      jump\t// in\n    tag_239:\n        /* \"#utility.yul\":4628:4702   */\n      swap2\n      pop\n        /* \"#utility.yul\":4711:4804   */\n      tag_240\n        /* \"#utility.yul\":4800:4803   */\n      dup3\n        /* \"#utility.yul\":4711:4804   */\n      tag_241\n      jump\t// in\n    tag_240:\n        /* \"#utility.yul\":4829:4831   */\n      0x40\n        /* \"#utility.yul\":4824:4827   */\n      dup3\n        /* \"#utility.yul\":4820:4832   */\n      add\n        /* \"#utility.yul\":4813:4832   */\n      swap1\n      pop\n        /* \"#utility.yul\":4472:4838   */\n      swap2\n      swap1\n      pop\n      jump\t// out\n        /* \"#utility.yul\":4844:5210   */\n    tag_242:\n        /* \"#utility.yul\":4986:4989   */\n      0x00\n        /* \"#utility.yul\":5007:5074   */\n      tag_244\n        /* \"#utility.yul\":5071:5073   */\n      0x11\n        /* \"#utility.yul\":5066:5069   */\n      dup4\n        /* \"#utility.yul\":5007:5074   */\n      tag_229\n      jump\t// in\n    tag_244:\n        /* \"#utility.yul\":5000:5074   */\n      swap2\n      pop\n        /* \"#utility.yul\":5083:5176   */\n      tag_245\n        /* \"#utility.yul\":5172:5175   */\n      dup3\n        /* \"#utility.yul\":5083:5176   */\n      tag_246\n      jump\t// in\n    tag_245:\n        /* \"#utility.yul\":5201:5203   */\n      0x20\n        /* \"#utility.yul\":5196:5199   */\n      dup3\n        /* \"#utility.yul\":5192:5204   */\n      add\n        /* \"#utility.yul\":5185:5204   */\n      swap1\n      pop\n        /* \"#utility.yul\":4844:5210   */\n      swap2\n      swap1\n      pop\n      jump\t// out\n        /* \"#utility.yul\":5216:5582   */\n    tag_247:\n        /* \"#utility.yul\":5358:5361   */\n      0x00\n        /* \"#utility.yul\":5379:5446   */\n      tag_249\n        /* \"#utility.yul\":5443:5445   */\n      0x20\n        /* \"#utility.yul\":5438:5441   */\n      dup4\n        /* \"#utility.yul\":5379:5446   */\n      tag_229\n      jump\t// in\n    tag_249:\n        /* \"#utility.yul\":5372:5446   */\n      swap2\n      pop\n        /* \"#utility.yul\":5455:5548   */\n      tag_250\n        /* \"#utility.yul\":5544:5547   */\n      dup3\n        /* \"#utility.yul\":5455:5548   */\n      tag_251\n      jump\t// in\n    tag_250:\n        /* \"#utility.yul\":5573:5575   */\n      0x20\n        /* \"#utility.yul\":5568:5571   */\n      dup3\n        /* \"#utility.yul\":5564:5576   */\n      add\n        /* \"#utility.yul\":5557:5576   */\n      swap1\n      pop\n        /* \"#utility.yul\":5216:5582   */\n      swap2\n      swap1\n      pop\n      jump\t// out\n        /* \"#utility.yul\":5588:5954   */\n    tag_252:\n        /* \"#utility.yul\":5730:5733   */\n      0x00\n        /* \"#utility.yul\":5751:5818   */\n      tag_254\n        /* \"#utility.yul\":5815:5817   */\n      0x1f\n        /* \"#utility.yul\":5810:5813   */\n      dup4\n        /* \"#utility.yul\":5751:5818   */\n      tag_229\n      jump\t// in\n    tag_254:\n        /* \"#utility.yul\":5744:5818   */\n      swap2\n      pop\n        /* \"#utility.yul\":5827:5920   */\n      tag_255\n        /* \"#utility.yul\":5916:5919   */\n      dup3\n        /* \"#utility.yul\":5827:5920   */\n      tag_256\n      jump\t// in\n    tag_255:\n        /* \"#utility.yul\":5945:5947   */\n      0x20\n        /* \"#utility.yul\":5940:5943   */\n      dup3\n        /* \"#utility.yul\":5936:5948   */\n      add\n        /* \"#utility.yul\":5929:5948   */\n      swap1\n      pop\n        /* \"#utility.yul\":5588:5954   */\n      swap2\n      swap1\n      pop\n      jump\t// out\n        /* \"#utility.yul\":5960:6326   */\n    tag_257:\n        /* \"#utility.yul\":6102:6105   */\n      0x00\n        /* \"#utility.yul\":6123:6190   */\n      tag_259\n        /* \"#utility.yul\":6187:6189   */\n      0x1c\n        /* \"#utility.yul\":6182:6185   */\n      dup4\n        /* \"#utility.yul\":6123:6190   */\n      tag_229\n      jump\t// in\n    tag_259:\n        /* \"#utility.yul\":6116:6190   */\n      swap2\n      pop\n        /* \"#utility.yul\":6199:6292   */\n      tag_260\n        /* \"#utility.yul\":6288:6291   */\n      dup3\n        /* \"#utility.yul\":6199:6292   */\n      tag_261\n      jump\t// in\n    tag_260:\n        /* \"#utility.yul\":6317:6319   */\n      0x20\n        /* \"#utility.yul\":6312:6315   */\n      dup3\n        /* \"#utility.yul\":6308:6320   */\n      add\n        /* \"#utility.yul\":6301:6320   */\n      swap1\n      pop\n        /* \"#utility.yul\":5960:6326   */\n      swap2\n      swap1\n      pop\n      jump\t// out\n        /* \"#utility.yul\":6410:7787   */\n    tag_197:\n        /* \"#utility.yul\":6551:6555   */\n      0xe0\n        /* \"#utility.yul\":6546:6549   */\n      dup3\n        /* \"#utility.yul\":6542:6556   */\n      add\n        /* \"#utility.yul\":6640:6644   */\n      0x00\n        /* \"#utility.yul\":6633:6638   */\n      dup3\n        /* \"#utility.yul\":6629:6645   */\n      add\n        /* \"#utility.yul\":6623:6646   */\n      mload\n        /* \"#utility.yul\":6659:6722   */\n      tag_263\n        /* \"#utility.yul\":6716:6720   */\n      0x00\n        /* \"#utility.yul\":6711:6714   */\n      dup6\n        /* \"#utility.yul\":6707:6721   */\n      add\n        /* \"#utility.yul\":6693:6705   */\n      dup3\n        /* \"#utility.yul\":6659:6722   */\n      tag_264\n      jump\t// in\n    tag_263:\n        /* \"#utility.yul\":6566:6732   */\n      pop\n        /* \"#utility.yul\":6817:6821   */\n      0x20\n        /* \"#utility.yul\":6810:6815   */\n      dup3\n        /* \"#utility.yul\":6806:6822   */\n      add\n        /* \"#utility.yul\":6800:6823   */\n      mload\n        /* \"#utility.yul\":6836:6899   */\n      tag_265\n        /* \"#utility.yul\":6893:6897   */\n      0x20\n        /* \"#utility.yul\":6888:6891   */\n      dup6\n        /* \"#utility.yul\":6884:6898   */\n      add\n        /* \"#utility.yul\":6870:6882   */\n      dup3\n        /* \"#utility.yul\":6836:6899   */\n      tag_264\n      jump\t// in\n    tag_265:\n        /* \"#utility.yul\":6742:6909   */\n      pop\n        /* \"#utility.yul\":6993:6997   */\n      0x40\n        /* \"#utility.yul\":6986:6991   */\n      dup3\n        /* \"#utility.yul\":6982:6998   */\n      add\n        /* \"#utility.yul\":6976:6999   */\n      mload\n        /* \"#utility.yul\":7012:7075   */\n      tag_266\n        /* \"#utility.yul\":7069:7073   */\n      0x40\n        /* \"#utility.yul\":7064:7067   */\n      dup6\n        /* \"#utility.yul\":7060:7074   */\n      add\n        /* \"#utility.yul\":7046:7058   */\n      dup3\n        /* \"#utility.yul\":7012:7075   */\n      tag_198\n      jump\t// in\n    tag_266:\n        /* \"#utility.yul\":6919:7085   */\n      pop\n        /* \"#utility.yul\":7168:7172   */\n      0x60\n        /* \"#utility.yul\":7161:7166   */\n      dup3\n        /* \"#utility.yul\":7157:7173   */\n      add\n        /* \"#utility.yul\":7151:7174   */\n      mload\n        /* \"#utility.yul\":7187:7250   */\n      tag_267\n        /* \"#utility.yul\":7244:7248   */\n      0x60\n        /* \"#utility.yul\":7239:7242   */\n      dup6\n        /* \"#utility.yul\":7235:7249   */\n      add\n        /* \"#utility.yul\":7221:7233   */\n      dup3\n        /* \"#utility.yul\":7187:7250   */\n      tag_198\n      jump\t// in\n    tag_267:\n        /* \"#utility.yul\":7095:7260   */\n      pop\n        /* \"#utility.yul\":7343:7347   */\n      0x80\n        /* \"#utility.yul\":7336:7341   */\n      dup3\n        /* \"#utility.yul\":7332:7348   */\n      add\n        /* \"#utility.yul\":7326:7349   */\n      mload\n        /* \"#utility.yul\":7362:7425   */\n      tag_268\n        /* \"#utility.yul\":7419:7423   */\n      0x80\n        /* \"#utility.yul\":7414:7417   */\n      dup6\n        /* \"#utility.yul\":7410:7424   */\n      add\n        /* \"#utility.yul\":7396:7408   */\n      dup3\n        /* \"#utility.yul\":7362:7425   */\n      tag_264\n      jump\t// in\n    tag_268:\n        /* \"#utility.yul\":7270:7435   */\n      pop\n        /* \"#utility.yul\":7519:7523   */\n      0xa0\n        /* \"#utility.yul\":7512:7517   */\n      dup3\n        /* \"#utility.yul\":7508:7524   */\n      add\n        /* \"#utility.yul\":7502:7525   */\n      mload\n        /* \"#utility.yul\":7538:7595   */\n      tag_269\n        /* \"#utility.yul\":7589:7593   */\n      0xa0\n        /* \"#utility.yul\":7584:7587   */\n      dup6\n        /* \"#utility.yul\":7580:7594   */\n      add\n        /* \"#utility.yul\":7566:7578   */\n      dup3\n        /* \"#utility.yul\":7538:7595   */\n      tag_219\n      jump\t// in\n    tag_269:\n        /* \"#utility.yul\":7445:7605   */\n      pop\n        /* \"#utility.yul\":7694:7698   */\n      0xc0\n        /* \"#utility.yul\":7687:7692   */\n      dup3\n        /* \"#utility.yul\":7683:7699   */\n      add\n        /* \"#utility.yul\":7677:7700   */\n      mload\n        /* \"#utility.yul\":7713:7770   */\n      tag_270\n        /* \"#utility.yul\":7764:7768   */\n      0xc0\n        /* \"#utility.yul\":7759:7762   */\n      dup6\n        /* \"#utility.yul\":7755:7769   */\n      add\n        /* \"#utility.yul\":7741:7753   */\n      dup3\n        /* \"#utility.yul\":7713:7770   */\n      tag_219\n      jump\t// in\n    tag_270:\n        /* \"#utility.yul\":7615:7780   */\n      pop\n        /* \"#utility.yul\":6520:7787   */\n      pop\n        /* \"#utility.yul\":6410:7787   */\n      pop\n      pop\n      jump\t// out\n        /* \"#utility.yul\":7871:9258   */\n    tag_271:\n        /* \"#utility.yul\":8022:8026   */\n      0xe0\n        /* \"#utility.yul\":8017:8020   */\n      dup3\n        /* \"#utility.yul\":8013:8027   */\n      add\n        /* \"#utility.yul\":8111:8115   */\n      0x00\n        /* \"#utility.yul\":8104:8109   */\n      dup3\n        /* \"#utility.yul\":8100:8116   */\n      add\n        /* \"#utility.yul\":8094:8117   */\n      mload\n        /* \"#utility.yul\":8130:8193   */\n      tag_273\n        /* \"#utility.yul\":8187:8191   */\n      0x00\n        /* \"#utility.yul\":8182:8185   */\n      dup6\n        /* \"#utility.yul\":8178:8192   */\n      add\n        /* \"#utility.yul\":8164:8176   */\n      dup3\n        /* \"#utility.yul\":8130:8193   */\n      tag_264\n      jump\t// in\n    tag_273:\n        /* \"#utility.yul\":8037:8203   */\n      pop\n        /* \"#utility.yul\":8288:8292   */\n      0x20\n        /* \"#utility.yul\":8281:8286   */\n      dup3\n        /* \"#utility.yul\":8277:8293   */\n      add\n        /* \"#utility.yul\":8271:8294   */\n      mload\n        /* \"#utility.yul\":8307:8370   */\n      tag_274\n        /* \"#utility.yul\":8364:8368   */\n      0x20\n        /* \"#utility.yul\":8359:8362   */\n      dup6\n        /* \"#utility.yul\":8355:8369   */\n      add\n        /* \"#utility.yul\":8341:8353   */\n      dup3\n        /* \"#utility.yul\":8307:8370   */\n      tag_264\n      jump\t// in\n    tag_274:\n        /* \"#utility.yul\":8213:8380   */\n      pop\n        /* \"#utility.yul\":8464:8468   */\n      0x40\n        /* \"#utility.yul\":8457:8462   */\n      dup3\n        /* \"#utility.yul\":8453:8469   */\n      add\n        /* \"#utility.yul\":8447:8470   */\n      mload\n        /* \"#utility.yul\":8483:8546   */\n      tag_275\n        /* \"#utility.yul\":8540:8544   */\n      0x40\n        /* \"#utility.yul\":8535:8538   */\n      dup6\n        /* \"#utility.yul\":8531:8545   */\n      add\n        /* \"#utility.yul\":8517:8529   */\n      dup3\n        /* \"#utility.yul\":8483:8546   */\n      tag_198\n      jump\t// in\n    tag_275:\n        /* \"#utility.yul\":8390:8556   */\n      pop\n        /* \"#utility.yul\":8639:8643   */\n      0x60\n        /* \"#utility.yul\":8632:8637   */\n      dup3\n        /* \"#utility.yul\":8628:8644   */\n      add\n        /* \"#utility.yul\":8622:8645   */\n      mload\n        /* \"#utility.yul\":8658:8721   */\n      tag_276\n        /* \"#utility.yul\":8715:8719   */\n      0x60\n        /* \"#utility.yul\":8710:8713   */\n      dup6\n        /* \"#utility.yul\":8706:8720   */\n      add\n        /* \"#utility.yul\":8692:8704   */\n      dup3\n        /* \"#utility.yul\":8658:8721   */\n      tag_198\n      jump\t// in\n    tag_276:\n        /* \"#utility.yul\":8566:8731   */\n      pop\n        /* \"#utility.yul\":8814:8818   */\n      0x80\n        /* \"#utility.yul\":8807:8812   */\n      dup3\n        /* \"#utility.yul\":8803:8819   */\n      add\n        /* \"#utility.yul\":8797:8820   */\n      mload\n        /* \"#utility.yul\":8833:8896   */\n      tag_277\n        /* \"#utility.yul\":8890:8894   */\n      0x80\n        /* \"#utility.yul\":8885:8888   */\n      dup6\n        /* \"#utility.yul\":8881:8895   */\n      add\n        /* \"#utility.yul\":8867:8879   */\n      dup3\n        /* \"#utility.yul\":8833:8896   */\n      tag_264\n      jump\t// in\n    tag_277:\n        /* \"#utility.yul\":8741:8906   */\n      pop\n        /* \"#utility.yul\":8990:8994   */\n      0xa0\n        /* \"#utility.yul\":8983:8988   */\n      dup3\n        /* \"#utility.yul\":8979:8995   */\n      add\n        /* \"#utility.yul\":8973:8996   */\n      mload\n        /* \"#utility.yul\":9009:9066   */\n      tag_278\n        /* \"#utility.yul\":9060:9064   */\n      0xa0\n        /* \"#utility.yul\":9055:9058   */\n      dup6\n        /* \"#utility.yul\":9051:9065   */\n      add\n        /* \"#utility.yul\":9037:9049   */\n      dup3\n        /* \"#utility.yul\":9009:9066   */\n      tag_219\n      jump\t// in\n    tag_278:\n        /* \"#utility.yul\":8916:9076   */\n      pop\n        /* \"#utility.yul\":9165:9169   */\n      0xc0\n        /* \"#utility.yul\":9158:9163   */\n      dup3\n        /* \"#utility.yul\":9154:9170   */\n      add\n        /* \"#utility.yul\":9148:9171   */\n      mload\n        /* \"#utility.yul\":9184:9241   */\n      tag_279\n        /* \"#utility.yul\":9235:9239   */\n      0xc0\n        /* \"#utility.yul\":9230:9233   */\n      dup6\n        /* \"#utility.yul\":9226:9240   */\n      add\n        /* \"#utility.yul\":9212:9224   */\n      dup3\n        /* \"#utility.yul\":9184:9241   */\n      tag_219\n      jump\t// in\n    tag_279:\n        /* \"#utility.yul\":9086:9251   */\n      pop\n        /* \"#utility.yul\":7991:9258   */\n      pop\n        /* \"#utility.yul\":7871:9258   */\n      pop\n      pop\n      jump\t// out\n        /* \"#utility.yul\":9264:9372   */\n    tag_264:\n        /* \"#utility.yul\":9341:9365   */\n      tag_281\n        /* \"#utility.yul\":9359:9364   */\n      dup2\n        /* \"#utility.yul\":9341:9365   */\n      tag_282\n      jump\t// in\n    tag_281:\n        /* \"#utility.yul\":9336:9339   */\n      dup3\n        /* \"#utility.yul\":9329:9366   */\n      mstore\n        /* \"#utility.yul\":9264:9372   */\n      pop\n      pop\n      jump\t// out\n        /* \"#utility.yul\":9378:9496   */\n    tag_283:\n        /* \"#utility.yul\":9465:9489   */\n      tag_285\n        /* \"#utility.yul\":9483:9488   */\n      dup2\n        /* \"#utility.yul\":9465:9489   */\n      tag_282\n      jump\t// in\n    tag_285:\n        /* \"#utility.yul\":9460:9463   */\n      dup3\n        /* \"#utility.yul\":9453:9490   */\n      mstore\n        /* \"#utility.yul\":9378:9496   */\n      pop\n      pop\n      jump\t// out\n        /* \"#utility.yul\":9502:9724   */\n    tag_26:\n        /* \"#utility.yul\":9595:9599   */\n      0x00\n        /* \"#utility.yul\":9633:9635   */\n      0x20\n        /* \"#utility.yul\":9622:9631   */\n      dup3\n        /* \"#utility.yul\":9618:9636   */\n      add\n        /* \"#utility.yul\":9610:9636   */\n      swap1\n      pop\n        /* \"#utility.yul\":9646:9717   */\n      tag_287\n        /* \"#utility.yul\":9714:9715   */\n      0x00\n        /* \"#utility.yul\":9703:9712   */\n      dup4\n        /* \"#utility.yul\":9699:9716   */\n      add\n        /* \"#utility.yul\":9690:9696   */\n      dup5\n        /* \"#utility.yul\":9646:9717   */\n      tag_202\n      jump\t// in\n    tag_287:\n        /* \"#utility.yul\":9502:9724   */\n      swap3\n      swap2\n      pop\n      pop\n      jump\t// out\n        /* \"#utility.yul\":9730:10172   */\n    tag_92:\n        /* \"#utility.yul\":9879:9883   */\n      0x00\n        /* \"#utility.yul\":9917:9919   */\n      0x60\n        /* \"#utility.yul\":9906:9915   */\n      dup3\n        /* \"#utility.yul\":9902:9920   */\n      add\n        /* \"#utility.yul\":9894:9920   */\n      swap1\n      pop\n        /* \"#utility.yul\":9930:10001   */\n      tag_289\n        /* \"#utility.yul\":9998:9999   */\n      0x00\n        /* \"#utility.yul\":9987:9996   */\n      dup4\n        /* \"#utility.yul\":9983:10000   */\n      add\n        /* \"#utility.yul\":9974:9980   */\n      dup7\n        /* \"#utility.yul\":9930:10001   */\n      tag_202\n      jump\t// in\n    tag_289:\n        /* \"#utility.yul\":10011:10083   */\n      tag_290\n        /* \"#utility.yul\":10079:10081   */\n      0x20\n        /* \"#utility.yul\":10068:10077   */\n      dup4\n        /* \"#utility.yul\":10064:10082   */\n      add\n        /* \"#utility.yul\":10055:10061   */\n      dup6\n        /* \"#utility.yul\":10011:10083   */\n      tag_202\n      jump\t// in\n    tag_290:\n        /* \"#utility.yul\":10093:10165   */\n      tag_291\n        /* \"#utility.yul\":10161:10163   */\n      0x40\n        /* \"#utility.yul\":10150:10159   */\n      dup4\n        /* \"#utility.yul\":10146:10164   */\n      add\n        /* \"#utility.yul\":10137:10143   */\n      dup5\n        /* \"#utility.yul\":10093:10165   */\n      tag_283\n      jump\t// in\n    tag_291:\n        /* \"#utility.yul\":9730:10172   */\n      swap5\n      swap4\n      pop\n      pop\n      pop\n      pop\n      jump\t// out\n        /* \"#utility.yul\":10178:10659   */\n    tag_40:\n        /* \"#utility.yul\":10375:10379   */\n      0x00\n        /* \"#utility.yul\":10413:10415   */\n      0x20\n        /* \"#utility.yul\":10402:10411   */\n      dup3\n        /* \"#utility.yul\":10398:10416   */\n      add\n        /* \"#utility.yul\":10390:10416   */\n      swap1\n      pop\n        /* \"#utility.yul\":10462:10471   */\n      dup2\n        /* \"#utility.yul\":10456:10460   */\n      dup2\n        /* \"#utility.yul\":10452:10472   */\n      sub\n        /* \"#utility.yul\":10448:10449   */\n      0x00\n        /* \"#utility.yul\":10437:10446   */\n      dup4\n        /* \"#utility.yul\":10433:10450   */\n      add\n        /* \"#utility.yul\":10426:10473   */\n      mstore\n        /* \"#utility.yul\":10490:10652   */\n      tag_293\n        /* \"#utility.yul\":10647:10651   */\n      dup2\n        /* \"#utility.yul\":10638:10644   */\n      dup5\n        /* \"#utility.yul\":10490:10652   */\n      tag_205\n      jump\t// in\n    tag_293:\n        /* \"#utility.yul\":10482:10652   */\n      swap1\n      pop\n        /* \"#utility.yul\":10178:10659   */\n      swap3\n      swap2\n      pop\n      pop\n      jump\t// out\n        /* \"#utility.yul\":10665:11084   */\n    tag_111:\n        /* \"#utility.yul\":10831:10835   */\n      0x00\n        /* \"#utility.yul\":10869:10871   */\n      0x20\n        /* \"#utility.yul\":10858:10867   */\n      dup3\n        /* \"#utility.yul\":10854:10872   */\n      add\n        /* \"#utility.yul\":10846:10872   */\n      swap1\n      pop\n        /* \"#utility.yul\":10918:10927   */\n      dup2\n        /* \"#utility.yul\":10912:10916   */\n      dup2\n        /* \"#utility.yul\":10908:10928   */\n      sub\n        /* \"#utility.yul\":10904:10905   */\n      0x00\n        /* \"#utility.yul\":10893:10902   */\n      dup4\n        /* \"#utility.yul\":10889:10906   */\n      add\n        /* \"#utility.yul\":10882:10929   */\n      mstore\n        /* \"#utility.yul\":10946:11077   */\n      tag_295\n        /* \"#utility.yul\":11072:11076   */\n      dup2\n        /* \"#utility.yul\":10946:11077   */\n      tag_226\n      jump\t// in\n    tag_295:\n        /* \"#utility.yul\":10938:11077   */\n      swap1\n      pop\n        /* \"#utility.yul\":10665:11084   */\n      swap2\n      swap1\n      pop\n      jump\t// out\n        /* \"#utility.yul\":11090:11509   */\n    tag_86:\n        /* \"#utility.yul\":11256:11260   */\n      0x00\n        /* \"#utility.yul\":11294:11296   */\n      0x20\n        /* \"#utility.yul\":11283:11292   */\n      dup3\n        /* \"#utility.yul\":11279:11297   */\n      add\n        /* \"#utility.yul\":11271:11297   */\n      swap1\n      pop\n        /* \"#utility.yul\":11343:11352   */\n      dup2\n        /* \"#utility.yul\":11337:11341   */\n      dup2\n        /* \"#utility.yul\":11333:11353   */\n      sub\n        /* \"#utility.yul\":11329:11330   */\n      0x00\n        /* \"#utility.yul\":11318:11327   */\n      dup4\n        /* \"#utility.yul\":11314:11331   */\n      add\n        /* \"#utility.yul\":11307:11354   */\n      mstore\n        /* \"#utility.yul\":11371:11502   */\n      tag_297\n        /* \"#utility.yul\":11497:11501   */\n      dup2\n        /* \"#utility.yul\":11371:11502   */\n      tag_232\n      jump\t// in\n    tag_297:\n        /* \"#utility.yul\":11363:11502   */\n      swap1\n      pop\n        /* \"#utility.yul\":11090:11509   */\n      swap2\n      swap1\n      pop\n      jump\t// out\n        /* \"#utility.yul\":11515:11934   */\n    tag_157:\n        /* \"#utility.yul\":11681:11685   */\n      0x00\n        /* \"#utility.yul\":11719:11721   */\n      0x20\n        /* \"#utility.yul\":11708:11717   */\n      dup3\n        /* \"#utility.yul\":11704:11722   */\n      add\n        /* \"#utility.yul\":11696:11722   */\n      swap1\n      pop\n        /* \"#utility.yul\":11768:11777   */\n      dup2\n        /* \"#utility.yul\":11762:11766   */\n      dup2\n        /* \"#utility.yul\":11758:11778   */\n      sub\n        /* \"#utility.yul\":11754:11755   */\n      0x00\n        /* \"#utility.yul\":11743:11752   */\n      dup4\n        /* \"#utility.yul\":11739:11756   */\n      add\n        /* \"#utility.yul\":11732:11779   */\n      mstore\n        /* \"#utility.yul\":11796:11927   */\n      tag_299\n        /* \"#utility.yul\":11922:11926   */\n      dup2\n        /* \"#utility.yul\":11796:11927   */\n      tag_237\n      jump\t// in\n    tag_299:\n        /* \"#utility.yul\":11788:11927   */\n      swap1\n      pop\n        /* \"#utility.yul\":11515:11934   */\n      swap2\n      swap1\n      pop\n      jump\t// out\n        /* \"#utility.yul\":11940:12359   */\n    tag_114:\n        /* \"#utility.yul\":12106:12110   */\n      0x00\n        /* \"#utility.yul\":12144:12146   */\n      0x20\n        /* \"#utility.yul\":12133:12142   */\n      dup3\n        /* \"#utility.yul\":12129:12147   */\n      add\n        /* \"#utility.yul\":12121:12147   */\n      swap1\n      pop\n        /* \"#utility.yul\":12193:12202   */\n      dup2\n        /* \"#utility.yul\":12187:12191   */\n      dup2\n        /* \"#utility.yul\":12183:12203   */\n      sub\n        /* \"#utility.yul\":12179:12180   */\n      0x00\n        /* \"#utility.yul\":12168:12177   */\n      dup4\n        /* \"#utility.yul\":12164:12181   */\n      add\n        /* \"#utility.yul\":12157:12204   */\n      mstore\n        /* \"#utility.yul\":12221:12352   */\n      tag_301\n        /* \"#utility.yul\":12347:12351   */\n      dup2\n        /* \"#utility.yul\":12221:12352   */\n      tag_242\n      jump\t// in\n    tag_301:\n        /* \"#utility.yul\":12213:12352   */\n      swap1\n      pop\n        /* \"#utility.yul\":11940:12359   */\n      swap2\n      swap1\n      pop\n      jump\t// out\n        /* \"#utility.yul\":12365:12784   */\n    tag_66:\n        /* \"#utility.yul\":12531:12535   */\n      0x00\n        /* \"#utility.yul\":12569:12571   */\n      0x20\n        /* \"#utility.yul\":12558:12567   */\n      dup3\n        /* \"#utility.yul\":12554:12572   */\n      add\n        /* \"#utility.yul\":12546:12572   */\n      swap1\n      pop\n        /* \"#utility.yul\":12618:12627   */\n      dup2\n        /* \"#utility.yul\":12612:12616   */\n      dup2\n        /* \"#utility.yul\":12608:12628   */\n      sub\n        /* \"#utility.yul\":12604:12605   */\n      0x00\n        /* \"#utility.yul\":12593:12602   */\n      dup4\n        /* \"#utility.yul\":12589:12606   */\n      add\n        /* \"#utility.yul\":12582:12629   */\n      mstore\n        /* \"#utility.yul\":12646:12777   */\n      tag_303\n        /* \"#utility.yul\":12772:12776   */\n      dup2\n        /* \"#utility.yul\":12646:12777   */\n      tag_247\n      jump\t// in\n    tag_303:\n        /* \"#utility.yul\":12638:12777   */\n      swap1\n      pop\n        /* \"#utility.yul\":12365:12784   */\n      swap2\n      swap1\n      pop\n      jump\t// out\n        /* \"#utility.yul\":12790:13209   */\n    tag_74:\n        /* \"#utility.yul\":12956:12960   */\n      0x00\n        /* \"#utility.yul\":12994:12996   */\n      0x20\n        /* \"#utility.yul\":12983:12992   */\n      dup3\n        /* \"#utility.yul\":12979:12997   */\n      add\n        /* \"#utility.yul\":12971:12997   */\n      swap1\n      pop\n        /* \"#utility.yul\":13043:13052   */\n      dup2\n        /* \"#utility.yul\":13037:13041   */\n      dup2\n        /* \"#utility.yul\":13033:13053   */\n      sub\n        /* \"#utility.yul\":13029:13030   */\n      0x00\n        /* \"#utility.yul\":13018:13027   */\n      dup4\n        /* \"#utility.yul\":13014:13031   */\n      add\n        /* \"#utility.yul\":13007:13054   */\n      mstore\n        /* \"#utility.yul\":13071:13202   */\n      tag_305\n        /* \"#utility.yul\":13197:13201   */\n      dup2\n        /* \"#utility.yul\":13071:13202   */\n      tag_252\n      jump\t// in\n    tag_305:\n        /* \"#utility.yul\":13063:13202   */\n      swap1\n      pop\n        /* \"#utility.yul\":12790:13209   */\n      swap2\n      swap1\n      pop\n      jump\t// out\n        /* \"#utility.yul\":13215:13634   */\n    tag_83:\n        /* \"#utility.yul\":13381:13385   */\n      0x00\n        /* \"#utility.yul\":13419:13421   */\n      0x20\n        /* \"#utility.yul\":13408:13417   */\n      dup3\n        /* \"#utility.yul\":13404:13422   */\n      add\n        /* \"#utility.yul\":13396:13422   */\n      swap1\n      pop\n        /* \"#utility.yul\":13468:13477   */\n      dup2\n        /* \"#utility.yul\":13462:13466   */\n      dup2\n        /* \"#utility.yul\":13458:13478   */\n      sub\n        /* \"#utility.yul\":13454:13455   */\n      0x00\n        /* \"#utility.yul\":13443:13452   */\n      dup4\n        /* \"#utility.yul\":13439:13456   */\n      add\n        /* \"#utility.yul\":13432:13479   */\n      mstore\n        /* \"#utility.yul\":13496:13627   */\n      tag_307\n        /* \"#utility.yul\":13622:13626   */\n      dup2\n        /* \"#utility.yul\":13496:13627   */\n      tag_257\n      jump\t// in\n    tag_307:\n        /* \"#utility.yul\":13488:13627   */\n      swap1\n      pop\n        /* \"#utility.yul\":13215:13634   */\n      swap2\n      swap1\n      pop\n      jump\t// out\n        /* \"#utility.yul\":13640:13971   */\n    tag_20:\n        /* \"#utility.yul\":13787:13791   */\n      0x00\n        /* \"#utility.yul\":13825:13828   */\n      0xe0\n        /* \"#utility.yul\":13814:13823   */\n      dup3\n        /* \"#utility.yul\":13810:13829   */\n      add\n        /* \"#utility.yul\":13802:13829   */\n      swap1\n      pop\n        /* \"#utility.yul\":13839:13964   */\n      tag_309\n        /* \"#utility.yul\":13961:13962   */\n      0x00\n        /* \"#utility.yul\":13950:13959   */\n      dup4\n        /* \"#utility.yul\":13946:13963   */\n      add\n        /* \"#utility.yul\":13937:13943   */\n      dup5\n        /* \"#utility.yul\":13839:13964   */\n      tag_271\n      jump\t// in\n    tag_309:\n        /* \"#utility.yul\":13640:13971   */\n      swap3\n      swap2\n      pop\n      pop\n      jump\t// out\n        /* \"#utility.yul\":13977:14199   */\n    tag_44:\n        /* \"#utility.yul\":14070:14074   */\n      0x00\n        /* \"#utility.yul\":14108:14110   */\n      0x20\n        /* \"#utility.yul\":14097:14106   */\n      dup3\n        /* \"#utility.yul\":14093:14111   */\n      add\n        /* \"#utility.yul\":14085:14111   */\n      swap1\n      pop\n        /* \"#utility.yul\":14121:14192   */\n      tag_311\n        /* \"#utility.yul\":14189:14190   */\n      0x00\n        /* \"#utility.yul\":14178:14187   */\n      dup4\n        /* \"#utility.yul\":14174:14191   */\n      add\n        /* \"#utility.yul\":14165:14171   */\n      dup5\n        /* \"#utility.yul\":14121:14192   */\n      tag_283\n      jump\t// in\n    tag_311:\n        /* \"#utility.yul\":13977:14199   */\n      swap3\n      swap2\n      pop\n      pop\n      jump\t// out\n        /* \"#utility.yul\":14205:15067   */\n    tag_52:\n        /* \"#utility.yul\":14454:14458   */\n      0x00\n        /* \"#utility.yul\":14492:14495   */\n      0xe0\n        /* \"#utility.yul\":14481:14490   */\n      dup3\n        /* \"#utility.yul\":14477:14496   */\n      add\n        /* \"#utility.yul\":14469:14496   */\n      swap1\n      pop\n        /* \"#utility.yul\":14506:14577   */\n      tag_313\n        /* \"#utility.yul\":14574:14575   */\n      0x00\n        /* \"#utility.yul\":14563:14572   */\n      dup4\n        /* \"#utility.yul\":14559:14576   */\n      add\n        /* \"#utility.yul\":14550:14556   */\n      dup11\n        /* \"#utility.yul\":14506:14577   */\n      tag_283\n      jump\t// in\n    tag_313:\n        /* \"#utility.yul\":14587:14659   */\n      tag_314\n        /* \"#utility.yul\":14655:14657   */\n      0x20\n        /* \"#utility.yul\":14644:14653   */\n      dup4\n        /* \"#utility.yul\":14640:14658   */\n      add\n        /* \"#utility.yul\":14631:14637   */\n      dup10\n        /* \"#utility.yul\":14587:14659   */\n      tag_283\n      jump\t// in\n    tag_314:\n        /* \"#utility.yul\":14669:14741   */\n      tag_315\n        /* \"#utility.yul\":14737:14739   */\n      0x40\n        /* \"#utility.yul\":14726:14735   */\n      dup4\n        /* \"#utility.yul\":14722:14740   */\n      add\n        /* \"#utility.yul\":14713:14719   */\n      dup9\n        /* \"#utility.yul\":14669:14741   */\n      tag_202\n      jump\t// in\n    tag_315:\n        /* \"#utility.yul\":14751:14823   */\n      tag_316\n        /* \"#utility.yul\":14819:14821   */\n      0x60\n        /* \"#utility.yul\":14808:14817   */\n      dup4\n        /* \"#utility.yul\":14804:14822   */\n      add\n        /* \"#utility.yul\":14795:14801   */\n      dup8\n        /* \"#utility.yul\":14751:14823   */\n      tag_202\n      jump\t// in\n    tag_316:\n        /* \"#utility.yul\":14833:14906   */\n      tag_317\n        /* \"#utility.yul\":14901:14904   */\n      0x80\n        /* \"#utility.yul\":14890:14899   */\n      dup4\n        /* \"#utility.yul\":14886:14905   */\n      add\n        /* \"#utility.yul\":14877:14883   */\n      dup7\n        /* \"#utility.yul\":14833:14906   */\n      tag_283\n      jump\t// in\n    tag_317:\n        /* \"#utility.yul\":14916:14983   */\n      tag_318\n        /* \"#utility.yul\":14978:14981   */\n      0xa0\n        /* \"#utility.yul\":14967:14976   */\n      dup4\n        /* \"#utility.yul\":14963:14982   */\n      add\n        /* \"#utility.yul\":14954:14960   */\n      dup6\n        /* \"#utility.yul\":14916:14983   */\n      tag_223\n      jump\t// in\n    tag_318:\n        /* \"#utility.yul\":14993:15060   */\n      tag_319\n        /* \"#utility.yul\":15055:15058   */\n      0xc0\n        /* \"#utility.yul\":15044:15053   */\n      dup4\n        /* \"#utility.yul\":15040:15059   */\n      add\n        /* \"#utility.yul\":15031:15037   */\n      dup5\n        /* \"#utility.yul\":14993:15060   */\n      tag_223\n      jump\t// in\n    tag_319:\n        /* \"#utility.yul\":14205:15067   */\n      swap9\n      swap8\n      pop\n      pop\n      pop\n      pop\n      pop\n      pop\n      pop\n      pop\n      jump\t// out\n        /* \"#utility.yul\":15154:15313   */\n    tag_212:\n        /* \"#utility.yul\":15248:15252   */\n      0x00\n        /* \"#utility.yul\":15271:15274   */\n      dup2\n        /* \"#utility.yul\":15263:15274   */\n      swap1\n      pop\n        /* \"#utility.yul\":15301:15305   */\n      0x20\n        /* \"#utility.yul\":15296:15299   */\n      dup3\n        /* \"#utility.yul\":15292:15306   */\n      add\n        /* \"#utility.yul\":15284:15306   */\n      swap1\n      pop\n        /* \"#utility.yul\":15154:15313   */\n      swap2\n      swap1\n      pop\n      jump\t// out\n        /* \"#utility.yul\":15319:15460   */\n    tag_208:\n        /* \"#utility.yul\":15413:15419   */\n      0x00\n        /* \"#utility.yul\":15447:15452   */\n      dup2\n        /* \"#utility.yul\":15441:15453   */\n      mload\n        /* \"#utility.yul\":15431:15453   */\n      swap1\n      pop\n        /* \"#utility.yul\":15319:15460   */\n      swap2\n      swap1\n      pop\n      jump\t// out\n        /* \"#utility.yul\":15466:15606   */\n    tag_218:\n        /* \"#utility.yul\":15563:15567   */\n      0x00\n        /* \"#utility.yul\":15595:15599   */\n      0x20\n        /* \"#utility.yul\":15590:15593   */\n      dup3\n        /* \"#utility.yul\":15586:15600   */\n      add\n        /* \"#utility.yul\":15578:15600   */\n      swap1\n      pop\n        /* \"#utility.yul\":15466:15606   */\n      swap2\n      swap1\n      pop\n      jump\t// out\n        /* \"#utility.yul\":15612:15823   */\n    tag_210:\n        /* \"#utility.yul\":15738:15749   */\n      0x00\n        /* \"#utility.yul\":15772:15778   */\n      dup3\n        /* \"#utility.yul\":15767:15770   */\n      dup3\n        /* \"#utility.yul\":15760:15779   */\n      mstore\n        /* \"#utility.yul\":15812:15816   */\n      0x20\n        /* \"#utility.yul\":15807:15810   */\n      dup3\n        /* \"#utility.yul\":15803:15817   */\n      add\n        /* \"#utility.yul\":15788:15817   */\n      swap1\n      pop\n        /* \"#utility.yul\":15612:15823   */\n      swap3\n      swap2\n      pop\n      pop\n      jump\t// out\n        /* \"#utility.yul\":15829:15998   */\n    tag_229:\n        /* \"#utility.yul\":15913:15924   */\n      0x00\n        /* \"#utility.yul\":15947:15953   */\n      dup3\n        /* \"#utility.yul\":15942:15945   */\n      dup3\n        /* \"#utility.yul\":15935:15954   */\n      mstore\n        /* \"#utility.yul\":15987:15991   */\n      0x20\n        /* \"#utility.yul\":15982:15985   */\n      dup3\n        /* \"#utility.yul\":15978:15992   */\n      add\n        /* \"#utility.yul\":15963:15992   */\n      swap1\n      pop\n        /* \"#utility.yul\":15829:15998   */\n      swap3\n      swap2\n      pop\n      pop\n      jump\t// out\n        /* \"#utility.yul\":16004:16309   */\n    tag_103:\n        /* \"#utility.yul\":16044:16047   */\n      0x00\n        /* \"#utility.yul\":16063:16083   */\n      tag_328\n        /* \"#utility.yul\":16081:16082   */\n      dup3\n        /* \"#utility.yul\":16063:16083   */\n      tag_282\n      jump\t// in\n    tag_328:\n        /* \"#utility.yul\":16058:16083   */\n      swap2\n      pop\n        /* \"#utility.yul\":16097:16117   */\n      tag_329\n        /* \"#utility.yul\":16115:16116   */\n      dup4\n        /* \"#utility.yul\":16097:16117   */\n      tag_282\n      jump\t// in\n    tag_329:\n        /* \"#utility.yul\":16092:16117   */\n      swap3\n      pop\n        /* \"#utility.yul\":16251:16252   */\n      dup3\n        /* \"#utility.yul\":16183:16249   */\n      0xffffffffffffffffffffffffffffffffffffffffffffffffffffffffffffffff\n        /* \"#utility.yul\":16179:16253   */\n      sub\n        /* \"#utility.yul\":16176:16177   */\n      dup3\n        /* \"#utility.yul\":16173:16254   */\n      gt\n        /* \"#utility.yul\":16170:16277   */\n      iszero\n      tag_330\n      jumpi\n        /* \"#utility.yul\":16257:16275   */\n      tag_331\n      tag_332\n      jump\t// in\n    tag_331:\n        /* \"#utility.yul\":16170:16277   */\n    tag_330:\n        /* \"#utility.yul\":16301:16302   */\n      dup3\n        /* \"#utility.yul\":16298:16299   */\n      dup3\n        /* \"#utility.yul\":16294:16303   */\n      add\n        /* \"#utility.yul\":16287:16303   */\n      swap1\n      pop\n        /* \"#utility.yul\":16004:16309   */\n      swap3\n      swap2\n      pop\n      pop\n      jump\t// out\n        /* \"#utility.yul\":16315:16506   */\n    tag_130:\n        /* \"#utility.yul\":16355:16359   */\n      0x00\n        /* \"#utility.yul\":16375:16395   */\n      tag_334\n        /* \"#utility.yul\":16393:16394   */\n      dup3\n        /* \"#utility.yul\":16375:16395   */\n      tag_282\n      jump\t// in\n    tag_334:\n        /* \"#utility.yul\":16370:16395   */\n      swap2\n      pop\n        /* \"#utility.yul\":16409:16429   */\n      tag_335\n        /* \"#utility.yul\":16427:16428   */\n      dup4\n        /* \"#utility.yul\":16409:16429   */\n      tag_282\n      jump\t// in\n    tag_335:\n        /* \"#utility.yul\":16404:16429   */\n      swap3\n      pop\n        /* \"#utility.yul\":16448:16449   */\n      dup3\n        /* \"#utility.yul\":16445:16446   */\n      dup3\n        /* \"#utility.yul\":16442:16450   */\n      lt\n        /* \"#utility.yul\":16439:16473   */\n      iszero\n      tag_336\n      jumpi\n        /* \"#utility.yul\":16453:16471   */\n      tag_337\n      tag_332\n      jump\t// in\n    tag_337:\n        /* \"#utility.yul\":16439:16473   */\n    tag_336:\n        /* \"#utility.yul\":16498:16499   */\n      dup3\n        /* \"#utility.yul\":16495:16496   */\n      dup3\n        /* \"#utility.yul\":16491:16500   */\n      sub\n        /* \"#utility.yul\":16483:16500   */\n      swap1\n      pop\n        /* \"#utility.yul\":16315:16506   */\n      swap3\n      swap2\n      pop\n      pop\n      jump\t// out\n        /* \"#utility.yul\":16512:16608   */\n    tag_201:\n        /* \"#utility.yul\":16549:16556   */\n      0x00\n        /* \"#utility.yul\":16578:16602   */\n      tag_339\n        /* \"#utility.yul\":16596:16601   */\n      dup3\n        /* \"#utility.yul\":16578:16602   */\n      tag_340\n      jump\t// in\n    tag_339:\n        /* \"#utility.yul\":16567:16602   */\n      swap1\n      pop\n        /* \"#utility.yul\":16512:16608   */\n      swap2\n      swap1\n      pop\n      jump\t// out\n        /* \"#utility.yul\":16614:16704   */\n    tag_222:\n        /* \"#utility.yul\":16648:16655   */\n      0x00\n        /* \"#utility.yul\":16691:16696   */\n      dup2\n        /* \"#utility.yul\":16684:16697   */\n      iszero\n        /* \"#utility.yul\":16677:16698   */\n      iszero\n        /* \"#utility.yul\":16666:16698   */\n      swap1\n      pop\n        /* \"#utility.yul\":16614:16704   */\n      swap2\n      swap1\n      pop\n      jump\t// out\n        /* \"#utility.yul\":16710:16836   */\n    tag_340:\n        /* \"#utility.yul\":16747:16754   */\n      0x00\n        /* \"#utility.yul\":16787:16829   */\n      0xffffffffffffffffffffffffffffffffffffffff\n        /* \"#utility.yul\":16780:16785   */\n      dup3\n        /* \"#utility.yul\":16776:16830   */\n      and\n        /* \"#utility.yul\":16765:16830   */\n      swap1\n      pop\n        /* \"#utility.yul\":16710:16836   */\n      swap2\n      swap1\n      pop\n      jump\t// out\n        /* \"#utility.yul\":16842:16919   */\n    tag_282:\n        /* \"#utility.yul\":16879:16886   */\n      0x00\n        /* \"#utility.yul\":16908:16913   */\n      dup2\n        /* \"#utility.yul\":16897:16913   */\n      swap1\n      pop\n        /* \"#utility.yul\":16842:16919   */\n      swap2\n      swap1\n      pop\n      jump\t// out\n        /* \"#utility.yul\":16925:17158   */\n    tag_148:\n        /* \"#utility.yul\":16964:16967   */\n      0x00\n        /* \"#utility.yul\":16987:17011   */\n      tag_345\n        /* \"#utility.yul\":17005:17010   */\n      dup3\n        /* \"#utility.yul\":16987:17011   */\n      tag_282\n      jump\t// in\n    tag_345:\n        /* \"#utility.yul\":16978:17011   */\n      swap2\n      pop\n        /* \"#utility.yul\":17033:17099   */\n      0xffffffffffffffffffffffffffffffffffffffffffffffffffffffffffffffff\n        /* \"#utility.yul\":17026:17031   */\n      dup3\n        /* \"#utility.yul\":17023:17100   */\n      eq\n        /* \"#utility.yul\":17020:17123   */\n      iszero\n      tag_346\n      jumpi\n        /* \"#utility.yul\":17103:17121   */\n      tag_347\n      tag_332\n      jump\t// in\n    tag_347:\n        /* \"#utility.yul\":17020:17123   */\n    tag_346:\n        /* \"#utility.yul\":17150:17151   */\n      0x01\n        /* \"#utility.yul\":17143:17148   */\n      dup3\n        /* \"#utility.yul\":17139:17152   */\n      add\n        /* \"#utility.yul\":17132:17152   */\n      swap1\n      pop\n        /* \"#utility.yul\":16925:17158   */\n      swap2\n      swap1\n      pop\n      jump\t// out\n        /* \"#utility.yul\":17164:17344   */\n    tag_332:\n        /* \"#utility.yul\":17212:17289   */\n      0x4e487b7100000000000000000000000000000000000000000000000000000000\n        /* \"#utility.yul\":17209:17210   */\n      0x00\n        /* \"#utility.yul\":17202:17290   */\n      mstore\n        /* \"#utility.yul\":17309:17313   */\n      0x11\n        /* \"#utility.yul\":17306:17307   */\n      0x04\n        /* \"#utility.yul\":17299:17314   */\n      mstore\n        /* \"#utility.yul\":17333:17337   */\n      0x24\n        /* \"#utility.yul\":17330:17331   */\n      0x00\n        /* \"#utility.yul\":17323:17338   */\n      revert\n        /* \"#utility.yul\":17350:17530   */\n    tag_145:\n        /* \"#utility.yul\":17398:17475   */\n      0x4e487b7100000000000000000000000000000000000000000000000000000000\n        /* \"#utility.yul\":17395:17396   */\n      0x00\n        /* \"#utility.yul\":17388:17476   */\n      mstore\n        /* \"#utility.yul\":17495:17499   */\n      0x32\n        /* \"#utility.yul\":17492:17493   */\n      0x04\n        /* \"#utility.yul\":17485:17500   */\n      mstore\n        /* \"#utility.yul\":17519:17523   */\n      0x24\n        /* \"#utility.yul\":17516:17517   */\n      0x00\n        /* \"#utility.yul\":17509:17524   */\n      revert\n        /* \"#utility.yul\":17536:17716   */\n    tag_133:\n        /* \"#utility.yul\":17584:17661   */\n      0x4e487b7100000000000000000000000000000000000000000000000000000000\n        /* \"#utility.yul\":17581:17582   */\n      0x00\n        /* \"#utility.yul\":17574:17662   */\n      mstore\n        /* \"#utility.yul\":17681:17685   */\n      0x41\n        /* \"#utility.yul\":17678:17679   */\n      0x04\n        /* \"#utility.yul\":17671:17686   */\n      mstore\n        /* \"#utility.yul\":17705:17709   */\n      0x24\n        /* \"#utility.yul\":17702:17703   */\n      0x00\n        /* \"#utility.yul\":17695:17710   */\n      revert\n        /* \"#utility.yul\":17845:17962   */\n    tag_179:\n        /* \"#utility.yul\":17954:17955   */\n      0x00\n        /* \"#utility.yul\":17951:17952   */\n      dup1\n        /* \"#utility.yul\":17944:17956   */\n      revert\n        /* \"#utility.yul\":17968:18145   */\n    tag_231:\n        /* \"#utility.yul\":18108:18137   */\n      0x41736b696e67205072696365206e6f7420736174697366696564210000000000\n        /* \"#utility.yul\":18104:18105   */\n      0x00\n        /* \"#utility.yul\":18096:18102   */\n      dup3\n        /* \"#utility.yul\":18092:18106   */\n      add\n        /* \"#utility.yul\":18085:18138   */\n      mstore\n        /* \"#utility.yul\":17968:18145   */\n      pop\n      jump\t// out\n        /* \"#utility.yul\":18151:18384   */\n    tag_236:\n        /* \"#utility.yul\":18291:18325   */\n      0x50726963652073686f756c64206265206174206c656173742073616d65206173\n        /* \"#utility.yul\":18287:18288   */\n      0x00\n        /* \"#utility.yul\":18279:18285   */\n      dup3\n        /* \"#utility.yul\":18275:18289   */\n      add\n        /* \"#utility.yul\":18268:18326   */\n      mstore\n        /* \"#utility.yul\":18360:18376   */\n      0x206c697374696e67207072696365000000000000000000000000000000000000\n        /* \"#utility.yul\":18355:18357   */\n      0x20\n        /* \"#utility.yul\":18347:18353   */\n      dup3\n        /* \"#utility.yul\":18343:18358   */\n      add\n        /* \"#utility.yul\":18336:18377   */\n      mstore\n        /* \"#utility.yul\":18151:18384   */\n      pop\n      jump\t// out\n        /* \"#utility.yul\":18390:18615   */\n    tag_241:\n        /* \"#utility.yul\":18530:18564   */\n      0x4f776e61626c653a206e6577206f776e657220697320746865207a65726f2061\n        /* \"#utility.yul\":18526:18527   */\n      0x00\n        /* \"#utility.yul\":18518:18524   */\n      dup3\n        /* \"#utility.yul\":18514:18528   */\n      add\n        /* \"#utility.yul\":18507:18565   */\n      mstore\n        /* \"#utility.yul\":18599:18607   */\n      0x6464726573730000000000000000000000000000000000000000000000000000\n        /* \"#utility.yul\":18594:18596   */\n      0x20\n        /* \"#utility.yul\":18586:18592   */\n      dup3\n        /* \"#utility.yul\":18582:18597   */\n      add\n        /* \"#utility.yul\":18575:18608   */\n      mstore\n        /* \"#utility.yul\":18390:18615   */\n      pop\n      jump\t// out\n        /* \"#utility.yul\":18621:18788   */\n    tag_246:\n        /* \"#utility.yul\":18761:18780   */\n      0x4e4654206e6f7420666f722073616c652e000000000000000000000000000000\n        /* \"#utility.yul\":18757:18758   */\n      0x00\n        /* \"#utility.yul\":18749:18755   */\n      dup3\n        /* \"#utility.yul\":18745:18759   */\n      add\n        /* \"#utility.yul\":18738:18781   */\n      mstore\n        /* \"#utility.yul\":18621:18788   */\n      pop\n      jump\t// out\n        /* \"#utility.yul\":18794:18976   */\n    tag_251:\n        /* \"#utility.yul\":18934:18968   */\n      0x4f776e61626c653a2063616c6c6572206973206e6f7420746865206f776e6572\n        /* \"#utility.yul\":18930:18931   */\n      0x00\n        /* \"#utility.yul\":18922:18928   */\n      dup3\n        /* \"#utility.yul\":18918:18932   */\n      add\n        /* \"#utility.yul\":18911:18969   */\n      mstore\n        /* \"#utility.yul\":18794:18976   */\n      pop\n      jump\t// out\n        /* \"#utility.yul\":18982:19163   */\n    tag_256:\n        /* \"#utility.yul\":19122:19155   */\n      0x5265656e7472616e637947756172643a207265656e7472616e742063616c6c00\n        /* \"#utility.yul\":19118:19119   */\n      0x00\n        /* \"#utility.yul\":19110:19116   */\n      dup3\n        /* \"#utility.yul\":19106:19120   */\n      add\n        /* \"#utility.yul\":19099:19156   */\n      mstore\n        /* \"#utility.yul\":18982:19163   */\n      pop\n      jump\t// out\n        /* \"#utility.yul\":19169:19347   */\n    tag_261:\n        /* \"#utility.yul\":19309:19339   */\n      0x5072696365206d757374206265206174206c6561737420312077656900000000\n        /* \"#utility.yul\":19305:19306   */\n      0x00\n        /* \"#utility.yul\":19297:19303   */\n      dup3\n        /* \"#utility.yul\":19293:19307   */\n      add\n        /* \"#utility.yul\":19286:19340   */\n      mstore\n        /* \"#utility.yul\":19169:19347   */\n      pop\n      jump\t// out\n        /* \"#utility.yul\":19353:19475   */\n    tag_167:\n        /* \"#utility.yul\":19426:19450   */\n      tag_362\n        /* \"#utility.yul\":19444:19449   */\n      dup2\n        /* \"#utility.yul\":19426:19450   */\n      tag_201\n      jump\t// in\n    tag_362:\n        /* \"#utility.yul\":19419:19424   */\n      dup2\n        /* \"#utility.yul\":19416:19451   */\n      eq\n        /* \"#utility.yul\":19406:19469   */\n      tag_363\n      jumpi\n        /* \"#utility.yul\":19465:19466   */\n      0x00\n        /* \"#utility.yul\":19462:19463   */\n      dup1\n        /* \"#utility.yul\":19455:19467   */\n      revert\n        /* \"#utility.yul\":19406:19469   */\n    tag_363:\n        /* \"#utility.yul\":19353:19475   */\n      pop\n      jump\t// out\n        /* \"#utility.yul\":19481:19597   */\n    tag_171:\n        /* \"#utility.yul\":19551:19572   */\n      tag_365\n        /* \"#utility.yul\":19566:19571   */\n      dup2\n        /* \"#utility.yul\":19551:19572   */\n      tag_222\n      jump\t// in\n    tag_365:\n        /* \"#utility.yul\":19544:19549   */\n      dup2\n        /* \"#utility.yul\":19541:19573   */\n      eq\n        /* \"#utility.yul\":19531:19591   */\n      tag_366\n      jumpi\n        /* \"#utility.yul\":19587:19588   */\n      0x00\n        /* \"#utility.yul\":19584:19585   */\n      dup1\n        /* \"#utility.yul\":19577:19589   */\n      revert\n        /* \"#utility.yul\":19531:19591   */\n    tag_366:\n        /* \"#utility.yul\":19481:19597   */\n      pop\n      jump\t// out\n        /* \"#utility.yul\":19603:19725   */\n    tag_175:\n        /* \"#utility.yul\":19676:19700   */\n      tag_368\n        /* \"#utility.yul\":19694:19699   */\n      dup2\n        /* \"#utility.yul\":19676:19700   */\n      tag_282\n      jump\t// in\n    tag_368:\n        /* \"#utility.yul\":19669:19674   */\n      dup2\n        /* \"#utility.yul\":19666:19701   */\n      eq\n        /* \"#utility.yul\":19656:19719   */\n      tag_369\n      jumpi\n        /* \"#utility.yul\":19715:19716   */\n      0x00\n        /* \"#utility.yul\":19712:19713   */\n      dup1\n        /* \"#utility.yul\":19705:19717   */\n      revert\n        /* \"#utility.yul\":19656:19719   */\n    tag_369:\n        /* \"#utility.yul\":19603:19725   */\n      pop\n      jump\t// out\n\n    auxdata: 0xa264697066735822122098b3e75499ef08ad533c75d51dc5417853977e4341e80d3c988607bacd62dd5a64736f6c63430008070033\n}\n",
				"bytecode": {
					"linkReferences": {},
					"object": "608060405267016345785d8a00006007553480156200001d57600080fd5b5060405162001e0a38038062001e0a8339818101604052810190620000439190620001d7565b6200006362000057620000f460201b60201c565b620000fc60201b60201c565b6001808190555081600560006101000a81548173ffffffffffffffffffffffffffffffffffffffff021916908373ffffffffffffffffffffffffffffffffffffffff16021790555080600660006101000a81548173ffffffffffffffffffffffffffffffffffffffff021916908373ffffffffffffffffffffffffffffffffffffffff160217905550505062000271565b600033905090565b60008060009054906101000a900473ffffffffffffffffffffffffffffffffffffffff169050816000806101000a81548173ffffffffffffffffffffffffffffffffffffffff021916908373ffffffffffffffffffffffffffffffffffffffff1602179055508173ffffffffffffffffffffffffffffffffffffffff168173ffffffffffffffffffffffffffffffffffffffff167f8be0079c531659141344cd1fd0a4f28419497f9722a3daafe3b4186f6b6457e060405160405180910390a35050565b600081519050620001d18162000257565b92915050565b60008060408385031215620001f157620001f062000252565b5b60006200020185828601620001c0565b92505060206200021485828601620001c0565b9150509250929050565b60006200022b8262000232565b9050919050565b600073ffffffffffffffffffffffffffffffffffffffff82169050919050565b600080fd5b62000262816200021e565b81146200026e57600080fd5b50565b611b8980620002816000396000f3fe608060405234801561001057600080fd5b50600436106100a95760003560e01c80639979c009116100715780639979c009146101405780639b8bc1271461015c578063c78f19f91461017a578063d56d229d14610198578063e61a70c0146101b6578063f2fde38b146101ec576100a9565b806353dbceb1146100ae578063715018a6146100de578063889e2cd5146100e85780638da5cb5b1461010657806391066da814610124575b600080fd5b6100c860048036038101906100c39190611265565b610208565b6040516100d59190611707565b60405180910390f35b6100e661033b565b005b6100f06103c3565b6040516100fd91906115b3565b60405180910390f35b61010e6103e9565b60405161011b91906115b3565b60405180910390f35b61013e60048036038101906101399190611292565b610412565b005b61015a60048036038101906101559190611292565b61088e565b005b610164610c63565b6040516101719190611605565b60405180910390f35b610182610eaf565b60405161018f9190611722565b60405180910390f35b6101a0610eb5565b6040516101ad91906115b3565b60405180910390f35b6101d060048036038101906101cb9190611265565b610edb565b6040516101e3979695949392919061173d565b60405180910390f35b6102066004803603810190610201919061120b565b610f77565b005b61021061115f565b6000600860008481526020019081526020016000206040518060e001604052908160008201548152602001600182015481526020016002820160009054906101000a900473ffffffffffffffffffffffffffffffffffffffff1673ffffffffffffffffffffffffffffffffffffffff1673ffffffffffffffffffffffffffffffffffffffff1681526020016003820160009054906101000a900473ffffffffffffffffffffffffffffffffffffffff1673ffffffffffffffffffffffffffffffffffffffff1673ffffffffffffffffffffffffffffffffffffffff168152602001600482015481526020016005820160009054906101000a900460ff161515151581526020016005820160019054906101000a900460ff161515151581525050905080915050919050565b61034361106f565b73ffffffffffffffffffffffffffffffffffffffff166103616103e9565b73ffffffffffffffffffffffffffffffffffffffff16146103b7576040517f08c379a00000000000000000000000000000000000000000000000000000000081526004016103ae906116a7565b60405180910390fd5b6103c16000611077565b565b600660009054906101000a900473ffffffffffffffffffffffffffffffffffffffff1681565b60008060009054906101000a900473ffffffffffffffffffffffffffffffffffffffff16905090565b60026001541415610458576040517f08c379a000000000000000000000000000000000000000000000000000000000815260040161044f906116c7565b60405180910390fd5b600260018190555061046861106f565b73ffffffffffffffffffffffffffffffffffffffff166104866103e9565b73ffffffffffffffffffffffffffffffffffffffff16146104dc576040517f08c379a00000000000000000000000000000000000000000000000000000000081526004016104d3906116a7565b60405180910390fd5b6000811161051f576040517f08c379a0000000000000000000000000000000000000000000000000000000008152600401610516906116e7565b60405180910390fd5b600754811015610564576040517f08c379a000000000000000000000000000000000000000000000000000000000815260040161055b90611647565b60405180910390fd5b61056e600261113b565b600061057a6002611151565b90506040518060e001604052808281526020018481526020013373ffffffffffffffffffffffffffffffffffffffff168152602001600073ffffffffffffffffffffffffffffffffffffffff1681526020018381526020016000151581526020016000151581525060086000838152602001908152602001600020600082015181600001556020820151816001015560408201518160020160006101000a81548173ffffffffffffffffffffffffffffffffffffffff021916908373ffffffffffffffffffffffffffffffffffffffff16021790555060608201518160030160006101000a81548173ffffffffffffffffffffffffffffffffffffffff021916908373ffffffffffffffffffffffffffffffffffffffff1602179055506080820151816004015560a08201518160050160006101000a81548160ff02191690831515021790555060c08201518160050160016101000a81548160ff021916908315150217905550905050600660009054906101000a900473ffffffffffffffffffffffffffffffffffffffff1673ffffffffffffffffffffffffffffffffffffffff166323b872dd33306007546040518463ffffffff1660e01b8152600401610745939291906115ce565b602060405180830381600087803b15801561075f57600080fd5b505af1158015610773573d6000803e3d6000fd5b505050506040513d601f19601f820116820180604052508101906107979190611238565b50600560009054906101000a900473ffffffffffffffffffffffffffffffffffffffff1673ffffffffffffffffffffffffffffffffffffffff166342842e0e3330866040518463ffffffff1660e01b81526004016107f7939291906115ce565b600060405180830381600087803b15801561081157600080fd5b505af1158015610825573d6000803e3d6000fd5b505050506007546004600082825461083d91906117f6565b9250508190555082817f38690a554ffbc44eb6a75016e47d517d0db8e6c37494adc68d6d0b2c66f0ab213360008660405161087a939291906115ce565b60405180910390a350600180819055505050565b600260015414156108d4576040517f08c379a00000000000000000000000000000000000000000000000000000000081526004016108cb906116c7565b60405180910390fd5b600260018190555060006008600084815260200190815260200160002060040154905060006008600085815260200190815260200160002060010154905060006008600086815260200190815260200160002060050160019054906101000a900460ff1690508284101561097d576040517f08c379a000000000000000000000000000000000000000000000000000000000815260040161097490611627565b60405180910390fd5b60011515811515146109c4576040517f08c379a00000000000000000000000000000000000000000000000000000000081526004016109bb90611687565b60405180910390fd5b60006008600087815260200190815260200160002060020160009054906101000a900473ffffffffffffffffffffffffffffffffffffffff169050336008600088815260200190815260200160002060030160006101000a81548173ffffffffffffffffffffffffffffffffffffffff021916908373ffffffffffffffffffffffffffffffffffffffff160217905550336008600088815260200190815260200160002060020160006101000a81548173ffffffffffffffffffffffffffffffffffffffff021916908373ffffffffffffffffffffffffffffffffffffffff16021790555060016008600088815260200190815260200160002060050160006101000a81548160ff02191690831515021790555060006008600088815260200190815260200160002060050160016101000a81548160ff021916908315150217905550600560009054906101000a900473ffffffffffffffffffffffffffffffffffffffff1673ffffffffffffffffffffffffffffffffffffffff166323b872dd8233866040518463ffffffff1660e01b8152600401610b66939291906115ce565b600060405180830381600087803b158015610b8057600080fd5b505af1158015610b94573d6000803e3d6000fd5b50505050600660009054906101000a900473ffffffffffffffffffffffffffffffffffffffff1673ffffffffffffffffffffffffffffffffffffffff166323b872dd3383886040518463ffffffff1660e01b8152600401610bf7939291906115ce565b602060405180830381600087803b158015610c1157600080fd5b505af1158015610c25573d6000803e3d6000fd5b505050506040513d601f19601f82011682018060405250810190610c499190611238565b50610c54600361113b565b50505050600180819055505050565b60606000610c716002611151565b90506000610c7f6003611151565b610c896002611151565b610c93919061184c565b90506000808267ffffffffffffffff811115610cb257610cb161196f565b5b604051908082528060200260200182016040528015610ceb57816020015b610cd861115f565b815260200190600190039081610cd05790505b50905060005b84811015610ea45760086000600183610d0a91906117f6565b815260200190815260200160002060050160009054906101000a900460ff16610e91576000600182610d3c91906117f6565b90506000600860008381526020019081526020016000206040518060e001604052908160008201548152602001600182015481526020016002820160009054906101000a900473ffffffffffffffffffffffffffffffffffffffff1673ffffffffffffffffffffffffffffffffffffffff1673ffffffffffffffffffffffffffffffffffffffff1681526020016003820160009054906101000a900473ffffffffffffffffffffffffffffffffffffffff1673ffffffffffffffffffffffffffffffffffffffff1673ffffffffffffffffffffffffffffffffffffffff168152602001600482015481526020016005820160009054906101000a900460ff161515151581526020016005820160019054906101000a900460ff161515151581525050905080848681518110610e7457610e73611940565b5b6020026020010181905250600185610e8c91906117f6565b945050505b8080610e9c906118c8565b915050610cf1565b508094505050505090565b60075481565b600560009054906101000a900473ffffffffffffffffffffffffffffffffffffffff1681565b60086020528060005260406000206000915090508060000154908060010154908060020160009054906101000a900473ffffffffffffffffffffffffffffffffffffffff16908060030160009054906101000a900473ffffffffffffffffffffffffffffffffffffffff16908060040154908060050160009054906101000a900460ff16908060050160019054906101000a900460ff16905087565b610f7f61106f565b73ffffffffffffffffffffffffffffffffffffffff16610f9d6103e9565b73ffffffffffffffffffffffffffffffffffffffff1614610ff3576040517f08c379a0000000000000000000000000000000000000000000000000000000008152600401610fea906116a7565b60405180910390fd5b600073ffffffffffffffffffffffffffffffffffffffff168173ffffffffffffffffffffffffffffffffffffffff161415611063576040517f08c379a000000000000000000000000000000000000000000000000000000000815260040161105a90611667565b60405180910390fd5b61106c81611077565b50565b600033905090565b60008060009054906101000a900473ffffffffffffffffffffffffffffffffffffffff169050816000806101000a81548173ffffffffffffffffffffffffffffffffffffffff021916908373ffffffffffffffffffffffffffffffffffffffff1602179055508173ffffffffffffffffffffffffffffffffffffffff168173ffffffffffffffffffffffffffffffffffffffff167f8be0079c531659141344cd1fd0a4f28419497f9722a3daafe3b4186f6b6457e060405160405180910390a35050565b6001816000016000828254019250508190555050565b600081600001549050919050565b6040518060e001604052806000815260200160008152602001600073ffffffffffffffffffffffffffffffffffffffff168152602001600073ffffffffffffffffffffffffffffffffffffffff168152602001600081526020016000151581526020016000151581525090565b6000813590506111db81611b0e565b92915050565b6000815190506111f081611b25565b92915050565b60008135905061120581611b3c565b92915050565b6000602082840312156112215761122061199e565b5b600061122f848285016111cc565b91505092915050565b60006020828403121561124e5761124d61199e565b5b600061125c848285016111e1565b91505092915050565b60006020828403121561127b5761127a61199e565b5b6000611289848285016111f6565b91505092915050565b600080604083850312156112a9576112a861199e565b5b60006112b7858286016111f6565b92505060206112c8858286016111f6565b9150509250929050565b60006112de8383611479565b60e08301905092915050565b6112f381611880565b82525050565b61130281611880565b82525050565b6000611313826117bc565b61131d81856117d4565b9350611328836117ac565b8060005b8381101561135957815161134088826112d2565b975061134b836117c7565b92505060018101905061132c565b5085935050505092915050565b61136f81611892565b82525050565b61137e81611892565b82525050565b6000611391601b836117e5565b915061139c826119a3565b602082019050919050565b60006113b4602e836117e5565b91506113bf826119cc565b604082019050919050565b60006113d76026836117e5565b91506113e282611a1b565b604082019050919050565b60006113fa6011836117e5565b915061140582611a6a565b602082019050919050565b600061141d6020836117e5565b915061142882611a93565b602082019050919050565b6000611440601f836117e5565b915061144b82611abc565b602082019050919050565b6000611463601c836117e5565b915061146e82611ae5565b602082019050919050565b60e08201600082015161148f6000850182611595565b5060208201516114a26020850182611595565b5060408201516114b560408501826112ea565b5060608201516114c860608501826112ea565b5060808201516114db6080850182611595565b5060a08201516114ee60a0850182611366565b5060c082015161150160c0850182611366565b50505050565b60e08201600082015161151d6000850182611595565b5060208201516115306020850182611595565b50604082015161154360408501826112ea565b50606082015161155660608501826112ea565b5060808201516115696080850182611595565b5060a082015161157c60a0850182611366565b5060c082015161158f60c0850182611366565b50505050565b61159e816118be565b82525050565b6115ad816118be565b82525050565b60006020820190506115c860008301846112f9565b92915050565b60006060820190506115e360008301866112f9565b6115f060208301856112f9565b6115fd60408301846115a4565b949350505050565b6000602082019050818103600083015261161f8184611308565b905092915050565b6000602082019050818103600083015261164081611384565b9050919050565b60006020820190508181036000830152611660816113a7565b9050919050565b60006020820190508181036000830152611680816113ca565b9050919050565b600060208201905081810360008301526116a0816113ed565b9050919050565b600060208201905081810360008301526116c081611410565b9050919050565b600060208201905081810360008301526116e081611433565b9050919050565b6000602082019050818103600083015261170081611456565b9050919050565b600060e08201905061171c6000830184611507565b92915050565b600060208201905061173760008301846115a4565b92915050565b600060e082019050611752600083018a6115a4565b61175f60208301896115a4565b61176c60408301886112f9565b61177960608301876112f9565b61178660808301866115a4565b61179360a0830185611375565b6117a060c0830184611375565b98975050505050505050565b6000819050602082019050919050565b600081519050919050565b6000602082019050919050565b600082825260208201905092915050565b600082825260208201905092915050565b6000611801826118be565b915061180c836118be565b9250827fffffffffffffffffffffffffffffffffffffffffffffffffffffffffffffffff0382111561184157611840611911565b5b828201905092915050565b6000611857826118be565b9150611862836118be565b92508282101561187557611874611911565b5b828203905092915050565b600061188b8261189e565b9050919050565b60008115159050919050565b600073ffffffffffffffffffffffffffffffffffffffff82169050919050565b6000819050919050565b60006118d3826118be565b91507fffffffffffffffffffffffffffffffffffffffffffffffffffffffffffffffff82141561190657611905611911565b5b600182019050919050565b7f4e487b7100000000000000000000000000000000000000000000000000000000600052601160045260246000fd5b7f4e487b7100000000000000000000000000000000000000000000000000000000600052603260045260246000fd5b7f4e487b7100000000000000000000000000000000000000000000000000000000600052604160045260246000fd5b600080fd5b7f41736b696e67205072696365206e6f7420736174697366696564210000000000600082015250565b7f50726963652073686f756c64206265206174206c656173742073616d6520617360008201527f206c697374696e67207072696365000000000000000000000000000000000000602082015250565b7f4f776e61626c653a206e6577206f776e657220697320746865207a65726f206160008201527f6464726573730000000000000000000000000000000000000000000000000000602082015250565b7f4e4654206e6f7420666f722073616c652e000000000000000000000000000000600082015250565b7f4f776e61626c653a2063616c6c6572206973206e6f7420746865206f776e6572600082015250565b7f5265656e7472616e637947756172643a207265656e7472616e742063616c6c00600082015250565b7f5072696365206d757374206265206174206c6561737420312077656900000000600082015250565b611b1781611880565b8114611b2257600080fd5b50565b611b2e81611892565b8114611b3957600080fd5b50565b611b45816118be565b8114611b5057600080fd5b5056fea264697066735822122098b3e75499ef08ad533c75d51dc5417853977e4341e80d3c988607bacd62dd5a64736f6c63430008070033",
					"opcodes": "PUSH1 0x80 PUSH1 0x40 MSTORE PUSH8 0x16345785D8A0000 PUSH1 0x7 SSTORE CALLVALUE DUP1 ISZERO PUSH3 0x1D JUMPI PUSH1 0x0 DUP1 REVERT JUMPDEST POP PUSH1 0x40 MLOAD PUSH3 0x1E0A CODESIZE SUB DUP1 PUSH3 0x1E0A DUP4 CODECOPY DUP2 DUP2 ADD PUSH1 0x40 MSTORE DUP2 ADD SWAP1 PUSH3 0x43 SWAP2 SWAP1 PUSH3 0x1D7 JUMP JUMPDEST PUSH3 0x63 PUSH3 0x57 PUSH3 0xF4 PUSH1 0x20 SHL PUSH1 0x20 SHR JUMP JUMPDEST PUSH3 0xFC PUSH1 0x20 SHL PUSH1 0x20 SHR JUMP JUMPDEST PUSH1 0x1 DUP1 DUP2 SWAP1 SSTORE POP DUP2 PUSH1 0x5 PUSH1 0x0 PUSH2 0x100 EXP DUP2 SLOAD DUP2 PUSH20 0xFFFFFFFFFFFFFFFFFFFFFFFFFFFFFFFFFFFFFFFF MUL NOT AND SWAP1 DUP4 PUSH20 0xFFFFFFFFFFFFFFFFFFFFFFFFFFFFFFFFFFFFFFFF AND MUL OR SWAP1 SSTORE POP DUP1 PUSH1 0x6 PUSH1 0x0 PUSH2 0x100 EXP DUP2 SLOAD DUP2 PUSH20 0xFFFFFFFFFFFFFFFFFFFFFFFFFFFFFFFFFFFFFFFF MUL NOT AND SWAP1 DUP4 PUSH20 0xFFFFFFFFFFFFFFFFFFFFFFFFFFFFFFFFFFFFFFFF AND MUL OR SWAP1 SSTORE POP POP POP PUSH3 0x271 JUMP JUMPDEST PUSH1 0x0 CALLER SWAP1 POP SWAP1 JUMP JUMPDEST PUSH1 0x0 DUP1 PUSH1 0x0 SWAP1 SLOAD SWAP1 PUSH2 0x100 EXP SWAP1 DIV PUSH20 0xFFFFFFFFFFFFFFFFFFFFFFFFFFFFFFFFFFFFFFFF AND SWAP1 POP DUP2 PUSH1 0x0 DUP1 PUSH2 0x100 EXP DUP2 SLOAD DUP2 PUSH20 0xFFFFFFFFFFFFFFFFFFFFFFFFFFFFFFFFFFFFFFFF MUL NOT AND SWAP1 DUP4 PUSH20 0xFFFFFFFFFFFFFFFFFFFFFFFFFFFFFFFFFFFFFFFF AND MUL OR SWAP1 SSTORE POP DUP2 PUSH20 0xFFFFFFFFFFFFFFFFFFFFFFFFFFFFFFFFFFFFFFFF AND DUP2 PUSH20 0xFFFFFFFFFFFFFFFFFFFFFFFFFFFFFFFFFFFFFFFF AND PUSH32 0x8BE0079C531659141344CD1FD0A4F28419497F9722A3DAAFE3B4186F6B6457E0 PUSH1 0x40 MLOAD PUSH1 0x40 MLOAD DUP1 SWAP2 SUB SWAP1 LOG3 POP POP JUMP JUMPDEST PUSH1 0x0 DUP2 MLOAD SWAP1 POP PUSH3 0x1D1 DUP2 PUSH3 0x257 JUMP JUMPDEST SWAP3 SWAP2 POP POP JUMP JUMPDEST PUSH1 0x0 DUP1 PUSH1 0x40 DUP4 DUP6 SUB SLT ISZERO PUSH3 0x1F1 JUMPI PUSH3 0x1F0 PUSH3 0x252 JUMP JUMPDEST JUMPDEST PUSH1 0x0 PUSH3 0x201 DUP6 DUP3 DUP7 ADD PUSH3 0x1C0 JUMP JUMPDEST SWAP3 POP POP PUSH1 0x20 PUSH3 0x214 DUP6 DUP3 DUP7 ADD PUSH3 0x1C0 JUMP JUMPDEST SWAP2 POP POP SWAP3 POP SWAP3 SWAP1 POP JUMP JUMPDEST PUSH1 0x0 PUSH3 0x22B DUP3 PUSH3 0x232 JUMP JUMPDEST SWAP1 POP SWAP2 SWAP1 POP JUMP JUMPDEST PUSH1 0x0 PUSH20 0xFFFFFFFFFFFFFFFFFFFFFFFFFFFFFFFFFFFFFFFF DUP3 AND SWAP1 POP SWAP2 SWAP1 POP JUMP JUMPDEST PUSH1 0x0 DUP1 REVERT JUMPDEST PUSH3 0x262 DUP2 PUSH3 0x21E JUMP JUMPDEST DUP2 EQ PUSH3 0x26E JUMPI PUSH1 0x0 DUP1 REVERT JUMPDEST POP JUMP JUMPDEST PUSH2 0x1B89 DUP1 PUSH3 0x281 PUSH1 0x0 CODECOPY PUSH1 0x0 RETURN INVALID PUSH1 0x80 PUSH1 0x40 MSTORE CALLVALUE DUP1 ISZERO PUSH2 0x10 JUMPI PUSH1 0x0 DUP1 REVERT JUMPDEST POP PUSH1 0x4 CALLDATASIZE LT PUSH2 0xA9 JUMPI PUSH1 0x0 CALLDATALOAD PUSH1 0xE0 SHR DUP1 PUSH4 0x9979C009 GT PUSH2 0x71 JUMPI DUP1 PUSH4 0x9979C009 EQ PUSH2 0x140 JUMPI DUP1 PUSH4 0x9B8BC127 EQ PUSH2 0x15C JUMPI DUP1 PUSH4 0xC78F19F9 EQ PUSH2 0x17A JUMPI DUP1 PUSH4 0xD56D229D EQ PUSH2 0x198 JUMPI DUP1 PUSH4 0xE61A70C0 EQ PUSH2 0x1B6 JUMPI DUP1 PUSH4 0xF2FDE38B EQ PUSH2 0x1EC JUMPI PUSH2 0xA9 JUMP JUMPDEST DUP1 PUSH4 0x53DBCEB1 EQ PUSH2 0xAE JUMPI DUP1 PUSH4 0x715018A6 EQ PUSH2 0xDE JUMPI DUP1 PUSH4 0x889E2CD5 EQ PUSH2 0xE8 JUMPI DUP1 PUSH4 0x8DA5CB5B EQ PUSH2 0x106 JUMPI DUP1 PUSH4 0x91066DA8 EQ PUSH2 0x124 JUMPI JUMPDEST PUSH1 0x0 DUP1 REVERT JUMPDEST PUSH2 0xC8 PUSH1 0x4 DUP1 CALLDATASIZE SUB DUP2 ADD SWAP1 PUSH2 0xC3 SWAP2 SWAP1 PUSH2 0x1265 JUMP JUMPDEST PUSH2 0x208 JUMP JUMPDEST PUSH1 0x40 MLOAD PUSH2 0xD5 SWAP2 SWAP1 PUSH2 0x1707 JUMP JUMPDEST PUSH1 0x40 MLOAD DUP1 SWAP2 SUB SWAP1 RETURN JUMPDEST PUSH2 0xE6 PUSH2 0x33B JUMP JUMPDEST STOP JUMPDEST PUSH2 0xF0 PUSH2 0x3C3 JUMP JUMPDEST PUSH1 0x40 MLOAD PUSH2 0xFD SWAP2 SWAP1 PUSH2 0x15B3 JUMP JUMPDEST PUSH1 0x40 MLOAD DUP1 SWAP2 SUB SWAP1 RETURN JUMPDEST PUSH2 0x10E PUSH2 0x3E9 JUMP JUMPDEST PUSH1 0x40 MLOAD PUSH2 0x11B SWAP2 SWAP1 PUSH2 0x15B3 JUMP JUMPDEST PUSH1 0x40 MLOAD DUP1 SWAP2 SUB SWAP1 RETURN JUMPDEST PUSH2 0x13E PUSH1 0x4 DUP1 CALLDATASIZE SUB DUP2 ADD SWAP1 PUSH2 0x139 SWAP2 SWAP1 PUSH2 0x1292 JUMP JUMPDEST PUSH2 0x412 JUMP JUMPDEST STOP JUMPDEST PUSH2 0x15A PUSH1 0x4 DUP1 CALLDATASIZE SUB DUP2 ADD SWAP1 PUSH2 0x155 SWAP2 SWAP1 PUSH2 0x1292 JUMP JUMPDEST PUSH2 0x88E JUMP JUMPDEST STOP JUMPDEST PUSH2 0x164 PUSH2 0xC63 JUMP JUMPDEST PUSH1 0x40 MLOAD PUSH2 0x171 SWAP2 SWAP1 PUSH2 0x1605 JUMP JUMPDEST PUSH1 0x40 MLOAD DUP1 SWAP2 SUB SWAP1 RETURN JUMPDEST PUSH2 0x182 PUSH2 0xEAF JUMP JUMPDEST PUSH1 0x40 MLOAD PUSH2 0x18F SWAP2 SWAP1 PUSH2 0x1722 JUMP JUMPDEST PUSH1 0x40 MLOAD DUP1 SWAP2 SUB SWAP1 RETURN JUMPDEST PUSH2 0x1A0 PUSH2 0xEB5 JUMP JUMPDEST PUSH1 0x40 MLOAD PUSH2 0x1AD SWAP2 SWAP1 PUSH2 0x15B3 JUMP JUMPDEST PUSH1 0x40 MLOAD DUP1 SWAP2 SUB SWAP1 RETURN JUMPDEST PUSH2 0x1D0 PUSH1 0x4 DUP1 CALLDATASIZE SUB DUP2 ADD SWAP1 PUSH2 0x1CB SWAP2 SWAP1 PUSH2 0x1265 JUMP JUMPDEST PUSH2 0xEDB JUMP JUMPDEST PUSH1 0x40 MLOAD PUSH2 0x1E3 SWAP8 SWAP7 SWAP6 SWAP5 SWAP4 SWAP3 SWAP2 SWAP1 PUSH2 0x173D JUMP JUMPDEST PUSH1 0x40 MLOAD DUP1 SWAP2 SUB SWAP1 RETURN JUMPDEST PUSH2 0x206 PUSH1 0x4 DUP1 CALLDATASIZE SUB DUP2 ADD SWAP1 PUSH2 0x201 SWAP2 SWAP1 PUSH2 0x120B JUMP JUMPDEST PUSH2 0xF77 JUMP JUMPDEST STOP JUMPDEST PUSH2 0x210 PUSH2 0x115F JUMP JUMPDEST PUSH1 0x0 PUSH1 0x8 PUSH1 0x0 DUP5 DUP2 MSTORE PUSH1 0x20 ADD SWAP1 DUP2 MSTORE PUSH1 0x20 ADD PUSH1 0x0 KECCAK256 PUSH1 0x40 MLOAD DUP1 PUSH1 0xE0 ADD PUSH1 0x40 MSTORE SWAP1 DUP2 PUSH1 0x0 DUP3 ADD SLOAD DUP2 MSTORE PUSH1 0x20 ADD PUSH1 0x1 DUP3 ADD SLOAD DUP2 MSTORE PUSH1 0x20 ADD PUSH1 0x2 DUP3 ADD PUSH1 0x0 SWAP1 SLOAD SWAP1 PUSH2 0x100 EXP SWAP1 DIV PUSH20 0xFFFFFFFFFFFFFFFFFFFFFFFFFFFFFFFFFFFFFFFF AND PUSH20 0xFFFFFFFFFFFFFFFFFFFFFFFFFFFFFFFFFFFFFFFF AND PUSH20 0xFFFFFFFFFFFFFFFFFFFFFFFFFFFFFFFFFFFFFFFF AND DUP2 MSTORE PUSH1 0x20 ADD PUSH1 0x3 DUP3 ADD PUSH1 0x0 SWAP1 SLOAD SWAP1 PUSH2 0x100 EXP SWAP1 DIV PUSH20 0xFFFFFFFFFFFFFFFFFFFFFFFFFFFFFFFFFFFFFFFF AND PUSH20 0xFFFFFFFFFFFFFFFFFFFFFFFFFFFFFFFFFFFFFFFF AND PUSH20 0xFFFFFFFFFFFFFFFFFFFFFFFFFFFFFFFFFFFFFFFF AND DUP2 MSTORE PUSH1 0x20 ADD PUSH1 0x4 DUP3 ADD SLOAD DUP2 MSTORE PUSH1 0x20 ADD PUSH1 0x5 DUP3 ADD PUSH1 0x0 SWAP1 SLOAD SWAP1 PUSH2 0x100 EXP SWAP1 DIV PUSH1 0xFF AND ISZERO ISZERO ISZERO ISZERO DUP2 MSTORE PUSH1 0x20 ADD PUSH1 0x5 DUP3 ADD PUSH1 0x1 SWAP1 SLOAD SWAP1 PUSH2 0x100 EXP SWAP1 DIV PUSH1 0xFF AND ISZERO ISZERO ISZERO ISZERO DUP2 MSTORE POP POP SWAP1 POP DUP1 SWAP2 POP POP SWAP2 SWAP1 POP JUMP JUMPDEST PUSH2 0x343 PUSH2 0x106F JUMP JUMPDEST PUSH20 0xFFFFFFFFFFFFFFFFFFFFFFFFFFFFFFFFFFFFFFFF AND PUSH2 0x361 PUSH2 0x3E9 JUMP JUMPDEST PUSH20 0xFFFFFFFFFFFFFFFFFFFFFFFFFFFFFFFFFFFFFFFF AND EQ PUSH2 0x3B7 JUMPI PUSH1 0x40 MLOAD PUSH32 0x8C379A000000000000000000000000000000000000000000000000000000000 DUP2 MSTORE PUSH1 0x4 ADD PUSH2 0x3AE SWAP1 PUSH2 0x16A7 JUMP JUMPDEST PUSH1 0x40 MLOAD DUP1 SWAP2 SUB SWAP1 REVERT JUMPDEST PUSH2 0x3C1 PUSH1 0x0 PUSH2 0x1077 JUMP JUMPDEST JUMP JUMPDEST PUSH1 0x6 PUSH1 0x0 SWAP1 SLOAD SWAP1 PUSH2 0x100 EXP SWAP1 DIV PUSH20 0xFFFFFFFFFFFFFFFFFFFFFFFFFFFFFFFFFFFFFFFF AND DUP2 JUMP JUMPDEST PUSH1 0x0 DUP1 PUSH1 0x0 SWAP1 SLOAD SWAP1 PUSH2 0x100 EXP SWAP1 DIV PUSH20 0xFFFFFFFFFFFFFFFFFFFFFFFFFFFFFFFFFFFFFFFF AND SWAP1 POP SWAP1 JUMP JUMPDEST PUSH1 0x2 PUSH1 0x1 SLOAD EQ ISZERO PUSH2 0x458 JUMPI PUSH1 0x40 MLOAD PUSH32 0x8C379A000000000000000000000000000000000000000000000000000000000 DUP2 MSTORE PUSH1 0x4 ADD PUSH2 0x44F SWAP1 PUSH2 0x16C7 JUMP JUMPDEST PUSH1 0x40 MLOAD DUP1 SWAP2 SUB SWAP1 REVERT JUMPDEST PUSH1 0x2 PUSH1 0x1 DUP2 SWAP1 SSTORE POP PUSH2 0x468 PUSH2 0x106F JUMP JUMPDEST PUSH20 0xFFFFFFFFFFFFFFFFFFFFFFFFFFFFFFFFFFFFFFFF AND PUSH2 0x486 PUSH2 0x3E9 JUMP JUMPDEST PUSH20 0xFFFFFFFFFFFFFFFFFFFFFFFFFFFFFFFFFFFFFFFF AND EQ PUSH2 0x4DC JUMPI PUSH1 0x40 MLOAD PUSH32 0x8C379A000000000000000000000000000000000000000000000000000000000 DUP2 MSTORE PUSH1 0x4 ADD PUSH2 0x4D3 SWAP1 PUSH2 0x16A7 JUMP JUMPDEST PUSH1 0x40 MLOAD DUP1 SWAP2 SUB SWAP1 REVERT JUMPDEST PUSH1 0x0 DUP2 GT PUSH2 0x51F JUMPI PUSH1 0x40 MLOAD PUSH32 0x8C379A000000000000000000000000000000000000000000000000000000000 DUP2 MSTORE PUSH1 0x4 ADD PUSH2 0x516 SWAP1 PUSH2 0x16E7 JUMP JUMPDEST PUSH1 0x40 MLOAD DUP1 SWAP2 SUB SWAP1 REVERT JUMPDEST PUSH1 0x7 SLOAD DUP2 LT ISZERO PUSH2 0x564 JUMPI PUSH1 0x40 MLOAD PUSH32 0x8C379A000000000000000000000000000000000000000000000000000000000 DUP2 MSTORE PUSH1 0x4 ADD PUSH2 0x55B SWAP1 PUSH2 0x1647 JUMP JUMPDEST PUSH1 0x40 MLOAD DUP1 SWAP2 SUB SWAP1 REVERT JUMPDEST PUSH2 0x56E PUSH1 0x2 PUSH2 0x113B JUMP JUMPDEST PUSH1 0x0 PUSH2 0x57A PUSH1 0x2 PUSH2 0x1151 JUMP JUMPDEST SWAP1 POP PUSH1 0x40 MLOAD DUP1 PUSH1 0xE0 ADD PUSH1 0x40 MSTORE DUP1 DUP3 DUP2 MSTORE PUSH1 0x20 ADD DUP5 DUP2 MSTORE PUSH1 0x20 ADD CALLER PUSH20 0xFFFFFFFFFFFFFFFFFFFFFFFFFFFFFFFFFFFFFFFF AND DUP2 MSTORE PUSH1 0x20 ADD PUSH1 0x0 PUSH20 0xFFFFFFFFFFFFFFFFFFFFFFFFFFFFFFFFFFFFFFFF AND DUP2 MSTORE PUSH1 0x20 ADD DUP4 DUP2 MSTORE PUSH1 0x20 ADD PUSH1 0x0 ISZERO ISZERO DUP2 MSTORE PUSH1 0x20 ADD PUSH1 0x0 ISZERO ISZERO DUP2 MSTORE POP PUSH1 0x8 PUSH1 0x0 DUP4 DUP2 MSTORE PUSH1 0x20 ADD SWAP1 DUP2 MSTORE PUSH1 0x20 ADD PUSH1 0x0 KECCAK256 PUSH1 0x0 DUP3 ADD MLOAD DUP2 PUSH1 0x0 ADD SSTORE PUSH1 0x20 DUP3 ADD MLOAD DUP2 PUSH1 0x1 ADD SSTORE PUSH1 0x40 DUP3 ADD MLOAD DUP2 PUSH1 0x2 ADD PUSH1 0x0 PUSH2 0x100 EXP DUP2 SLOAD DUP2 PUSH20 0xFFFFFFFFFFFFFFFFFFFFFFFFFFFFFFFFFFFFFFFF MUL NOT AND SWAP1 DUP4 PUSH20 0xFFFFFFFFFFFFFFFFFFFFFFFFFFFFFFFFFFFFFFFF AND MUL OR SWAP1 SSTORE POP PUSH1 0x60 DUP3 ADD MLOAD DUP2 PUSH1 0x3 ADD PUSH1 0x0 PUSH2 0x100 EXP DUP2 SLOAD DUP2 PUSH20 0xFFFFFFFFFFFFFFFFFFFFFFFFFFFFFFFFFFFFFFFF MUL NOT AND SWAP1 DUP4 PUSH20 0xFFFFFFFFFFFFFFFFFFFFFFFFFFFFFFFFFFFFFFFF AND MUL OR SWAP1 SSTORE POP PUSH1 0x80 DUP3 ADD MLOAD DUP2 PUSH1 0x4 ADD SSTORE PUSH1 0xA0 DUP3 ADD MLOAD DUP2 PUSH1 0x5 ADD PUSH1 0x0 PUSH2 0x100 EXP DUP2 SLOAD DUP2 PUSH1 0xFF MUL NOT AND SWAP1 DUP4 ISZERO ISZERO MUL OR SWAP1 SSTORE POP PUSH1 0xC0 DUP3 ADD MLOAD DUP2 PUSH1 0x5 ADD PUSH1 0x1 PUSH2 0x100 EXP DUP2 SLOAD DUP2 PUSH1 0xFF MUL NOT AND SWAP1 DUP4 ISZERO ISZERO MUL OR SWAP1 SSTORE POP SWAP1 POP POP PUSH1 0x6 PUSH1 0x0 SWAP1 SLOAD SWAP1 PUSH2 0x100 EXP SWAP1 DIV PUSH20 0xFFFFFFFFFFFFFFFFFFFFFFFFFFFFFFFFFFFFFFFF AND PUSH20 0xFFFFFFFFFFFFFFFFFFFFFFFFFFFFFFFFFFFFFFFF AND PUSH4 0x23B872DD CALLER ADDRESS PUSH1 0x7 SLOAD PUSH1 0x40 MLOAD DUP5 PUSH4 0xFFFFFFFF AND PUSH1 0xE0 SHL DUP2 MSTORE PUSH1 0x4 ADD PUSH2 0x745 SWAP4 SWAP3 SWAP2 SWAP1 PUSH2 0x15CE JUMP JUMPDEST PUSH1 0x20 PUSH1 0x40 MLOAD DUP1 DUP4 SUB DUP2 PUSH1 0x0 DUP8 DUP1 EXTCODESIZE ISZERO DUP1 ISZERO PUSH2 0x75F JUMPI PUSH1 0x0 DUP1 REVERT JUMPDEST POP GAS CALL ISZERO DUP1 ISZERO PUSH2 0x773 JUMPI RETURNDATASIZE PUSH1 0x0 DUP1 RETURNDATACOPY RETURNDATASIZE PUSH1 0x0 REVERT JUMPDEST POP POP POP POP PUSH1 0x40 MLOAD RETURNDATASIZE PUSH1 0x1F NOT PUSH1 0x1F DUP3 ADD AND DUP3 ADD DUP1 PUSH1 0x40 MSTORE POP DUP2 ADD SWAP1 PUSH2 0x797 SWAP2 SWAP1 PUSH2 0x1238 JUMP JUMPDEST POP PUSH1 0x5 PUSH1 0x0 SWAP1 SLOAD SWAP1 PUSH2 0x100 EXP SWAP1 DIV PUSH20 0xFFFFFFFFFFFFFFFFFFFFFFFFFFFFFFFFFFFFFFFF AND PUSH20 0xFFFFFFFFFFFFFFFFFFFFFFFFFFFFFFFFFFFFFFFF AND PUSH4 0x42842E0E CALLER ADDRESS DUP7 PUSH1 0x40 MLOAD DUP5 PUSH4 0xFFFFFFFF AND PUSH1 0xE0 SHL DUP2 MSTORE PUSH1 0x4 ADD PUSH2 0x7F7 SWAP4 SWAP3 SWAP2 SWAP1 PUSH2 0x15CE JUMP JUMPDEST PUSH1 0x0 PUSH1 0x40 MLOAD DUP1 DUP4 SUB DUP2 PUSH1 0x0 DUP8 DUP1 EXTCODESIZE ISZERO DUP1 ISZERO PUSH2 0x811 JUMPI PUSH1 0x0 DUP1 REVERT JUMPDEST POP GAS CALL ISZERO DUP1 ISZERO PUSH2 0x825 JUMPI RETURNDATASIZE PUSH1 0x0 DUP1 RETURNDATACOPY RETURNDATASIZE PUSH1 0x0 REVERT JUMPDEST POP POP POP POP PUSH1 0x7 SLOAD PUSH1 0x4 PUSH1 0x0 DUP3 DUP3 SLOAD PUSH2 0x83D SWAP2 SWAP1 PUSH2 0x17F6 JUMP JUMPDEST SWAP3 POP POP DUP2 SWAP1 SSTORE POP DUP3 DUP2 PUSH32 0x38690A554FFBC44EB6A75016E47D517D0DB8E6C37494ADC68D6D0B2C66F0AB21 CALLER PUSH1 0x0 DUP7 PUSH1 0x40 MLOAD PUSH2 0x87A SWAP4 SWAP3 SWAP2 SWAP1 PUSH2 0x15CE JUMP JUMPDEST PUSH1 0x40 MLOAD DUP1 SWAP2 SUB SWAP1 LOG3 POP PUSH1 0x1 DUP1 DUP2 SWAP1 SSTORE POP POP POP JUMP JUMPDEST PUSH1 0x2 PUSH1 0x1 SLOAD EQ ISZERO PUSH2 0x8D4 JUMPI PUSH1 0x40 MLOAD PUSH32 0x8C379A000000000000000000000000000000000000000000000000000000000 DUP2 MSTORE PUSH1 0x4 ADD PUSH2 0x8CB SWAP1 PUSH2 0x16C7 JUMP JUMPDEST PUSH1 0x40 MLOAD DUP1 SWAP2 SUB SWAP1 REVERT JUMPDEST PUSH1 0x2 PUSH1 0x1 DUP2 SWAP1 SSTORE POP PUSH1 0x0 PUSH1 0x8 PUSH1 0x0 DUP5 DUP2 MSTORE PUSH1 0x20 ADD SWAP1 DUP2 MSTORE PUSH1 0x20 ADD PUSH1 0x0 KECCAK256 PUSH1 0x4 ADD SLOAD SWAP1 POP PUSH1 0x0 PUSH1 0x8 PUSH1 0x0 DUP6 DUP2 MSTORE PUSH1 0x20 ADD SWAP1 DUP2 MSTORE PUSH1 0x20 ADD PUSH1 0x0 KECCAK256 PUSH1 0x1 ADD SLOAD SWAP1 POP PUSH1 0x0 PUSH1 0x8 PUSH1 0x0 DUP7 DUP2 MSTORE PUSH1 0x20 ADD SWAP1 DUP2 MSTORE PUSH1 0x20 ADD PUSH1 0x0 KECCAK256 PUSH1 0x5 ADD PUSH1 0x1 SWAP1 SLOAD SWAP1 PUSH2 0x100 EXP SWAP1 DIV PUSH1 0xFF AND SWAP1 POP DUP3 DUP5 LT ISZERO PUSH2 0x97D JUMPI PUSH1 0x40 MLOAD PUSH32 0x8C379A000000000000000000000000000000000000000000000000000000000 DUP2 MSTORE PUSH1 0x4 ADD PUSH2 0x974 SWAP1 PUSH2 0x1627 JUMP JUMPDEST PUSH1 0x40 MLOAD DUP1 SWAP2 SUB SWAP1 REVERT JUMPDEST PUSH1 0x1 ISZERO ISZERO DUP2 ISZERO ISZERO EQ PUSH2 0x9C4 JUMPI PUSH1 0x40 MLOAD PUSH32 0x8C379A000000000000000000000000000000000000000000000000000000000 DUP2 MSTORE PUSH1 0x4 ADD PUSH2 0x9BB SWAP1 PUSH2 0x1687 JUMP JUMPDEST PUSH1 0x40 MLOAD DUP1 SWAP2 SUB SWAP1 REVERT JUMPDEST PUSH1 0x0 PUSH1 0x8 PUSH1 0x0 DUP8 DUP2 MSTORE PUSH1 0x20 ADD SWAP1 DUP2 MSTORE PUSH1 0x20 ADD PUSH1 0x0 KECCAK256 PUSH1 0x2 ADD PUSH1 0x0 SWAP1 SLOAD SWAP1 PUSH2 0x100 EXP SWAP1 DIV PUSH20 0xFFFFFFFFFFFFFFFFFFFFFFFFFFFFFFFFFFFFFFFF AND SWAP1 POP CALLER PUSH1 0x8 PUSH1 0x0 DUP9 DUP2 MSTORE PUSH1 0x20 ADD SWAP1 DUP2 MSTORE PUSH1 0x20 ADD PUSH1 0x0 KECCAK256 PUSH1 0x3 ADD PUSH1 0x0 PUSH2 0x100 EXP DUP2 SLOAD DUP2 PUSH20 0xFFFFFFFFFFFFFFFFFFFFFFFFFFFFFFFFFFFFFFFF MUL NOT AND SWAP1 DUP4 PUSH20 0xFFFFFFFFFFFFFFFFFFFFFFFFFFFFFFFFFFFFFFFF AND MUL OR SWAP1 SSTORE POP CALLER PUSH1 0x8 PUSH1 0x0 DUP9 DUP2 MSTORE PUSH1 0x20 ADD SWAP1 DUP2 MSTORE PUSH1 0x20 ADD PUSH1 0x0 KECCAK256 PUSH1 0x2 ADD PUSH1 0x0 PUSH2 0x100 EXP DUP2 SLOAD DUP2 PUSH20 0xFFFFFFFFFFFFFFFFFFFFFFFFFFFFFFFFFFFFFFFF MUL NOT AND SWAP1 DUP4 PUSH20 0xFFFFFFFFFFFFFFFFFFFFFFFFFFFFFFFFFFFFFFFF AND MUL OR SWAP1 SSTORE POP PUSH1 0x1 PUSH1 0x8 PUSH1 0x0 DUP9 DUP2 MSTORE PUSH1 0x20 ADD SWAP1 DUP2 MSTORE PUSH1 0x20 ADD PUSH1 0x0 KECCAK256 PUSH1 0x5 ADD PUSH1 0x0 PUSH2 0x100 EXP DUP2 SLOAD DUP2 PUSH1 0xFF MUL NOT AND SWAP1 DUP4 ISZERO ISZERO MUL OR SWAP1 SSTORE POP PUSH1 0x0 PUSH1 0x8 PUSH1 0x0 DUP9 DUP2 MSTORE PUSH1 0x20 ADD SWAP1 DUP2 MSTORE PUSH1 0x20 ADD PUSH1 0x0 KECCAK256 PUSH1 0x5 ADD PUSH1 0x1 PUSH2 0x100 EXP DUP2 SLOAD DUP2 PUSH1 0xFF MUL NOT AND SWAP1 DUP4 ISZERO ISZERO MUL OR SWAP1 SSTORE POP PUSH1 0x5 PUSH1 0x0 SWAP1 SLOAD SWAP1 PUSH2 0x100 EXP SWAP1 DIV PUSH20 0xFFFFFFFFFFFFFFFFFFFFFFFFFFFFFFFFFFFFFFFF AND PUSH20 0xFFFFFFFFFFFFFFFFFFFFFFFFFFFFFFFFFFFFFFFF AND PUSH4 0x23B872DD DUP3 CALLER DUP7 PUSH1 0x40 MLOAD DUP5 PUSH4 0xFFFFFFFF AND PUSH1 0xE0 SHL DUP2 MSTORE PUSH1 0x4 ADD PUSH2 0xB66 SWAP4 SWAP3 SWAP2 SWAP1 PUSH2 0x15CE JUMP JUMPDEST PUSH1 0x0 PUSH1 0x40 MLOAD DUP1 DUP4 SUB DUP2 PUSH1 0x0 DUP8 DUP1 EXTCODESIZE ISZERO DUP1 ISZERO PUSH2 0xB80 JUMPI PUSH1 0x0 DUP1 REVERT JUMPDEST POP GAS CALL ISZERO DUP1 ISZERO PUSH2 0xB94 JUMPI RETURNDATASIZE PUSH1 0x0 DUP1 RETURNDATACOPY RETURNDATASIZE PUSH1 0x0 REVERT JUMPDEST POP POP POP POP PUSH1 0x6 PUSH1 0x0 SWAP1 SLOAD SWAP1 PUSH2 0x100 EXP SWAP1 DIV PUSH20 0xFFFFFFFFFFFFFFFFFFFFFFFFFFFFFFFFFFFFFFFF AND PUSH20 0xFFFFFFFFFFFFFFFFFFFFFFFFFFFFFFFFFFFFFFFF AND PUSH4 0x23B872DD CALLER DUP4 DUP9 PUSH1 0x40 MLOAD DUP5 PUSH4 0xFFFFFFFF AND PUSH1 0xE0 SHL DUP2 MSTORE PUSH1 0x4 ADD PUSH2 0xBF7 SWAP4 SWAP3 SWAP2 SWAP1 PUSH2 0x15CE JUMP JUMPDEST PUSH1 0x20 PUSH1 0x40 MLOAD DUP1 DUP4 SUB DUP2 PUSH1 0x0 DUP8 DUP1 EXTCODESIZE ISZERO DUP1 ISZERO PUSH2 0xC11 JUMPI PUSH1 0x0 DUP1 REVERT JUMPDEST POP GAS CALL ISZERO DUP1 ISZERO PUSH2 0xC25 JUMPI RETURNDATASIZE PUSH1 0x0 DUP1 RETURNDATACOPY RETURNDATASIZE PUSH1 0x0 REVERT JUMPDEST POP POP POP POP PUSH1 0x40 MLOAD RETURNDATASIZE PUSH1 0x1F NOT PUSH1 0x1F DUP3 ADD AND DUP3 ADD DUP1 PUSH1 0x40 MSTORE POP DUP2 ADD SWAP1 PUSH2 0xC49 SWAP2 SWAP1 PUSH2 0x1238 JUMP JUMPDEST POP PUSH2 0xC54 PUSH1 0x3 PUSH2 0x113B JUMP JUMPDEST POP POP POP POP PUSH1 0x1 DUP1 DUP2 SWAP1 SSTORE POP POP POP JUMP JUMPDEST PUSH1 0x60 PUSH1 0x0 PUSH2 0xC71 PUSH1 0x2 PUSH2 0x1151 JUMP JUMPDEST SWAP1 POP PUSH1 0x0 PUSH2 0xC7F PUSH1 0x3 PUSH2 0x1151 JUMP JUMPDEST PUSH2 0xC89 PUSH1 0x2 PUSH2 0x1151 JUMP JUMPDEST PUSH2 0xC93 SWAP2 SWAP1 PUSH2 0x184C JUMP JUMPDEST SWAP1 POP PUSH1 0x0 DUP1 DUP3 PUSH8 0xFFFFFFFFFFFFFFFF DUP2 GT ISZERO PUSH2 0xCB2 JUMPI PUSH2 0xCB1 PUSH2 0x196F JUMP JUMPDEST JUMPDEST PUSH1 0x40 MLOAD SWAP1 DUP1 DUP3 MSTORE DUP1 PUSH1 0x20 MUL PUSH1 0x20 ADD DUP3 ADD PUSH1 0x40 MSTORE DUP1 ISZERO PUSH2 0xCEB JUMPI DUP2 PUSH1 0x20 ADD JUMPDEST PUSH2 0xCD8 PUSH2 0x115F JUMP JUMPDEST DUP2 MSTORE PUSH1 0x20 ADD SWAP1 PUSH1 0x1 SWAP1 SUB SWAP1 DUP2 PUSH2 0xCD0 JUMPI SWAP1 POP JUMPDEST POP SWAP1 POP PUSH1 0x0 JUMPDEST DUP5 DUP2 LT ISZERO PUSH2 0xEA4 JUMPI PUSH1 0x8 PUSH1 0x0 PUSH1 0x1 DUP4 PUSH2 0xD0A SWAP2 SWAP1 PUSH2 0x17F6 JUMP JUMPDEST DUP2 MSTORE PUSH1 0x20 ADD SWAP1 DUP2 MSTORE PUSH1 0x20 ADD PUSH1 0x0 KECCAK256 PUSH1 0x5 ADD PUSH1 0x0 SWAP1 SLOAD SWAP1 PUSH2 0x100 EXP SWAP1 DIV PUSH1 0xFF AND PUSH2 0xE91 JUMPI PUSH1 0x0 PUSH1 0x1 DUP3 PUSH2 0xD3C SWAP2 SWAP1 PUSH2 0x17F6 JUMP JUMPDEST SWAP1 POP PUSH1 0x0 PUSH1 0x8 PUSH1 0x0 DUP4 DUP2 MSTORE PUSH1 0x20 ADD SWAP1 DUP2 MSTORE PUSH1 0x20 ADD PUSH1 0x0 KECCAK256 PUSH1 0x40 MLOAD DUP1 PUSH1 0xE0 ADD PUSH1 0x40 MSTORE SWAP1 DUP2 PUSH1 0x0 DUP3 ADD SLOAD DUP2 MSTORE PUSH1 0x20 ADD PUSH1 0x1 DUP3 ADD SLOAD DUP2 MSTORE PUSH1 0x20 ADD PUSH1 0x2 DUP3 ADD PUSH1 0x0 SWAP1 SLOAD SWAP1 PUSH2 0x100 EXP SWAP1 DIV PUSH20 0xFFFFFFFFFFFFFFFFFFFFFFFFFFFFFFFFFFFFFFFF AND PUSH20 0xFFFFFFFFFFFFFFFFFFFFFFFFFFFFFFFFFFFFFFFF AND PUSH20 0xFFFFFFFFFFFFFFFFFFFFFFFFFFFFFFFFFFFFFFFF AND DUP2 MSTORE PUSH1 0x20 ADD PUSH1 0x3 DUP3 ADD PUSH1 0x0 SWAP1 SLOAD SWAP1 PUSH2 0x100 EXP SWAP1 DIV PUSH20 0xFFFFFFFFFFFFFFFFFFFFFFFFFFFFFFFFFFFFFFFF AND PUSH20 0xFFFFFFFFFFFFFFFFFFFFFFFFFFFFFFFFFFFFFFFF AND PUSH20 0xFFFFFFFFFFFFFFFFFFFFFFFFFFFFFFFFFFFFFFFF AND DUP2 MSTORE PUSH1 0x20 ADD PUSH1 0x4 DUP3 ADD SLOAD DUP2 MSTORE PUSH1 0x20 ADD PUSH1 0x5 DUP3 ADD PUSH1 0x0 SWAP1 SLOAD SWAP1 PUSH2 0x100 EXP SWAP1 DIV PUSH1 0xFF AND ISZERO ISZERO ISZERO ISZERO DUP2 MSTORE PUSH1 0x20 ADD PUSH1 0x5 DUP3 ADD PUSH1 0x1 SWAP1 SLOAD SWAP1 PUSH2 0x100 EXP SWAP1 DIV PUSH1 0xFF AND ISZERO ISZERO ISZERO ISZERO DUP2 MSTORE POP POP SWAP1 POP DUP1 DUP5 DUP7 DUP2 MLOAD DUP2 LT PUSH2 0xE74 JUMPI PUSH2 0xE73 PUSH2 0x1940 JUMP JUMPDEST JUMPDEST PUSH1 0x20 MUL PUSH1 0x20 ADD ADD DUP2 SWAP1 MSTORE POP PUSH1 0x1 DUP6 PUSH2 0xE8C SWAP2 SWAP1 PUSH2 0x17F6 JUMP JUMPDEST SWAP5 POP POP POP JUMPDEST DUP1 DUP1 PUSH2 0xE9C SWAP1 PUSH2 0x18C8 JUMP JUMPDEST SWAP2 POP POP PUSH2 0xCF1 JUMP JUMPDEST POP DUP1 SWAP5 POP POP POP POP POP SWAP1 JUMP JUMPDEST PUSH1 0x7 SLOAD DUP2 JUMP JUMPDEST PUSH1 0x5 PUSH1 0x0 SWAP1 SLOAD SWAP1 PUSH2 0x100 EXP SWAP1 DIV PUSH20 0xFFFFFFFFFFFFFFFFFFFFFFFFFFFFFFFFFFFFFFFF AND DUP2 JUMP JUMPDEST PUSH1 0x8 PUSH1 0x20 MSTORE DUP1 PUSH1 0x0 MSTORE PUSH1 0x40 PUSH1 0x0 KECCAK256 PUSH1 0x0 SWAP2 POP SWAP1 POP DUP1 PUSH1 0x0 ADD SLOAD SWAP1 DUP1 PUSH1 0x1 ADD SLOAD SWAP1 DUP1 PUSH1 0x2 ADD PUSH1 0x0 SWAP1 SLOAD SWAP1 PUSH2 0x100 EXP SWAP1 DIV PUSH20 0xFFFFFFFFFFFFFFFFFFFFFFFFFFFFFFFFFFFFFFFF AND SWAP1 DUP1 PUSH1 0x3 ADD PUSH1 0x0 SWAP1 SLOAD SWAP1 PUSH2 0x100 EXP SWAP1 DIV PUSH20 0xFFFFFFFFFFFFFFFFFFFFFFFFFFFFFFFFFFFFFFFF AND SWAP1 DUP1 PUSH1 0x4 ADD SLOAD SWAP1 DUP1 PUSH1 0x5 ADD PUSH1 0x0 SWAP1 SLOAD SWAP1 PUSH2 0x100 EXP SWAP1 DIV PUSH1 0xFF AND SWAP1 DUP1 PUSH1 0x5 ADD PUSH1 0x1 SWAP1 SLOAD SWAP1 PUSH2 0x100 EXP SWAP1 DIV PUSH1 0xFF AND SWAP1 POP DUP8 JUMP JUMPDEST PUSH2 0xF7F PUSH2 0x106F JUMP JUMPDEST PUSH20 0xFFFFFFFFFFFFFFFFFFFFFFFFFFFFFFFFFFFFFFFF AND PUSH2 0xF9D PUSH2 0x3E9 JUMP JUMPDEST PUSH20 0xFFFFFFFFFFFFFFFFFFFFFFFFFFFFFFFFFFFFFFFF AND EQ PUSH2 0xFF3 JUMPI PUSH1 0x40 MLOAD PUSH32 0x8C379A000000000000000000000000000000000000000000000000000000000 DUP2 MSTORE PUSH1 0x4 ADD PUSH2 0xFEA SWAP1 PUSH2 0x16A7 JUMP JUMPDEST PUSH1 0x40 MLOAD DUP1 SWAP2 SUB SWAP1 REVERT JUMPDEST PUSH1 0x0 PUSH20 0xFFFFFFFFFFFFFFFFFFFFFFFFFFFFFFFFFFFFFFFF AND DUP2 PUSH20 0xFFFFFFFFFFFFFFFFFFFFFFFFFFFFFFFFFFFFFFFF AND EQ ISZERO PUSH2 0x1063 JUMPI PUSH1 0x40 MLOAD PUSH32 0x8C379A000000000000000000000000000000000000000000000000000000000 DUP2 MSTORE PUSH1 0x4 ADD PUSH2 0x105A SWAP1 PUSH2 0x1667 JUMP JUMPDEST PUSH1 0x40 MLOAD DUP1 SWAP2 SUB SWAP1 REVERT JUMPDEST PUSH2 0x106C DUP2 PUSH2 0x1077 JUMP JUMPDEST POP JUMP JUMPDEST PUSH1 0x0 CALLER SWAP1 POP SWAP1 JUMP JUMPDEST PUSH1 0x0 DUP1 PUSH1 0x0 SWAP1 SLOAD SWAP1 PUSH2 0x100 EXP SWAP1 DIV PUSH20 0xFFFFFFFFFFFFFFFFFFFFFFFFFFFFFFFFFFFFFFFF AND SWAP1 POP DUP2 PUSH1 0x0 DUP1 PUSH2 0x100 EXP DUP2 SLOAD DUP2 PUSH20 0xFFFFFFFFFFFFFFFFFFFFFFFFFFFFFFFFFFFFFFFF MUL NOT AND SWAP1 DUP4 PUSH20 0xFFFFFFFFFFFFFFFFFFFFFFFFFFFFFFFFFFFFFFFF AND MUL OR SWAP1 SSTORE POP DUP2 PUSH20 0xFFFFFFFFFFFFFFFFFFFFFFFFFFFFFFFFFFFFFFFF AND DUP2 PUSH20 0xFFFFFFFFFFFFFFFFFFFFFFFFFFFFFFFFFFFFFFFF AND PUSH32 0x8BE0079C531659141344CD1FD0A4F28419497F9722A3DAAFE3B4186F6B6457E0 PUSH1 0x40 MLOAD PUSH1 0x40 MLOAD DUP1 SWAP2 SUB SWAP1 LOG3 POP POP JUMP JUMPDEST PUSH1 0x1 DUP2 PUSH1 0x0 ADD PUSH1 0x0 DUP3 DUP3 SLOAD ADD SWAP3 POP POP DUP2 SWAP1 SSTORE POP POP JUMP JUMPDEST PUSH1 0x0 DUP2 PUSH1 0x0 ADD SLOAD SWAP1 POP SWAP2 SWAP1 POP JUMP JUMPDEST PUSH1 0x40 MLOAD DUP1 PUSH1 0xE0 ADD PUSH1 0x40 MSTORE DUP1 PUSH1 0x0 DUP2 MSTORE PUSH1 0x20 ADD PUSH1 0x0 DUP2 MSTORE PUSH1 0x20 ADD PUSH1 0x0 PUSH20 0xFFFFFFFFFFFFFFFFFFFFFFFFFFFFFFFFFFFFFFFF AND DUP2 MSTORE PUSH1 0x20 ADD PUSH1 0x0 PUSH20 0xFFFFFFFFFFFFFFFFFFFFFFFFFFFFFFFFFFFFFFFF AND DUP2 MSTORE PUSH1 0x20 ADD PUSH1 0x0 DUP2 MSTORE PUSH1 0x20 ADD PUSH1 0x0 ISZERO ISZERO DUP2 MSTORE PUSH1 0x20 ADD PUSH1 0x0 ISZERO ISZERO DUP2 MSTORE POP SWAP1 JUMP JUMPDEST PUSH1 0x0 DUP2 CALLDATALOAD SWAP1 POP PUSH2 0x11DB DUP2 PUSH2 0x1B0E JUMP JUMPDEST SWAP3 SWAP2 POP POP JUMP JUMPDEST PUSH1 0x0 DUP2 MLOAD SWAP1 POP PUSH2 0x11F0 DUP2 PUSH2 0x1B25 JUMP JUMPDEST SWAP3 SWAP2 POP POP JUMP JUMPDEST PUSH1 0x0 DUP2 CALLDATALOAD SWAP1 POP PUSH2 0x1205 DUP2 PUSH2 0x1B3C JUMP JUMPDEST SWAP3 SWAP2 POP POP JUMP JUMPDEST PUSH1 0x0 PUSH1 0x20 DUP3 DUP5 SUB SLT ISZERO PUSH2 0x1221 JUMPI PUSH2 0x1220 PUSH2 0x199E JUMP JUMPDEST JUMPDEST PUSH1 0x0 PUSH2 0x122F DUP5 DUP3 DUP6 ADD PUSH2 0x11CC JUMP JUMPDEST SWAP2 POP POP SWAP3 SWAP2 POP POP JUMP JUMPDEST PUSH1 0x0 PUSH1 0x20 DUP3 DUP5 SUB SLT ISZERO PUSH2 0x124E JUMPI PUSH2 0x124D PUSH2 0x199E JUMP JUMPDEST JUMPDEST PUSH1 0x0 PUSH2 0x125C DUP5 DUP3 DUP6 ADD PUSH2 0x11E1 JUMP JUMPDEST SWAP2 POP POP SWAP3 SWAP2 POP POP JUMP JUMPDEST PUSH1 0x0 PUSH1 0x20 DUP3 DUP5 SUB SLT ISZERO PUSH2 0x127B JUMPI PUSH2 0x127A PUSH2 0x199E JUMP JUMPDEST JUMPDEST PUSH1 0x0 PUSH2 0x1289 DUP5 DUP3 DUP6 ADD PUSH2 0x11F6 JUMP JUMPDEST SWAP2 POP POP SWAP3 SWAP2 POP POP JUMP JUMPDEST PUSH1 0x0 DUP1 PUSH1 0x40 DUP4 DUP6 SUB SLT ISZERO PUSH2 0x12A9 JUMPI PUSH2 0x12A8 PUSH2 0x199E JUMP JUMPDEST JUMPDEST PUSH1 0x0 PUSH2 0x12B7 DUP6 DUP3 DUP7 ADD PUSH2 0x11F6 JUMP JUMPDEST SWAP3 POP POP PUSH1 0x20 PUSH2 0x12C8 DUP6 DUP3 DUP7 ADD PUSH2 0x11F6 JUMP JUMPDEST SWAP2 POP POP SWAP3 POP SWAP3 SWAP1 POP JUMP JUMPDEST PUSH1 0x0 PUSH2 0x12DE DUP4 DUP4 PUSH2 0x1479 JUMP JUMPDEST PUSH1 0xE0 DUP4 ADD SWAP1 POP SWAP3 SWAP2 POP POP JUMP JUMPDEST PUSH2 0x12F3 DUP2 PUSH2 0x1880 JUMP JUMPDEST DUP3 MSTORE POP POP JUMP JUMPDEST PUSH2 0x1302 DUP2 PUSH2 0x1880 JUMP JUMPDEST DUP3 MSTORE POP POP JUMP JUMPDEST PUSH1 0x0 PUSH2 0x1313 DUP3 PUSH2 0x17BC JUMP JUMPDEST PUSH2 0x131D DUP2 DUP6 PUSH2 0x17D4 JUMP JUMPDEST SWAP4 POP PUSH2 0x1328 DUP4 PUSH2 0x17AC JUMP JUMPDEST DUP1 PUSH1 0x0 JUMPDEST DUP4 DUP2 LT ISZERO PUSH2 0x1359 JUMPI DUP2 MLOAD PUSH2 0x1340 DUP9 DUP3 PUSH2 0x12D2 JUMP JUMPDEST SWAP8 POP PUSH2 0x134B DUP4 PUSH2 0x17C7 JUMP JUMPDEST SWAP3 POP POP PUSH1 0x1 DUP2 ADD SWAP1 POP PUSH2 0x132C JUMP JUMPDEST POP DUP6 SWAP4 POP POP POP POP SWAP3 SWAP2 POP POP JUMP JUMPDEST PUSH2 0x136F DUP2 PUSH2 0x1892 JUMP JUMPDEST DUP3 MSTORE POP POP JUMP JUMPDEST PUSH2 0x137E DUP2 PUSH2 0x1892 JUMP JUMPDEST DUP3 MSTORE POP POP JUMP JUMPDEST PUSH1 0x0 PUSH2 0x1391 PUSH1 0x1B DUP4 PUSH2 0x17E5 JUMP JUMPDEST SWAP2 POP PUSH2 0x139C DUP3 PUSH2 0x19A3 JUMP JUMPDEST PUSH1 0x20 DUP3 ADD SWAP1 POP SWAP2 SWAP1 POP JUMP JUMPDEST PUSH1 0x0 PUSH2 0x13B4 PUSH1 0x2E DUP4 PUSH2 0x17E5 JUMP JUMPDEST SWAP2 POP PUSH2 0x13BF DUP3 PUSH2 0x19CC JUMP JUMPDEST PUSH1 0x40 DUP3 ADD SWAP1 POP SWAP2 SWAP1 POP JUMP JUMPDEST PUSH1 0x0 PUSH2 0x13D7 PUSH1 0x26 DUP4 PUSH2 0x17E5 JUMP JUMPDEST SWAP2 POP PUSH2 0x13E2 DUP3 PUSH2 0x1A1B JUMP JUMPDEST PUSH1 0x40 DUP3 ADD SWAP1 POP SWAP2 SWAP1 POP JUMP JUMPDEST PUSH1 0x0 PUSH2 0x13FA PUSH1 0x11 DUP4 PUSH2 0x17E5 JUMP JUMPDEST SWAP2 POP PUSH2 0x1405 DUP3 PUSH2 0x1A6A JUMP JUMPDEST PUSH1 0x20 DUP3 ADD SWAP1 POP SWAP2 SWAP1 POP JUMP JUMPDEST PUSH1 0x0 PUSH2 0x141D PUSH1 0x20 DUP4 PUSH2 0x17E5 JUMP JUMPDEST SWAP2 POP PUSH2 0x1428 DUP3 PUSH2 0x1A93 JUMP JUMPDEST PUSH1 0x20 DUP3 ADD SWAP1 POP SWAP2 SWAP1 POP JUMP JUMPDEST PUSH1 0x0 PUSH2 0x1440 PUSH1 0x1F DUP4 PUSH2 0x17E5 JUMP JUMPDEST SWAP2 POP PUSH2 0x144B DUP3 PUSH2 0x1ABC JUMP JUMPDEST PUSH1 0x20 DUP3 ADD SWAP1 POP SWAP2 SWAP1 POP JUMP JUMPDEST PUSH1 0x0 PUSH2 0x1463 PUSH1 0x1C DUP4 PUSH2 0x17E5 JUMP JUMPDEST SWAP2 POP PUSH2 0x146E DUP3 PUSH2 0x1AE5 JUMP JUMPDEST PUSH1 0x20 DUP3 ADD SWAP1 POP SWAP2 SWAP1 POP JUMP JUMPDEST PUSH1 0xE0 DUP3 ADD PUSH1 0x0 DUP3 ADD MLOAD PUSH2 0x148F PUSH1 0x0 DUP6 ADD DUP3 PUSH2 0x1595 JUMP JUMPDEST POP PUSH1 0x20 DUP3 ADD MLOAD PUSH2 0x14A2 PUSH1 0x20 DUP6 ADD DUP3 PUSH2 0x1595 JUMP JUMPDEST POP PUSH1 0x40 DUP3 ADD MLOAD PUSH2 0x14B5 PUSH1 0x40 DUP6 ADD DUP3 PUSH2 0x12EA JUMP JUMPDEST POP PUSH1 0x60 DUP3 ADD MLOAD PUSH2 0x14C8 PUSH1 0x60 DUP6 ADD DUP3 PUSH2 0x12EA JUMP JUMPDEST POP PUSH1 0x80 DUP3 ADD MLOAD PUSH2 0x14DB PUSH1 0x80 DUP6 ADD DUP3 PUSH2 0x1595 JUMP JUMPDEST POP PUSH1 0xA0 DUP3 ADD MLOAD PUSH2 0x14EE PUSH1 0xA0 DUP6 ADD DUP3 PUSH2 0x1366 JUMP JUMPDEST POP PUSH1 0xC0 DUP3 ADD MLOAD PUSH2 0x1501 PUSH1 0xC0 DUP6 ADD DUP3 PUSH2 0x1366 JUMP JUMPDEST POP POP POP POP JUMP JUMPDEST PUSH1 0xE0 DUP3 ADD PUSH1 0x0 DUP3 ADD MLOAD PUSH2 0x151D PUSH1 0x0 DUP6 ADD DUP3 PUSH2 0x1595 JUMP JUMPDEST POP PUSH1 0x20 DUP3 ADD MLOAD PUSH2 0x1530 PUSH1 0x20 DUP6 ADD DUP3 PUSH2 0x1595 JUMP JUMPDEST POP PUSH1 0x40 DUP3 ADD MLOAD PUSH2 0x1543 PUSH1 0x40 DUP6 ADD DUP3 PUSH2 0x12EA JUMP JUMPDEST POP PUSH1 0x60 DUP3 ADD MLOAD PUSH2 0x1556 PUSH1 0x60 DUP6 ADD DUP3 PUSH2 0x12EA JUMP JUMPDEST POP PUSH1 0x80 DUP3 ADD MLOAD PUSH2 0x1569 PUSH1 0x80 DUP6 ADD DUP3 PUSH2 0x1595 JUMP JUMPDEST POP PUSH1 0xA0 DUP3 ADD MLOAD PUSH2 0x157C PUSH1 0xA0 DUP6 ADD DUP3 PUSH2 0x1366 JUMP JUMPDEST POP PUSH1 0xC0 DUP3 ADD MLOAD PUSH2 0x158F PUSH1 0xC0 DUP6 ADD DUP3 PUSH2 0x1366 JUMP JUMPDEST POP POP POP POP JUMP JUMPDEST PUSH2 0x159E DUP2 PUSH2 0x18BE JUMP JUMPDEST DUP3 MSTORE POP POP JUMP JUMPDEST PUSH2 0x15AD DUP2 PUSH2 0x18BE JUMP JUMPDEST DUP3 MSTORE POP POP JUMP JUMPDEST PUSH1 0x0 PUSH1 0x20 DUP3 ADD SWAP1 POP PUSH2 0x15C8 PUSH1 0x0 DUP4 ADD DUP5 PUSH2 0x12F9 JUMP JUMPDEST SWAP3 SWAP2 POP POP JUMP JUMPDEST PUSH1 0x0 PUSH1 0x60 DUP3 ADD SWAP1 POP PUSH2 0x15E3 PUSH1 0x0 DUP4 ADD DUP7 PUSH2 0x12F9 JUMP JUMPDEST PUSH2 0x15F0 PUSH1 0x20 DUP4 ADD DUP6 PUSH2 0x12F9 JUMP JUMPDEST PUSH2 0x15FD PUSH1 0x40 DUP4 ADD DUP5 PUSH2 0x15A4 JUMP JUMPDEST SWAP5 SWAP4 POP POP POP POP JUMP JUMPDEST PUSH1 0x0 PUSH1 0x20 DUP3 ADD SWAP1 POP DUP2 DUP2 SUB PUSH1 0x0 DUP4 ADD MSTORE PUSH2 0x161F DUP2 DUP5 PUSH2 0x1308 JUMP JUMPDEST SWAP1 POP SWAP3 SWAP2 POP POP JUMP JUMPDEST PUSH1 0x0 PUSH1 0x20 DUP3 ADD SWAP1 POP DUP2 DUP2 SUB PUSH1 0x0 DUP4 ADD MSTORE PUSH2 0x1640 DUP2 PUSH2 0x1384 JUMP JUMPDEST SWAP1 POP SWAP2 SWAP1 POP JUMP JUMPDEST PUSH1 0x0 PUSH1 0x20 DUP3 ADD SWAP1 POP DUP2 DUP2 SUB PUSH1 0x0 DUP4 ADD MSTORE PUSH2 0x1660 DUP2 PUSH2 0x13A7 JUMP JUMPDEST SWAP1 POP SWAP2 SWAP1 POP JUMP JUMPDEST PUSH1 0x0 PUSH1 0x20 DUP3 ADD SWAP1 POP DUP2 DUP2 SUB PUSH1 0x0 DUP4 ADD MSTORE PUSH2 0x1680 DUP2 PUSH2 0x13CA JUMP JUMPDEST SWAP1 POP SWAP2 SWAP1 POP JUMP JUMPDEST PUSH1 0x0 PUSH1 0x20 DUP3 ADD SWAP1 POP DUP2 DUP2 SUB PUSH1 0x0 DUP4 ADD MSTORE PUSH2 0x16A0 DUP2 PUSH2 0x13ED JUMP JUMPDEST SWAP1 POP SWAP2 SWAP1 POP JUMP JUMPDEST PUSH1 0x0 PUSH1 0x20 DUP3 ADD SWAP1 POP DUP2 DUP2 SUB PUSH1 0x0 DUP4 ADD MSTORE PUSH2 0x16C0 DUP2 PUSH2 0x1410 JUMP JUMPDEST SWAP1 POP SWAP2 SWAP1 POP JUMP JUMPDEST PUSH1 0x0 PUSH1 0x20 DUP3 ADD SWAP1 POP DUP2 DUP2 SUB PUSH1 0x0 DUP4 ADD MSTORE PUSH2 0x16E0 DUP2 PUSH2 0x1433 JUMP JUMPDEST SWAP1 POP SWAP2 SWAP1 POP JUMP JUMPDEST PUSH1 0x0 PUSH1 0x20 DUP3 ADD SWAP1 POP DUP2 DUP2 SUB PUSH1 0x0 DUP4 ADD MSTORE PUSH2 0x1700 DUP2 PUSH2 0x1456 JUMP JUMPDEST SWAP1 POP SWAP2 SWAP1 POP JUMP JUMPDEST PUSH1 0x0 PUSH1 0xE0 DUP3 ADD SWAP1 POP PUSH2 0x171C PUSH1 0x0 DUP4 ADD DUP5 PUSH2 0x1507 JUMP JUMPDEST SWAP3 SWAP2 POP POP JUMP JUMPDEST PUSH1 0x0 PUSH1 0x20 DUP3 ADD SWAP1 POP PUSH2 0x1737 PUSH1 0x0 DUP4 ADD DUP5 PUSH2 0x15A4 JUMP JUMPDEST SWAP3 SWAP2 POP POP JUMP JUMPDEST PUSH1 0x0 PUSH1 0xE0 DUP3 ADD SWAP1 POP PUSH2 0x1752 PUSH1 0x0 DUP4 ADD DUP11 PUSH2 0x15A4 JUMP JUMPDEST PUSH2 0x175F PUSH1 0x20 DUP4 ADD DUP10 PUSH2 0x15A4 JUMP JUMPDEST PUSH2 0x176C PUSH1 0x40 DUP4 ADD DUP9 PUSH2 0x12F9 JUMP JUMPDEST PUSH2 0x1779 PUSH1 0x60 DUP4 ADD DUP8 PUSH2 0x12F9 JUMP JUMPDEST PUSH2 0x1786 PUSH1 0x80 DUP4 ADD DUP7 PUSH2 0x15A4 JUMP JUMPDEST PUSH2 0x1793 PUSH1 0xA0 DUP4 ADD DUP6 PUSH2 0x1375 JUMP JUMPDEST PUSH2 0x17A0 PUSH1 0xC0 DUP4 ADD DUP5 PUSH2 0x1375 JUMP JUMPDEST SWAP9 SWAP8 POP POP POP POP POP POP POP POP JUMP JUMPDEST PUSH1 0x0 DUP2 SWAP1 POP PUSH1 0x20 DUP3 ADD SWAP1 POP SWAP2 SWAP1 POP JUMP JUMPDEST PUSH1 0x0 DUP2 MLOAD SWAP1 POP SWAP2 SWAP1 POP JUMP JUMPDEST PUSH1 0x0 PUSH1 0x20 DUP3 ADD SWAP1 POP SWAP2 SWAP1 POP JUMP JUMPDEST PUSH1 0x0 DUP3 DUP3 MSTORE PUSH1 0x20 DUP3 ADD SWAP1 POP SWAP3 SWAP2 POP POP JUMP JUMPDEST PUSH1 0x0 DUP3 DUP3 MSTORE PUSH1 0x20 DUP3 ADD SWAP1 POP SWAP3 SWAP2 POP POP JUMP JUMPDEST PUSH1 0x0 PUSH2 0x1801 DUP3 PUSH2 0x18BE JUMP JUMPDEST SWAP2 POP PUSH2 0x180C DUP4 PUSH2 0x18BE JUMP JUMPDEST SWAP3 POP DUP3 PUSH32 0xFFFFFFFFFFFFFFFFFFFFFFFFFFFFFFFFFFFFFFFFFFFFFFFFFFFFFFFFFFFFFFFF SUB DUP3 GT ISZERO PUSH2 0x1841 JUMPI PUSH2 0x1840 PUSH2 0x1911 JUMP JUMPDEST JUMPDEST DUP3 DUP3 ADD SWAP1 POP SWAP3 SWAP2 POP POP JUMP JUMPDEST PUSH1 0x0 PUSH2 0x1857 DUP3 PUSH2 0x18BE JUMP JUMPDEST SWAP2 POP PUSH2 0x1862 DUP4 PUSH2 0x18BE JUMP JUMPDEST SWAP3 POP DUP3 DUP3 LT ISZERO PUSH2 0x1875 JUMPI PUSH2 0x1874 PUSH2 0x1911 JUMP JUMPDEST JUMPDEST DUP3 DUP3 SUB SWAP1 POP SWAP3 SWAP2 POP POP JUMP JUMPDEST PUSH1 0x0 PUSH2 0x188B DUP3 PUSH2 0x189E JUMP JUMPDEST SWAP1 POP SWAP2 SWAP1 POP JUMP JUMPDEST PUSH1 0x0 DUP2 ISZERO ISZERO SWAP1 POP SWAP2 SWAP1 POP JUMP JUMPDEST PUSH1 0x0 PUSH20 0xFFFFFFFFFFFFFFFFFFFFFFFFFFFFFFFFFFFFFFFF DUP3 AND SWAP1 POP SWAP2 SWAP1 POP JUMP JUMPDEST PUSH1 0x0 DUP2 SWAP1 POP SWAP2 SWAP1 POP JUMP JUMPDEST PUSH1 0x0 PUSH2 0x18D3 DUP3 PUSH2 0x18BE JUMP JUMPDEST SWAP2 POP PUSH32 0xFFFFFFFFFFFFFFFFFFFFFFFFFFFFFFFFFFFFFFFFFFFFFFFFFFFFFFFFFFFFFFFF DUP3 EQ ISZERO PUSH2 0x1906 JUMPI PUSH2 0x1905 PUSH2 0x1911 JUMP JUMPDEST JUMPDEST PUSH1 0x1 DUP3 ADD SWAP1 POP SWAP2 SWAP1 POP JUMP JUMPDEST PUSH32 0x4E487B7100000000000000000000000000000000000000000000000000000000 PUSH1 0x0 MSTORE PUSH1 0x11 PUSH1 0x4 MSTORE PUSH1 0x24 PUSH1 0x0 REVERT JUMPDEST PUSH32 0x4E487B7100000000000000000000000000000000000000000000000000000000 PUSH1 0x0 MSTORE PUSH1 0x32 PUSH1 0x4 MSTORE PUSH1 0x24 PUSH1 0x0 REVERT JUMPDEST PUSH32 0x4E487B7100000000000000000000000000000000000000000000000000000000 PUSH1 0x0 MSTORE PUSH1 0x41 PUSH1 0x4 MSTORE PUSH1 0x24 PUSH1 0x0 REVERT JUMPDEST PUSH1 0x0 DUP1 REVERT JUMPDEST PUSH32 0x41736B696E67205072696365206E6F7420736174697366696564210000000000 PUSH1 0x0 DUP3 ADD MSTORE POP JUMP JUMPDEST PUSH32 0x50726963652073686F756C64206265206174206C656173742073616D65206173 PUSH1 0x0 DUP3 ADD MSTORE PUSH32 0x206C697374696E67207072696365000000000000000000000000000000000000 PUSH1 0x20 DUP3 ADD MSTORE POP JUMP JUMPDEST PUSH32 0x4F776E61626C653A206E6577206F776E657220697320746865207A65726F2061 PUSH1 0x0 DUP3 ADD MSTORE PUSH32 0x6464726573730000000000000000000000000000000000000000000000000000 PUSH1 0x20 DUP3 ADD MSTORE POP JUMP JUMPDEST PUSH32 0x4E4654206E6F7420666F722073616C652E000000000000000000000000000000 PUSH1 0x0 DUP3 ADD MSTORE POP JUMP JUMPDEST PUSH32 0x4F776E61626C653A2063616C6C6572206973206E6F7420746865206F776E6572 PUSH1 0x0 DUP3 ADD MSTORE POP JUMP JUMPDEST PUSH32 0x5265656E7472616E637947756172643A207265656E7472616E742063616C6C00 PUSH1 0x0 DUP3 ADD MSTORE POP JUMP JUMPDEST PUSH32 0x5072696365206D757374206265206174206C6561737420312077656900000000 PUSH1 0x0 DUP3 ADD MSTORE POP JUMP JUMPDEST PUSH2 0x1B17 DUP2 PUSH2 0x1880 JUMP JUMPDEST DUP2 EQ PUSH2 0x1B22 JUMPI PUSH1 0x0 DUP1 REVERT JUMPDEST POP JUMP JUMPDEST PUSH2 0x1B2E DUP2 PUSH2 0x1892 JUMP JUMPDEST DUP2 EQ PUSH2 0x1B39 JUMPI PUSH1 0x0 DUP1 REVERT JUMPDEST POP JUMP JUMPDEST PUSH2 0x1B45 DUP2 PUSH2 0x18BE JUMP JUMPDEST DUP2 EQ PUSH2 0x1B50 JUMPI PUSH1 0x0 DUP1 REVERT JUMPDEST POP JUMP INVALID LOG2 PUSH5 0x6970667358 0x22 SLT KECCAK256 SWAP9 0xB3 0xE7 SLOAD SWAP10 0xEF ADDMOD 0xAD MSTORE8 EXTCODECOPY PUSH22 0xD51DC5417853977E4341E80D3C988607BACD62DD5A64 PUSH20 0x6F6C634300080700330000000000000000000000 "
				},
				"gasEstimates": {
					"creation": {
						"codeDepositCost": "1409800",
						"executionCost": "infinite",
						"totalCost": "infinite"
					},
					"external": {
						"acceptedTokenAddress()": "2559",
						"addItemToMarket(uint256,uint256)": "infinite",
						"buyItem(uint256,uint256)": "infinite",
						"getMarketItemById(uint256)": "infinite",
						"getUnsoldItems()": "infinite",
						"idToMarketItem(uint256)": "infinite",
						"listingPrice()": "2473",
						"nftContract()": "2580",
						"owner()": "2589",
						"renounceOwnership()": "30397",
						"transferOwnership(address)": "30833"
					}
				},
				"methodIdentifiers": {
					"acceptedTokenAddress()": "889e2cd5",
					"addItemToMarket(uint256,uint256)": "91066da8",
					"buyItem(uint256,uint256)": "9979c009",
					"getMarketItemById(uint256)": "53dbceb1",
					"getUnsoldItems()": "9b8bc127",
					"idToMarketItem(uint256)": "e61a70c0",
					"listingPrice()": "c78f19f9",
					"nftContract()": "d56d229d",
					"owner()": "8da5cb5b",
					"renounceOwnership()": "715018a6",
					"transferOwnership(address)": "f2fde38b"
				}
			},
			"storageLayout": {
				"storage": [
					{
						"astId": 7,
						"contract": "contracts/TestMarketplace.sol:TestMarketplace",
						"label": "_owner",
						"offset": 0,
						"slot": "0",
						"type": "t_address"
					},
					{
						"astId": 115,
						"contract": "contracts/TestMarketplace.sol:TestMarketplace",
						"label": "_status",
						"offset": 0,
						"slot": "1",
						"type": "t_uint256"
					},
					{
						"astId": 464,
						"contract": "contracts/TestMarketplace.sol:TestMarketplace",
						"label": "_itemIds",
						"offset": 0,
						"slot": "2",
						"type": "t_struct(Counter)366_storage"
					},
					{
						"astId": 467,
						"contract": "contracts/TestMarketplace.sol:TestMarketplace",
						"label": "_itemsSold",
						"offset": 0,
						"slot": "3",
						"type": "t_struct(Counter)366_storage"
					},
					{
						"astId": 469,
						"contract": "contracts/TestMarketplace.sol:TestMarketplace",
						"label": "_amountCollected",
						"offset": 0,
						"slot": "4",
						"type": "t_uint256"
					},
					{
						"astId": 471,
						"contract": "contracts/TestMarketplace.sol:TestMarketplace",
						"label": "nftContract",
						"offset": 0,
						"slot": "5",
						"type": "t_address"
					},
					{
						"astId": 473,
						"contract": "contracts/TestMarketplace.sol:TestMarketplace",
						"label": "acceptedTokenAddress",
						"offset": 0,
						"slot": "6",
						"type": "t_address"
					},
					{
						"astId": 476,
						"contract": "contracts/TestMarketplace.sol:TestMarketplace",
						"label": "listingPrice",
						"offset": 0,
						"slot": "7",
						"type": "t_uint256"
					},
					{
						"astId": 496,
						"contract": "contracts/TestMarketplace.sol:TestMarketplace",
						"label": "idToMarketItem",
						"offset": 0,
						"slot": "8",
						"type": "t_mapping(t_uint256,t_struct(MarketItem)491_storage)"
					}
				],
				"types": {
					"t_address": {
						"encoding": "inplace",
						"label": "address",
						"numberOfBytes": "20"
					},
					"t_bool": {
						"encoding": "inplace",
						"label": "bool",
						"numberOfBytes": "1"
					},
					"t_mapping(t_uint256,t_struct(MarketItem)491_storage)": {
						"encoding": "mapping",
						"key": "t_uint256",
						"label": "mapping(uint256 => struct TestMarketplace.MarketItem)",
						"numberOfBytes": "32",
						"value": "t_struct(MarketItem)491_storage"
					},
					"t_struct(Counter)366_storage": {
						"encoding": "inplace",
						"label": "struct Counters.Counter",
						"members": [
							{
								"astId": 365,
								"contract": "contracts/TestMarketplace.sol:TestMarketplace",
								"label": "_value",
								"offset": 0,
								"slot": "0",
								"type": "t_uint256"
							}
						],
						"numberOfBytes": "32"
					},
					"t_struct(MarketItem)491_storage": {
						"encoding": "inplace",
						"label": "struct TestMarketplace.MarketItem",
						"members": [
							{
								"astId": 478,
								"contract": "contracts/TestMarketplace.sol:TestMarketplace",
								"label": "itemId",
								"offset": 0,
								"slot": "0",
								"type": "t_uint256"
							},
							{
								"astId": 480,
								"contract": "contracts/TestMarketplace.sol:TestMarketplace",
								"label": "tokenId",
								"offset": 0,
								"slot": "1",
								"type": "t_uint256"
							},
							{
								"astId": 482,
								"contract": "contracts/TestMarketplace.sol:TestMarketplace",
								"label": "seller",
								"offset": 0,
								"slot": "2",
								"type": "t_address"
							},
							{
								"astId": 484,
								"contract": "contracts/TestMarketplace.sol:TestMarketplace",
								"label": "owner",
								"offset": 0,
								"slot": "3",
								"type": "t_address"
							},
							{
								"astId": 486,
								"contract": "contracts/TestMarketplace.sol:TestMarketplace",
								"label": "price",
								"offset": 0,
								"slot": "4",
								"type": "t_uint256"
							},
							{
								"astId": 488,
								"contract": "contracts/TestMarketplace.sol:TestMarketplace",
								"label": "isSold",
								"offset": 0,
								"slot": "5",
								"type": "t_bool"
							},
							{
								"astId": 490,
								"contract": "contracts/TestMarketplace.sol:TestMarketplace",
								"label": "isUpForSale",
								"offset": 1,
								"slot": "5",
								"type": "t_bool"
							}
						],
						"numberOfBytes": "192"
					},
					"t_uint256": {
						"encoding": "inplace",
						"label": "uint256",
						"numberOfBytes": "32"
					}
				}
			},
			"userdoc": {
				"kind": "user",
				"methods": {},
				"version": 1
			}
		}
	}
}