{
	"contracts/TestMarketplace.sol": {
		"TestMarketplace": {
			"abi": [
				{
					"inputs": [
						{
							"internalType": "address",
							"name": "_nftContract",
							"type": "address"
						},
						{
							"internalType": "address",
							"name": "_acceptedTokenAddress",
							"type": "address"
						}
					],
					"stateMutability": "nonpayable",
					"type": "constructor"
				},
				{
					"anonymous": false,
					"inputs": [
						{
							"indexed": true,
							"internalType": "uint256",
							"name": "itemId",
							"type": "uint256"
						},
						{
							"indexed": true,
							"internalType": "uint256",
							"name": "tokenId",
							"type": "uint256"
						},
						{
							"indexed": false,
							"internalType": "address",
							"name": "seller",
							"type": "address"
						},
						{
							"indexed": false,
							"internalType": "address",
							"name": "owner",
							"type": "address"
						},
						{
							"indexed": false,
							"internalType": "uint256",
							"name": "price",
							"type": "uint256"
						}
					],
					"name": "MarketItemCreated",
					"type": "event"
				},
				{
					"anonymous": false,
					"inputs": [
						{
							"indexed": true,
							"internalType": "uint256",
							"name": "itemId",
							"type": "uint256"
						},
						{
							"indexed": true,
							"internalType": "uint256",
							"name": "tokenId",
							"type": "uint256"
						},
						{
							"indexed": false,
							"internalType": "address",
							"name": "seller",
							"type": "address"
						},
						{
							"indexed": false,
							"internalType": "address",
							"name": "owner",
							"type": "address"
						},
						{
							"indexed": false,
							"internalType": "uint256",
							"name": "price",
							"type": "uint256"
						}
					],
					"name": "MarketItemUpForSale",
					"type": "event"
				},
				{
					"anonymous": false,
					"inputs": [
						{
							"indexed": true,
							"internalType": "address",
							"name": "previousOwner",
							"type": "address"
						},
						{
							"indexed": true,
							"internalType": "address",
							"name": "newOwner",
							"type": "address"
						}
					],
					"name": "OwnershipTransferred",
					"type": "event"
				},
				{
					"inputs": [],
					"name": "acceptedTokenAddress",
					"outputs": [
						{
							"internalType": "address",
							"name": "",
							"type": "address"
						}
					],
					"stateMutability": "view",
					"type": "function"
				},
				{
					"inputs": [
						{
							"internalType": "uint256",
							"name": "tokenId",
							"type": "uint256"
						},
						{
							"internalType": "uint256",
							"name": "price",
							"type": "uint256"
						}
					],
					"name": "addItemToMarket",
					"outputs": [],
					"stateMutability": "nonpayable",
					"type": "function"
				},
				{
					"inputs": [
						{
							"internalType": "uint256",
							"name": "itemId",
							"type": "uint256"
						},
						{
							"internalType": "uint256",
							"name": "itemPrice",
							"type": "uint256"
						}
					],
					"name": "buyItem",
					"outputs": [],
					"stateMutability": "nonpayable",
					"type": "function"
				},
				{
					"inputs": [
						{
							"internalType": "uint256",
							"name": "itemId",
							"type": "uint256"
						}
					],
					"name": "createSale",
					"outputs": [],
					"stateMutability": "nonpayable",
					"type": "function"
				},
				{
					"inputs": [
						{
							"internalType": "uint256",
							"name": "marketItemId",
							"type": "uint256"
						}
					],
					"name": "getMarketItemById",
					"outputs": [
						{
							"components": [
								{
									"internalType": "uint256",
									"name": "itemId",
									"type": "uint256"
								},
								{
									"internalType": "uint256",
									"name": "tokenId",
									"type": "uint256"
								},
								{
									"internalType": "address",
									"name": "seller",
									"type": "address"
								},
								{
									"internalType": "address",
									"name": "owner",
									"type": "address"
								},
								{
									"internalType": "uint256",
									"name": "price",
									"type": "uint256"
								},
								{
									"internalType": "bool",
									"name": "isSold",
									"type": "bool"
								},
								{
									"internalType": "bool",
									"name": "isUpForSale",
									"type": "bool"
								},
								{
									"internalType": "bool",
									"name": "exists",
									"type": "bool"
								}
							],
							"internalType": "struct TestMarketplace.MarketItem",
							"name": "",
							"type": "tuple"
						}
					],
					"stateMutability": "view",
					"type": "function"
				},
				{
					"inputs": [],
					"name": "getUnsoldItems",
					"outputs": [
						{
							"components": [
								{
									"internalType": "uint256",
									"name": "itemId",
									"type": "uint256"
								},
								{
									"internalType": "uint256",
									"name": "tokenId",
									"type": "uint256"
								},
								{
									"internalType": "address",
									"name": "seller",
									"type": "address"
								},
								{
									"internalType": "address",
									"name": "owner",
									"type": "address"
								},
								{
									"internalType": "uint256",
									"name": "price",
									"type": "uint256"
								},
								{
									"internalType": "bool",
									"name": "isSold",
									"type": "bool"
								},
								{
									"internalType": "bool",
									"name": "isUpForSale",
									"type": "bool"
								},
								{
									"internalType": "bool",
									"name": "exists",
									"type": "bool"
								}
							],
							"internalType": "struct TestMarketplace.MarketItem[]",
							"name": "",
							"type": "tuple[]"
						}
					],
					"stateMutability": "view",
					"type": "function"
				},
				{
					"inputs": [
						{
							"internalType": "uint256",
							"name": "",
							"type": "uint256"
						}
					],
					"name": "idToMarketItem",
					"outputs": [
						{
							"internalType": "uint256",
							"name": "itemId",
							"type": "uint256"
						},
						{
							"internalType": "uint256",
							"name": "tokenId",
							"type": "uint256"
						},
						{
							"internalType": "address",
							"name": "seller",
							"type": "address"
						},
						{
							"internalType": "address",
							"name": "owner",
							"type": "address"
						},
						{
							"internalType": "uint256",
							"name": "price",
							"type": "uint256"
						},
						{
							"internalType": "bool",
							"name": "isSold",
							"type": "bool"
						},
						{
							"internalType": "bool",
							"name": "isUpForSale",
							"type": "bool"
						},
						{
							"internalType": "bool",
							"name": "exists",
							"type": "bool"
						}
					],
					"stateMutability": "view",
					"type": "function"
				},
				{
					"inputs": [],
					"name": "listingPrice",
					"outputs": [
						{
							"internalType": "uint256",
							"name": "",
							"type": "uint256"
						}
					],
					"stateMutability": "view",
					"type": "function"
				},
				{
					"inputs": [],
					"name": "nftContract",
					"outputs": [
						{
							"internalType": "address",
							"name": "",
							"type": "address"
						}
					],
					"stateMutability": "view",
					"type": "function"
				},
				{
					"inputs": [],
					"name": "owner",
					"outputs": [
						{
							"internalType": "address",
							"name": "",
							"type": "address"
						}
					],
					"stateMutability": "view",
					"type": "function"
				},
				{
					"inputs": [],
					"name": "renounceOwnership",
					"outputs": [],
					"stateMutability": "nonpayable",
					"type": "function"
				},
				{
					"inputs": [
						{
							"internalType": "address",
							"name": "newOwner",
							"type": "address"
						}
					],
					"name": "transferOwnership",
					"outputs": [],
					"stateMutability": "nonpayable",
					"type": "function"
				}
			],
			"devdoc": {
				"kind": "dev",
				"methods": {
					"owner()": {
						"details": "Returns the address of the current owner."
					},
					"renounceOwnership()": {
						"details": "Leaves the contract without owner. It will not be possible to call `onlyOwner` functions anymore. Can only be called by the current owner. NOTE: Renouncing ownership will leave the contract without an owner, thereby removing any functionality that is only available to the owner."
					},
					"transferOwnership(address)": {
						"details": "Transfers ownership of the contract to a new account (`newOwner`). Can only be called by the current owner."
					}
				},
				"version": 1
			},
			"evm": {
				"assembly": "    /* \"contracts/TestMarketplace.sol\":371:4191  contract TestMarketplace is Ownable, ReentrancyGuard {... */\n  mstore(0x40, 0x80)\n    /* \"contracts/TestMarketplace.sol\":680:689  0.1 ether */\n  0x016345785d8a0000\n    /* \"contracts/TestMarketplace.sol\":650:689  uint256 public listingPrice = 0.1 ether */\n  0x07\n  sstore\n    /* \"contracts/TestMarketplace.sol\":1222:1374  constructor(address _nftContract, address _acceptedTokenAddress) {... */\n  callvalue\n  dup1\n  iszero\n  tag_1\n  jumpi\n  0x00\n  dup1\n  revert\ntag_1:\n  pop\n  mload(0x40)\n  sub(codesize, bytecodeSize)\n  dup1\n  bytecodeSize\n  dup4\n  codecopy\n  dup2\n  dup2\n  add\n  0x40\n  mstore\n  dup2\n  add\n  swap1\n  tag_2\n  swap2\n  swap1\n  tag_3\n  jump\t// in\ntag_2:\n    /* \"@openzeppelin/contracts/access/Ownable.sol\":921:953  _transferOwnership(_msgSender()) */\n  tag_8\n    /* \"@openzeppelin/contracts/access/Ownable.sol\":940:952  _msgSender() */\n  tag_9\n    /* \"@openzeppelin/contracts/access/Ownable.sol\":940:950  _msgSender */\n  shl(0x20, tag_10)\n    /* \"@openzeppelin/contracts/access/Ownable.sol\":940:952  _msgSender() */\n  0x20\n  shr\n  jump\t// in\ntag_9:\n    /* \"@openzeppelin/contracts/access/Ownable.sol\":921:939  _transferOwnership */\n  shl(0x20, tag_11)\n    /* \"@openzeppelin/contracts/access/Ownable.sol\":921:953  _transferOwnership(_msgSender()) */\n  0x20\n  shr\n  jump\t// in\ntag_8:\n    /* \"@openzeppelin/contracts/security/ReentrancyGuard.sol\":1701:1702  1 */\n  0x01\n    /* \"@openzeppelin/contracts/security/ReentrancyGuard.sol\":1806:1813  _status */\n  dup1\n    /* \"@openzeppelin/contracts/security/ReentrancyGuard.sol\":1806:1828  _status = _NOT_ENTERED */\n  dup2\n  swap1\n  sstore\n  pop\n    /* \"contracts/TestMarketplace.sol\":1307:1319  _nftContract */\n  dup2\n    /* \"contracts/TestMarketplace.sol\":1293:1304  nftContract */\n  0x05\n  0x00\n    /* \"contracts/TestMarketplace.sol\":1293:1319  nftContract = _nftContract */\n  0x0100\n  exp\n  dup2\n  sload\n  dup2\n  0xffffffffffffffffffffffffffffffffffffffff\n  mul\n  not\n  and\n  swap1\n  dup4\n  0xffffffffffffffffffffffffffffffffffffffff\n  and\n  mul\n  or\n  swap1\n  sstore\n  pop\n    /* \"contracts/TestMarketplace.sol\":1348:1369  _acceptedTokenAddress */\n  dup1\n    /* \"contracts/TestMarketplace.sol\":1325:1345  acceptedTokenAddress */\n  0x06\n  0x00\n    /* \"contracts/TestMarketplace.sol\":1325:1369  acceptedTokenAddress = _acceptedTokenAddress */\n  0x0100\n  exp\n  dup2\n  sload\n  dup2\n  0xffffffffffffffffffffffffffffffffffffffff\n  mul\n  not\n  and\n  swap1\n  dup4\n  0xffffffffffffffffffffffffffffffffffffffff\n  and\n  mul\n  or\n  swap1\n  sstore\n  pop\n    /* \"contracts/TestMarketplace.sol\":1222:1374  constructor(address _nftContract, address _acceptedTokenAddress) {... */\n  pop\n  pop\n    /* \"contracts/TestMarketplace.sol\":371:4191  contract TestMarketplace is Ownable, ReentrancyGuard {... */\n  jump(tag_14)\n    /* \"@openzeppelin/contracts/utils/Context.sol\":640:736  function _msgSender() internal view virtual returns (address) {... */\ntag_10:\n    /* \"@openzeppelin/contracts/utils/Context.sol\":693:700  address */\n  0x00\n    /* \"@openzeppelin/contracts/utils/Context.sol\":719:729  msg.sender */\n  caller\n    /* \"@openzeppelin/contracts/utils/Context.sol\":712:729  return msg.sender */\n  swap1\n  pop\n    /* \"@openzeppelin/contracts/utils/Context.sol\":640:736  function _msgSender() internal view virtual returns (address) {... */\n  swap1\n  jump\t// out\n    /* \"@openzeppelin/contracts/access/Ownable.sol\":2270:2457  function _transferOwnership(address newOwner) internal virtual {... */\ntag_11:\n    /* \"@openzeppelin/contracts/access/Ownable.sol\":2343:2359  address oldOwner */\n  0x00\n    /* \"@openzeppelin/contracts/access/Ownable.sol\":2362:2368  _owner */\n  dup1\n  0x00\n  swap1\n  sload\n  swap1\n  0x0100\n  exp\n  swap1\n  div\n  0xffffffffffffffffffffffffffffffffffffffff\n  and\n    /* \"@openzeppelin/contracts/access/Ownable.sol\":2343:2368  address oldOwner = _owner */\n  swap1\n  pop\n    /* \"@openzeppelin/contracts/access/Ownable.sol\":2387:2395  newOwner */\n  dup2\n    /* \"@openzeppelin/contracts/access/Ownable.sol\":2378:2384  _owner */\n  0x00\n  dup1\n    /* \"@openzeppelin/contracts/access/Ownable.sol\":2378:2395  _owner = newOwner */\n  0x0100\n  exp\n  dup2\n  sload\n  dup2\n  0xffffffffffffffffffffffffffffffffffffffff\n  mul\n  not\n  and\n  swap1\n  dup4\n  0xffffffffffffffffffffffffffffffffffffffff\n  and\n  mul\n  or\n  swap1\n  sstore\n  pop\n    /* \"@openzeppelin/contracts/access/Ownable.sol\":2441:2449  newOwner */\n  dup2\n    /* \"@openzeppelin/contracts/access/Ownable.sol\":2410:2450  OwnershipTransferred(oldOwner, newOwner) */\n  0xffffffffffffffffffffffffffffffffffffffff\n  and\n    /* \"@openzeppelin/contracts/access/Ownable.sol\":2431:2439  oldOwner */\n  dup2\n    /* \"@openzeppelin/contracts/access/Ownable.sol\":2410:2450  OwnershipTransferred(oldOwner, newOwner) */\n  0xffffffffffffffffffffffffffffffffffffffff\n  and\n  0x8be0079c531659141344cd1fd0a4f28419497f9722a3daafe3b4186f6b6457e0\n  mload(0x40)\n  mload(0x40)\n  dup1\n  swap2\n  sub\n  swap1\n  log3\n    /* \"@openzeppelin/contracts/access/Ownable.sol\":2333:2457  {... */\n  pop\n    /* \"@openzeppelin/contracts/access/Ownable.sol\":2270:2457  function _transferOwnership(address newOwner) internal virtual {... */\n  pop\n  jump\t// out\n    /* \"#utility.yul\":7:150   */\ntag_18:\n    /* \"#utility.yul\":64:69   */\n  0x00\n    /* \"#utility.yul\":95:101   */\n  dup2\n    /* \"#utility.yul\":89:102   */\n  mload\n    /* \"#utility.yul\":80:102   */\n  swap1\n  pop\n    /* \"#utility.yul\":111:144   */\n  tag_20\n    /* \"#utility.yul\":138:143   */\n  dup2\n    /* \"#utility.yul\":111:144   */\n  tag_21\n  jump\t// in\ntag_20:\n    /* \"#utility.yul\":7:150   */\n  swap3\n  swap2\n  pop\n  pop\n  jump\t// out\n    /* \"#utility.yul\":156:663   */\ntag_3:\n    /* \"#utility.yul\":235:241   */\n  0x00\n    /* \"#utility.yul\":243:249   */\n  dup1\n    /* \"#utility.yul\":292:294   */\n  0x40\n    /* \"#utility.yul\":280:289   */\n  dup4\n    /* \"#utility.yul\":271:278   */\n  dup6\n    /* \"#utility.yul\":267:290   */\n  sub\n    /* \"#utility.yul\":263:295   */\n  slt\n    /* \"#utility.yul\":260:379   */\n  iszero\n  tag_23\n  jumpi\n    /* \"#utility.yul\":298:377   */\n  tag_24\n  tag_25\n  jump\t// in\ntag_24:\n    /* \"#utility.yul\":260:379   */\ntag_23:\n    /* \"#utility.yul\":418:419   */\n  0x00\n    /* \"#utility.yul\":443:507   */\n  tag_26\n    /* \"#utility.yul\":499:506   */\n  dup6\n    /* \"#utility.yul\":490:496   */\n  dup3\n    /* \"#utility.yul\":479:488   */\n  dup7\n    /* \"#utility.yul\":475:497   */\n  add\n    /* \"#utility.yul\":443:507   */\n  tag_18\n  jump\t// in\ntag_26:\n    /* \"#utility.yul\":433:507   */\n  swap3\n  pop\n    /* \"#utility.yul\":389:517   */\n  pop\n    /* \"#utility.yul\":556:558   */\n  0x20\n    /* \"#utility.yul\":582:646   */\n  tag_27\n    /* \"#utility.yul\":638:645   */\n  dup6\n    /* \"#utility.yul\":629:635   */\n  dup3\n    /* \"#utility.yul\":618:627   */\n  dup7\n    /* \"#utility.yul\":614:636   */\n  add\n    /* \"#utility.yul\":582:646   */\n  tag_18\n  jump\t// in\ntag_27:\n    /* \"#utility.yul\":572:646   */\n  swap2\n  pop\n    /* \"#utility.yul\":527:656   */\n  pop\n    /* \"#utility.yul\":156:663   */\n  swap3\n  pop\n  swap3\n  swap1\n  pop\n  jump\t// out\n    /* \"#utility.yul\":750:846   */\ntag_30:\n    /* \"#utility.yul\":787:794   */\n  0x00\n    /* \"#utility.yul\":816:840   */\n  tag_32\n    /* \"#utility.yul\":834:839   */\n  dup3\n    /* \"#utility.yul\":816:840   */\n  tag_33\n  jump\t// in\ntag_32:\n    /* \"#utility.yul\":805:840   */\n  swap1\n  pop\n    /* \"#utility.yul\":750:846   */\n  swap2\n  swap1\n  pop\n  jump\t// out\n    /* \"#utility.yul\":852:978   */\ntag_33:\n    /* \"#utility.yul\":889:896   */\n  0x00\n    /* \"#utility.yul\":929:971   */\n  0xffffffffffffffffffffffffffffffffffffffff\n    /* \"#utility.yul\":922:927   */\n  dup3\n    /* \"#utility.yul\":918:972   */\n  and\n    /* \"#utility.yul\":907:972   */\n  swap1\n  pop\n    /* \"#utility.yul\":852:978   */\n  swap2\n  swap1\n  pop\n  jump\t// out\n    /* \"#utility.yul\":1107:1224   */\ntag_25:\n    /* \"#utility.yul\":1216:1217   */\n  0x00\n    /* \"#utility.yul\":1213:1214   */\n  dup1\n    /* \"#utility.yul\":1206:1218   */\n  revert\n    /* \"#utility.yul\":1230:1352   */\ntag_21:\n    /* \"#utility.yul\":1303:1327   */\n  tag_39\n    /* \"#utility.yul\":1321:1326   */\n  dup2\n    /* \"#utility.yul\":1303:1327   */\n  tag_30\n  jump\t// in\ntag_39:\n    /* \"#utility.yul\":1296:1301   */\n  dup2\n    /* \"#utility.yul\":1293:1328   */\n  eq\n    /* \"#utility.yul\":1283:1346   */\n  tag_40\n  jumpi\n    /* \"#utility.yul\":1342:1343   */\n  0x00\n    /* \"#utility.yul\":1339:1340   */\n  dup1\n    /* \"#utility.yul\":1332:1344   */\n  revert\n    /* \"#utility.yul\":1283:1346   */\ntag_40:\n    /* \"#utility.yul\":1230:1352   */\n  pop\n  jump\t// out\n    /* \"contracts/TestMarketplace.sol\":371:4191  contract TestMarketplace is Ownable, ReentrancyGuard {... */\ntag_14:\n  dataSize(sub_0)\n  dup1\n  dataOffset(sub_0)\n  0x00\n  codecopy\n  0x00\n  return\nstop\n\nsub_0: assembly {\n        /* \"contracts/TestMarketplace.sol\":371:4191  contract TestMarketplace is Ownable, ReentrancyGuard {... */\n      mstore(0x40, 0x80)\n      callvalue\n      dup1\n      iszero\n      tag_1\n      jumpi\n      0x00\n      dup1\n      revert\n    tag_1:\n      pop\n      jumpi(tag_2, lt(calldatasize, 0x04))\n      shr(0xe0, calldataload(0x00))\n      dup1\n      0x9b8bc127\n      gt\n      tag_15\n      jumpi\n      dup1\n      0x9b8bc127\n      eq\n      tag_9\n      jumpi\n      dup1\n      0x9da1b02a\n      eq\n      tag_10\n      jumpi\n      dup1\n      0xc78f19f9\n      eq\n      tag_11\n      jumpi\n      dup1\n      0xd56d229d\n      eq\n      tag_12\n      jumpi\n      dup1\n      0xe61a70c0\n      eq\n      tag_13\n      jumpi\n      dup1\n      0xf2fde38b\n      eq\n      tag_14\n      jumpi\n      jump(tag_2)\n    tag_15:\n      dup1\n      0x53dbceb1\n      eq\n      tag_3\n      jumpi\n      dup1\n      0x715018a6\n      eq\n      tag_4\n      jumpi\n      dup1\n      0x889e2cd5\n      eq\n      tag_5\n      jumpi\n      dup1\n      0x8da5cb5b\n      eq\n      tag_6\n      jumpi\n      dup1\n      0x91066da8\n      eq\n      tag_7\n      jumpi\n      dup1\n      0x9979c009\n      eq\n      tag_8\n      jumpi\n    tag_2:\n      0x00\n      dup1\n      revert\n        /* \"contracts/TestMarketplace.sol\":3445:3615  function getMarketItemById(uint256 marketItemId) public view returns (MarketItem memory) {... */\n    tag_3:\n      tag_16\n      0x04\n      dup1\n      calldatasize\n      sub\n      dup2\n      add\n      swap1\n      tag_17\n      swap2\n      swap1\n      tag_18\n      jump\t// in\n    tag_17:\n      tag_19\n      jump\t// in\n    tag_16:\n      mload(0x40)\n      tag_20\n      swap2\n      swap1\n      tag_21\n      jump\t// in\n    tag_20:\n      mload(0x40)\n      dup1\n      swap2\n      sub\n      swap1\n      return\n        /* \"@openzeppelin/contracts/access/Ownable.sol\":1668:1769  function renounceOwnership() public virtual onlyOwner {... */\n    tag_4:\n      tag_22\n      tag_23\n      jump\t// in\n    tag_22:\n      stop\n        /* \"contracts/TestMarketplace.sol\":611:646  address public acceptedTokenAddress */\n    tag_5:\n      tag_24\n      tag_25\n      jump\t// in\n    tag_24:\n      mload(0x40)\n      tag_26\n      swap2\n      swap1\n      tag_27\n      jump\t// in\n    tag_26:\n      mload(0x40)\n      dup1\n      swap2\n      sub\n      swap1\n      return\n        /* \"@openzeppelin/contracts/access/Ownable.sol\":1036:1121  function owner() public view virtual returns (address) {... */\n    tag_6:\n      tag_28\n      tag_29\n      jump\t// in\n    tag_28:\n      mload(0x40)\n      tag_30\n      swap2\n      swap1\n      tag_27\n      jump\t// in\n    tag_30:\n      mload(0x40)\n      dup1\n      swap2\n      sub\n      swap1\n      return\n        /* \"contracts/TestMarketplace.sol\":1378:2179  function addItemToMarket(... */\n    tag_7:\n      tag_31\n      0x04\n      dup1\n      calldatasize\n      sub\n      dup2\n      add\n      swap1\n      tag_32\n      swap2\n      swap1\n      tag_33\n      jump\t// in\n    tag_32:\n      tag_34\n      jump\t// in\n    tag_31:\n      stop\n        /* \"contracts/TestMarketplace.sol\":2637:3441  function buyItem(... */\n    tag_8:\n      tag_35\n      0x04\n      dup1\n      calldatasize\n      sub\n      dup2\n      add\n      swap1\n      tag_36\n      swap2\n      swap1\n      tag_33\n      jump\t// in\n    tag_36:\n      tag_37\n      jump\t// in\n    tag_35:\n      stop\n        /* \"contracts/TestMarketplace.sol\":3619:4189  function getUnsoldItems() public view returns (MarketItem[] memory) {... */\n    tag_9:\n      tag_38\n      tag_39\n      jump\t// in\n    tag_38:\n      mload(0x40)\n      tag_40\n      swap2\n      swap1\n      tag_41\n      jump\t// in\n    tag_40:\n      mload(0x40)\n      dup1\n      swap2\n      sub\n      swap1\n      return\n        /* \"contracts/TestMarketplace.sol\":2185:2633  function createSale(... */\n    tag_10:\n      tag_42\n      0x04\n      dup1\n      calldatasize\n      sub\n      dup2\n      add\n      swap1\n      tag_43\n      swap2\n      swap1\n      tag_18\n      jump\t// in\n    tag_43:\n      tag_44\n      jump\t// in\n    tag_42:\n      stop\n        /* \"contracts/TestMarketplace.sol\":650:689  uint256 public listingPrice = 0.1 ether */\n    tag_11:\n      tag_45\n      tag_46\n      jump\t// in\n    tag_45:\n      mload(0x40)\n      tag_47\n      swap2\n      swap1\n      tag_48\n      jump\t// in\n    tag_47:\n      mload(0x40)\n      dup1\n      swap2\n      sub\n      swap1\n      return\n        /* \"contracts/TestMarketplace.sol\":581:607  address public nftContract */\n    tag_12:\n      tag_49\n      tag_50\n      jump\t// in\n    tag_49:\n      mload(0x40)\n      tag_51\n      swap2\n      swap1\n      tag_27\n      jump\t// in\n    tag_51:\n      mload(0x40)\n      dup1\n      swap2\n      sub\n      swap1\n      return\n        /* \"contracts/TestMarketplace.sol\":873:925  mapping(uint256 => MarketItem) public idToMarketItem */\n    tag_13:\n      tag_52\n      0x04\n      dup1\n      calldatasize\n      sub\n      dup2\n      add\n      swap1\n      tag_53\n      swap2\n      swap1\n      tag_18\n      jump\t// in\n    tag_53:\n      tag_54\n      jump\t// in\n    tag_52:\n      mload(0x40)\n      tag_55\n      swap9\n      swap8\n      swap7\n      swap6\n      swap5\n      swap4\n      swap3\n      swap2\n      swap1\n      tag_56\n      jump\t// in\n    tag_55:\n      mload(0x40)\n      dup1\n      swap2\n      sub\n      swap1\n      return\n        /* \"@openzeppelin/contracts/access/Ownable.sol\":1918:2116  function transferOwnership(address newOwner) public virtual onlyOwner {... */\n    tag_14:\n      tag_57\n      0x04\n      dup1\n      calldatasize\n      sub\n      dup2\n      add\n      swap1\n      tag_58\n      swap2\n      swap1\n      tag_59\n      jump\t// in\n    tag_58:\n      tag_60\n      jump\t// in\n    tag_57:\n      stop\n        /* \"contracts/TestMarketplace.sol\":3445:3615  function getMarketItemById(uint256 marketItemId) public view returns (MarketItem memory) {... */\n    tag_19:\n        /* \"contracts/TestMarketplace.sol\":3515:3532  MarketItem memory */\n      tag_61\n      tag_62\n      jump\t// in\n    tag_61:\n        /* \"contracts/TestMarketplace.sol\":3540:3562  MarketItem memory item */\n      0x00\n        /* \"contracts/TestMarketplace.sol\":3565:3579  idToMarketItem */\n      0x08\n        /* \"contracts/TestMarketplace.sol\":3565:3593  idToMarketItem[marketItemId] */\n      0x00\n        /* \"contracts/TestMarketplace.sol\":3580:3592  marketItemId */\n      dup5\n        /* \"contracts/TestMarketplace.sol\":3565:3593  idToMarketItem[marketItemId] */\n      dup2\n      mstore\n      0x20\n      add\n      swap1\n      dup2\n      mstore\n      0x20\n      add\n      0x00\n      keccak256\n        /* \"contracts/TestMarketplace.sol\":3540:3593  MarketItem memory item = idToMarketItem[marketItemId] */\n      mload(0x40)\n      dup1\n      0x0100\n      add\n      0x40\n      mstore\n      swap1\n      dup2\n      0x00\n      dup3\n      add\n      sload\n      dup2\n      mstore\n      0x20\n      add\n      0x01\n      dup3\n      add\n      sload\n      dup2\n      mstore\n      0x20\n      add\n      0x02\n      dup3\n      add\n      0x00\n      swap1\n      sload\n      swap1\n      0x0100\n      exp\n      swap1\n      div\n      0xffffffffffffffffffffffffffffffffffffffff\n      and\n      0xffffffffffffffffffffffffffffffffffffffff\n      and\n      0xffffffffffffffffffffffffffffffffffffffff\n      and\n      dup2\n      mstore\n      0x20\n      add\n      0x03\n      dup3\n      add\n      0x00\n      swap1\n      sload\n      swap1\n      0x0100\n      exp\n      swap1\n      div\n      0xffffffffffffffffffffffffffffffffffffffff\n      and\n      0xffffffffffffffffffffffffffffffffffffffff\n      and\n      0xffffffffffffffffffffffffffffffffffffffff\n      and\n      dup2\n      mstore\n      0x20\n      add\n      0x04\n      dup3\n      add\n      sload\n      dup2\n      mstore\n      0x20\n      add\n      0x05\n      dup3\n      add\n      0x00\n      swap1\n      sload\n      swap1\n      0x0100\n      exp\n      swap1\n      div\n      0xff\n      and\n      iszero\n      iszero\n      iszero\n      iszero\n      dup2\n      mstore\n      0x20\n      add\n      0x05\n      dup3\n      add\n      0x01\n      swap1\n      sload\n      swap1\n      0x0100\n      exp\n      swap1\n      div\n      0xff\n      and\n      iszero\n      iszero\n      iszero\n      iszero\n      dup2\n      mstore\n      0x20\n      add\n      0x05\n      dup3\n      add\n      0x02\n      swap1\n      sload\n      swap1\n      0x0100\n      exp\n      swap1\n      div\n      0xff\n      and\n      iszero\n      iszero\n      iszero\n      iszero\n      dup2\n      mstore\n      pop\n      pop\n      swap1\n      pop\n        /* \"contracts/TestMarketplace.sol\":3606:3610  item */\n      dup1\n        /* \"contracts/TestMarketplace.sol\":3599:3610  return item */\n      swap2\n      pop\n      pop\n        /* \"contracts/TestMarketplace.sol\":3445:3615  function getMarketItemById(uint256 marketItemId) public view returns (MarketItem memory) {... */\n      swap2\n      swap1\n      pop\n      jump\t// out\n        /* \"@openzeppelin/contracts/access/Ownable.sol\":1668:1769  function renounceOwnership() public virtual onlyOwner {... */\n    tag_23:\n        /* \"@openzeppelin/contracts/access/Ownable.sol\":1259:1271  _msgSender() */\n      tag_65\n        /* \"@openzeppelin/contracts/access/Ownable.sol\":1259:1269  _msgSender */\n      tag_66\n        /* \"@openzeppelin/contracts/access/Ownable.sol\":1259:1271  _msgSender() */\n      jump\t// in\n    tag_65:\n        /* \"@openzeppelin/contracts/access/Ownable.sol\":1248:1271  owner() == _msgSender() */\n      0xffffffffffffffffffffffffffffffffffffffff\n      and\n        /* \"@openzeppelin/contracts/access/Ownable.sol\":1248:1255  owner() */\n      tag_67\n        /* \"@openzeppelin/contracts/access/Ownable.sol\":1248:1253  owner */\n      tag_29\n        /* \"@openzeppelin/contracts/access/Ownable.sol\":1248:1255  owner() */\n      jump\t// in\n    tag_67:\n        /* \"@openzeppelin/contracts/access/Ownable.sol\":1248:1271  owner() == _msgSender() */\n      0xffffffffffffffffffffffffffffffffffffffff\n      and\n      eq\n        /* \"@openzeppelin/contracts/access/Ownable.sol\":1240:1308  require(owner() == _msgSender(), \"Ownable: caller is not the owner\") */\n      tag_68\n      jumpi\n      mload(0x40)\n      0x08c379a000000000000000000000000000000000000000000000000000000000\n      dup2\n      mstore\n      0x04\n      add\n      tag_69\n      swap1\n      tag_70\n      jump\t// in\n    tag_69:\n      mload(0x40)\n      dup1\n      swap2\n      sub\n      swap1\n      revert\n    tag_68:\n        /* \"@openzeppelin/contracts/access/Ownable.sol\":1732:1762  _transferOwnership(address(0)) */\n      tag_72\n        /* \"@openzeppelin/contracts/access/Ownable.sol\":1759:1760  0 */\n      0x00\n        /* \"@openzeppelin/contracts/access/Ownable.sol\":1732:1750  _transferOwnership */\n      tag_73\n        /* \"@openzeppelin/contracts/access/Ownable.sol\":1732:1762  _transferOwnership(address(0)) */\n      jump\t// in\n    tag_72:\n        /* \"@openzeppelin/contracts/access/Ownable.sol\":1668:1769  function renounceOwnership() public virtual onlyOwner {... */\n      jump\t// out\n        /* \"contracts/TestMarketplace.sol\":611:646  address public acceptedTokenAddress */\n    tag_25:\n      0x06\n      0x00\n      swap1\n      sload\n      swap1\n      0x0100\n      exp\n      swap1\n      div\n      0xffffffffffffffffffffffffffffffffffffffff\n      and\n      dup2\n      jump\t// out\n        /* \"@openzeppelin/contracts/access/Ownable.sol\":1036:1121  function owner() public view virtual returns (address) {... */\n    tag_29:\n        /* \"@openzeppelin/contracts/access/Ownable.sol\":1082:1089  address */\n      0x00\n        /* \"@openzeppelin/contracts/access/Ownable.sol\":1108:1114  _owner */\n      dup1\n      0x00\n      swap1\n      sload\n      swap1\n      0x0100\n      exp\n      swap1\n      div\n      0xffffffffffffffffffffffffffffffffffffffff\n      and\n        /* \"@openzeppelin/contracts/access/Ownable.sol\":1101:1114  return _owner */\n      swap1\n      pop\n        /* \"@openzeppelin/contracts/access/Ownable.sol\":1036:1121  function owner() public view virtual returns (address) {... */\n      swap1\n      jump\t// out\n        /* \"contracts/TestMarketplace.sol\":1378:2179  function addItemToMarket(... */\n    tag_34:\n        /* \"@openzeppelin/contracts/security/ReentrancyGuard.sol\":1744:1745  2 */\n      0x02\n        /* \"@openzeppelin/contracts/security/ReentrancyGuard.sol\":2325:2332  _status */\n      sload(0x01)\n        /* \"@openzeppelin/contracts/security/ReentrancyGuard.sol\":2325:2344  _status != _ENTERED */\n      eq\n      iszero\n        /* \"@openzeppelin/contracts/security/ReentrancyGuard.sol\":2317:2380  require(_status != _ENTERED, \"ReentrancyGuard: reentrant call\") */\n      tag_76\n      jumpi\n      mload(0x40)\n      0x08c379a000000000000000000000000000000000000000000000000000000000\n      dup2\n      mstore\n      0x04\n      add\n      tag_77\n      swap1\n      tag_78\n      jump\t// in\n    tag_77:\n      mload(0x40)\n      dup1\n      swap2\n      sub\n      swap1\n      revert\n    tag_76:\n        /* \"@openzeppelin/contracts/security/ReentrancyGuard.sol\":1744:1745  2 */\n      0x02\n        /* \"@openzeppelin/contracts/security/ReentrancyGuard.sol\":2455:2462  _status */\n      0x01\n        /* \"@openzeppelin/contracts/security/ReentrancyGuard.sol\":2455:2473  _status = _ENTERED */\n      dup2\n      swap1\n      sstore\n      pop\n        /* \"@openzeppelin/contracts/access/Ownable.sol\":1259:1271  _msgSender() */\n      tag_80\n        /* \"@openzeppelin/contracts/access/Ownable.sol\":1259:1269  _msgSender */\n      tag_66\n        /* \"@openzeppelin/contracts/access/Ownable.sol\":1259:1271  _msgSender() */\n      jump\t// in\n    tag_80:\n        /* \"@openzeppelin/contracts/access/Ownable.sol\":1248:1271  owner() == _msgSender() */\n      0xffffffffffffffffffffffffffffffffffffffff\n      and\n        /* \"@openzeppelin/contracts/access/Ownable.sol\":1248:1255  owner() */\n      tag_81\n        /* \"@openzeppelin/contracts/access/Ownable.sol\":1248:1253  owner */\n      tag_29\n        /* \"@openzeppelin/contracts/access/Ownable.sol\":1248:1255  owner() */\n      jump\t// in\n    tag_81:\n        /* \"@openzeppelin/contracts/access/Ownable.sol\":1248:1271  owner() == _msgSender() */\n      0xffffffffffffffffffffffffffffffffffffffff\n      and\n      eq\n        /* \"@openzeppelin/contracts/access/Ownable.sol\":1240:1308  require(owner() == _msgSender(), \"Ownable: caller is not the owner\") */\n      tag_82\n      jumpi\n      mload(0x40)\n      0x08c379a000000000000000000000000000000000000000000000000000000000\n      dup2\n      mstore\n      0x04\n      add\n      tag_83\n      swap1\n      tag_70\n      jump\t// in\n    tag_83:\n      mload(0x40)\n      dup1\n      swap2\n      sub\n      swap1\n      revert\n    tag_82:\n        /* \"contracts/TestMarketplace.sol\":1499:1500  0 */\n      0x00\n        /* \"contracts/TestMarketplace.sol\":1491:1496  price */\n      dup2\n        /* \"contracts/TestMarketplace.sol\":1491:1500  price > 0 */\n      gt\n        /* \"contracts/TestMarketplace.sol\":1483:1533  require(price > 0, \"Price must be at least 1 wei\") */\n      tag_85\n      jumpi\n      mload(0x40)\n      0x08c379a000000000000000000000000000000000000000000000000000000000\n      dup2\n      mstore\n      0x04\n      add\n      tag_86\n      swap1\n      tag_87\n      jump\t// in\n    tag_86:\n      mload(0x40)\n      dup1\n      swap2\n      sub\n      swap1\n      revert\n    tag_85:\n        /* \"contracts/TestMarketplace.sol\":1556:1568  listingPrice */\n      sload(0x07)\n        /* \"contracts/TestMarketplace.sol\":1547:1552  price */\n      dup2\n        /* \"contracts/TestMarketplace.sol\":1547:1568  price >= listingPrice */\n      lt\n      iszero\n        /* \"contracts/TestMarketplace.sol\":1539:1619  require(price >= listingPrice, \"Price should be at least same as listing price\") */\n      tag_88\n      jumpi\n      mload(0x40)\n      0x08c379a000000000000000000000000000000000000000000000000000000000\n      dup2\n      mstore\n      0x04\n      add\n      tag_89\n      swap1\n      tag_90\n      jump\t// in\n    tag_89:\n      mload(0x40)\n      dup1\n      swap2\n      sub\n      swap1\n      revert\n    tag_88:\n        /* \"contracts/TestMarketplace.sol\":1626:1646  _itemIds.increment() */\n      tag_91\n        /* \"contracts/TestMarketplace.sol\":1626:1634  _itemIds */\n      0x02\n        /* \"contracts/TestMarketplace.sol\":1626:1644  _itemIds.increment */\n      tag_92\n        /* \"contracts/TestMarketplace.sol\":1626:1646  _itemIds.increment() */\n      jump\t// in\n    tag_91:\n        /* \"contracts/TestMarketplace.sol\":1652:1666  uint256 itemId */\n      0x00\n        /* \"contracts/TestMarketplace.sol\":1669:1687  _itemIds.current() */\n      tag_93\n        /* \"contracts/TestMarketplace.sol\":1669:1677  _itemIds */\n      0x02\n        /* \"contracts/TestMarketplace.sol\":1669:1685  _itemIds.current */\n      tag_94\n        /* \"contracts/TestMarketplace.sol\":1669:1687  _itemIds.current() */\n      jump\t// in\n    tag_93:\n        /* \"contracts/TestMarketplace.sol\":1652:1687  uint256 itemId = _itemIds.current() */\n      swap1\n      pop\n        /* \"contracts/TestMarketplace.sol\":1722:1854  MarketItem(... */\n      mload(0x40)\n      dup1\n      0x0100\n      add\n      0x40\n      mstore\n      dup1\n        /* \"contracts/TestMarketplace.sol\":1740:1746  itemId */\n      dup3\n        /* \"contracts/TestMarketplace.sol\":1722:1854  MarketItem(... */\n      dup2\n      mstore\n      0x20\n      add\n        /* \"contracts/TestMarketplace.sol\":1754:1761  tokenId */\n      dup5\n        /* \"contracts/TestMarketplace.sol\":1722:1854  MarketItem(... */\n      dup2\n      mstore\n      0x20\n      add\n        /* \"contracts/TestMarketplace.sol\":1769:1779  msg.sender */\n      caller\n        /* \"contracts/TestMarketplace.sol\":1722:1854  MarketItem(... */\n      0xffffffffffffffffffffffffffffffffffffffff\n      and\n      dup2\n      mstore\n      0x20\n      add\n        /* \"contracts/TestMarketplace.sol\":1795:1796  0 */\n      0x00\n        /* \"contracts/TestMarketplace.sol\":1722:1854  MarketItem(... */\n      0xffffffffffffffffffffffffffffffffffffffff\n      and\n      dup2\n      mstore\n      0x20\n      add\n        /* \"contracts/TestMarketplace.sol\":1805:1810  price */\n      dup4\n        /* \"contracts/TestMarketplace.sol\":1722:1854  MarketItem(... */\n      dup2\n      mstore\n      0x20\n      add\n        /* \"contracts/TestMarketplace.sol\":1818:1823  false */\n      0x00\n        /* \"contracts/TestMarketplace.sol\":1722:1854  MarketItem(... */\n      iszero\n      iszero\n      dup2\n      mstore\n      0x20\n      add\n        /* \"contracts/TestMarketplace.sol\":1831:1836  false */\n      0x00\n        /* \"contracts/TestMarketplace.sol\":1722:1854  MarketItem(... */\n      iszero\n      iszero\n      dup2\n      mstore\n      0x20\n      add\n        /* \"contracts/TestMarketplace.sol\":1844:1848  true */\n      0x01\n        /* \"contracts/TestMarketplace.sol\":1722:1854  MarketItem(... */\n      iszero\n      iszero\n      dup2\n      mstore\n      pop\n        /* \"contracts/TestMarketplace.sol\":1696:1710  idToMarketItem */\n      0x08\n        /* \"contracts/TestMarketplace.sol\":1696:1718  idToMarketItem[itemId] */\n      0x00\n        /* \"contracts/TestMarketplace.sol\":1711:1717  itemId */\n      dup4\n        /* \"contracts/TestMarketplace.sol\":1696:1718  idToMarketItem[itemId] */\n      dup2\n      mstore\n      0x20\n      add\n      swap1\n      dup2\n      mstore\n      0x20\n      add\n      0x00\n      keccak256\n        /* \"contracts/TestMarketplace.sol\":1696:1854  idToMarketItem[itemId] =  MarketItem(... */\n      0x00\n      dup3\n      add\n      mload\n      dup2\n      0x00\n      add\n      sstore\n      0x20\n      dup3\n      add\n      mload\n      dup2\n      0x01\n      add\n      sstore\n      0x40\n      dup3\n      add\n      mload\n      dup2\n      0x02\n      add\n      exp(0x0100, 0x00)\n      dup2\n      sload\n      dup2\n      0xffffffffffffffffffffffffffffffffffffffff\n      mul\n      not\n      and\n      swap1\n      dup4\n      0xffffffffffffffffffffffffffffffffffffffff\n      and\n      mul\n      or\n      swap1\n      sstore\n      pop\n      0x60\n      dup3\n      add\n      mload\n      dup2\n      0x03\n      add\n      exp(0x0100, 0x00)\n      dup2\n      sload\n      dup2\n      0xffffffffffffffffffffffffffffffffffffffff\n      mul\n      not\n      and\n      swap1\n      dup4\n      0xffffffffffffffffffffffffffffffffffffffff\n      and\n      mul\n      or\n      swap1\n      sstore\n      pop\n      0x80\n      dup3\n      add\n      mload\n      dup2\n      0x04\n      add\n      sstore\n      0xa0\n      dup3\n      add\n      mload\n      dup2\n      0x05\n      add\n      exp(0x0100, 0x00)\n      dup2\n      sload\n      dup2\n      0xff\n      mul\n      not\n      and\n      swap1\n      dup4\n      iszero\n      iszero\n      mul\n      or\n      swap1\n      sstore\n      pop\n      0xc0\n      dup3\n      add\n      mload\n      dup2\n      0x05\n      add\n      exp(0x0100, 0x01)\n      dup2\n      sload\n      dup2\n      0xff\n      mul\n      not\n      and\n      swap1\n      dup4\n      iszero\n      iszero\n      mul\n      or\n      swap1\n      sstore\n      pop\n      0xe0\n      dup3\n      add\n      mload\n      dup2\n      0x05\n      add\n      exp(0x0100, 0x02)\n      dup2\n      sload\n      dup2\n      0xff\n      mul\n      not\n      and\n      swap1\n      dup4\n      iszero\n      iszero\n      mul\n      or\n      swap1\n      sstore\n      pop\n      swap1\n      pop\n      pop\n        /* \"contracts/TestMarketplace.sol\":1868:1888  acceptedTokenAddress */\n      0x06\n      0x00\n      swap1\n      sload\n      swap1\n      0x0100\n      exp\n      swap1\n      div\n      0xffffffffffffffffffffffffffffffffffffffff\n      and\n        /* \"contracts/TestMarketplace.sol\":1861:1902  IERC20(acceptedTokenAddress).transferFrom */\n      0xffffffffffffffffffffffffffffffffffffffff\n      and\n      0x23b872dd\n        /* \"contracts/TestMarketplace.sol\":1903:1913  msg.sender */\n      caller\n        /* \"contracts/TestMarketplace.sol\":1923:1927  this */\n      address\n        /* \"contracts/TestMarketplace.sol\":1930:1942  listingPrice */\n      sload(0x07)\n        /* \"contracts/TestMarketplace.sol\":1861:1943  IERC20(acceptedTokenAddress).transferFrom(msg.sender, address(this), listingPrice) */\n      mload(0x40)\n      dup5\n      0xffffffff\n      and\n      0xe0\n      shl\n      dup2\n      mstore\n      0x04\n      add\n      tag_95\n      swap4\n      swap3\n      swap2\n      swap1\n      tag_96\n      jump\t// in\n    tag_95:\n      0x20\n      mload(0x40)\n      dup1\n      dup4\n      sub\n      dup2\n      0x00\n      dup8\n      dup1\n      extcodesize\n      iszero\n      dup1\n      iszero\n      tag_97\n      jumpi\n      0x00\n      dup1\n      revert\n    tag_97:\n      pop\n      gas\n      call\n      iszero\n      dup1\n      iszero\n      tag_99\n      jumpi\n      returndatasize\n      0x00\n      dup1\n      returndatacopy\n      revert(0x00, returndatasize)\n    tag_99:\n      pop\n      pop\n      pop\n      pop\n      mload(0x40)\n      returndatasize\n      not(0x1f)\n      0x1f\n      dup3\n      add\n      and\n      dup3\n      add\n      dup1\n      0x40\n      mstore\n      pop\n      dup2\n      add\n      swap1\n      tag_100\n      swap2\n      swap1\n      tag_101\n      jump\t// in\n    tag_100:\n      pop\n        /* \"contracts/TestMarketplace.sol\":1957:1968  nftContract */\n      0x05\n      0x00\n      swap1\n      sload\n      swap1\n      0x0100\n      exp\n      swap1\n      div\n      0xffffffffffffffffffffffffffffffffffffffff\n      and\n        /* \"contracts/TestMarketplace.sol\":1949:1986  IERC721(nftContract).safeTransferFrom */\n      0xffffffffffffffffffffffffffffffffffffffff\n      and\n      0x42842e0e\n        /* \"contracts/TestMarketplace.sol\":1987:1997  msg.sender */\n      caller\n        /* \"contracts/TestMarketplace.sol\":2007:2011  this */\n      address\n        /* \"contracts/TestMarketplace.sol\":2014:2021  tokenId */\n      dup7\n        /* \"contracts/TestMarketplace.sol\":1949:2022  IERC721(nftContract).safeTransferFrom(msg.sender, address(this), tokenId) */\n      mload(0x40)\n      dup5\n      0xffffffff\n      and\n      0xe0\n      shl\n      dup2\n      mstore\n      0x04\n      add\n      tag_102\n      swap4\n      swap3\n      swap2\n      swap1\n      tag_96\n      jump\t// in\n    tag_102:\n      0x00\n      mload(0x40)\n      dup1\n      dup4\n      sub\n      dup2\n      0x00\n      dup8\n      dup1\n      extcodesize\n      iszero\n      dup1\n      iszero\n      tag_103\n      jumpi\n      0x00\n      dup1\n      revert\n    tag_103:\n      pop\n      gas\n      call\n      iszero\n      dup1\n      iszero\n      tag_105\n      jumpi\n      returndatasize\n      0x00\n      dup1\n      returndatacopy\n      revert(0x00, returndatasize)\n    tag_105:\n      pop\n      pop\n      pop\n      pop\n        /* \"contracts/TestMarketplace.sol\":2049:2061  listingPrice */\n      sload(0x07)\n        /* \"contracts/TestMarketplace.sol\":2029:2045  _amountCollected */\n      0x04\n      0x00\n        /* \"contracts/TestMarketplace.sol\":2029:2061  _amountCollected += listingPrice */\n      dup3\n      dup3\n      sload\n      tag_106\n      swap2\n      swap1\n      tag_107\n      jump\t// in\n    tag_106:\n      swap3\n      pop\n      pop\n      dup2\n      swap1\n      sstore\n      pop\n        /* \"contracts/TestMarketplace.sol\":2112:2119  tokenId */\n      dup3\n        /* \"contracts/TestMarketplace.sol\":2098:2104  itemId */\n      dup2\n        /* \"contracts/TestMarketplace.sol\":2073:2174  MarketItemCreated(... */\n      0x38690a554ffbc44eb6a75016e47d517d0db8e6c37494adc68d6d0b2c66f0ab21\n        /* \"contracts/TestMarketplace.sol\":2127:2137  msg.sender */\n      caller\n        /* \"contracts/TestMarketplace.sol\":2153:2154  0 */\n      0x00\n        /* \"contracts/TestMarketplace.sol\":2163:2168  price */\n      dup7\n        /* \"contracts/TestMarketplace.sol\":2073:2174  MarketItemCreated(... */\n      mload(0x40)\n      tag_108\n      swap4\n      swap3\n      swap2\n      swap1\n      tag_96\n      jump\t// in\n    tag_108:\n      mload(0x40)\n      dup1\n      swap2\n      sub\n      swap1\n      log3\n        /* \"contracts/TestMarketplace.sol\":1477:2179  {... */\n      pop\n        /* \"@openzeppelin/contracts/security/ReentrancyGuard.sol\":1701:1702  1 */\n      0x01\n        /* \"@openzeppelin/contracts/security/ReentrancyGuard.sol\":2628:2635  _status */\n      dup1\n        /* \"@openzeppelin/contracts/security/ReentrancyGuard.sol\":2628:2650  _status = _NOT_ENTERED */\n      dup2\n      swap1\n      sstore\n      pop\n        /* \"contracts/TestMarketplace.sol\":1378:2179  function addItemToMarket(... */\n      pop\n      pop\n      jump\t// out\n        /* \"contracts/TestMarketplace.sol\":2637:3441  function buyItem(... */\n    tag_37:\n        /* \"@openzeppelin/contracts/security/ReentrancyGuard.sol\":1744:1745  2 */\n      0x02\n        /* \"@openzeppelin/contracts/security/ReentrancyGuard.sol\":2325:2332  _status */\n      sload(0x01)\n        /* \"@openzeppelin/contracts/security/ReentrancyGuard.sol\":2325:2344  _status != _ENTERED */\n      eq\n      iszero\n        /* \"@openzeppelin/contracts/security/ReentrancyGuard.sol\":2317:2380  require(_status != _ENTERED, \"ReentrancyGuard: reentrant call\") */\n      tag_110\n      jumpi\n      mload(0x40)\n      0x08c379a000000000000000000000000000000000000000000000000000000000\n      dup2\n      mstore\n      0x04\n      add\n      tag_111\n      swap1\n      tag_78\n      jump\t// in\n    tag_111:\n      mload(0x40)\n      dup1\n      swap2\n      sub\n      swap1\n      revert\n    tag_110:\n        /* \"@openzeppelin/contracts/security/ReentrancyGuard.sol\":1744:1745  2 */\n      0x02\n        /* \"@openzeppelin/contracts/security/ReentrancyGuard.sol\":2455:2462  _status */\n      0x01\n        /* \"@openzeppelin/contracts/security/ReentrancyGuard.sol\":2455:2473  _status = _ENTERED */\n      dup2\n      swap1\n      sstore\n      pop\n        /* \"contracts/TestMarketplace.sol\":2729:2739  uint price */\n      0x00\n        /* \"contracts/TestMarketplace.sol\":2742:2756  idToMarketItem */\n      0x08\n        /* \"contracts/TestMarketplace.sol\":2742:2764  idToMarketItem[itemId] */\n      0x00\n        /* \"contracts/TestMarketplace.sol\":2757:2763  itemId */\n      dup5\n        /* \"contracts/TestMarketplace.sol\":2742:2764  idToMarketItem[itemId] */\n      dup2\n      mstore\n      0x20\n      add\n      swap1\n      dup2\n      mstore\n      0x20\n      add\n      0x00\n      keccak256\n        /* \"contracts/TestMarketplace.sol\":2742:2770  idToMarketItem[itemId].price */\n      0x04\n      add\n      sload\n        /* \"contracts/TestMarketplace.sol\":2729:2770  uint price = idToMarketItem[itemId].price */\n      swap1\n      pop\n        /* \"contracts/TestMarketplace.sol\":2776:2788  uint tokenId */\n      0x00\n        /* \"contracts/TestMarketplace.sol\":2791:2805  idToMarketItem */\n      0x08\n        /* \"contracts/TestMarketplace.sol\":2791:2813  idToMarketItem[itemId] */\n      0x00\n        /* \"contracts/TestMarketplace.sol\":2806:2812  itemId */\n      dup6\n        /* \"contracts/TestMarketplace.sol\":2791:2813  idToMarketItem[itemId] */\n      dup2\n      mstore\n      0x20\n      add\n      swap1\n      dup2\n      mstore\n      0x20\n      add\n      0x00\n      keccak256\n        /* \"contracts/TestMarketplace.sol\":2791:2821  idToMarketItem[itemId].tokenId */\n      0x01\n      add\n      sload\n        /* \"contracts/TestMarketplace.sol\":2776:2821  uint tokenId = idToMarketItem[itemId].tokenId */\n      swap1\n      pop\n        /* \"contracts/TestMarketplace.sol\":2827:2843  bool isUpForSale */\n      0x00\n        /* \"contracts/TestMarketplace.sol\":2846:2860  idToMarketItem */\n      0x08\n        /* \"contracts/TestMarketplace.sol\":2846:2868  idToMarketItem[itemId] */\n      0x00\n        /* \"contracts/TestMarketplace.sol\":2861:2867  itemId */\n      dup7\n        /* \"contracts/TestMarketplace.sol\":2846:2868  idToMarketItem[itemId] */\n      dup2\n      mstore\n      0x20\n      add\n      swap1\n      dup2\n      mstore\n      0x20\n      add\n      0x00\n      keccak256\n        /* \"contracts/TestMarketplace.sol\":2846:2880  idToMarketItem[itemId].isUpForSale */\n      0x05\n      add\n      0x01\n      swap1\n      sload\n      swap1\n      0x0100\n      exp\n      swap1\n      div\n      0xff\n      and\n        /* \"contracts/TestMarketplace.sol\":2827:2880  bool isUpForSale = idToMarketItem[itemId].isUpForSale */\n      swap1\n      pop\n        /* \"contracts/TestMarketplace.sol\":2907:2912  price */\n      dup3\n        /* \"contracts/TestMarketplace.sol\":2894:2903  itemPrice */\n      dup5\n        /* \"contracts/TestMarketplace.sol\":2894:2912  itemPrice >= price */\n      lt\n      iszero\n        /* \"contracts/TestMarketplace.sol\":2886:2944  require(itemPrice >= price, \"Asking Price not satisfied!\") */\n      tag_113\n      jumpi\n      mload(0x40)\n      0x08c379a000000000000000000000000000000000000000000000000000000000\n      dup2\n      mstore\n      0x04\n      add\n      tag_114\n      swap1\n      tag_115\n      jump\t// in\n    tag_114:\n      mload(0x40)\n      dup1\n      swap2\n      sub\n      swap1\n      revert\n    tag_113:\n        /* \"contracts/TestMarketplace.sol\":2973:2977  true */\n      0x01\n        /* \"contracts/TestMarketplace.sol\":2958:2977  isUpForSale == true */\n      iszero\n      iszero\n        /* \"contracts/TestMarketplace.sol\":2958:2969  isUpForSale */\n      dup2\n        /* \"contracts/TestMarketplace.sol\":2958:2977  isUpForSale == true */\n      iszero\n      iszero\n      eq\n        /* \"contracts/TestMarketplace.sol\":2950:2999  require(isUpForSale == true, \"NFT not for sale.\") */\n      tag_116\n      jumpi\n      mload(0x40)\n      0x08c379a000000000000000000000000000000000000000000000000000000000\n      dup2\n      mstore\n      0x04\n      add\n      tag_117\n      swap1\n      tag_118\n      jump\t// in\n    tag_117:\n      mload(0x40)\n      dup1\n      swap2\n      sub\n      swap1\n      revert\n    tag_116:\n        /* \"contracts/TestMarketplace.sol\":3006:3024  address prevSeller */\n      0x00\n        /* \"contracts/TestMarketplace.sol\":3027:3041  idToMarketItem */\n      0x08\n        /* \"contracts/TestMarketplace.sol\":3027:3049  idToMarketItem[itemId] */\n      0x00\n        /* \"contracts/TestMarketplace.sol\":3042:3048  itemId */\n      dup8\n        /* \"contracts/TestMarketplace.sol\":3027:3049  idToMarketItem[itemId] */\n      dup2\n      mstore\n      0x20\n      add\n      swap1\n      dup2\n      mstore\n      0x20\n      add\n      0x00\n      keccak256\n        /* \"contracts/TestMarketplace.sol\":3027:3056  idToMarketItem[itemId].seller */\n      0x02\n      add\n      0x00\n      swap1\n      sload\n      swap1\n      0x0100\n      exp\n      swap1\n      div\n      0xffffffffffffffffffffffffffffffffffffffff\n      and\n        /* \"contracts/TestMarketplace.sol\":3006:3056  address prevSeller = idToMarketItem[itemId].seller */\n      swap1\n      pop\n        /* \"contracts/TestMarketplace.sol\":3094:3104  msg.sender */\n      caller\n        /* \"contracts/TestMarketplace.sol\":3063:3077  idToMarketItem */\n      0x08\n        /* \"contracts/TestMarketplace.sol\":3063:3085  idToMarketItem[itemId] */\n      0x00\n        /* \"contracts/TestMarketplace.sol\":3078:3084  itemId */\n      dup9\n        /* \"contracts/TestMarketplace.sol\":3063:3085  idToMarketItem[itemId] */\n      dup2\n      mstore\n      0x20\n      add\n      swap1\n      dup2\n      mstore\n      0x20\n      add\n      0x00\n      keccak256\n        /* \"contracts/TestMarketplace.sol\":3063:3091  idToMarketItem[itemId].owner */\n      0x03\n      add\n      0x00\n        /* \"contracts/TestMarketplace.sol\":3063:3104  idToMarketItem[itemId].owner = msg.sender */\n      0x0100\n      exp\n      dup2\n      sload\n      dup2\n      0xffffffffffffffffffffffffffffffffffffffff\n      mul\n      not\n      and\n      swap1\n      dup4\n      0xffffffffffffffffffffffffffffffffffffffff\n      and\n      mul\n      or\n      swap1\n      sstore\n      pop\n        /* \"contracts/TestMarketplace.sol\":3142:3152  msg.sender */\n      caller\n        /* \"contracts/TestMarketplace.sol\":3110:3124  idToMarketItem */\n      0x08\n        /* \"contracts/TestMarketplace.sol\":3110:3132  idToMarketItem[itemId] */\n      0x00\n        /* \"contracts/TestMarketplace.sol\":3125:3131  itemId */\n      dup9\n        /* \"contracts/TestMarketplace.sol\":3110:3132  idToMarketItem[itemId] */\n      dup2\n      mstore\n      0x20\n      add\n      swap1\n      dup2\n      mstore\n      0x20\n      add\n      0x00\n      keccak256\n        /* \"contracts/TestMarketplace.sol\":3110:3139  idToMarketItem[itemId].seller */\n      0x02\n      add\n      0x00\n        /* \"contracts/TestMarketplace.sol\":3110:3152  idToMarketItem[itemId].seller = msg.sender */\n      0x0100\n      exp\n      dup2\n      sload\n      dup2\n      0xffffffffffffffffffffffffffffffffffffffff\n      mul\n      not\n      and\n      swap1\n      dup4\n      0xffffffffffffffffffffffffffffffffffffffff\n      and\n      mul\n      or\n      swap1\n      sstore\n      pop\n        /* \"contracts/TestMarketplace.sol\":3190:3194  true */\n      0x01\n        /* \"contracts/TestMarketplace.sol\":3158:3172  idToMarketItem */\n      0x08\n        /* \"contracts/TestMarketplace.sol\":3158:3180  idToMarketItem[itemId] */\n      0x00\n        /* \"contracts/TestMarketplace.sol\":3173:3179  itemId */\n      dup9\n        /* \"contracts/TestMarketplace.sol\":3158:3180  idToMarketItem[itemId] */\n      dup2\n      mstore\n      0x20\n      add\n      swap1\n      dup2\n      mstore\n      0x20\n      add\n      0x00\n      keccak256\n        /* \"contracts/TestMarketplace.sol\":3158:3187  idToMarketItem[itemId].isSold */\n      0x05\n      add\n      0x00\n        /* \"contracts/TestMarketplace.sol\":3158:3194  idToMarketItem[itemId].isSold = true */\n      0x0100\n      exp\n      dup2\n      sload\n      dup2\n      0xff\n      mul\n      not\n      and\n      swap1\n      dup4\n      iszero\n      iszero\n      mul\n      or\n      swap1\n      sstore\n      pop\n        /* \"contracts/TestMarketplace.sol\":3237:3242  false */\n      0x00\n        /* \"contracts/TestMarketplace.sol\":3200:3214  idToMarketItem */\n      0x08\n        /* \"contracts/TestMarketplace.sol\":3200:3222  idToMarketItem[itemId] */\n      0x00\n        /* \"contracts/TestMarketplace.sol\":3215:3221  itemId */\n      dup9\n        /* \"contracts/TestMarketplace.sol\":3200:3222  idToMarketItem[itemId] */\n      dup2\n      mstore\n      0x20\n      add\n      swap1\n      dup2\n      mstore\n      0x20\n      add\n      0x00\n      keccak256\n        /* \"contracts/TestMarketplace.sol\":3200:3234  idToMarketItem[itemId].isUpForSale */\n      0x05\n      add\n      0x01\n        /* \"contracts/TestMarketplace.sol\":3200:3242  idToMarketItem[itemId].isUpForSale = false */\n      0x0100\n      exp\n      dup2\n      sload\n      dup2\n      0xff\n      mul\n      not\n      and\n      swap1\n      dup4\n      iszero\n      iszero\n      mul\n      or\n      swap1\n      sstore\n      pop\n        /* \"contracts/TestMarketplace.sol\":3257:3268  nftContract */\n      0x05\n      0x00\n      swap1\n      sload\n      swap1\n      0x0100\n      exp\n      swap1\n      div\n      0xffffffffffffffffffffffffffffffffffffffff\n      and\n        /* \"contracts/TestMarketplace.sol\":3249:3282  IERC721(nftContract).transferFrom */\n      0xffffffffffffffffffffffffffffffffffffffff\n      and\n      0x23b872dd\n        /* \"contracts/TestMarketplace.sol\":3283:3293  prevSeller */\n      dup3\n        /* \"contracts/TestMarketplace.sol\":3295:3305  msg.sender */\n      caller\n        /* \"contracts/TestMarketplace.sol\":3307:3314  tokenId */\n      dup7\n        /* \"contracts/TestMarketplace.sol\":3249:3315  IERC721(nftContract).transferFrom(prevSeller, msg.sender, tokenId) */\n      mload(0x40)\n      dup5\n      0xffffffff\n      and\n      0xe0\n      shl\n      dup2\n      mstore\n      0x04\n      add\n      tag_119\n      swap4\n      swap3\n      swap2\n      swap1\n      tag_96\n      jump\t// in\n    tag_119:\n      0x00\n      mload(0x40)\n      dup1\n      dup4\n      sub\n      dup2\n      0x00\n      dup8\n      dup1\n      extcodesize\n      iszero\n      dup1\n      iszero\n      tag_120\n      jumpi\n      0x00\n      dup1\n      revert\n    tag_120:\n      pop\n      gas\n      call\n      iszero\n      dup1\n      iszero\n      tag_122\n      jumpi\n      returndatasize\n      0x00\n      dup1\n      returndatacopy\n      revert(0x00, returndatasize)\n    tag_122:\n      pop\n      pop\n      pop\n      pop\n        /* \"contracts/TestMarketplace.sol\":3333:3353  acceptedTokenAddress */\n      0x06\n      0x00\n      swap1\n      sload\n      swap1\n      0x0100\n      exp\n      swap1\n      div\n      0xffffffffffffffffffffffffffffffffffffffff\n      and\n        /* \"contracts/TestMarketplace.sol\":3326:3367  IERC20(acceptedTokenAddress).transferFrom */\n      0xffffffffffffffffffffffffffffffffffffffff\n      and\n      0x23b872dd\n        /* \"contracts/TestMarketplace.sol\":3368:3378  msg.sender */\n      caller\n        /* \"contracts/TestMarketplace.sol\":3380:3390  prevSeller */\n      dup4\n        /* \"contracts/TestMarketplace.sol\":3392:3401  itemPrice */\n      dup9\n        /* \"contracts/TestMarketplace.sol\":3326:3402  IERC20(acceptedTokenAddress).transferFrom(msg.sender, prevSeller, itemPrice) */\n      mload(0x40)\n      dup5\n      0xffffffff\n      and\n      0xe0\n      shl\n      dup2\n      mstore\n      0x04\n      add\n      tag_123\n      swap4\n      swap3\n      swap2\n      swap1\n      tag_96\n      jump\t// in\n    tag_123:\n      0x20\n      mload(0x40)\n      dup1\n      dup4\n      sub\n      dup2\n      0x00\n      dup8\n      dup1\n      extcodesize\n      iszero\n      dup1\n      iszero\n      tag_124\n      jumpi\n      0x00\n      dup1\n      revert\n    tag_124:\n      pop\n      gas\n      call\n      iszero\n      dup1\n      iszero\n      tag_126\n      jumpi\n      returndatasize\n      0x00\n      dup1\n      returndatacopy\n      revert(0x00, returndatasize)\n    tag_126:\n      pop\n      pop\n      pop\n      pop\n      mload(0x40)\n      returndatasize\n      not(0x1f)\n      0x1f\n      dup3\n      add\n      and\n      dup3\n      add\n      dup1\n      0x40\n      mstore\n      pop\n      dup2\n      add\n      swap1\n      tag_127\n      swap2\n      swap1\n      tag_101\n      jump\t// in\n    tag_127:\n      pop\n        /* \"contracts/TestMarketplace.sol\":3413:3435  _itemsSold.increment() */\n      tag_128\n        /* \"contracts/TestMarketplace.sol\":3413:3423  _itemsSold */\n      0x03\n        /* \"contracts/TestMarketplace.sol\":3413:3433  _itemsSold.increment */\n      tag_92\n        /* \"contracts/TestMarketplace.sol\":3413:3435  _itemsSold.increment() */\n      jump\t// in\n    tag_128:\n        /* \"contracts/TestMarketplace.sol\":2723:3441  {... */\n      pop\n      pop\n      pop\n      pop\n        /* \"@openzeppelin/contracts/security/ReentrancyGuard.sol\":1701:1702  1 */\n      0x01\n        /* \"@openzeppelin/contracts/security/ReentrancyGuard.sol\":2628:2635  _status */\n      dup1\n        /* \"@openzeppelin/contracts/security/ReentrancyGuard.sol\":2628:2650  _status = _NOT_ENTERED */\n      dup2\n      swap1\n      sstore\n      pop\n        /* \"contracts/TestMarketplace.sol\":2637:3441  function buyItem(... */\n      pop\n      pop\n      jump\t// out\n        /* \"contracts/TestMarketplace.sol\":3619:4189  function getUnsoldItems() public view returns (MarketItem[] memory) {... */\n    tag_39:\n        /* \"contracts/TestMarketplace.sol\":3666:3685  MarketItem[] memory */\n      0x60\n        /* \"contracts/TestMarketplace.sol\":3693:3707  uint itemCount */\n      0x00\n        /* \"contracts/TestMarketplace.sol\":3710:3728  _itemIds.current() */\n      tag_130\n        /* \"contracts/TestMarketplace.sol\":3710:3718  _itemIds */\n      0x02\n        /* \"contracts/TestMarketplace.sol\":3710:3726  _itemIds.current */\n      tag_94\n        /* \"contracts/TestMarketplace.sol\":3710:3728  _itemIds.current() */\n      jump\t// in\n    tag_130:\n        /* \"contracts/TestMarketplace.sol\":3693:3728  uint itemCount = _itemIds.current() */\n      swap1\n      pop\n        /* \"contracts/TestMarketplace.sol\":3734:3754  uint unsoldItemCount */\n      0x00\n        /* \"contracts/TestMarketplace.sol\":3778:3798  _itemsSold.current() */\n      tag_131\n        /* \"contracts/TestMarketplace.sol\":3778:3788  _itemsSold */\n      0x03\n        /* \"contracts/TestMarketplace.sol\":3778:3796  _itemsSold.current */\n      tag_94\n        /* \"contracts/TestMarketplace.sol\":3778:3798  _itemsSold.current() */\n      jump\t// in\n    tag_131:\n        /* \"contracts/TestMarketplace.sol\":3757:3775  _itemIds.current() */\n      tag_132\n        /* \"contracts/TestMarketplace.sol\":3757:3765  _itemIds */\n      0x02\n        /* \"contracts/TestMarketplace.sol\":3757:3773  _itemIds.current */\n      tag_94\n        /* \"contracts/TestMarketplace.sol\":3757:3775  _itemIds.current() */\n      jump\t// in\n    tag_132:\n        /* \"contracts/TestMarketplace.sol\":3757:3798  _itemIds.current() - _itemsSold.current() */\n      tag_133\n      swap2\n      swap1\n      tag_134\n      jump\t// in\n    tag_133:\n        /* \"contracts/TestMarketplace.sol\":3734:3798  uint unsoldItemCount = _itemIds.current() - _itemsSold.current() */\n      swap1\n      pop\n        /* \"contracts/TestMarketplace.sol\":3804:3821  uint currentIndex */\n      0x00\n        /* \"contracts/TestMarketplace.sol\":3832:3857  MarketItem[] memory items */\n      dup1\n        /* \"contracts/TestMarketplace.sol\":3877:3892  unsoldItemCount */\n      dup3\n        /* \"contracts/TestMarketplace.sol\":3860:3893  new MarketItem[](unsoldItemCount) */\n      0xffffffffffffffff\n      dup2\n      gt\n      iszero\n      tag_135\n      jumpi\n      tag_136\n      tag_137\n      jump\t// in\n    tag_136:\n    tag_135:\n      mload(0x40)\n      swap1\n      dup1\n      dup3\n      mstore\n      dup1\n      0x20\n      mul\n      0x20\n      add\n      dup3\n      add\n      0x40\n      mstore\n      dup1\n      iszero\n      tag_138\n      jumpi\n      dup2\n      0x20\n      add\n    tag_139:\n      tag_140\n      tag_62\n      jump\t// in\n    tag_140:\n      dup2\n      mstore\n      0x20\n      add\n      swap1\n      0x01\n      swap1\n      sub\n      swap1\n      dup2\n      tag_139\n      jumpi\n      swap1\n      pop\n    tag_138:\n      pop\n        /* \"contracts/TestMarketplace.sol\":3832:3893  MarketItem[] memory items = new MarketItem[](unsoldItemCount) */\n      swap1\n      pop\n        /* \"contracts/TestMarketplace.sol\":3904:3910  uint i */\n      0x00\n        /* \"contracts/TestMarketplace.sol\":3899:4163  for (uint i = 0; i < itemCount; i++) {... */\n    tag_141:\n        /* \"contracts/TestMarketplace.sol\":3920:3929  itemCount */\n      dup5\n        /* \"contracts/TestMarketplace.sol\":3916:3917  i */\n      dup2\n        /* \"contracts/TestMarketplace.sol\":3916:3929  i < itemCount */\n      lt\n        /* \"contracts/TestMarketplace.sol\":3899:4163  for (uint i = 0; i < itemCount; i++) {... */\n      iszero\n      tag_142\n      jumpi\n        /* \"contracts/TestMarketplace.sol\":3949:3963  idToMarketItem */\n      0x08\n        /* \"contracts/TestMarketplace.sol\":3949:3970  idToMarketItem[i + 1] */\n      0x00\n        /* \"contracts/TestMarketplace.sol\":3968:3969  1 */\n      0x01\n        /* \"contracts/TestMarketplace.sol\":3964:3965  i */\n      dup4\n        /* \"contracts/TestMarketplace.sol\":3964:3969  i + 1 */\n      tag_144\n      swap2\n      swap1\n      tag_107\n      jump\t// in\n    tag_144:\n        /* \"contracts/TestMarketplace.sol\":3949:3970  idToMarketItem[i + 1] */\n      dup2\n      mstore\n      0x20\n      add\n      swap1\n      dup2\n      mstore\n      0x20\n      add\n      0x00\n      keccak256\n        /* \"contracts/TestMarketplace.sol\":3949:3977  idToMarketItem[i + 1].isSold */\n      0x05\n      add\n      0x00\n      swap1\n      sload\n      swap1\n      0x0100\n      exp\n      swap1\n      div\n      0xff\n      and\n        /* \"contracts/TestMarketplace.sol\":3944:4157  if (!idToMarketItem[i + 1].isSold) {... */\n      tag_145\n      jumpi\n        /* \"contracts/TestMarketplace.sol\":3989:4003  uint currentId */\n      0x00\n        /* \"contracts/TestMarketplace.sol\":4010:4011  1 */\n      0x01\n        /* \"contracts/TestMarketplace.sol\":4006:4007  i */\n      dup3\n        /* \"contracts/TestMarketplace.sol\":4006:4011  i + 1 */\n      tag_146\n      swap2\n      swap1\n      tag_107\n      jump\t// in\n    tag_146:\n        /* \"contracts/TestMarketplace.sol\":3989:4011  uint currentId = i + 1 */\n      swap1\n      pop\n        /* \"contracts/TestMarketplace.sol\":4021:4050  MarketItem memory currentItem */\n      0x00\n        /* \"contracts/TestMarketplace.sol\":4053:4067  idToMarketItem */\n      0x08\n        /* \"contracts/TestMarketplace.sol\":4053:4078  idToMarketItem[currentId] */\n      0x00\n        /* \"contracts/TestMarketplace.sol\":4068:4077  currentId */\n      dup4\n        /* \"contracts/TestMarketplace.sol\":4053:4078  idToMarketItem[currentId] */\n      dup2\n      mstore\n      0x20\n      add\n      swap1\n      dup2\n      mstore\n      0x20\n      add\n      0x00\n      keccak256\n        /* \"contracts/TestMarketplace.sol\":4021:4078  MarketItem memory currentItem = idToMarketItem[currentId] */\n      mload(0x40)\n      dup1\n      0x0100\n      add\n      0x40\n      mstore\n      swap1\n      dup2\n      0x00\n      dup3\n      add\n      sload\n      dup2\n      mstore\n      0x20\n      add\n      0x01\n      dup3\n      add\n      sload\n      dup2\n      mstore\n      0x20\n      add\n      0x02\n      dup3\n      add\n      0x00\n      swap1\n      sload\n      swap1\n      0x0100\n      exp\n      swap1\n      div\n      0xffffffffffffffffffffffffffffffffffffffff\n      and\n      0xffffffffffffffffffffffffffffffffffffffff\n      and\n      0xffffffffffffffffffffffffffffffffffffffff\n      and\n      dup2\n      mstore\n      0x20\n      add\n      0x03\n      dup3\n      add\n      0x00\n      swap1\n      sload\n      swap1\n      0x0100\n      exp\n      swap1\n      div\n      0xffffffffffffffffffffffffffffffffffffffff\n      and\n      0xffffffffffffffffffffffffffffffffffffffff\n      and\n      0xffffffffffffffffffffffffffffffffffffffff\n      and\n      dup2\n      mstore\n      0x20\n      add\n      0x04\n      dup3\n      add\n      sload\n      dup2\n      mstore\n      0x20\n      add\n      0x05\n      dup3\n      add\n      0x00\n      swap1\n      sload\n      swap1\n      0x0100\n      exp\n      swap1\n      div\n      0xff\n      and\n      iszero\n      iszero\n      iszero\n      iszero\n      dup2\n      mstore\n      0x20\n      add\n      0x05\n      dup3\n      add\n      0x01\n      swap1\n      sload\n      swap1\n      0x0100\n      exp\n      swap1\n      div\n      0xff\n      and\n      iszero\n      iszero\n      iszero\n      iszero\n      dup2\n      mstore\n      0x20\n      add\n      0x05\n      dup3\n      add\n      0x02\n      swap1\n      sload\n      swap1\n      0x0100\n      exp\n      swap1\n      div\n      0xff\n      and\n      iszero\n      iszero\n      iszero\n      iszero\n      dup2\n      mstore\n      pop\n      pop\n      swap1\n      pop\n        /* \"contracts/TestMarketplace.sol\":4110:4121  currentItem */\n      dup1\n        /* \"contracts/TestMarketplace.sol\":4088:4093  items */\n      dup5\n        /* \"contracts/TestMarketplace.sol\":4094:4106  currentIndex */\n      dup7\n        /* \"contracts/TestMarketplace.sol\":4088:4107  items[currentIndex] */\n      dup2\n      mload\n      dup2\n      lt\n      tag_147\n      jumpi\n      tag_148\n      tag_149\n      jump\t// in\n    tag_148:\n    tag_147:\n      0x20\n      mul\n      0x20\n      add\n      add\n        /* \"contracts/TestMarketplace.sol\":4088:4121  items[currentIndex] = currentItem */\n      dup2\n      swap1\n      mstore\n      pop\n        /* \"contracts/TestMarketplace.sol\":4147:4148  1 */\n      0x01\n        /* \"contracts/TestMarketplace.sol\":4131:4148  currentIndex += 1 */\n      dup6\n      tag_150\n      swap2\n      swap1\n      tag_107\n      jump\t// in\n    tag_150:\n      swap5\n      pop\n        /* \"contracts/TestMarketplace.sol\":3979:4157  {... */\n      pop\n      pop\n        /* \"contracts/TestMarketplace.sol\":3944:4157  if (!idToMarketItem[i + 1].isSold) {... */\n    tag_145:\n        /* \"contracts/TestMarketplace.sol\":3931:3934  i++ */\n      dup1\n      dup1\n      tag_151\n      swap1\n      tag_152\n      jump\t// in\n    tag_151:\n      swap2\n      pop\n      pop\n        /* \"contracts/TestMarketplace.sol\":3899:4163  for (uint i = 0; i < itemCount; i++) {... */\n      jump(tag_141)\n    tag_142:\n      pop\n        /* \"contracts/TestMarketplace.sol\":4179:4184  items */\n      dup1\n        /* \"contracts/TestMarketplace.sol\":4172:4184  return items */\n      swap5\n      pop\n      pop\n      pop\n      pop\n      pop\n        /* \"contracts/TestMarketplace.sol\":3619:4189  function getUnsoldItems() public view returns (MarketItem[] memory) {... */\n      swap1\n      jump\t// out\n        /* \"contracts/TestMarketplace.sol\":2185:2633  function createSale(... */\n    tag_44:\n        /* \"@openzeppelin/contracts/security/ReentrancyGuard.sol\":1744:1745  2 */\n      0x02\n        /* \"@openzeppelin/contracts/security/ReentrancyGuard.sol\":2325:2332  _status */\n      sload(0x01)\n        /* \"@openzeppelin/contracts/security/ReentrancyGuard.sol\":2325:2344  _status != _ENTERED */\n      eq\n      iszero\n        /* \"@openzeppelin/contracts/security/ReentrancyGuard.sol\":2317:2380  require(_status != _ENTERED, \"ReentrancyGuard: reentrant call\") */\n      tag_154\n      jumpi\n      mload(0x40)\n      0x08c379a000000000000000000000000000000000000000000000000000000000\n      dup2\n      mstore\n      0x04\n      add\n      tag_155\n      swap1\n      tag_78\n      jump\t// in\n    tag_155:\n      mload(0x40)\n      dup1\n      swap2\n      sub\n      swap1\n      revert\n    tag_154:\n        /* \"@openzeppelin/contracts/security/ReentrancyGuard.sol\":1744:1745  2 */\n      0x02\n        /* \"@openzeppelin/contracts/security/ReentrancyGuard.sol\":2455:2462  _status */\n      0x01\n        /* \"@openzeppelin/contracts/security/ReentrancyGuard.sol\":2455:2473  _status = _ENTERED */\n      dup2\n      swap1\n      sstore\n      pop\n        /* \"contracts/TestMarketplace.sol\":2260:2282  MarketItem memory item */\n      0x00\n        /* \"contracts/TestMarketplace.sol\":2285:2299  idToMarketItem */\n      0x08\n        /* \"contracts/TestMarketplace.sol\":2285:2307  idToMarketItem[itemId] */\n      0x00\n        /* \"contracts/TestMarketplace.sol\":2300:2306  itemId */\n      dup4\n        /* \"contracts/TestMarketplace.sol\":2285:2307  idToMarketItem[itemId] */\n      dup2\n      mstore\n      0x20\n      add\n      swap1\n      dup2\n      mstore\n      0x20\n      add\n      0x00\n      keccak256\n        /* \"contracts/TestMarketplace.sol\":2260:2307  MarketItem memory item = idToMarketItem[itemId] */\n      mload(0x40)\n      dup1\n      0x0100\n      add\n      0x40\n      mstore\n      swap1\n      dup2\n      0x00\n      dup3\n      add\n      sload\n      dup2\n      mstore\n      0x20\n      add\n      0x01\n      dup3\n      add\n      sload\n      dup2\n      mstore\n      0x20\n      add\n      0x02\n      dup3\n      add\n      0x00\n      swap1\n      sload\n      swap1\n      0x0100\n      exp\n      swap1\n      div\n      0xffffffffffffffffffffffffffffffffffffffff\n      and\n      0xffffffffffffffffffffffffffffffffffffffff\n      and\n      0xffffffffffffffffffffffffffffffffffffffff\n      and\n      dup2\n      mstore\n      0x20\n      add\n      0x03\n      dup3\n      add\n      0x00\n      swap1\n      sload\n      swap1\n      0x0100\n      exp\n      swap1\n      div\n      0xffffffffffffffffffffffffffffffffffffffff\n      and\n      0xffffffffffffffffffffffffffffffffffffffff\n      and\n      0xffffffffffffffffffffffffffffffffffffffff\n      and\n      dup2\n      mstore\n      0x20\n      add\n      0x04\n      dup3\n      add\n      sload\n      dup2\n      mstore\n      0x20\n      add\n      0x05\n      dup3\n      add\n      0x00\n      swap1\n      sload\n      swap1\n      0x0100\n      exp\n      swap1\n      div\n      0xff\n      and\n      iszero\n      iszero\n      iszero\n      iszero\n      dup2\n      mstore\n      0x20\n      add\n      0x05\n      dup3\n      add\n      0x01\n      swap1\n      sload\n      swap1\n      0x0100\n      exp\n      swap1\n      div\n      0xff\n      and\n      iszero\n      iszero\n      iszero\n      iszero\n      dup2\n      mstore\n      0x20\n      add\n      0x05\n      dup3\n      add\n      0x02\n      swap1\n      sload\n      swap1\n      0x0100\n      exp\n      swap1\n      div\n      0xff\n      and\n      iszero\n      iszero\n      iszero\n      iszero\n      dup2\n      mstore\n      pop\n      pop\n      swap1\n      pop\n        /* \"contracts/TestMarketplace.sol\":2340:2350  msg.sender */\n      caller\n        /* \"contracts/TestMarketplace.sol\":2326:2350  item.owner == msg.sender */\n      0xffffffffffffffffffffffffffffffffffffffff\n      and\n        /* \"contracts/TestMarketplace.sol\":2326:2330  item */\n      dup2\n        /* \"contracts/TestMarketplace.sol\":2326:2336  item.owner */\n      0x60\n      add\n      mload\n        /* \"contracts/TestMarketplace.sol\":2326:2350  item.owner == msg.sender */\n      0xffffffffffffffffffffffffffffffffffffffff\n      and\n      eq\n        /* \"contracts/TestMarketplace.sol\":2318:2387  require(item.owner == msg.sender, \"Only Item owner can create sale.\") */\n      tag_157\n      jumpi\n      mload(0x40)\n      0x08c379a000000000000000000000000000000000000000000000000000000000\n      dup2\n      mstore\n      0x04\n      add\n      tag_158\n      swap1\n      tag_159\n      jump\t// in\n    tag_158:\n      mload(0x40)\n      dup1\n      swap2\n      sub\n      swap1\n      revert\n    tag_157:\n        /* \"contracts/TestMarketplace.sol\":2416:2420  true */\n      0x01\n        /* \"contracts/TestMarketplace.sol\":2401:2420  item.exists == true */\n      iszero\n      iszero\n        /* \"contracts/TestMarketplace.sol\":2401:2405  item */\n      dup2\n        /* \"contracts/TestMarketplace.sol\":2401:2412  item.exists */\n      0xe0\n      add\n      mload\n        /* \"contracts/TestMarketplace.sol\":2401:2420  item.exists == true */\n      iszero\n      iszero\n      eq\n        /* \"contracts/TestMarketplace.sol\":2393:2445  require(item.exists == true, \"Item does not exist.\") */\n      tag_160\n      jumpi\n      mload(0x40)\n      0x08c379a000000000000000000000000000000000000000000000000000000000\n      dup2\n      mstore\n      0x04\n      add\n      tag_161\n      swap1\n      tag_162\n      jump\t// in\n    tag_161:\n      mload(0x40)\n      dup1\n      swap2\n      sub\n      swap1\n      revert\n    tag_160:\n        /* \"contracts/TestMarketplace.sol\":2493:2497  true */\n      0x01\n        /* \"contracts/TestMarketplace.sol\":2456:2470  idToMarketItem */\n      0x08\n        /* \"contracts/TestMarketplace.sol\":2456:2478  idToMarketItem[itemId] */\n      0x00\n        /* \"contracts/TestMarketplace.sol\":2471:2477  itemId */\n      dup5\n        /* \"contracts/TestMarketplace.sol\":2456:2478  idToMarketItem[itemId] */\n      dup2\n      mstore\n      0x20\n      add\n      swap1\n      dup2\n      mstore\n      0x20\n      add\n      0x00\n      keccak256\n        /* \"contracts/TestMarketplace.sol\":2456:2490  idToMarketItem[itemId].isUpForSale */\n      0x05\n      add\n      0x01\n        /* \"contracts/TestMarketplace.sol\":2456:2497  idToMarketItem[itemId].isUpForSale = true */\n      0x0100\n      exp\n      dup2\n      sload\n      dup2\n      0xff\n      mul\n      not\n      and\n      swap1\n      dup4\n      iszero\n      iszero\n      mul\n      or\n      swap1\n      sstore\n      pop\n        /* \"contracts/TestMarketplace.sol\":2555:2559  item */\n      dup1\n        /* \"contracts/TestMarketplace.sol\":2555:2567  item.tokenId */\n      0x20\n      add\n      mload\n        /* \"contracts/TestMarketplace.sol\":2541:2547  itemId */\n      dup3\n        /* \"contracts/TestMarketplace.sol\":2513:2628  MarketItemUpForSale (... */\n      0x0b59dfc56db79c6259bcd97a3fc890ab90008a8b5781d89dd763e01651bc7bc8\n        /* \"contracts/TestMarketplace.sol\":2575:2585  msg.sender */\n      caller\n        /* \"contracts/TestMarketplace.sol\":2593:2597  item */\n      dup5\n        /* \"contracts/TestMarketplace.sol\":2593:2604  item.seller */\n      0x40\n      add\n      mload\n        /* \"contracts/TestMarketplace.sol\":2612:2616  item */\n      dup6\n        /* \"contracts/TestMarketplace.sol\":2612:2622  item.price */\n      0x80\n      add\n      mload\n        /* \"contracts/TestMarketplace.sol\":2513:2628  MarketItemUpForSale (... */\n      mload(0x40)\n      tag_163\n      swap4\n      swap3\n      swap2\n      swap1\n      tag_96\n      jump\t// in\n    tag_163:\n      mload(0x40)\n      dup1\n      swap2\n      sub\n      swap1\n      log3\n        /* \"contracts/TestMarketplace.sol\":2249:2633  {... */\n      pop\n        /* \"@openzeppelin/contracts/security/ReentrancyGuard.sol\":1701:1702  1 */\n      0x01\n        /* \"@openzeppelin/contracts/security/ReentrancyGuard.sol\":2628:2635  _status */\n      dup1\n        /* \"@openzeppelin/contracts/security/ReentrancyGuard.sol\":2628:2650  _status = _NOT_ENTERED */\n      dup2\n      swap1\n      sstore\n      pop\n        /* \"contracts/TestMarketplace.sol\":2185:2633  function createSale(... */\n      pop\n      jump\t// out\n        /* \"contracts/TestMarketplace.sol\":650:689  uint256 public listingPrice = 0.1 ether */\n    tag_46:\n      sload(0x07)\n      dup2\n      jump\t// out\n        /* \"contracts/TestMarketplace.sol\":581:607  address public nftContract */\n    tag_50:\n      0x05\n      0x00\n      swap1\n      sload\n      swap1\n      0x0100\n      exp\n      swap1\n      div\n      0xffffffffffffffffffffffffffffffffffffffff\n      and\n      dup2\n      jump\t// out\n        /* \"contracts/TestMarketplace.sol\":873:925  mapping(uint256 => MarketItem) public idToMarketItem */\n    tag_54:\n      mstore(0x20, 0x08)\n      dup1\n      0x00\n      mstore\n      keccak256(0x00, 0x40)\n      0x00\n      swap2\n      pop\n      swap1\n      pop\n      dup1\n      0x00\n      add\n      sload\n      swap1\n      dup1\n      0x01\n      add\n      sload\n      swap1\n      dup1\n      0x02\n      add\n      0x00\n      swap1\n      sload\n      swap1\n      0x0100\n      exp\n      swap1\n      div\n      0xffffffffffffffffffffffffffffffffffffffff\n      and\n      swap1\n      dup1\n      0x03\n      add\n      0x00\n      swap1\n      sload\n      swap1\n      0x0100\n      exp\n      swap1\n      div\n      0xffffffffffffffffffffffffffffffffffffffff\n      and\n      swap1\n      dup1\n      0x04\n      add\n      sload\n      swap1\n      dup1\n      0x05\n      add\n      0x00\n      swap1\n      sload\n      swap1\n      0x0100\n      exp\n      swap1\n      div\n      0xff\n      and\n      swap1\n      dup1\n      0x05\n      add\n      0x01\n      swap1\n      sload\n      swap1\n      0x0100\n      exp\n      swap1\n      div\n      0xff\n      and\n      swap1\n      dup1\n      0x05\n      add\n      0x02\n      swap1\n      sload\n      swap1\n      0x0100\n      exp\n      swap1\n      div\n      0xff\n      and\n      swap1\n      pop\n      dup9\n      jump\t// out\n        /* \"@openzeppelin/contracts/access/Ownable.sol\":1918:2116  function transferOwnership(address newOwner) public virtual onlyOwner {... */\n    tag_60:\n        /* \"@openzeppelin/contracts/access/Ownable.sol\":1259:1271  _msgSender() */\n      tag_165\n        /* \"@openzeppelin/contracts/access/Ownable.sol\":1259:1269  _msgSender */\n      tag_66\n        /* \"@openzeppelin/contracts/access/Ownable.sol\":1259:1271  _msgSender() */\n      jump\t// in\n    tag_165:\n        /* \"@openzeppelin/contracts/access/Ownable.sol\":1248:1271  owner() == _msgSender() */\n      0xffffffffffffffffffffffffffffffffffffffff\n      and\n        /* \"@openzeppelin/contracts/access/Ownable.sol\":1248:1255  owner() */\n      tag_166\n        /* \"@openzeppelin/contracts/access/Ownable.sol\":1248:1253  owner */\n      tag_29\n        /* \"@openzeppelin/contracts/access/Ownable.sol\":1248:1255  owner() */\n      jump\t// in\n    tag_166:\n        /* \"@openzeppelin/contracts/access/Ownable.sol\":1248:1271  owner() == _msgSender() */\n      0xffffffffffffffffffffffffffffffffffffffff\n      and\n      eq\n        /* \"@openzeppelin/contracts/access/Ownable.sol\":1240:1308  require(owner() == _msgSender(), \"Ownable: caller is not the owner\") */\n      tag_167\n      jumpi\n      mload(0x40)\n      0x08c379a000000000000000000000000000000000000000000000000000000000\n      dup2\n      mstore\n      0x04\n      add\n      tag_168\n      swap1\n      tag_70\n      jump\t// in\n    tag_168:\n      mload(0x40)\n      dup1\n      swap2\n      sub\n      swap1\n      revert\n    tag_167:\n        /* \"@openzeppelin/contracts/access/Ownable.sol\":2026:2027  0 */\n      0x00\n        /* \"@openzeppelin/contracts/access/Ownable.sol\":2006:2028  newOwner != address(0) */\n      0xffffffffffffffffffffffffffffffffffffffff\n      and\n        /* \"@openzeppelin/contracts/access/Ownable.sol\":2006:2014  newOwner */\n      dup2\n        /* \"@openzeppelin/contracts/access/Ownable.sol\":2006:2028  newOwner != address(0) */\n      0xffffffffffffffffffffffffffffffffffffffff\n      and\n      eq\n      iszero\n        /* \"@openzeppelin/contracts/access/Ownable.sol\":1998:2071  require(newOwner != address(0), \"Ownable: new owner is the zero address\") */\n      tag_170\n      jumpi\n      mload(0x40)\n      0x08c379a000000000000000000000000000000000000000000000000000000000\n      dup2\n      mstore\n      0x04\n      add\n      tag_171\n      swap1\n      tag_172\n      jump\t// in\n    tag_171:\n      mload(0x40)\n      dup1\n      swap2\n      sub\n      swap1\n      revert\n    tag_170:\n        /* \"@openzeppelin/contracts/access/Ownable.sol\":2081:2109  _transferOwnership(newOwner) */\n      tag_173\n        /* \"@openzeppelin/contracts/access/Ownable.sol\":2100:2108  newOwner */\n      dup2\n        /* \"@openzeppelin/contracts/access/Ownable.sol\":2081:2099  _transferOwnership */\n      tag_73\n        /* \"@openzeppelin/contracts/access/Ownable.sol\":2081:2109  _transferOwnership(newOwner) */\n      jump\t// in\n    tag_173:\n        /* \"@openzeppelin/contracts/access/Ownable.sol\":1918:2116  function transferOwnership(address newOwner) public virtual onlyOwner {... */\n      pop\n      jump\t// out\n        /* \"@openzeppelin/contracts/utils/Context.sol\":640:736  function _msgSender() internal view virtual returns (address) {... */\n    tag_66:\n        /* \"@openzeppelin/contracts/utils/Context.sol\":693:700  address */\n      0x00\n        /* \"@openzeppelin/contracts/utils/Context.sol\":719:729  msg.sender */\n      caller\n        /* \"@openzeppelin/contracts/utils/Context.sol\":712:729  return msg.sender */\n      swap1\n      pop\n        /* \"@openzeppelin/contracts/utils/Context.sol\":640:736  function _msgSender() internal view virtual returns (address) {... */\n      swap1\n      jump\t// out\n        /* \"@openzeppelin/contracts/access/Ownable.sol\":2270:2457  function _transferOwnership(address newOwner) internal virtual {... */\n    tag_73:\n        /* \"@openzeppelin/contracts/access/Ownable.sol\":2343:2359  address oldOwner */\n      0x00\n        /* \"@openzeppelin/contracts/access/Ownable.sol\":2362:2368  _owner */\n      dup1\n      0x00\n      swap1\n      sload\n      swap1\n      0x0100\n      exp\n      swap1\n      div\n      0xffffffffffffffffffffffffffffffffffffffff\n      and\n        /* \"@openzeppelin/contracts/access/Ownable.sol\":2343:2368  address oldOwner = _owner */\n      swap1\n      pop\n        /* \"@openzeppelin/contracts/access/Ownable.sol\":2387:2395  newOwner */\n      dup2\n        /* \"@openzeppelin/contracts/access/Ownable.sol\":2378:2384  _owner */\n      0x00\n      dup1\n        /* \"@openzeppelin/contracts/access/Ownable.sol\":2378:2395  _owner = newOwner */\n      0x0100\n      exp\n      dup2\n      sload\n      dup2\n      0xffffffffffffffffffffffffffffffffffffffff\n      mul\n      not\n      and\n      swap1\n      dup4\n      0xffffffffffffffffffffffffffffffffffffffff\n      and\n      mul\n      or\n      swap1\n      sstore\n      pop\n        /* \"@openzeppelin/contracts/access/Ownable.sol\":2441:2449  newOwner */\n      dup2\n        /* \"@openzeppelin/contracts/access/Ownable.sol\":2410:2450  OwnershipTransferred(oldOwner, newOwner) */\n      0xffffffffffffffffffffffffffffffffffffffff\n      and\n        /* \"@openzeppelin/contracts/access/Ownable.sol\":2431:2439  oldOwner */\n      dup2\n        /* \"@openzeppelin/contracts/access/Ownable.sol\":2410:2450  OwnershipTransferred(oldOwner, newOwner) */\n      0xffffffffffffffffffffffffffffffffffffffff\n      and\n      0x8be0079c531659141344cd1fd0a4f28419497f9722a3daafe3b4186f6b6457e0\n      mload(0x40)\n      mload(0x40)\n      dup1\n      swap2\n      sub\n      swap1\n      log3\n        /* \"@openzeppelin/contracts/access/Ownable.sol\":2333:2457  {... */\n      pop\n        /* \"@openzeppelin/contracts/access/Ownable.sol\":2270:2457  function _transferOwnership(address newOwner) internal virtual {... */\n      pop\n      jump\t// out\n        /* \"@openzeppelin/contracts/utils/Counters.sol\":945:1068  function increment(Counter storage counter) internal {... */\n    tag_92:\n        /* \"@openzeppelin/contracts/utils/Counters.sol\":1050:1051  1 */\n      0x01\n        /* \"@openzeppelin/contracts/utils/Counters.sol\":1032:1039  counter */\n      dup2\n        /* \"@openzeppelin/contracts/utils/Counters.sol\":1032:1046  counter._value */\n      0x00\n      add\n      0x00\n        /* \"@openzeppelin/contracts/utils/Counters.sol\":1032:1051  counter._value += 1 */\n      dup3\n      dup3\n      sload\n      add\n      swap3\n      pop\n      pop\n      dup2\n      swap1\n      sstore\n      pop\n        /* \"@openzeppelin/contracts/utils/Counters.sol\":945:1068  function increment(Counter storage counter) internal {... */\n      pop\n      jump\t// out\n        /* \"@openzeppelin/contracts/utils/Counters.sol\":827:939  function current(Counter storage counter) internal view returns (uint256) {... */\n    tag_94:\n        /* \"@openzeppelin/contracts/utils/Counters.sol\":892:899  uint256 */\n      0x00\n        /* \"@openzeppelin/contracts/utils/Counters.sol\":918:925  counter */\n      dup2\n        /* \"@openzeppelin/contracts/utils/Counters.sol\":918:932  counter._value */\n      0x00\n      add\n      sload\n        /* \"@openzeppelin/contracts/utils/Counters.sol\":911:932  return counter._value */\n      swap1\n      pop\n        /* \"@openzeppelin/contracts/utils/Counters.sol\":827:939  function current(Counter storage counter) internal view returns (uint256) {... */\n      swap2\n      swap1\n      pop\n      jump\t// out\n    tag_62:\n      mload(0x40)\n      dup1\n      0x0100\n      add\n      0x40\n      mstore\n      dup1\n      0x00\n      dup2\n      mstore\n      0x20\n      add\n      0x00\n      dup2\n      mstore\n      0x20\n      add\n      and(0xffffffffffffffffffffffffffffffffffffffff, 0x00)\n      dup2\n      mstore\n      0x20\n      add\n      and(0xffffffffffffffffffffffffffffffffffffffff, 0x00)\n      dup2\n      mstore\n      0x20\n      add\n      0x00\n      dup2\n      mstore\n      0x20\n      add\n      iszero(iszero(0x00))\n      dup2\n      mstore\n      0x20\n      add\n      iszero(iszero(0x00))\n      dup2\n      mstore\n      0x20\n      add\n      iszero(iszero(0x00))\n      dup2\n      mstore\n      pop\n      swap1\n      jump\t// out\n        /* \"#utility.yul\":7:146   */\n    tag_179:\n        /* \"#utility.yul\":53:58   */\n      0x00\n        /* \"#utility.yul\":91:97   */\n      dup2\n        /* \"#utility.yul\":78:98   */\n      calldataload\n        /* \"#utility.yul\":69:98   */\n      swap1\n      pop\n        /* \"#utility.yul\":107:140   */\n      tag_181\n        /* \"#utility.yul\":134:139   */\n      dup2\n        /* \"#utility.yul\":107:140   */\n      tag_182\n      jump\t// in\n    tag_181:\n        /* \"#utility.yul\":7:146   */\n      swap3\n      swap2\n      pop\n      pop\n      jump\t// out\n        /* \"#utility.yul\":152:289   */\n    tag_183:\n        /* \"#utility.yul\":206:211   */\n      0x00\n        /* \"#utility.yul\":237:243   */\n      dup2\n        /* \"#utility.yul\":231:244   */\n      mload\n        /* \"#utility.yul\":222:244   */\n      swap1\n      pop\n        /* \"#utility.yul\":253:283   */\n      tag_185\n        /* \"#utility.yul\":277:282   */\n      dup2\n        /* \"#utility.yul\":253:283   */\n      tag_186\n      jump\t// in\n    tag_185:\n        /* \"#utility.yul\":152:289   */\n      swap3\n      swap2\n      pop\n      pop\n      jump\t// out\n        /* \"#utility.yul\":295:434   */\n    tag_187:\n        /* \"#utility.yul\":341:346   */\n      0x00\n        /* \"#utility.yul\":379:385   */\n      dup2\n        /* \"#utility.yul\":366:386   */\n      calldataload\n        /* \"#utility.yul\":357:386   */\n      swap1\n      pop\n        /* \"#utility.yul\":395:428   */\n      tag_189\n        /* \"#utility.yul\":422:427   */\n      dup2\n        /* \"#utility.yul\":395:428   */\n      tag_190\n      jump\t// in\n    tag_189:\n        /* \"#utility.yul\":295:434   */\n      swap3\n      swap2\n      pop\n      pop\n      jump\t// out\n        /* \"#utility.yul\":440:769   */\n    tag_59:\n        /* \"#utility.yul\":499:505   */\n      0x00\n        /* \"#utility.yul\":548:550   */\n      0x20\n        /* \"#utility.yul\":536:545   */\n      dup3\n        /* \"#utility.yul\":527:534   */\n      dup5\n        /* \"#utility.yul\":523:546   */\n      sub\n        /* \"#utility.yul\":519:551   */\n      slt\n        /* \"#utility.yul\":516:635   */\n      iszero\n      tag_192\n      jumpi\n        /* \"#utility.yul\":554:633   */\n      tag_193\n      tag_194\n      jump\t// in\n    tag_193:\n        /* \"#utility.yul\":516:635   */\n    tag_192:\n        /* \"#utility.yul\":674:675   */\n      0x00\n        /* \"#utility.yul\":699:752   */\n      tag_195\n        /* \"#utility.yul\":744:751   */\n      dup5\n        /* \"#utility.yul\":735:741   */\n      dup3\n        /* \"#utility.yul\":724:733   */\n      dup6\n        /* \"#utility.yul\":720:742   */\n      add\n        /* \"#utility.yul\":699:752   */\n      tag_179\n      jump\t// in\n    tag_195:\n        /* \"#utility.yul\":689:752   */\n      swap2\n      pop\n        /* \"#utility.yul\":645:762   */\n      pop\n        /* \"#utility.yul\":440:769   */\n      swap3\n      swap2\n      pop\n      pop\n      jump\t// out\n        /* \"#utility.yul\":775:1120   */\n    tag_101:\n        /* \"#utility.yul\":842:848   */\n      0x00\n        /* \"#utility.yul\":891:893   */\n      0x20\n        /* \"#utility.yul\":879:888   */\n      dup3\n        /* \"#utility.yul\":870:877   */\n      dup5\n        /* \"#utility.yul\":866:889   */\n      sub\n        /* \"#utility.yul\":862:894   */\n      slt\n        /* \"#utility.yul\":859:978   */\n      iszero\n      tag_197\n      jumpi\n        /* \"#utility.yul\":897:976   */\n      tag_198\n      tag_194\n      jump\t// in\n    tag_198:\n        /* \"#utility.yul\":859:978   */\n    tag_197:\n        /* \"#utility.yul\":1017:1018   */\n      0x00\n        /* \"#utility.yul\":1042:1103   */\n      tag_199\n        /* \"#utility.yul\":1095:1102   */\n      dup5\n        /* \"#utility.yul\":1086:1092   */\n      dup3\n        /* \"#utility.yul\":1075:1084   */\n      dup6\n        /* \"#utility.yul\":1071:1093   */\n      add\n        /* \"#utility.yul\":1042:1103   */\n      tag_183\n      jump\t// in\n    tag_199:\n        /* \"#utility.yul\":1032:1103   */\n      swap2\n      pop\n        /* \"#utility.yul\":988:1113   */\n      pop\n        /* \"#utility.yul\":775:1120   */\n      swap3\n      swap2\n      pop\n      pop\n      jump\t// out\n        /* \"#utility.yul\":1126:1455   */\n    tag_18:\n        /* \"#utility.yul\":1185:1191   */\n      0x00\n        /* \"#utility.yul\":1234:1236   */\n      0x20\n        /* \"#utility.yul\":1222:1231   */\n      dup3\n        /* \"#utility.yul\":1213:1220   */\n      dup5\n        /* \"#utility.yul\":1209:1232   */\n      sub\n        /* \"#utility.yul\":1205:1237   */\n      slt\n        /* \"#utility.yul\":1202:1321   */\n      iszero\n      tag_201\n      jumpi\n        /* \"#utility.yul\":1240:1319   */\n      tag_202\n      tag_194\n      jump\t// in\n    tag_202:\n        /* \"#utility.yul\":1202:1321   */\n    tag_201:\n        /* \"#utility.yul\":1360:1361   */\n      0x00\n        /* \"#utility.yul\":1385:1438   */\n      tag_203\n        /* \"#utility.yul\":1430:1437   */\n      dup5\n        /* \"#utility.yul\":1421:1427   */\n      dup3\n        /* \"#utility.yul\":1410:1419   */\n      dup6\n        /* \"#utility.yul\":1406:1428   */\n      add\n        /* \"#utility.yul\":1385:1438   */\n      tag_187\n      jump\t// in\n    tag_203:\n        /* \"#utility.yul\":1375:1438   */\n      swap2\n      pop\n        /* \"#utility.yul\":1331:1448   */\n      pop\n        /* \"#utility.yul\":1126:1455   */\n      swap3\n      swap2\n      pop\n      pop\n      jump\t// out\n        /* \"#utility.yul\":1461:1935   */\n    tag_33:\n        /* \"#utility.yul\":1529:1535   */\n      0x00\n        /* \"#utility.yul\":1537:1543   */\n      dup1\n        /* \"#utility.yul\":1586:1588   */\n      0x40\n        /* \"#utility.yul\":1574:1583   */\n      dup4\n        /* \"#utility.yul\":1565:1572   */\n      dup6\n        /* \"#utility.yul\":1561:1584   */\n      sub\n        /* \"#utility.yul\":1557:1589   */\n      slt\n        /* \"#utility.yul\":1554:1673   */\n      iszero\n      tag_205\n      jumpi\n        /* \"#utility.yul\":1592:1671   */\n      tag_206\n      tag_194\n      jump\t// in\n    tag_206:\n        /* \"#utility.yul\":1554:1673   */\n    tag_205:\n        /* \"#utility.yul\":1712:1713   */\n      0x00\n        /* \"#utility.yul\":1737:1790   */\n      tag_207\n        /* \"#utility.yul\":1782:1789   */\n      dup6\n        /* \"#utility.yul\":1773:1779   */\n      dup3\n        /* \"#utility.yul\":1762:1771   */\n      dup7\n        /* \"#utility.yul\":1758:1780   */\n      add\n        /* \"#utility.yul\":1737:1790   */\n      tag_187\n      jump\t// in\n    tag_207:\n        /* \"#utility.yul\":1727:1790   */\n      swap3\n      pop\n        /* \"#utility.yul\":1683:1800   */\n      pop\n        /* \"#utility.yul\":1839:1841   */\n      0x20\n        /* \"#utility.yul\":1865:1918   */\n      tag_208\n        /* \"#utility.yul\":1910:1917   */\n      dup6\n        /* \"#utility.yul\":1901:1907   */\n      dup3\n        /* \"#utility.yul\":1890:1899   */\n      dup7\n        /* \"#utility.yul\":1886:1908   */\n      add\n        /* \"#utility.yul\":1865:1918   */\n      tag_187\n      jump\t// in\n    tag_208:\n        /* \"#utility.yul\":1855:1918   */\n      swap2\n      pop\n        /* \"#utility.yul\":1810:1928   */\n      pop\n        /* \"#utility.yul\":1461:1935   */\n      swap3\n      pop\n      swap3\n      swap1\n      pop\n      jump\t// out\n        /* \"#utility.yul\":1941:2230   */\n    tag_209:\n        /* \"#utility.yul\":2064:2074   */\n      0x00\n        /* \"#utility.yul\":2085:2185   */\n      tag_211\n        /* \"#utility.yul\":2181:2184   */\n      dup4\n        /* \"#utility.yul\":2173:2179   */\n      dup4\n        /* \"#utility.yul\":2085:2185   */\n      tag_212\n      jump\t// in\n    tag_211:\n        /* \"#utility.yul\":2217:2223   */\n      0x0100\n        /* \"#utility.yul\":2212:2215   */\n      dup4\n        /* \"#utility.yul\":2208:2224   */\n      add\n        /* \"#utility.yul\":2194:2224   */\n      swap1\n      pop\n        /* \"#utility.yul\":1941:2230   */\n      swap3\n      swap2\n      pop\n      pop\n      jump\t// out\n        /* \"#utility.yul\":2236:2344   */\n    tag_213:\n        /* \"#utility.yul\":2313:2337   */\n      tag_215\n        /* \"#utility.yul\":2331:2336   */\n      dup2\n        /* \"#utility.yul\":2313:2337   */\n      tag_216\n      jump\t// in\n    tag_215:\n        /* \"#utility.yul\":2308:2311   */\n      dup3\n        /* \"#utility.yul\":2301:2338   */\n      mstore\n        /* \"#utility.yul\":2236:2344   */\n      pop\n      pop\n      jump\t// out\n        /* \"#utility.yul\":2350:2468   */\n    tag_217:\n        /* \"#utility.yul\":2437:2461   */\n      tag_219\n        /* \"#utility.yul\":2455:2460   */\n      dup2\n        /* \"#utility.yul\":2437:2461   */\n      tag_216\n      jump\t// in\n    tag_219:\n        /* \"#utility.yul\":2432:2435   */\n      dup3\n        /* \"#utility.yul\":2425:2462   */\n      mstore\n        /* \"#utility.yul\":2350:2468   */\n      pop\n      pop\n      jump\t// out\n        /* \"#utility.yul\":2556:3504   */\n    tag_220:\n        /* \"#utility.yul\":2729:2732   */\n      0x00\n        /* \"#utility.yul\":2758:2839   */\n      tag_222\n        /* \"#utility.yul\":2833:2838   */\n      dup3\n        /* \"#utility.yul\":2758:2839   */\n      tag_223\n      jump\t// in\n    tag_222:\n        /* \"#utility.yul\":2855:2968   */\n      tag_224\n        /* \"#utility.yul\":2961:2967   */\n      dup2\n        /* \"#utility.yul\":2956:2959   */\n      dup6\n        /* \"#utility.yul\":2855:2968   */\n      tag_225\n      jump\t// in\n    tag_224:\n        /* \"#utility.yul\":2848:2968   */\n      swap4\n      pop\n        /* \"#utility.yul\":2992:3075   */\n      tag_226\n        /* \"#utility.yul\":3069:3074   */\n      dup4\n        /* \"#utility.yul\":2992:3075   */\n      tag_227\n      jump\t// in\n    tag_226:\n        /* \"#utility.yul\":3098:3105   */\n      dup1\n        /* \"#utility.yul\":3129:3130   */\n      0x00\n        /* \"#utility.yul\":3114:3479   */\n    tag_228:\n        /* \"#utility.yul\":3139:3145   */\n      dup4\n        /* \"#utility.yul\":3136:3137   */\n      dup2\n        /* \"#utility.yul\":3133:3146   */\n      lt\n        /* \"#utility.yul\":3114:3479   */\n      iszero\n      tag_230\n      jumpi\n        /* \"#utility.yul\":3215:3221   */\n      dup2\n        /* \"#utility.yul\":3209:3222   */\n      mload\n        /* \"#utility.yul\":3242:3359   */\n      tag_231\n        /* \"#utility.yul\":3355:3358   */\n      dup9\n        /* \"#utility.yul\":3340:3353   */\n      dup3\n        /* \"#utility.yul\":3242:3359   */\n      tag_209\n      jump\t// in\n    tag_231:\n        /* \"#utility.yul\":3235:3359   */\n      swap8\n      pop\n        /* \"#utility.yul\":3382:3469   */\n      tag_232\n        /* \"#utility.yul\":3462:3468   */\n      dup4\n        /* \"#utility.yul\":3382:3469   */\n      tag_233\n      jump\t// in\n    tag_232:\n        /* \"#utility.yul\":3372:3469   */\n      swap3\n      pop\n        /* \"#utility.yul\":3174:3479   */\n      pop\n        /* \"#utility.yul\":3161:3162   */\n      0x01\n        /* \"#utility.yul\":3158:3159   */\n      dup2\n        /* \"#utility.yul\":3154:3163   */\n      add\n        /* \"#utility.yul\":3149:3163   */\n      swap1\n      pop\n        /* \"#utility.yul\":3114:3479   */\n      jump(tag_228)\n    tag_230:\n        /* \"#utility.yul\":3118:3132   */\n      pop\n        /* \"#utility.yul\":3495:3498   */\n      dup6\n        /* \"#utility.yul\":3488:3498   */\n      swap4\n      pop\n        /* \"#utility.yul\":2734:3504   */\n      pop\n      pop\n      pop\n        /* \"#utility.yul\":2556:3504   */\n      swap3\n      swap2\n      pop\n      pop\n      jump\t// out\n        /* \"#utility.yul\":3510:3609   */\n    tag_234:\n        /* \"#utility.yul\":3581:3602   */\n      tag_236\n        /* \"#utility.yul\":3596:3601   */\n      dup2\n        /* \"#utility.yul\":3581:3602   */\n      tag_237\n      jump\t// in\n    tag_236:\n        /* \"#utility.yul\":3576:3579   */\n      dup3\n        /* \"#utility.yul\":3569:3603   */\n      mstore\n        /* \"#utility.yul\":3510:3609   */\n      pop\n      pop\n      jump\t// out\n        /* \"#utility.yul\":3615:3724   */\n    tag_238:\n        /* \"#utility.yul\":3696:3717   */\n      tag_240\n        /* \"#utility.yul\":3711:3716   */\n      dup2\n        /* \"#utility.yul\":3696:3717   */\n      tag_237\n      jump\t// in\n    tag_240:\n        /* \"#utility.yul\":3691:3694   */\n      dup3\n        /* \"#utility.yul\":3684:3718   */\n      mstore\n        /* \"#utility.yul\":3615:3724   */\n      pop\n      pop\n      jump\t// out\n        /* \"#utility.yul\":3730:4096   */\n    tag_241:\n        /* \"#utility.yul\":3872:3875   */\n      0x00\n        /* \"#utility.yul\":3893:3960   */\n      tag_243\n        /* \"#utility.yul\":3957:3959   */\n      0x1b\n        /* \"#utility.yul\":3952:3955   */\n      dup4\n        /* \"#utility.yul\":3893:3960   */\n      tag_244\n      jump\t// in\n    tag_243:\n        /* \"#utility.yul\":3886:3960   */\n      swap2\n      pop\n        /* \"#utility.yul\":3969:4062   */\n      tag_245\n        /* \"#utility.yul\":4058:4061   */\n      dup3\n        /* \"#utility.yul\":3969:4062   */\n      tag_246\n      jump\t// in\n    tag_245:\n        /* \"#utility.yul\":4087:4089   */\n      0x20\n        /* \"#utility.yul\":4082:4085   */\n      dup3\n        /* \"#utility.yul\":4078:4090   */\n      add\n        /* \"#utility.yul\":4071:4090   */\n      swap1\n      pop\n        /* \"#utility.yul\":3730:4096   */\n      swap2\n      swap1\n      pop\n      jump\t// out\n        /* \"#utility.yul\":4102:4468   */\n    tag_247:\n        /* \"#utility.yul\":4244:4247   */\n      0x00\n        /* \"#utility.yul\":4265:4332   */\n      tag_249\n        /* \"#utility.yul\":4329:4331   */\n      0x2e\n        /* \"#utility.yul\":4324:4327   */\n      dup4\n        /* \"#utility.yul\":4265:4332   */\n      tag_244\n      jump\t// in\n    tag_249:\n        /* \"#utility.yul\":4258:4332   */\n      swap2\n      pop\n        /* \"#utility.yul\":4341:4434   */\n      tag_250\n        /* \"#utility.yul\":4430:4433   */\n      dup3\n        /* \"#utility.yul\":4341:4434   */\n      tag_251\n      jump\t// in\n    tag_250:\n        /* \"#utility.yul\":4459:4461   */\n      0x40\n        /* \"#utility.yul\":4454:4457   */\n      dup3\n        /* \"#utility.yul\":4450:4462   */\n      add\n        /* \"#utility.yul\":4443:4462   */\n      swap1\n      pop\n        /* \"#utility.yul\":4102:4468   */\n      swap2\n      swap1\n      pop\n      jump\t// out\n        /* \"#utility.yul\":4474:4840   */\n    tag_252:\n        /* \"#utility.yul\":4616:4619   */\n      0x00\n        /* \"#utility.yul\":4637:4704   */\n      tag_254\n        /* \"#utility.yul\":4701:4703   */\n      0x26\n        /* \"#utility.yul\":4696:4699   */\n      dup4\n        /* \"#utility.yul\":4637:4704   */\n      tag_244\n      jump\t// in\n    tag_254:\n        /* \"#utility.yul\":4630:4704   */\n      swap2\n      pop\n        /* \"#utility.yul\":4713:4806   */\n      tag_255\n        /* \"#utility.yul\":4802:4805   */\n      dup3\n        /* \"#utility.yul\":4713:4806   */\n      tag_256\n      jump\t// in\n    tag_255:\n        /* \"#utility.yul\":4831:4833   */\n      0x40\n        /* \"#utility.yul\":4826:4829   */\n      dup3\n        /* \"#utility.yul\":4822:4834   */\n      add\n        /* \"#utility.yul\":4815:4834   */\n      swap1\n      pop\n        /* \"#utility.yul\":4474:4840   */\n      swap2\n      swap1\n      pop\n      jump\t// out\n        /* \"#utility.yul\":4846:5212   */\n    tag_257:\n        /* \"#utility.yul\":4988:4991   */\n      0x00\n        /* \"#utility.yul\":5009:5076   */\n      tag_259\n        /* \"#utility.yul\":5073:5075   */\n      0x11\n        /* \"#utility.yul\":5068:5071   */\n      dup4\n        /* \"#utility.yul\":5009:5076   */\n      tag_244\n      jump\t// in\n    tag_259:\n        /* \"#utility.yul\":5002:5076   */\n      swap2\n      pop\n        /* \"#utility.yul\":5085:5178   */\n      tag_260\n        /* \"#utility.yul\":5174:5177   */\n      dup3\n        /* \"#utility.yul\":5085:5178   */\n      tag_261\n      jump\t// in\n    tag_260:\n        /* \"#utility.yul\":5203:5205   */\n      0x20\n        /* \"#utility.yul\":5198:5201   */\n      dup3\n        /* \"#utility.yul\":5194:5206   */\n      add\n        /* \"#utility.yul\":5187:5206   */\n      swap1\n      pop\n        /* \"#utility.yul\":4846:5212   */\n      swap2\n      swap1\n      pop\n      jump\t// out\n        /* \"#utility.yul\":5218:5584   */\n    tag_262:\n        /* \"#utility.yul\":5360:5363   */\n      0x00\n        /* \"#utility.yul\":5381:5448   */\n      tag_264\n        /* \"#utility.yul\":5445:5447   */\n      0x20\n        /* \"#utility.yul\":5440:5443   */\n      dup4\n        /* \"#utility.yul\":5381:5448   */\n      tag_244\n      jump\t// in\n    tag_264:\n        /* \"#utility.yul\":5374:5448   */\n      swap2\n      pop\n        /* \"#utility.yul\":5457:5550   */\n      tag_265\n        /* \"#utility.yul\":5546:5549   */\n      dup3\n        /* \"#utility.yul\":5457:5550   */\n      tag_266\n      jump\t// in\n    tag_265:\n        /* \"#utility.yul\":5575:5577   */\n      0x20\n        /* \"#utility.yul\":5570:5573   */\n      dup3\n        /* \"#utility.yul\":5566:5578   */\n      add\n        /* \"#utility.yul\":5559:5578   */\n      swap1\n      pop\n        /* \"#utility.yul\":5218:5584   */\n      swap2\n      swap1\n      pop\n      jump\t// out\n        /* \"#utility.yul\":5590:5956   */\n    tag_267:\n        /* \"#utility.yul\":5732:5735   */\n      0x00\n        /* \"#utility.yul\":5753:5820   */\n      tag_269\n        /* \"#utility.yul\":5817:5819   */\n      0x20\n        /* \"#utility.yul\":5812:5815   */\n      dup4\n        /* \"#utility.yul\":5753:5820   */\n      tag_244\n      jump\t// in\n    tag_269:\n        /* \"#utility.yul\":5746:5820   */\n      swap2\n      pop\n        /* \"#utility.yul\":5829:5922   */\n      tag_270\n        /* \"#utility.yul\":5918:5921   */\n      dup3\n        /* \"#utility.yul\":5829:5922   */\n      tag_271\n      jump\t// in\n    tag_270:\n        /* \"#utility.yul\":5947:5949   */\n      0x20\n        /* \"#utility.yul\":5942:5945   */\n      dup3\n        /* \"#utility.yul\":5938:5950   */\n      add\n        /* \"#utility.yul\":5931:5950   */\n      swap1\n      pop\n        /* \"#utility.yul\":5590:5956   */\n      swap2\n      swap1\n      pop\n      jump\t// out\n        /* \"#utility.yul\":5962:6328   */\n    tag_272:\n        /* \"#utility.yul\":6104:6107   */\n      0x00\n        /* \"#utility.yul\":6125:6192   */\n      tag_274\n        /* \"#utility.yul\":6189:6191   */\n      0x14\n        /* \"#utility.yul\":6184:6187   */\n      dup4\n        /* \"#utility.yul\":6125:6192   */\n      tag_244\n      jump\t// in\n    tag_274:\n        /* \"#utility.yul\":6118:6192   */\n      swap2\n      pop\n        /* \"#utility.yul\":6201:6294   */\n      tag_275\n        /* \"#utility.yul\":6290:6293   */\n      dup3\n        /* \"#utility.yul\":6201:6294   */\n      tag_276\n      jump\t// in\n    tag_275:\n        /* \"#utility.yul\":6319:6321   */\n      0x20\n        /* \"#utility.yul\":6314:6317   */\n      dup3\n        /* \"#utility.yul\":6310:6322   */\n      add\n        /* \"#utility.yul\":6303:6322   */\n      swap1\n      pop\n        /* \"#utility.yul\":5962:6328   */\n      swap2\n      swap1\n      pop\n      jump\t// out\n        /* \"#utility.yul\":6334:6700   */\n    tag_277:\n        /* \"#utility.yul\":6476:6479   */\n      0x00\n        /* \"#utility.yul\":6497:6564   */\n      tag_279\n        /* \"#utility.yul\":6561:6563   */\n      0x1f\n        /* \"#utility.yul\":6556:6559   */\n      dup4\n        /* \"#utility.yul\":6497:6564   */\n      tag_244\n      jump\t// in\n    tag_279:\n        /* \"#utility.yul\":6490:6564   */\n      swap2\n      pop\n        /* \"#utility.yul\":6573:6666   */\n      tag_280\n        /* \"#utility.yul\":6662:6665   */\n      dup3\n        /* \"#utility.yul\":6573:6666   */\n      tag_281\n      jump\t// in\n    tag_280:\n        /* \"#utility.yul\":6691:6693   */\n      0x20\n        /* \"#utility.yul\":6686:6689   */\n      dup3\n        /* \"#utility.yul\":6682:6694   */\n      add\n        /* \"#utility.yul\":6675:6694   */\n      swap1\n      pop\n        /* \"#utility.yul\":6334:6700   */\n      swap2\n      swap1\n      pop\n      jump\t// out\n        /* \"#utility.yul\":6706:7072   */\n    tag_282:\n        /* \"#utility.yul\":6848:6851   */\n      0x00\n        /* \"#utility.yul\":6869:6936   */\n      tag_284\n        /* \"#utility.yul\":6933:6935   */\n      0x1c\n        /* \"#utility.yul\":6928:6931   */\n      dup4\n        /* \"#utility.yul\":6869:6936   */\n      tag_244\n      jump\t// in\n    tag_284:\n        /* \"#utility.yul\":6862:6936   */\n      swap2\n      pop\n        /* \"#utility.yul\":6945:7038   */\n      tag_285\n        /* \"#utility.yul\":7034:7037   */\n      dup3\n        /* \"#utility.yul\":6945:7038   */\n      tag_286\n      jump\t// in\n    tag_285:\n        /* \"#utility.yul\":7063:7065   */\n      0x20\n        /* \"#utility.yul\":7058:7061   */\n      dup3\n        /* \"#utility.yul\":7054:7066   */\n      add\n        /* \"#utility.yul\":7047:7066   */\n      swap1\n      pop\n        /* \"#utility.yul\":6706:7072   */\n      swap2\n      swap1\n      pop\n      jump\t// out\n        /* \"#utility.yul\":7156:8705   */\n    tag_212:\n        /* \"#utility.yul\":7297:7303   */\n      0x0100\n        /* \"#utility.yul\":7292:7295   */\n      dup3\n        /* \"#utility.yul\":7288:7304   */\n      add\n        /* \"#utility.yul\":7388:7392   */\n      0x00\n        /* \"#utility.yul\":7381:7386   */\n      dup3\n        /* \"#utility.yul\":7377:7393   */\n      add\n        /* \"#utility.yul\":7371:7394   */\n      mload\n        /* \"#utility.yul\":7407:7470   */\n      tag_288\n        /* \"#utility.yul\":7464:7468   */\n      0x00\n        /* \"#utility.yul\":7459:7462   */\n      dup6\n        /* \"#utility.yul\":7455:7469   */\n      add\n        /* \"#utility.yul\":7441:7453   */\n      dup3\n        /* \"#utility.yul\":7407:7470   */\n      tag_289\n      jump\t// in\n    tag_288:\n        /* \"#utility.yul\":7314:7480   */\n      pop\n        /* \"#utility.yul\":7565:7569   */\n      0x20\n        /* \"#utility.yul\":7558:7563   */\n      dup3\n        /* \"#utility.yul\":7554:7570   */\n      add\n        /* \"#utility.yul\":7548:7571   */\n      mload\n        /* \"#utility.yul\":7584:7647   */\n      tag_290\n        /* \"#utility.yul\":7641:7645   */\n      0x20\n        /* \"#utility.yul\":7636:7639   */\n      dup6\n        /* \"#utility.yul\":7632:7646   */\n      add\n        /* \"#utility.yul\":7618:7630   */\n      dup3\n        /* \"#utility.yul\":7584:7647   */\n      tag_289\n      jump\t// in\n    tag_290:\n        /* \"#utility.yul\":7490:7657   */\n      pop\n        /* \"#utility.yul\":7741:7745   */\n      0x40\n        /* \"#utility.yul\":7734:7739   */\n      dup3\n        /* \"#utility.yul\":7730:7746   */\n      add\n        /* \"#utility.yul\":7724:7747   */\n      mload\n        /* \"#utility.yul\":7760:7823   */\n      tag_291\n        /* \"#utility.yul\":7817:7821   */\n      0x40\n        /* \"#utility.yul\":7812:7815   */\n      dup6\n        /* \"#utility.yul\":7808:7822   */\n      add\n        /* \"#utility.yul\":7794:7806   */\n      dup3\n        /* \"#utility.yul\":7760:7823   */\n      tag_213\n      jump\t// in\n    tag_291:\n        /* \"#utility.yul\":7667:7833   */\n      pop\n        /* \"#utility.yul\":7916:7920   */\n      0x60\n        /* \"#utility.yul\":7909:7914   */\n      dup3\n        /* \"#utility.yul\":7905:7921   */\n      add\n        /* \"#utility.yul\":7899:7922   */\n      mload\n        /* \"#utility.yul\":7935:7998   */\n      tag_292\n        /* \"#utility.yul\":7992:7996   */\n      0x60\n        /* \"#utility.yul\":7987:7990   */\n      dup6\n        /* \"#utility.yul\":7983:7997   */\n      add\n        /* \"#utility.yul\":7969:7981   */\n      dup3\n        /* \"#utility.yul\":7935:7998   */\n      tag_213\n      jump\t// in\n    tag_292:\n        /* \"#utility.yul\":7843:8008   */\n      pop\n        /* \"#utility.yul\":8091:8095   */\n      0x80\n        /* \"#utility.yul\":8084:8089   */\n      dup3\n        /* \"#utility.yul\":8080:8096   */\n      add\n        /* \"#utility.yul\":8074:8097   */\n      mload\n        /* \"#utility.yul\":8110:8173   */\n      tag_293\n        /* \"#utility.yul\":8167:8171   */\n      0x80\n        /* \"#utility.yul\":8162:8165   */\n      dup6\n        /* \"#utility.yul\":8158:8172   */\n      add\n        /* \"#utility.yul\":8144:8156   */\n      dup3\n        /* \"#utility.yul\":8110:8173   */\n      tag_289\n      jump\t// in\n    tag_293:\n        /* \"#utility.yul\":8018:8183   */\n      pop\n        /* \"#utility.yul\":8267:8271   */\n      0xa0\n        /* \"#utility.yul\":8260:8265   */\n      dup3\n        /* \"#utility.yul\":8256:8272   */\n      add\n        /* \"#utility.yul\":8250:8273   */\n      mload\n        /* \"#utility.yul\":8286:8343   */\n      tag_294\n        /* \"#utility.yul\":8337:8341   */\n      0xa0\n        /* \"#utility.yul\":8332:8335   */\n      dup6\n        /* \"#utility.yul\":8328:8342   */\n      add\n        /* \"#utility.yul\":8314:8326   */\n      dup3\n        /* \"#utility.yul\":8286:8343   */\n      tag_234\n      jump\t// in\n    tag_294:\n        /* \"#utility.yul\":8193:8353   */\n      pop\n        /* \"#utility.yul\":8442:8446   */\n      0xc0\n        /* \"#utility.yul\":8435:8440   */\n      dup3\n        /* \"#utility.yul\":8431:8447   */\n      add\n        /* \"#utility.yul\":8425:8448   */\n      mload\n        /* \"#utility.yul\":8461:8518   */\n      tag_295\n        /* \"#utility.yul\":8512:8516   */\n      0xc0\n        /* \"#utility.yul\":8507:8510   */\n      dup6\n        /* \"#utility.yul\":8503:8517   */\n      add\n        /* \"#utility.yul\":8489:8501   */\n      dup3\n        /* \"#utility.yul\":8461:8518   */\n      tag_234\n      jump\t// in\n    tag_295:\n        /* \"#utility.yul\":8363:8528   */\n      pop\n        /* \"#utility.yul\":8612:8616   */\n      0xe0\n        /* \"#utility.yul\":8605:8610   */\n      dup3\n        /* \"#utility.yul\":8601:8617   */\n      add\n        /* \"#utility.yul\":8595:8618   */\n      mload\n        /* \"#utility.yul\":8631:8688   */\n      tag_296\n        /* \"#utility.yul\":8682:8686   */\n      0xe0\n        /* \"#utility.yul\":8677:8680   */\n      dup6\n        /* \"#utility.yul\":8673:8687   */\n      add\n        /* \"#utility.yul\":8659:8671   */\n      dup3\n        /* \"#utility.yul\":8631:8688   */\n      tag_234\n      jump\t// in\n    tag_296:\n        /* \"#utility.yul\":8538:8698   */\n      pop\n        /* \"#utility.yul\":7266:8705   */\n      pop\n        /* \"#utility.yul\":7156:8705   */\n      pop\n      pop\n      jump\t// out\n        /* \"#utility.yul\":8789:10348   */\n    tag_297:\n        /* \"#utility.yul\":8940:8946   */\n      0x0100\n        /* \"#utility.yul\":8935:8938   */\n      dup3\n        /* \"#utility.yul\":8931:8947   */\n      add\n        /* \"#utility.yul\":9031:9035   */\n      0x00\n        /* \"#utility.yul\":9024:9029   */\n      dup3\n        /* \"#utility.yul\":9020:9036   */\n      add\n        /* \"#utility.yul\":9014:9037   */\n      mload\n        /* \"#utility.yul\":9050:9113   */\n      tag_299\n        /* \"#utility.yul\":9107:9111   */\n      0x00\n        /* \"#utility.yul\":9102:9105   */\n      dup6\n        /* \"#utility.yul\":9098:9112   */\n      add\n        /* \"#utility.yul\":9084:9096   */\n      dup3\n        /* \"#utility.yul\":9050:9113   */\n      tag_289\n      jump\t// in\n    tag_299:\n        /* \"#utility.yul\":8957:9123   */\n      pop\n        /* \"#utility.yul\":9208:9212   */\n      0x20\n        /* \"#utility.yul\":9201:9206   */\n      dup3\n        /* \"#utility.yul\":9197:9213   */\n      add\n        /* \"#utility.yul\":9191:9214   */\n      mload\n        /* \"#utility.yul\":9227:9290   */\n      tag_300\n        /* \"#utility.yul\":9284:9288   */\n      0x20\n        /* \"#utility.yul\":9279:9282   */\n      dup6\n        /* \"#utility.yul\":9275:9289   */\n      add\n        /* \"#utility.yul\":9261:9273   */\n      dup3\n        /* \"#utility.yul\":9227:9290   */\n      tag_289\n      jump\t// in\n    tag_300:\n        /* \"#utility.yul\":9133:9300   */\n      pop\n        /* \"#utility.yul\":9384:9388   */\n      0x40\n        /* \"#utility.yul\":9377:9382   */\n      dup3\n        /* \"#utility.yul\":9373:9389   */\n      add\n        /* \"#utility.yul\":9367:9390   */\n      mload\n        /* \"#utility.yul\":9403:9466   */\n      tag_301\n        /* \"#utility.yul\":9460:9464   */\n      0x40\n        /* \"#utility.yul\":9455:9458   */\n      dup6\n        /* \"#utility.yul\":9451:9465   */\n      add\n        /* \"#utility.yul\":9437:9449   */\n      dup3\n        /* \"#utility.yul\":9403:9466   */\n      tag_213\n      jump\t// in\n    tag_301:\n        /* \"#utility.yul\":9310:9476   */\n      pop\n        /* \"#utility.yul\":9559:9563   */\n      0x60\n        /* \"#utility.yul\":9552:9557   */\n      dup3\n        /* \"#utility.yul\":9548:9564   */\n      add\n        /* \"#utility.yul\":9542:9565   */\n      mload\n        /* \"#utility.yul\":9578:9641   */\n      tag_302\n        /* \"#utility.yul\":9635:9639   */\n      0x60\n        /* \"#utility.yul\":9630:9633   */\n      dup6\n        /* \"#utility.yul\":9626:9640   */\n      add\n        /* \"#utility.yul\":9612:9624   */\n      dup3\n        /* \"#utility.yul\":9578:9641   */\n      tag_213\n      jump\t// in\n    tag_302:\n        /* \"#utility.yul\":9486:9651   */\n      pop\n        /* \"#utility.yul\":9734:9738   */\n      0x80\n        /* \"#utility.yul\":9727:9732   */\n      dup3\n        /* \"#utility.yul\":9723:9739   */\n      add\n        /* \"#utility.yul\":9717:9740   */\n      mload\n        /* \"#utility.yul\":9753:9816   */\n      tag_303\n        /* \"#utility.yul\":9810:9814   */\n      0x80\n        /* \"#utility.yul\":9805:9808   */\n      dup6\n        /* \"#utility.yul\":9801:9815   */\n      add\n        /* \"#utility.yul\":9787:9799   */\n      dup3\n        /* \"#utility.yul\":9753:9816   */\n      tag_289\n      jump\t// in\n    tag_303:\n        /* \"#utility.yul\":9661:9826   */\n      pop\n        /* \"#utility.yul\":9910:9914   */\n      0xa0\n        /* \"#utility.yul\":9903:9908   */\n      dup3\n        /* \"#utility.yul\":9899:9915   */\n      add\n        /* \"#utility.yul\":9893:9916   */\n      mload\n        /* \"#utility.yul\":9929:9986   */\n      tag_304\n        /* \"#utility.yul\":9980:9984   */\n      0xa0\n        /* \"#utility.yul\":9975:9978   */\n      dup6\n        /* \"#utility.yul\":9971:9985   */\n      add\n        /* \"#utility.yul\":9957:9969   */\n      dup3\n        /* \"#utility.yul\":9929:9986   */\n      tag_234\n      jump\t// in\n    tag_304:\n        /* \"#utility.yul\":9836:9996   */\n      pop\n        /* \"#utility.yul\":10085:10089   */\n      0xc0\n        /* \"#utility.yul\":10078:10083   */\n      dup3\n        /* \"#utility.yul\":10074:10090   */\n      add\n        /* \"#utility.yul\":10068:10091   */\n      mload\n        /* \"#utility.yul\":10104:10161   */\n      tag_305\n        /* \"#utility.yul\":10155:10159   */\n      0xc0\n        /* \"#utility.yul\":10150:10153   */\n      dup6\n        /* \"#utility.yul\":10146:10160   */\n      add\n        /* \"#utility.yul\":10132:10144   */\n      dup3\n        /* \"#utility.yul\":10104:10161   */\n      tag_234\n      jump\t// in\n    tag_305:\n        /* \"#utility.yul\":10006:10171   */\n      pop\n        /* \"#utility.yul\":10255:10259   */\n      0xe0\n        /* \"#utility.yul\":10248:10253   */\n      dup3\n        /* \"#utility.yul\":10244:10260   */\n      add\n        /* \"#utility.yul\":10238:10261   */\n      mload\n        /* \"#utility.yul\":10274:10331   */\n      tag_306\n        /* \"#utility.yul\":10325:10329   */\n      0xe0\n        /* \"#utility.yul\":10320:10323   */\n      dup6\n        /* \"#utility.yul\":10316:10330   */\n      add\n        /* \"#utility.yul\":10302:10314   */\n      dup3\n        /* \"#utility.yul\":10274:10331   */\n      tag_234\n      jump\t// in\n    tag_306:\n        /* \"#utility.yul\":10181:10341   */\n      pop\n        /* \"#utility.yul\":8909:10348   */\n      pop\n        /* \"#utility.yul\":8789:10348   */\n      pop\n      pop\n      jump\t// out\n        /* \"#utility.yul\":10354:10462   */\n    tag_289:\n        /* \"#utility.yul\":10431:10455   */\n      tag_308\n        /* \"#utility.yul\":10449:10454   */\n      dup2\n        /* \"#utility.yul\":10431:10455   */\n      tag_309\n      jump\t// in\n    tag_308:\n        /* \"#utility.yul\":10426:10429   */\n      dup3\n        /* \"#utility.yul\":10419:10456   */\n      mstore\n        /* \"#utility.yul\":10354:10462   */\n      pop\n      pop\n      jump\t// out\n        /* \"#utility.yul\":10468:10586   */\n    tag_310:\n        /* \"#utility.yul\":10555:10579   */\n      tag_312\n        /* \"#utility.yul\":10573:10578   */\n      dup2\n        /* \"#utility.yul\":10555:10579   */\n      tag_309\n      jump\t// in\n    tag_312:\n        /* \"#utility.yul\":10550:10553   */\n      dup3\n        /* \"#utility.yul\":10543:10580   */\n      mstore\n        /* \"#utility.yul\":10468:10586   */\n      pop\n      pop\n      jump\t// out\n        /* \"#utility.yul\":10592:10814   */\n    tag_27:\n        /* \"#utility.yul\":10685:10689   */\n      0x00\n        /* \"#utility.yul\":10723:10725   */\n      0x20\n        /* \"#utility.yul\":10712:10721   */\n      dup3\n        /* \"#utility.yul\":10708:10726   */\n      add\n        /* \"#utility.yul\":10700:10726   */\n      swap1\n      pop\n        /* \"#utility.yul\":10736:10807   */\n      tag_314\n        /* \"#utility.yul\":10804:10805   */\n      0x00\n        /* \"#utility.yul\":10793:10802   */\n      dup4\n        /* \"#utility.yul\":10789:10806   */\n      add\n        /* \"#utility.yul\":10780:10786   */\n      dup5\n        /* \"#utility.yul\":10736:10807   */\n      tag_217\n      jump\t// in\n    tag_314:\n        /* \"#utility.yul\":10592:10814   */\n      swap3\n      swap2\n      pop\n      pop\n      jump\t// out\n        /* \"#utility.yul\":10820:11262   */\n    tag_96:\n        /* \"#utility.yul\":10969:10973   */\n      0x00\n        /* \"#utility.yul\":11007:11009   */\n      0x60\n        /* \"#utility.yul\":10996:11005   */\n      dup3\n        /* \"#utility.yul\":10992:11010   */\n      add\n        /* \"#utility.yul\":10984:11010   */\n      swap1\n      pop\n        /* \"#utility.yul\":11020:11091   */\n      tag_316\n        /* \"#utility.yul\":11088:11089   */\n      0x00\n        /* \"#utility.yul\":11077:11086   */\n      dup4\n        /* \"#utility.yul\":11073:11090   */\n      add\n        /* \"#utility.yul\":11064:11070   */\n      dup7\n        /* \"#utility.yul\":11020:11091   */\n      tag_217\n      jump\t// in\n    tag_316:\n        /* \"#utility.yul\":11101:11173   */\n      tag_317\n        /* \"#utility.yul\":11169:11171   */\n      0x20\n        /* \"#utility.yul\":11158:11167   */\n      dup4\n        /* \"#utility.yul\":11154:11172   */\n      add\n        /* \"#utility.yul\":11145:11151   */\n      dup6\n        /* \"#utility.yul\":11101:11173   */\n      tag_217\n      jump\t// in\n    tag_317:\n        /* \"#utility.yul\":11183:11255   */\n      tag_318\n        /* \"#utility.yul\":11251:11253   */\n      0x40\n        /* \"#utility.yul\":11240:11249   */\n      dup4\n        /* \"#utility.yul\":11236:11254   */\n      add\n        /* \"#utility.yul\":11227:11233   */\n      dup5\n        /* \"#utility.yul\":11183:11255   */\n      tag_310\n      jump\t// in\n    tag_318:\n        /* \"#utility.yul\":10820:11262   */\n      swap5\n      swap4\n      pop\n      pop\n      pop\n      pop\n      jump\t// out\n        /* \"#utility.yul\":11268:11749   */\n    tag_41:\n        /* \"#utility.yul\":11465:11469   */\n      0x00\n        /* \"#utility.yul\":11503:11505   */\n      0x20\n        /* \"#utility.yul\":11492:11501   */\n      dup3\n        /* \"#utility.yul\":11488:11506   */\n      add\n        /* \"#utility.yul\":11480:11506   */\n      swap1\n      pop\n        /* \"#utility.yul\":11552:11561   */\n      dup2\n        /* \"#utility.yul\":11546:11550   */\n      dup2\n        /* \"#utility.yul\":11542:11562   */\n      sub\n        /* \"#utility.yul\":11538:11539   */\n      0x00\n        /* \"#utility.yul\":11527:11536   */\n      dup4\n        /* \"#utility.yul\":11523:11540   */\n      add\n        /* \"#utility.yul\":11516:11563   */\n      mstore\n        /* \"#utility.yul\":11580:11742   */\n      tag_320\n        /* \"#utility.yul\":11737:11741   */\n      dup2\n        /* \"#utility.yul\":11728:11734   */\n      dup5\n        /* \"#utility.yul\":11580:11742   */\n      tag_220\n      jump\t// in\n    tag_320:\n        /* \"#utility.yul\":11572:11742   */\n      swap1\n      pop\n        /* \"#utility.yul\":11268:11749   */\n      swap3\n      swap2\n      pop\n      pop\n      jump\t// out\n        /* \"#utility.yul\":11755:12174   */\n    tag_115:\n        /* \"#utility.yul\":11921:11925   */\n      0x00\n        /* \"#utility.yul\":11959:11961   */\n      0x20\n        /* \"#utility.yul\":11948:11957   */\n      dup3\n        /* \"#utility.yul\":11944:11962   */\n      add\n        /* \"#utility.yul\":11936:11962   */\n      swap1\n      pop\n        /* \"#utility.yul\":12008:12017   */\n      dup2\n        /* \"#utility.yul\":12002:12006   */\n      dup2\n        /* \"#utility.yul\":11998:12018   */\n      sub\n        /* \"#utility.yul\":11994:11995   */\n      0x00\n        /* \"#utility.yul\":11983:11992   */\n      dup4\n        /* \"#utility.yul\":11979:11996   */\n      add\n        /* \"#utility.yul\":11972:12019   */\n      mstore\n        /* \"#utility.yul\":12036:12167   */\n      tag_322\n        /* \"#utility.yul\":12162:12166   */\n      dup2\n        /* \"#utility.yul\":12036:12167   */\n      tag_241\n      jump\t// in\n    tag_322:\n        /* \"#utility.yul\":12028:12167   */\n      swap1\n      pop\n        /* \"#utility.yul\":11755:12174   */\n      swap2\n      swap1\n      pop\n      jump\t// out\n        /* \"#utility.yul\":12180:12599   */\n    tag_90:\n        /* \"#utility.yul\":12346:12350   */\n      0x00\n        /* \"#utility.yul\":12384:12386   */\n      0x20\n        /* \"#utility.yul\":12373:12382   */\n      dup3\n        /* \"#utility.yul\":12369:12387   */\n      add\n        /* \"#utility.yul\":12361:12387   */\n      swap1\n      pop\n        /* \"#utility.yul\":12433:12442   */\n      dup2\n        /* \"#utility.yul\":12427:12431   */\n      dup2\n        /* \"#utility.yul\":12423:12443   */\n      sub\n        /* \"#utility.yul\":12419:12420   */\n      0x00\n        /* \"#utility.yul\":12408:12417   */\n      dup4\n        /* \"#utility.yul\":12404:12421   */\n      add\n        /* \"#utility.yul\":12397:12444   */\n      mstore\n        /* \"#utility.yul\":12461:12592   */\n      tag_324\n        /* \"#utility.yul\":12587:12591   */\n      dup2\n        /* \"#utility.yul\":12461:12592   */\n      tag_247\n      jump\t// in\n    tag_324:\n        /* \"#utility.yul\":12453:12592   */\n      swap1\n      pop\n        /* \"#utility.yul\":12180:12599   */\n      swap2\n      swap1\n      pop\n      jump\t// out\n        /* \"#utility.yul\":12605:13024   */\n    tag_172:\n        /* \"#utility.yul\":12771:12775   */\n      0x00\n        /* \"#utility.yul\":12809:12811   */\n      0x20\n        /* \"#utility.yul\":12798:12807   */\n      dup3\n        /* \"#utility.yul\":12794:12812   */\n      add\n        /* \"#utility.yul\":12786:12812   */\n      swap1\n      pop\n        /* \"#utility.yul\":12858:12867   */\n      dup2\n        /* \"#utility.yul\":12852:12856   */\n      dup2\n        /* \"#utility.yul\":12848:12868   */\n      sub\n        /* \"#utility.yul\":12844:12845   */\n      0x00\n        /* \"#utility.yul\":12833:12842   */\n      dup4\n        /* \"#utility.yul\":12829:12846   */\n      add\n        /* \"#utility.yul\":12822:12869   */\n      mstore\n        /* \"#utility.yul\":12886:13017   */\n      tag_326\n        /* \"#utility.yul\":13012:13016   */\n      dup2\n        /* \"#utility.yul\":12886:13017   */\n      tag_252\n      jump\t// in\n    tag_326:\n        /* \"#utility.yul\":12878:13017   */\n      swap1\n      pop\n        /* \"#utility.yul\":12605:13024   */\n      swap2\n      swap1\n      pop\n      jump\t// out\n        /* \"#utility.yul\":13030:13449   */\n    tag_118:\n        /* \"#utility.yul\":13196:13200   */\n      0x00\n        /* \"#utility.yul\":13234:13236   */\n      0x20\n        /* \"#utility.yul\":13223:13232   */\n      dup3\n        /* \"#utility.yul\":13219:13237   */\n      add\n        /* \"#utility.yul\":13211:13237   */\n      swap1\n      pop\n        /* \"#utility.yul\":13283:13292   */\n      dup2\n        /* \"#utility.yul\":13277:13281   */\n      dup2\n        /* \"#utility.yul\":13273:13293   */\n      sub\n        /* \"#utility.yul\":13269:13270   */\n      0x00\n        /* \"#utility.yul\":13258:13267   */\n      dup4\n        /* \"#utility.yul\":13254:13271   */\n      add\n        /* \"#utility.yul\":13247:13294   */\n      mstore\n        /* \"#utility.yul\":13311:13442   */\n      tag_328\n        /* \"#utility.yul\":13437:13441   */\n      dup2\n        /* \"#utility.yul\":13311:13442   */\n      tag_257\n      jump\t// in\n    tag_328:\n        /* \"#utility.yul\":13303:13442   */\n      swap1\n      pop\n        /* \"#utility.yul\":13030:13449   */\n      swap2\n      swap1\n      pop\n      jump\t// out\n        /* \"#utility.yul\":13455:13874   */\n    tag_159:\n        /* \"#utility.yul\":13621:13625   */\n      0x00\n        /* \"#utility.yul\":13659:13661   */\n      0x20\n        /* \"#utility.yul\":13648:13657   */\n      dup3\n        /* \"#utility.yul\":13644:13662   */\n      add\n        /* \"#utility.yul\":13636:13662   */\n      swap1\n      pop\n        /* \"#utility.yul\":13708:13717   */\n      dup2\n        /* \"#utility.yul\":13702:13706   */\n      dup2\n        /* \"#utility.yul\":13698:13718   */\n      sub\n        /* \"#utility.yul\":13694:13695   */\n      0x00\n        /* \"#utility.yul\":13683:13692   */\n      dup4\n        /* \"#utility.yul\":13679:13696   */\n      add\n        /* \"#utility.yul\":13672:13719   */\n      mstore\n        /* \"#utility.yul\":13736:13867   */\n      tag_330\n        /* \"#utility.yul\":13862:13866   */\n      dup2\n        /* \"#utility.yul\":13736:13867   */\n      tag_262\n      jump\t// in\n    tag_330:\n        /* \"#utility.yul\":13728:13867   */\n      swap1\n      pop\n        /* \"#utility.yul\":13455:13874   */\n      swap2\n      swap1\n      pop\n      jump\t// out\n        /* \"#utility.yul\":13880:14299   */\n    tag_70:\n        /* \"#utility.yul\":14046:14050   */\n      0x00\n        /* \"#utility.yul\":14084:14086   */\n      0x20\n        /* \"#utility.yul\":14073:14082   */\n      dup3\n        /* \"#utility.yul\":14069:14087   */\n      add\n        /* \"#utility.yul\":14061:14087   */\n      swap1\n      pop\n        /* \"#utility.yul\":14133:14142   */\n      dup2\n        /* \"#utility.yul\":14127:14131   */\n      dup2\n        /* \"#utility.yul\":14123:14143   */\n      sub\n        /* \"#utility.yul\":14119:14120   */\n      0x00\n        /* \"#utility.yul\":14108:14117   */\n      dup4\n        /* \"#utility.yul\":14104:14121   */\n      add\n        /* \"#utility.yul\":14097:14144   */\n      mstore\n        /* \"#utility.yul\":14161:14292   */\n      tag_332\n        /* \"#utility.yul\":14287:14291   */\n      dup2\n        /* \"#utility.yul\":14161:14292   */\n      tag_267\n      jump\t// in\n    tag_332:\n        /* \"#utility.yul\":14153:14292   */\n      swap1\n      pop\n        /* \"#utility.yul\":13880:14299   */\n      swap2\n      swap1\n      pop\n      jump\t// out\n        /* \"#utility.yul\":14305:14724   */\n    tag_162:\n        /* \"#utility.yul\":14471:14475   */\n      0x00\n        /* \"#utility.yul\":14509:14511   */\n      0x20\n        /* \"#utility.yul\":14498:14507   */\n      dup3\n        /* \"#utility.yul\":14494:14512   */\n      add\n        /* \"#utility.yul\":14486:14512   */\n      swap1\n      pop\n        /* \"#utility.yul\":14558:14567   */\n      dup2\n        /* \"#utility.yul\":14552:14556   */\n      dup2\n        /* \"#utility.yul\":14548:14568   */\n      sub\n        /* \"#utility.yul\":14544:14545   */\n      0x00\n        /* \"#utility.yul\":14533:14542   */\n      dup4\n        /* \"#utility.yul\":14529:14546   */\n      add\n        /* \"#utility.yul\":14522:14569   */\n      mstore\n        /* \"#utility.yul\":14586:14717   */\n      tag_334\n        /* \"#utility.yul\":14712:14716   */\n      dup2\n        /* \"#utility.yul\":14586:14717   */\n      tag_272\n      jump\t// in\n    tag_334:\n        /* \"#utility.yul\":14578:14717   */\n      swap1\n      pop\n        /* \"#utility.yul\":14305:14724   */\n      swap2\n      swap1\n      pop\n      jump\t// out\n        /* \"#utility.yul\":14730:15149   */\n    tag_78:\n        /* \"#utility.yul\":14896:14900   */\n      0x00\n        /* \"#utility.yul\":14934:14936   */\n      0x20\n        /* \"#utility.yul\":14923:14932   */\n      dup3\n        /* \"#utility.yul\":14919:14937   */\n      add\n        /* \"#utility.yul\":14911:14937   */\n      swap1\n      pop\n        /* \"#utility.yul\":14983:14992   */\n      dup2\n        /* \"#utility.yul\":14977:14981   */\n      dup2\n        /* \"#utility.yul\":14973:14993   */\n      sub\n        /* \"#utility.yul\":14969:14970   */\n      0x00\n        /* \"#utility.yul\":14958:14967   */\n      dup4\n        /* \"#utility.yul\":14954:14971   */\n      add\n        /* \"#utility.yul\":14947:14994   */\n      mstore\n        /* \"#utility.yul\":15011:15142   */\n      tag_336\n        /* \"#utility.yul\":15137:15141   */\n      dup2\n        /* \"#utility.yul\":15011:15142   */\n      tag_277\n      jump\t// in\n    tag_336:\n        /* \"#utility.yul\":15003:15142   */\n      swap1\n      pop\n        /* \"#utility.yul\":14730:15149   */\n      swap2\n      swap1\n      pop\n      jump\t// out\n        /* \"#utility.yul\":15155:15574   */\n    tag_87:\n        /* \"#utility.yul\":15321:15325   */\n      0x00\n        /* \"#utility.yul\":15359:15361   */\n      0x20\n        /* \"#utility.yul\":15348:15357   */\n      dup3\n        /* \"#utility.yul\":15344:15362   */\n      add\n        /* \"#utility.yul\":15336:15362   */\n      swap1\n      pop\n        /* \"#utility.yul\":15408:15417   */\n      dup2\n        /* \"#utility.yul\":15402:15406   */\n      dup2\n        /* \"#utility.yul\":15398:15418   */\n      sub\n        /* \"#utility.yul\":15394:15395   */\n      0x00\n        /* \"#utility.yul\":15383:15392   */\n      dup4\n        /* \"#utility.yul\":15379:15396   */\n      add\n        /* \"#utility.yul\":15372:15419   */\n      mstore\n        /* \"#utility.yul\":15436:15567   */\n      tag_338\n        /* \"#utility.yul\":15562:15566   */\n      dup2\n        /* \"#utility.yul\":15436:15567   */\n      tag_282\n      jump\t// in\n    tag_338:\n        /* \"#utility.yul\":15428:15567   */\n      swap1\n      pop\n        /* \"#utility.yul\":15155:15574   */\n      swap2\n      swap1\n      pop\n      jump\t// out\n        /* \"#utility.yul\":15580:15911   */\n    tag_21:\n        /* \"#utility.yul\":15727:15731   */\n      0x00\n        /* \"#utility.yul\":15765:15768   */\n      0x0100\n        /* \"#utility.yul\":15754:15763   */\n      dup3\n        /* \"#utility.yul\":15750:15769   */\n      add\n        /* \"#utility.yul\":15742:15769   */\n      swap1\n      pop\n        /* \"#utility.yul\":15779:15904   */\n      tag_340\n        /* \"#utility.yul\":15901:15902   */\n      0x00\n        /* \"#utility.yul\":15890:15899   */\n      dup4\n        /* \"#utility.yul\":15886:15903   */\n      add\n        /* \"#utility.yul\":15877:15883   */\n      dup5\n        /* \"#utility.yul\":15779:15904   */\n      tag_297\n      jump\t// in\n    tag_340:\n        /* \"#utility.yul\":15580:15911   */\n      swap3\n      swap2\n      pop\n      pop\n      jump\t// out\n        /* \"#utility.yul\":15917:16139   */\n    tag_48:\n        /* \"#utility.yul\":16010:16014   */\n      0x00\n        /* \"#utility.yul\":16048:16050   */\n      0x20\n        /* \"#utility.yul\":16037:16046   */\n      dup3\n        /* \"#utility.yul\":16033:16051   */\n      add\n        /* \"#utility.yul\":16025:16051   */\n      swap1\n      pop\n        /* \"#utility.yul\":16061:16132   */\n      tag_342\n        /* \"#utility.yul\":16129:16130   */\n      0x00\n        /* \"#utility.yul\":16118:16127   */\n      dup4\n        /* \"#utility.yul\":16114:16131   */\n      add\n        /* \"#utility.yul\":16105:16111   */\n      dup5\n        /* \"#utility.yul\":16061:16132   */\n      tag_310\n      jump\t// in\n    tag_342:\n        /* \"#utility.yul\":15917:16139   */\n      swap3\n      swap2\n      pop\n      pop\n      jump\t// out\n        /* \"#utility.yul\":16145:17106   */\n    tag_56:\n        /* \"#utility.yul\":16416:16420   */\n      0x00\n        /* \"#utility.yul\":16454:16457   */\n      0x0100\n        /* \"#utility.yul\":16443:16452   */\n      dup3\n        /* \"#utility.yul\":16439:16458   */\n      add\n        /* \"#utility.yul\":16431:16458   */\n      swap1\n      pop\n        /* \"#utility.yul\":16468:16539   */\n      tag_344\n        /* \"#utility.yul\":16536:16537   */\n      0x00\n        /* \"#utility.yul\":16525:16534   */\n      dup4\n        /* \"#utility.yul\":16521:16538   */\n      add\n        /* \"#utility.yul\":16512:16518   */\n      dup12\n        /* \"#utility.yul\":16468:16539   */\n      tag_310\n      jump\t// in\n    tag_344:\n        /* \"#utility.yul\":16549:16621   */\n      tag_345\n        /* \"#utility.yul\":16617:16619   */\n      0x20\n        /* \"#utility.yul\":16606:16615   */\n      dup4\n        /* \"#utility.yul\":16602:16620   */\n      add\n        /* \"#utility.yul\":16593:16599   */\n      dup11\n        /* \"#utility.yul\":16549:16621   */\n      tag_310\n      jump\t// in\n    tag_345:\n        /* \"#utility.yul\":16631:16703   */\n      tag_346\n        /* \"#utility.yul\":16699:16701   */\n      0x40\n        /* \"#utility.yul\":16688:16697   */\n      dup4\n        /* \"#utility.yul\":16684:16702   */\n      add\n        /* \"#utility.yul\":16675:16681   */\n      dup10\n        /* \"#utility.yul\":16631:16703   */\n      tag_217\n      jump\t// in\n    tag_346:\n        /* \"#utility.yul\":16713:16785   */\n      tag_347\n        /* \"#utility.yul\":16781:16783   */\n      0x60\n        /* \"#utility.yul\":16770:16779   */\n      dup4\n        /* \"#utility.yul\":16766:16784   */\n      add\n        /* \"#utility.yul\":16757:16763   */\n      dup9\n        /* \"#utility.yul\":16713:16785   */\n      tag_217\n      jump\t// in\n    tag_347:\n        /* \"#utility.yul\":16795:16868   */\n      tag_348\n        /* \"#utility.yul\":16863:16866   */\n      0x80\n        /* \"#utility.yul\":16852:16861   */\n      dup4\n        /* \"#utility.yul\":16848:16867   */\n      add\n        /* \"#utility.yul\":16839:16845   */\n      dup8\n        /* \"#utility.yul\":16795:16868   */\n      tag_310\n      jump\t// in\n    tag_348:\n        /* \"#utility.yul\":16878:16945   */\n      tag_349\n        /* \"#utility.yul\":16940:16943   */\n      0xa0\n        /* \"#utility.yul\":16929:16938   */\n      dup4\n        /* \"#utility.yul\":16925:16944   */\n      add\n        /* \"#utility.yul\":16916:16922   */\n      dup7\n        /* \"#utility.yul\":16878:16945   */\n      tag_238\n      jump\t// in\n    tag_349:\n        /* \"#utility.yul\":16955:17022   */\n      tag_350\n        /* \"#utility.yul\":17017:17020   */\n      0xc0\n        /* \"#utility.yul\":17006:17015   */\n      dup4\n        /* \"#utility.yul\":17002:17021   */\n      add\n        /* \"#utility.yul\":16993:16999   */\n      dup6\n        /* \"#utility.yul\":16955:17022   */\n      tag_238\n      jump\t// in\n    tag_350:\n        /* \"#utility.yul\":17032:17099   */\n      tag_351\n        /* \"#utility.yul\":17094:17097   */\n      0xe0\n        /* \"#utility.yul\":17083:17092   */\n      dup4\n        /* \"#utility.yul\":17079:17098   */\n      add\n        /* \"#utility.yul\":17070:17076   */\n      dup5\n        /* \"#utility.yul\":17032:17099   */\n      tag_238\n      jump\t// in\n    tag_351:\n        /* \"#utility.yul\":16145:17106   */\n      swap10\n      swap9\n      pop\n      pop\n      pop\n      pop\n      pop\n      pop\n      pop\n      pop\n      pop\n      jump\t// out\n        /* \"#utility.yul\":17193:17352   */\n    tag_227:\n        /* \"#utility.yul\":17287:17291   */\n      0x00\n        /* \"#utility.yul\":17310:17313   */\n      dup2\n        /* \"#utility.yul\":17302:17313   */\n      swap1\n      pop\n        /* \"#utility.yul\":17340:17344   */\n      0x20\n        /* \"#utility.yul\":17335:17338   */\n      dup3\n        /* \"#utility.yul\":17331:17345   */\n      add\n        /* \"#utility.yul\":17323:17345   */\n      swap1\n      pop\n        /* \"#utility.yul\":17193:17352   */\n      swap2\n      swap1\n      pop\n      jump\t// out\n        /* \"#utility.yul\":17358:17499   */\n    tag_223:\n        /* \"#utility.yul\":17452:17458   */\n      0x00\n        /* \"#utility.yul\":17486:17491   */\n      dup2\n        /* \"#utility.yul\":17480:17492   */\n      mload\n        /* \"#utility.yul\":17470:17492   */\n      swap1\n      pop\n        /* \"#utility.yul\":17358:17499   */\n      swap2\n      swap1\n      pop\n      jump\t// out\n        /* \"#utility.yul\":17505:17645   */\n    tag_233:\n        /* \"#utility.yul\":17602:17606   */\n      0x00\n        /* \"#utility.yul\":17634:17638   */\n      0x20\n        /* \"#utility.yul\":17629:17632   */\n      dup3\n        /* \"#utility.yul\":17625:17639   */\n      add\n        /* \"#utility.yul\":17617:17639   */\n      swap1\n      pop\n        /* \"#utility.yul\":17505:17645   */\n      swap2\n      swap1\n      pop\n      jump\t// out\n        /* \"#utility.yul\":17651:17862   */\n    tag_225:\n        /* \"#utility.yul\":17777:17788   */\n      0x00\n        /* \"#utility.yul\":17811:17817   */\n      dup3\n        /* \"#utility.yul\":17806:17809   */\n      dup3\n        /* \"#utility.yul\":17799:17818   */\n      mstore\n        /* \"#utility.yul\":17851:17855   */\n      0x20\n        /* \"#utility.yul\":17846:17849   */\n      dup3\n        /* \"#utility.yul\":17842:17856   */\n      add\n        /* \"#utility.yul\":17827:17856   */\n      swap1\n      pop\n        /* \"#utility.yul\":17651:17862   */\n      swap3\n      swap2\n      pop\n      pop\n      jump\t// out\n        /* \"#utility.yul\":17868:18037   */\n    tag_244:\n        /* \"#utility.yul\":17952:17963   */\n      0x00\n        /* \"#utility.yul\":17986:17992   */\n      dup3\n        /* \"#utility.yul\":17981:17984   */\n      dup3\n        /* \"#utility.yul\":17974:17993   */\n      mstore\n        /* \"#utility.yul\":18026:18030   */\n      0x20\n        /* \"#utility.yul\":18021:18024   */\n      dup3\n        /* \"#utility.yul\":18017:18031   */\n      add\n        /* \"#utility.yul\":18002:18031   */\n      swap1\n      pop\n        /* \"#utility.yul\":17868:18037   */\n      swap3\n      swap2\n      pop\n      pop\n      jump\t// out\n        /* \"#utility.yul\":18043:18348   */\n    tag_107:\n        /* \"#utility.yul\":18083:18086   */\n      0x00\n        /* \"#utility.yul\":18102:18122   */\n      tag_360\n        /* \"#utility.yul\":18120:18121   */\n      dup3\n        /* \"#utility.yul\":18102:18122   */\n      tag_309\n      jump\t// in\n    tag_360:\n        /* \"#utility.yul\":18097:18122   */\n      swap2\n      pop\n        /* \"#utility.yul\":18136:18156   */\n      tag_361\n        /* \"#utility.yul\":18154:18155   */\n      dup4\n        /* \"#utility.yul\":18136:18156   */\n      tag_309\n      jump\t// in\n    tag_361:\n        /* \"#utility.yul\":18131:18156   */\n      swap3\n      pop\n        /* \"#utility.yul\":18290:18291   */\n      dup3\n        /* \"#utility.yul\":18222:18288   */\n      0xffffffffffffffffffffffffffffffffffffffffffffffffffffffffffffffff\n        /* \"#utility.yul\":18218:18292   */\n      sub\n        /* \"#utility.yul\":18215:18216   */\n      dup3\n        /* \"#utility.yul\":18212:18293   */\n      gt\n        /* \"#utility.yul\":18209:18316   */\n      iszero\n      tag_362\n      jumpi\n        /* \"#utility.yul\":18296:18314   */\n      tag_363\n      tag_364\n      jump\t// in\n    tag_363:\n        /* \"#utility.yul\":18209:18316   */\n    tag_362:\n        /* \"#utility.yul\":18340:18341   */\n      dup3\n        /* \"#utility.yul\":18337:18338   */\n      dup3\n        /* \"#utility.yul\":18333:18342   */\n      add\n        /* \"#utility.yul\":18326:18342   */\n      swap1\n      pop\n        /* \"#utility.yul\":18043:18348   */\n      swap3\n      swap2\n      pop\n      pop\n      jump\t// out\n        /* \"#utility.yul\":18354:18545   */\n    tag_134:\n        /* \"#utility.yul\":18394:18398   */\n      0x00\n        /* \"#utility.yul\":18414:18434   */\n      tag_366\n        /* \"#utility.yul\":18432:18433   */\n      dup3\n        /* \"#utility.yul\":18414:18434   */\n      tag_309\n      jump\t// in\n    tag_366:\n        /* \"#utility.yul\":18409:18434   */\n      swap2\n      pop\n        /* \"#utility.yul\":18448:18468   */\n      tag_367\n        /* \"#utility.yul\":18466:18467   */\n      dup4\n        /* \"#utility.yul\":18448:18468   */\n      tag_309\n      jump\t// in\n    tag_367:\n        /* \"#utility.yul\":18443:18468   */\n      swap3\n      pop\n        /* \"#utility.yul\":18487:18488   */\n      dup3\n        /* \"#utility.yul\":18484:18485   */\n      dup3\n        /* \"#utility.yul\":18481:18489   */\n      lt\n        /* \"#utility.yul\":18478:18512   */\n      iszero\n      tag_368\n      jumpi\n        /* \"#utility.yul\":18492:18510   */\n      tag_369\n      tag_364\n      jump\t// in\n    tag_369:\n        /* \"#utility.yul\":18478:18512   */\n    tag_368:\n        /* \"#utility.yul\":18537:18538   */\n      dup3\n        /* \"#utility.yul\":18534:18535   */\n      dup3\n        /* \"#utility.yul\":18530:18539   */\n      sub\n        /* \"#utility.yul\":18522:18539   */\n      swap1\n      pop\n        /* \"#utility.yul\":18354:18545   */\n      swap3\n      swap2\n      pop\n      pop\n      jump\t// out\n        /* \"#utility.yul\":18551:18647   */\n    tag_216:\n        /* \"#utility.yul\":18588:18595   */\n      0x00\n        /* \"#utility.yul\":18617:18641   */\n      tag_371\n        /* \"#utility.yul\":18635:18640   */\n      dup3\n        /* \"#utility.yul\":18617:18641   */\n      tag_372\n      jump\t// in\n    tag_371:\n        /* \"#utility.yul\":18606:18641   */\n      swap1\n      pop\n        /* \"#utility.yul\":18551:18647   */\n      swap2\n      swap1\n      pop\n      jump\t// out\n        /* \"#utility.yul\":18653:18743   */\n    tag_237:\n        /* \"#utility.yul\":18687:18694   */\n      0x00\n        /* \"#utility.yul\":18730:18735   */\n      dup2\n        /* \"#utility.yul\":18723:18736   */\n      iszero\n        /* \"#utility.yul\":18716:18737   */\n      iszero\n        /* \"#utility.yul\":18705:18737   */\n      swap1\n      pop\n        /* \"#utility.yul\":18653:18743   */\n      swap2\n      swap1\n      pop\n      jump\t// out\n        /* \"#utility.yul\":18749:18875   */\n    tag_372:\n        /* \"#utility.yul\":18786:18793   */\n      0x00\n        /* \"#utility.yul\":18826:18868   */\n      0xffffffffffffffffffffffffffffffffffffffff\n        /* \"#utility.yul\":18819:18824   */\n      dup3\n        /* \"#utility.yul\":18815:18869   */\n      and\n        /* \"#utility.yul\":18804:18869   */\n      swap1\n      pop\n        /* \"#utility.yul\":18749:18875   */\n      swap2\n      swap1\n      pop\n      jump\t// out\n        /* \"#utility.yul\":18881:18958   */\n    tag_309:\n        /* \"#utility.yul\":18918:18925   */\n      0x00\n        /* \"#utility.yul\":18947:18952   */\n      dup2\n        /* \"#utility.yul\":18936:18952   */\n      swap1\n      pop\n        /* \"#utility.yul\":18881:18958   */\n      swap2\n      swap1\n      pop\n      jump\t// out\n        /* \"#utility.yul\":18964:19197   */\n    tag_152:\n        /* \"#utility.yul\":19003:19006   */\n      0x00\n        /* \"#utility.yul\":19026:19050   */\n      tag_377\n        /* \"#utility.yul\":19044:19049   */\n      dup3\n        /* \"#utility.yul\":19026:19050   */\n      tag_309\n      jump\t// in\n    tag_377:\n        /* \"#utility.yul\":19017:19050   */\n      swap2\n      pop\n        /* \"#utility.yul\":19072:19138   */\n      0xffffffffffffffffffffffffffffffffffffffffffffffffffffffffffffffff\n        /* \"#utility.yul\":19065:19070   */\n      dup3\n        /* \"#utility.yul\":19062:19139   */\n      eq\n        /* \"#utility.yul\":19059:19162   */\n      iszero\n      tag_378\n      jumpi\n        /* \"#utility.yul\":19142:19160   */\n      tag_379\n      tag_364\n      jump\t// in\n    tag_379:\n        /* \"#utility.yul\":19059:19162   */\n    tag_378:\n        /* \"#utility.yul\":19189:19190   */\n      0x01\n        /* \"#utility.yul\":19182:19187   */\n      dup3\n        /* \"#utility.yul\":19178:19191   */\n      add\n        /* \"#utility.yul\":19171:19191   */\n      swap1\n      pop\n        /* \"#utility.yul\":18964:19197   */\n      swap2\n      swap1\n      pop\n      jump\t// out\n        /* \"#utility.yul\":19203:19383   */\n    tag_364:\n        /* \"#utility.yul\":19251:19328   */\n      0x4e487b7100000000000000000000000000000000000000000000000000000000\n        /* \"#utility.yul\":19248:19249   */\n      0x00\n        /* \"#utility.yul\":19241:19329   */\n      mstore\n        /* \"#utility.yul\":19348:19352   */\n      0x11\n        /* \"#utility.yul\":19345:19346   */\n      0x04\n        /* \"#utility.yul\":19338:19353   */\n      mstore\n        /* \"#utility.yul\":19372:19376   */\n      0x24\n        /* \"#utility.yul\":19369:19370   */\n      0x00\n        /* \"#utility.yul\":19362:19377   */\n      revert\n        /* \"#utility.yul\":19389:19569   */\n    tag_149:\n        /* \"#utility.yul\":19437:19514   */\n      0x4e487b7100000000000000000000000000000000000000000000000000000000\n        /* \"#utility.yul\":19434:19435   */\n      0x00\n        /* \"#utility.yul\":19427:19515   */\n      mstore\n        /* \"#utility.yul\":19534:19538   */\n      0x32\n        /* \"#utility.yul\":19531:19532   */\n      0x04\n        /* \"#utility.yul\":19524:19539   */\n      mstore\n        /* \"#utility.yul\":19558:19562   */\n      0x24\n        /* \"#utility.yul\":19555:19556   */\n      0x00\n        /* \"#utility.yul\":19548:19563   */\n      revert\n        /* \"#utility.yul\":19575:19755   */\n    tag_137:\n        /* \"#utility.yul\":19623:19700   */\n      0x4e487b7100000000000000000000000000000000000000000000000000000000\n        /* \"#utility.yul\":19620:19621   */\n      0x00\n        /* \"#utility.yul\":19613:19701   */\n      mstore\n        /* \"#utility.yul\":19720:19724   */\n      0x41\n        /* \"#utility.yul\":19717:19718   */\n      0x04\n        /* \"#utility.yul\":19710:19725   */\n      mstore\n        /* \"#utility.yul\":19744:19748   */\n      0x24\n        /* \"#utility.yul\":19741:19742   */\n      0x00\n        /* \"#utility.yul\":19734:19749   */\n      revert\n        /* \"#utility.yul\":19884:20001   */\n    tag_194:\n        /* \"#utility.yul\":19993:19994   */\n      0x00\n        /* \"#utility.yul\":19990:19991   */\n      dup1\n        /* \"#utility.yul\":19983:19995   */\n      revert\n        /* \"#utility.yul\":20007:20184   */\n    tag_246:\n        /* \"#utility.yul\":20147:20176   */\n      0x41736b696e67205072696365206e6f7420736174697366696564210000000000\n        /* \"#utility.yul\":20143:20144   */\n      0x00\n        /* \"#utility.yul\":20135:20141   */\n      dup3\n        /* \"#utility.yul\":20131:20145   */\n      add\n        /* \"#utility.yul\":20124:20177   */\n      mstore\n        /* \"#utility.yul\":20007:20184   */\n      pop\n      jump\t// out\n        /* \"#utility.yul\":20190:20423   */\n    tag_251:\n        /* \"#utility.yul\":20330:20364   */\n      0x50726963652073686f756c64206265206174206c656173742073616d65206173\n        /* \"#utility.yul\":20326:20327   */\n      0x00\n        /* \"#utility.yul\":20318:20324   */\n      dup3\n        /* \"#utility.yul\":20314:20328   */\n      add\n        /* \"#utility.yul\":20307:20365   */\n      mstore\n        /* \"#utility.yul\":20399:20415   */\n      0x206c697374696e67207072696365000000000000000000000000000000000000\n        /* \"#utility.yul\":20394:20396   */\n      0x20\n        /* \"#utility.yul\":20386:20392   */\n      dup3\n        /* \"#utility.yul\":20382:20397   */\n      add\n        /* \"#utility.yul\":20375:20416   */\n      mstore\n        /* \"#utility.yul\":20190:20423   */\n      pop\n      jump\t// out\n        /* \"#utility.yul\":20429:20654   */\n    tag_256:\n        /* \"#utility.yul\":20569:20603   */\n      0x4f776e61626c653a206e6577206f776e657220697320746865207a65726f2061\n        /* \"#utility.yul\":20565:20566   */\n      0x00\n        /* \"#utility.yul\":20557:20563   */\n      dup3\n        /* \"#utility.yul\":20553:20567   */\n      add\n        /* \"#utility.yul\":20546:20604   */\n      mstore\n        /* \"#utility.yul\":20638:20646   */\n      0x6464726573730000000000000000000000000000000000000000000000000000\n        /* \"#utility.yul\":20633:20635   */\n      0x20\n        /* \"#utility.yul\":20625:20631   */\n      dup3\n        /* \"#utility.yul\":20621:20636   */\n      add\n        /* \"#utility.yul\":20614:20647   */\n      mstore\n        /* \"#utility.yul\":20429:20654   */\n      pop\n      jump\t// out\n        /* \"#utility.yul\":20660:20827   */\n    tag_261:\n        /* \"#utility.yul\":20800:20819   */\n      0x4e4654206e6f7420666f722073616c652e000000000000000000000000000000\n        /* \"#utility.yul\":20796:20797   */\n      0x00\n        /* \"#utility.yul\":20788:20794   */\n      dup3\n        /* \"#utility.yul\":20784:20798   */\n      add\n        /* \"#utility.yul\":20777:20820   */\n      mstore\n        /* \"#utility.yul\":20660:20827   */\n      pop\n      jump\t// out\n        /* \"#utility.yul\":20833:21015   */\n    tag_266:\n        /* \"#utility.yul\":20973:21007   */\n      0x4f6e6c79204974656d206f776e65722063616e206372656174652073616c652e\n        /* \"#utility.yul\":20969:20970   */\n      0x00\n        /* \"#utility.yul\":20961:20967   */\n      dup3\n        /* \"#utility.yul\":20957:20971   */\n      add\n        /* \"#utility.yul\":20950:21008   */\n      mstore\n        /* \"#utility.yul\":20833:21015   */\n      pop\n      jump\t// out\n        /* \"#utility.yul\":21021:21203   */\n    tag_271:\n        /* \"#utility.yul\":21161:21195   */\n      0x4f776e61626c653a2063616c6c6572206973206e6f7420746865206f776e6572\n        /* \"#utility.yul\":21157:21158   */\n      0x00\n        /* \"#utility.yul\":21149:21155   */\n      dup3\n        /* \"#utility.yul\":21145:21159   */\n      add\n        /* \"#utility.yul\":21138:21196   */\n      mstore\n        /* \"#utility.yul\":21021:21203   */\n      pop\n      jump\t// out\n        /* \"#utility.yul\":21209:21379   */\n    tag_276:\n        /* \"#utility.yul\":21349:21371   */\n      0x4974656d20646f6573206e6f742065786973742e000000000000000000000000\n        /* \"#utility.yul\":21345:21346   */\n      0x00\n        /* \"#utility.yul\":21337:21343   */\n      dup3\n        /* \"#utility.yul\":21333:21347   */\n      add\n        /* \"#utility.yul\":21326:21372   */\n      mstore\n        /* \"#utility.yul\":21209:21379   */\n      pop\n      jump\t// out\n        /* \"#utility.yul\":21385:21566   */\n    tag_281:\n        /* \"#utility.yul\":21525:21558   */\n      0x5265656e7472616e637947756172643a207265656e7472616e742063616c6c00\n        /* \"#utility.yul\":21521:21522   */\n      0x00\n        /* \"#utility.yul\":21513:21519   */\n      dup3\n        /* \"#utility.yul\":21509:21523   */\n      add\n        /* \"#utility.yul\":21502:21559   */\n      mstore\n        /* \"#utility.yul\":21385:21566   */\n      pop\n      jump\t// out\n        /* \"#utility.yul\":21572:21750   */\n    tag_286:\n        /* \"#utility.yul\":21712:21742   */\n      0x5072696365206d757374206265206174206c6561737420312077656900000000\n        /* \"#utility.yul\":21708:21709   */\n      0x00\n        /* \"#utility.yul\":21700:21706   */\n      dup3\n        /* \"#utility.yul\":21696:21710   */\n      add\n        /* \"#utility.yul\":21689:21743   */\n      mstore\n        /* \"#utility.yul\":21572:21750   */\n      pop\n      jump\t// out\n        /* \"#utility.yul\":21756:21878   */\n    tag_182:\n        /* \"#utility.yul\":21829:21853   */\n      tag_396\n        /* \"#utility.yul\":21847:21852   */\n      dup2\n        /* \"#utility.yul\":21829:21853   */\n      tag_216\n      jump\t// in\n    tag_396:\n        /* \"#utility.yul\":21822:21827   */\n      dup2\n        /* \"#utility.yul\":21819:21854   */\n      eq\n        /* \"#utility.yul\":21809:21872   */\n      tag_397\n      jumpi\n        /* \"#utility.yul\":21868:21869   */\n      0x00\n        /* \"#utility.yul\":21865:21866   */\n      dup1\n        /* \"#utility.yul\":21858:21870   */\n      revert\n        /* \"#utility.yul\":21809:21872   */\n    tag_397:\n        /* \"#utility.yul\":21756:21878   */\n      pop\n      jump\t// out\n        /* \"#utility.yul\":21884:22000   */\n    tag_186:\n        /* \"#utility.yul\":21954:21975   */\n      tag_399\n        /* \"#utility.yul\":21969:21974   */\n      dup2\n        /* \"#utility.yul\":21954:21975   */\n      tag_237\n      jump\t// in\n    tag_399:\n        /* \"#utility.yul\":21947:21952   */\n      dup2\n        /* \"#utility.yul\":21944:21976   */\n      eq\n        /* \"#utility.yul\":21934:21994   */\n      tag_400\n      jumpi\n        /* \"#utility.yul\":21990:21991   */\n      0x00\n        /* \"#utility.yul\":21987:21988   */\n      dup1\n        /* \"#utility.yul\":21980:21992   */\n      revert\n        /* \"#utility.yul\":21934:21994   */\n    tag_400:\n        /* \"#utility.yul\":21884:22000   */\n      pop\n      jump\t// out\n        /* \"#utility.yul\":22006:22128   */\n    tag_190:\n        /* \"#utility.yul\":22079:22103   */\n      tag_402\n        /* \"#utility.yul\":22097:22102   */\n      dup2\n        /* \"#utility.yul\":22079:22103   */\n      tag_309\n      jump\t// in\n    tag_402:\n        /* \"#utility.yul\":22072:22077   */\n      dup2\n        /* \"#utility.yul\":22069:22104   */\n      eq\n        /* \"#utility.yul\":22059:22122   */\n      tag_403\n      jumpi\n        /* \"#utility.yul\":22118:22119   */\n      0x00\n        /* \"#utility.yul\":22115:22116   */\n      dup1\n        /* \"#utility.yul\":22108:22120   */\n      revert\n        /* \"#utility.yul\":22059:22122   */\n    tag_403:\n        /* \"#utility.yul\":22006:22128   */\n      pop\n      jump\t// out\n\n    auxdata: 0xa2646970667358221220a2ca9484a8f7da4dc2ccba6397fb5f6213674625cedd3bf238410be4c72d28c564736f6c63430008070033\n}\n",
				"bytecode": {
					"linkReferences": {},
					"object": "608060405267016345785d8a00006007553480156200001d57600080fd5b506040516200228e3803806200228e8339818101604052810190620000439190620001d7565b6200006362000057620000f460201b60201c565b620000fc60201b60201c565b6001808190555081600560006101000a81548173ffffffffffffffffffffffffffffffffffffffff021916908373ffffffffffffffffffffffffffffffffffffffff16021790555080600660006101000a81548173ffffffffffffffffffffffffffffffffffffffff021916908373ffffffffffffffffffffffffffffffffffffffff160217905550505062000271565b600033905090565b60008060009054906101000a900473ffffffffffffffffffffffffffffffffffffffff169050816000806101000a81548173ffffffffffffffffffffffffffffffffffffffff021916908373ffffffffffffffffffffffffffffffffffffffff1602179055508173ffffffffffffffffffffffffffffffffffffffff168173ffffffffffffffffffffffffffffffffffffffff167f8be0079c531659141344cd1fd0a4f28419497f9722a3daafe3b4186f6b6457e060405160405180910390a35050565b600081519050620001d18162000257565b92915050565b60008060408385031215620001f157620001f062000252565b5b60006200020185828601620001c0565b92505060206200021485828601620001c0565b9150509250929050565b60006200022b8262000232565b9050919050565b600073ffffffffffffffffffffffffffffffffffffffff82169050919050565b600080fd5b62000262816200021e565b81146200026e57600080fd5b50565b61200d80620002816000396000f3fe608060405234801561001057600080fd5b50600436106100b45760003560e01c80639b8bc127116100715780639b8bc127146101675780639da1b02a14610185578063c78f19f9146101a1578063d56d229d146101bf578063e61a70c0146101dd578063f2fde38b14610214576100b4565b806353dbceb1146100b9578063715018a6146100e9578063889e2cd5146100f35780638da5cb5b1461011157806391066da81461012f5780639979c0091461014b575b600080fd5b6100d360048036038101906100ce91906115d8565b610230565b6040516100e09190611b29565b60405180910390f35b6100f161037f565b005b6100fb610407565b6040516101089190611995565b60405180910390f35b61011961042d565b6040516101269190611995565b60405180910390f35b61014960048036038101906101449190611605565b610456565b005b61016560048036038101906101609190611605565b6108fc565b005b61016f610cd1565b60405161017c91906119e7565b60405180910390f35b61019f600480360381019061019a91906115d8565b610f39565b005b6101a9611205565b6040516101b69190611b45565b60405180910390f35b6101c761120b565b6040516101d49190611995565b60405180910390f35b6101f760048036038101906101f291906115d8565b611231565b60405161020b989796959493929190611b60565b60405180910390f35b61022e6004803603810190610229919061157e565b6112e0565b005b6102386114c8565b6000600860008481526020019081526020016000206040518061010001604052908160008201548152602001600182015481526020016002820160009054906101000a900473ffffffffffffffffffffffffffffffffffffffff1673ffffffffffffffffffffffffffffffffffffffff1673ffffffffffffffffffffffffffffffffffffffff1681526020016003820160009054906101000a900473ffffffffffffffffffffffffffffffffffffffff1673ffffffffffffffffffffffffffffffffffffffff1673ffffffffffffffffffffffffffffffffffffffff168152602001600482015481526020016005820160009054906101000a900460ff161515151581526020016005820160019054906101000a900460ff161515151581526020016005820160029054906101000a900460ff161515151581525050905080915050919050565b6103876113d8565b73ffffffffffffffffffffffffffffffffffffffff166103a561042d565b73ffffffffffffffffffffffffffffffffffffffff16146103fb576040517f08c379a00000000000000000000000000000000000000000000000000000000081526004016103f290611aa9565b60405180910390fd5b61040560006113e0565b565b600660009054906101000a900473ffffffffffffffffffffffffffffffffffffffff1681565b60008060009054906101000a900473ffffffffffffffffffffffffffffffffffffffff16905090565b6002600154141561049c576040517f08c379a000000000000000000000000000000000000000000000000000000000815260040161049390611ae9565b60405180910390fd5b60026001819055506104ac6113d8565b73ffffffffffffffffffffffffffffffffffffffff166104ca61042d565b73ffffffffffffffffffffffffffffffffffffffff1614610520576040517f08c379a000000000000000000000000000000000000000000000000000000000815260040161051790611aa9565b60405180910390fd5b60008111610563576040517f08c379a000000000000000000000000000000000000000000000000000000000815260040161055a90611b09565b60405180910390fd5b6007548110156105a8576040517f08c379a000000000000000000000000000000000000000000000000000000000815260040161059f90611a29565b60405180910390fd5b6105b260026114a4565b60006105be60026114ba565b90506040518061010001604052808281526020018481526020013373ffffffffffffffffffffffffffffffffffffffff168152602001600073ffffffffffffffffffffffffffffffffffffffff1681526020018381526020016000151581526020016000151581526020016001151581525060086000838152602001908152602001600020600082015181600001556020820151816001015560408201518160020160006101000a81548173ffffffffffffffffffffffffffffffffffffffff021916908373ffffffffffffffffffffffffffffffffffffffff16021790555060608201518160030160006101000a81548173ffffffffffffffffffffffffffffffffffffffff021916908373ffffffffffffffffffffffffffffffffffffffff1602179055506080820151816004015560a08201518160050160006101000a81548160ff02191690831515021790555060c08201518160050160016101000a81548160ff02191690831515021790555060e08201518160050160026101000a81548160ff021916908315150217905550905050600660009054906101000a900473ffffffffffffffffffffffffffffffffffffffff1673ffffffffffffffffffffffffffffffffffffffff166323b872dd33306007546040518463ffffffff1660e01b81526004016107b3939291906119b0565b602060405180830381600087803b1580156107cd57600080fd5b505af11580156107e1573d6000803e3d6000fd5b505050506040513d601f19601f8201168201806040525081019061080591906115ab565b50600560009054906101000a900473ffffffffffffffffffffffffffffffffffffffff1673ffffffffffffffffffffffffffffffffffffffff166342842e0e3330866040518463ffffffff1660e01b8152600401610865939291906119b0565b600060405180830381600087803b15801561087f57600080fd5b505af1158015610893573d6000803e3d6000fd5b50505050600754600460008282546108ab9190611c28565b9250508190555082817f38690a554ffbc44eb6a75016e47d517d0db8e6c37494adc68d6d0b2c66f0ab21336000866040516108e8939291906119b0565b60405180910390a350600180819055505050565b60026001541415610942576040517f08c379a000000000000000000000000000000000000000000000000000000000815260040161093990611ae9565b60405180910390fd5b600260018190555060006008600084815260200190815260200160002060040154905060006008600085815260200190815260200160002060010154905060006008600086815260200190815260200160002060050160019054906101000a900460ff169050828410156109eb576040517f08c379a00000000000000000000000000000000000000000000000000000000081526004016109e290611a09565b60405180910390fd5b6001151581151514610a32576040517f08c379a0000000000000000000000000000000000000000000000000000000008152600401610a2990611a69565b60405180910390fd5b60006008600087815260200190815260200160002060020160009054906101000a900473ffffffffffffffffffffffffffffffffffffffff169050336008600088815260200190815260200160002060030160006101000a81548173ffffffffffffffffffffffffffffffffffffffff021916908373ffffffffffffffffffffffffffffffffffffffff160217905550336008600088815260200190815260200160002060020160006101000a81548173ffffffffffffffffffffffffffffffffffffffff021916908373ffffffffffffffffffffffffffffffffffffffff16021790555060016008600088815260200190815260200160002060050160006101000a81548160ff02191690831515021790555060006008600088815260200190815260200160002060050160016101000a81548160ff021916908315150217905550600560009054906101000a900473ffffffffffffffffffffffffffffffffffffffff1673ffffffffffffffffffffffffffffffffffffffff166323b872dd8233866040518463ffffffff1660e01b8152600401610bd4939291906119b0565b600060405180830381600087803b158015610bee57600080fd5b505af1158015610c02573d6000803e3d6000fd5b50505050600660009054906101000a900473ffffffffffffffffffffffffffffffffffffffff1673ffffffffffffffffffffffffffffffffffffffff166323b872dd3383886040518463ffffffff1660e01b8152600401610c65939291906119b0565b602060405180830381600087803b158015610c7f57600080fd5b505af1158015610c93573d6000803e3d6000fd5b505050506040513d601f19601f82011682018060405250810190610cb791906115ab565b50610cc260036114a4565b50505050600180819055505050565b60606000610cdf60026114ba565b90506000610ced60036114ba565b610cf760026114ba565b610d019190611c7e565b90506000808267ffffffffffffffff811115610d2057610d1f611da1565b5b604051908082528060200260200182016040528015610d5957816020015b610d466114c8565b815260200190600190039081610d3e5790505b50905060005b84811015610f2e5760086000600183610d789190611c28565b815260200190815260200160002060050160009054906101000a900460ff16610f1b576000600182610daa9190611c28565b90506000600860008381526020019081526020016000206040518061010001604052908160008201548152602001600182015481526020016002820160009054906101000a900473ffffffffffffffffffffffffffffffffffffffff1673ffffffffffffffffffffffffffffffffffffffff1673ffffffffffffffffffffffffffffffffffffffff1681526020016003820160009054906101000a900473ffffffffffffffffffffffffffffffffffffffff1673ffffffffffffffffffffffffffffffffffffffff1673ffffffffffffffffffffffffffffffffffffffff168152602001600482015481526020016005820160009054906101000a900460ff161515151581526020016005820160019054906101000a900460ff161515151581526020016005820160029054906101000a900460ff161515151581525050905080848681518110610efe57610efd611d72565b5b6020026020010181905250600185610f169190611c28565b945050505b8080610f2690611cfa565b915050610d5f565b508094505050505090565b60026001541415610f7f576040517f08c379a0000000000000000000000000000000000000000000000000000000008152600401610f7690611ae9565b60405180910390fd5b60026001819055506000600860008381526020019081526020016000206040518061010001604052908160008201548152602001600182015481526020016002820160009054906101000a900473ffffffffffffffffffffffffffffffffffffffff1673ffffffffffffffffffffffffffffffffffffffff1673ffffffffffffffffffffffffffffffffffffffff1681526020016003820160009054906101000a900473ffffffffffffffffffffffffffffffffffffffff1673ffffffffffffffffffffffffffffffffffffffff1673ffffffffffffffffffffffffffffffffffffffff168152602001600482015481526020016005820160009054906101000a900460ff161515151581526020016005820160019054906101000a900460ff161515151581526020016005820160029054906101000a900460ff16151515158152505090503373ffffffffffffffffffffffffffffffffffffffff16816060015173ffffffffffffffffffffffffffffffffffffffff1614611137576040517f08c379a000000000000000000000000000000000000000000000000000000000815260040161112e90611a89565b60405180910390fd5b600115158160e00151151514611182576040517f08c379a000000000000000000000000000000000000000000000000000000000815260040161117990611ac9565b60405180910390fd5b60016008600084815260200190815260200160002060050160016101000a81548160ff0219169083151502179055508060200151827f0b59dfc56db79c6259bcd97a3fc890ab90008a8b5781d89dd763e01651bc7bc833846040015185608001516040516111f2939291906119b0565b60405180910390a3506001808190555050565b60075481565b600560009054906101000a900473ffffffffffffffffffffffffffffffffffffffff1681565b60086020528060005260406000206000915090508060000154908060010154908060020160009054906101000a900473ffffffffffffffffffffffffffffffffffffffff16908060030160009054906101000a900473ffffffffffffffffffffffffffffffffffffffff16908060040154908060050160009054906101000a900460ff16908060050160019054906101000a900460ff16908060050160029054906101000a900460ff16905088565b6112e86113d8565b73ffffffffffffffffffffffffffffffffffffffff1661130661042d565b73ffffffffffffffffffffffffffffffffffffffff161461135c576040517f08c379a000000000000000000000000000000000000000000000000000000000815260040161135390611aa9565b60405180910390fd5b600073ffffffffffffffffffffffffffffffffffffffff168173ffffffffffffffffffffffffffffffffffffffff1614156113cc576040517f08c379a00000000000000000000000000000000000000000000000000000000081526004016113c390611a49565b60405180910390fd5b6113d5816113e0565b50565b600033905090565b60008060009054906101000a900473ffffffffffffffffffffffffffffffffffffffff169050816000806101000a81548173ffffffffffffffffffffffffffffffffffffffff021916908373ffffffffffffffffffffffffffffffffffffffff1602179055508173ffffffffffffffffffffffffffffffffffffffff168173ffffffffffffffffffffffffffffffffffffffff167f8be0079c531659141344cd1fd0a4f28419497f9722a3daafe3b4186f6b6457e060405160405180910390a35050565b6001816000016000828254019250508190555050565b600081600001549050919050565b6040518061010001604052806000815260200160008152602001600073ffffffffffffffffffffffffffffffffffffffff168152602001600073ffffffffffffffffffffffffffffffffffffffff168152602001600081526020016000151581526020016000151581526020016000151581525090565b60008135905061154e81611f92565b92915050565b60008151905061156381611fa9565b92915050565b60008135905061157881611fc0565b92915050565b60006020828403121561159457611593611dd0565b5b60006115a28482850161153f565b91505092915050565b6000602082840312156115c1576115c0611dd0565b5b60006115cf84828501611554565b91505092915050565b6000602082840312156115ee576115ed611dd0565b5b60006115fc84828501611569565b91505092915050565b6000806040838503121561161c5761161b611dd0565b5b600061162a85828601611569565b925050602061163b85828601611569565b9150509250929050565b60006116518383611833565b6101008301905092915050565b61166781611cb2565b82525050565b61167681611cb2565b82525050565b600061168782611bee565b6116918185611c06565b935061169c83611bde565b8060005b838110156116cd5781516116b48882611645565b97506116bf83611bf9565b9250506001810190506116a0565b5085935050505092915050565b6116e381611cc4565b82525050565b6116f281611cc4565b82525050565b6000611705601b83611c17565b915061171082611dd5565b602082019050919050565b6000611728602e83611c17565b915061173382611dfe565b604082019050919050565b600061174b602683611c17565b915061175682611e4d565b604082019050919050565b600061176e601183611c17565b915061177982611e9c565b602082019050919050565b6000611791602083611c17565b915061179c82611ec5565b602082019050919050565b60006117b4602083611c17565b91506117bf82611eee565b602082019050919050565b60006117d7601483611c17565b91506117e282611f17565b602082019050919050565b60006117fa601f83611c17565b915061180582611f40565b602082019050919050565b600061181d601c83611c17565b915061182882611f69565b602082019050919050565b6101008201600082015161184a6000850182611977565b50602082015161185d6020850182611977565b506040820151611870604085018261165e565b506060820151611883606085018261165e565b5060808201516118966080850182611977565b5060a08201516118a960a08501826116da565b5060c08201516118bc60c08501826116da565b5060e08201516118cf60e08501826116da565b50505050565b610100820160008201516118ec6000850182611977565b5060208201516118ff6020850182611977565b506040820151611912604085018261165e565b506060820151611925606085018261165e565b5060808201516119386080850182611977565b5060a082015161194b60a08501826116da565b5060c082015161195e60c08501826116da565b5060e082015161197160e08501826116da565b50505050565b61198081611cf0565b82525050565b61198f81611cf0565b82525050565b60006020820190506119aa600083018461166d565b92915050565b60006060820190506119c5600083018661166d565b6119d2602083018561166d565b6119df6040830184611986565b949350505050565b60006020820190508181036000830152611a01818461167c565b905092915050565b60006020820190508181036000830152611a22816116f8565b9050919050565b60006020820190508181036000830152611a428161171b565b9050919050565b60006020820190508181036000830152611a628161173e565b9050919050565b60006020820190508181036000830152611a8281611761565b9050919050565b60006020820190508181036000830152611aa281611784565b9050919050565b60006020820190508181036000830152611ac2816117a7565b9050919050565b60006020820190508181036000830152611ae2816117ca565b9050919050565b60006020820190508181036000830152611b02816117ed565b9050919050565b60006020820190508181036000830152611b2281611810565b9050919050565b600061010082019050611b3f60008301846118d5565b92915050565b6000602082019050611b5a6000830184611986565b92915050565b600061010082019050611b76600083018b611986565b611b83602083018a611986565b611b90604083018961166d565b611b9d606083018861166d565b611baa6080830187611986565b611bb760a08301866116e9565b611bc460c08301856116e9565b611bd160e08301846116e9565b9998505050505050505050565b6000819050602082019050919050565b600081519050919050565b6000602082019050919050565b600082825260208201905092915050565b600082825260208201905092915050565b6000611c3382611cf0565b9150611c3e83611cf0565b9250827fffffffffffffffffffffffffffffffffffffffffffffffffffffffffffffffff03821115611c7357611c72611d43565b5b828201905092915050565b6000611c8982611cf0565b9150611c9483611cf0565b925082821015611ca757611ca6611d43565b5b828203905092915050565b6000611cbd82611cd0565b9050919050565b60008115159050919050565b600073ffffffffffffffffffffffffffffffffffffffff82169050919050565b6000819050919050565b6000611d0582611cf0565b91507fffffffffffffffffffffffffffffffffffffffffffffffffffffffffffffffff821415611d3857611d37611d43565b5b600182019050919050565b7f4e487b7100000000000000000000000000000000000000000000000000000000600052601160045260246000fd5b7f4e487b7100000000000000000000000000000000000000000000000000000000600052603260045260246000fd5b7f4e487b7100000000000000000000000000000000000000000000000000000000600052604160045260246000fd5b600080fd5b7f41736b696e67205072696365206e6f7420736174697366696564210000000000600082015250565b7f50726963652073686f756c64206265206174206c656173742073616d6520617360008201527f206c697374696e67207072696365000000000000000000000000000000000000602082015250565b7f4f776e61626c653a206e6577206f776e657220697320746865207a65726f206160008201527f6464726573730000000000000000000000000000000000000000000000000000602082015250565b7f4e4654206e6f7420666f722073616c652e000000000000000000000000000000600082015250565b7f4f6e6c79204974656d206f776e65722063616e206372656174652073616c652e600082015250565b7f4f776e61626c653a2063616c6c6572206973206e6f7420746865206f776e6572600082015250565b7f4974656d20646f6573206e6f742065786973742e000000000000000000000000600082015250565b7f5265656e7472616e637947756172643a207265656e7472616e742063616c6c00600082015250565b7f5072696365206d757374206265206174206c6561737420312077656900000000600082015250565b611f9b81611cb2565b8114611fa657600080fd5b50565b611fb281611cc4565b8114611fbd57600080fd5b50565b611fc981611cf0565b8114611fd457600080fd5b5056fea2646970667358221220a2ca9484a8f7da4dc2ccba6397fb5f6213674625cedd3bf238410be4c72d28c564736f6c63430008070033",
					"opcodes": "PUSH1 0x80 PUSH1 0x40 MSTORE PUSH8 0x16345785D8A0000 PUSH1 0x7 SSTORE CALLVALUE DUP1 ISZERO PUSH3 0x1D JUMPI PUSH1 0x0 DUP1 REVERT JUMPDEST POP PUSH1 0x40 MLOAD PUSH3 0x228E CODESIZE SUB DUP1 PUSH3 0x228E DUP4 CODECOPY DUP2 DUP2 ADD PUSH1 0x40 MSTORE DUP2 ADD SWAP1 PUSH3 0x43 SWAP2 SWAP1 PUSH3 0x1D7 JUMP JUMPDEST PUSH3 0x63 PUSH3 0x57 PUSH3 0xF4 PUSH1 0x20 SHL PUSH1 0x20 SHR JUMP JUMPDEST PUSH3 0xFC PUSH1 0x20 SHL PUSH1 0x20 SHR JUMP JUMPDEST PUSH1 0x1 DUP1 DUP2 SWAP1 SSTORE POP DUP2 PUSH1 0x5 PUSH1 0x0 PUSH2 0x100 EXP DUP2 SLOAD DUP2 PUSH20 0xFFFFFFFFFFFFFFFFFFFFFFFFFFFFFFFFFFFFFFFF MUL NOT AND SWAP1 DUP4 PUSH20 0xFFFFFFFFFFFFFFFFFFFFFFFFFFFFFFFFFFFFFFFF AND MUL OR SWAP1 SSTORE POP DUP1 PUSH1 0x6 PUSH1 0x0 PUSH2 0x100 EXP DUP2 SLOAD DUP2 PUSH20 0xFFFFFFFFFFFFFFFFFFFFFFFFFFFFFFFFFFFFFFFF MUL NOT AND SWAP1 DUP4 PUSH20 0xFFFFFFFFFFFFFFFFFFFFFFFFFFFFFFFFFFFFFFFF AND MUL OR SWAP1 SSTORE POP POP POP PUSH3 0x271 JUMP JUMPDEST PUSH1 0x0 CALLER SWAP1 POP SWAP1 JUMP JUMPDEST PUSH1 0x0 DUP1 PUSH1 0x0 SWAP1 SLOAD SWAP1 PUSH2 0x100 EXP SWAP1 DIV PUSH20 0xFFFFFFFFFFFFFFFFFFFFFFFFFFFFFFFFFFFFFFFF AND SWAP1 POP DUP2 PUSH1 0x0 DUP1 PUSH2 0x100 EXP DUP2 SLOAD DUP2 PUSH20 0xFFFFFFFFFFFFFFFFFFFFFFFFFFFFFFFFFFFFFFFF MUL NOT AND SWAP1 DUP4 PUSH20 0xFFFFFFFFFFFFFFFFFFFFFFFFFFFFFFFFFFFFFFFF AND MUL OR SWAP1 SSTORE POP DUP2 PUSH20 0xFFFFFFFFFFFFFFFFFFFFFFFFFFFFFFFFFFFFFFFF AND DUP2 PUSH20 0xFFFFFFFFFFFFFFFFFFFFFFFFFFFFFFFFFFFFFFFF AND PUSH32 0x8BE0079C531659141344CD1FD0A4F28419497F9722A3DAAFE3B4186F6B6457E0 PUSH1 0x40 MLOAD PUSH1 0x40 MLOAD DUP1 SWAP2 SUB SWAP1 LOG3 POP POP JUMP JUMPDEST PUSH1 0x0 DUP2 MLOAD SWAP1 POP PUSH3 0x1D1 DUP2 PUSH3 0x257 JUMP JUMPDEST SWAP3 SWAP2 POP POP JUMP JUMPDEST PUSH1 0x0 DUP1 PUSH1 0x40 DUP4 DUP6 SUB SLT ISZERO PUSH3 0x1F1 JUMPI PUSH3 0x1F0 PUSH3 0x252 JUMP JUMPDEST JUMPDEST PUSH1 0x0 PUSH3 0x201 DUP6 DUP3 DUP7 ADD PUSH3 0x1C0 JUMP JUMPDEST SWAP3 POP POP PUSH1 0x20 PUSH3 0x214 DUP6 DUP3 DUP7 ADD PUSH3 0x1C0 JUMP JUMPDEST SWAP2 POP POP SWAP3 POP SWAP3 SWAP1 POP JUMP JUMPDEST PUSH1 0x0 PUSH3 0x22B DUP3 PUSH3 0x232 JUMP JUMPDEST SWAP1 POP SWAP2 SWAP1 POP JUMP JUMPDEST PUSH1 0x0 PUSH20 0xFFFFFFFFFFFFFFFFFFFFFFFFFFFFFFFFFFFFFFFF DUP3 AND SWAP1 POP SWAP2 SWAP1 POP JUMP JUMPDEST PUSH1 0x0 DUP1 REVERT JUMPDEST PUSH3 0x262 DUP2 PUSH3 0x21E JUMP JUMPDEST DUP2 EQ PUSH3 0x26E JUMPI PUSH1 0x0 DUP1 REVERT JUMPDEST POP JUMP JUMPDEST PUSH2 0x200D DUP1 PUSH3 0x281 PUSH1 0x0 CODECOPY PUSH1 0x0 RETURN INVALID PUSH1 0x80 PUSH1 0x40 MSTORE CALLVALUE DUP1 ISZERO PUSH2 0x10 JUMPI PUSH1 0x0 DUP1 REVERT JUMPDEST POP PUSH1 0x4 CALLDATASIZE LT PUSH2 0xB4 JUMPI PUSH1 0x0 CALLDATALOAD PUSH1 0xE0 SHR DUP1 PUSH4 0x9B8BC127 GT PUSH2 0x71 JUMPI DUP1 PUSH4 0x9B8BC127 EQ PUSH2 0x167 JUMPI DUP1 PUSH4 0x9DA1B02A EQ PUSH2 0x185 JUMPI DUP1 PUSH4 0xC78F19F9 EQ PUSH2 0x1A1 JUMPI DUP1 PUSH4 0xD56D229D EQ PUSH2 0x1BF JUMPI DUP1 PUSH4 0xE61A70C0 EQ PUSH2 0x1DD JUMPI DUP1 PUSH4 0xF2FDE38B EQ PUSH2 0x214 JUMPI PUSH2 0xB4 JUMP JUMPDEST DUP1 PUSH4 0x53DBCEB1 EQ PUSH2 0xB9 JUMPI DUP1 PUSH4 0x715018A6 EQ PUSH2 0xE9 JUMPI DUP1 PUSH4 0x889E2CD5 EQ PUSH2 0xF3 JUMPI DUP1 PUSH4 0x8DA5CB5B EQ PUSH2 0x111 JUMPI DUP1 PUSH4 0x91066DA8 EQ PUSH2 0x12F JUMPI DUP1 PUSH4 0x9979C009 EQ PUSH2 0x14B JUMPI JUMPDEST PUSH1 0x0 DUP1 REVERT JUMPDEST PUSH2 0xD3 PUSH1 0x4 DUP1 CALLDATASIZE SUB DUP2 ADD SWAP1 PUSH2 0xCE SWAP2 SWAP1 PUSH2 0x15D8 JUMP JUMPDEST PUSH2 0x230 JUMP JUMPDEST PUSH1 0x40 MLOAD PUSH2 0xE0 SWAP2 SWAP1 PUSH2 0x1B29 JUMP JUMPDEST PUSH1 0x40 MLOAD DUP1 SWAP2 SUB SWAP1 RETURN JUMPDEST PUSH2 0xF1 PUSH2 0x37F JUMP JUMPDEST STOP JUMPDEST PUSH2 0xFB PUSH2 0x407 JUMP JUMPDEST PUSH1 0x40 MLOAD PUSH2 0x108 SWAP2 SWAP1 PUSH2 0x1995 JUMP JUMPDEST PUSH1 0x40 MLOAD DUP1 SWAP2 SUB SWAP1 RETURN JUMPDEST PUSH2 0x119 PUSH2 0x42D JUMP JUMPDEST PUSH1 0x40 MLOAD PUSH2 0x126 SWAP2 SWAP1 PUSH2 0x1995 JUMP JUMPDEST PUSH1 0x40 MLOAD DUP1 SWAP2 SUB SWAP1 RETURN JUMPDEST PUSH2 0x149 PUSH1 0x4 DUP1 CALLDATASIZE SUB DUP2 ADD SWAP1 PUSH2 0x144 SWAP2 SWAP1 PUSH2 0x1605 JUMP JUMPDEST PUSH2 0x456 JUMP JUMPDEST STOP JUMPDEST PUSH2 0x165 PUSH1 0x4 DUP1 CALLDATASIZE SUB DUP2 ADD SWAP1 PUSH2 0x160 SWAP2 SWAP1 PUSH2 0x1605 JUMP JUMPDEST PUSH2 0x8FC JUMP JUMPDEST STOP JUMPDEST PUSH2 0x16F PUSH2 0xCD1 JUMP JUMPDEST PUSH1 0x40 MLOAD PUSH2 0x17C SWAP2 SWAP1 PUSH2 0x19E7 JUMP JUMPDEST PUSH1 0x40 MLOAD DUP1 SWAP2 SUB SWAP1 RETURN JUMPDEST PUSH2 0x19F PUSH1 0x4 DUP1 CALLDATASIZE SUB DUP2 ADD SWAP1 PUSH2 0x19A SWAP2 SWAP1 PUSH2 0x15D8 JUMP JUMPDEST PUSH2 0xF39 JUMP JUMPDEST STOP JUMPDEST PUSH2 0x1A9 PUSH2 0x1205 JUMP JUMPDEST PUSH1 0x40 MLOAD PUSH2 0x1B6 SWAP2 SWAP1 PUSH2 0x1B45 JUMP JUMPDEST PUSH1 0x40 MLOAD DUP1 SWAP2 SUB SWAP1 RETURN JUMPDEST PUSH2 0x1C7 PUSH2 0x120B JUMP JUMPDEST PUSH1 0x40 MLOAD PUSH2 0x1D4 SWAP2 SWAP1 PUSH2 0x1995 JUMP JUMPDEST PUSH1 0x40 MLOAD DUP1 SWAP2 SUB SWAP1 RETURN JUMPDEST PUSH2 0x1F7 PUSH1 0x4 DUP1 CALLDATASIZE SUB DUP2 ADD SWAP1 PUSH2 0x1F2 SWAP2 SWAP1 PUSH2 0x15D8 JUMP JUMPDEST PUSH2 0x1231 JUMP JUMPDEST PUSH1 0x40 MLOAD PUSH2 0x20B SWAP9 SWAP8 SWAP7 SWAP6 SWAP5 SWAP4 SWAP3 SWAP2 SWAP1 PUSH2 0x1B60 JUMP JUMPDEST PUSH1 0x40 MLOAD DUP1 SWAP2 SUB SWAP1 RETURN JUMPDEST PUSH2 0x22E PUSH1 0x4 DUP1 CALLDATASIZE SUB DUP2 ADD SWAP1 PUSH2 0x229 SWAP2 SWAP1 PUSH2 0x157E JUMP JUMPDEST PUSH2 0x12E0 JUMP JUMPDEST STOP JUMPDEST PUSH2 0x238 PUSH2 0x14C8 JUMP JUMPDEST PUSH1 0x0 PUSH1 0x8 PUSH1 0x0 DUP5 DUP2 MSTORE PUSH1 0x20 ADD SWAP1 DUP2 MSTORE PUSH1 0x20 ADD PUSH1 0x0 KECCAK256 PUSH1 0x40 MLOAD DUP1 PUSH2 0x100 ADD PUSH1 0x40 MSTORE SWAP1 DUP2 PUSH1 0x0 DUP3 ADD SLOAD DUP2 MSTORE PUSH1 0x20 ADD PUSH1 0x1 DUP3 ADD SLOAD DUP2 MSTORE PUSH1 0x20 ADD PUSH1 0x2 DUP3 ADD PUSH1 0x0 SWAP1 SLOAD SWAP1 PUSH2 0x100 EXP SWAP1 DIV PUSH20 0xFFFFFFFFFFFFFFFFFFFFFFFFFFFFFFFFFFFFFFFF AND PUSH20 0xFFFFFFFFFFFFFFFFFFFFFFFFFFFFFFFFFFFFFFFF AND PUSH20 0xFFFFFFFFFFFFFFFFFFFFFFFFFFFFFFFFFFFFFFFF AND DUP2 MSTORE PUSH1 0x20 ADD PUSH1 0x3 DUP3 ADD PUSH1 0x0 SWAP1 SLOAD SWAP1 PUSH2 0x100 EXP SWAP1 DIV PUSH20 0xFFFFFFFFFFFFFFFFFFFFFFFFFFFFFFFFFFFFFFFF AND PUSH20 0xFFFFFFFFFFFFFFFFFFFFFFFFFFFFFFFFFFFFFFFF AND PUSH20 0xFFFFFFFFFFFFFFFFFFFFFFFFFFFFFFFFFFFFFFFF AND DUP2 MSTORE PUSH1 0x20 ADD PUSH1 0x4 DUP3 ADD SLOAD DUP2 MSTORE PUSH1 0x20 ADD PUSH1 0x5 DUP3 ADD PUSH1 0x0 SWAP1 SLOAD SWAP1 PUSH2 0x100 EXP SWAP1 DIV PUSH1 0xFF AND ISZERO ISZERO ISZERO ISZERO DUP2 MSTORE PUSH1 0x20 ADD PUSH1 0x5 DUP3 ADD PUSH1 0x1 SWAP1 SLOAD SWAP1 PUSH2 0x100 EXP SWAP1 DIV PUSH1 0xFF AND ISZERO ISZERO ISZERO ISZERO DUP2 MSTORE PUSH1 0x20 ADD PUSH1 0x5 DUP3 ADD PUSH1 0x2 SWAP1 SLOAD SWAP1 PUSH2 0x100 EXP SWAP1 DIV PUSH1 0xFF AND ISZERO ISZERO ISZERO ISZERO DUP2 MSTORE POP POP SWAP1 POP DUP1 SWAP2 POP POP SWAP2 SWAP1 POP JUMP JUMPDEST PUSH2 0x387 PUSH2 0x13D8 JUMP JUMPDEST PUSH20 0xFFFFFFFFFFFFFFFFFFFFFFFFFFFFFFFFFFFFFFFF AND PUSH2 0x3A5 PUSH2 0x42D JUMP JUMPDEST PUSH20 0xFFFFFFFFFFFFFFFFFFFFFFFFFFFFFFFFFFFFFFFF AND EQ PUSH2 0x3FB JUMPI PUSH1 0x40 MLOAD PUSH32 0x8C379A000000000000000000000000000000000000000000000000000000000 DUP2 MSTORE PUSH1 0x4 ADD PUSH2 0x3F2 SWAP1 PUSH2 0x1AA9 JUMP JUMPDEST PUSH1 0x40 MLOAD DUP1 SWAP2 SUB SWAP1 REVERT JUMPDEST PUSH2 0x405 PUSH1 0x0 PUSH2 0x13E0 JUMP JUMPDEST JUMP JUMPDEST PUSH1 0x6 PUSH1 0x0 SWAP1 SLOAD SWAP1 PUSH2 0x100 EXP SWAP1 DIV PUSH20 0xFFFFFFFFFFFFFFFFFFFFFFFFFFFFFFFFFFFFFFFF AND DUP2 JUMP JUMPDEST PUSH1 0x0 DUP1 PUSH1 0x0 SWAP1 SLOAD SWAP1 PUSH2 0x100 EXP SWAP1 DIV PUSH20 0xFFFFFFFFFFFFFFFFFFFFFFFFFFFFFFFFFFFFFFFF AND SWAP1 POP SWAP1 JUMP JUMPDEST PUSH1 0x2 PUSH1 0x1 SLOAD EQ ISZERO PUSH2 0x49C JUMPI PUSH1 0x40 MLOAD PUSH32 0x8C379A000000000000000000000000000000000000000000000000000000000 DUP2 MSTORE PUSH1 0x4 ADD PUSH2 0x493 SWAP1 PUSH2 0x1AE9 JUMP JUMPDEST PUSH1 0x40 MLOAD DUP1 SWAP2 SUB SWAP1 REVERT JUMPDEST PUSH1 0x2 PUSH1 0x1 DUP2 SWAP1 SSTORE POP PUSH2 0x4AC PUSH2 0x13D8 JUMP JUMPDEST PUSH20 0xFFFFFFFFFFFFFFFFFFFFFFFFFFFFFFFFFFFFFFFF AND PUSH2 0x4CA PUSH2 0x42D JUMP JUMPDEST PUSH20 0xFFFFFFFFFFFFFFFFFFFFFFFFFFFFFFFFFFFFFFFF AND EQ PUSH2 0x520 JUMPI PUSH1 0x40 MLOAD PUSH32 0x8C379A000000000000000000000000000000000000000000000000000000000 DUP2 MSTORE PUSH1 0x4 ADD PUSH2 0x517 SWAP1 PUSH2 0x1AA9 JUMP JUMPDEST PUSH1 0x40 MLOAD DUP1 SWAP2 SUB SWAP1 REVERT JUMPDEST PUSH1 0x0 DUP2 GT PUSH2 0x563 JUMPI PUSH1 0x40 MLOAD PUSH32 0x8C379A000000000000000000000000000000000000000000000000000000000 DUP2 MSTORE PUSH1 0x4 ADD PUSH2 0x55A SWAP1 PUSH2 0x1B09 JUMP JUMPDEST PUSH1 0x40 MLOAD DUP1 SWAP2 SUB SWAP1 REVERT JUMPDEST PUSH1 0x7 SLOAD DUP2 LT ISZERO PUSH2 0x5A8 JUMPI PUSH1 0x40 MLOAD PUSH32 0x8C379A000000000000000000000000000000000000000000000000000000000 DUP2 MSTORE PUSH1 0x4 ADD PUSH2 0x59F SWAP1 PUSH2 0x1A29 JUMP JUMPDEST PUSH1 0x40 MLOAD DUP1 SWAP2 SUB SWAP1 REVERT JUMPDEST PUSH2 0x5B2 PUSH1 0x2 PUSH2 0x14A4 JUMP JUMPDEST PUSH1 0x0 PUSH2 0x5BE PUSH1 0x2 PUSH2 0x14BA JUMP JUMPDEST SWAP1 POP PUSH1 0x40 MLOAD DUP1 PUSH2 0x100 ADD PUSH1 0x40 MSTORE DUP1 DUP3 DUP2 MSTORE PUSH1 0x20 ADD DUP5 DUP2 MSTORE PUSH1 0x20 ADD CALLER PUSH20 0xFFFFFFFFFFFFFFFFFFFFFFFFFFFFFFFFFFFFFFFF AND DUP2 MSTORE PUSH1 0x20 ADD PUSH1 0x0 PUSH20 0xFFFFFFFFFFFFFFFFFFFFFFFFFFFFFFFFFFFFFFFF AND DUP2 MSTORE PUSH1 0x20 ADD DUP4 DUP2 MSTORE PUSH1 0x20 ADD PUSH1 0x0 ISZERO ISZERO DUP2 MSTORE PUSH1 0x20 ADD PUSH1 0x0 ISZERO ISZERO DUP2 MSTORE PUSH1 0x20 ADD PUSH1 0x1 ISZERO ISZERO DUP2 MSTORE POP PUSH1 0x8 PUSH1 0x0 DUP4 DUP2 MSTORE PUSH1 0x20 ADD SWAP1 DUP2 MSTORE PUSH1 0x20 ADD PUSH1 0x0 KECCAK256 PUSH1 0x0 DUP3 ADD MLOAD DUP2 PUSH1 0x0 ADD SSTORE PUSH1 0x20 DUP3 ADD MLOAD DUP2 PUSH1 0x1 ADD SSTORE PUSH1 0x40 DUP3 ADD MLOAD DUP2 PUSH1 0x2 ADD PUSH1 0x0 PUSH2 0x100 EXP DUP2 SLOAD DUP2 PUSH20 0xFFFFFFFFFFFFFFFFFFFFFFFFFFFFFFFFFFFFFFFF MUL NOT AND SWAP1 DUP4 PUSH20 0xFFFFFFFFFFFFFFFFFFFFFFFFFFFFFFFFFFFFFFFF AND MUL OR SWAP1 SSTORE POP PUSH1 0x60 DUP3 ADD MLOAD DUP2 PUSH1 0x3 ADD PUSH1 0x0 PUSH2 0x100 EXP DUP2 SLOAD DUP2 PUSH20 0xFFFFFFFFFFFFFFFFFFFFFFFFFFFFFFFFFFFFFFFF MUL NOT AND SWAP1 DUP4 PUSH20 0xFFFFFFFFFFFFFFFFFFFFFFFFFFFFFFFFFFFFFFFF AND MUL OR SWAP1 SSTORE POP PUSH1 0x80 DUP3 ADD MLOAD DUP2 PUSH1 0x4 ADD SSTORE PUSH1 0xA0 DUP3 ADD MLOAD DUP2 PUSH1 0x5 ADD PUSH1 0x0 PUSH2 0x100 EXP DUP2 SLOAD DUP2 PUSH1 0xFF MUL NOT AND SWAP1 DUP4 ISZERO ISZERO MUL OR SWAP1 SSTORE POP PUSH1 0xC0 DUP3 ADD MLOAD DUP2 PUSH1 0x5 ADD PUSH1 0x1 PUSH2 0x100 EXP DUP2 SLOAD DUP2 PUSH1 0xFF MUL NOT AND SWAP1 DUP4 ISZERO ISZERO MUL OR SWAP1 SSTORE POP PUSH1 0xE0 DUP3 ADD MLOAD DUP2 PUSH1 0x5 ADD PUSH1 0x2 PUSH2 0x100 EXP DUP2 SLOAD DUP2 PUSH1 0xFF MUL NOT AND SWAP1 DUP4 ISZERO ISZERO MUL OR SWAP1 SSTORE POP SWAP1 POP POP PUSH1 0x6 PUSH1 0x0 SWAP1 SLOAD SWAP1 PUSH2 0x100 EXP SWAP1 DIV PUSH20 0xFFFFFFFFFFFFFFFFFFFFFFFFFFFFFFFFFFFFFFFF AND PUSH20 0xFFFFFFFFFFFFFFFFFFFFFFFFFFFFFFFFFFFFFFFF AND PUSH4 0x23B872DD CALLER ADDRESS PUSH1 0x7 SLOAD PUSH1 0x40 MLOAD DUP5 PUSH4 0xFFFFFFFF AND PUSH1 0xE0 SHL DUP2 MSTORE PUSH1 0x4 ADD PUSH2 0x7B3 SWAP4 SWAP3 SWAP2 SWAP1 PUSH2 0x19B0 JUMP JUMPDEST PUSH1 0x20 PUSH1 0x40 MLOAD DUP1 DUP4 SUB DUP2 PUSH1 0x0 DUP8 DUP1 EXTCODESIZE ISZERO DUP1 ISZERO PUSH2 0x7CD JUMPI PUSH1 0x0 DUP1 REVERT JUMPDEST POP GAS CALL ISZERO DUP1 ISZERO PUSH2 0x7E1 JUMPI RETURNDATASIZE PUSH1 0x0 DUP1 RETURNDATACOPY RETURNDATASIZE PUSH1 0x0 REVERT JUMPDEST POP POP POP POP PUSH1 0x40 MLOAD RETURNDATASIZE PUSH1 0x1F NOT PUSH1 0x1F DUP3 ADD AND DUP3 ADD DUP1 PUSH1 0x40 MSTORE POP DUP2 ADD SWAP1 PUSH2 0x805 SWAP2 SWAP1 PUSH2 0x15AB JUMP JUMPDEST POP PUSH1 0x5 PUSH1 0x0 SWAP1 SLOAD SWAP1 PUSH2 0x100 EXP SWAP1 DIV PUSH20 0xFFFFFFFFFFFFFFFFFFFFFFFFFFFFFFFFFFFFFFFF AND PUSH20 0xFFFFFFFFFFFFFFFFFFFFFFFFFFFFFFFFFFFFFFFF AND PUSH4 0x42842E0E CALLER ADDRESS DUP7 PUSH1 0x40 MLOAD DUP5 PUSH4 0xFFFFFFFF AND PUSH1 0xE0 SHL DUP2 MSTORE PUSH1 0x4 ADD PUSH2 0x865 SWAP4 SWAP3 SWAP2 SWAP1 PUSH2 0x19B0 JUMP JUMPDEST PUSH1 0x0 PUSH1 0x40 MLOAD DUP1 DUP4 SUB DUP2 PUSH1 0x0 DUP8 DUP1 EXTCODESIZE ISZERO DUP1 ISZERO PUSH2 0x87F JUMPI PUSH1 0x0 DUP1 REVERT JUMPDEST POP GAS CALL ISZERO DUP1 ISZERO PUSH2 0x893 JUMPI RETURNDATASIZE PUSH1 0x0 DUP1 RETURNDATACOPY RETURNDATASIZE PUSH1 0x0 REVERT JUMPDEST POP POP POP POP PUSH1 0x7 SLOAD PUSH1 0x4 PUSH1 0x0 DUP3 DUP3 SLOAD PUSH2 0x8AB SWAP2 SWAP1 PUSH2 0x1C28 JUMP JUMPDEST SWAP3 POP POP DUP2 SWAP1 SSTORE POP DUP3 DUP2 PUSH32 0x38690A554FFBC44EB6A75016E47D517D0DB8E6C37494ADC68D6D0B2C66F0AB21 CALLER PUSH1 0x0 DUP7 PUSH1 0x40 MLOAD PUSH2 0x8E8 SWAP4 SWAP3 SWAP2 SWAP1 PUSH2 0x19B0 JUMP JUMPDEST PUSH1 0x40 MLOAD DUP1 SWAP2 SUB SWAP1 LOG3 POP PUSH1 0x1 DUP1 DUP2 SWAP1 SSTORE POP POP POP JUMP JUMPDEST PUSH1 0x2 PUSH1 0x1 SLOAD EQ ISZERO PUSH2 0x942 JUMPI PUSH1 0x40 MLOAD PUSH32 0x8C379A000000000000000000000000000000000000000000000000000000000 DUP2 MSTORE PUSH1 0x4 ADD PUSH2 0x939 SWAP1 PUSH2 0x1AE9 JUMP JUMPDEST PUSH1 0x40 MLOAD DUP1 SWAP2 SUB SWAP1 REVERT JUMPDEST PUSH1 0x2 PUSH1 0x1 DUP2 SWAP1 SSTORE POP PUSH1 0x0 PUSH1 0x8 PUSH1 0x0 DUP5 DUP2 MSTORE PUSH1 0x20 ADD SWAP1 DUP2 MSTORE PUSH1 0x20 ADD PUSH1 0x0 KECCAK256 PUSH1 0x4 ADD SLOAD SWAP1 POP PUSH1 0x0 PUSH1 0x8 PUSH1 0x0 DUP6 DUP2 MSTORE PUSH1 0x20 ADD SWAP1 DUP2 MSTORE PUSH1 0x20 ADD PUSH1 0x0 KECCAK256 PUSH1 0x1 ADD SLOAD SWAP1 POP PUSH1 0x0 PUSH1 0x8 PUSH1 0x0 DUP7 DUP2 MSTORE PUSH1 0x20 ADD SWAP1 DUP2 MSTORE PUSH1 0x20 ADD PUSH1 0x0 KECCAK256 PUSH1 0x5 ADD PUSH1 0x1 SWAP1 SLOAD SWAP1 PUSH2 0x100 EXP SWAP1 DIV PUSH1 0xFF AND SWAP1 POP DUP3 DUP5 LT ISZERO PUSH2 0x9EB JUMPI PUSH1 0x40 MLOAD PUSH32 0x8C379A000000000000000000000000000000000000000000000000000000000 DUP2 MSTORE PUSH1 0x4 ADD PUSH2 0x9E2 SWAP1 PUSH2 0x1A09 JUMP JUMPDEST PUSH1 0x40 MLOAD DUP1 SWAP2 SUB SWAP1 REVERT JUMPDEST PUSH1 0x1 ISZERO ISZERO DUP2 ISZERO ISZERO EQ PUSH2 0xA32 JUMPI PUSH1 0x40 MLOAD PUSH32 0x8C379A000000000000000000000000000000000000000000000000000000000 DUP2 MSTORE PUSH1 0x4 ADD PUSH2 0xA29 SWAP1 PUSH2 0x1A69 JUMP JUMPDEST PUSH1 0x40 MLOAD DUP1 SWAP2 SUB SWAP1 REVERT JUMPDEST PUSH1 0x0 PUSH1 0x8 PUSH1 0x0 DUP8 DUP2 MSTORE PUSH1 0x20 ADD SWAP1 DUP2 MSTORE PUSH1 0x20 ADD PUSH1 0x0 KECCAK256 PUSH1 0x2 ADD PUSH1 0x0 SWAP1 SLOAD SWAP1 PUSH2 0x100 EXP SWAP1 DIV PUSH20 0xFFFFFFFFFFFFFFFFFFFFFFFFFFFFFFFFFFFFFFFF AND SWAP1 POP CALLER PUSH1 0x8 PUSH1 0x0 DUP9 DUP2 MSTORE PUSH1 0x20 ADD SWAP1 DUP2 MSTORE PUSH1 0x20 ADD PUSH1 0x0 KECCAK256 PUSH1 0x3 ADD PUSH1 0x0 PUSH2 0x100 EXP DUP2 SLOAD DUP2 PUSH20 0xFFFFFFFFFFFFFFFFFFFFFFFFFFFFFFFFFFFFFFFF MUL NOT AND SWAP1 DUP4 PUSH20 0xFFFFFFFFFFFFFFFFFFFFFFFFFFFFFFFFFFFFFFFF AND MUL OR SWAP1 SSTORE POP CALLER PUSH1 0x8 PUSH1 0x0 DUP9 DUP2 MSTORE PUSH1 0x20 ADD SWAP1 DUP2 MSTORE PUSH1 0x20 ADD PUSH1 0x0 KECCAK256 PUSH1 0x2 ADD PUSH1 0x0 PUSH2 0x100 EXP DUP2 SLOAD DUP2 PUSH20 0xFFFFFFFFFFFFFFFFFFFFFFFFFFFFFFFFFFFFFFFF MUL NOT AND SWAP1 DUP4 PUSH20 0xFFFFFFFFFFFFFFFFFFFFFFFFFFFFFFFFFFFFFFFF AND MUL OR SWAP1 SSTORE POP PUSH1 0x1 PUSH1 0x8 PUSH1 0x0 DUP9 DUP2 MSTORE PUSH1 0x20 ADD SWAP1 DUP2 MSTORE PUSH1 0x20 ADD PUSH1 0x0 KECCAK256 PUSH1 0x5 ADD PUSH1 0x0 PUSH2 0x100 EXP DUP2 SLOAD DUP2 PUSH1 0xFF MUL NOT AND SWAP1 DUP4 ISZERO ISZERO MUL OR SWAP1 SSTORE POP PUSH1 0x0 PUSH1 0x8 PUSH1 0x0 DUP9 DUP2 MSTORE PUSH1 0x20 ADD SWAP1 DUP2 MSTORE PUSH1 0x20 ADD PUSH1 0x0 KECCAK256 PUSH1 0x5 ADD PUSH1 0x1 PUSH2 0x100 EXP DUP2 SLOAD DUP2 PUSH1 0xFF MUL NOT AND SWAP1 DUP4 ISZERO ISZERO MUL OR SWAP1 SSTORE POP PUSH1 0x5 PUSH1 0x0 SWAP1 SLOAD SWAP1 PUSH2 0x100 EXP SWAP1 DIV PUSH20 0xFFFFFFFFFFFFFFFFFFFFFFFFFFFFFFFFFFFFFFFF AND PUSH20 0xFFFFFFFFFFFFFFFFFFFFFFFFFFFFFFFFFFFFFFFF AND PUSH4 0x23B872DD DUP3 CALLER DUP7 PUSH1 0x40 MLOAD DUP5 PUSH4 0xFFFFFFFF AND PUSH1 0xE0 SHL DUP2 MSTORE PUSH1 0x4 ADD PUSH2 0xBD4 SWAP4 SWAP3 SWAP2 SWAP1 PUSH2 0x19B0 JUMP JUMPDEST PUSH1 0x0 PUSH1 0x40 MLOAD DUP1 DUP4 SUB DUP2 PUSH1 0x0 DUP8 DUP1 EXTCODESIZE ISZERO DUP1 ISZERO PUSH2 0xBEE JUMPI PUSH1 0x0 DUP1 REVERT JUMPDEST POP GAS CALL ISZERO DUP1 ISZERO PUSH2 0xC02 JUMPI RETURNDATASIZE PUSH1 0x0 DUP1 RETURNDATACOPY RETURNDATASIZE PUSH1 0x0 REVERT JUMPDEST POP POP POP POP PUSH1 0x6 PUSH1 0x0 SWAP1 SLOAD SWAP1 PUSH2 0x100 EXP SWAP1 DIV PUSH20 0xFFFFFFFFFFFFFFFFFFFFFFFFFFFFFFFFFFFFFFFF AND PUSH20 0xFFFFFFFFFFFFFFFFFFFFFFFFFFFFFFFFFFFFFFFF AND PUSH4 0x23B872DD CALLER DUP4 DUP9 PUSH1 0x40 MLOAD DUP5 PUSH4 0xFFFFFFFF AND PUSH1 0xE0 SHL DUP2 MSTORE PUSH1 0x4 ADD PUSH2 0xC65 SWAP4 SWAP3 SWAP2 SWAP1 PUSH2 0x19B0 JUMP JUMPDEST PUSH1 0x20 PUSH1 0x40 MLOAD DUP1 DUP4 SUB DUP2 PUSH1 0x0 DUP8 DUP1 EXTCODESIZE ISZERO DUP1 ISZERO PUSH2 0xC7F JUMPI PUSH1 0x0 DUP1 REVERT JUMPDEST POP GAS CALL ISZERO DUP1 ISZERO PUSH2 0xC93 JUMPI RETURNDATASIZE PUSH1 0x0 DUP1 RETURNDATACOPY RETURNDATASIZE PUSH1 0x0 REVERT JUMPDEST POP POP POP POP PUSH1 0x40 MLOAD RETURNDATASIZE PUSH1 0x1F NOT PUSH1 0x1F DUP3 ADD AND DUP3 ADD DUP1 PUSH1 0x40 MSTORE POP DUP2 ADD SWAP1 PUSH2 0xCB7 SWAP2 SWAP1 PUSH2 0x15AB JUMP JUMPDEST POP PUSH2 0xCC2 PUSH1 0x3 PUSH2 0x14A4 JUMP JUMPDEST POP POP POP POP PUSH1 0x1 DUP1 DUP2 SWAP1 SSTORE POP POP POP JUMP JUMPDEST PUSH1 0x60 PUSH1 0x0 PUSH2 0xCDF PUSH1 0x2 PUSH2 0x14BA JUMP JUMPDEST SWAP1 POP PUSH1 0x0 PUSH2 0xCED PUSH1 0x3 PUSH2 0x14BA JUMP JUMPDEST PUSH2 0xCF7 PUSH1 0x2 PUSH2 0x14BA JUMP JUMPDEST PUSH2 0xD01 SWAP2 SWAP1 PUSH2 0x1C7E JUMP JUMPDEST SWAP1 POP PUSH1 0x0 DUP1 DUP3 PUSH8 0xFFFFFFFFFFFFFFFF DUP2 GT ISZERO PUSH2 0xD20 JUMPI PUSH2 0xD1F PUSH2 0x1DA1 JUMP JUMPDEST JUMPDEST PUSH1 0x40 MLOAD SWAP1 DUP1 DUP3 MSTORE DUP1 PUSH1 0x20 MUL PUSH1 0x20 ADD DUP3 ADD PUSH1 0x40 MSTORE DUP1 ISZERO PUSH2 0xD59 JUMPI DUP2 PUSH1 0x20 ADD JUMPDEST PUSH2 0xD46 PUSH2 0x14C8 JUMP JUMPDEST DUP2 MSTORE PUSH1 0x20 ADD SWAP1 PUSH1 0x1 SWAP1 SUB SWAP1 DUP2 PUSH2 0xD3E JUMPI SWAP1 POP JUMPDEST POP SWAP1 POP PUSH1 0x0 JUMPDEST DUP5 DUP2 LT ISZERO PUSH2 0xF2E JUMPI PUSH1 0x8 PUSH1 0x0 PUSH1 0x1 DUP4 PUSH2 0xD78 SWAP2 SWAP1 PUSH2 0x1C28 JUMP JUMPDEST DUP2 MSTORE PUSH1 0x20 ADD SWAP1 DUP2 MSTORE PUSH1 0x20 ADD PUSH1 0x0 KECCAK256 PUSH1 0x5 ADD PUSH1 0x0 SWAP1 SLOAD SWAP1 PUSH2 0x100 EXP SWAP1 DIV PUSH1 0xFF AND PUSH2 0xF1B JUMPI PUSH1 0x0 PUSH1 0x1 DUP3 PUSH2 0xDAA SWAP2 SWAP1 PUSH2 0x1C28 JUMP JUMPDEST SWAP1 POP PUSH1 0x0 PUSH1 0x8 PUSH1 0x0 DUP4 DUP2 MSTORE PUSH1 0x20 ADD SWAP1 DUP2 MSTORE PUSH1 0x20 ADD PUSH1 0x0 KECCAK256 PUSH1 0x40 MLOAD DUP1 PUSH2 0x100 ADD PUSH1 0x40 MSTORE SWAP1 DUP2 PUSH1 0x0 DUP3 ADD SLOAD DUP2 MSTORE PUSH1 0x20 ADD PUSH1 0x1 DUP3 ADD SLOAD DUP2 MSTORE PUSH1 0x20 ADD PUSH1 0x2 DUP3 ADD PUSH1 0x0 SWAP1 SLOAD SWAP1 PUSH2 0x100 EXP SWAP1 DIV PUSH20 0xFFFFFFFFFFFFFFFFFFFFFFFFFFFFFFFFFFFFFFFF AND PUSH20 0xFFFFFFFFFFFFFFFFFFFFFFFFFFFFFFFFFFFFFFFF AND PUSH20 0xFFFFFFFFFFFFFFFFFFFFFFFFFFFFFFFFFFFFFFFF AND DUP2 MSTORE PUSH1 0x20 ADD PUSH1 0x3 DUP3 ADD PUSH1 0x0 SWAP1 SLOAD SWAP1 PUSH2 0x100 EXP SWAP1 DIV PUSH20 0xFFFFFFFFFFFFFFFFFFFFFFFFFFFFFFFFFFFFFFFF AND PUSH20 0xFFFFFFFFFFFFFFFFFFFFFFFFFFFFFFFFFFFFFFFF AND PUSH20 0xFFFFFFFFFFFFFFFFFFFFFFFFFFFFFFFFFFFFFFFF AND DUP2 MSTORE PUSH1 0x20 ADD PUSH1 0x4 DUP3 ADD SLOAD DUP2 MSTORE PUSH1 0x20 ADD PUSH1 0x5 DUP3 ADD PUSH1 0x0 SWAP1 SLOAD SWAP1 PUSH2 0x100 EXP SWAP1 DIV PUSH1 0xFF AND ISZERO ISZERO ISZERO ISZERO DUP2 MSTORE PUSH1 0x20 ADD PUSH1 0x5 DUP3 ADD PUSH1 0x1 SWAP1 SLOAD SWAP1 PUSH2 0x100 EXP SWAP1 DIV PUSH1 0xFF AND ISZERO ISZERO ISZERO ISZERO DUP2 MSTORE PUSH1 0x20 ADD PUSH1 0x5 DUP3 ADD PUSH1 0x2 SWAP1 SLOAD SWAP1 PUSH2 0x100 EXP SWAP1 DIV PUSH1 0xFF AND ISZERO ISZERO ISZERO ISZERO DUP2 MSTORE POP POP SWAP1 POP DUP1 DUP5 DUP7 DUP2 MLOAD DUP2 LT PUSH2 0xEFE JUMPI PUSH2 0xEFD PUSH2 0x1D72 JUMP JUMPDEST JUMPDEST PUSH1 0x20 MUL PUSH1 0x20 ADD ADD DUP2 SWAP1 MSTORE POP PUSH1 0x1 DUP6 PUSH2 0xF16 SWAP2 SWAP1 PUSH2 0x1C28 JUMP JUMPDEST SWAP5 POP POP POP JUMPDEST DUP1 DUP1 PUSH2 0xF26 SWAP1 PUSH2 0x1CFA JUMP JUMPDEST SWAP2 POP POP PUSH2 0xD5F JUMP JUMPDEST POP DUP1 SWAP5 POP POP POP POP POP SWAP1 JUMP JUMPDEST PUSH1 0x2 PUSH1 0x1 SLOAD EQ ISZERO PUSH2 0xF7F JUMPI PUSH1 0x40 MLOAD PUSH32 0x8C379A000000000000000000000000000000000000000000000000000000000 DUP2 MSTORE PUSH1 0x4 ADD PUSH2 0xF76 SWAP1 PUSH2 0x1AE9 JUMP JUMPDEST PUSH1 0x40 MLOAD DUP1 SWAP2 SUB SWAP1 REVERT JUMPDEST PUSH1 0x2 PUSH1 0x1 DUP2 SWAP1 SSTORE POP PUSH1 0x0 PUSH1 0x8 PUSH1 0x0 DUP4 DUP2 MSTORE PUSH1 0x20 ADD SWAP1 DUP2 MSTORE PUSH1 0x20 ADD PUSH1 0x0 KECCAK256 PUSH1 0x40 MLOAD DUP1 PUSH2 0x100 ADD PUSH1 0x40 MSTORE SWAP1 DUP2 PUSH1 0x0 DUP3 ADD SLOAD DUP2 MSTORE PUSH1 0x20 ADD PUSH1 0x1 DUP3 ADD SLOAD DUP2 MSTORE PUSH1 0x20 ADD PUSH1 0x2 DUP3 ADD PUSH1 0x0 SWAP1 SLOAD SWAP1 PUSH2 0x100 EXP SWAP1 DIV PUSH20 0xFFFFFFFFFFFFFFFFFFFFFFFFFFFFFFFFFFFFFFFF AND PUSH20 0xFFFFFFFFFFFFFFFFFFFFFFFFFFFFFFFFFFFFFFFF AND PUSH20 0xFFFFFFFFFFFFFFFFFFFFFFFFFFFFFFFFFFFFFFFF AND DUP2 MSTORE PUSH1 0x20 ADD PUSH1 0x3 DUP3 ADD PUSH1 0x0 SWAP1 SLOAD SWAP1 PUSH2 0x100 EXP SWAP1 DIV PUSH20 0xFFFFFFFFFFFFFFFFFFFFFFFFFFFFFFFFFFFFFFFF AND PUSH20 0xFFFFFFFFFFFFFFFFFFFFFFFFFFFFFFFFFFFFFFFF AND PUSH20 0xFFFFFFFFFFFFFFFFFFFFFFFFFFFFFFFFFFFFFFFF AND DUP2 MSTORE PUSH1 0x20 ADD PUSH1 0x4 DUP3 ADD SLOAD DUP2 MSTORE PUSH1 0x20 ADD PUSH1 0x5 DUP3 ADD PUSH1 0x0 SWAP1 SLOAD SWAP1 PUSH2 0x100 EXP SWAP1 DIV PUSH1 0xFF AND ISZERO ISZERO ISZERO ISZERO DUP2 MSTORE PUSH1 0x20 ADD PUSH1 0x5 DUP3 ADD PUSH1 0x1 SWAP1 SLOAD SWAP1 PUSH2 0x100 EXP SWAP1 DIV PUSH1 0xFF AND ISZERO ISZERO ISZERO ISZERO DUP2 MSTORE PUSH1 0x20 ADD PUSH1 0x5 DUP3 ADD PUSH1 0x2 SWAP1 SLOAD SWAP1 PUSH2 0x100 EXP SWAP1 DIV PUSH1 0xFF AND ISZERO ISZERO ISZERO ISZERO DUP2 MSTORE POP POP SWAP1 POP CALLER PUSH20 0xFFFFFFFFFFFFFFFFFFFFFFFFFFFFFFFFFFFFFFFF AND DUP2 PUSH1 0x60 ADD MLOAD PUSH20 0xFFFFFFFFFFFFFFFFFFFFFFFFFFFFFFFFFFFFFFFF AND EQ PUSH2 0x1137 JUMPI PUSH1 0x40 MLOAD PUSH32 0x8C379A000000000000000000000000000000000000000000000000000000000 DUP2 MSTORE PUSH1 0x4 ADD PUSH2 0x112E SWAP1 PUSH2 0x1A89 JUMP JUMPDEST PUSH1 0x40 MLOAD DUP1 SWAP2 SUB SWAP1 REVERT JUMPDEST PUSH1 0x1 ISZERO ISZERO DUP2 PUSH1 0xE0 ADD MLOAD ISZERO ISZERO EQ PUSH2 0x1182 JUMPI PUSH1 0x40 MLOAD PUSH32 0x8C379A000000000000000000000000000000000000000000000000000000000 DUP2 MSTORE PUSH1 0x4 ADD PUSH2 0x1179 SWAP1 PUSH2 0x1AC9 JUMP JUMPDEST PUSH1 0x40 MLOAD DUP1 SWAP2 SUB SWAP1 REVERT JUMPDEST PUSH1 0x1 PUSH1 0x8 PUSH1 0x0 DUP5 DUP2 MSTORE PUSH1 0x20 ADD SWAP1 DUP2 MSTORE PUSH1 0x20 ADD PUSH1 0x0 KECCAK256 PUSH1 0x5 ADD PUSH1 0x1 PUSH2 0x100 EXP DUP2 SLOAD DUP2 PUSH1 0xFF MUL NOT AND SWAP1 DUP4 ISZERO ISZERO MUL OR SWAP1 SSTORE POP DUP1 PUSH1 0x20 ADD MLOAD DUP3 PUSH32 0xB59DFC56DB79C6259BCD97A3FC890AB90008A8B5781D89DD763E01651BC7BC8 CALLER DUP5 PUSH1 0x40 ADD MLOAD DUP6 PUSH1 0x80 ADD MLOAD PUSH1 0x40 MLOAD PUSH2 0x11F2 SWAP4 SWAP3 SWAP2 SWAP1 PUSH2 0x19B0 JUMP JUMPDEST PUSH1 0x40 MLOAD DUP1 SWAP2 SUB SWAP1 LOG3 POP PUSH1 0x1 DUP1 DUP2 SWAP1 SSTORE POP POP JUMP JUMPDEST PUSH1 0x7 SLOAD DUP2 JUMP JUMPDEST PUSH1 0x5 PUSH1 0x0 SWAP1 SLOAD SWAP1 PUSH2 0x100 EXP SWAP1 DIV PUSH20 0xFFFFFFFFFFFFFFFFFFFFFFFFFFFFFFFFFFFFFFFF AND DUP2 JUMP JUMPDEST PUSH1 0x8 PUSH1 0x20 MSTORE DUP1 PUSH1 0x0 MSTORE PUSH1 0x40 PUSH1 0x0 KECCAK256 PUSH1 0x0 SWAP2 POP SWAP1 POP DUP1 PUSH1 0x0 ADD SLOAD SWAP1 DUP1 PUSH1 0x1 ADD SLOAD SWAP1 DUP1 PUSH1 0x2 ADD PUSH1 0x0 SWAP1 SLOAD SWAP1 PUSH2 0x100 EXP SWAP1 DIV PUSH20 0xFFFFFFFFFFFFFFFFFFFFFFFFFFFFFFFFFFFFFFFF AND SWAP1 DUP1 PUSH1 0x3 ADD PUSH1 0x0 SWAP1 SLOAD SWAP1 PUSH2 0x100 EXP SWAP1 DIV PUSH20 0xFFFFFFFFFFFFFFFFFFFFFFFFFFFFFFFFFFFFFFFF AND SWAP1 DUP1 PUSH1 0x4 ADD SLOAD SWAP1 DUP1 PUSH1 0x5 ADD PUSH1 0x0 SWAP1 SLOAD SWAP1 PUSH2 0x100 EXP SWAP1 DIV PUSH1 0xFF AND SWAP1 DUP1 PUSH1 0x5 ADD PUSH1 0x1 SWAP1 SLOAD SWAP1 PUSH2 0x100 EXP SWAP1 DIV PUSH1 0xFF AND SWAP1 DUP1 PUSH1 0x5 ADD PUSH1 0x2 SWAP1 SLOAD SWAP1 PUSH2 0x100 EXP SWAP1 DIV PUSH1 0xFF AND SWAP1 POP DUP9 JUMP JUMPDEST PUSH2 0x12E8 PUSH2 0x13D8 JUMP JUMPDEST PUSH20 0xFFFFFFFFFFFFFFFFFFFFFFFFFFFFFFFFFFFFFFFF AND PUSH2 0x1306 PUSH2 0x42D JUMP JUMPDEST PUSH20 0xFFFFFFFFFFFFFFFFFFFFFFFFFFFFFFFFFFFFFFFF AND EQ PUSH2 0x135C JUMPI PUSH1 0x40 MLOAD PUSH32 0x8C379A000000000000000000000000000000000000000000000000000000000 DUP2 MSTORE PUSH1 0x4 ADD PUSH2 0x1353 SWAP1 PUSH2 0x1AA9 JUMP JUMPDEST PUSH1 0x40 MLOAD DUP1 SWAP2 SUB SWAP1 REVERT JUMPDEST PUSH1 0x0 PUSH20 0xFFFFFFFFFFFFFFFFFFFFFFFFFFFFFFFFFFFFFFFF AND DUP2 PUSH20 0xFFFFFFFFFFFFFFFFFFFFFFFFFFFFFFFFFFFFFFFF AND EQ ISZERO PUSH2 0x13CC JUMPI PUSH1 0x40 MLOAD PUSH32 0x8C379A000000000000000000000000000000000000000000000000000000000 DUP2 MSTORE PUSH1 0x4 ADD PUSH2 0x13C3 SWAP1 PUSH2 0x1A49 JUMP JUMPDEST PUSH1 0x40 MLOAD DUP1 SWAP2 SUB SWAP1 REVERT JUMPDEST PUSH2 0x13D5 DUP2 PUSH2 0x13E0 JUMP JUMPDEST POP JUMP JUMPDEST PUSH1 0x0 CALLER SWAP1 POP SWAP1 JUMP JUMPDEST PUSH1 0x0 DUP1 PUSH1 0x0 SWAP1 SLOAD SWAP1 PUSH2 0x100 EXP SWAP1 DIV PUSH20 0xFFFFFFFFFFFFFFFFFFFFFFFFFFFFFFFFFFFFFFFF AND SWAP1 POP DUP2 PUSH1 0x0 DUP1 PUSH2 0x100 EXP DUP2 SLOAD DUP2 PUSH20 0xFFFFFFFFFFFFFFFFFFFFFFFFFFFFFFFFFFFFFFFF MUL NOT AND SWAP1 DUP4 PUSH20 0xFFFFFFFFFFFFFFFFFFFFFFFFFFFFFFFFFFFFFFFF AND MUL OR SWAP1 SSTORE POP DUP2 PUSH20 0xFFFFFFFFFFFFFFFFFFFFFFFFFFFFFFFFFFFFFFFF AND DUP2 PUSH20 0xFFFFFFFFFFFFFFFFFFFFFFFFFFFFFFFFFFFFFFFF AND PUSH32 0x8BE0079C531659141344CD1FD0A4F28419497F9722A3DAAFE3B4186F6B6457E0 PUSH1 0x40 MLOAD PUSH1 0x40 MLOAD DUP1 SWAP2 SUB SWAP1 LOG3 POP POP JUMP JUMPDEST PUSH1 0x1 DUP2 PUSH1 0x0 ADD PUSH1 0x0 DUP3 DUP3 SLOAD ADD SWAP3 POP POP DUP2 SWAP1 SSTORE POP POP JUMP JUMPDEST PUSH1 0x0 DUP2 PUSH1 0x0 ADD SLOAD SWAP1 POP SWAP2 SWAP1 POP JUMP JUMPDEST PUSH1 0x40 MLOAD DUP1 PUSH2 0x100 ADD PUSH1 0x40 MSTORE DUP1 PUSH1 0x0 DUP2 MSTORE PUSH1 0x20 ADD PUSH1 0x0 DUP2 MSTORE PUSH1 0x20 ADD PUSH1 0x0 PUSH20 0xFFFFFFFFFFFFFFFFFFFFFFFFFFFFFFFFFFFFFFFF AND DUP2 MSTORE PUSH1 0x20 ADD PUSH1 0x0 PUSH20 0xFFFFFFFFFFFFFFFFFFFFFFFFFFFFFFFFFFFFFFFF AND DUP2 MSTORE PUSH1 0x20 ADD PUSH1 0x0 DUP2 MSTORE PUSH1 0x20 ADD PUSH1 0x0 ISZERO ISZERO DUP2 MSTORE PUSH1 0x20 ADD PUSH1 0x0 ISZERO ISZERO DUP2 MSTORE PUSH1 0x20 ADD PUSH1 0x0 ISZERO ISZERO DUP2 MSTORE POP SWAP1 JUMP JUMPDEST PUSH1 0x0 DUP2 CALLDATALOAD SWAP1 POP PUSH2 0x154E DUP2 PUSH2 0x1F92 JUMP JUMPDEST SWAP3 SWAP2 POP POP JUMP JUMPDEST PUSH1 0x0 DUP2 MLOAD SWAP1 POP PUSH2 0x1563 DUP2 PUSH2 0x1FA9 JUMP JUMPDEST SWAP3 SWAP2 POP POP JUMP JUMPDEST PUSH1 0x0 DUP2 CALLDATALOAD SWAP1 POP PUSH2 0x1578 DUP2 PUSH2 0x1FC0 JUMP JUMPDEST SWAP3 SWAP2 POP POP JUMP JUMPDEST PUSH1 0x0 PUSH1 0x20 DUP3 DUP5 SUB SLT ISZERO PUSH2 0x1594 JUMPI PUSH2 0x1593 PUSH2 0x1DD0 JUMP JUMPDEST JUMPDEST PUSH1 0x0 PUSH2 0x15A2 DUP5 DUP3 DUP6 ADD PUSH2 0x153F JUMP JUMPDEST SWAP2 POP POP SWAP3 SWAP2 POP POP JUMP JUMPDEST PUSH1 0x0 PUSH1 0x20 DUP3 DUP5 SUB SLT ISZERO PUSH2 0x15C1 JUMPI PUSH2 0x15C0 PUSH2 0x1DD0 JUMP JUMPDEST JUMPDEST PUSH1 0x0 PUSH2 0x15CF DUP5 DUP3 DUP6 ADD PUSH2 0x1554 JUMP JUMPDEST SWAP2 POP POP SWAP3 SWAP2 POP POP JUMP JUMPDEST PUSH1 0x0 PUSH1 0x20 DUP3 DUP5 SUB SLT ISZERO PUSH2 0x15EE JUMPI PUSH2 0x15ED PUSH2 0x1DD0 JUMP JUMPDEST JUMPDEST PUSH1 0x0 PUSH2 0x15FC DUP5 DUP3 DUP6 ADD PUSH2 0x1569 JUMP JUMPDEST SWAP2 POP POP SWAP3 SWAP2 POP POP JUMP JUMPDEST PUSH1 0x0 DUP1 PUSH1 0x40 DUP4 DUP6 SUB SLT ISZERO PUSH2 0x161C JUMPI PUSH2 0x161B PUSH2 0x1DD0 JUMP JUMPDEST JUMPDEST PUSH1 0x0 PUSH2 0x162A DUP6 DUP3 DUP7 ADD PUSH2 0x1569 JUMP JUMPDEST SWAP3 POP POP PUSH1 0x20 PUSH2 0x163B DUP6 DUP3 DUP7 ADD PUSH2 0x1569 JUMP JUMPDEST SWAP2 POP POP SWAP3 POP SWAP3 SWAP1 POP JUMP JUMPDEST PUSH1 0x0 PUSH2 0x1651 DUP4 DUP4 PUSH2 0x1833 JUMP JUMPDEST PUSH2 0x100 DUP4 ADD SWAP1 POP SWAP3 SWAP2 POP POP JUMP JUMPDEST PUSH2 0x1667 DUP2 PUSH2 0x1CB2 JUMP JUMPDEST DUP3 MSTORE POP POP JUMP JUMPDEST PUSH2 0x1676 DUP2 PUSH2 0x1CB2 JUMP JUMPDEST DUP3 MSTORE POP POP JUMP JUMPDEST PUSH1 0x0 PUSH2 0x1687 DUP3 PUSH2 0x1BEE JUMP JUMPDEST PUSH2 0x1691 DUP2 DUP6 PUSH2 0x1C06 JUMP JUMPDEST SWAP4 POP PUSH2 0x169C DUP4 PUSH2 0x1BDE JUMP JUMPDEST DUP1 PUSH1 0x0 JUMPDEST DUP4 DUP2 LT ISZERO PUSH2 0x16CD JUMPI DUP2 MLOAD PUSH2 0x16B4 DUP9 DUP3 PUSH2 0x1645 JUMP JUMPDEST SWAP8 POP PUSH2 0x16BF DUP4 PUSH2 0x1BF9 JUMP JUMPDEST SWAP3 POP POP PUSH1 0x1 DUP2 ADD SWAP1 POP PUSH2 0x16A0 JUMP JUMPDEST POP DUP6 SWAP4 POP POP POP POP SWAP3 SWAP2 POP POP JUMP JUMPDEST PUSH2 0x16E3 DUP2 PUSH2 0x1CC4 JUMP JUMPDEST DUP3 MSTORE POP POP JUMP JUMPDEST PUSH2 0x16F2 DUP2 PUSH2 0x1CC4 JUMP JUMPDEST DUP3 MSTORE POP POP JUMP JUMPDEST PUSH1 0x0 PUSH2 0x1705 PUSH1 0x1B DUP4 PUSH2 0x1C17 JUMP JUMPDEST SWAP2 POP PUSH2 0x1710 DUP3 PUSH2 0x1DD5 JUMP JUMPDEST PUSH1 0x20 DUP3 ADD SWAP1 POP SWAP2 SWAP1 POP JUMP JUMPDEST PUSH1 0x0 PUSH2 0x1728 PUSH1 0x2E DUP4 PUSH2 0x1C17 JUMP JUMPDEST SWAP2 POP PUSH2 0x1733 DUP3 PUSH2 0x1DFE JUMP JUMPDEST PUSH1 0x40 DUP3 ADD SWAP1 POP SWAP2 SWAP1 POP JUMP JUMPDEST PUSH1 0x0 PUSH2 0x174B PUSH1 0x26 DUP4 PUSH2 0x1C17 JUMP JUMPDEST SWAP2 POP PUSH2 0x1756 DUP3 PUSH2 0x1E4D JUMP JUMPDEST PUSH1 0x40 DUP3 ADD SWAP1 POP SWAP2 SWAP1 POP JUMP JUMPDEST PUSH1 0x0 PUSH2 0x176E PUSH1 0x11 DUP4 PUSH2 0x1C17 JUMP JUMPDEST SWAP2 POP PUSH2 0x1779 DUP3 PUSH2 0x1E9C JUMP JUMPDEST PUSH1 0x20 DUP3 ADD SWAP1 POP SWAP2 SWAP1 POP JUMP JUMPDEST PUSH1 0x0 PUSH2 0x1791 PUSH1 0x20 DUP4 PUSH2 0x1C17 JUMP JUMPDEST SWAP2 POP PUSH2 0x179C DUP3 PUSH2 0x1EC5 JUMP JUMPDEST PUSH1 0x20 DUP3 ADD SWAP1 POP SWAP2 SWAP1 POP JUMP JUMPDEST PUSH1 0x0 PUSH2 0x17B4 PUSH1 0x20 DUP4 PUSH2 0x1C17 JUMP JUMPDEST SWAP2 POP PUSH2 0x17BF DUP3 PUSH2 0x1EEE JUMP JUMPDEST PUSH1 0x20 DUP3 ADD SWAP1 POP SWAP2 SWAP1 POP JUMP JUMPDEST PUSH1 0x0 PUSH2 0x17D7 PUSH1 0x14 DUP4 PUSH2 0x1C17 JUMP JUMPDEST SWAP2 POP PUSH2 0x17E2 DUP3 PUSH2 0x1F17 JUMP JUMPDEST PUSH1 0x20 DUP3 ADD SWAP1 POP SWAP2 SWAP1 POP JUMP JUMPDEST PUSH1 0x0 PUSH2 0x17FA PUSH1 0x1F DUP4 PUSH2 0x1C17 JUMP JUMPDEST SWAP2 POP PUSH2 0x1805 DUP3 PUSH2 0x1F40 JUMP JUMPDEST PUSH1 0x20 DUP3 ADD SWAP1 POP SWAP2 SWAP1 POP JUMP JUMPDEST PUSH1 0x0 PUSH2 0x181D PUSH1 0x1C DUP4 PUSH2 0x1C17 JUMP JUMPDEST SWAP2 POP PUSH2 0x1828 DUP3 PUSH2 0x1F69 JUMP JUMPDEST PUSH1 0x20 DUP3 ADD SWAP1 POP SWAP2 SWAP1 POP JUMP JUMPDEST PUSH2 0x100 DUP3 ADD PUSH1 0x0 DUP3 ADD MLOAD PUSH2 0x184A PUSH1 0x0 DUP6 ADD DUP3 PUSH2 0x1977 JUMP JUMPDEST POP PUSH1 0x20 DUP3 ADD MLOAD PUSH2 0x185D PUSH1 0x20 DUP6 ADD DUP3 PUSH2 0x1977 JUMP JUMPDEST POP PUSH1 0x40 DUP3 ADD MLOAD PUSH2 0x1870 PUSH1 0x40 DUP6 ADD DUP3 PUSH2 0x165E JUMP JUMPDEST POP PUSH1 0x60 DUP3 ADD MLOAD PUSH2 0x1883 PUSH1 0x60 DUP6 ADD DUP3 PUSH2 0x165E JUMP JUMPDEST POP PUSH1 0x80 DUP3 ADD MLOAD PUSH2 0x1896 PUSH1 0x80 DUP6 ADD DUP3 PUSH2 0x1977 JUMP JUMPDEST POP PUSH1 0xA0 DUP3 ADD MLOAD PUSH2 0x18A9 PUSH1 0xA0 DUP6 ADD DUP3 PUSH2 0x16DA JUMP JUMPDEST POP PUSH1 0xC0 DUP3 ADD MLOAD PUSH2 0x18BC PUSH1 0xC0 DUP6 ADD DUP3 PUSH2 0x16DA JUMP JUMPDEST POP PUSH1 0xE0 DUP3 ADD MLOAD PUSH2 0x18CF PUSH1 0xE0 DUP6 ADD DUP3 PUSH2 0x16DA JUMP JUMPDEST POP POP POP POP JUMP JUMPDEST PUSH2 0x100 DUP3 ADD PUSH1 0x0 DUP3 ADD MLOAD PUSH2 0x18EC PUSH1 0x0 DUP6 ADD DUP3 PUSH2 0x1977 JUMP JUMPDEST POP PUSH1 0x20 DUP3 ADD MLOAD PUSH2 0x18FF PUSH1 0x20 DUP6 ADD DUP3 PUSH2 0x1977 JUMP JUMPDEST POP PUSH1 0x40 DUP3 ADD MLOAD PUSH2 0x1912 PUSH1 0x40 DUP6 ADD DUP3 PUSH2 0x165E JUMP JUMPDEST POP PUSH1 0x60 DUP3 ADD MLOAD PUSH2 0x1925 PUSH1 0x60 DUP6 ADD DUP3 PUSH2 0x165E JUMP JUMPDEST POP PUSH1 0x80 DUP3 ADD MLOAD PUSH2 0x1938 PUSH1 0x80 DUP6 ADD DUP3 PUSH2 0x1977 JUMP JUMPDEST POP PUSH1 0xA0 DUP3 ADD MLOAD PUSH2 0x194B PUSH1 0xA0 DUP6 ADD DUP3 PUSH2 0x16DA JUMP JUMPDEST POP PUSH1 0xC0 DUP3 ADD MLOAD PUSH2 0x195E PUSH1 0xC0 DUP6 ADD DUP3 PUSH2 0x16DA JUMP JUMPDEST POP PUSH1 0xE0 DUP3 ADD MLOAD PUSH2 0x1971 PUSH1 0xE0 DUP6 ADD DUP3 PUSH2 0x16DA JUMP JUMPDEST POP POP POP POP JUMP JUMPDEST PUSH2 0x1980 DUP2 PUSH2 0x1CF0 JUMP JUMPDEST DUP3 MSTORE POP POP JUMP JUMPDEST PUSH2 0x198F DUP2 PUSH2 0x1CF0 JUMP JUMPDEST DUP3 MSTORE POP POP JUMP JUMPDEST PUSH1 0x0 PUSH1 0x20 DUP3 ADD SWAP1 POP PUSH2 0x19AA PUSH1 0x0 DUP4 ADD DUP5 PUSH2 0x166D JUMP JUMPDEST SWAP3 SWAP2 POP POP JUMP JUMPDEST PUSH1 0x0 PUSH1 0x60 DUP3 ADD SWAP1 POP PUSH2 0x19C5 PUSH1 0x0 DUP4 ADD DUP7 PUSH2 0x166D JUMP JUMPDEST PUSH2 0x19D2 PUSH1 0x20 DUP4 ADD DUP6 PUSH2 0x166D JUMP JUMPDEST PUSH2 0x19DF PUSH1 0x40 DUP4 ADD DUP5 PUSH2 0x1986 JUMP JUMPDEST SWAP5 SWAP4 POP POP POP POP JUMP JUMPDEST PUSH1 0x0 PUSH1 0x20 DUP3 ADD SWAP1 POP DUP2 DUP2 SUB PUSH1 0x0 DUP4 ADD MSTORE PUSH2 0x1A01 DUP2 DUP5 PUSH2 0x167C JUMP JUMPDEST SWAP1 POP SWAP3 SWAP2 POP POP JUMP JUMPDEST PUSH1 0x0 PUSH1 0x20 DUP3 ADD SWAP1 POP DUP2 DUP2 SUB PUSH1 0x0 DUP4 ADD MSTORE PUSH2 0x1A22 DUP2 PUSH2 0x16F8 JUMP JUMPDEST SWAP1 POP SWAP2 SWAP1 POP JUMP JUMPDEST PUSH1 0x0 PUSH1 0x20 DUP3 ADD SWAP1 POP DUP2 DUP2 SUB PUSH1 0x0 DUP4 ADD MSTORE PUSH2 0x1A42 DUP2 PUSH2 0x171B JUMP JUMPDEST SWAP1 POP SWAP2 SWAP1 POP JUMP JUMPDEST PUSH1 0x0 PUSH1 0x20 DUP3 ADD SWAP1 POP DUP2 DUP2 SUB PUSH1 0x0 DUP4 ADD MSTORE PUSH2 0x1A62 DUP2 PUSH2 0x173E JUMP JUMPDEST SWAP1 POP SWAP2 SWAP1 POP JUMP JUMPDEST PUSH1 0x0 PUSH1 0x20 DUP3 ADD SWAP1 POP DUP2 DUP2 SUB PUSH1 0x0 DUP4 ADD MSTORE PUSH2 0x1A82 DUP2 PUSH2 0x1761 JUMP JUMPDEST SWAP1 POP SWAP2 SWAP1 POP JUMP JUMPDEST PUSH1 0x0 PUSH1 0x20 DUP3 ADD SWAP1 POP DUP2 DUP2 SUB PUSH1 0x0 DUP4 ADD MSTORE PUSH2 0x1AA2 DUP2 PUSH2 0x1784 JUMP JUMPDEST SWAP1 POP SWAP2 SWAP1 POP JUMP JUMPDEST PUSH1 0x0 PUSH1 0x20 DUP3 ADD SWAP1 POP DUP2 DUP2 SUB PUSH1 0x0 DUP4 ADD MSTORE PUSH2 0x1AC2 DUP2 PUSH2 0x17A7 JUMP JUMPDEST SWAP1 POP SWAP2 SWAP1 POP JUMP JUMPDEST PUSH1 0x0 PUSH1 0x20 DUP3 ADD SWAP1 POP DUP2 DUP2 SUB PUSH1 0x0 DUP4 ADD MSTORE PUSH2 0x1AE2 DUP2 PUSH2 0x17CA JUMP JUMPDEST SWAP1 POP SWAP2 SWAP1 POP JUMP JUMPDEST PUSH1 0x0 PUSH1 0x20 DUP3 ADD SWAP1 POP DUP2 DUP2 SUB PUSH1 0x0 DUP4 ADD MSTORE PUSH2 0x1B02 DUP2 PUSH2 0x17ED JUMP JUMPDEST SWAP1 POP SWAP2 SWAP1 POP JUMP JUMPDEST PUSH1 0x0 PUSH1 0x20 DUP3 ADD SWAP1 POP DUP2 DUP2 SUB PUSH1 0x0 DUP4 ADD MSTORE PUSH2 0x1B22 DUP2 PUSH2 0x1810 JUMP JUMPDEST SWAP1 POP SWAP2 SWAP1 POP JUMP JUMPDEST PUSH1 0x0 PUSH2 0x100 DUP3 ADD SWAP1 POP PUSH2 0x1B3F PUSH1 0x0 DUP4 ADD DUP5 PUSH2 0x18D5 JUMP JUMPDEST SWAP3 SWAP2 POP POP JUMP JUMPDEST PUSH1 0x0 PUSH1 0x20 DUP3 ADD SWAP1 POP PUSH2 0x1B5A PUSH1 0x0 DUP4 ADD DUP5 PUSH2 0x1986 JUMP JUMPDEST SWAP3 SWAP2 POP POP JUMP JUMPDEST PUSH1 0x0 PUSH2 0x100 DUP3 ADD SWAP1 POP PUSH2 0x1B76 PUSH1 0x0 DUP4 ADD DUP12 PUSH2 0x1986 JUMP JUMPDEST PUSH2 0x1B83 PUSH1 0x20 DUP4 ADD DUP11 PUSH2 0x1986 JUMP JUMPDEST PUSH2 0x1B90 PUSH1 0x40 DUP4 ADD DUP10 PUSH2 0x166D JUMP JUMPDEST PUSH2 0x1B9D PUSH1 0x60 DUP4 ADD DUP9 PUSH2 0x166D JUMP JUMPDEST PUSH2 0x1BAA PUSH1 0x80 DUP4 ADD DUP8 PUSH2 0x1986 JUMP JUMPDEST PUSH2 0x1BB7 PUSH1 0xA0 DUP4 ADD DUP7 PUSH2 0x16E9 JUMP JUMPDEST PUSH2 0x1BC4 PUSH1 0xC0 DUP4 ADD DUP6 PUSH2 0x16E9 JUMP JUMPDEST PUSH2 0x1BD1 PUSH1 0xE0 DUP4 ADD DUP5 PUSH2 0x16E9 JUMP JUMPDEST SWAP10 SWAP9 POP POP POP POP POP POP POP POP POP JUMP JUMPDEST PUSH1 0x0 DUP2 SWAP1 POP PUSH1 0x20 DUP3 ADD SWAP1 POP SWAP2 SWAP1 POP JUMP JUMPDEST PUSH1 0x0 DUP2 MLOAD SWAP1 POP SWAP2 SWAP1 POP JUMP JUMPDEST PUSH1 0x0 PUSH1 0x20 DUP3 ADD SWAP1 POP SWAP2 SWAP1 POP JUMP JUMPDEST PUSH1 0x0 DUP3 DUP3 MSTORE PUSH1 0x20 DUP3 ADD SWAP1 POP SWAP3 SWAP2 POP POP JUMP JUMPDEST PUSH1 0x0 DUP3 DUP3 MSTORE PUSH1 0x20 DUP3 ADD SWAP1 POP SWAP3 SWAP2 POP POP JUMP JUMPDEST PUSH1 0x0 PUSH2 0x1C33 DUP3 PUSH2 0x1CF0 JUMP JUMPDEST SWAP2 POP PUSH2 0x1C3E DUP4 PUSH2 0x1CF0 JUMP JUMPDEST SWAP3 POP DUP3 PUSH32 0xFFFFFFFFFFFFFFFFFFFFFFFFFFFFFFFFFFFFFFFFFFFFFFFFFFFFFFFFFFFFFFFF SUB DUP3 GT ISZERO PUSH2 0x1C73 JUMPI PUSH2 0x1C72 PUSH2 0x1D43 JUMP JUMPDEST JUMPDEST DUP3 DUP3 ADD SWAP1 POP SWAP3 SWAP2 POP POP JUMP JUMPDEST PUSH1 0x0 PUSH2 0x1C89 DUP3 PUSH2 0x1CF0 JUMP JUMPDEST SWAP2 POP PUSH2 0x1C94 DUP4 PUSH2 0x1CF0 JUMP JUMPDEST SWAP3 POP DUP3 DUP3 LT ISZERO PUSH2 0x1CA7 JUMPI PUSH2 0x1CA6 PUSH2 0x1D43 JUMP JUMPDEST JUMPDEST DUP3 DUP3 SUB SWAP1 POP SWAP3 SWAP2 POP POP JUMP JUMPDEST PUSH1 0x0 PUSH2 0x1CBD DUP3 PUSH2 0x1CD0 JUMP JUMPDEST SWAP1 POP SWAP2 SWAP1 POP JUMP JUMPDEST PUSH1 0x0 DUP2 ISZERO ISZERO SWAP1 POP SWAP2 SWAP1 POP JUMP JUMPDEST PUSH1 0x0 PUSH20 0xFFFFFFFFFFFFFFFFFFFFFFFFFFFFFFFFFFFFFFFF DUP3 AND SWAP1 POP SWAP2 SWAP1 POP JUMP JUMPDEST PUSH1 0x0 DUP2 SWAP1 POP SWAP2 SWAP1 POP JUMP JUMPDEST PUSH1 0x0 PUSH2 0x1D05 DUP3 PUSH2 0x1CF0 JUMP JUMPDEST SWAP2 POP PUSH32 0xFFFFFFFFFFFFFFFFFFFFFFFFFFFFFFFFFFFFFFFFFFFFFFFFFFFFFFFFFFFFFFFF DUP3 EQ ISZERO PUSH2 0x1D38 JUMPI PUSH2 0x1D37 PUSH2 0x1D43 JUMP JUMPDEST JUMPDEST PUSH1 0x1 DUP3 ADD SWAP1 POP SWAP2 SWAP1 POP JUMP JUMPDEST PUSH32 0x4E487B7100000000000000000000000000000000000000000000000000000000 PUSH1 0x0 MSTORE PUSH1 0x11 PUSH1 0x4 MSTORE PUSH1 0x24 PUSH1 0x0 REVERT JUMPDEST PUSH32 0x4E487B7100000000000000000000000000000000000000000000000000000000 PUSH1 0x0 MSTORE PUSH1 0x32 PUSH1 0x4 MSTORE PUSH1 0x24 PUSH1 0x0 REVERT JUMPDEST PUSH32 0x4E487B7100000000000000000000000000000000000000000000000000000000 PUSH1 0x0 MSTORE PUSH1 0x41 PUSH1 0x4 MSTORE PUSH1 0x24 PUSH1 0x0 REVERT JUMPDEST PUSH1 0x0 DUP1 REVERT JUMPDEST PUSH32 0x41736B696E67205072696365206E6F7420736174697366696564210000000000 PUSH1 0x0 DUP3 ADD MSTORE POP JUMP JUMPDEST PUSH32 0x50726963652073686F756C64206265206174206C656173742073616D65206173 PUSH1 0x0 DUP3 ADD MSTORE PUSH32 0x206C697374696E67207072696365000000000000000000000000000000000000 PUSH1 0x20 DUP3 ADD MSTORE POP JUMP JUMPDEST PUSH32 0x4F776E61626C653A206E6577206F776E657220697320746865207A65726F2061 PUSH1 0x0 DUP3 ADD MSTORE PUSH32 0x6464726573730000000000000000000000000000000000000000000000000000 PUSH1 0x20 DUP3 ADD MSTORE POP JUMP JUMPDEST PUSH32 0x4E4654206E6F7420666F722073616C652E000000000000000000000000000000 PUSH1 0x0 DUP3 ADD MSTORE POP JUMP JUMPDEST PUSH32 0x4F6E6C79204974656D206F776E65722063616E206372656174652073616C652E PUSH1 0x0 DUP3 ADD MSTORE POP JUMP JUMPDEST PUSH32 0x4F776E61626C653A2063616C6C6572206973206E6F7420746865206F776E6572 PUSH1 0x0 DUP3 ADD MSTORE POP JUMP JUMPDEST PUSH32 0x4974656D20646F6573206E6F742065786973742E000000000000000000000000 PUSH1 0x0 DUP3 ADD MSTORE POP JUMP JUMPDEST PUSH32 0x5265656E7472616E637947756172643A207265656E7472616E742063616C6C00 PUSH1 0x0 DUP3 ADD MSTORE POP JUMP JUMPDEST PUSH32 0x5072696365206D757374206265206174206C6561737420312077656900000000 PUSH1 0x0 DUP3 ADD MSTORE POP JUMP JUMPDEST PUSH2 0x1F9B DUP2 PUSH2 0x1CB2 JUMP JUMPDEST DUP2 EQ PUSH2 0x1FA6 JUMPI PUSH1 0x0 DUP1 REVERT JUMPDEST POP JUMP JUMPDEST PUSH2 0x1FB2 DUP2 PUSH2 0x1CC4 JUMP JUMPDEST DUP2 EQ PUSH2 0x1FBD JUMPI PUSH1 0x0 DUP1 REVERT JUMPDEST POP JUMP JUMPDEST PUSH2 0x1FC9 DUP2 PUSH2 0x1CF0 JUMP JUMPDEST DUP2 EQ PUSH2 0x1FD4 JUMPI PUSH1 0x0 DUP1 REVERT JUMPDEST POP JUMP INVALID LOG2 PUSH5 0x6970667358 0x22 SLT KECCAK256 LOG2 0xCA SWAP5 DUP5 0xA8 0xF7 0xDA 0x4D 0xC2 0xCC 0xBA PUSH4 0x97FB5F62 SGT PUSH8 0x4625CEDD3BF23841 SIGNEXTEND 0xE4 0xC7 0x2D 0x28 0xC5 PUSH5 0x736F6C6343 STOP ADDMOD SMOD STOP CALLER "
				},
				"gasEstimates": {
					"creation": {
						"codeDepositCost": "1641000",
						"executionCost": "infinite",
						"totalCost": "infinite"
					},
					"external": {
						"acceptedTokenAddress()": "2559",
						"addItemToMarket(uint256,uint256)": "infinite",
						"buyItem(uint256,uint256)": "infinite",
						"createSale(uint256)": "infinite",
						"getMarketItemById(uint256)": "infinite",
						"getUnsoldItems()": "infinite",
						"idToMarketItem(uint256)": "infinite",
						"listingPrice()": "2473",
						"nftContract()": "2580",
						"owner()": "2589",
						"renounceOwnership()": "30397",
						"transferOwnership(address)": "30833"
					}
				},
				"methodIdentifiers": {
					"acceptedTokenAddress()": "889e2cd5",
					"addItemToMarket(uint256,uint256)": "91066da8",
					"buyItem(uint256,uint256)": "9979c009",
					"createSale(uint256)": "9da1b02a",
					"getMarketItemById(uint256)": "53dbceb1",
					"getUnsoldItems()": "9b8bc127",
					"idToMarketItem(uint256)": "e61a70c0",
					"listingPrice()": "c78f19f9",
					"nftContract()": "d56d229d",
					"owner()": "8da5cb5b",
					"renounceOwnership()": "715018a6",
					"transferOwnership(address)": "f2fde38b"
				}
			},
			"storageLayout": {
				"storage": [
					{
						"astId": 7,
						"contract": "contracts/TestMarketplace.sol:TestMarketplace",
						"label": "_owner",
						"offset": 0,
						"slot": "0",
						"type": "t_address"
					},
					{
						"astId": 115,
						"contract": "contracts/TestMarketplace.sol:TestMarketplace",
						"label": "_status",
						"offset": 0,
						"slot": "1",
						"type": "t_uint256"
					},
					{
						"astId": 464,
						"contract": "contracts/TestMarketplace.sol:TestMarketplace",
						"label": "_itemIds",
						"offset": 0,
						"slot": "2",
						"type": "t_struct(Counter)366_storage"
					},
					{
						"astId": 467,
						"contract": "contracts/TestMarketplace.sol:TestMarketplace",
						"label": "_itemsSold",
						"offset": 0,
						"slot": "3",
						"type": "t_struct(Counter)366_storage"
					},
					{
						"astId": 469,
						"contract": "contracts/TestMarketplace.sol:TestMarketplace",
						"label": "_amountCollected",
						"offset": 0,
						"slot": "4",
						"type": "t_uint256"
					},
					{
						"astId": 471,
						"contract": "contracts/TestMarketplace.sol:TestMarketplace",
						"label": "nftContract",
						"offset": 0,
						"slot": "5",
						"type": "t_address"
					},
					{
						"astId": 473,
						"contract": "contracts/TestMarketplace.sol:TestMarketplace",
						"label": "acceptedTokenAddress",
						"offset": 0,
						"slot": "6",
						"type": "t_address"
					},
					{
						"astId": 476,
						"contract": "contracts/TestMarketplace.sol:TestMarketplace",
						"label": "listingPrice",
						"offset": 0,
						"slot": "7",
						"type": "t_uint256"
					},
					{
						"astId": 498,
						"contract": "contracts/TestMarketplace.sol:TestMarketplace",
						"label": "idToMarketItem",
						"offset": 0,
						"slot": "8",
						"type": "t_mapping(t_uint256,t_struct(MarketItem)493_storage)"
					}
				],
				"types": {
					"t_address": {
						"encoding": "inplace",
						"label": "address",
						"numberOfBytes": "20"
					},
					"t_bool": {
						"encoding": "inplace",
						"label": "bool",
						"numberOfBytes": "1"
					},
					"t_mapping(t_uint256,t_struct(MarketItem)493_storage)": {
						"encoding": "mapping",
						"key": "t_uint256",
						"label": "mapping(uint256 => struct TestMarketplace.MarketItem)",
						"numberOfBytes": "32",
						"value": "t_struct(MarketItem)493_storage"
					},
					"t_struct(Counter)366_storage": {
						"encoding": "inplace",
						"label": "struct Counters.Counter",
						"members": [
							{
								"astId": 365,
								"contract": "contracts/TestMarketplace.sol:TestMarketplace",
								"label": "_value",
								"offset": 0,
								"slot": "0",
								"type": "t_uint256"
							}
						],
						"numberOfBytes": "32"
					},
					"t_struct(MarketItem)493_storage": {
						"encoding": "inplace",
						"label": "struct TestMarketplace.MarketItem",
						"members": [
							{
								"astId": 478,
								"contract": "contracts/TestMarketplace.sol:TestMarketplace",
								"label": "itemId",
								"offset": 0,
								"slot": "0",
								"type": "t_uint256"
							},
							{
								"astId": 480,
								"contract": "contracts/TestMarketplace.sol:TestMarketplace",
								"label": "tokenId",
								"offset": 0,
								"slot": "1",
								"type": "t_uint256"
							},
							{
								"astId": 482,
								"contract": "contracts/TestMarketplace.sol:TestMarketplace",
								"label": "seller",
								"offset": 0,
								"slot": "2",
								"type": "t_address"
							},
							{
								"astId": 484,
								"contract": "contracts/TestMarketplace.sol:TestMarketplace",
								"label": "owner",
								"offset": 0,
								"slot": "3",
								"type": "t_address"
							},
							{
								"astId": 486,
								"contract": "contracts/TestMarketplace.sol:TestMarketplace",
								"label": "price",
								"offset": 0,
								"slot": "4",
								"type": "t_uint256"
							},
							{
								"astId": 488,
								"contract": "contracts/TestMarketplace.sol:TestMarketplace",
								"label": "isSold",
								"offset": 0,
								"slot": "5",
								"type": "t_bool"
							},
							{
								"astId": 490,
								"contract": "contracts/TestMarketplace.sol:TestMarketplace",
								"label": "isUpForSale",
								"offset": 1,
								"slot": "5",
								"type": "t_bool"
							},
							{
								"astId": 492,
								"contract": "contracts/TestMarketplace.sol:TestMarketplace",
								"label": "exists",
								"offset": 2,
								"slot": "5",
								"type": "t_bool"
							}
						],
						"numberOfBytes": "192"
					},
					"t_uint256": {
						"encoding": "inplace",
						"label": "uint256",
						"numberOfBytes": "32"
					}
				}
			},
			"userdoc": {
				"kind": "user",
				"methods": {},
				"version": 1
			}
		}
	}
}