{
  "_format": "hh-sol-artifact-1",
  "contractName": "TestMarketplace",
  "sourceName": "contracts/TestMarketplace.sol",
  "abi": [
    {
      "inputs": [
        {
          "internalType": "address",
          "name": "_nftContract",
          "type": "address"
        },
        {
          "internalType": "address",
          "name": "_acceptedTokenAddress",
          "type": "address"
        }
      ],
      "stateMutability": "nonpayable",
      "type": "constructor"
    },
    {
      "anonymous": false,
      "inputs": [
        {
          "indexed": true,
          "internalType": "uint256",
          "name": "itemId",
          "type": "uint256"
        },
        {
          "indexed": true,
          "internalType": "uint256",
          "name": "tokenId",
          "type": "uint256"
        },
        {
          "indexed": false,
          "internalType": "address",
          "name": "seller",
          "type": "address"
        },
        {
          "indexed": false,
          "internalType": "address",
          "name": "owner",
          "type": "address"
        },
        {
          "indexed": false,
          "internalType": "uint256",
          "name": "price",
          "type": "uint256"
        }
      ],
      "name": "MarketItemCreated",
      "type": "event"
    },
    {
      "anonymous": false,
      "inputs": [
        {
          "indexed": true,
          "internalType": "address",
          "name": "previousOwner",
          "type": "address"
        },
        {
          "indexed": true,
          "internalType": "address",
          "name": "newOwner",
          "type": "address"
        }
      ],
      "name": "OwnershipTransferred",
      "type": "event"
    },
    {
      "inputs": [],
      "name": "acceptedTokenAddress",
      "outputs": [
        {
          "internalType": "address",
          "name": "",
          "type": "address"
        }
      ],
      "stateMutability": "view",
      "type": "function"
    },
    {
      "inputs": [
        {
          "internalType": "uint256",
          "name": "tokenId",
          "type": "uint256"
        },
        {
          "internalType": "uint256",
          "name": "price",
          "type": "uint256"
        },
        {
          "internalType": "uint256",
          "name": "_listingPrice",
          "type": "uint256"
        }
      ],
      "name": "addItemToMarket",
      "outputs": [],
      "stateMutability": "payable",
      "type": "function"
    },
    {
      "inputs": [
        {
          "internalType": "address",
          "name": "_newAddress",
          "type": "address"
        }
      ],
      "name": "changeAcceptedToken",
      "outputs": [],
      "stateMutability": "nonpayable",
      "type": "function"
    },
    {
      "inputs": [
        {
          "internalType": "address",
          "name": "_newContract",
          "type": "address"
        }
      ],
      "name": "changeNftContract",
      "outputs": [],
      "stateMutability": "nonpayable",
      "type": "function"
    },
    {
      "inputs": [],
      "name": "getItemsByOwner",
      "outputs": [
        {
          "components": [
            {
              "internalType": "uint256",
              "name": "itemId",
              "type": "uint256"
            },
            {
              "internalType": "uint256",
              "name": "tokenId",
              "type": "uint256"
            },
            {
              "internalType": "address payable",
              "name": "seller",
              "type": "address"
            },
            {
              "internalType": "address payable",
              "name": "owner",
              "type": "address"
            },
            {
              "internalType": "uint256",
              "name": "price",
              "type": "uint256"
            }
          ],
          "internalType": "struct TestMarketplace.MarketItem[]",
          "name": "",
          "type": "tuple[]"
        }
      ],
      "stateMutability": "view",
      "type": "function"
    },
    {
      "inputs": [
        {
          "internalType": "address",
          "name": "_seller",
          "type": "address"
        }
      ],
      "name": "getItemsBySeller",
      "outputs": [
        {
          "components": [
            {
              "internalType": "uint256",
              "name": "itemId",
              "type": "uint256"
            },
            {
              "internalType": "uint256",
              "name": "tokenId",
              "type": "uint256"
            },
            {
              "internalType": "address payable",
              "name": "seller",
              "type": "address"
            },
            {
              "internalType": "address payable",
              "name": "owner",
              "type": "address"
            },
            {
              "internalType": "uint256",
              "name": "price",
              "type": "uint256"
            }
          ],
          "internalType": "struct TestMarketplace.MarketItem[]",
          "name": "",
          "type": "tuple[]"
        }
      ],
      "stateMutability": "view",
      "type": "function"
    },
    {
      "inputs": [
        {
          "internalType": "uint256",
          "name": "marketItemId",
          "type": "uint256"
        }
      ],
      "name": "getMarketItemById",
      "outputs": [
        {
          "components": [
            {
              "internalType": "uint256",
              "name": "itemId",
              "type": "uint256"
            },
            {
              "internalType": "uint256",
              "name": "tokenId",
              "type": "uint256"
            },
            {
              "internalType": "address payable",
              "name": "seller",
              "type": "address"
            },
            {
              "internalType": "address payable",
              "name": "owner",
              "type": "address"
            },
            {
              "internalType": "uint256",
              "name": "price",
              "type": "uint256"
            }
          ],
          "internalType": "struct TestMarketplace.MarketItem",
          "name": "",
          "type": "tuple"
        }
      ],
      "stateMutability": "view",
      "type": "function"
    },
    {
      "inputs": [],
      "name": "getUnsoldItems",
      "outputs": [
        {
          "components": [
            {
              "internalType": "uint256",
              "name": "itemId",
              "type": "uint256"
            },
            {
              "internalType": "uint256",
              "name": "tokenId",
              "type": "uint256"
            },
            {
              "internalType": "address payable",
              "name": "seller",
              "type": "address"
            },
            {
              "internalType": "address payable",
              "name": "owner",
              "type": "address"
            },
            {
              "internalType": "uint256",
              "name": "price",
              "type": "uint256"
            }
          ],
          "internalType": "struct TestMarketplace.MarketItem[]",
          "name": "",
          "type": "tuple[]"
        }
      ],
      "stateMutability": "view",
      "type": "function"
    },
    {
      "inputs": [],
      "name": "listingPrice",
      "outputs": [
        {
          "internalType": "uint256",
          "name": "",
          "type": "uint256"
        }
      ],
      "stateMutability": "view",
      "type": "function"
    },
    {
      "inputs": [],
      "name": "nftContract",
      "outputs": [
        {
          "internalType": "address",
          "name": "",
          "type": "address"
        }
      ],
      "stateMutability": "view",
      "type": "function"
    },
    {
      "inputs": [],
      "name": "owner",
      "outputs": [
        {
          "internalType": "address",
          "name": "",
          "type": "address"
        }
      ],
      "stateMutability": "view",
      "type": "function"
    },
    {
      "inputs": [],
      "name": "renounceOwnership",
      "outputs": [],
      "stateMutability": "nonpayable",
      "type": "function"
    },
    {
      "inputs": [
        {
          "internalType": "uint256",
          "name": "itemId",
          "type": "uint256"
        },
        {
          "internalType": "uint256",
          "name": "itemPrice",
          "type": "uint256"
        }
      ],
      "name": "sellItem",
      "outputs": [],
      "stateMutability": "payable",
      "type": "function"
    },
    {
      "inputs": [
        {
          "internalType": "address",
          "name": "newOwner",
          "type": "address"
        }
      ],
      "name": "transferOwnership",
      "outputs": [],
      "stateMutability": "nonpayable",
      "type": "function"
    }
  ],
  "bytecode": "0x608060405267016345785d8a00006006553480156200001d57600080fd5b506040516200257c3803806200257c8339818101604052810190620000439190620001d7565b6200006362000057620000f460201b60201c565b620000fc60201b60201c565b6001808190555081600460006101000a81548173ffffffffffffffffffffffffffffffffffffffff021916908373ffffffffffffffffffffffffffffffffffffffff16021790555080600560006101000a81548173ffffffffffffffffffffffffffffffffffffffff021916908373ffffffffffffffffffffffffffffffffffffffff160217905550505062000266565b600033905090565b60008060009054906101000a900473ffffffffffffffffffffffffffffffffffffffff169050816000806101000a81548173ffffffffffffffffffffffffffffffffffffffff021916908373ffffffffffffffffffffffffffffffffffffffff1602179055508173ffffffffffffffffffffffffffffffffffffffff168173ffffffffffffffffffffffffffffffffffffffff167f8be0079c531659141344cd1fd0a4f28419497f9722a3daafe3b4186f6b6457e060405160405180910390a35050565b600081519050620001d1816200024c565b92915050565b60008060408385031215620001eb57600080fd5b6000620001fb85828601620001c0565b92505060206200020e85828601620001c0565b9150509250929050565b600062000225826200022c565b9050919050565b600073ffffffffffffffffffffffffffffffffffffffff82169050919050565b620002578162000218565b81146200026357600080fd5b50565b61230680620002766000396000f3fe6080604052600436106100dd5760003560e01c80638da5cb5b1161007f578063d56d229d11610059578063d56d229d1461028d578063e5881724146102b8578063f2fde38b146102e3578063f7d20a231461030c576100dd565b80638da5cb5b1461020c5780639b8bc12714610237578063c78f19f914610262576100dd565b80636c879fde116100bb5780636c879fde14610178578063715018a6146101a15780638606e604146101b8578063889e2cd5146101e1576100dd565b80632d923561146100e257806349bf3efb146100fe57806353dbceb11461013b575b600080fd5b6100fc60048036038101906100f79190611a5c565b610328565b005b34801561010a57600080fd5b50610125600480360381019061012091906119e1565b61066a565b6040516101329190611dd3565b60405180910390f35b34801561014757600080fd5b50610162600480360381019061015d9190611a33565b610995565b60405161016f9190611ef5565b60405180910390f35b34801561018457600080fd5b5061019f600480360381019061019a91906119e1565b610a92565b005b3480156101ad57600080fd5b506101b6610be3565b005b3480156101c457600080fd5b506101df60048036038101906101da91906119e1565b610c6b565b005b3480156101ed57600080fd5b506101f6610dbc565b6040516102039190611d81565b60405180910390f35b34801561021857600080fd5b50610221610de2565b60405161022e9190611d81565b60405180910390f35b34801561024357600080fd5b5061024c610e0b565b6040516102599190611dd3565b60405180910390f35b34801561026e57600080fd5b506102776110b0565b6040516102849190611f10565b60405180910390f35b34801561029957600080fd5b506102a26110b6565b6040516102af9190611d81565b60405180910390f35b3480156102c457600080fd5b506102cd6110dc565b6040516102da9190611dd3565b60405180910390f35b3480156102ef57600080fd5b5061030a600480360381019061030591906119e1565b611405565b005b61032660048036038101906103219190611a98565b6114fd565b005b6002600154141561036e576040517f08c379a000000000000000000000000000000000000000000000000000000000815260040161036590611eb5565b60405180910390fd5b60026001819055506000600760008481526020019081526020016000206004015490506000600760008581526020019081526020016000206001015490508183146103ee576040517f08c379a00000000000000000000000000000000000000000000000000000000081526004016103e590611df5565b60405180910390fd5b60006007600086815260200190815260200160002060020160009054906101000a900473ffffffffffffffffffffffffffffffffffffffff16905060006007600087815260200190815260200160002060030160009054906101000a900473ffffffffffffffffffffffffffffffffffffffff169050336007600088815260200190815260200160002060030160006101000a81548173ffffffffffffffffffffffffffffffffffffffff021916908373ffffffffffffffffffffffffffffffffffffffff160217905550336007600088815260200190815260200160002060020160006101000a81548173ffffffffffffffffffffffffffffffffffffffff021916908373ffffffffffffffffffffffffffffffffffffffff160217905550600460009054906101000a900473ffffffffffffffffffffffffffffffffffffffff1673ffffffffffffffffffffffffffffffffffffffff166323b872dd8233866040518463ffffffff1660e01b815260040161056d93929190611d9c565b600060405180830381600087803b15801561058757600080fd5b505af115801561059b573d6000803e3d6000fd5b50505050600560009054906101000a900473ffffffffffffffffffffffffffffffffffffffff1673ffffffffffffffffffffffffffffffffffffffff166323b872dd3384886040518463ffffffff1660e01b81526004016105fe93929190611d9c565b602060405180830381600087803b15801561061857600080fd5b505af115801561062c573d6000803e3d6000fd5b505050506040513d601f19601f820116820180604052508101906106509190611a0a565b5061065b6003611857565b50505050600180819055505050565b60606000610678600261186d565b905060008060005b83811015610721578573ffffffffffffffffffffffffffffffffffffffff16600760006001846106b09190611f75565b815260200190815260200160002060020160009054906101000a900473ffffffffffffffffffffffffffffffffffffffff1673ffffffffffffffffffffffffffffffffffffffff16141561070e5760018361070b9190611f75565b92505b808061071990612059565b915050610680565b5060008267ffffffffffffffff811115610764577f4e487b7100000000000000000000000000000000000000000000000000000000600052604160045260246000fd5b60405190808252806020026020018201604052801561079d57816020015b61078a611947565b8152602001906001900390816107825790505b50905060005b84811015610988578673ffffffffffffffffffffffffffffffffffffffff16600760006001846107d39190611f75565b815260200190815260200160002060020160009054906101000a900473ffffffffffffffffffffffffffffffffffffffff1673ffffffffffffffffffffffffffffffffffffffff1614156109755760006001826108309190611f75565b90506000600760008381526020019081526020016000206040518060a001604052908160008201548152602001600182015481526020016002820160009054906101000a900473ffffffffffffffffffffffffffffffffffffffff1673ffffffffffffffffffffffffffffffffffffffff1673ffffffffffffffffffffffffffffffffffffffff1681526020016003820160009054906101000a900473ffffffffffffffffffffffffffffffffffffffff1673ffffffffffffffffffffffffffffffffffffffff1673ffffffffffffffffffffffffffffffffffffffff168152602001600482015481525050905080848681518110610958577f4e487b7100000000000000000000000000000000000000000000000000000000600052603260045260246000fd5b60200260200101819052506001856109709190611f75565b945050505b808061098090612059565b9150506107a3565b5080945050505050919050565b61099d611947565b6000600760008481526020019081526020016000206040518060a001604052908160008201548152602001600182015481526020016002820160009054906101000a900473ffffffffffffffffffffffffffffffffffffffff1673ffffffffffffffffffffffffffffffffffffffff1673ffffffffffffffffffffffffffffffffffffffff1681526020016003820160009054906101000a900473ffffffffffffffffffffffffffffffffffffffff1673ffffffffffffffffffffffffffffffffffffffff1673ffffffffffffffffffffffffffffffffffffffff168152602001600482015481525050905080915050919050565b610a9a61187b565b73ffffffffffffffffffffffffffffffffffffffff16610ab8610de2565b73ffffffffffffffffffffffffffffffffffffffff1614610b0e576040517f08c379a0000000000000000000000000000000000000000000000000000000008152600401610b0590611e55565b60405180910390fd5b8073ffffffffffffffffffffffffffffffffffffffff16600560009054906101000a900473ffffffffffffffffffffffffffffffffffffffff1673ffffffffffffffffffffffffffffffffffffffff161415610b9f576040517f08c379a0000000000000000000000000000000000000000000000000000000008152600401610b9690611e95565b60405180910390fd5b80600560006101000a81548173ffffffffffffffffffffffffffffffffffffffff021916908373ffffffffffffffffffffffffffffffffffffffff16021790555050565b610beb61187b565b73ffffffffffffffffffffffffffffffffffffffff16610c09610de2565b73ffffffffffffffffffffffffffffffffffffffff1614610c5f576040517f08c379a0000000000000000000000000000000000000000000000000000000008152600401610c5690611e55565b60405180910390fd5b610c696000611883565b565b610c7361187b565b73ffffffffffffffffffffffffffffffffffffffff16610c91610de2565b73ffffffffffffffffffffffffffffffffffffffff1614610ce7576040517f08c379a0000000000000000000000000000000000000000000000000000000008152600401610cde90611e55565b60405180910390fd5b8073ffffffffffffffffffffffffffffffffffffffff16600460009054906101000a900473ffffffffffffffffffffffffffffffffffffffff1673ffffffffffffffffffffffffffffffffffffffff161415610d78576040517f08c379a0000000000000000000000000000000000000000000000000000000008152600401610d6f90611e75565b60405180910390fd5b80600460006101000a81548173ffffffffffffffffffffffffffffffffffffffff021916908373ffffffffffffffffffffffffffffffffffffffff16021790555050565b600560009054906101000a900473ffffffffffffffffffffffffffffffffffffffff1681565b60008060009054906101000a900473ffffffffffffffffffffffffffffffffffffffff16905090565b60606000610e19600261186d565b90506000610e27600361186d565b610e31600261186d565b610e3b9190611fcb565b90506000808267ffffffffffffffff811115610e80577f4e487b7100000000000000000000000000000000000000000000000000000000600052604160045260246000fd5b604051908082528060200260200182016040528015610eb957816020015b610ea6611947565b815260200190600190039081610e9e5790505b50905060005b848110156110a557600073ffffffffffffffffffffffffffffffffffffffff1660076000600184610ef09190611f75565b815260200190815260200160002060030160009054906101000a900473ffffffffffffffffffffffffffffffffffffffff1673ffffffffffffffffffffffffffffffffffffffff161415611092576000600182610f4d9190611f75565b90506000600760008381526020019081526020016000206040518060a001604052908160008201548152602001600182015481526020016002820160009054906101000a900473ffffffffffffffffffffffffffffffffffffffff1673ffffffffffffffffffffffffffffffffffffffff1673ffffffffffffffffffffffffffffffffffffffff1681526020016003820160009054906101000a900473ffffffffffffffffffffffffffffffffffffffff1673ffffffffffffffffffffffffffffffffffffffff1673ffffffffffffffffffffffffffffffffffffffff168152602001600482015481525050905080848681518110611075577f4e487b7100000000000000000000000000000000000000000000000000000000600052603260045260246000fd5b602002602001018190525060018561108d9190611f75565b945050505b808061109d90612059565b915050610ebf565b508094505050505090565b60065481565b600460009054906101000a900473ffffffffffffffffffffffffffffffffffffffff1681565b606060006110ea600261186d565b905060008060005b83811015611193573373ffffffffffffffffffffffffffffffffffffffff16600760006001846111229190611f75565b815260200190815260200160002060030160009054906101000a900473ffffffffffffffffffffffffffffffffffffffff1673ffffffffffffffffffffffffffffffffffffffff1614156111805760018361117d9190611f75565b92505b808061118b90612059565b9150506110f2565b5060008267ffffffffffffffff8111156111d6577f4e487b7100000000000000000000000000000000000000000000000000000000600052604160045260246000fd5b60405190808252806020026020018201604052801561120f57816020015b6111fc611947565b8152602001906001900390816111f45790505b50905060005b848110156113fa573373ffffffffffffffffffffffffffffffffffffffff16600760006001846112459190611f75565b815260200190815260200160002060030160009054906101000a900473ffffffffffffffffffffffffffffffffffffffff1673ffffffffffffffffffffffffffffffffffffffff1614156113e75760006001826112a29190611f75565b90506000600760008381526020019081526020016000206040518060a001604052908160008201548152602001600182015481526020016002820160009054906101000a900473ffffffffffffffffffffffffffffffffffffffff1673ffffffffffffffffffffffffffffffffffffffff1673ffffffffffffffffffffffffffffffffffffffff1681526020016003820160009054906101000a900473ffffffffffffffffffffffffffffffffffffffff1673ffffffffffffffffffffffffffffffffffffffff1673ffffffffffffffffffffffffffffffffffffffff1681526020016004820154815250509050808486815181106113ca577f4e487b7100000000000000000000000000000000000000000000000000000000600052603260045260246000fd5b60200260200101819052506001856113e29190611f75565b945050505b80806113f290612059565b915050611215565b508094505050505090565b61140d61187b565b73ffffffffffffffffffffffffffffffffffffffff1661142b610de2565b73ffffffffffffffffffffffffffffffffffffffff1614611481576040517f08c379a000000000000000000000000000000000000000000000000000000000815260040161147890611e55565b60405180910390fd5b600073ffffffffffffffffffffffffffffffffffffffff168173ffffffffffffffffffffffffffffffffffffffff1614156114f1576040517f08c379a00000000000000000000000000000000000000000000000000000000081526004016114e890611e15565b60405180910390fd5b6114fa81611883565b50565b60026001541415611543576040517f08c379a000000000000000000000000000000000000000000000000000000000815260040161153a90611eb5565b60405180910390fd5b600260018190555061155361187b565b73ffffffffffffffffffffffffffffffffffffffff16611571610de2565b73ffffffffffffffffffffffffffffffffffffffff16146115c7576040517f08c379a00000000000000000000000000000000000000000000000000000000081526004016115be90611e55565b60405180910390fd5b6000821161160a576040517f08c379a000000000000000000000000000000000000000000000000000000000815260040161160190611ed5565b60405180910390fd5b600654811461164e576040517f08c379a000000000000000000000000000000000000000000000000000000000815260040161164590611e35565b60405180910390fd5b6116586002611857565b6000611664600261186d565b90506040518060a001604052808281526020018581526020013373ffffffffffffffffffffffffffffffffffffffff1681526020013073ffffffffffffffffffffffffffffffffffffffff1681526020018481525060076000838152602001908152602001600020600082015181600001556020820151816001015560408201518160020160006101000a81548173ffffffffffffffffffffffffffffffffffffffff021916908373ffffffffffffffffffffffffffffffffffffffff16021790555060608201518160030160006101000a81548173ffffffffffffffffffffffffffffffffffffffff021916908373ffffffffffffffffffffffffffffffffffffffff16021790555060808201518160040155905050600460009054906101000a900473ffffffffffffffffffffffffffffffffffffffff1673ffffffffffffffffffffffffffffffffffffffff166342842e0e3330876040518463ffffffff1660e01b81526004016117da93929190611d9c565b600060405180830381600087803b1580156117f457600080fd5b505af1158015611808573d6000803e3d6000fd5b5050505083817f38690a554ffbc44eb6a75016e47d517d0db8e6c37494adc68d6d0b2c66f0ab213360008760405161184293929190611d9c565b60405180910390a35060018081905550505050565b6001816000016000828254019250508190555050565b600081600001549050919050565b600033905090565b60008060009054906101000a900473ffffffffffffffffffffffffffffffffffffffff169050816000806101000a81548173ffffffffffffffffffffffffffffffffffffffff021916908373ffffffffffffffffffffffffffffffffffffffff1602179055508173ffffffffffffffffffffffffffffffffffffffff168173ffffffffffffffffffffffffffffffffffffffff167f8be0079c531659141344cd1fd0a4f28419497f9722a3daafe3b4186f6b6457e060405160405180910390a35050565b6040518060a001604052806000815260200160008152602001600073ffffffffffffffffffffffffffffffffffffffff168152602001600073ffffffffffffffffffffffffffffffffffffffff168152602001600081525090565b6000813590506119b18161228b565b92915050565b6000815190506119c6816122a2565b92915050565b6000813590506119db816122b9565b92915050565b6000602082840312156119f357600080fd5b6000611a01848285016119a2565b91505092915050565b600060208284031215611a1c57600080fd5b6000611a2a848285016119b7565b91505092915050565b600060208284031215611a4557600080fd5b6000611a53848285016119cc565b91505092915050565b60008060408385031215611a6f57600080fd5b6000611a7d858286016119cc565b9250506020611a8e858286016119cc565b9150509250929050565b600080600060608486031215611aad57600080fd5b6000611abb868287016119cc565b9350506020611acc868287016119cc565b9250506040611add868287016119cc565b9150509250925092565b6000611af38383611c93565b60a08301905092915050565b611b0881612011565b82525050565b611b1781611fff565b82525050565b6000611b2882611f3b565b611b328185611f53565b9350611b3d83611f2b565b8060005b83811015611b6e578151611b558882611ae7565b9750611b6083611f46565b925050600181019050611b41565b5085935050505092915050565b6000611b88601b83611f64565b9150611b93826120d1565b602082019050919050565b6000611bab602683611f64565b9150611bb6826120fa565b604082019050919050565b6000611bce602583611f64565b9150611bd982612149565b604082019050919050565b6000611bf1602083611f64565b9150611bfc82612198565b602082019050919050565b6000611c14602683611f64565b9150611c1f826121c1565b604082019050919050565b6000611c37601c83611f64565b9150611c4282612210565b602082019050919050565b6000611c5a601f83611f64565b9150611c6582612239565b602082019050919050565b6000611c7d601c83611f64565b9150611c8882612262565b602082019050919050565b60a082016000820151611ca96000850182611d63565b506020820151611cbc6020850182611d63565b506040820151611ccf6040850182611aff565b506060820151611ce26060850182611aff565b506080820151611cf56080850182611d63565b50505050565b60a082016000820151611d116000850182611d63565b506020820151611d246020850182611d63565b506040820151611d376040850182611aff565b506060820151611d4a6060850182611aff565b506080820151611d5d6080850182611d63565b50505050565b611d6c8161204f565b82525050565b611d7b8161204f565b82525050565b6000602082019050611d966000830184611b0e565b92915050565b6000606082019050611db16000830186611b0e565b611dbe6020830185611b0e565b611dcb6040830184611d72565b949350505050565b60006020820190508181036000830152611ded8184611b1d565b905092915050565b60006020820190508181036000830152611e0e81611b7b565b9050919050565b60006020820190508181036000830152611e2e81611b9e565b9050919050565b60006020820190508181036000830152611e4e81611bc1565b9050919050565b60006020820190508181036000830152611e6e81611be4565b9050919050565b60006020820190508181036000830152611e8e81611c07565b9050919050565b60006020820190508181036000830152611eae81611c2a565b9050919050565b60006020820190508181036000830152611ece81611c4d565b9050919050565b60006020820190508181036000830152611eee81611c70565b9050919050565b600060a082019050611f0a6000830184611cfb565b92915050565b6000602082019050611f256000830184611d72565b92915050565b6000819050602082019050919050565b600081519050919050565b6000602082019050919050565b600082825260208201905092915050565b600082825260208201905092915050565b6000611f808261204f565b9150611f8b8361204f565b9250827fffffffffffffffffffffffffffffffffffffffffffffffffffffffffffffffff03821115611fc057611fbf6120a2565b5b828201905092915050565b6000611fd68261204f565b9150611fe18361204f565b925082821015611ff457611ff36120a2565b5b828203905092915050565b600061200a8261202f565b9050919050565b600061201c8261202f565b9050919050565b60008115159050919050565b600073ffffffffffffffffffffffffffffffffffffffff82169050919050565b6000819050919050565b60006120648261204f565b91507fffffffffffffffffffffffffffffffffffffffffffffffffffffffffffffffff821415612097576120966120a2565b5b600182019050919050565b7f4e487b7100000000000000000000000000000000000000000000000000000000600052601160045260246000fd5b7f41736b696e67205072696365206e6f7420736174697366696564210000000000600082015250565b7f4f776e61626c653a206e6577206f776e657220697320746865207a65726f206160008201527f6464726573730000000000000000000000000000000000000000000000000000602082015250565b7f50726963652073686f756c642062652073616d65206173206c697374696e672060008201527f7072696365000000000000000000000000000000000000000000000000000000602082015250565b7f4f776e61626c653a2063616c6c6572206973206e6f7420746865206f776e6572600082015250565b7f53616d6520436f6e7472616374204164647265737320666f72204e657720436f60008201527f6e74726163740000000000000000000000000000000000000000000000000000602082015250565b7f53616d6520507572636861736520546f6b656e20737570706c69656400000000600082015250565b7f5265656e7472616e637947756172643a207265656e7472616e742063616c6c00600082015250565b7f5072696365206d757374206265206174206c6561737420312077656900000000600082015250565b61229481611fff565b811461229f57600080fd5b50565b6122ab81612023565b81146122b657600080fd5b50565b6122c28161204f565b81146122cd57600080fd5b5056fea264697066735822122006add2c8152a11e66f2289f71572fc23c5332e6346de465a1081e5e491815bf864736f6c63430008040033",
  "linkReferences": {},
  "deployedLinkReferences": {}
}